:1026000002A6DB008F828E83E0540100000070F888
:102610002278FFE4F6D8FD02A76990002FEEF0A320
:10262000EFF078317C007D017BFF7A5779177E07C8
:102630007F6D12789090079E7407F0A3746DF07808
:10264000A57C077D017BFF7A5E79847E007F0F1277
:10265000789078B47C077D017BFF7A5E79937E0069
:102660007F1C12789078D07C077D017BFF7A5E79A1
:10267000AF7E007F1B12789078EB7C077D017BFF9B
:102680007A5E79CA7E007F1C12789078077C087D7C
:10269000017BFF7A5E79E67E007F1B1278907822BC
:1026A0007C087D017BFF7A5F79017E007F271278AD
:1026B0009078497C087D017BFF7A5F79287E007FD6
:1026C00015127890785E7C087D017BFF7A5F793DFA
:1026D0007E007F1912789078777C087D017BFF7AE5
:1026E0005F79567E007F1112789078887C087D0192
:1026F0007BFF7A5F79677E007F1C12789078A47CDC
:10270000087D017BFF7A5F79837E007F1D127890C0
:1027100078C17C087D017BFF7A5F79A07E007F1BFA
:1027200012789078DC7C087D017BFF7A5F79BB7E34
:10273000007F1412789078F07C087D017BFF7A5F2F
:1027400079CF7E007F2012789078107C097D017B04
:10275000FF7A5F79EF7E007F2412789078347C09CD
:102760007D017BFF7A6079137E007F181278907864
:102770004C7C097D017BFF7A60792B7E007F2512DE
:10278000789078717C097D017BFF7A6079507E00BA
:102790007F1612789078877C097D017BFF7A6079BB
:1027A000667E007F2712789078AE7C097D017BFFE2
:1027B0007A60798D7E007F2312789078D17C097DB4
:1027C000017BFF7A6079B07E007F1F12789078F0ED
:1027D0007C097D017BFF7A6079CF7E007F0E1278C5
:1027E0009078FE7C097D017BFF7A6079DD7E007F39
:1027F0002212789078207C0A7D017BFF7A6079FF35
:102800007E007F2112789078417C0A7D017BFF7ADF
:102810006179207E007F1512789078567C0A7D01C0
:102820007BFF7A6179357E007F34127890788A7CDC
:102830000A7D017BFF7A6179697E007F3B12789087
:1028400078C57C0A7D017BFF7A6179A47E007F2AAE
:1028500012789078EF7C0A7D017BFF7A6179CE7ED9
:10286000007F161278907B017A0779A512C46A8FCF
:10287000697B017A0779B412C46A8F6A7B017A078F
:1028800079D012C46A8F6B7B017A08794912C46AC5
:102890008F6C7B017A08795E12C46A8F6D7B017A36
:1028A00008797712C46A8F6E7B017A0879A412C402
:1028B0006A8F6F7B017A0879DC12C46A8F707B01A2
:1028C0007A0879F012C46A8F717B017A0979101243
:1028D000C46A8F727B017A09793412C46A8F737B60
:1028E000017A09797112C46A8F747B017A0A795668
:1028F00012C46A8F757B017A0A798A12C46A8F764C
:102900007B017A0A79C512C46A8F777B017A0A79CA
:10291000EF12C46A8F787B017A0979AE12C46A8F8C
:10292000797B017A0979D112C46A8F7A7B017A099D
:1029300079F012C46A8F7B7B017A0A792012C46A0B
:10294000900B05EFF0900031740CF0A37419F09027
:10295000002FE0FEA3E0FFEE6003023E70EFB41A2A
:10296000004003023E7090296DF82828730229BBAD
:102970000238BF0238C8023998023A68023A7B022C
:102980003A84023A8D023AC6023B71023BD8023BBE
:10299000E1023D06023D8C023D9C023DB1023DC17B
:1029A000023DD1023DE8023DF8023E0C023E21020A
:1029B0003E36023E3F023E53023E689000337402B0
:1029C000F0A314F0900B10E0900035F075670085CF
:1029D0006968E5684567602CC3E5699568FFE4951B
:1029E00067FE74A52FF58274073EF583E0FD74360B
:1029F0002FF58274003EF583EDF0E56815687002EE
:102A0000156780CE9000657407F0A37403F0900BF7
:102A100045E064036068900B11E0FCA3E0FDA3E0D7
:102A2000FEA3E0FFEC127264E4FBFA7980784712AF
:102A3000714E900067127731900B15E0FCA3E0FD1A
:102A4000A3E0FEA3E0FFEC127264E4FBFA79807865
:102A50004712714E90006B127731900B19E0FCA376
:102A6000E0FDA3E0FEA3E0FFEC127264E4FBFA7960
:102A700080784712714E90006F1277318066900B0C
:102A800029E0FCA3E0FDA3E0FEA3E0FFEC127264EA
:102A9000E4FBFA7980784712714E90006712773123
:102AA000900B2DE0FCA3E0FDA3E0FEA3E0FFEC1201
:102AB0007264E4FBFA7980784712714E90006B12D1
:102AC0007731900B31E0FCA3E0FDA3E0FEA3E0FF33
:102AD000EC127264E4FBFA7980784712714E900030
:102AE0006F127731756700856A68E5684567602C05
:102AF000C3E56A9568FFE49567FE74B42FF58274A8
:102B0000073EF583E0FD74732FF58274003EF58374
:102B1000EDF0E56815687002156780CE9000977437
:102B200007F0A37403F0900B45E064036068900B1A
:102B30001DE0FCA3E0FDA3E0FEA3E0FFEC12726445
:102B4000E4FBFA7980784712714E90009912773140
:102B5000900B21E0FCA3E0FDA3E0FEA3E0FFEC125C
:102B60007264E4FBFA7980784712714E90009D12EE
:102B70007731900B25E0FCA3E0FDA3E0FEA3E0FF8E
:102B8000EC127264E4FBFA7980784712714E90007F
:102B9000A11277318066900B35E0FCA3E0FDA3E045
:102BA000FEA3E0FFEC127264E4FBFA79807847122E
:102BB000714E900099127731900B39E0FCA3E0FD43
:102BC000A3E0FEA3E0FFEC127264E4FBFA798078E4
:102BD0004712714E90009D127731900B3DE0FCA39F
:102BE000E0FDA3E0FEA3E0FFEC127264E4FBFA79DF
:102BF00080784712714E9000A11277317567008579
:102C00006B68E5684567602CC3E56B9568FFE495E4
:102C100067FE74D02FF58274073EF583E0FD74A53E
:102C20002FF58274003EF583EDF0E56815687002BB
:102C3000156780CEE49000C9F0A304F0900B43E048
:102C40009000CBF0900B43601F900B0974FFF0A332
:102C50007451F0A37468F07B017A0779EB12B7AB7B
:102C60009007A0741CF0801D900B0974FFF0A374F2
:102C700051F0A3746EF07B017A0779EB12B7AB9039
:102C800007A0741BF09007A0E0756700F568E56881
:102C90004567602E9007A0E0C39568FFE49567FE46
:102CA00074EB2FF58274073EF583E0FD74CC2FF5AD
:102CB0008274003EF583EDF0E568156870021567D3
:102CC00080CC9007A0E024CCF582E43400F5837436
:102CD00003F0E49000FBF0A304F0900B44E09000BC
:102CE000FDF0900B4414602204703C900B0974FFBB
:102CF000F0A37451F0A37473F07B017A0879071282
:102D0000B7AB9007A07414F0801D900B0974FFF00E
:102D1000A37451F0A37479F07B017A08790712B794
:102D2000AB9007A0741AF09007A0E0756700F568F3
:102D3000E5684567602E9007A0E0C39568FFE495BD
:102D400067FE74072FF58274083EF583E0FD74FE7C
:102D50002FF58274003EF583EDF0E568156870028A
:102D6000156780CC9007A0E024FEF582E43400F5DE
:102D7000837401F0E490012DF0A304F0900B45E082
:102D800090012FF0900B4514602914604514606188
:102D90002403707A900B0974FFF0A37451F0A374AC
:102DA00085F07B017A08792212B7AB9007A0741BDB
:102DB000F0805B900B0974FFF0A37451F0A3749042
:102DC000F07B017A08792212B7AB9007A07416F055
:102DD000803C900B0974FFF0A37451F0A37496F03B
:102DE0007B017A08792212B7AB9007A0741AF080A1
:102DF0001D900B0974FFF0A37451F0A374A0F07B35
:102E0000017A08792212B7AB9007A07427F09007D7
:102E1000A0E0756700F568E5684567602E9007A03B
:102E2000E0C39568FFE49567FE74222FF58274086D
:102E30003EF583E0FD74302FF58274013EF583ED9D
:102E4000F0E56815687002156780CC9007A0E02453
:102E500030F582E43401F5837402F090015FF0A351
:102E600004F0E4F567F568C3E5689403E56794004A
:102E7000502674462568F582740B3567F583E0FFAC
:102E800074612568F58274013567F583EFF0056894
:102E9000E5687002056780CF756700856C68E56836
:102EA0004567602CC3E56C9568FFE49567FE74493F
:102EB0002FF58274083EF583E0FD74642FF582746B
:102EC000013EF583EDF0E56815687002156780CE68
:102ED0009001917403F0A3F0E4F567F568C3E56829
:102EE0009403E56794005059E568AE677802C333F0
:102EF000CE33CED8F92449F582740B3EF583E0FC3D
:102F0000A3E0FDA3E0FEA3E0FF74462568F582740C
:102F10000B3567F583E0F9F81276D0AD07AC06E51E
:102F20006825E0FFE56733FE74932FF58274013E58
:102F3000F583ECF0A3EDF00568E5687002056780A5
:102F40009C756700856D68E5684567602CC3E56D15
:102F50009568FFE49567FE745E2FF58274083EF570
:102F600083E0FD74992FF58274013EF583EDF0E561
:102F70006815687002156780CE9001C37407F0A3CE
:102F80007403F0E4F567F568C3E5689403E56794B6
:102F9000005054E568AE677802C333CE33CED8F91B
:102FA0002455F582740B3EF583E0FCA3E0FDA3E01D
:102FB000FEA3E0FFC004C005C006C007E568AE6719
:102FC0007802C333CE33CED8F924C5F58274013EDE
:102FD000F583D007D006D005D0041277310568E517
:102FE000687002056780A1E4F567F5687B017A08DF
:102FF000797712C46AC3E5689FE5679E50267477A7
:103000002568F58274083567F583E0FF74D125687B
:10301000F58274013567F583EFF00568E5687002A5
:10302000056780C8E49001F5F0A304F0900B61E01F
:103030009001F7F0900B61601F900B0974FFF0A3F3
:103040007451F0A37468F07B017A08798812B7ABE9
:103050009007A0741CF0801D900B0974FFF0A374FE
:1030600051F0A3746EF07B017A08798812B7AB90A7
:1030700007A0741BF09007A0E0756700F568E5688D
:103080004567602E9007A0E0C39568FFE49567FE52
:1030900074882FF58274083EF583E0FD74F82FF5EF
:1030A0008274013EF583EDF0E568156870021567DE
:1030B00080CC9007A0E024F8F582E43401F5837415
:1030C00003F09002277405F0A314F0E4F567F568A7
:1030D000C3E5689402E567940040030231A1E56806
:1030E000AE677802C333CE33CED8F92462F582744A
:1030F0000B3EF583E0FCA3E0FDA3E0FEA3E0FF743C
:10310000462568F582740B3567F583E0F9F8127689
:10311000D0C004C005C006C007E568AE677803C329
:1031200033CE33CED8F92429F58274023EF583D00C
:1031300007D006D005D004127731E568AE67780273
:10314000C333CE33CED8F9246AF582740B3EF583AF
:10315000E0FCA3E0FDA3E0FEA3E0FF74462568F5D4
:1031600082740B3567F583E0F9F81276D0C004C09D
:1031700005C006C007E568AE677803C333CE33CE1B
:10318000D8F9242DF58274023EF583D007D006D0FD
:1031900005D0041277310568E568700205670230D2
:1031A000D0756700856F68E5684567602CC3E56F7B
:1031B0009568FFE49567FE74A42FF58274083EF5C8
:1031C00083E0FD74392FF58274023EF583EDF0E55E
:1031D0006815687002156780CE9002597405F0A3D7
:1031E0007402F0900B76E0FCA3E0FDA3E0FEA3E008
:1031F000FF90025B127731900B7AE0FCA3E0FDA315
:10320000E0FEA3E0FF90025F127731E4F567F56816
:103210007B017A0879C112C46AC3E5689FE5679E9D
:10322000502674C12568F58274083567F583E0FF80
:1032300074632568F58274023567F583EFF00568DD
:10324000E5687002056780C890028B7403F0A37470
:1032500001F0900B41E0FFA3E090028DCFF0A3EFCF
:10326000F0756700857068E5684567602CC3E57098
:103270009568FFE49567FE74DC2FF58274083EF5CF
:1032800083E0FD748F2FF58274023EF583EDF0E547
:103290006815687002156780CE9002BD7407F0A3B0
:1032A0007401F0900B7FE0FCA3E0FDA3E0FEA3E03F
:1032B000FF9002BF127731756700857168E5684538
:1032C00067602CC3E5719568FFE49567FE74F02F85
:1032D000F58274083EF583E0FD74C32FF582740215
:1032E0003EF583EDF0E56815687002156780CE90B5
:1032F00002EF7403F0A37401F0900B83E0FFA3E0EE
:103300009002F1CFF0A3EFF0756700857268E56871
:103310004567602CC3E5729568FFE49567FE7410FD
:103320002FF58274093EF583E0FD74F32FF5827466
:10333000023EF583EDF0E56815687002156780CEF2
:103340009003217403F0A37401F0900B85E0FFA3B8
:10335000E0900323CFF0A3EFF0756700857368E575
:10336000684567602CC3E5739568FFE49567FE7454
:10337000342FF58274093EF583E0FD74252FF58224
:1033800074033EF583EDF0E56815687002156780FB
:10339000CEE4900353F0A304F0900B7EE09003552D
:1033A000F0900B7E601F900B0974FFF0A37451F036
:1033B000A37468F07B017A09794C12B7AB9007A02F
:1033C0007425F0801D900B0974FFF0A37451F0A3D5
:1033D000746EF07B017A09794C12B7AB9007A07438
:1033E00024F09007A0E0756700F568E56845676020
:1033F0002E9007A0E0C39568FFE49567FE744C2FFC
:10340000F58274093EF583E0FD74562FF58274034E
:103410003EF583EDF0E56815687002156780CC9085
:1034200007A0E02456F582E43403F5837403F0909A
:10343000038504F0A37401F0900B96E0FFA3E090E5
:103440000387CFF0A3EFF0756700857468E56845E2
:1034500067602CC3E5749568FFE49567FE74712F6F
:10346000F58274093EF583E0FD74892FF5827403BB
:103470003EF583EDF0E56815687002156780CEE4CF
:103480009003B7F0A304F0900B87E09003B9F0909D
:103490000B87601F900B0974FFF0A37451F0A374A5
:1034A00068F07B017A09798712B7AB9007A074277F
:1034B000F0801D900B0974FFF0A37451F0A3746E9B
:1034C000F07B017A09798712B7AB9007A07426F0D8
:1034D0009007A0E0756700F568E5684567602E9085
:1034E00007A0E0C39568FFE49567FE74872FF58217
:1034F00074093EF583E0FD74BA2FF58274033EF53E
:1035000083EDF0E56815687002156780CC9007A020
:10351000E024BAF582E43403F5837403F09003E900
:103520007405F0A37401F0900B88E0FCA3E0FDA308
:10353000E0FEA3E0FF9003EB127731756700857919
:1035400068E5684567602CC3E5799568FFE4956791
:10355000FE74AE2FF58274093EF583E0FD74EF2F03
:10356000F58274033EF583EDF0E568156870021589
:103570006780CE90041B7405F0A37401F0900B904B
:10358000E0FCA3E0FDA3E0FEA3E0FF90041D1277A2
:1035900031756700857A68E5684567602CC3E57A10
:1035A0009568FFE49567FE74D12FF58274093EF5A6
:1035B00083E0FD74212FF58274043EF583EDF0E580
:1035C0006815687002156780CE90044D7402F0A3F0
:1035D00014F0900B94E090044FF0756700857B68C1
:1035E000E5684567602CC3E57B9568FFE49567FE59
:1035F00074F02FF58274093EF583E0FD74502FF5C9
:103600008274043EF583EDF0E56815687002156775
:1036100080CEE490047FF0A304F0900B95E090043A
:1036200081F0900B95601F900B0974FFF0A374510B
:10363000F0A37468F07B017A0979FE12B7AB9007AA
:10364000A07422F0801D900B0974FFF0A37451F058
:10365000A3746EF07B017A0979FE12B7AB9007A0D4
:103660007421F09007A0E0756700F568E56845678C
:10367000602E9007A0E0C39568FFE49567FE74FE96
:103680002FF58274093EF583E0FD74822FF5827474
:10369000043EF583EDF0E56815687002156780CC8F
:1036A0009007A0E02482F582E43404F5837403F0EB
:1036B0009004B17405F0A37401F0900B98E0FCA3A2
:1036C000E0FDA3E0FEA3E0FF9004B3127731900B7E
:1036D00005E0756700F568E5684567602E900B05A5
:1036E000E0C39568FFE49567FE74202FF582740AA5
:1036F0003EF583E0FD74B72FF58274043EF583ED4B
:10370000F0E56815687002156780CCE49004E3F07A
:10371000A304F0900B9CE09004E5F0900B9C601FDC
:10372000900B0974FFF0A37451F0A374B7F07B0100
:103730007A0A794112B7AB9007A07414F0801D90FB
:103740000B0974FFF0A37451F0A374BEF07B017AEF
:103750000A794112B7AB9007A07415F09007A0E06A
:10376000756700F568E5684567602E9007A0E0C3BF
:103770009568FFE49567FE74412FF582740A3EF563
:1037800083E0FD74E62FF58274043EF583EDF0E5E9
:103790006815687002156780CC9007A0E024E6F5F4
:1037A00082E43404F5837404F0756700857568E578
:1037B000684567602CC3E5759568FFE49567FE74FE
:1037C000562FF582740A3EF583E0FD74152FF582BD
:1037D00074053EF583EDF0E56815687002156780A5
:1037E000CE756700857668E5684567602CC3E57629
:1037F0009568FFE49567FE748A2FF582740A3EF59A
:1038000083E0FD74AB2FF58274053EF583EDF0E5A2
:103810006815687002156780CE756700857768E562
:10382000684567602CC3E5779568FFE49567FE748B
:10383000C52FF582740A3EF583E0FD74412FF582B1
:1038400074063EF583EDF0E5681568700215678033
:10385000CE756700857868E5684567602CC3E578B4
:103860009568FFE49567FE74EF2FF582740A3EF5C4
:1038700083E0FD74D72FF58274063EF583EDF0E505
:103880006815687002156780CE7B017A00793190E7
:10389000079EE0A3E014FD12BFD690079EE0FCA3B4
:1038A000E0FD2430F58274003CF583EFF07B017A73
:1038B000007931E4900B0BF012B02E12C53E22902D
:1038C0000C68E0900BA7F022900B45E06403606465
:1038D000E4FFFE7D807C47900C68E0F8A3E0F9A34C
:1038E000E0FAA3E0FB1270451272A2900BA81277C7
:1038F00031E4FFFE7D807C47900C6CE0F8A3E0F99A
:10390000A3E0FAA3E0FB1270451272A2900BAC1276
:103910007731E4FFFE7D807C47900C70E0F8A3E0F7
:10392000F9A3E0FAA3E0FB1270451272A2900BB06B
:1039300012773122E4FFFE7D807C47900C68E0F82E
:10394000A3E0F9A3E0FAA3E0FB1270451272A29083
:103950000BC0127731E4FFFE7D807C47900C6CE059
:10396000F8A3E0F9A3E0FAA3E0FB1270451272A2FB
:10397000900BC4127731E4FFFE7D807C47900C7081
:10398000E0F8A3E0F9A3E0FAA3E0FB12704512729D
:10399000A2900BC812773122900B45E0640360645B
:1039A000E4FFFE7D807C47900C68E0F8A3E0F9A37B
:1039B000E0FAA3E0FB1270451272A2900BB41277EA
:1039C00031E4FFFE7D807C47900C6CE0F8A3E0F9C9
:1039D000A3E0FAA3E0FB1270451272A2900BB8129A
:1039E0007731E4FFFE7D807C47900C70E0F8A3E027
:1039F000F9A3E0FAA3E0FB1270451272A2900BBC8F
:103A000012773122E4FFFE7D807C47900C68E0F85D
:103A1000A3E0F9A3E0FAA3E0FB1270451272A290B2
:103A20000BCC127731E4FFFE7D807C47900C6CE07C
:103A3000F8A3E0F9A3E0FAA3E0FB1270451272A22A
:103A4000900BD0127731E4FFFE7D807C47900C70A4
:103A5000E0F8A3E0F9A3E0FAA3E0FB1270451272CC
:103A6000A2900BD412773122900C68E06007900B83
:103A7000DA7403F022E4900BDAF022900C68E09004
:103A80000BDBF022900C68E0900BDCF022E4F56791
:103A9000F568C3E5689403E56794004003023E704F
:103AA00074682568F582740C3567F583E0FF74DD72
:103AB0002568F582740B3567F583EFF00568E568D6
:103AC0007002056780CCE4F567F568C3E568940388
:103AD000E56794004003023B6EE56825E0FFE5677B
:103AE00033FE74682FF582740C3EF583E0FEA3E08C
:103AF000FFEE3395E0FDFCC004C005C006C007E53D
:103B000068AE677802C333CE33CED8F9FBAA062459
:103B1000E0F582740B3AF583D007D006D005D004C7
:103B200012773174E02BF582740B3AF583C083C0B1
:103B300082E0FCA3E0FDA3E0FEA3E0FF74DD2568C6
:103B4000F582740B3567F583E0F9F81276E4D082DC
:103B5000D08312773174172568F582740D3567F5B7
:103B600083E4F00568E56870020567023ACBD20E7F
:103B700022E4F567F568C3E5689403E567940040BF
:103B800003023E70E568AE677802C333CE33CED809
:103B9000F92468F582740C3EF583E0FCA3E0FDA3F4
:103BA000E0FEA3E0FFC004C005C006C007E568AEA4
:103BB000677802C333CE33CED8F924ECF582740B88
:103BC0003EF583D007D006D005D0041277310568C2
:103BD000E56870020567809E900C68E0900BF8F035
:103BE00022E4F567F568C3E5689402E56794004050
:103BF00003023E70E568AE677803C333CE33CED898
:103C0000F92468F582740C3EF583E0FCA3E0FDA383
:103C1000E0FEA3E0FFC004C005C006C007E568AE33
:103C2000677802C333CE33CED8F924F9F582740B0A
:103C30003EF583D007D006D005D004127731E56871
:103C4000AE677803C333CE33CED8F9246CF58274D3
:103C50000C3EF583E0FCA3E0FDA3E0FEA3E0FFC083
:103C600004C005C006C007E568AE677802C333CE5E
:103C700033CED8F9FBAA062401F582740C3AF583F9
:103C8000D007D006D005D00412773174F92BF58215
:103C9000740B3AF583C083C082E0FCA3E0FDA3E08F
:103CA000FEA3E0FF74DD2568F582740B3567F583AC
:103CB000E0F9F81276E4D082D083127731E568AE6D
:103CC000677802C333CE33CED8F92401F582740C61
:103CD0003EF583C083C082E0FCA3E0FDA3E0FEA329
:103CE000E0FF74DD2568F582740B3567F583E0F934
:103CF000F81276E4D082D0831277310568E56870D7
:103D0000020567023BE6900C68E0FCA3E0FDA3E03F
:103D1000FEA3E0FF9007A1127731E4FFFEFDFC90C7
:103D200007A1E0F8A3E0F9A3E0FAA3E0FBD3127641
:103D30009650149007A1E0FCA3E0FDA3E0FEA3E0F1
:103D4000FF900C0D127731900C6CE0FCA3E0FDA30A
:103D5000E0FEA3E0FF9007A1127731E4FFFEFDFC37
:103D60009007A1E0F8A3E0F9A3E0FAA3E0FBC312F7
:103D700076965003023E709007A1E0FCA3E0FDA3FD
:103D8000E0FEA3E0FF900C1112773122900C68E066
:103D9000FFA3E0900BD8CFF0A3EFF022900C68E0E7
:103DA000FCA3E0FDA3E0FEA3E0FF900C1612773128
:103DB00022900C68E0FFA3E0900C1ACFF0A3EFF084
:103DC00022900C68E0FFA3E0900C1CCFF0A3EFF072
:103DD00022900C68E0900C15F07003023E70E490A5
:103DE0000C1EF0900C2CF022900C68E0FFA3E090E9
:103DF0000C2DCFF0A3EFF022900C68E0900C1EF099
:103E0000606EE4900C15F0900C2CF022900C68E0A1
:103E1000FCA3E0FDA3E0FEA3E0FF900C1F127731AE
:103E200022900C68E0FCA3E0FDA3E0FEA3E0FF907D
:103E30000C2712773122900C68E0900C2BF0229026
:103E40000C68E0900C2CF06027E4900C15F0900CBE
:103E50001EF022900C68E0FCA3E0FDA3E0FEA3E0CE
:103E6000FF900C2F12773122900C68E0900C33F009
:103E70002290060BEBF0A3EAF0A3E9F090060BE02A
:103E8000FBA3E0FAA3E0F8AC02AD037BFF7A517923
:103E9000C612796E900B0974FFF0A37451F0A374ED
:103EA000C7F090060BE0FBA3E0FAA3E0F912B7AB72
:103EB000900B0974FFF0A37451F0A374CAF090063C
:103EC0000BE0FBA3E0FAA3E0F912B7AB900B097487
:103ED000FFF0A37451F0A374DDF090060BE0FBA398
:103EE000E0FAA3E0F912B7AB900B0974FFF0A374EA
:103EF00051F0A374EDF090060BE0FBA3E0FAA3E011
:103F0000F912B7AB900B0974FFF0A37451F0A374CE
:103F1000F3F090060BE0FBA3E0FAA3E0F912B7ABD5
:103F200090064374FFF0A37452F0A37401F0900B59
:103F300010E0FF900646E4F0A3EFF07B017A0679EB
:103F40000E12810C900B097401F0A37406F0A37497
:103F50000EF090060BE0FBA3E0FAA3E0F912B7AB7A
:103F600090064374FFF0A37452F0A3740AF0A3E424
:103F7000F0A37403F07B017A06790E12810C900B8A
:103F8000097401F0A37406F0A3740EF090060BE020
:103F9000FBA3E0FAA3E0F912B7AB90064374FFF07D
:103FA000A37452F0A37422F0900B96E0FFA3E0906C
:103FB0000646CFF0A3EFF07B017A06790E12810C52
:103FC000900B097401F0A37406F0A3740EF0900630
:103FD0000BE0FBA3E0FAA3E0F912B7AB9006437441
:103FE000FFF0A37452F0A37437F0900D26E0FF9019
:103FF0000646E4F0A3EFF07B017A06790E12810CFD
:10400000900B097401F0A37406F0A3740EF09006EF
:104010000BE0FBA3E0FAA3E0F912B7AB900B097435
:10402000FFF0A37451F0A374C7F090060BE0FBA35C
:10403000E0FAA3E0F912B7AB900B0974FFF0A37498
:1040400052F0A37447F090060BE0FBA3E0FAA3E064
:10405000F912B7AB900B0974FFF0A37452F0A3747C
:1040600054F090060BE0FBA3E0FAA3E0F912B7AB23
:10407000E4F567F568C3E5689402E56764809480B9
:10408000507990064374FFF0A37452F0A37467F064
:10409000E568AE677802C333CE33CED8F9245CF539
:1040A00082740C3EF583E0FCA3E0FDA3E0FEA3E0F8
:1040B000FF74462568F582740B3567F583E0F9F8DF
:1040C0001276D0900646EEF0A3EFF07B017A0679E7
:1040D0000E12810C900B097401F0A37406F0A37406
:1040E0000EF090060BE0FBA3E0FAA3E0F912B7ABE9
:1040F0000568E56870020567024075900B0974FF5A
:10410000F0A37451F0A374C7F090060BE0FBA3E09A
:10411000FAA3E0F912B7AB90064374FFF0A3745210
:10412000F0A3746BF07B017A06790E12810C900C6F
:1041300064E054036019900B0974FFF0A37452F00B
:10414000A3747BF07B017A06790E12B7AB801790CF
:104150000B0974FFF0A37452F0A37481F07B017A11
:1041600006790E12B7AB900B097401F0A37406F038
:10417000A3740EF090060BE0FBA3E0FAA3E0F912A3
:10418000B7AB900B0974FFF0A37452F0A37486F0E0
:1041900090060BE0FBA3E0FAA3E0F912B7AB900B9B
:1041A0000974FFF0A37452F0A3749CF090060BE026
:1041B000FBA3E0FAA3E0F912B7ABE4F567F568C337
:1041C000E5689403E567648094804003024273903D
:1041D000064374FFF0A37452F0A374ACF0E56824B6
:1041E00001900647F0E43567900646F0E568AE6753
:1041F0007802C333CE33CED8F92435F582740C3E21
:10420000F583E0FCA3E0FDA3E0FEA3E0FF744625F8
:1042100068F582740B3567F583E0F9F81276D09073
:104220000648EEF0A3EFF07B017A06790E12810CBE
:10423000900B097401F0A37406F0A3740EF09006BD
:104240000BE0FBA3E0FAA3E0F912B7AB900B097403
:10425000FFF0A37451F0A374C7F090060BE0FBA32A
:10426000E0FAA3E0F912B7AB0568E56870020567EC
:104270000241BF90064374FFF0A37452F0A374B5DB
:10428000F0900C58E0FCA3E0FDA3E0FEA3E0FF905B
:1042900006461277317B017A06790E12810C900B5B
:1042A000097401F0A37406F0A3740EF090060BE0FD
:1042B000FBA3E0FAA3E0F912B7AB900B0974FFF08F
:1042C000A37451F0A374C7F090060BE0FBA3E0FACF
:1042D000A3E0F912B7AB90064374FFF0A37452F059
:1042E000A374C7F0900C41E0FEA3E0FFEE3395E02D
:1042F000FDFC9006461277317B017A06790E128119
:104300000C900B097401F0A37406F0A3740EF090E6
:10431000060BE0FBA3E0FAA3E0F912B7AB900B09A0
:1043200074FFF0A37451F0A374C7F090060BE0FB88
:10433000A3E0FAA3E0F912B7AB90064374FFF0A331
:104340007452F0A374DBF0900C43E0FEA3E0FFEEA8
:104350003395E0FDFC9006461277317B017A0679B1
:104360000E12810C900B097401F0A37406F0A37473
:104370000EF090060BE0FBA3E0FAA3E0F912B7AB56
:10438000900B0974FFF0A37451F0A374C7F090066A
:104390000BE0FBA3E0FAA3E0F912B7AB900B0974B2
:1043A000FFF0A37452F0A374EFF090060BE0FBA3B0
:1043B000E0FAA3E0F912B7AB900B0974FFF0A37415
:1043C00053F0A37405F090060BE0FBA3E0FAA3E022
:1043D000F912B7AB900B45E0640370030244E1901F
:1043E000064374FFF0A37453F0A37417F0900B11FD
:1043F000E0FCA3E0FDA3E0FEA3E0FFEC127264E4A6
:10440000FBFA7980784712714E9006461277317B1D
:10441000017A06790E12810C900B097401F0A374D5
:1044200006F0A3740EF090060BE0FBA3E0FAA3E005
:10443000F912B7AB90064374FFF0A37453F0A37462
:1044400021F0900B15E0FCA3E0FDA3E0FEA3E0FF4C
:10445000EC127264E4FBFA7980784712714E900690
:10446000461277317B017A06790E12810C900B0986
:104470007401F0A37406F0A3740EF090060BE0FB39
:10448000A3E0FAA3E0F912B7AB90064374FFF0A3E0
:104490007453F0A3742BF0900B19E0FCA3E0FDA380
:1044A000E0FEA3E0FFEC127264E4FBFA7980784747
:1044B00012714E9006461277317B017A06790E1200
:1044C000810C900B097401F0A37406F0A3740EF034
:1044D00090060BE0FBA3E0FAA3E0F912B7AB0245AC
:1044E000E090064374FFF0A37453F0A37417F090A8
:1044F0000B29E0FCA3E0FDA3E0FEA3E0FFEC1272B9
:1045000064E4FBFA7980784712714E900646127780
:10451000317B017A06790E12810C900B097401F03F
:10452000A37406F0A3740EF090060BE0FBA3E0FA70
:10453000A3E0F912B7AB90064374FFF0A37453F0F5
:10454000A37421F0900B2DE0FCA3E0FDA3E0FEA3FB
:10455000E0FFEC127264E4FBFA7980784712714E46
:104560009006461277317B017A06790E12810C9003
:104570000B097401F0A37406F0A3740EF090060BFF
:10458000E0FBA3E0FAA3E0F912B7AB90064374FF97
:10459000F0A37453F0A3742BF0900B31E0FCA3E074
:1045A000FDA3E0FEA3E0FFEC127264E4FBFA798065
:1045B000784712714E9006461277317B017A067960
:1045C0000E12810C900B097401F0A37406F0A37411
:1045D0000EF090060BE0FBA3E0FAA3E0F912B7ABF4
:1045E000900B0974FFF0A37453F0A37435F0900698
:1045F0000BE0FBA3E0FAA3E0F912B7AB900B45E0A8
:104600006403700302470990064374FFF0A37453D8
:10461000F0A37417F0900B1DE0FCA3E0FDA3E0FEF7
:10462000A3E0FFEC127264E4FBFA79807847127120
:104630004E9006461277317B017A06790E12810C74
:10464000900B097401F0A37406F0A3740EF09006A9
:104650000BE0FBA3E0FAA3E0F912B7AB90064374BA
:10466000FFF0A37453F0A37421F0900B21E0FCA39E
:10467000E0FDA3E0FEA3E0FFEC127264E4FBFA7934
:1046800080784712714E9006461277317B017A0688
:10469000790E12810C900B097401F0A37406F0A33B
:1046A000740EF090060BE0FBA3E0FAA3E0F912B75A
:1046B000AB90064374FFF0A37453F0A3742BF090F7
:1046C0000B25E0FCA3E0FDA3E0FEA3E0FFEC1272EB
:1046D00064E4FBFA7980784712714E9006461277AF
:1046E000317B017A06790E12810C900B097401F06E
:1046F000A37406F0A3740EF090060BE0FBA3E0FA9F
:10470000A3E0F912B7AB02480890064374FFF0A388
:104710007453F0A37417F0900B35E0FCA3E0FDA3F5
:10472000E0FEA3E0FFEC127264E4FBFA79807847C4
:1047300012714E9006461277317B017A06790E127D
:10474000810C900B097401F0A37406F0A3740EF0B1
:1047500090060BE0FBA3E0FAA3E0F912B7AB9006DA
:104760004374FFF0A37453F0A37421F0900B39E06D
:10477000FCA3E0FDA3E0FEA3E0FFEC127264E4FB07
:10478000FA7980784712714E9006461277317B0194
:104790007A06790E12810C900B097401F0A374064D
:1047A000F0A3740EF090060BE0FBA3E0FAA3E0F98F
:1047B00012B7AB90064374FFF0A37453F0A3742BAD
:1047C000F0900B3DE0FCA3E0FDA3E0FEA3E0FFECD6
:1047D000127264E4FBFA7980784712714E900646B3
:1047E0001277317B017A06790E12810C900B0974D5
:1047F00001F0A37406F0A3740EF090060BE0FBA387
:10480000E0FAA3E0F912B7AB900B0974FFF0A374C0
:1048100051F0A374C7F090060BE0FBA3E0FAA3E00D
:10482000F912B7AB900B43E0B4031E900B0974FF71
:10483000F0A37453F0A3744FF090060BE0FBA3E0D9
:10484000FAA3E0F912B7AB801C900B0974FFF0A338
:104850007453F0A37469F090060BE0FBA3E0FAA395
:10486000E0F912B7AB900B44E014602104703A9069
:104870000B0974FFF0A37453F0A37482F090060B3D
:10488000E0FBA3E0FAA3E0F912B7AB801C900B09A0
:1048900074FFF0A37453F0A37494F090060BE0FB44
:1048A000A3E0FAA3E0F912B7AB900B0974FFF0A3F1
:1048B0007453F0A374ABF090060BE0FBA3E0FAA3F3
:1048C000E0F912B7AB900B45E01460281460431474
:1048D000605E24037076900B0974FFF0A37453F0AC
:1048E000A374BAF090060BE0FBA3E0FAA3E0F91280
:1048F000B7AB8058900B0974FFF0A37453F0A37406
:10490000C5F090060BE0FBA3E0FAA3E0F912B7AB09
:10491000803A900B0974FFF0A37453F0A374CBF0AA
:1049200090060BE0FBA3E0FAA3E0F912B7AB801C02
:10493000900B0974FFF0A37453F0A374D5F09006A4
:104940000BE0FBA3E0FAA3E0F912B7AB900B0974FC
:10495000FFF0A37453F0A374ECF090060BE0FBA3FC
:10496000E0FAA3E0F912B7ABE4F567F568C3E568D0
:104970009403E56764809480507F90064374FFF051
:10498000A37452F0A374ACF0E5682401900647F0DC
:10499000E43567900646F074462568F582740B3559
:1049A00067F583E0FF900648E4F0A3EFF07B017A1F
:1049B00006790E12810C900B097401F0A37406F0B5
:1049C000A3740EF090060BE0FBA3E0FAA3E0F9124B
:1049D000B7AB900B0974FFF0A37451F0A374C7F048
:1049E00090060BE0FBA3E0FAA3E0F912B7AB056871
:1049F000E5687002056702496D900B0974FFF0A32A
:104A00007454F0A37401F090060BE0FBA3E0FAA34A
:104A1000E0F912B7ABE4F567F568C3E5689403E520
:104A200067648094804003024ACC90064374FFF090
:104A3000A37454F0A37417F0E5682401900647F0BE
:104A4000E43567900646F0E568AE677802C333CE7A
:104A500033CED8F92449F582740B3EF583E0FCA3EC
:104A6000E0FDA3E0FEA3E0FF74462568F582740B29
:104A70003567F583E0F9F81276D090064812773161
:104A80007B017A06790E12810C900B097401F0A358
:104A90007406F0A3740EF090060BE0FBA3E0FAA3FB
:104AA000E0F912B7AB900B0974FFF0A37451F0A3B7
:104AB00074C7F090060BE0FBA3E0FAA3E0F912B78D
:104AC000AB0568E56870020567024A1A900B097425
:104AD000FFF0A37454F0A37421F090060BE0FBA345
:104AE000E0FAA3E0F912B7ABE4F567F568C3E5684F
:104AF0009403E567648094804003024B8D900643E5
:104B000074FFF0A37454F0A3743BF0E568240190A3
:104B10000647F0E43567900646F0E568AE67780230
:104B2000C333CE33CED8F92455F582740B3EF583CA
:104B3000E0FCA3E0FDA3E0FEA3E0FF9006481277AF
:104B4000317B017A06790E12810C900B097401F009
:104B5000A37406F0A3740EF090060BE0FBA3E0FA3A
:104B6000A3E0F912B7AB900B0974FFF0A37451F0F6
:104B7000A374C7F090060BE0FBA3E0FAA3E0F912E0
:104B8000B7AB0568E56870020567024AED900B094E
:104B900074FFF0A37454F0A37444F090060BE0FB90
:104BA000A3E0FAA3E0F912B7AB90064374FFF0A3B9
:104BB0007454F0A3747AF0900B7FE0FCA3E0FDA3A3
:104BC000E0FEA3E0FF9006461277317B017A06797A
:104BD0000E12810C900B097401F0A37406F0A374FB
:104BE0000EF090060BE0FBA3E0FAA3E0F912B7ABDE
:104BF000900B0974FFF0A37451F0A374C7F09006F2
:104C00000BE0FBA3E0FAA3E0F912B7AB900B097439
:104C1000FFF0A37454F0A3747DF090060BE0FBA3A7
:104C2000E0FAA3E0F912B7AB90064374FFF0A37467
:104C300054F0A37490F0900B83E0FFA3E09006463D
:104C4000CFF0A3EFF07B017A06790E12810C900B66
:104C5000097401F0A37406F0A3740EF090060BE043
:104C6000FBA3E0FAA3E0F912B7AB900B0974FFF0D5
:104C7000A37451F0A374C7F090060BE0FBA3E0FA15
:104C8000A3E0F912B7AB900B0974FFF0A37454F0D2
:104C9000A37494F090060BE0FBA3E0FAA3E0F912F2
:104CA000B7AB90064374FFF0A37454F0A37490F074
:104CB000900B85E0FFA3E0900646CFF0A3EFF07BDA
:104CC000017A06790E12810C900B097401F0A3741D
:104CD00006F0A3740EF090060BE0FBA3E0FAA3E04D
:104CE000F912B7AB900B0974FFF0A37454F0A374DE
:104CF000A0F090060BE0FBA3E0FAA3E0F912B7AB3B
:104D000090064374FFF0A37454F0A374A4F0900BC6
:104D1000F8E0FF900646E4F0A3EFF07B017A067915
:104D20000E12810C900B097401F0A37406F0A374A9
:104D30000EF090060BE0FBA3E0FAA3E0F912B7AB8C
:104D4000900B0974FFF0A37451F0A374C7F09006A0
:104D50000BE0FBA3E0FAA3E0F912B7ABE4F567F5CB
:104D600068C3E5689402E567648094804003024E5E
:104D70006390064374FFF0A37454F0A374BEF0E58F
:104D8000682401900647F0E43567900646F0E56830
:104D9000AE677802C333CE33CED8F924F9F58274E6
:104DA0000B3EF583E0FCA3E0FDA3E0FEA3E0FF746F
:104DB000DD2568F582740B3567F583E0F9F8127626
:104DC000D09006481277317B017A06790E12810C59
:104DD000900B097401F0A37406F0A3740EF0900612
:104DE0000BE0FBA3E0FAA3E0F912B7AB9006437423
:104DF000FFF0A37454F0A374E4F0E568AE677802A2
:104E0000C333CE33CED8F92401F582740C3EF5833A
:104E1000E0FCA3E0FDA3E0FEA3E0FF74DD2568F560
:104E200082740B3567F583E0F9F81276D090064668
:104E30001277317B017A06790E12810C900B09747E
:104E400001F0A37406F0A3740EF090060BE0FBA330
:104E5000E0FAA3E0F912B7AB0568E56870020567F0
:104E6000024D6190064374FFF0A37454F0A374F1F3
:104E7000F0900C09E0FEA3E0FF900BDDE0FDEFA851
:104E800005088006CEA2E713CE13D8F8FF90064699
:104E9000EEF0A3EFF07B017A06790E12810C900BF5
:104EA000097401F0A37406F0A3740EF090060BE0F1
:104EB000FBA3E0FAA3E0F912B7AB900B0974FFF083
:104EC000A37451F0A374C7F090060BE0FBA3E0FAC3
:104ED000A3E0F912B7AB90064374FFF0A37455F04A
:104EE000A37403F0900BD8E0FFA3E0900646CFF048
:104EF000A3EFF07B017A06790E12810C900B0974F6
:104F000001F0A37406F0A3740EF090060BE0FBA36F
:104F1000E0FAA3E0F912B7AB900B0974FFF0A374A9
:104F200051F0A374C7F090060BE0FBA3E0FAA3E0F6
:104F3000F912B7AB900B7EE0601E900B0974FFF086
:104F4000A37455F0A37415F090060BE0FBA3E0FAF0
:104F5000A3E0F912B7AB801C900B0974FFF0A374A7
:104F600055F0A3743CF090060BE0FBA3E0FAA3E03D
:104F7000F912B7AB900B87E0601E900B0974FFF03D
:104F8000A37455F0A37462F090060BE0FBA3E0FA63
:104F9000A3E0F912B7AB801C900B0974FFF0A37467
:104FA00055F0A37492F090060BE0FBA3E0FAA3E0A7
:104FB000F912B7AB900B95E0601E900B0974FFF0EF
:104FC000A37455F0A374C1F090060BE0FBA3E0FAC4
:104FD000A3E0F912B7AB801C900B0974FFF0A37427
:104FE00055F0A374F2F090060BE0FBA3E0FAA3E007
:104FF000F912B7AB300D1E900B0974FFF0A3745675
:10500000F0A37422F090060BE0FBA3E0FAA3E0F912
:1050100012B7AB801C900B0974FFF0A37456F0A379
:10502000743DF090060BE0FBA3E0FAA3E0F912B7A1
:10503000AB300C1E900B0974FFF0A37456F0A374F0
:1050400057F090060BE0FBA3E0FAA3E0F912B7AB30
:10505000801C900B0974FFF0A37456F0A3747BF0CE
:1050600090060BE0FBA3E0FAA3E0F912B7AB300A1D
:105070001E900B0974FFF0A37456F0A3749EF09079
:10508000060BE0FBA3E0FAA3E0F912B7AB801C909B
:105090000B0974FFF0A37456F0A374C3F090060BD1
:1050A000E0FBA3E0FAA3E0F912B7AB900B9CE06041
:1050B0001E900B0974FFF0A37456F0A374E7F090F0
:1050C000060BE0FBA3E0FAA3E0F912B7AB801C905B
:1050D0000B0974FFF0A37456F0A374F9F090060B5B
:1050E000E0FBA3E0FAA3E0F912B7AB90064374FF2C
:1050F000F0A37457F0A3740CF0900C54E0F8A3E004
:10510000F9A3E0FAA3E0FB900CF3E0FCA3E0FDA31D
:10511000E0FEA3E0C39BFFEE9AFEED99FDEC98FC48
:105120009006461277317B017A06790E12810C9037
:105130000B097401F0A37406F0A3740EF090060B33
:10514000E0FBA3E0FAA3E0F912B7AB900B0974FF00
:10515000F0A37451F0A374C7F090060BE0FBA3E03A
:10516000FAA3E0F912B7AB22205945530000204EB4
:105170004F000020557362000020456E636F646528
:10518000722033000020506F736974696F6E0000E5
:105190002050574D00002043757272656E740000F8
:1051A00020506F736974696F6E20616E642063753F
:1051B0007272656E740000204C65667400002052A7
:1051C000696768740000000D0A004669726D7761B6
:1051D00072652076657273696F6E3A20004355469A
:1051E00046204D4F442076362E312E35002E0D0AA6
:1051F0000D0A0044455649434520494E464F0D0A85
:105200000049443A2025640D0A004E756D626572AE
:10521000206F662073656E736F72733A2025640D7C
:105220000A00537570706C792074656E73696F6EC7
:105230003A2025640D0A0050574D204C696D697461
:105240003A2025640D0A004D4F544F5220494E46D6
:105250004F0D0A004D6F746F72207265666572653E
:105260006E6365733A2000256420004D6F746F7281
:1052700020656E61626C65643A20005945530D0AE1
:10528000004E4F0D0A000D0A4D4541535552454DF4
:10529000454E545320494E464F0D0A0053656E73D8
:1052A0006F722076616C75653A0D0A002564202DB9
:1052B0003E20256400566F6C7461676520286D562A
:1052C000293A20256C640043757272656E74203132
:1052D00020286D41293A20256C640043757272655F
:1052E0006E74203220286D41293A20256C64000D0F
:1052F0000A44455649434520504152414D45544585
:1053000052530D0A0050494420436F6E74726F6C03
:105310006C65723A0D0A0050202D3E2025660D0A5C
:105320000049202D3E2025660D0A0044202D3E20F8
:1053300025660D0A0043757272656E7420504944EB
:1053400020436F6E74726F6C6C65723A0D0A005375
:105350007461727475702061637469766174696FC9
:105360006E3A205945530D0A00537461727475707A
:105370002061637469766174696F6E3A204E4F0DD7
:105380000A00496E707574206D6F64653A2055533C
:10539000420D0A00496E707574206D6F64653A2085
:1053A00053656E736F7220330D0A00436F6E747213
:1053B0006F6C204D6F64653A2000506F736974699B
:1053C0006F6E0D0A0050574D0D0A004375727265DD
:1053D0006E740D0A00506F736974696F6E20616E90
:1053E000642063757272656E740D0A0053656E7386
:1053F0006F72207265736F6C7574696F6E3A0D0A07
:10540000004D6561737572656D656E74204F6666DB
:105410007365743A0D0A002564202D3E20256C64C6
:10542000004D6561737572656D656E74204D756CA8
:105430007469706C6965723A0D0A002564202D3E0E
:10544000202566000A43757272656E7420636F6E64
:1054500074726F6C6C6572277320706172616D6518
:10546000746572733A0A50726F706F7274696F6EFE
:10547000616C206761696E3A200025660053617493
:1054800075726174696F6E2076616C75653A200083
:105490002568640044656164207A6F6E653A200077
:1054A0000D0A0A00506F736974696F6E206C696D24
:1054B0006974206163746976653A20256400506FD1
:1054C000736974696F6E206C696D6974206D6F7497
:1054D0006F722025643A20696E66202D3E20256C6F
:1054E00064202000737570202D3E20256C640D0A09
:1054F000004D61782073746966666E6573733A2037
:1055000025640043757272656E74206C696D6974F0
:105510003A20256400437566662073746172747561
:10552000702061637469766174696F6E2028666F9C
:10553000726365293A205945530D0A004375666622
:10554000207374617274757020616374697661741C
:10555000696F6E2028666F726365293A204E4F0D81
:105560000A004375666620737461727475702061F9
:10557000637469766174696F6E202870726F7072DF
:10558000696F63657074696F6E293A205945530DD0
:105590000A004375666620737461727475702061C9
:1055A000637469766174696F6E202870726F7072AF
:1055B000696F63657074696F6E293A204E4F0D0AEA
:1055C0000043756666207374617274757020616340
:1055D0007469766174696F6E2028666F72636520E6
:1055E0002B2070726F7072696F293A205945530DE4
:1055F0000A00437566662073746172747570206169
:10560000637469766174696F6E2028666F72636572
:10561000202B2070726F7072696F293A204E4F0DE7
:105620000A004375666620616374697665202866A2
:105630006F726365293A205945530D0A0043756618
:1056400066206163746976652028666F72636529D8
:105650003A204E4F0D0A00437566662061637469F7
:105660007665202870726F7072696F6365707469F7
:105670006F6E293A205945530D0A0043756666201E
:10568000616374697665202870726F7072696F63E8
:10569000657074696F6E293A204E4F0D0A0043758C
:1056A0006666206163746976652028666F7263653B
:1056B000202B2070726F7072696F293A2059455300
:1056C0000D0A00437566662061637469766520285B
:1056D000666F726365202B2070726F7072696F291C
:1056E0003A204E4F0D0A0043756666207369646563
:1056F0003A204C4546540D0A00437566662073698E
:1057000064653A2052494748540D0A006465627541
:10571000673A20256C6400000000000000000000D3
:105720000000000000000000000000000000000079
:105730000000000000000000000000000000000069
:105740000000000000000000000000000000000059
:105750000000000000000000000000000000000049
:105E80000000000031202D204465766963652049BB
:105E9000443A0032202D20506F736974696F6E2070
:105EA000504944205B502C20492C20445D3A00335B
:105EB000202D2043757272656E7420504944205B1A
:105EC000502C20492C20445D3A0034202D2053745E
:105ED00061727475702041637469766174696F6E64
:105EE0003A000000000035202D20496E70757420A6
:105EF0006D6F64653A0000000000000000000000C3
:105F00000036202D20436F6E74726F6C206D6F64AD
:105F1000653A0000000000000000000000000000E2
:105F2000000000000000000037202D205265736F34
:105F30006C7574696F6E733A000000000038202D94
:105F4000204D6561737572656D656E74204F666670
:105F5000736574733A0039202D204D756C74697027
:105F60006C696572733A003130202D20506F732EAA
:105F7000206C696D6974206163746976653A00000C
:105F80000000003131202D20506F732E206C696D80
:105F9000697473205B696E662C207375705D3A00BE
:105FA0003132202D204D6178207374657073205B31
:105FB0006E65672C20706F735D3A003133202D20A1
:105FC00043757272656E74206C696D69743A003144
:105FD00034202D2043757272656E742070726F705C
:105FE0006F7274696F6E616C206761696E3A00311F
:105FF00035202D2043757272656E74206469666663
:106000006572656E63652073617475726174696F22
:106010006E3A003136202D2043757272656E742001
:1060200064656164207A6F6E653A003137202D20F7
:10603000437566662061637469766174696F6E206A
:10604000666C616720666F7263653A00000000004D
:106050003138202D20506F7765722074656E73691A
:106060006F6E3A0000003139202D2043756666209E
:1060700061637469766174696F6E20666C61672014
:1060800070726F7072696F3A000000000032302049
:106090002D204D617820736C696465206D6F766585
:1060A0006D656E74202870726F7072696F293A0086
:1060B0003231202D204D617820534820636C6F735E
:1060C000757265202870726F7072696F293A00329C
:1060D00032202D2048616E642049443A003233203A
:1060E0002D204375666620666C616720666F72635B
:1060F000652B70726F7072696F3A00000000003299
:1061000034202D205348207265737420706F7328DB
:1061100070726F7072696F293A0000000000000011
:106120003235202D2041726D20736964653A00007C
:10613000000000000030202D3E205573620A3120FF
:106140002D3E205368616674277320706F736974E5
:10615000696F6E20636F6E74726F6C732074686504
:10616000206D6F746F72730A0030202D3E20506FC7
:10617000736974696F6E0A31202D3E2050574D0AA5
:1061800032202D3E2043757272656E740A33202DC5
:106190003E20506F736974696F6E2D43757272651E
:1061A0006E740A0030202D3E204465616374697668
:1061B000617465205B4E4F5D0A31202D3E204163A6
:1061C000746976617465205B5945535D0A0030201F
:1061D0002D3E2052696768740A31202D3E204C659F
:1061E00066740A008F23E4F52BF52AF529F528902B
:1061F0000B11E0FCA3E0FDA3E0FEA3E0F5378E3633
:106200008D358C34A3E0FCA3E0FDA3E0FEA3E0F514
:106210003B8E3A8D398C38A3E0FCA3E0FDA3E0FE71
:10622000A3E0F53F8E3E8D3D8C3CA3E0FCA3E0FD5A
:10623000A3E0FEA3E0F5438E428D418C40A3E0FC39
:10624000A3E0FDA3E0FEA3E0F5478E468D458C4418
:10625000A3E0FCA3E0FDA3E0FEA3E0F54B8E4A8D96
:10626000498C48A3E0FCA3E0FDA3E0FEA3E0F54FCA
:106270008E4E8D4D8C4CA3E0FCA3E0FDA3E0FEA36D
:10628000E0F5538E528D518C50A3E0FCA3E0FDA3AA
:10629000E0FEA3E0F5578E568D558C54A3E0FCA389
:1062A000E0FDA3E0FEA3E0F55B8E5A8D598C58A368
:1062B000E0FCA3E0FDA3E0FEA3E0F55F8E5E8D5D54
:1062C0008C5CA3E0FCA3E0FDA3E0FEA3E0F5638EFD
:1062D000628D618C60E523C394024003026F4C9091
:1062E0000B45E0147003026D93147003026A961458
:1062F00070030265A624036003026DFDE52325E01B
:1063000025E02407F582E4340DF583E0F8A3E0F9F5
:10631000A3E0FAA3E0FBE52325E025E0249DF58238
:10632000E4340BF583E0FCA3E0FDA3E0FEA3E0C3AF
:106330009BF52FEE9AF52EED99F52DEC98F52C3076
:106340001105C211129E70E52325E025E024B1F568
:1063500082E4340DF583C083C082E0FCA3E0FDA39A
:10636000E0FEA3E0252FFFEE352EFEED352DFDECF2
:10637000352CFCD082D083127731E52325E025E04F
:1063800024B1F582E4340DF583E0FCA3E0FDA3E045
:10639000FEA3E0FF7BA07A8679017800C31276968F
:1063A000501C7FA07E867D017C00E52325E025E052
:1063B00024B1F582E4340DF5831277318042E52370
:1063C00025E025E024B1F582E4340DF583E0FCA35B
:1063D000E0FDA3E0FEA3E0FF7B607A7979FE78FF21
:1063E000D3127696401A7F607E797DFE7CFFE5238E
:1063F00025E025E024B1F582E4340DF583127731F0
:10640000301105C211129E70E4F52BF52AF529F51D
:1064100028FFFEFDFCAB37AA36A935A834C3127697
:1064200096606AE4FFFE7D02FCAB2FAA2EA92DA880
:106430002CD3127696500FE4FFFE7DFE7CFFA82C35
:10644000C31276965027AF2FAE2EAD2DAC2C780808
:106450001276D0AB37AA36A935A83412755E780803
:106460001276D08F2B8E2A8D298C288020AF2FAECC
:106470002EAD2DAC2CAB37AA36A935A83412755EDB
:1064800078101276D08F2B8E2A8D298C283011050A
:10649000C211129E70E4FFFEFDFCAB3BAA3AA93983
:1064A000A838C31276966043AF3BAE3AAD39AC38EC
:1064B00078061276D0E52325E025E024B1F582E4C4
:1064C000340DF583E0F8A3E0F9A3E0FAA3E0FB12B2
:1064D000755E780A1276D0E52B2FF52BE52A3EF56E
:1064E0002AE5293DF529E5283CF528E4FFFEFDFCD9
:1064F000AB3FAA3EA93DA83CC31276966063E52354
:1065000025E025E02407F582E4340DF583E0F8A3C7
:10651000E0F9A3E0FAA3E0FBE52325E025E024353C
:10652000F582E4340CF583E0FCA3E0FDA3E0FEA3D8
:10653000E0C39BFFEE9AFEED99FDEC98FCAB3FAA01
:106540003EA93DA83C12755E78101276D0E52B2F3F
:10655000F52BE52A3EF52AE5293DF529E5283CF508
:1065600028301105C211129E70E523701CFFFEFD3C
:10657000FCAB2BAA2AA929A828C31276964005D2DB
:1065800013026DFDC213026DFDE4FFFEFDFCAB2B9B
:10659000AA2AA929A828C31276964005D214026D0A
:1065A000FDC214026DFDE52325E025E02407F582F8
:1065B000E4340DF583E0F8A3E0F9A3E0FAA3E0FBEF
:1065C000E52325E025E0249DF582E4340BF583E006
:1065D000FCA3E0FDA3E0FEA3E0C39BF52FEE9AF53C
:1065E0002EED99F52DEC98F52CE52325E025E024FA
:1065F000B1F582E4340DF583C083C082E0FCA3E0F2
:10660000FDA3E0FEA3E0252FFFEE352EFEED352D98
:10661000FDEC352CFCD082D083127731301105C2CD
:1066200011129E70E52325E025E024B1F582E434C3
:106630000DF583E0FCA3E0FDA3E0FEA3E0FF7BA05B
:106640007A8679017800C3127696501C7FA07E86E8
:106650007D017C00E52325E025E024B1F582E434CA
:106660000DF5831277318042E52325E025E024B142
:10667000F582E4340DF583E0FCA3E0FDA3E0FEA386
:10668000E0FF7B607A7979FE78FFD3127696401A24
:106690007F607E797DFE7CFFE52325E025E024B147
:1066A000F582E4340DF583127731E4F527F526F50C
:1066B00025F524301105C211129E70E4FFFEFDFC89
:1066C000AB4FAA4EA94DA84CC31276966026AF2FA9
:1066D000AE2EAD2DAC2CA84C12755E78101276D073
:1066E000E5272FF527E5263EF526E5253DF525E5A9
:1066F000243CF524E4FFFEFDFCAB53AA52A951A8AB
:1067000050C31276966038E52325E025E024B1F5E4
:1067100082E4340DF583E0FCA3E0FDA3E0FEA3E0FA
:10672000FFA85012755E78101276D0E5272FF52756
:10673000E5263EF526E5253DF525E5243CF524E452
:10674000FFFEFDFCAB57AA56A955A854C312769676
:106750006063E52325E025E02407F582E4340DF5A8
:1067600083E0F8A3E0F9A3E0FAA3E0FBE52325E04A
:1067700025E02435F582E4340CF583E0FCA3E0FD4C
:10678000A3E0FEA3E0C39BFFEE9AFEED99FDEC981B
:10679000FCAB57AA56A955A85412755E781012760C
:1067A000D0E5272FF527E5263EF526E5253DF525FD
:1067B000E5243CF524301105C211129E70900B4166
:1067C000E0FEA3E0FFEE3395E0FDFCAB27AA26A98F
:1067D00025A824D31276964016900B41E0FEA3E044
:1067E000FFEE3395E08F278E26F525F524803C902B
:1067F0000B41E0FEA3E0FFC3E49FFFE49EFE339560
:10680000E0FDFCAB27AA26A925A824C31276965042
:106810001A900B41E0FEA3E0FFC3E49FFFE49EFE5D
:106820003395E08F278E26F525F524301105C2110A
:10683000129E70E52325E02413F582E4340DF583E0
:10684000E0FEA3E0FFFBAA06EA3395E0F9F8C3E512
:10685000279BF533E5269AF532E52599F531E524B0
:1068600098F530E52325E025E024B9F582E4340DE0
:10687000F583C083C082E0FCA3E0FDA3E0FEA3E0BB
:106880002533FFEE3532FEED3531FDEC3530FCD0F1
:1068900082D083127731E52325E025E024B9F58203
:1068A000E4340DF583E0FCA3E0FDA3E0FEA3E0FFEC
:1068B0007BA07A8679017800C3127696501C7FA05F
:1068C0007E867D017C00E52325E025E024B9F58264
:1068D000E4340DF5831277318042E52325E025E08D
:1068E00024B9F582E4340DF583E0FCA3E0FDA3E0D8
:1068F000FEA3E0FF7B607A7979FE78FFD31276966B
:10690000401A7F607E797DFE7CFFE52325E025E04F
:1069100024B9F582E4340DF583127731301105C2C4
:1069200011129E70E4F52BF52AF529F528FFFEFDDE
:10693000FCAB5BAA5AA959A858C31276966026AF39
:1069400033AE32AD31AC30A85812755E7810127685
:10695000D0E52B2FF52BE52A3EF52AE5293DF52933
:10696000E5283CF528E4FFFEFDFCAB5FAA5EA95DCF
:10697000A85CC31276966038E52325E025E024B9AB
:10698000F582E4340DF583E0FCA3E0FDA3E0FEA373
:10699000E0FFA85C12755E78101276D0E52B2FF51B
:1069A0002BE52A3EF52AE5293DF529E5283CF52881
:1069B000E4FFFEFDFCAB63AA62A961A860C3127686
:1069C000966064E52325E02413F582E4340DF58315
:1069D000E0FEA3E0FFFBAA06EA3395E0F9F8E52321
:1069E00025E025E024A9F582E4340DF583E0FCA33D
:1069F000E0FDA3E0FEA3E0C39BFFEE9AFEED99FD50
:106A0000EC98FCAB63AA62A961A86012755E78106D
:106A10001276D0E52B2FF52BE52A3EF52AE5293D08
:106A2000F529E5283CF528E52325E02413F582E443
:106A3000340DF583E0FEA3E0FFEE3395E0FDFCE5C9
:106A40002325E025E024A9F582E4340DF5831277AF
:106A500031301105C211129E70E523701CFFFEFD3E
:106A6000FCAB2BAA2AA929A828C31276964005D2E6
:106A700013026DFDC213026DFDE4FFFEFDFCAB2BA6
:106A8000AA2AA929A828C31276964005D214026D15
:106A9000FDC214026DFDE52325E025E0249DF5826D
:106AA000E4340BF583E0FCA3E0FDA3E0FEA3E0FFEC
:106AB00074DD2523F582E4340BF583E0F9F81276D2
:106AC000D08F278E268D258C24900B41E0FEA3E0ED
:106AD000FFEE3395E0FDFCAB27AA26A925A824D319
:106AE0001276964016900B41E0FEA3E0FFEE339540
:106AF000E08F278E26F525F524803C900B41E0FEA3
:106B0000A3E0FFC3E49FFFE49EFE3395E0FDFCABF2
:106B100027AA26A925A824C3127696501A900B41BD
:106B2000E0FEA3E0FFC3E49FFFE49EFE3395E08F09
:106B3000278E26F525F524E52325E02413F582E4A8
:106B4000340DF583E0FEA3E0FFFBAA06EA3395E0EF
:106B5000F9F8C3E5279BF533E5269AF532E5259943
:106B6000F531E52498F530E52325E025E024B9F555
:106B700082E4340DF583C083C082E0FCA3E0FDA372
:106B8000E0FEA3E02533FFEE3532FEED3531FDECBE
:106B90003530FCD082D083127731E52325E025E023
:106BA00024B9F582E4340DF583E0FCA3E0FDA3E015
:106BB000FEA3E0FF7BA07A8679017800C312769667
:106BC000501C7FA07E867D017C00E52325E025E02A
:106BD00024B9F582E4340DF5831277318042E52340
:106BE00025E025E024B9F582E4340DF583E0FCA32B
:106BF000E0FDA3E0FEA3E0FF7B607A7979FE78FFF9
:106C0000D3127696401A7F607E797DFE7CFFE52365
:106C100025E025E024B9F582E4340DF583127731BF
:106C2000E4F52BF52AF529F528FFFEFDFCAB43AA78
:106C300042A941A840C3127696602CAF33AE32AD64
:106C400031AC30AB37AA36A935A83412755E78104E
:106C50001276D0E52B2FF52BE52A3EF52AE5293DC6
:106C6000F529E5283CF528E4FFFEFDFCAB47AA46E4
:106C7000A945A844C3127696603DE52325E025E0AA
:106C800024B9F582E4340DF583E0FCA3E0FDA3E034
:106C9000FEA3E0FF78061276D0A84412755E780A4B
:106CA0001276D0E52B2FF52BE52A3EF52AE5293D76
:106CB000F529E5283CF528E4FFFEFDFCAB4BAA4A8C
:106CC000A949A848C31276966064E52325E02413F9
:106CD000F582E4340DF583E0FEA3E0FFFBAA06EAAB
:106CE0003395E0F9F8E52325E025E024A9F582E4D1
:106CF000340DF583E0FCA3E0FDA3E0FEA3E0C39B1D
:106D0000FFEE9AFEED99FDEC98FCAB4BAA4AA9491F
:106D1000A84812755E78101276D0E52B2FF52BE57A
:106D20002A3EF52AE5293DF529E5283CF528E52305
:106D300025E02413F582E4340DF583E0FEA3E0FFA3
:106D4000EE3395E0FDFCE52325E025E024A9F5825E
:106D5000E4340DF583127731E523701CFFFEFDFC52
:106D6000AB2BAA2AA929A828C31276964005D213CC
:106D7000026DFDC213026DFDE4FFFEFDFCAB2BAA0C
:106D80002AA929A828C31276964004D214806EC27C
:106D900014806AE52325E025E0249DF582E4340B88
:106DA000F583E0FCA3E0FDA3E0FEA3E0FF74DD2596
:106DB00023F582E4340BF583E0F9F81276D08F2BBB
:106DC0008E2A8D298C28E523701AFFFEFDFCAB2B43
:106DD000AA2AA929A828C31276964004D213801D96
:106DE000C2138019E4FFFEFDFCAB2BAA2AA929A837
:106DF00028C31276964004D2148002C214301105C2
:106E0000C211129E70E47F64FEFDFCAB2BAA2AA97E
:106E100029A828D3127696400AE4752B64F52AF542
:106E200029F52874FF7F9CFEFDFCAB2BAA2AA9291B
:106E3000A828C3127696500B74FF752B9CF52AF583
:106E400029F528301105C211129E70900B45E0649F
:106E5000016037AF2BAE2AAD29AC28780A1276E450
:106E6000E47B64FAF9F812BC9DA804A905AA06AB54
:106E700007900D26E0FFE4FCFDFE12755E780A1215
:106E800076D08F2B8E2A8D298C2830131130140741
:106E90007F0312C7F580167F0112C7F5800F3014EB
:106EA000077F0212C7F58005E4FF12C7F530110510
:106EB000C211129E70E5237046FFFEFDFCAB2BAAAB
:106EC0002AA929A828D312769640067E007F018041
:106ED0001DE4FFFEFDFCAB2BAA2AA929A828C3129A
:106EE000769650067EFF7FFF80047E007F00900D27
:106EF00005EFF0AE2AAF2B12C67812C7898045E4A1
:106F0000FFFEFDFCAB2BAA2AA929A828D31276964E
:106F100040067E007F01801DE4FFFEFDFCAB2BAA36
:106F20002AA929A828C312769650067EFF7FFF80E3
:106F3000047E007F00900D06EFF0AE2AAF2B12C644
:106F40007812C78F301105C211129E702202730E83
:106F5000E86480F8E933E83360110460F0ED33EC65
:106F6000337009E8FCE9FDEAFEEBFF220460DED3A2
:106F7000EB9FEA9EE99DE8C2E78CF0C2F795F040EE
:106F80000CE8CCF8E9CDF9EACEFAEBCFFB1272D9D6
:106F900085D0F05804700320D5B3E8047007500280
:106FA000B2D502731892D5EC0460F7E4CCC0E0C30C
:106FB00098F8603B94186008400DD0E0FB0272F036
:106FC000E4FBFAC9FC8028E830E406E4C9FBE4CA23
:106FD000FCE830E305E4C9CACBFCE854076010F8CC
:106FE000C3E913F9EA13FAEB13FBEC13FCD8F13005
:106FF000F52FC3E49CFCEF9BFFEE9AFEED99FDD0CC
:10700000E0FBEF4E4D4C701222DB03027315EC2CAB
:10701000FCEF33FFEE33FEED33FDED30E7EB0272B4
:10702000F0EF2BFFEE3AFEED39FDD0E0FB50130BF5
:10703000BB0003027318ED13FDEE13FEEF13FFEC1C
:1070400013FC0272F0EC4D6011E8497017ED33EC5F
:107050003304600DE4FCFFFEFD22E933E8330470E5
:10706000F802730E1272D958046009E4CC248150DE
:1070700006285009027318284003027315C0E0EB7C
:107080004A7044B98006D0E0FB027304EF4E701CD6
:10709000BD8008EBFFEAFEE9FD80EBE98DF0A4FE80
:1070A000E5F002712EE9CDF9EAFEEBFFEF89F0A4DD
:1070B000FCE5F0CE89F0A42EFFE435F0CD89F0A4F4
:1070C0002DFEE435F08067EF4E7005BD80D780C39C
:1070D000EF8BF0A4ACF0EE8BF0A42CFCE435F0F8D0
:1070E000EF8AF0A42CE5F038FCE433CB8DF0A42C2F
:1070F000FCE5F03BF8EE8AF0A42CFCE5F038F8E46F
:1071000033CF89F0A42CFCE5F038CF3400CE89F0E1
:10711000A42FFFE5F03EFEE433C98DF0A42EFEE57A
:10712000F039CD8AF0A42FFFE5F03EFEE43DFD33BB
:10713000D0E0FB50070BBB000F027318EC2CFCEFE8
:1071400033FFEE33FEED33FD0272F0027318EC5D97
:10715000046005E85904700302730E1272D95804D2
:1071600060F6EC4860F2EC7004FDFEFF22C860DBC4
:107170002481C85009C398600250060273159850C4
:10718000CAF582E9294B4A7005AB8202730475F097
:10719000007C1A7880C3EF9BEE9AED99400DC3EF07
:1071A0009BFFEE9AFEED99FDE842F0DC23ACF0D0B7
:1071B000E0FFD0E0FED0E0FDAB8220E7101BEB60EB
:1071C000BAEC2CFCEF33FFEE33FEED33FD0272F030
:1071D000E803F830E705C0F075F000EF2FFFEE335D
:1071E000FEED33FD40B830E7C280AA74F8CC64806D
:1071F000CCC86480C8F58204604FC3EB9FF5F0EA09
:107200009E42F0E99D42F0E89C45F0603C501DE54F
:10721000825FFFE582D313CB5BCBF42B5582FB500F
:10722000280ABA002409B9002008801DE5825BFB0A
:10723000E582D313CF5FCFF4C3132F5582FF5009DC
:107240000EBE00050DBD00010CC3EB9FF5F0EA9EDC
:1072500042F0E99D42F0E89C45F06007CC4820E709
:1072600001B3EC2275F020800E75F010800575F0EA
:10727000087D007E007F003392D530D503127688DA
:10728000EC334010EF33FFEE33FEED33FDEC33FC17
:10729000D5F0ED22E5F0247EA2D513CC92E7CDCE39
:1072A000FF22EDD2E7CD33EC3392D524814006E4C2
:1072B000FFFEFDFC22FCE4CFCECDCC24E0501174C7
:1072C000FF80EDC3CC13CCCD13CDCE13CECF13CFD7
:1072D0000470F030D5DE027688E9D2E7C933E833AE
:1072E000F892D5EDD2E7CD33EC33FC5002B2D52283
:1072F000EC30E7100FBF000C0EBE00080DBD0004FF
:107300000BEB6014A2D5EB13FCED92E7FD2274FFAA
:10731000FCFDFEFF22E480F8A2D574FF13FC7D8003
:10732000E480EFF920E73624F950037907E4F424E8
:1073300002FBE582158270021583DBF6E024FB5028
:107340001BE96014E4F0E582158270021583E00405
:10735000F0B40A08E4F0D9EE7401F00A22C2D52292
:10736000ED33EC3392D5FA602AB4FF33EDC2E77BFC
:10737000FF60067A737985E4227A73798E20D504CA
:107380007A737989224E614E002B494E46002D4971
:107390004E4600E47A08F0A3DAFC7B00740722C0B2
:1073A00083C082ECC0E0EDC0E0EEC0E0EFC0E0EAF8
:1073B00075F010A4CAABF075F04DA42BFBE435F0CA
:1073C000FCEA2410FAEB34C5FBEC34D9FCEDC2E73F
:1073D000FF75F056A4F42411C5F0F434C58FF0A461
:1073E0002AE5F03BE43CF020E714127495D0E0FF6E
:1073F000D0E0FED0E0FDD0E0FC12714E8014F40429
:10740000127495D0E0FFD0E0FED0E0FDD0E0FC1299
:107410007045D082D083E0FAEDD2E7CD33EC33244F
:1074200082FBE4C3CF33CFCE33CECD33CD33DBF3CA
:107430007B0775F00A846004F0A31B0AE5F0F0A353
:107440008FF0740AA4FFACF08EF0740AA42CFEAC8A
:10745000F050010C8DF0740AA42CFDE435F0F0A37B
:10746000DBDE7407223F8000004120000042C8009C
:1074700000447A0000461C400047C3500049742471
:10748000004B1896804CBEBC205A0E1BCA6753C2D4
:107490001C749DC5AEFB60065407601C2323127448
:1074A000C3EB543860091274AF1274BE127045EC0D
:1074B000F8EDF9EEFAEFCB22EB1274BE80F15438FE
:1074C00003241C907465FE93FC0EEE93FD0EEE9368
:1074D0000ECE93FF22BB010689828A83E0225002EE
:1074E000E722BBFE02E32289828A83E49322BB0166
:1074F0000CE58229F582E5833AF583E0225006E91E
:107500002582F8E622BBFE06E92582F8E222E58222
:1075100029F582E5833AF583E49322BB010689824B
:107520008A83F0225002F722BBFE01F322EF8DF096
:10753000A4A8F0CF8CF0A428CE8DF0A42EFE22BB00
:10754000010A89828A83F0E5F0A3F0225006F70948
:10755000A7F01922BBFE06F3E5F009F31922E88F24
:10756000F0A4CC8BF0A42CFCE98EF0A42CFC8AF0C7
:10757000EDA42CFCEA8EF0A4CDA8F08BF0A42DCCC9
:107580003825F0FDE98FF0A42CCD35F0FCEB8EF022
:10759000A4FEA9F0EB8FF0A4CFC5F02ECD39FEE408
:1075A0003CFCEAA42DCE35F0FDE43CFC2275F0084D
:1075B000758200EF2FFFEE33FECD33CDCC33CCC53B
:1075C0008233C5829BED9AEC99E58298400CF58256
:1075D000EE9BFEED9AFDEC99FC0FD5F0D6E4CEFBC8
:1075E000E4CDFAE4CCF9A88222B800C1B90059BAB6
:1075F000002DEC8BF084CFCECDFCE5F0CBF97818E4
:10760000EF2FFFEE33FEED33FDEC33FCEB33FB10DD
:10761000D703994004EB99FB0FD8E5E4F9FA2278F7
:1076200018EF2FFFEE33FEED33FDEC33FCC933C909
:1076300010D7059BE99A4007EC9BFCE99AF90FD813
:10764000E0E4C9FAE4CCFB2275F010EF2FFFEE3333
:10765000FEED33FDCC33CCC833C810D7079BEC9A72
:10766000E899400AED9BFDEC9AFCE899F80FD5F0FB
:10767000DAE4CDFBE4CCFAE4C8F922CFF4CFCEF4BF
:10768000CECDF4CDCCF4CC22C3E49FFFE49EFEE447
:107690009DFDE49CFC22EB9FF5F0EA9E42F0E99D03
:1076A00042F0EC6480C864809845F022EB9FF5F0CE
:1076B000EA9E42F0E99D42F0E89C45F022E8600F26
:1076C000ECC313FCED13FDEE13FEEF13FFD8F12214
:1076D000E86010ECA2E713FCED13FDEE13FEEF13D0
:1076E000FFD8F022E8600FEFC333FFEE33FEED3337
:1076F000FDEC33FCD8F122BB010789828A83027931
:10770000C35005E9F80279B7BBFE05E9F80279CF65
:1077100089828A830279DBBB010789828A830277A7
:10772000315005E9F80279EBBBFE05E9F80279F77B
:1077300022ECF0A3EDF0A3EEF0A3EFF022F8E0FBD3
:10774000A3A3E0F925F0F0E582158270021583E02D
:10775000FA38F022EBF0A3EAF0A3E9F022D083D0CC
:1077600082F8E4937012740193700DA3A393F874DC
:107770000193F5828883E4737402936860EFA3A396
:10778000A380DFE50F2582F582E50E3583F583B50D
:107790000E0485820F2210AF0685820FF50E22851A
:1077A000820FF50ED2AF22EC8EF0A4CCC5F0CCCD7A
:1077B000F8EFA4CEC5F02DFDE43CFCE8A42EC8C52E
:1077C000F03DFDE43CFCEFA4FFE5F028FEE43DFDC8
:1077D000E43CFC22E709F608DFFA8046E709F208F4
:1077E000DFFA803E88828C83E709F0A3DFFA8032DB
:1077F000E309F608DFFA806EE309F208DFFA806633
:1078000088828C83E309F0A3DFFA805A89828A8315
:10781000E0A3F608DFFA804E89828A83E0A3F208AB
:10782000DFFA804280D280FA80C680D4805580F210
:107830008029801080A680EA809A80A880DA80E281
:1078400080CA802988848C8589828A83E493A305F1
:1078500086F0A30586DFF5DEF3800B89828A83E458
:1078600093A3F608DFF9ECFAA9F0EDFB2288848CEB
:107870008589828A83E0A30586F0A30586DFF6DE8C
:10788000F480E389828A83E493A3F208DFF980D647
:1078900088F0EF60010E4E60CD88F0ED2402B40454
:1078A0000050C3F582EB2402B4040050B9232345F1
:1078B000822390782473E709F60870FA8046E70976
:1078C000F20870FA803E88828C83E709F0A370FA90
:1078D0008074E309F60870FA806CE309F20870FA24
:1078E000806488828C83E309F0A370FA80588982CF
:1078F0008A83E0A3F60870FA804C89828A83E0A329
:10790000F20870FA804080D280FA80C680D480511C
:1079100080F28027801080A680EA809A80A880DA92
:1079200080E280CA802788848C8589828A83E49358
:10793000A30586F0A3058670F5800B89828A83E40F
:1079400093A3F60870F9ECFAA9F0EDFB2288848C79
:107950008589828A83E0A30586F0A3058670F68078
:10796000E589828A83E493A3F20870F980D888F0CD
:10797000ED2402B4040050CEF582EB2402B40400DE
:1079800050C4232345822390790673C5F0F8A3E001
:1079900028F0C5F0F8E582158270021583E038F012
:1079A00022A3F8E0C5F025F0F0E5821582700215FB
:1079B00083E0C838F0E822E6FC08E6FD08E6FE08A9
:1079C000E6FF22E0FCA3E0FDA3E0FEA3E0FF22E24D
:1079D000FC08E2FD08E2FE08E2FF22E493FC7401E9
:1079E00093FD740293FE740393FF22ECF608EDF608
:1079F00008EEF608EFF622ECF208EDF208EEF208D7
:107A0000EFF2227F029000037486F0A3F07B017AEC
:107A1000007903EFFD7C00900B0B14F012B02E12D6
:107A2000C58490001B127731900C65E06486604835
:107A3000301105C211129E7012C58490001F12777A
:107A40003190001FE0F8A3E0F9A3E0FAA3E0FB9077
:107A5000001BE0FCA3E0FDA3E0FEA3E0C39BFFEE60
:107A60009AFEED99FDEC98FC7B207AAA7944780087
:107A7000C31276AC50B2C20A200A030280A1900C55
:107A800068E0FEA3E0FF900013EEF0A3EFF0900C8F
:107A90006AE0FDA3E0900015CDF0A3EDF0900C1A84
:107AA000E0FCA3E0FDC39FEE6480F8EC6480985096
:107AB00008900013ECF0A3EDF0900C1CE0FEA3E0A6
:107AC000FF900013E0FCA3E0FDC39FEE6480F8ECA0
:107AD0006480985009E4900013F0A3F08015900C96
:107AE0001CE0FEA3E0FFC3ED9FFFEC9E900013F0AF
:107AF000A3EFF0900015E0FEA3E0FFEE3395E0FD6C
:107B0000FC900C2FE0F8A3E0F9A3E0FAA3E0FBC39C
:107B1000EF9BFFEE9AFEED99FDEC98FC900017129A
:107B20007731900015E0FEA3E0FFEE3395E0FDFC19
:107B3000900C2FE0F8A3E0F9A3E0FAA3E0FBC3EF79
:107B40009BFFEE9AFEED99FDEC98FC127264C00466
:107B5000C005C006C007900C1FE0FCA3E0FDA3E039
:107B6000FEA3E0FFEC127264D003D002D001D0007B
:107B7000127045C004C005C006C007900C2FE0F885
:107B8000A3E0F9A3E0FAA3E0FB900C27E0FCA3E05C
:107B9000FDA3E0FEA3E0C39BFFEE9AFEED99FDEC92
:107BA00098FC127264A804A905AA06AB07D007D0F6
:107BB00006D005D00412714E90002B1277317F66EB
:107BC0007E667DE67C3E90002BE0F8A3E0F9A3E022
:107BD000FAA3E0FB1271EB5025E4FFFEFDFC9000E0
:107BE0002B12773190002BE0FCA3E0FDA3E0FEA375
:107BF000E0FF1272A2900017127731027CAD900064
:107C00002BE0FCA3E0FDA3E0FEA3E0FF1272A29034
:107C10000017127731900017E0FCA3E0FDA3E0FE0F
:107C2000A3E06402FFEEEDEC1272647B1F7A8579AB
:107C30003C78C2127045C004C005C006C007900061
:107C400017E0FCA3E0FDA3E0FEA3E06403FFEEED7C
:107C5000ECE47B16FAF9F812755EEC127264D0034C
:107C6000D002D001D000126F54C004C005C006C0BD
:107C700007900017E0FCA3E0FDA3E0FEA3E0FFEC0B
:107C80001272647BC37AF579097842127045D00389
:107C9000D002D001D000126F547BE17A7A79087853
:107CA000C1126F541272A290001712773190001710
:107CB000E0FCA3E0FDA3E0FEA3E0FF900BDDE0F914
:107CC000F81276E4900023127731900017E0FCA3BD
:107CD000E0FDA3E0FEA3E0FF900BDEE0F9F81276F2
:107CE000E4900027127731E47F6C7ECFFDFC90009A
:107CF00017127731900013E0FEA3E0FFEE3395E01A
:107D0000FDFC900017E0F8A3E0F9A3E0FAA3E0FB84
:107D100012755EE4FB7A04F9F812BC9DEF249CFF17
:107D2000EE349CFEED34FEFDEC34FFFC90001712A7
:107D30007731900013E0FEA3E0FFEE3395E0FDFC09
:107D4000900017E0F8A3E0F9A3E0FAA3E0FB1275B6
:107D50005EE4FB7A04F9F812BC9DEF24DEFFEE34FA
:107D6000DFFEE43DFDE43CFC90001712773190000B
:107D700013E0FEA3E0FFEE3395E0FDFC900017E07A
:107D8000F8A3E0F9A3E0FAA3E0FB12755EE4FB7A46
:107D900004F9F812BC9DEF2434FFEE34D1FEED342B
:107DA000FFFDEC34FFFC900017127731900013E0D8
:107DB000FEA3E0FFEE3395E0FDFC900017E0F8A392
:107DC000E0F9A3E0FAA3E0FB12755EE4FB7A04F9A4
:107DD000F812BC9DEF24C8FFEE3411FEE43DFDE433
:107DE0003CFC900017127731900013E0FEA3E0FFF7
:107DF000EE3395E0FDFC900017E0F8A3E0F9A3E076
:107E0000FAA3E0FB12755EE4FB7A04F9F812BC9D5C
:107E1000EF24FDFFEE34FFFEED34FFFDEC34FFFCFC
:107E2000900017127731900B9CE07003027EFB905C
:107E30000023E0F8A3E0F9A3E0FAA3E0FB900CF73D
:107E4000E0FCA3E0FDA3E0FEA3E0C39BFFEE9AFEEF
:107E5000ED99FDEC98FCC004C005C006C007900079
:107E600017E0FCA3E0FDA3E0FEA3E0FF900BDDE044
:107E7000F9F81276E4A804A905AA06AB07D007D042
:107E800006D005D004C3EF9BFFEE9AFEED99FDEC02
:107E900098FC900CEA127731900027E0F8A3E0F903
:107EA000A3E0FAA3E0FB900CFBE0FCA3E0FDA3E061
:107EB000FEA3E0C39BFFEE9AFEED99FDEC98FCC09B
:107EC00004C005C006C007900017E0FCA3E0FDA3B6
:107ED000E0FEA3E0FF900BDEE0F9F81276E4D003B9
:107EE000D002D001D000EB2FFFEA3EFEE93DFDE8D5
:107EF0003CFC900CEE127731027FC2900023E0FC34
:107F0000A3E0FDA3E0FEA3E0FF900CF7E0F8A3E000
:107F1000F9A3E0FAA3E02FFFEA3EFEE93DFDE83CCD
:107F2000FCC004C005C006C007900017E0FCA3E039
:107F3000FDA3E0FEA3E0FF900BDDE0F9F81276E48C
:107F4000A804A905AA06AB07D007D006D005D0041F
:107F5000C3EF9BFFEE9AFEED99FDEC98FC900CEAC6
:107F6000127731900027E0FCA3E0FDA3E0FEA3E040
:107F7000FF900CFBE0F8A3E0F9A3E0FAA3E02FFFE9
:107F8000EA3EFEE93DFDE83CFCC004C005C006C079
:107F900007900017E0FCA3E0FDA3E0FEA3E0FF9044
:107FA0000BDEE0F9F81276E4D003D002D001D00065
:107FB000EB2FFFEA3EFEE93DFDE83CFC900CEE12A3
:107FC0007731900B61E070030280A1A3E0FCA3E095
:107FD000FDA3E0FEA3E0FF900CEAE0F8A3E0F9A324
:107FE000E0FAA3E0FBC31276965014900B62E0FC1B
:107FF000A3E0FDA3E0FEA3E0FF900CEA127731902E
:108000000B66E0FCA3E0FDA3E0FEA3E0FF900CEE16
:10801000E0F8A3E0F9A3E0FAA3E0FBC312769650E0
:1080200014900B66E0FCA3E0FDA3E0FEA3E0FF904C
:108030000CEE127731900B6AE0FCA3E0FDA3E0FEAA
:10804000A3E0FF900CEAE0F8A3E0F9A3E0FAA3E0D4
:10805000FBD31276964014900B6AE0FCA3E0FDA3DC
:10806000E0FEA3E0FF900CEA127731900B6EE0FC8B
:10807000A3E0FDA3E0FEA3E0FF900CEEE0F8A3E098
:10808000F9A3E0FAA3E0FBD31276964014900B6EAE
:10809000E0FCA3E0FDA3E0FEA3E0FF900CEE12776E
:1080A00031200F02D20B22E5692443F582E4340625
:1080B000F583E0056922900640300803900643E40A
:1080C00075F00112773D0274D52001E97F2ED201AF
:1080D0008018EF540F2490D43440D4FF30050BEFB8
:1080E00024BFB41A0050032461FFE56A6002156AD8
:1080F000056DE56D7002056C30080E900640E47564
:10810000F00112773DEF02751B02C1A87403D2087B
:108110008003E4C208F569900640127754E4F56ADA
:10812000F56CF56DE56A60077F201280EA80F575D1
:108130006BFFC202C201C203C204C206C207C20967
:108140001280B6FF700D3008057F001280FBAF6D06
:10815000AE6C22B4255FC2D5C2051280B6FF24D012
:10816000B40A00501A75F00A786A30D50508B6FFCF
:108170000106C6A426F620D5047002D20480D924B4
:10818000CFB41A00EF5004C2E5D2050283EDD2024B
:1081900080C6D20180C0D20380BCD2D580BAD206BC
:1081A00080B47F201280EA2003077401B56A004082
:1081B000F11280A7FF1280EA028124D209D207803F
:1081C000951280A7FB1280A7FA1280A7F94A4B707C
:1081D0000679EB7A847BFF20032EE56A602A7E0015
:1081E0008E827583001274EE60060EEE656B70F081
:1081F000C2D5EBC0E0EAC0E0E9C0E0EE12844ED0A8
:10820000E0F9D0E0FAD0E0FB1274D5FF60AAEBC031
:10821000E0EAC0E0E9C0E01280EAD0E02401F9D051
:10822000E03400FAD0E0FBE56B0460DCD56BD9806C
:1082300087D20380A212843060F7E56B70010412CC
:108240007323A96B600DE56B600914F56B1284D87C
:10825000EF60F3EA30E702F404C3995079EAF425B9
:108260006B0430E701E404F56B800D12843060C1CB
:10827000EA056B256B127323EA90066FF030E70175
:10828000E4256B04D56B042006011412844EE4C06F
:10829000E01284D890066FE0601320E70714F01214
:1082A00080D2802204F0D0E014C0E07F001280D29F
:1082B000E56B60071280C9156B800B3006031280D6
:1082C000C9D0E0028124D0E00480C4128430609ED2
:1082D000E56B0412732390066FEAF0E56B2006024B
:1082E000600104240412844E74FF04C0E01284D898
:1082F0001280D2E56B20060260031280C9D0E0B57F
:108300006BE87F451280DC90066FE07F2B30E7043E
:108310007F2DF404C0E01280EAD0E075F00A84C03A
:10832000F01280D3D0E01280D30281247910800231
:108330007908C207C2098008D2D5790A8004790A6F
:10834000C2D5E56B047002F56BE4FAFDFEFF128006
:10835000A7FC7B082002131280A7FD7B1030010AC6
:108360001280A7FE1280A7FF7B20EC3382D592D526
:108370005013C3E43001069FFFE49EFEE420020395
:108380009DFDE49CFCE4CBF8C202EC700CCFCECD9A
:10839000CCE824F8F870F38017C3EF33FFEE33FE18
:1083A000ED33FDEC33FCEB33FB994002FB0FD8E9D6
:1083B000EB300205F8D0E0C448B202C0E00AEC4D50
:1083C0004E4F78207B0070C2EAB56B0040BCC0E025
:1083D000128450D0F0D0E0200204C4C0E0C4B20245
:1083E000C0F01280D3D0F0D5F0EB02812412775D7B
:1083F00081C153832C5881924C818E4283304F83AC
:10840000384483384981A743833E55826B4682CBEB
:1084100045823547850B5081962D819A2E81BD2B43
:10842000819E2381BB2084F42A815648000081B5B7
:10843000E56BB4FF03756B061280A7FC1280A7FDE5
:108440001280A7FE1280A7FF900668027360790A67
:10845000A2D5200414300609B910020404B9080199
:1084600004A2D52007025001042003689203B56AD4
:10847000005034C0E07F203004197F30A20372071F
:108480007206500F1284A7C203C207C206C2097F38
:1084900030800F300603E9C0E01280EA300603D0D6
:1084A000E0F9D0E0B56ACC3006177F30B9100C1275
:1084B00080EA7F583005077F788003B9080312806F
:1084C000EA3003057F2D0280EA7F202009F87F2B08
:1084D0002007F322920380CF7F00B40700500B24C3
:1084E00068F582E43406F583E0FF22286E756C6C33
:1084F0002900D2021280A73002F8C202786A30D571
:108500000108F60281562D504349581280A72403D2
:10851000B405004001E4908506931280DB743A12A2
:1085200080DBD204756A0402832C7F0290000374FE
:1085300084F0A3F07B017A007903EFFD7C00900BBF
:108540000B14F012B02E12C58490001912773190DE
:108550000C65E064846048301105C211129E7012EF
:10856000C58490001D12773190001DE0F8A3E0F95A
:10857000A3E0FAA3E0FB900019E0FCA3E0FDA3E078
:10858000FEA3E0C39BFFEE9AFEED99FDEC98FC7B09
:10859000207AAA79447800C31276AC50B2C20C207B
:1085A0000C03028934900C66E0FEA3E0FF900013F8
:1085B000EEF0A3EFF0EE3395E0FDFC900C2FE0F829
:1085C000A3E0F9A3E0FAA3E0FBC3EF9BFFEE9AFE62
:1085D000ED99FDEC98FC900015127731900013E0B6
:1085E000FEA3E0FFEE3395E0FDFC900C2FE0F8A336
:1085F000E0F9A3E0FAA3E0FBC3EF9BFFEE9AFEEDE8
:1086000099FDEC98FC127264C004C005C006C00756
:10861000900C1FE0FCA3E0FDA3E0FEA3E0FFEC1242
:108620007264D003D002D001D000127045C004C0E3
:1086300005C006C007900C2FE0F8A3E0F9A3E0FA0C
:10864000A3E0FB900C27E0FCA3E0FDA3E0FEA3E089
:10865000C39BFFEE9AFEED99FDEC98FC127264A8A4
:1086600004A905AA06AB07D007D006D005D004128E
:10867000714E9000211277317F667E667DE67C3EEA
:10868000900021E0F8A3E0F9A3E0FAA3E0FB127167
:10869000EB5025E4FFFEFDFC9000211277319000A5
:1086A00021E0FCA3E0FDA3E0FEA3E0FF1272A29094
:1086B0000015127731028767900021E0FCA3E0FDEE
:1086C000A3E0FEA3E0FF1272A29000151277319092
:1086D0000015E0FCA3E0FDA3E0FEA3E06402FFEED2
:1086E000EDEC1272647B1F7A85793C78C21270457A
:1086F000C004C005C006C007900015E0FCA3E0FD63
:10870000A3E0FEA3E06403FFEEEDECE47B16FAF9D0
:10871000F812755EEC127264D003D002D001D00062
:10872000126F54C004C005C006C007900015E0FCDD
:10873000A3E0FDA3E0FEA3E0FFEC1272647BC37A2A
:10874000F579097842127045D003D002D001D000EB
:10875000126F547BE17A7A790878C1126F541272E1
:10876000A2900015127731900B9CE0607E9000156E
:10877000E0FCA3E0FDA3E0FEA3E0FF900BDDE0F949
:10878000F81276E4A804A905AA06AB07900CF7E056
:10879000FCA3E0FDA3E0FEA3E0C39BFFEE9AFEED89
:1087A00099FDEC98FC900CEA127731900015E0FCF2
:1087B000A3E0FDA3E0FEA3E0FF900BDEE0F9F812DA
:1087C00076E4A804A905AA06AB07900CFBE0FCA37D
:1087D000E0FDA3E0FEA3E0C39BFFEE9AFEED99FD52
:1087E000EC98FC900CEE127731806A900015E0FC5A
:1087F000A3E0FDA3E0FEA3E0FF900BDDE0F9F8129B
