:1026000002A197008F828E83E0540100000070F8D1
:102610002278FFE4F6D8FD02A225900029EEF0A36F
:10262000EFF0782B7C007D017BFF7A5779177E07CE
:102630007F6D1278639007987407F0A3746DF0783B
:102640009F7C077D017BFF7A5E79847E007F0F127D
:10265000786378AE7C077D017BFF7A5E79937E009C
:102660007F1C12786378CA7C077D017BFF7A5E79D4
:10267000AF7E007F1B12786378E57C077D017BFFCE
:102680007A5E79CA7E007F1C12786378017C087DAF
:10269000017BFF7A5E79E67E007F1B127863781CEF
:1026A0007C087D017BFF7A5F79017E007F271278AD
:1026B0006378437C087D017BFF7A5F79287E007F09
:1026C0001512786378587C087D017BFF7A5F793D2D
:1026D0007E007F1912786378717C087D017BFF7A18
:1026E0005F79567E007F1112786378827C087D01C5
:1026F0007BFF7A5F79677E007F1C127863789E7C0F
:10270000087D017BFF7A5F79837E007F1D127863ED
:1027100078BB7C087D017BFF7A5F79A07E007F1B00
:1027200012786378D67C087D017BFF7A5F79BB7E67
:10273000007F1412786378EA7C087D017BFF7A5F62
:1027400079CF7E007F20127863780A7C097D017B37
:10275000FF7A5F79EF7E007F24127863782E7C0900
:102760007D017BFF7A6079137E007F181278637891
:10277000467C097D017BFF7A60792B7E007F2512E4
:102780007863786B7C097D017BFF7A6079507E00ED
:102790007F1612786378817C097D017BFF7A6079EE
:1027A000667E007F2712786378A87C097D017BFF15
:1027B0007A60798D7E007F2312786378CB7C097DE7
:1027C000017BFF7A6079B07E007F1F12786378EA20
:1027D0007C097D017BFF7A6079CF7E007F0E1278C5
:1027E0006378F87C097D017BFF7A6079DD7E007F6C
:1027F00022127863781A7C0A7D017BFF7A6079FF68
:102800007E007F21127863783B7C0A7D017BFF7A12
:102810006179207E007F1512786378507C0A7D01F3
:102820007BFF7A6179357E007F3412786378847C0F
:102830000A7D017BFF7A6179697E007F3B127863B4
:1028400078BF7C0A7D017BFF7A6179A47E007F2AB4
:1028500012786378E97C0A7D017BFF7A6179CE7E0C
:10286000007F161278637B017A07799F12BF368F3B
:10287000697B017A0779AE12BF368F6A7B017A07CE
:1028800079CA12BF368F6B7B017A08794312BF3643
:102890008F6C7B017A08795812BF368F6D7B017A75
:1028A00008797112BF368F6E7B017A08799E12BF4C
:1028B000368F6F7B017A0879D612BF368F707B0115
:1028C0007A0879EA12BF368F717B017A09790A1288
:1028D000BF368F727B017A09792E12BF368F737BD8
:1028E000017A09796B12BF368F747B017A0A7950AD
:1028F00012BF368F757B017A0A798412BF368F76C4
:102900007B017A0A79BF12BF368F777B017A0A7909
:10291000E912BF368F787B017A0979A812BF368F0A
:10292000797B017A0979CB12BF368F7A7B017A09DC
:1029300079EA12BF368F7B7B017A0A791A12BF3689
:10294000900AFFEFF090002B740CF0A37419F09034
:102950000029E0FEA3E0FFEE6003023E70EFB41A30
:10296000004003023E7090296DF82828730229BBAD
:102970000238BF0238C8023998023A68023A7B022C
:102980003A84023A8D023AC6023B71023BD8023BBE
:10299000E1023D06023D8C023D9C023DB1023DC17B
:1029A000023DD1023DE8023DF8023E0C023E21020A
:1029B0003E36023E3F023E53023E6890002D7402B6
:1029C000F0A314F0900B0AE090002FF075670085DB
:1029D0006968E5684567602CC3E5699568FFE4951B
:1029E00067FE749F2FF58274073EF583E0FD743017
:1029F0002FF58274003EF583EDF0E56815687002EE
:102A0000156780CE90005F7407F0A37403F0900BFD
:102A10003FE064036068900B0BE0FCA3E0FDA3E0E3
:102A2000FEA3E0FFEC12713FE4FBFA7980784712D5
:102A30007029900061127704900B0FE0FCA3E0FD79
:102A4000A3E0FEA3E0FFEC12713FE4FBFA7980788B
:102A500047127029900065127704900B13E0FCA3D5
:102A6000E0FDA3E0FEA3E0FFEC12713FE4FBFA7986
:102A70008078471270299000691277048066900B65
:102A800023E0FCA3E0FDA3E0FEA3E0FFEC12713F16
:102A9000E4FBFA798078471270299000611277047C
:102AA000900B27E0FCA3E0FDA3E0FEA3E0FFEC1207
:102AB000713FE4FBFA798078471270299000651223
:102AC0007704900B2BE0FCA3E0FDA3E0FEA3E0FF66
:102AD000EC12713FE4FBFA7980784712702990007C
:102AE00069127704756700856A68E5684567602C38
:102AF000C3E56A9568FFE49567FE74AE2FF58274AE
:102B0000073EF583E0FD746D2FF58274003EF5837A
:102B1000EDF0E56815687002156780CE900091743D
:102B200007F0A37403F0900B3FE064036068900B20
:102B300017E0FCA3E0FDA3E0FEA3E0FFEC12713F71
:102B4000E4FBFA7980784712702990009312770499
:102B5000900B1BE0FCA3E0FDA3E0FEA3E0FFEC1262
:102B6000713FE4FBFA798078471270299000971240
:102B70007704900B1FE0FCA3E0FDA3E0FEA3E0FFC1
:102B8000EC12713FE4FBFA798078471270299000CB
:102B90009B1277048066900B2FE0FCA3E0FDA3E07E
:102BA000FEA3E0FFEC12713FE4FBFA798078471254
:102BB0007029900093127704900B33E0FCA3E0FDA2
:102BC000A3E0FEA3E0FFEC12713FE4FBFA7980780A
:102BD00047127029900097127704900B37E0FCA3FE
:102BE000E0FDA3E0FEA3E0FFEC12713FE4FBFA7905
:102BF00080784712702990009B12770475670085D2
:102C00006B68E5684567602CC3E56B9568FFE495E4
:102C100067FE74CA2FF58274073EF583E0FD749F4A
:102C20002FF58274003EF583EDF0E56815687002BB
:102C3000156780CEE49000C3F0A304F0900B3DE054
:102C40009000C5F0900B3D601F900B0374FFF0A344
:102C50007451F0A37468F07B017A0779E512B264CD
:102C600090079A741CF0801D900B0374FFF0A374FE
:102C700051F0A3746EF07B017A0779E512B264908B
:102C8000079A741BF090079AE0756700F568E5688D
:102C90004567602E90079AE0C39568FFE49567FE4C
:102CA00074E52FF58274073EF583E0FD74C62FF5B9
:102CB0008274003EF583EDF0E568156870021567D3
:102CC00080CC90079AE024C6F582E43400F5837442
:102CD00003F0E49000F5F0A304F0900B3EE09000C8
:102CE000F7F0900B3E14602204703C900B0374FFCD
:102CF000F0A37451F0A37473F07B017A0879011288
:102D0000B26490079A7414F0801D900B0374FFF066
:102D1000A37451F0A37479F07B017A08790112B29F
:102D20006490079A741AF090079AE0756700F56846
:102D3000E5684567602E90079AE0C39568FFE495C3
:102D400067FE74012FF58274083EF583E0FD74F888
:102D50002FF58274003EF583EDF0E568156870028A
:102D6000156780CC90079AE024F8F582E43400F5EA
:102D7000837401F0E4900127F0A304F0900B3FE08E
:102D8000900129F0900B3F14602914604514606194
:102D90002403707A900B0374FFF0A37451F0A374B2
:102DA00085F07B017A08791C12B26490079A741B33
:102DB000F0805B900B0374FFF0A37451F0A3749048
:102DC000F07B017A08791C12B26490079A7416F0AD
:102DD000803C900B0374FFF0A37451F0A37496F041
:102DE0007B017A08791C12B26490079A741AF080F9
:102DF0001D900B0374FFF0A37451F0A374A0F07B3B
:102E0000017A08791C12B26490079A7427F090072F
:102E10009AE0756700F568E5684567602E90079A47
:102E2000E0C39568FFE49567FE741C2FF582740873
:102E30003EF583E0FD742A2FF58274013EF583EDA3
:102E4000F0E56815687002156780CC90079AE02459
:102E50002AF582E43401F5837402F0900159F0A35D
:102E600004F0E4F567F568C3E5689403E56794004A
:102E7000502674402568F582740B3567F583E0FFB2
:102E8000745B2568F58274013567F583EFF005689A
:102E9000E5687002056780CF756700856C68E56836
:102EA0004567602CC3E56C9568FFE49567FE744345
:102EB0002FF58274083EF583E0FD745E2FF5827471
:102EC000013EF583EDF0E56815687002156780CE68
:102ED00090018B7403F0A3F0E4F567F568C3E5682F
:102EE0009403E56794005059E568AE677802C333F0
:102EF000CE33CED8F92443F582740B3EF583E0FC43
:102F0000A3E0FDA3E0FEA3E0FF74402568F5827412
:102F10000B3567F583E0F9F81276A3AD07AC06E54B
:102F20006825E0FFE56733FE748D2FF58274013E5E
:102F3000F583ECF0A3EDF00568E5687002056780A5
:102F40009C756700856D68E5684567602CC3E56D15
:102F50009568FFE49567FE74582FF58274083EF576
:102F600083E0FD74932FF58274013EF583EDF0E567
:102F70006815687002156780CE9001BD7407F0A3D4
:102F80007403F0E4F567F568C3E5689403E56794B6
:102F9000005054E568AE677802C333CE33CED8F91B
:102FA000244FF582740B3EF583E0FCA3E0FDA3E023
:102FB000FEA3E0FFC004C005C006C007E568AE6719
:102FC0007802C333CE33CED8F924BFF58274013EE4
:102FD000F583D007D006D005D0041277040568E544
:102FE000687002056780A1E4F567F5687B017A08DF
:102FF000797112BF36C3E5689FE5679E50267471EC
:103000002568F58274083567F583E0FF74CB256881
:10301000F58274013567F583EFF00568E5687002A5
:10302000056780C8E49001EFF0A304F0900B5BE02B
:103030009001F1F0900B5B601F900B0374FFF0A305
:103040007451F0A37468F07B017A08798212B2643B
:1030500090079A741CF0801D900B0374FFF0A3740A
:1030600051F0A3746EF07B017A08798212B26490F9
:10307000079A741BF090079AE0756700F568E56899
:103080004567602E90079AE0C39568FFE49567FE58
:1030900074822FF58274083EF583E0FD74F22FF5FB
:1030A0008274013EF583EDF0E568156870021567DE
:1030B00080CC90079AE024F2F582E43401F5837421
:1030C00003F09002217405F0A314F0E4F567F568AD
:1030D000C3E5689402E567940040030231A1E56806
:1030E000AE677802C333CE33CED8F9245CF5827450
:1030F0000B3EF583E0FCA3E0FDA3E0FEA3E0FF743C
:10310000402568F582740B3567F583E0F9F812768F
:10311000A3C004C005C006C007E568AE677803C356
:1031200033CE33CED8F92423F58274023EF583D012
:1031300007D006D005D004127704E568AE677802A0
:10314000C333CE33CED8F92464F582740B3EF583B5
:10315000E0FCA3E0FDA3E0FEA3E0FF74402568F5DA
:1031600082740B3567F583E0F9F81276A3C004C0CA
:1031700005C006C007E568AE677803C333CE33CE1B
:10318000D8F92427F58274023EF583D007D006D003
:1031900005D0041277040568E568700205670230FF
:1031A000D0756700856F68E5684567602CC3E56F7B
:1031B0009568FFE49567FE749E2FF58274083EF5CE
:1031C00083E0FD74332FF58274023EF583EDF0E564
:1031D0006815687002156780CE9002537405F0A3DD
:1031E0007402F0900B70E0FCA3E0FDA3E0FEA3E00E
:1031F000FF900255127704900B74E0FCA3E0FDA34E
:10320000E0FEA3E0FF900259127704E4F567F56849
:103210007B017A0879BB12BF36C3E5689FE5679EDC
:10322000502674BB2568F58274083567F583E0FF86
:10323000745D2568F58274023567F583EFF00568E3
:10324000E5687002056780C89002857403F0A37476
:1032500001F0900B3BE0FFA3E0900287CFF0A3EFDB
:10326000F0756700857068E5684567602CC3E57098
:103270009568FFE49567FE74D62FF58274083EF5D5
:1032800083E0FD74892FF58274023EF583EDF0E54D
:103290006815687002156780CE9002B77407F0A3B6
:1032A0007401F0900B79E0FCA3E0FDA3E0FEA3E045
:1032B000FF9002B9127704756700857168E568456B
:1032C00067602CC3E5719568FFE49567FE74EA2F8B
:1032D000F58274083EF583E0FD74BD2FF58274021B
:1032E0003EF583EDF0E56815687002156780CE90B5
:1032F00002E97403F0A37401F0900B7DE0FFA3E0FA
:103300009002EBCFF0A3EFF0756700857268E56877
:103310004567602CC3E5729568FFE49567FE740A03
:103320002FF58274093EF583E0FD74ED2FF582746C
:10333000023EF583EDF0E56815687002156780CEF2
:1033400090031B7403F0A37401F0900B7FE0FFA3C4
:10335000E090031DCFF0A3EFF0756700857368E57B
:10336000684567602CC3E5739568FFE49567FE7454
:103370002E2FF58274093EF583E0FD741F2FF58230
:1033800074033EF583EDF0E56815687002156780FB
:10339000CEE490034DF0A304F0900B78E090034F3F
:1033A000F0900B78601F900B0374FFF0A37451F042
:1033B000A37468F07B017A09794612B26490079A87
:1033C0007425F0801D900B0374FFF0A37451F0A3DB
:1033D000746EF07B017A09794612B26490079A7490
:1033E00024F090079AE0756700F568E56845676026
:1033F0002E90079AE0C39568FFE49567FE74462F08
:10340000F58274093EF583E0FD74502FF582740354
:103410003EF583EDF0E56815687002156780CC9085
:10342000079AE02450F582E43403F5837403F090A6
:10343000037F04F0A37401F0900B8CE0FFA3E090F5
:103440000381CFF0A3EFF0756700857468E56845E8
:1034500067602CC3E5749568FFE49567FE746B2F75
:10346000F58274093EF583E0FD74832FF5827403C1
:103470003EF583EDF0E56815687002156780CEE4CF
:103480009003B1F0A304F0900B81E09003B3F090AF
:103490000B81601F900B0374FFF0A37451F0A374B1
:1034A00068F07B017A09798112B26490079A7427D7
:1034B000F0801D900B0374FFF0A37451F0A3746EA1
:1034C000F07B017A09798112B26490079A7426F030
:1034D00090079AE0756700F568E5684567602E908B
:1034E000079AE0C39568FFE49567FE74812FF58223
:1034F00074093EF583E0FD74B42FF58274033EF544
:1035000083EDF0E56815687002156780CC90079A26
:10351000E024B4F582E43403F5837403F09003E30C
:103520007405F0A37401F0900B82E0FCA3E0FDA30E
:10353000E0FEA3E0FF9003E512770475670085794C
:1035400068E5684567602CC3E5799568FFE4956791
:10355000FE74A82FF58274093EF583E0FD74E92F0F
:10356000F58274033EF583EDF0E568156870021589
:103570006780CE9004157405F0A37401F0900B865B
:10358000E0FCA3E0FDA3E0FEA3E0FF9004171277A8
:1035900004756700857A68E5684567602CC3E57A3D
:1035A0009568FFE49567FE74CB2FF58274093EF5AC
:1035B00083E0FD741B2FF58274043EF583EDF0E586
:1035C0006815687002156780CE9004477402F0A3F6
:1035D00014F0900B8AE0900449F0756700857B68D1
:1035E000E5684567602CC3E57B9568FFE49567FE59
:1035F00074EA2FF58274093EF583E0FD744A2FF5D5
:103600008274043EF583EDF0E56815687002156775
:1036100080CEE4900479F0A304F0900B8BE090044A
:103620007BF0900B8B601F900B0374FFF0A3745121
:10363000F0A37468F07B017A0979F812B2649007FC
:103640009A7422F0801D900B0374FFF0A37451F064
:10365000A3746EF07B017A0979F812B26490079A2C
:103660007421F090079AE0756700F568E568456792
:10367000602E90079AE0C39568FFE49567FE74F8A2
:103680002FF58274093EF583E0FD747C2FF582747A
:10369000043EF583EDF0E56815687002156780CC8F
:1036A00090079AE0247CF582E43404F5837403F0F7
:1036B0009004AB7405F0A37401F0900B8EE0FCA3B2
:1036C000E0FDA3E0FEA3E0FF9004AD127704900AB2
:1036D000FFE0756700F568E5684567602E900AFFB2
:1036E000E0C39568FFE49567FE741A2FF582740AAB
:1036F0003EF583E0FD74B12FF58274043EF583ED51
:10370000F0E56815687002156780CCE49004DDF080
:10371000A304F0900B92E09004DFF0900B92601FF6
:10372000900B0374FFF0A37451F0A374B7F07B0106
:103730007A0A793B12B26490079A7414F0801D9053
:103740000B0374FFF0A37451F0A374BEF07B017AF5
:103750000A793B12B26490079A7415F090079AE0C8
:10376000756700F568E5684567602E90079AE0C3C5
:103770009568FFE49567FE743B2FF582740A3EF569
:1037800083E0FD74E02FF58274043EF583EDF0E5EF
:103790006815687002156780CC90079AE024E0F500
:1037A00082E43404F5837404F0756700857568E578
:1037B000684567602CC3E5759568FFE49567FE74FE
:1037C000502FF582740A3EF583E0FD740F2FF582C9
:1037D00074053EF583EDF0E56815687002156780A5
:1037E000CE756700857668E5684567602CC3E57629
:1037F0009568FFE49567FE74842FF582740A3EF5A0
:1038000083E0FD74A52FF58274053EF583EDF0E5A8
:103810006815687002156780CE756700857768E562
:10382000684567602CC3E5779568FFE49567FE748B
:10383000BF2FF582740A3EF583E0FD743B2FF582BD
:1038400074063EF583EDF0E5681568700215678033
:10385000CE756700857868E5684567602CC3E578B4
:103860009568FFE49567FE74E92FF582740A3EF5CA
:1038700083E0FD74D12FF58274063EF583EDF0E50B
:103880006815687002156780CE7B017A00792B90ED
:103890000798E0A3E014FD12BAA2900798E0FCA3F9
:1038A000E0FD242AF58274003CF583EFF07B017A79
:1038B00000792BE4900B05F012AAE712BFF62290D4
:1038C0000C5AE0900B9DF022900B3FE06403606483
:1038D000E4FFFE7D807C47900C5AE0F8A3E0F9A35A
:1038E000E0FAA3E0FB126F2012717D900B9E12771D
:1038F00004E4FFFE7D807C47900C5EE0F8A3E0F9D5
:10390000A3E0FAA3E0FB126F2012717D900BA212CC
:103910007704E4FFFE7D807C47900C62E0F8A3E032
:10392000F9A3E0FAA3E0FB126F2012717D900BA6C1
:1039300012770422E4FFFE7D807C47900C5AE0F869
:10394000A3E0F9A3E0FAA3E0FB126F2012717D90CF
:103950000BB6127704E4FFFE7D807C47900C5EE09E
:10396000F8A3E0F9A3E0FAA3E0FB126F2012717D47
:10397000900BBA127704E4FFFE7D807C47900C62C6
:10398000E0F8A3E0F9A3E0FAA3E0FB126F201271C4
:103990007D900BBE12770422900B3FE064036064BD
:1039A000E4FFFE7D807C47900C5AE0F8A3E0F9A389
:1039B000E0FAA3E0FB126F2012717D900BAA127740
:1039C00004E4FFFE7D807C47900C5EE0F8A3E0F904
:1039D000A3E0FAA3E0FB126F2012717D900BAE12F0
:1039E0007704E4FFFE7D807C47900C62E0F8A3E062
:1039F000F9A3E0FAA3E0FB126F2012717D900BB2E5
:103A000012770422E4FFFE7D807C47900C5AE0F898
:103A1000A3E0F9A3E0FAA3E0FB126F2012717D90FE
:103A20000BC2127704E4FFFE7D807C47900C5EE0C1
:103A3000F8A3E0F9A3E0FAA3E0FB126F2012717D76
:103A4000900BC6127704E4FFFE7D807C47900C62E9
:103A5000E0F8A3E0F9A3E0FAA3E0FB126F201271F3
:103A60007D900BCA12770422900C5AE06007900BED
:103A7000D07403F022E4900BD0F022900C5AE09026
:103A80000BD1F022900C5AE0900BD2F022E4F567B3
:103A9000F568C3E5689403E56794004003023E704F
:103AA000745A2568F582740C3567F583E0FF74D38A
:103AB0002568F582740B3567F583EFF00568E568D6
:103AC0007002056780CCE4F567F568C3E568940388
:103AD000E56794004003023B6EE56825E0FFE5677B
:103AE00033FE745A2FF582740C3EF583E0FEA3E09A
:103AF000FFEE3395E0FDFCC004C005C006C007E53D
:103B000068AE677802C333CE33CED8F9FBAA062459
:103B1000D6F582740B3AF583D007D006D005D004D1
:103B200012770474D62BF582740B3AF583C083C0E8
:103B300082E0FCA3E0FDA3E0FEA3E0FF74D32568D0
:103B4000F582740B3567F583E0F9F81276B7D08209
:103B5000D08312770474092568F582740D3567F5F2
:103B600083E4F00568E56870020567023ACBD20E7F
:103B700022E4F567F568C3E5689403E567940040BF
:103B800003023E70E568AE677802C333CE33CED809
:103B9000F9245AF582740C3EF583E0FCA3E0FDA302
:103BA000E0FEA3E0FFC004C005C006C007E568AEA4
:103BB000677802C333CE33CED8F924E2F582740B92
:103BC0003EF583D007D006D005D0041277040568EF
:103BD000E56870020567809E900C5AE0900BEEF04D
:103BE00022E4F567F568C3E5689402E56794004050
:103BF00003023E70E568AE677803C333CE33CED898
:103C0000F9245AF582740C3EF583E0FCA3E0FDA391
:103C1000E0FEA3E0FFC004C005C006C007E568AE33
:103C2000677802C333CE33CED8F924EFF582740B14
:103C30003EF583D007D006D005D004127704E5689E
:103C4000AE677803C333CE33CED8F9245EF58274E1
:103C50000C3EF583E0FCA3E0FDA3E0FEA3E0FFC083
:103C600004C005C006C007E568AE677802C333CE5E
:103C700033CED8F9FBAA0624F7F582740B3AF58304
:103C8000D007D006D005D00412770474EF2BF5824C
:103C9000740B3AF583C083C082E0FCA3E0FDA3E08F
:103CA000FEA3E0FF74D32568F582740B3567F583B6
:103CB000E0F9F81276B7D082D083127704E568AEC7
:103CC000677802C333CE33CED8F924F7F582740B6C
:103CD0003EF583C083C082E0FCA3E0FDA3E0FEA329
:103CE000E0FF74D32568F582740B3567F583E0F93E
:103CF000F81276B7D082D0831277040568E5687031
:103D0000020567023BE6900C5AE0FCA3E0FDA3E04D
:103D1000FEA3E0FF90079B127704E4FFFEFDFC90FA
:103D2000079BE0F8A3E0F9A3E0FAA3E0FBD3127647
:103D300069501490079BE0FCA3E0FDA3E0FEA3E024
:103D4000FF900C03127704900C5EE0FCA3E0FDA34F
:103D5000E0FEA3E0FF90079B127704E4FFFEFDFC6A
:103D600090079BE0F8A3E0F9A3E0FAA3E0FBC312FD
:103D700076695003023E7090079BE0FCA3E0FDA330
:103D8000E0FEA3E0FF900C0712770422900C5AE0AB
:103D9000FFA3E0900BCECFF0A3EFF022900C5AE0FF
:103DA000FCA3E0FDA3E0FEA3E0FF900C0C1277045F
:103DB00022900C5AE0FFA3E0900C10CFF0A3EFF09C
:103DC00022900C5AE0FFA3E0900C12CFF0A3EFF08A
:103DD00022900C5AE0900C0BF07003023E70E490BD
:103DE0000C14F0900C1EF022900C5AE0FFA3E0900F
:103DF0000C1FCFF0A3EFF022900C5AE0900C14F0BF
:103E0000606EE4900C0BF0900C1EF022900C5AE0C7
:103E1000FCA3E0FDA3E0FEA3E0FF900C15127704E5
:103E200022900C5AE0FCA3E0FDA3E0FEA3E0FF908B
:103E30000C1912770422900C5AE0900C1DF022907D
:103E40000C5AE0900C1EF06027E4900C0BF0900CE4
:103E500014F022900C5AE0FCA3E0FDA3E0FEA3E0E6
:103E6000FF900C2112770422900C5AE0900C25F060
:103E700022900605EBF0A3EAF0A3E9F0900605E036
:103E8000FBA3E0FAA3E0F8AC02AD037BFF7A517923
:103E9000C6127941900B0374FFF0A37451F0A37420
:103EA000C7F0900605E0FBA3E0FAA3E0F912B264C4
:103EB000900B0374FFF0A37451F0A374CAF0900642
:103EC00005E0FBA3E0FAA3E0F912B264900B0374DF
:103ED000FFF0A37451F0A374DDF0900605E0FBA39E
:103EE000E0FAA3E0F912B264900B0374FFF0A3743C
:103EF00051F0A374EDF0900605E0FBA3E0FAA3E017
:103F0000F912B264900B0374FFF0A37451F0A37420
:103F1000F3F0900605E0FBA3E0FAA3E0F912B26427
:103F200090063D74FFF0A37452F0A37401F0900B5F
:103F30000AE0FF900640E4F0A3EFF07B017A0679F7
:103F400008127A3B900B037401F0A37406F0A3747B
:103F500008F0900605E0FBA3E0FAA3E0F912B264D2
:103F600090063D74FFF0A37452F0A3740AF0A3E42A
:103F7000F0A37403F07B017A067908127A3B900B68
:103F8000037401F0A37406F0A37408F0900605E032
:103F9000FBA3E0FAA3E0F912B26490063D74FFF0CF
:103FA000A37452F0A37422F0900B8CE0FFA3E09076
:103FB0000640CFF0A3EFF07B017A067908127A3B36
:103FC000900B037401F0A37406F0A37408F090063C
:103FD00005E0FBA3E0FAA3E0F912B26490063D7499
:103FE000FFF0A37452F0A37437F0900D18E0FF9027
:103FF0000640E4F0A3EFF07B017A067908127A3BE1
:10400000900B037401F0A37406F0A37408F09006FB
:1040100005E0FBA3E0FAA3E0F912B264900B03748D
:10402000FFF0A37451F0A374C7F0900605E0FBA362
:10403000E0FAA3E0F912B264900B0374FFF0A374EA
:1040400052F0A37447F0900605E0FBA3E0FAA3E06A
:10405000F912B264900B0374FFF0A37452F0A374CE
:1040600054F0900605E0FBA3E0FAA3E0F912B26475
:10407000E4F567F568C3E5689402E56764809480B9
:10408000507990063D74FFF0A37452F0A37467F06A
:10409000E568AE677802C333CE33CED8F9244EF547
:1040A00082740C3EF583E0FCA3E0FDA3E0FEA3E0F8
:1040B000FF74402568F582740B3567F583E0F9F8E5
:1040C0001276A3900640EEF0A3EFF07B017A06791A
:1040D00008127A3B900B037401F0A37406F0A374EA
:1040E00008F0900605E0FBA3E0FAA3E0F912B26441
:1040F0000568E56870020567024075900B0374FF60
:10410000F0A37451F0A374C7F0900605E0FBA3E0A0
:10411000FAA3E0F912B26490063D74FFF0A3745262
:10412000F0A3746BF07B017A067908127A3B900C4D
:1041300056E054036019900B0374FFF0A37452F01F
:10414000A3747BF07B017A06790812B26480179021
:104150000B0374FFF0A37452F0A37481F07B017A17
:1041600006790812B264900B037401F0A37406F090
:10417000A37408F0900605E0FBA3E0FAA3E0F912AF
:10418000B264900B0374FFF0A37452F0A37486F032
:10419000900605E0FBA3E0FAA3E0F912B264900BED
:1041A0000374FFF0A37452F0A3749CF0900605E032
:1041B000FBA3E0FAA3E0F912B264E4F567F568C383
:1041C000E5689403E567648094804003024273903D
:1041D000063D74FFF0A37452F0A374ACF0E56824BC
:1041E00001900641F0E43567900640F0E568AE675F
:1041F0007802C333CE33CED8F92427F582740C3E2F
:10420000F583E0FCA3E0FDA3E0FEA3E0FF744025FE
:1042100068F582740B3567F583E0F9F81276A390A0
:104220000642EEF0A3EFF07B017A067908127A3BA2
:10423000900B037401F0A37406F0A37408F09006C9
:1042400005E0FBA3E0FAA3E0F912B264900B03745B
:10425000FFF0A37451F0A374C7F0900605E0FBA330
:10426000E0FAA3E0F912B2640568E5687002056738
:104270000241BF90063D74FFF0A37452F0A374B5E1
:10428000F0900C4AE0FCA3E0FDA3E0FEA3E0FF9069
:1042900006401277047B017A067908127A3B900B6C
:1042A000037401F0A37406F0A37408F0900605E00F
:1042B000FBA3E0FAA3E0F912B264900B0374FFF0E1
:1042C000A37451F0A374C7F0900605E0FBA3E0FAD5
:1042D000A3E0F912B26490063D74FFF0A37452F0AB
:1042E000A374C7F0900C33E0FEA3E0FFEE3395E03B
:1042F000FDFC9006401277047B017A067908127A59
:104300003B900B037401F0A37406F0A37408F090C3
:104310000605E0FBA3E0FAA3E0F912B264900B03F8
:1043200074FFF0A37451F0A374C7F0900605E0FB8E
:10433000A3E0FAA3E0F912B26490063D74FFF0A383
:104340007452F0A374DBF0900C35E0FEA3E0FFEEB6
:104350003395E0FDFC9006401277047B017A0679E4
:1043600008127A3B900B037401F0A37406F0A37457
:1043700008F0900605E0FBA3E0FAA3E0F912B264AE
:10438000900B0374FFF0A37451F0A374C7F0900670
:1043900005E0FBA3E0FAA3E0F912B264900B03740A
:1043A000FFF0A37452F0A374EFF0900605E0FBA3B6
:1043B000E0FAA3E0F912B264900B0374FFF0A37467
:1043C00053F0A37405F0900605E0FBA3E0FAA3E028
:1043D000F912B264900B3FE0640370030244E19071
:1043E000063D74FFF0A37453F0A37417F0900B0B09
:1043F000E0FCA3E0FDA3E0FEA3E0FFEC12713FE4CC
:10440000FBFA798078471270299006401277047B76
:10441000017A067908127A3B900B037401F0A374B9
:1044200006F0A37408F0900605E0FBA3E0FAA3E011
:10443000F912B26490063D74FFF0A37453F0A374B4
:1044400021F0900B0FE0FCA3E0FDA3E0FEA3E0FF52
:10445000EC12713FE4FBFA798078471270299006DC
:10446000401277047B017A067908127A3B900B039D
:104470007401F0A37406F0A37408F0900605E0FB45
:10448000A3E0FAA3E0F912B26490063D74FFF0A332
:104490007453F0A3742BF0900B13E0FCA3E0FDA386
:1044A000E0FEA3E0FFEC12713FE4FBFA798078476D
:1044B0001270299006401277047B017A067908125F
:1044C0007A3B900B037401F0A37406F0A37408F018
:1044D000900605E0FBA3E0FAA3E0F912B2640245FE
:1044E000E090063D74FFF0A37453F0A37417F090AE
:1044F0000B23E0FCA3E0FDA3E0FEA3E0FFEC1271C0
:104500003FE4FBFA798078471270299006401277D1
:10451000047B017A067908127A3B900B037401F050
:10452000A37406F0A37408F0900605E0FBA3E0FA7C
:10453000A3E0F912B26490063D74FFF0A37453F047
:10454000A37421F0900B27E0FCA3E0FDA3E0FEA301
:10455000E0FFEC12713FE4FBFA7980784712702992
:104560009006401277047B017A067908127A3B9014
:104570000B037401F0A37406F0A37408F090060511
:10458000E0FBA3E0FAA3E0F912B26490063D74FFE9
:10459000F0A37453F0A3742BF0900B2BE0FCA3E07A
:1045A000FDA3E0FEA3E0FFEC12713FE4FBFA79808B
:1045B00078471270299006401277047B017A0679B9
:1045C00008127A3B900B037401F0A37406F0A374F5
:1045D00008F0900605E0FBA3E0FAA3E0F912B2644C
:1045E000900B0374FFF0A37453F0A37435F090069E
:1045F00005E0FBA3E0FAA3E0F912B264900B3FE000
:104600006403700302470990063D74FFF0A37453DE
:10461000F0A37417F0900B17E0FCA3E0FDA3E0FEFD
:10462000A3E0FFEC12713FE4FBFA79807847127047
:10463000299006401277047B017A067908127A3BAA
:10464000900B037401F0A37406F0A37408F09006B5
:1046500005E0FBA3E0FAA3E0F912B26490063D7412
:10466000FFF0A37453F0A37421F0900B1BE0FCA3A4
:10467000E0FDA3E0FEA3E0FFEC12713FE4FBFA795A
:104680008078471270299006401277047B017A06E1
:104690007908127A3B900B037401F0A37406F0A31F
:1046A0007408F0900605E0FBA3E0FAA3E0F912B26B
:1046B0006490063D74FFF0A37453F0A3742BF09044
:1046C0000B1FE0FCA3E0FDA3E0FEA3E0FFEC1271F2
:1046D0003FE4FBFA79807847127029900640127700
:1046E000047B017A067908127A3B900B037401F07F
:1046F000A37406F0A37408F0900605E0FBA3E0FAAB
:10470000A3E0F912B26402480890063D74FFF0A3DA
:104710007453F0A37417F0900B2FE0FCA3E0FDA3FB
:10472000E0FEA3E0FFEC12713FE4FBFA79807847EA
:104730001270299006401277047B017A06790812DC
:104740007A3B900B037401F0A37406F0A37408F095
:10475000900605E0FBA3E0FAA3E0F912B26490062C
:104760003D74FFF0A37453F0A37421F0900B33E079
:10477000FCA3E0FDA3E0FEA3E0FFEC12713FE4FB2D
:10478000FA798078471270299006401277047B01ED
:104790007A067908127A3B900B037401F0A3740631
:1047A000F0A37408F0900605E0FBA3E0FAA3E0F99B
:1047B00012B26490063D74FFF0A37453F0A3742BFF
:1047C000F0900B37E0FCA3E0FDA3E0FEA3E0FFECDC
:1047D00012713FE4FBFA7980784712702990064005
:1047E0001277047B017A067908127A3B900B0374E6
:1047F00001F0A37406F0A37408F0900605E0FBA393
:10480000E0FAA3E0F912B264900B0374FFF0A37412
:1048100051F0A374C7F0900605E0FBA3E0FAA3E013
:10482000F912B264900B3DE0B4031E900B0374FFC9
:10483000F0A37453F0A3744FF0900605E0FBA3E0DF
:10484000FAA3E0F912B264801C900B0374FFF0A38A
:104850007453F0A37469F0900605E0FBA3E0FAA39B
:10486000E0F912B264900B3EE014602104703A90BB
:104870000B0374FFF0A37453F0A37482F090060549
:10488000E0FBA3E0FAA3E0F912B264801C900B03F2
:1048900074FFF0A37453F0A37494F0900605E0FB4A
:1048A000A3E0FAA3E0F912B264900B0374FFF0A343
:1048B0007453F0A374ABF0900605E0FBA3E0FAA3F9
:1048C000E0F912B264900B3FE014602814604314C6
:1048D000605E24037076900B0374FFF0A37453F0B2
:1048E000A374BAF0900605E0FBA3E0FAA3E0F91286
:1048F000B2648058900B0374FFF0A37453F0A37458
:10490000C5F0900605E0FBA3E0FAA3E0F912B2645B
:10491000803A900B0374FFF0A37453F0A374CBF0B0
:10492000900605E0FBA3E0FAA3E0F912B264801C54
:10493000900B0374FFF0A37453F0A374D5F09006AA
:1049400005E0FBA3E0FAA3E0F912B264900B037454
:10495000FFF0A37453F0A374ECF0900605E0FBA302
:10496000E0FAA3E0F912B264E4F567F568C3E5681C
:104970009403E56764809480507F90063D74FFF057
:10498000A37452F0A374ACF0E5682401900641F0E2
:10499000E43567900640F074402568F582740B3565
:1049A00067F583E0FF900642E4F0A3EFF07B017A25
:1049B000067908127A3B900B037401F0A37406F099
:1049C000A37408F0900605E0FBA3E0FAA3E0F91257
:1049D000B264900B0374FFF0A37451F0A374C7F09A
:1049E000900605E0FBA3E0FAA3E0F912B2640568C3
:1049F000E5687002056702496D900B0374FFF0A330
:104A00007454F0A37401F0900605E0FBA3E0FAA350
:104A1000E0F912B264E4F567F568C3E5689403E56C
:104A200067648094804003024ACC90063D74FFF096
:104A3000A37454F0A37417F0E5682401900641F0C4
:104A4000E43567900640F0E568AE677802C333CE80
:104A500033CED8F92443F582740B3EF583E0FCA3F2
:104A6000E0FDA3E0FEA3E0FF74402568F582740B2F
:104A70003567F583E0F9F81276A3900642127704C1
:104A80007B017A067908127A3B900B037401F0A33C
:104A90007406F0A37408F0900605E0FBA3E0FAA307
:104AA000E0F912B264900B0374FFF0A37451F0A309
:104AB00074C7F0900605E0FBA3E0FAA3E0F912B298
:104AC000640568E56870020567024A1A900B037472
:104AD000FFF0A37454F0A37421F0900605E0FBA34B
:104AE000E0FAA3E0F912B264E4F567F568C3E5689B
:104AF0009403E567648094804003024B8D90063DEB
:104B000074FFF0A37454F0A3743BF0E568240190A3
:104B10000641F0E43567900640F0E568AE6778023C
:104B2000C333CE33CED8F9244FF582740B3EF583D0
:104B3000E0FCA3E0FDA3E0FEA3E0FF9006421277B5
:104B4000047B017A067908127A3B900B037401F01A
:104B5000A37406F0A37408F0900605E0FBA3E0FA46
:104B6000A3E0F912B264900B0374FFF0A37451F048
:104B7000A374C7F0900605E0FBA3E0FAA3E0F912E6
:104B8000B2640568E56870020567024AED900B03A0
:104B900074FFF0A37454F0A37444F0900605E0FB96
:104BA000A3E0FAA3E0F912B26490063D74FFF0A30B
:104BB0007454F0A3747AF0900B79E0FCA3E0FDA3A9
:104BC000E0FEA3E0FF9006401277047B017A0679AD
:104BD00008127A3B900B037401F0A37406F0A374DF
:104BE00008F0900605E0FBA3E0FAA3E0F912B26436
:104BF000900B0374FFF0A37451F0A374C7F09006F8
:104C000005E0FBA3E0FAA3E0F912B264900B037491
:104C1000FFF0A37454F0A3747DF0900605E0FBA3AD
:104C2000E0FAA3E0F912B26490063D74FFF0A374B9
:104C300054F0A37490F0900B7DE0FFA3E090064049
:104C4000CFF0A3EFF07B017A067908127A3B900B44
:104C5000037401F0A37406F0A37408F0900605E055
:104C6000FBA3E0FAA3E0F912B264900B0374FFF027
:104C7000A37451F0A374C7F0900605E0FBA3E0FA1B
:104C8000A3E0F912B264900B0374FFF0A37454F024
:104C9000A37494F0900605E0FBA3E0FAA3E0F912F8
:104CA000B26490063D74FFF0A37454F0A37490F0C6
:104CB000900B7FE0FFA3E0900640CFF0A3EFF07BE6
:104CC000017A067908127A3B900B037401F0A37401
:104CD00006F0A37408F0900605E0FBA3E0FAA3E059
:104CE000F912B264900B0374FFF0A37454F0A37430
:104CF000A0F0900605E0FBA3E0FAA3E0F912B2648D
:104D000090063D74FFF0A37454F0A374A4F0900BCC
:104D1000EEE0FF900640E4F0A3EFF07B017A067925
:104D200008127A3B900B037401F0A37406F0A3748D
:104D300008F0900605E0FBA3E0FAA3E0F912B264E4
:104D4000900B0374FFF0A37451F0A374C7F09006A6
:104D500005E0FBA3E0FAA3E0F912B264E4F567F51D
:104D600068C3E5689402E567648094804003024E5E
:104D70006390063D74FFF0A37454F0A374BEF0E595
:104D8000682401900641F0E43567900640F0E5683C
:104D9000AE677802C333CE33CED8F924EFF58274F0
:104DA0000B3EF583E0FCA3E0FDA3E0FEA3E0FF746F
:104DB000D32568F582740B3567F583E0F9F8127630
:104DC000A39006421277047B017A067908127A3B97
:104DD000900B037401F0A37406F0A37408F090061E
:104DE00005E0FBA3E0FAA3E0F912B26490063D747B
:104DF000FFF0A37454F0A374E4F0E568AE677802A2
:104E0000C333CE33CED8F924F7F582740B3EF58345
:104E1000E0FCA3E0FDA3E0FEA3E0FF74D32568F56A
:104E200082740B3567F583E0F9F81276A39006409B
:104E30001277047B017A067908127A3B900B03748F
:104E400001F0A37406F0A37408F0900605E0FBA33C
:104E5000E0FAA3E0F912B2640568E568700205673C
:104E6000024D6190063D74FFF0A37454F0A374F1F9
:104E7000F0900BFFE0FEA3E0FF900BD3E0FDEFA866
:104E800005088006CEA2E713CE13D8F8FF9006409F
:104E9000EEF0A3EFF07B017A067908127A3B900BD3
:104EA000037401F0A37406F0A37408F0900605E003
:104EB000FBA3E0FAA3E0F912B264900B0374FFF0D5
:104EC000A37451F0A374C7F0900605E0FBA3E0FAC9
:104ED000A3E0F912B26490063D74FFF0A37455F09C
:104EE000A37403F0900BCEE0FFA3E0900640CFF058
:104EF000A3EFF07B017A067908127A3B900B0374DA
:104F000001F0A37406F0A37408F0900605E0FBA37B
:104F1000E0FAA3E0F912B264900B0374FFF0A374FB
:104F200051F0A374C7F0900605E0FBA3E0FAA3E0FC
:104F3000F912B264900B78E0601E900B0374FFF0DE
:104F4000A37455F0A37415F0900605E0FBA3E0FAF6
:104F5000A3E0F912B264801C900B0374FFF0A374F9
:104F600055F0A3743CF0900605E0FBA3E0FAA3E043
:104F7000F912B264900B81E0601E900B0374FFF095
:104F8000A37455F0A37462F0900605E0FBA3E0FA69
:104F9000A3E0F912B264801C900B0374FFF0A374B9
:104FA00055F0A37492F0900605E0FBA3E0FAA3E0AD
:104FB000F912B264900B8BE0601E900B0374FFF04B
:104FC000A37455F0A374C1F0900605E0FBA3E0FACA
:104FD000A3E0F912B264801C900B0374FFF0A37479
:104FE00055F0A374F2F0900605E0FBA3E0FAA3E00D
:104FF000F912B264300D1E900B0374FFF0A37456C7
:10500000F0A37422F0900605E0FBA3E0FAA3E0F918
:1050100012B264801C900B0374FFF0A37456F0A3CB
:10502000743DF0900605E0FBA3E0FAA3E0F912B2AC
:1050300064300C1E900B0374FFF0A37456F0A3743D
:1050400057F0900605E0FBA3E0FAA3E0F912B26482
:10505000801C900B0374FFF0A37456F0A3747BF0D4
:10506000900605E0FBA3E0FAA3E0F912B264300A6F
:105070001E900B0374FFF0A37456F0A3749EF0907F
:105080000605E0FBA3E0FAA3E0F912B264801C90ED
:105090000B0374FFF0A37456F0A374C3F0900605DD
:1050A000E0FBA3E0FAA3E0F912B264900B92E06097
:1050B0001E900B0374FFF0A37456F0A374E7F090F6
:1050C0000605E0FBA3E0FAA3E0F912B264801C90AD
:1050D0000B0374FFF0A37456F0A374F9F090060567
:1050E000E0FBA3E0FAA3E0F912B26490063D74FF7E
:1050F000F0A37457F0A3740CF0900C46E0F8A3E012
:10510000F9A3E0FAA3E0FB900CE5E0FCA3E0FDA32B
:10511000E0FEA3E0C39BFFEE9AFEED99FDEC98FC48
:105120009006401277047B017A067908127A3B9048
:105130000B037401F0A37406F0A37408F090060545
:10514000E0FBA3E0FAA3E0F912B264900B0374FF52
:10515000F0A37451F0A374C7F0900605E0FBA3E040
:10516000FAA3E0F912B26422205945530000204E00
:105170004F000020557362000020456E636F646528
:10518000722033000020506F736974696F6E0000E5
:105190002050574D00002043757272656E740000F8
:1051A00020506F736974696F6E20616E642063753F
:1051B0007272656E740000204C65667400002052A7
:1051C000696768740000000D0A004669726D7761B6
:1051D00072652076657273696F6E3A20004355469A
:1051E00046204D4F442076362E312E34002E0D0AA7
:1051F0000D0A0044455649434520494E464F0D0A85
:105200000049443A2025640D0A004E756D626572AE
:10521000206F662073656E736F72733A2025640D7C
:105220000A00537570706C792074656E73696F6EC7
:105230003A2025640D0A0050574D204C696D697461
:105240003A2025640D0A004D4F544F5220494E46D6
:105250004F0D0A004D6F746F72207265666572653E
:105260006E6365733A2000256420004D6F746F7281
:1052700020656E61626C65643A20005945530D0AE1
:10528000004E4F0D0A000D0A4D4541535552454DF4
:10529000454E545320494E464F0D0A0053656E73D8
:1052A0006F722076616C75653A0D0A002564202DB9
:1052B0003E20256400566F6C7461676520286D562A
:1052C000293A20256C640043757272656E74203132
:1052D00020286D41293A20256C640043757272655F
:1052E0006E74203220286D41293A20256C64000D0F
:1052F0000A44455649434520504152414D45544585
:1053000052530D0A0050494420436F6E74726F6C03
:105310006C65723A0D0A0050202D3E2025660D0A5C
:105320000049202D3E2025660D0A0044202D3E20F8
:1053300025660D0A0043757272656E7420504944EB
:1053400020436F6E74726F6C6C65723A0D0A005375
:105350007461727475702061637469766174696FC9
:105360006E3A205945530D0A00537461727475707A
:105370002061637469766174696F6E3A204E4F0DD7
:105380000A00496E707574206D6F64653A2055533C
:10539000420D0A00496E707574206D6F64653A2085
:1053A00053656E736F7220330D0A00436F6E747213
:1053B0006F6C204D6F64653A2000506F736974699B
:1053C0006F6E0D0A0050574D0D0A004375727265DD
:1053D0006E740D0A00506F736974696F6E20616E90
:1053E000642063757272656E740D0A0053656E7386
:1053F0006F72207265736F6C7574696F6E3A0D0A07
:10540000004D6561737572656D656E74204F6666DB
:105410007365743A0D0A002564202D3E20256C64C6
:10542000004D6561737572656D656E74204D756CA8
:105430007469706C6965723A0D0A002564202D3E0E
:10544000202566000A43757272656E7420636F6E64
:1054500074726F6C6C6572277320706172616D6518
:10546000746572733A0A50726F706F7274696F6EFE
:10547000616C206761696E3A200025660053617493
:1054800075726174696F6E2076616C75653A200083
:105490002568640044656164207A6F6E653A200077
:1054A0000D0A0A00506F736974696F6E206C696D24
:1054B0006974206163746976653A20256400506FD1
:1054C000736974696F6E206C696D6974206D6F7497
:1054D0006F722025643A20696E66202D3E20256C6F
:1054E00064202000737570202D3E20256C640D0A09
:1054F000004D61782073746966666E6573733A2037
:1055000025640043757272656E74206C696D6974F0
:105510003A20256400437566662073746172747561
:10552000702061637469766174696F6E2028666F9C
:10553000726365293A205945530D0A004375666622
:10554000207374617274757020616374697661741C
:10555000696F6E2028666F726365293A204E4F0D81
:105560000A004375666620737461727475702061F9
:10557000637469766174696F6E202870726F7072DF
:10558000696F63657074696F6E293A205945530DD0
:105590000A004375666620737461727475702061C9
:1055A000637469766174696F6E202870726F7072AF
:1055B000696F63657074696F6E293A204E4F0D0AEA
:1055C0000043756666207374617274757020616340
:1055D0007469766174696F6E2028666F72636520E6
:1055E0002B2070726F7072696F293A205945530DE4
:1055F0000A00437566662073746172747570206169
:10560000637469766174696F6E2028666F72636572
:10561000202B2070726F7072696F293A204E4F0DE7
:105620000A004375666620616374697665202866A2
:105630006F726365293A205945530D0A0043756618
:1056400066206163746976652028666F72636529D8
:105650003A204E4F0D0A00437566662061637469F7
:105660007665202870726F7072696F6365707469F7
:105670006F6E293A205945530D0A0043756666201E
:10568000616374697665202870726F7072696F63E8
:10569000657074696F6E293A204E4F0D0A0043758C
:1056A0006666206163746976652028666F7263653B
:1056B000202B2070726F7072696F293A2059455300
:1056C0000D0A00437566662061637469766520285B
:1056D000666F726365202B2070726F7072696F291C
:1056E0003A204E4F0D0A0043756666207369646563
:1056F0003A204C4546540D0A00437566662073698E
:1057000064653A2052494748540D0A006465627541
:10571000673A20256C6400000000000000000000D3
:105720000000000000000000000000000000000079
:105730000000000000000000000000000000000069
:105740000000000000000000000000000000000059
:105750000000000000000000000000000000000049
:105E80000000000031202D204465766963652049BB
:105E9000443A0032202D20506F736974696F6E2070
:105EA000504944205B502C20492C20445D3A00335B
:105EB000202D2043757272656E7420504944205B1A
:105EC000502C20492C20445D3A0034202D2053745E
:105ED00061727475702041637469766174696F6E64
:105EE0003A000000000035202D20496E70757420A6
:105EF0006D6F64653A0000000000000000000000C3
:105F00000036202D20436F6E74726F6C206D6F64AD
:105F1000653A0000000000000000000000000000E2
:105F2000000000000000000037202D205265736F34
:105F30006C7574696F6E733A000000000038202D94
:105F4000204D6561737572656D656E74204F666670
:105F5000736574733A0039202D204D756C74697027
:105F60006C696572733A003130202D20506F732EAA
:105F7000206C696D6974206163746976653A00000C
:105F80000000003131202D20506F732E206C696D80
:105F9000697473205B696E662C207375705D3A00BE
:105FA0003132202D204D6178207374657073205B31
:105FB0006E65672C20706F735D3A003133202D20A1
:105FC00043757272656E74206C696D69743A003144
:105FD00034202D2043757272656E742070726F705C
:105FE0006F7274696F6E616C206761696E3A00311F
:105FF00035202D2043757272656E74206469666663
:106000006572656E63652073617475726174696F22
:106010006E3A003136202D2043757272656E742001
:1060200064656164207A6F6E653A003137202D20F7
:10603000437566662061637469766174696F6E206A
:10604000666C616720666F7263653A00000000004D
:106050003138202D20506F7765722074656E73691A
:106060006F6E3A0000003139202D2043756666209E
:1060700061637469766174696F6E20666C61672014
:1060800070726F7072696F3A000000000032302049
:106090002D204D617820736C696465206D6F766585
:1060A0006D656E74202870726F7072696F293A0086
:1060B0003231202D204D617820534820636C6F735E
:1060C000757265202870726F7072696F293A00329C
:1060D00032202D2048616E642049443A003233203A
:1060E0002D204375666620666C616720666F72635B
:1060F000652B70726F7072696F3A00000000003299
:1061000034202D205348207265737420706F7328DB
:1061100070726F7072696F293A0000000000000011
:106120003235202D2041726D20736964653A00007C
:10613000000000000030202D3E205573620A3120FF
:106140002D3E205368616674277320706F736974E5
:10615000696F6E20636F6E74726F6C732074686504
:10616000206D6F746F72730A0030202D3E20506FC7
:10617000736974696F6E0A31202D3E2050574D0AA5
:1061800032202D3E2043757272656E740A33202DC5
:106190003E20506F736974696F6E2D43757272651E
:1061A0006E740A0030202D3E204465616374697668
:1061B000617465205B4E4F5D0A31202D3E204163A6
:1061C000746976617465205B5945535D0A0030201F
:1061D0002D3E2052696768740A31202D3E204C659F
:1061E00066740A008F23E4F52BF52AF529F528902B
:1061F0000B0BE0FCA3E0FDA3E0FEA3E0F5378E3639
:106200008D358C34A3E0FCA3E0FDA3E0FEA3E0F514
:106210003B8E3A8D398C38A3E0FCA3E0FDA3E0FE71
:10622000A3E0F53F8E3E8D3D8C3CA3E0FCA3E0FD5A
:10623000A3E0FEA3E0F5438E428D418C40A3E0FC39
:10624000A3E0FDA3E0FEA3E0F5478E468D458C4418
:10625000A3E0FCA3E0FDA3E0FEA3E0F54B8E4A8D96
:10626000498C48A3E0FCA3E0FDA3E0FEA3E0F54FCA
:106270008E4E8D4D8C4CA3E0FCA3E0FDA3E0FEA36D
:10628000E0F5538E528D518C50A3E0FCA3E0FDA3AA
:10629000E0FEA3E0F5578E568D558C54A3E0FCA389
:1062A000E0FDA3E0FEA3E0F55B8E5A8D598C58A368
:1062B000E0FCA3E0FDA3E0FEA3E0F55F8E5E8D5D54
:1062C0008C5CA3E0FCA3E0FDA3E0FEA3E0F5638EFD
:1062D000628D618C60E523C394024003026F1F90BE
:1062E0000B3FE0147003026D66147003026A96148B
:1062F00070030265A624036003026DD0E52325E048
:1063000025E024F9F582E4340CF583E0F8A3E0F904
:10631000A3E0FAA3E0FBE52325E025E02493F58242
:10632000E4340BF583E0FCA3E0FDA3E0FEA3E0C3AF
:106330009BF52FEE9AF52EED99F52DEC98F52C3076
:106340001105C21112992CE52325E025E024A3F5BF
:1063500082E4340DF583C083C082E0FCA3E0FDA39A
:10636000E0FEA3E0252FFFEE352EFEED352DFDECF2
:10637000352CFCD082D083127704E52325E025E07C
:1063800024A3F582E4340DF583E0FCA3E0FDA3E053
:10639000FEA3E0FF7BA07A8679017800C3127669BC
:1063A000501C7FA07E867D017C00E52325E025E052
:1063B00024A3F582E4340DF5831277048042E523AB
:1063C00025E025E024A3F582E4340DF583E0FCA369
:1063D000E0FDA3E0FEA3E0FF7B607A7979FE78FF21
:1063E000D3127669401A7F607E797DFE7CFFE523BB
:1063F00025E025E024A3F582E4340DF5831277042B
:10640000301105C21112992CE4F52BF52AF529F566
:1064100028FFFEFDFCAB37AA36A935A834C3127697
:1064200069606AE4FFFE7D02FCAB2FAA2EA92DA8AD
:106430002CD3127669500FE4FFFE7DFE7CFFA82C62
:10644000C31276695027AF2FAE2EAD2DAC2C780835
:106450001276A3AB37AA36A935A83412753178085D
:106460001276A38F2B8E2A8D298C288020AF2FAEF9
:106470002EAD2DAC2CAB37AA36A935A83412753108
:1064800078101276A38F2B8E2A8D298C2830110537
:10649000C21112992CE4FFFEFDFCAB3BAA3AA939CC
:1064A000A838C31276696043AF3BAE3AAD39AC3819
:1064B00078061276A3E52325E025E024A3F582E4FF
:1064C000340DF583E0F8A3E0F9A3E0FAA3E0FB12B2
:1064D0007531780A1276A3E52B2FF52BE52A3EF5C8
:1064E0002AE5293DF529E5283CF528E4FFFEFDFCD9
:1064F000AB3FAA3EA93DA83CC31276696063E52381
:1065000025E025E024F9F582E4340CF583E0F8A3D6
:10651000E0F9A3E0FAA3E0FBE52325E025E024274A
:10652000F582E4340CF583E0FCA3E0FDA3E0FEA3D8
:10653000E0C39BFFEE9AFEED99FDEC98FCAB3FAA01
:106540003EA93DA83C12753178101276A3E52B2F99
:10655000F52BE52A3EF52AE5293DF529E5283CF508
:1065600028301105C21112992CE523701CFFFEFD85
:10657000FCAB2BAA2AA929A828C31276694005D208
:1065800013026DD0C213026DD0E4FFFEFDFCAB2BF5
:10659000AA2AA929A828C31276694005D214026D37
:1065A000D0C214026DD0E52325E025E024F9F58260
:1065B000E4340CF583E0F8A3E0F9A3E0FAA3E0FBF0
:1065C000E52325E025E02493F582E4340BF583E010
:1065D000FCA3E0FDA3E0FEA3E0C39BF52FEE9AF53C
:1065E0002EED99F52DEC98F52CE52325E025E024FA
:1065F000A3F582E4340DF583C083C082E0FCA3E000
:10660000FDA3E0FEA3E0252FFFEE352EFEED352D98
:10661000FDEC352CFCD082D083127704301105C2FA
:106620001112992CE52325E025E024A3F582E4341A
:106630000DF583E0FCA3E0FDA3E0FEA3E0FF7BA05B
:106640007A8679017800C3127669501C7FA07E8615
:106650007D017C00E52325E025E024A3F582E434D8
:106660000DF5831277048042E52325E025E024A37D
:10667000F582E4340DF583E0FCA3E0FDA3E0FEA386
:10668000E0FF7B607A7979FE78FFD3127669401A51
:106690007F607E797DFE7CFFE52325E025E024A355
:1066A000F582E4340DF583127704E4F527F526F539
:1066B00025F524301105C21112992CE4FFFEFDFCD2
:1066C000AB4FAA4EA94DA84CC31276696026AF2FD6
:1066D000AE2EAD2DAC2CA84C12753178101276A3CD
:1066E000E5272FF527E5263EF526E5253DF525E5A9
:1066F000243CF524E4FFFEFDFCAB53AA52A951A8AB
:1067000050C31276696038E52325E025E024A3F51F
:1067100082E4340DF583E0FCA3E0FDA3E0FEA3E0FA
:10672000FFA85012753178101276A3E5272FF527B0
:10673000E5263EF526E5253DF525E5243CF524E452
:10674000FFFEFDFCAB57AA56A955A854C3127669A3
:106750006063E52325E025E024F9F582E4340CF5B7
:1067600083E0F8A3E0F9A3E0FAA3E0FBE52325E04A
:1067700025E02427F582E4340CF583E0FCA3E0FD5A
:10678000A3E0FEA3E0C39BFFEE9AFEED99FDEC981B
:10679000FCAB57AA56A955A8541275317810127639
:1067A000A3E5272FF527E5263EF526E5253DF5252A
:1067B000E5243CF524301105C21112992C900B3BB5
:1067C000E0FEA3E0FFEE3395E0FDFCAB27AA26A98F
:1067D00025A824D31276694016900B3BE0FEA3E077
:1067E000FFEE3395E08F278E26F525F524803C902B
:1067F0000B3BE0FEA3E0FFC3E49FFFE49EFE339566
:10680000E0FDFCAB27AA26A925A824C3127669506F
:106810001A900B3BE0FEA3E0FFC3E49FFFE49EFE63
:106820003395E08F278E26F525F524301105C2110A
:1068300012992CE52325E02405F582E4340DF58337
:10684000E0FEA3E0FFFBAA06EA3395E0F9F8C3E512
:10685000279BF533E5269AF532E52599F531E524B0
:1068600098F530E52325E025E024ABF582E4340DEE
:10687000F583C083C082E0FCA3E0FDA3E0FEA3E0BB
:106880002533FFEE3532FEED3531FDEC3530FCD0F1
:1068900082D083127704E52325E025E024ABF5823E
:1068A000E4340DF583E0FCA3E0FDA3E0FEA3E0FFEC
:1068B0007BA07A8679017800C3127669501C7FA08C
:1068C0007E867D017C00E52325E025E024ABF58272
:1068D000E4340DF5831277048042E52325E025E0BA
:1068E00024ABF582E4340DF583E0FCA3E0FDA3E0E6
:1068F000FEA3E0FF7B607A7979FE78FFD312766998
:10690000401A7F607E797DFE7CFFE52325E025E04F
:1069100024ABF582E4340DF583127704301105C2FF
:106920001112992CE4F52BF52AF529F528FFFEFD27
:10693000FCAB5BAA5AA959A858C31276696026AF66
:1069400033AE32AD31AC30A85812753178101276B2
:10695000A3E52B2FF52BE52A3EF52AE5293DF52960
:10696000E5283CF528E4FFFEFDFCAB5FAA5EA95DCF
:10697000A85CC31276696038E52325E025E024ABE6
:10698000F582E4340DF583E0FCA3E0FDA3E0FEA373
:10699000E0FFA85C12753178101276A3E52B2FF575
:1069A0002BE52A3EF52AE5293DF529E5283CF52881
:1069B000E4FFFEFDFCAB63AA62A961A860C3127686
:1069C000696064E52325E02405F582E4340DF58350
:1069D000E0FEA3E0FFFBAA06EA3395E0F9F8E52321
:1069E00025E025E0249BF582E4340DF583E0FCA34B
:1069F000E0FDA3E0FEA3E0C39BFFEE9AFEED99FD50
:106A0000EC98FCAB63AA62A961A86012753178109A
:106A10001276A3E52B2FF52BE52A3EF52AE5293D35
:106A2000F529E5283CF528E52325E02405F582E451
:106A3000340DF583E0FEA3E0FFEE3395E0FDFCE5C9
:106A40002325E025E0249BF582E4340DF5831277BD
:106A500004301105C21112992CE523701CFFFEFDB4
:106A6000FCAB2BAA2AA929A828C31276694005D213
:106A700013026DD0C213026DD0E4FFFEFDFCAB2B00
:106A8000AA2AA929A828C31276694005D214026D42
:106A9000D0C214026DD0E52325E025E02493F582D1
:106AA000E4340BF583E0FCA3E0FDA3E0FEA3E0FFEC
:106AB00074D32523F582E4340BF583E0F9F81276DC
:106AC000A38F278E268D258C24900B3BE0FEA3E020
:106AD000FFEE3395E0FDFCAB27AA26A925A824D319
:106AE0001276694014900B3BE0FEA3E0FFEE339575
:106AF000E08F278E26F525F524AE26AF2712C1306C
:106B0000E52325E02405F582E4340DF583E0FCA3BC
:106B1000E0FDC3EF9DFFEE9CFE3395E08F338E3298
:106B2000F531F530E52325E025E024ABF582E434AA
:106B30000DF583C083C082E0FCA3E0FDA3E0FEA3CB
:106B4000E02533FFEE3532FEED3531FDEC3530FC1E
:106B5000D082D083127704E52325E025E024ABF52D
:106B600082E4340DF583E0FCA3E0FDA3E0FEA3E0A6
:106B7000FF7BA07A8679017800C3127669501C7F6A
:106B8000A07E867D017C00E52325E025E024ABF591
:106B900082E4340DF583127704803CE52325E0255B
:106BA000E024ABF582E4340DF583E0FCA3E0FDA323
:106BB000E0FEA3E0FFE4FBFAF9F8D3127669401790
:106BC000E4FFFEFDFCE52325E025E024ABF582E4AF
:106BD000340DF583127704E4F52BF52AF529F52811
:106BE000FFFEFDFCAB43AA42A941A840C31276694F
:106BF000602CAF33AE32AD31AC30AB37AA36A935ED
:106C0000A83412753178101276A3E52B2FF52BE5F9
:106C10002A3EF52AE5293DF529E5283CF528E4FF3B
:106C2000FEFDFCAB47AA46A945A844C3127669609D
:106C30003DE52325E025E024ABF582E4340DF58322
:106C4000E0FCA3E0FDA3E0FEA3E0FF78061276A33C
:106C5000A844127531780A1276A3E52B2FF52BE59F
:106C60002A3EF52AE5293DF529E5283CF528E4FFEB
:106C7000FEFDFCAB4BAA4AA949A848C3127669603D
:106C800064E52325E02405F582E4340DF583E0FE78
:106C9000A3E0FFFBAA06EA3395E0F9F8E52325E037
:106CA00025E0249BF582E4340DF583E0FCA3E0FDB0
:106CB000A3E0FEA3E0C39BFFEE9AFEED99FDEC98E6
:106CC000FCAB4BAA4AA949A8481275317810127634
:106CD000A3E52B2FF52BE52A3EF52AE5293DF529DD
:106CE000E5283CF528E4FFFEFDFCAB2BAA2AA929E8
:106CF000A828C31276695009E4F52BF52AF529F581
:106D000028E52325E02405F582E4340DF583E0FE33
:106D1000A3E0FFEE3395E0FDFCE52325E025E0242C
:106D20009BF582E4340DF583127704E523701CFF94
:106D3000FEFDFCAB2BAA2AA929A828C3127669401C
:106D400005D213026DD0C213026DD0E4FFFEFDFC2C
:106D5000AB2BAA2AA929A828C31276694004D21409
:106D6000806EC214806AE52325E025E02493F58235
:106D7000E4340BF583E0FCA3E0FDA3E0FEA3E0FF19
:106D800074D32523F582E4340BF583E0F9F8127609
:106D9000A38F2B8E2A8D298C28E523701AFFFEFDE8
:106DA000FCAB2BAA2AA929A828C31276694004D2D1
:106DB00013801DC2138019E4FFFEFDFCAB2BAA2A31
:106DC000A929A828C31276694004D2148002C214EB
:106DD000301105C21112992CE47F64FEFDFCAB2B2F
:106DE000AA2AA929A828D3127669400AE4752B6437
:106DF000F52AF529F52874FF7F9CFEFDFCAB2BAA34
:106E00002AA929A828C3127669500B74FF752B9CF8
:106E1000F52AF529F528301105C21112992C900B8D
:106E20003FE064016037AF2BAE2AAD29AC28780A69
:106E30001276B7E47B64FAF9F812B756A804A905EC
:106E4000AA06AB07900D18E0FFE4FCFDFE127531B9
:106E5000780A1276A38F2B8E2A8D298C2830131155
:106E60003014077F0312C2AD80167F0112C2AD80BD
:106E70000F3014077F0212C2AD8005E4FF12C2ADCD
:106E8000301105C21112992CE5237046FFFEFDFC5E
:106E9000AB2BAA2AA929A828D312766940067E001E
:106EA0007F01801DE4FFFEFDFCAB2BAA2AA929A8C7
:106EB00028C312766950067EFF7FFF80047E007F24
:106EC00000900CF7EFF0AE2AAF2B12C13012C24186
:106ED0008045E4FFFEFDFCAB2BAA2AA929A828D3F4
:106EE00012766940067E007F01801DE4FFFEFDFCF6
:106EF000AB2BAA2AA929A828C312766950067EFFBF
:106F00007FFF80047E007F00900CF8EFF0AE2AAF88
:106F10002B12C13012C247301105C21112992C2216
:106F2000EC4D6011E8497017ED33EC3304600DE46B
:106F3000FCFFFEFD22E933E8330470F80271E91228
:106F400071B458046009E4CC248150062850090229
:106F500071F32840030271F0C0E0EB4A7044B9803D
:106F600006D0E0FB0271DFEF4E701CBD8008EBFF26
:106F7000EAFEE9FD80EBE98DF0A4FEE5F002700980
:106F8000E9CDF9EAFEEBFFEF89F0A4FCE5F0CE894C
:106F9000F0A42EFFE435F0CD89F0A42DFEE435F009
:106FA0008067EF4E7005BD80D780C3EF8BF0A4AC37
:106FB000F0EE8BF0A42CFCE435F0F8EF8AF0A42C72
:106FC000E5F038FCE433CB8DF0A42CFCE5F03BF885
:106FD000EE8AF0A42CFCE5F038F8E433CF89F0A475
:106FE0002CFCE5F038CF3400CE89F0A42FFFE5F07B
:106FF0003EFEE433C98DF0A42EFEE5F039CD8AF0D3
:10700000A42FFFE5F03EFEE43DFD33D0E0FB50074A
:107010000BBB000F0271F3EC2CFCEF33FFEE33FEE1
:10702000ED33FD0271CB0271F3EC5D046005E859AC
:107030000470030271E91271B4580460F6EC486000
:10704000F2EC7004FDFEFF22C860DB2481C8500909
:10705000C398600250060271F09850CAF582E9297F
:107060004B4A7005AB820271DF75F0007C1A7880A4
:10707000C3EF9BEE9AED99400DC3EF9BFFEE9AFE96
:10708000ED99FDE842F0DC23ACF0D0E0FFD0E0FE6B
:10709000D0E0FDAB8220E7101BEB60BAEC2CFCEFDC
:1070A00033FFEE33FEED33FD0271CBE803F830E73A
:1070B00005C0F075F000EF2FFFEE33FEED33FD401D
:1070C000B830E7C280AA74F8CC6480CCC86480C8A9
:1070D000F58204604FC3EB9FF5F0EA9E42F0E99D14
:1070E00042F0E89C45F0603C501DE5825FFFE58280
:1070F000D313CB5BCBF42B5582FB50280ABA002468
:1071000009B9002008801DE5825BFBE582D313CF1F
:107110005FCFF4C3132F5582FF50090EBE00050D3B
:10712000BD00010CC3EB9FF5F0EA9E42F0E99D42E1
:10713000F0E89C45F06007CC4820E701B3EC2275ED
:10714000F020800E75F010800575F0087D007E003F
:107150007F003392D530D50312765BEC334010EFCD
:1071600033FFEE33FEED33FDEC33FCD5F0ED22E5DD
:10717000F0247EA2D513CC92E7CDCEFF22EDD2E74C
:10718000CD33EC3392D524814006E4FFFEFDFC2292
:10719000FCE4CFCECDCC24E0501174FF80EDC3CC05
:1071A00013CCCD13CDCE13CECF13CF0470F030D58A
:1071B000DE02765BE9D2E7C933E833F892D5EDD247
:1071C000E7CD33EC33FC5002B2D522EC30E7100FA0
:1071D000BF000C0EBE00080DBD00040BEB6014A236
:1071E000D5EB13FCED92E7FD2274FFFCFDFEFF22C0
:1071F000E480F8A2D574FF13FC7D80E480EFF920D1
:10720000E73624F950037907E4F42402FBE58215FC
:107210008270021583DBF6E024FB501BE96014E466
:10722000F0E582158270021583E004F0B40A08E4E8
:10723000F0D9EE7401F00A22C2D522ED33EC33927C
:10724000D5FA602AB4FF33EDC2E77BFF60067A729D
:107250007960E4227A72796920D5047A727964229D
:107260004E614E002B494E46002D494E4600E47AB1
:1072700008F0A3DAFC7B00740722C083C082ECC054
:10728000E0EDC0E0EEC0E0EFC0E0EA75F010A4CAA7
:10729000ABF075F04DA42BFBE435F0FCEA2410FABA
:1072A000EB34C5FBEC34D9FCEDC2E7FF75F056A416
:1072B000F42411C5F0F434C58FF0A42AE5F03BE4C2
:1072C0003CF020E714127468D0E0FFD0E0FED0E07C
:1072D000FDD0E0FC1270298014F404127468D0E030
:1072E000FFD0E0FED0E0FDD0E0FC126F20D082D0D5
:1072F00083E0FAEDD2E7CD33EC332482FBE4C3CF55
:1073000033CFCE33CECD33CD33DBF37B0775F00AED
:10731000846004F0A31B0AE5F0F0A38FF0740AA4C4
:10732000FFACF08EF0740AA42CFEACF050010C8D72
:10733000F0740AA42CFDE435F0F0A3DBDE74072220
:107340000271E9E86480F8E933E83360110460F021
:10735000ED33EC337009E8FCE9FDEAFEEBFF2204B3
:1073600060DED3EB9FEA9EE99DE8C2E78CF0C2F7AE
:1073700095F0400CE8CCF8E9CDF9EACEFAEBCFFB7A
:107380001271B485D0F05804700320D5B3E80470AE
:10739000075002B2D50271F392D5EC0460F7E4CC49
:1073A000C0E0C398F8603B94186008400DD0E0FB43
:1073B0000271CBE4FBFAC9FC8028E830E406E4C99A
:1073C000FBE4CAFCE830E305E4C9CACBFCE8540797
:1073D0006010F8C3E913F9EA13FAEB13FBEC13FCA2
:1073E000D8F130F52FC3E49CFCEF9BFFEE9AFEED45
:1073F00099FDD0E0FBEF4E4D4C701222DB03027181
:10740000F0EC2CFCEF33FFEE33FEED33FDED30E717
:10741000EB0271CBEF2BFFEE3AFEED39FDD0E0FB36
:1074200050130BBB00030271F3ED13FDEE13FEEFDF
:1074300013FFEC13FC0271CB3F80000041200000E1
:1074400042C80000447A0000461C400047C3500078
:10745000497424004B1896804CBEBC205A0E1BCA9F
:107460006753C21C749DC5AEFB60065407601C23A5
:1074700023127496EB5438600912748212749112BC
:107480006F20ECF8EDF9EEFAEFCB22EB127491805D
:10749000F1543803241C907438FE93FC0EEE93FDD7
:1074A0000EEE930ECE93FF22BB010689828A83E003
:1074B000225002E722BBFE02E32289828A83E49300
:1074C00022BB010CE58229F582E5833AF583E022AF
:1074D0005006E92582F8E622BBFE06E92582F8E29D
:1074E00022E58229F582E5833AF583E49322BB0104
:1074F0000689828A83F0225002F722BBFE01F32222
:10750000EF8DF0A4A8F0CF8CF0A428CE8DF0A42E9F
:10751000FE22BB010A89828A83F0E5F0A3F02250A3
:1075200006F709A7F01922BBFE06F3E5F009F319E7
:1075300022E88FF0A4CC8BF0A42CFCE98EF0A42CD4
:10754000FC8AF0EDA42CFCEA8EF0A4CDA8F08BF020
:10755000A42DCC3825F0FDE98FF0A42CCD35F0FC1E
:10756000EB8EF0A4FEA9F0EB8FF0A4CFC5F02ECDEA
:1075700039FEE43CFCEAA42DCE35F0FDE43CFC22CF
:1075800075F008758200EF2FFFEE33FECD33CDCCC2
:1075900033CCC58233C5829BED9AEC99E582984045
:1075A0000CF582EE9BFEED9AFDEC99FC0FD5F0D622
:1075B000E4CEFBE4CDFAE4CCF9A88222B800C1B94C
:1075C0000059BA002DEC8BF084CFCECDFCE5F0CB8A
:1075D000F97818EF2FFFEE33FEED33FDEC33FCEBC3
:1075E00033FB10D703994004EB99FB0FD8E5E4F97E
:1075F000FA227818EF2FFFEE33FEED33FDEC33FC6B
:10760000C933C910D7059BE99A4007EC9BFCE99A5E
:10761000F90FD8E0E4C9FAE4CCFB2275F010EF2FA3
:10762000FFEE33FEED33FDCC33CCC833C810D707A3
:107630009BEC9AE899400AED9BFDEC9AFCE899F8DE
:107640000FD5F0DAE4CDFBE4CCFAE4C8F922CFF4AC
:10765000CFCEF4CECDF4CDCCF4CC22C3E49FFFE466
:107660009EFEE49DFDE49CFC22EB9FF5F0EA9E4229
:10767000F0E99D42F0EC6480C864809845F022EB0C
:107680009FF5F0EA9E42F0E99D42F0E89C45F02229
:10769000E8600FECC313FCED13FDEE13FEEF13FFD8
:1076A000D8F122E86010ECA2E713FCED13FDEE1315
:1076B000FEEF13FFD8F022E8600FEFC333FFEE3385
:1076C000FEED33FDEC33FCD8F122BB010789828A41
:1076D000830279965005E9F802798ABBFE05E9F83C
:1076E0000279A289828A830279AEBB010789828AE4
:1076F000830277045005E9F80279BEBBFE05E9F87C
:107700000279CA22ECF0A3EDF0A3EEF0A3EFF02291
:10771000F8E0FBA3A3E0F925F0F0E5821582700202
:107720001583E0FA38F022EBF0A3EAF0A3E9F022A7
:10773000D083D082F8E4937012740193700DA3A3E8
:1077400093F8740193F5828883E4737402936860FC
:10775000EFA3A3A380DFE50F2582F582E50E358335
:10776000F583B50E0485820F2210AF0685820FF5D2
:107770000E2285820FF50ED2AF22EC8EF0A4CCC57E
:10778000F0CCCDF8EFA4CEC5F02DFDE43CFCE8A490
:107790002EC8C5F03DFDE43CFCEFA4FFE5F028FE5B
:1077A000E43DFDE43CFC22E709F608DFFA8046E709
:1077B00009F208DFFA803E88828C83E709F0A3DFB4
:1077C000FA8032E309F608DFFA806EE309F208DF97
:1077D000FA806688828C83E309F0A3DFFA805A89F5
:1077E000828A83E0A3F608DFFA804E89828A83E0EA
:1077F000A3F208DFFA804280D280FA80C680D4806B
:107800005580F28029801080A680EA809A80A88026
:10781000DA80E280CA802988848C8589828A83E420
:1078200093A30586F0A30586DFF5DEF3800B89823E
:107830008A83E493A3F608DFF9ECFAA9F0EDFB22C2
:1078400088848C8589828A83E0A30586F0A30586D7
:10785000DFF6DEF480E389828A83E493A3F208DF13
:10786000F980D688F0EF60010E4E60CD88F0ED24EF
:1078700002B4040050C3F582EB2402B4040050B9F2
:1078800023234582239077F773E709F60870FA807F
:1078900046E709F20870FA803E88828C83E709F097
:1078A000A370FA8074E309F60870FA806CE309F2B9
:1078B0000870FA806488828C83E309F0A370FA80F0
:1078C0005889828A83E0A3F60870FA804C89828AFC
:1078D00083E0A3F20870FA804080D280FA80C680EC
:1078E000D4805180F28027801080A680EA809A8020
:1078F000A880DA80E280CA802788848C8589828A81
:1079000083E493A30586F0A3058670F5800B898236
:107910008A83E493A3F60870F9ECFAA9F0EDFB2250
:1079200088848C8589828A83E0A30586F0A30586F6
:1079300070F680E589828A83E493A3F20870F98067
:10794000D888F0ED2402B4040050CEF582EB240276
:10795000B4040050C423234582239078D973C5F022
:10796000F8A3E028F0C5F0F8E582158270021583CF
:10797000E038F022A3F8E0C5F025F0F0E5821582AA
:1079800070021583E0C838F0E822E6FC08E6FD083E
:10799000E6FE08E6FF22E0FCA3E0FDA3E0FEA3E094
:1079A000FF22E2FC08E2FD08E2FE08E2FF22E49387
:1079B000FC740193FD740293FE740393FF22ECF6B2
:1079C00008EDF608EEF608EFF622ECF208EDF20804
:1079D000EEF208EFF222E569243DF582E43406F583
:1079E00083E005692290063A30080390063DE4756D
:1079F000F0011277100274A82001E97F2ED20180D5
:107A000018EF540F2490D43440D4FF30050BEF24EA
:107A1000BFB41A0050032461FFE56A6002156A05CD
:107A20006DE56D7002056C30080E90063AE475F055
:107A300001127710EF0274EE02BC747403D2088056
:107A400003E4C208F56990063A127727E4F56AF56F
:107A50006CF56DE56A60077F20127A1980F5756B09
:107A6000FFC202C201C203C204C206C207C2091297
:107A700079E5FF700D3008057F00127A2AAF6DAEF0
:107A80006C22B4255FC2D5C2051279E5FF24D0B4BB
:107A90000A00501A75F00A786A30D50508B6FF0159
:107AA00006C6A426F620D5047002D20480D924CFBD
:107AB000B41A00EF5004C2E5D205027D1CD2028048
:107AC000C6D20180C0D20380BCD2D580BAD2068093
:107AD000B47F20127A192003077401B56A0040F1BF
:107AE0001279D6FF127A19027A53D209D2078095F9
:107AF0001279D6FB1279D6FA1279D6F94A4B70066A
:107B0000791A7A7E7BFF20032EE56A602A7E008E3A
:107B1000827583001274C160060EEE656B70F0C250
:107B2000D5EBC0E0EAC0E0E9C0E0EE127D7DD0E038
:107B3000F9D0E0FAD0E0FB1274A8FF60AAEBC0E035
:107B4000EAC0E0E9C0E0127A19D0E02401F9D0E0FF
:107B50003400FAD0E0FBE56B0460DCD56BD980879C
:107B6000D20380A2127D5F60F7E56B700104127191
:107B7000FEA96B600DE56B600914F56B127E07EFD3
:107B800060F3EA30E702F404C3995079EAF4256B14
:107B90000430E701E404F56B800D127D5F60C1EAFB
:107BA000056B256B1271FEEA900669F030E701E47F
:107BB000256B04D56B0420060114127D7DE4C0E022
:107BC000127E07900669E0601320E70714F0127A2E
:107BD00001802204F0D0E014C0E07F00127A01E5B9
:107BE0006B60071279F8156B800B3006031279F879
:107BF000D0E0027A53D0E00480C4127D5F609EE53D
:107C00006B041271FE900669EAF0E56B20060260D3
:107C100001042404127D7D74FF04C0E0127E07126B
:107C20007A01E56B20060260031279F8D0E0B56BAB
:107C3000E87F45127A0B900669E07F2B30E7047FDE
:107C40002DF404C0E0127A19D0E075F00A84C0F077
:107C5000127A02D0E0127A02027A53791080027905
:107C600008C207C2098008D2D5790A8004790AC2FD
:107C7000D5E56B047002F56BE4FAFDFEFF1279D6D0
:107C8000FC7B082002131279D6FD7B1030010A120A
:107C900079D6FE1279D6FF7B20EC3382D592D5506F
:107CA00013C3E43001069FFFE49EFEE42002039D1F
:107CB000FDE49CFCE4CBF8C202EC700CCFCECDCC42
:107CC000E824F8F870F38017C3EF33FFEE33FEEDCE
:107CD00033FDEC33FCEB33FB994002FB0FD8E9EBAF
:107CE000300205F8D0E0C448B202C0E00AEC4D4EC4
:107CF0004F78207B0070C2EAB56B0040BCC0E01238
:107D00007D7FD0F0D0E0200204C4C0E0C4B202C045
:107D1000F0127A02D0F0D5F0EB027A531277307A73
:107D2000F0537C5B587AC14C7ABD427C5F4F7C67D4
:107D3000447C67497AD6437C6D557B9A467BFA45ED
:107D40007B64477E3A507AC52D7AC92E7AEC2B7A1D
:107D5000CD237AEA207E232A7A854800007AE4E55A
:107D60006BB4FF03756B061279D6FC1279D6FD123F
:107D700079D6FE1279D6FF90066202723B790AA28A
:107D8000D5200414300609B910020404B90801040E
:107D9000A2D52007025001042003689203B56A00AF
:107DA0005034C0E07F203004197F30A20372077284
:107DB00006500F127DD6C203C207C206C2097F3029
:107DC000800F300603E9C0E0127A19300603D0E0D4
:107DD000F9D0E0B56ACC3006177F30B9100C127AB2
:107DE000197F583005077F788003B90803127A1984
:107DF0003003057F2D027A197F202009F87F2B2080
:107E000007F322920380CF7F00B40700500B246257
:107E1000F582E43406F583E0FF22286E756C6C2948
:107E200000D2021279D63002F8C202786A30D50147
:107E300008F6027A852D504349581279D62403B4A6
:107E400005004001E4907E3593127A0A743A127A62
:107E50000AD204756A04027C5B7F02900003748678
:107E6000F0A3F07B017A007903EFFD7C00900B0515
:107E700014F012AAE712C03C900019127704900C7B
:107E800057E064866048301105C21112992C12C067
:107E90003C90001D12770490001DE0F8A3E0F9A3C8
:107EA000E0FAA3E0FB900019E0FCA3E0FDA3E0FEF4
:107EB000A3E0C39BFFEE9AFEED99FDEC98FC7B20BE
:107EC0007AAA79447800C312767F50B2C20A200A97
:107ED0000302828F900C5AE0FEA3E0FF900013EEA5
:107EE000F0A3EFF0900C5CE0FCA3E0FD900C10E040
:107EF000FAA3E0FBC39FEE6480F8EA648098500820
:107F0000900013EAF0A3EBF0900C12E0FEA3E0FF68
:107F1000C3900014E09FEE6480F8900013E064804A
:107F2000985006E4F0A3F08015900C12E0FEA3E058
:107F3000FFC3900014E09FF0900013E09EF0AE04A9
:107F4000AF05EE3395E0FDFC900C21E0F8A3E0F9DD
:107F5000A3E0FAA3E0FBC3EF9BFFEE9AFEED99FDD1
:107F6000EC98FC900015127704900C15E0FCA3E04F
:107F7000FDA3E0FEA3E0FF900015E0F8A3E0F9A365
:107F8000E0FAA3E0FB127531900C19E0F8A3E0F9D8
:107F9000A3E0FAA3E0FB12B7569000151277049005
:107FA0000015E0FCA3E0FDA3E0FEA3E0FF900BD3EF
:107FB000E0F9F81276B7900021127704900015E0EE
:107FC000FCA3E0FDA3E0FEA3E0FF900BD4E0F9F8F2
:107FD0001276B7900025127704900013E0FCA3E01E
:107FE000FDEC127144900C0CE0F8A3E0F9A3E0FA68
:107FF000A3E0FB126F207B007AFF797F7847126F36
:1080000020E4FBFA79B4784412702912717D900053
:1080100015127704900B92E070030280E990002122
:10802000E0F8A3E0F9A3E0FAA3E0FB900CE9E0FCA0
:10803000A3E0FDA3E0FEA3E0C39BFFEE9AFEED9953
:10804000FDEC98FCC004C005C006C007900015E018
:10805000FCA3E0FDA3E0FEA3E0FF900BD3E0F9F862
:108060001276B7A804A905AA06AB07D007D006D098
:1080700005D004C3EF9BFFEE9AFEED99FDEC98FC52
:10808000900CDC127704900025E0F8A3E0F9A3E05F
:10809000FAA3E0FB900CEDE0FCA3E0FDA3E0FEA35F
:1080A000E0C39BFFEE9AFEED99FDEC98FCC004C086
:1080B00005C006C007900015E0FCA3E0FDA3E0FEAC
:1080C000A3E0FF900BD4E0F9F81276B7D003D0020A
:1080D000D001D000EB2FFFEA3EFEE93DFDE83CFC7D
:1080E000900CE01277040281B0900021E0FCA3E044
:1080F000FDA3E0FEA3E0FF900CE9E0F8A3E0F9A304
:10810000E0FAA3E02FFFEA3EFEE93DFDE83CFCC0BB
:1081100004C005C006C007900015E0FCA3E0FDA365
:10812000E0FEA3E0FF900BD3E0F9F81276B7A804C5
:10813000A905AA06AB07D007D006D005D004C3EF27
:108140009BFFEE9AFEED99FDEC98FC900CDC12770B
:1081500004900025E0FCA3E0FDA3E0FEA3E0FF9077
:108160000CEDE0F8A3E0F9A3E0FAA3E02FFFEA3E6C
:10817000FEE93DFDE83CFCC004C005C006C0079018
:108180000015E0FCA3E0FDA3E0FEA3E0FF900BD40C
:10819000E0F9F81276B7D003D002D001D000EB2F6F
:1081A000FFEA3EFEE93DFDE83CFC900CE01277045E
:1081B000900B5BE0700302828FA3E0FCA3E0FDA3C1
:1081C000E0FEA3E0FF900CDCE0F8A3E0F9A3E0FA06
:1081D000A3E0FBC31276695014900B5CE0FCA3E0B3
:1081E000FDA3E0FEA3E0FF900CDC127704900B608F
:1081F000E0FCA3E0FDA3E0FEA3E0FF900CE0E0F8CC
:10820000A3E0F9A3E0FAA3E0FBC31276695014904F
:108210000B60E0FCA3E0FDA3E0FEA3E0FF900CE018
:10822000127704900B64E0FCA3E0FDA3E0FEA3E062
:10823000FF900CDCE0F8A3E0F9A3E0FAA3E0FBD3A5
:108240001276694014900B64E0FCA3E0FDA3E0FE0D
:10825000A3E0FF900CDC127704900B68E0FCA3E035
:10826000FDA3E0FEA3E0FF900CE0E0F8A3E0F9A39B
:10827000E0FAA3E0FBD31276694014900B68E0FCAF
:10828000A3E0FDA3E0FEA3E0FF900CE01277042042
:108290000F02D20B22756702900B3EE0600302854D
:1082A00064900BE2E0FCA3E0FDA3E0FEA3E0FF90FE
:1082B0000B4FE0F8A3E0F9A3E0FAA3E0FB1270C6CD
:1082C0006058900CDCE0FCA3E0FDA3E0FEA3E0FF1F
:1082D000EC12713F900B4FE0F8A3E0F9A3E0FAA392
:1082E000E0FB12702912717D900CDC127704900C67
:1082F000DCE0FCA3E0FDA3E0FEA3E0FFEC12713F95
:10830000900BE2E0F8A3E0F9A3E0FAA3E0FB126F20
:108310002012717D900CDC127704900BE6E0FCA338
:10832000E0FDA3E0FEA3E0FF900B53E0F8A3E0F92B
:10833000A3E0FAA3E0FB1270C66058900CE0E0FCEA
:10834000A3E0FDA3E0FEA3E0FFEC12713F900B530E
:10835000E0F8A3E0F9A3E0FAA3E0FB1270291271A0
:108360007D900CE0127704900CE0E0FCA3E0FDA30C
:10837000E0FEA3E0FFEC12713F900BE6E0F8A3E013
:10838000F9A3E0FAA3E0FB126F2012717D900CE0DC
:10839000127704900BD6E0FCA3E0FDA3E0FEA3E07F
:1083A000FF900B43E0F8A3E0F9A3E0FAA3E0FBC3DE
:1083B0001276696057900CDCE0F8A3E0F9A3E0FACC
:1083C000A3E0FBC000C001C002C003900B43E0F873
:1083D000A3E0F9A3E0FAA3E0FB900BD6E0FCA3E056
:1083E000FDA3E0FEA3E0C39BFFEE9AFEED99FDEC3A
:1083F00098FCD003D002D001D000EB2FFFEA3EFE64
:10840000E93DFDE83CFC900CDC127704900BDAE0CF
:10841000FCA3E0FDA3E0FEA3E0FF900B47E0F8A380
:10842000E0F9A3E0FAA3E0FBC31276696057900C71
:10843000E0E0F8A3E0F9A3E0FAA3E0FBC000C0018C
:10844000C002C003900B47E0F8A3E0F9A3E0FAA351
:10845000E0FB900BDAE0FCA3E0FDA3E0FEA3E0C3A9
:108460009BFFEE9AFEED99FDEC98FCD003D002D074
:1084700001D000EB2FFFEA3EFEE93DFDE83CFC9019
:108480000CE0127704900B5BE07003028564A3E0BC
:10849000FCA3E0FDA3E0FEA3E0FF900CDCE0F8A36A
:1084A000E0F9A3E0FAA3E0FBC31276695014900B45
:1084B0005CE0FCA3E0FDA3E0FEA3E0FF900CDC1277
:1084C0007704900B60E0FCA3E0FDA3E0FEA3E0FFD7
:1084D000900CE0E0F8A3E0F9A3E0FAA3E0FBC312FC
:1084E00076695014900B60E0FCA3E0FDA3E0FEA3CE
:1084F000E0FF900CE0127704900B64E0FCA3E0FD39
:10850000A3E0FEA3E0FF900CDCE0F8A3E0F9A3E019
:10851000FAA3E0FBD31276694014900B64E0FCA34D
:10852000E0FDA3E0FEA3E0FF900CDC127704900BCB
:1085300068E0FCA3E0FDA3E0FEA3E0FF900CE0E018
:10854000F8A3E0F9A3E0FAA3E0FBD31276694014A4
:10855000900B68E0FCA3E0FDA3E0FEA3E0FF900C1D
:10856000E0127704900B9DE0FF900B0AE0FE6F6035
:108570003F8E6AE4FFFE12A77EEF601B75680175EF
:1085800069017B007A007968E567FD7C0090002E28
:10859000E56AF012AC1B22E4F568F569FB7A007914
:1085A00068E567FD7C0090002EE56AF012AC1B22A6
:1085B000E4FFFE12A77EEF60067F0112BECA22E42E
:1085C000FF12BECA22900003EDF08F23E523C3946F
:1085D0000340030288B9300E227B03AF031BEF6018
:1085E00018E4FFFEFDFCEB25E025E024B3F582E472
:1085F000340DF58312770480E2C20EE52370131266
:10860000C166EFEEED5403FDE4FC90000412770424
:108610008041E523B4011312C170EFEEED5403FD68
:10862000E4FC9000041277048029E523B4021312BD
:10863000C17AEFEEED5403FDE4FC900004127704E0
:10864000801112C184EFEEED5403FDE4FC900004B0
:108650001277047B017A00790412B1F94003028891
:10866000B9900003E0602DA3E0FCA3E0FDA3E0FED1
:10867000A3E054C0FFEEED5403FDE4FC7802127653
:1086800090C3E49FFF74809EFE3395E0FDFCA3122F
:108690007704804B900004E0FCA3E0FDA3E0FEA380
:1086A000E054C0FFEEED5403FDE4FC780212769036
:1086B000C3E49FFB74809EFAE52325E025E024D6E1
:1086C000F582E4340BF583E0A3E0A3E0FEA3E02B06
:1086D000FFEA3EFE3395E0FDFC900008127704307F
:1086E0001527900008E0FCA3E0FDA3E0FEA3E0FF57
:1086F000E52325E025E024B3F582E4340DF583126B
:108700007704E523B40202C215E52325E025E02421
:10871000B3F582E4340DF583E0F8A3E0F9A3E0FAC1
:10872000A3E0FB900008E0FCA3E0FDA3E0FEA3E0D3
:10873000C39BFFEE9AFEED99FDEC98FCA312770423
:10874000E4FF7EC0FDFC90000CE0F8A3E0F9A3E09C
:10875000FAA3E0FBD3127669401074092523F58251
:10876000E4340DF583E014F080687F007E407DFFE7
:108770007CFF90000CE0F8A3E0F9A3E0FAA3E0FB93
:10878000C3127669501074092523F582E4340DF57F
:1087900083E004F0803C90000CE0A3E0A3E0FEA3A3
:1087A000E0FF12C130D3EF9400EE648094C0402209
:1087B00074BF2523F582E4340DF583E004F074BF23
:1087C0002523F582E4340DF583E0C3940A500302B7
:1087D00088B974BF2523F582E4340DF583E4F09065
:1087E0000008E0FCA3E0FDA3E0FEA3E0FFE52325F5
:1087F000E025E024B3F582E4340DF583127704908C
