:40000000021415008F828E83E0540100000070F82278FFE4F6D8FD02147A900000EFF0E4F53FF540F541F54275430AC200121F87EF60057F00121FB7122067D2AF9044F4FC
:4000400074FDF0E4F53B754900754A00754B37900000E0FF70067EFF7FFF80008F4C7B017A0079017D2C7C011212FA8F3E900000E060021543E5436004E53E70C9E53E6046
:400080000302059FC3E5389407E53794004008900001E064016005753B04807E900004E0FE900003E0FDEEF53FEDF54074062540F5827400353FF583E0FE74052540F58228
:4000C0007400353FF583E0FDEEF53CEDF53DE5402407FFE4353FFED3EF9538EE95374005753B03803574072540F5827400353FF583E064176005753B04801F7B017A0079B1
:4001000001E5402404FDE4353FFC121C66EF653D7003EE653C6003753B08E4F539F53AE53B600302058E900005E0F536753B04900002E012088801553101823202083403A0
:400140007A3503883703D438020839040F3A05783B0000058B20000302058EE540453F600302058EFF120D84EF70047F0180027F00900005EFF0753900753A01E4F53B0260
:40018000058E20000302058EE5406401453F600302058EE536C39401400302058E900357E0FEA3E0F5828E83120842E4FBFA7901F81207188F24E536B5241E900357E0FE6B
:4001C000A3E0F5828E83120842E4FB7A01F9F81207187522008F238014E536D395244007E4F522F5238006752201752300E523900005F0E522A3F0A374FFF0E4A3F0F539B6
:40020000753A04F53B02058E900002E06434703C20000302058EE5406403453F600302058EE536C39440400FE536D3947F50087541007542108006754101754220AE41AF47
:40024000427D007B017A01792D1208FF20000302058EC3E5409403E53F9400500302058EE54024FDFFE53F34FFFE742D2542F974013541A801FC7D017B017A0079081209F7
:40028000E7E54024FDFFE53F34FFFEEF2542F542EE3541F541E536C394404012E536D3947F500B121DA8753F007540108006753F01754020E54265407004E541653F600369
:4002C00002036F900007E0FE900006E0FDEEF541EDF542E536D3943F506FE5367F00FEEF2542FFE5413E900259F0A3EFF0900357E0FEA3E0F5828E83120842E4FB7A01F9AA
:40030000F812071890025BEEF0A3EFF0900357E0FEA3E0F5828E83120842EFE4EF600A90025BE475F0011205DA90025BE0FEA3E0FFC390025AE09F900259E09E500B753BD5
:400340000AE4F541F54202058E7B017A01792D900263E53FF0A3E540F0AD42AC41AF36120F0BEF60047F0A80027F008F3B8003753B03E4F541F54202058E20000302058EC7
:40038000E4F541F54202059F20000302058EE5422540FFE541353FFED3EF942CEE9401502DE4F53BAE3FAF40742D2542F974013541A801FC7D017B017A0079051209E7E58F
:4003C000402542F542E53F3541F54102058E753B0302058EE540453F600302058E78257C00FD7BFF7A25791FFE7F081209E7D200753900753A08AE39AF3A78057C007D0105
:400400007B007A0079251209E7E4F53B02058E20000302058EE5406403453F600302058E900007E0FE900006E0FDEEF52FEDF530E536C394404038E536D3947F5031AE2F29
:40044000AF307C007D101208D28F348E338D328C318F4B8E4A8D498C48E4754F10F54EF54DF54CFF7E80FDFC12192C8F358050AE2FAF307C017D001208D2C004C005C006FC
:40048000C007AF36E4FCFDFEFBFA7901F812068DD003D002D001D0001206728F348E338D328C318F4B8E4A8D498C48E4F54F754E01F54DF54CFFFE7D10FC12192C8F35E588
:4004C00036D3943F5072AF367E007C207D001208D2E42FFFE43EFEED3408FDE43CFCC004A905AA06AB07AE2FAF307C007D201208D2D0001206728F348E338D328C31E4F5BA
:400500002DF52EC3E52E9420E52D9400502AE4E52E2534FFE52D3533FEE43532FDE43531A907AA06AB05121CF3EF2535F535052EE52E7002052D80CBE536702AAE2FAF301E
:40054000FCFD7BFFFAF9F8C31207C57019FD7F05120A3DC3E5359FF535E4FD7F06120A3DC3E5359FF535E535F404900005F0E4F53BF539753A018016E4FF120D84EF700604
:400580009046FA7480F01220718003753B057B017A007901853948853A49AF3B1215ED900000E0700302004330000302004322BB010689828A83E0225002E722BBFE02E399
:4005C0002289828A83E49322BB010689828A83F0225002F722BBFE01F322C5F0F8A3E028F0C5F0F8E582158270021583E038F022BB010A89828A83E0F5F0A3E022500687B6
:40060000F009E71922BBFE07E3F5F009E3192289828A83E493F5F074019322BB010789828A830205DA500B09C5F027F7C5F01937F722BBFE0D09F8E325F0F3C5F019E338A6
:40064000F322F889828A8374019325F0C5F0F8E4933822BB010A89828A83F0E5F0A3F0225006F709A7F01922BBFE06F3E5F009F31922EF2BFFEE3AFEED39FDEC38FC22C315
:40068000EF9BFFEE9AFEED99FDEC98FC22E88FF0A4CC8BF0A42CFCE98EF0A42CFC8AF0EDA42CFCEA8EF0A4CDA8F08BF0A42DCC3825F0FDE98FF0A42CCD35F0FCEB8EF0A47C
:4006C000FEA9F0EB8FF0A4CFC5F02ECD39FEE43CFCEAA42DCE35F0FDE43CFC2275F008758200EF2FFFEE33FECD33CDCC33CCC58233C5829BED9AEC99E58298400CF582EE4A
:400700009BFEED9AFDEC99FC0FD5F0D6E4CEFBE4CDFAE4CCF9A88222B800C1B90059BA002DEC8BF084CFCECDFCE5F0CBF97818EF2FFFEE33FEED33FDEC33FCEB33FB10D7C4
:4007400003994004EB99FB0FD8E5E4F9FA227818EF2FFFEE33FEED33FDEC33FCC933C910D7059BE99A4007EC9BFCE99AF90FD8E0E4C9FAE4CCFB2275F010EF2FFFEE33FE50
:40078000ED33FDCC33CCC833C810D7079BEC9AE899400AED9BFDEC9AFCE899F80FD5F0DAE4CDFBE4CCFAE4C8F922EF4BFFEE4AFEED49FDEC48FC22C3E49FFFE49EFEE49D2F
:4007C000FDE49CFC22EB9FF5F0EA9E42F0E99D42F0E89C45F022E8600FECC313FCED13FDEE13FEEF13FFD8F122E8600FEFC333FFEE33FEED33FDEC33FCD8F122BB010789DC
:40080000828A830208365005E9F8020A0DBBFE05E9F8020A1989828A83020842BB010789828A8302085E5005E9F8020A25BBFE05E9F8020A3122E0FCA3E0FDA3E0FEA3E06A
:40084000FF22E493FC740193FD740293FE740393FF22E0F8A3E0F9A3E0FAA3E0FB22ECF0A3EDF0A3EEF0A3EFF022E0FBA3E0FAA3E0F922EBF0A3EAF0A3E9F022E493FB74E9
:400880000193FA740293F922D083D082F8E4937012740193700DA3A393F8740193F5828883E4737402936860EFA3A3A380DFE5092582F582E5083583F583B50804858209B7
:4008C0002210AF06858209F50822858209F508D2AF22EC8EF0A4CCC5F0CCCDF8EFA4CEC5F02DFDE43CFCE8A42EC8C5F03DFDE43CFCEFA4FFE5F028FEE43DFDE43CFC22EF51
:400900004E6012EF60010EEDBB010B89828A83F0A3DFFCDEFA2289F05007F709DFFCA9F022BBFEFCF309DFFCA9F022E709F608DFFA8046E709F208DFFA803E88828C83E7AA
:4009400009F0A3DFFA8032E309F608DFFA806EE309F208DFFA806688828C83E309F0A3DFFA805A89828A83E0A3F608DFFA804E89828A83E0A3F208DFFA804280D280FA80F3
:40098000C680D4805580F28029801080A680EA809A80A880DA80E280CA802988848C8589828A83E493A30586F0A30586DFF5DEF3800B89828A83E493A3F608DFF9ECFAA95D
:4009C000F0EDFB2288848C8589828A83E0A30586F0A30586DFF6DEF480E389828A83E493A3F208DFF980D688F0EF60010E4E60CD88F0ED2402B4040050C3F582EB2402B455
:400A0000040050B9232345822390097B73E6FC08E6FD08E6FE08E6FF22E2FC08E2FD08E2FE08E2FF22ECF608EDF608EEF608EFF622ECF208EDF208EEF208EFF22290025D03
:400A4000EDF0AB079002627402F0E4FFFEFDFCA312085EEB1208880A79010AA6020ACB030AF0040B15050B40060B8F070B6B080BB3090BD70A00000C0190025DE0FF7E005E
:400A80007C017D001208D21207B7EF24C0FFEE34FFFEED3410FDE43CFCA312085E9002627401F0020C0C90025DE0FF7E007C017D001208D2C374C39FFF74FF9EFE74109DBD
:400AC000FDE49CFCA312085E020C0C90025DE0FF7E007C017D001208D2C374C79FFF74FF9EFE74109DFDE49CFCA312085E020C0C90025DE0FF7E007C017D001208D2C37433
:400B0000CB9FFF74FF9EFE74109DFDE49CFCA312085E020C0C90025DE0FF7E007C017D001208D2C374D09FFF74FF9EFE74109DFDE49CFCA312085E9002627401F0020C0C60
:400B400090025DE0FF7E007C017D001208D2C374D19FFF74FF9EFE74109DFDE49CFCA312085E9002627401F0020C0C90025DE0FF7E007C017D001208D2C374D69FFF74FF16
:400B80009EFE74109DFDE49CFCA312085E807D90025DE0FF7E007C017D001208D2C374D29FFF74FF9EFE74109DFDE49CFCA312085E805990025DE0FF7E007C017D00120811
:400BC000D2C374D49FFF74FF9EFE74109DFDE49CFCA312085E803590025DE0FF7E007C017D001208D2C374D89FFF74FF9EFE74109DFDE49CFCA312085E9002627404F08082
:400C00000BE4FFFEFDFC90025E12085E900262E0B4011990025E120836A907AA06AB05121CF3E4FCFDFE90026312085E900262E06402705C90025E120836EF2401FFE43E91
:400C4000FEE43DFDE43CA907AA06AB05121CF3E4FCFDFE90026312085E900263120852C000C001C002C00390025E120836A907AA06AB05121CF3E4FCFDFE78081207E9D0BA
:400C800003D002D001D0001207AA90026312085E900262E064046003020D7D90025E120836EF2403FFE43EFEE43DFDE43CA907AA06AB05121CF3E4FCFDFE90026312085E37
:400CC000900263120852C000C001C002C00390025E120836EF2402FFE43EFEE43DFDE43CA907AA06AB05121CF3E4FCFDFE78081207E9D003D002D001D0001207AA9002634F
:400D000012085E900263120852C000C001C002C00390025E120836EF2401FFE43EFEE43DFDE43CA907AA06AB05121CF3E4FCFDFE78101207E9D003D002D001D0001207AA84
:400D400090026312085E900263120852C000C001C002C00390025E120836A907AA06AB05121CF3E4FCFDFE78181207E9D003D002D001D0001207AA90026312085E90026356
:400D8000120836228F44AD447F03120A3DEF2401FFE43EFEE43DFDE43CFCE4FB7A01F9F812068DC004C005C006C007AD447F04120A3DD003D002D001D0001206728F4C8EA9
:400DC0004B8D4A8C49C201E4F54DAD447F03120A3DEF2401FFE43EFEE43DFDE43CFCE4FB7A01F9F812068D8F488E478D468C45AF4CAE4BAD4AAC49AB48AA47A946A845C337
:400E00001207C55032854882854783E493F54E6005F46002D201E54E254DF54DAF48AE47AD46AC45E47B01FAF9F81206728F488E478D468C4580B8AD447F03120A3DEF2479
:400E400001FFE43EFEE43DFDE43CFCE4FB7A01F9F812068D78031207D68F488E478D468C45E47FC07EFFFDFCAB4CAA4BA94AA849C31207C57007FF7E20FDFC800DAF4CAE21
:400E80004BAD4AAC4978031207D68F4C8E4B8D4A8C49AF4CAE4BAD4AAC49AB48AA47A946A845C31207C55039E42548FFE43547FEE5463408FDE43545A907AA06AB05121CB9
:400EC000F3EF254DF54DAF48AE47AD46AC45E47B01FAF9F81206728F488E478D468C4580B1E54DF404F54DAD447F01120A3DA804A905AA06AB07AF4DE4FCFDFEC31207C5CC
:400F000070032001037F06227F002290025EECF0A3EDF0A312087390025DEFF0E4900265F0EFD3943F500E90025DE0940140069002657401F090025DE0FFD3947F4006903A
:400F400002657401F0EFC39440400CEFD3944140069002657401F0EFD3943F501E90025EE0FEA3E0FFE4FCFDFB7A01F9F8C31207C5502F9002657401F08027D390025FE03C
:400F8000948090025EE0940040069002657401F0900263E07004A3E0641060069002657401F090026012086AE94A4B700590026504F0900265E0600302108A121EFEEF606E
:400FC0000302108490025EE0FCA3E0FDA312086A900263E0FFA3E090026CCFF0A3EFF090025DE0FF1211DE900265EFF06407600302107F904722E0540270087F01FE121EF6
:401000006480F0904722E054026009E0FF1313543FFF80027FFFEF7006900265F0800690026574FFF0900265E0705490025DE0FFA3E0FCA3E0FD900353E0FBA3E090026AD9
:40104000F0121A90900265EFF064077032904722E0540270087F01FE121E6480F0904722E054026009E0FF1313543FFF80027FFFEF7006900265F0800690026574FFF0124B
:40108000205180069002657404F0900265E0FF227B007A4679E8121CF3EF4401FD7B007A4679E8122045E4F52CE52CC3940A502CE52C75F005A42461F582E43424AF82F571
:4010C000218F22F58312087C8F82852183740393FC740493FD121F6E052C80CDE4F52CE52CC394015046E52C75F007A42413F582E43425AF82F5238F24F58312087C8B25E1
:401100008A2689278F82852383740393FE7404938E28F529740593F52A740693F52BAD29AC28FFAE2A121EB8052C80B37E207F92121DD97B017A507903121CF3EF4402FD3B
:401140007B017A5079031220457B017A507913121CF3EF4402FD7B017A5079131220459043A0E04440F09043C2E04410F07C207D827B007A5179127F087E00121EB87C2053
:401180007D8A7B007A5179227F087E00121EB89044F47401F0904322E04408F09046ECE0C394055006904689743AF090480074F1F012150690480074B1F0121F1D7B007A41
:4011C0004379A0C00179B0900005120873D0017F0E7E00121D749043B0E054FDF022900266EFF0A3ECF0A3EDF0A312087390026E7407F0904722E0540270030212EE904756
:401200002074B6F074D5F07402F0904722E0540260030212E6900266E0904720F0E490026FF0A3F090026CE0FEA3E0FF90026FE0FCA3E0FDC39FEC9E501F90026912086A8D
:40124000E92DF9EA3CFA1205AF904720F090026FE475F0011205DA80CB90026CE064017002A3E060030212F4900266E0FFD3943F40030212F47E007C207D001208D2E42F0A
:40128000FFE43EFEED3408FDE43CFCC004A905AA06AB07A3E0FEA3E0FF7C007D201208D2D00012067290027112085EE490026FF0A3F090026FE0FEA3E0FFC39420EE94005A
:4012C0005032E4FCFDA3120852120672A907AA06AB05121CF3904720EFF090026FE475F0011205DA80CC90026E7409F0800690026E7404F090026EE0FF228B448A4589469E
:401300008C478D48755505E4F54DF54EE54C75F00AA4FFC3E54E9FE54D95F0503B121B34EF6022121B347553008F54E47F19FEFDFC1218C7121B34D3EF9554E4955350E366
:40134000E4F5558013E47F01FEFDFC1218C7054EE54E7002054D80B4AB49AA4AA94BE4F5F0120653E4F54FF550121B34EFD394005003021412121B347551008F52AB49AA8D
:401380004AA94BE5518552F012061BAB49AA4AA94B1205F0C39548E5F09547505FE4F54DF54EC3E54E9552E54D95515025121C1CAB44E5462550F9E545354FFAEF1205C8C1
:4013C0000550E5507002054F054EE54E7002054D80D0AB44E55024FFFFE54F34FFFEE5462FF9E5453EFA1205AF64177003021369E47F05FEFDFC1218C7021369AB49AA4ABB
:40140000A94B1205F0C39552FFE5F095518FF0120653AF552275930078007583467582E8E04401F0009046ECE0F99046FAE0FA90034BF0B903225420B40012B8001AEA9014
:401440001FFFF07401901FFEF09046F6F0901FFEE06005901FFFE0FA90480074C0F0758156121EDE90000078007920E4F0A3D8FCD9FAEA90034BF002001175081F7509FD1F
:401480001210900214C1022079E493A3F8E493A34003F68001F208DFF48029E493A3F85407240CC8C333C4540F4420C8834004F456800146F6DFE4800B0102040810204063
:4014C00080901B83E47E019360BCA3FF543F30E509541FFEE493A360010ECF54C025E060A840B8E493A3FAE493A3F8E493A3C8C582C8CAC583CAF0A3C8C582C8CAC583CABE
:40150000DFE9DEE780BE7B007A4079807D337C001220279040827418F09043007402F09040007408F09042007403F07B0C7A017908121CF39046A1EFF07B007A4279227D68
:40154000087C001220277B007A4279207D517C12122027E4900004F07F19FEFDFC90000012085E900000120836D3EF9400EE9400403B900004E0FF64036032904225E05440
:4015800001FEEF25E04E5403900004F0E47FE07E01FDFC121D0090000012083674FFFBFAF9F812067290000012085E80B6900000120836EF4E70057F0312207F7B007A402A
:4015C00079047D007C011220279040047407F0904006E4F09040087448F0904004E4F09040017402F09043A2E04401F0228B458A46894774011205C8AB452547F9E43546AB
:40160000FAEF1205C8E549AB45E5472402F9E43546FAE5491205C8E548FFAB45E5472403F9E43546FAEF1205C8AB45AA46A947E5492404FDE43548FC121C668E4A8F4BEFCF
:40164000AB45E5492404FDE43548FCE5472DF9E5463CFAEF1205C8E54AFFAB45E5492405FDE43548FCE5472DF9E5463CFAEF1205C8AB45E5492406FFE43548FEE5472FF9FF
:40168000E5463EFA74171205C8E5492407FDE43548FC755100755200755348755496AB45AA46A947121BD122C0E0C083C082C085C084C086758600C093759300C0D075D09F
:4016C00000C001C002C003C006C007E4FBA2AF33FAD2AF9044F474FDF090646CE0FFFE541EF960069002FDE049F0EF30E54590644AE0FE9002F9E02478F582E43402F583E5
:40170000EEF07B01EB602C900276E060069002FC7401F09002F9E004F0E0C394404002E4F0900277E0FE9002F9E0B506069002767401F0EF20E5A2AF02EA24FF92AFD007BF
:40174000D006D003D002D001D0D0D093D086D084D085D082D083D0E032752106E4FF120D84EF7002F521E4F54BF54AF549F548900357E0FEA3E0F5828E831208428F4F8E82
:401780004E8D4D8C4CE4FFFE7D10FC12192C900355E0FCA3E0F5828C83E493FEC3EF9EFFF404FFB50612900357E0FEA3E0F5828E83120842EF4E70057F00121FB79046FAFB
:4017C000E054C064406004E52160099046FAE4F0FF12001A12205D22C0E0C083C082C085C084C086758600C093759300C0D075D000C006C007A2AFE433FFD2AF9044F4742E
:40180000FDF09002FAE0FE9002B8E06E602C90646EE020E2259002B8E0C394404002E4F09002B8E024B9F582E43402F583E090644DF09002B8E004F080C8EF24FF92AFD043
:4018400007D006D0D0D093D086D084D085D082D083D0E032A9079002FAE0FF9002B8E0FEEFC39E501AEE24FFFDE434FFFCEF7A00B50508EAB504047D0180027D00800CC346
:40188000EF9EB43F047D0180027D00ED70C8EEB5070D90646EE020E20690644DE9F022EFC394404002E4FF74B92FF582E43402F583E9F00F9002FAEFF090646EE030E10609
:4018C0009044D07402F02290FFFC1208AE12085E850883850982120836D3EF9400EE9480402E90034C120836121D00850883850982C083C082120836E42FFFEE3480FEEDC9
:4019000034FFFDEC34FFFCD082D08312085E80C090034212083685088385098212085212068D121D009000041208AE228F478E468D458C44E4F550D3E54F9400E54E940025
:40194000404BAF4FAE4EAD4DAC4C74FFFBFAF9F81206728F4F8E4E8D4D8C4CE547254BFFE546354AFEE5453549FDE5443548FCEF254FFFEE354EFEED354DFDEC354CA907BD
:40198000AA06AB051205AF2550F55080AAAF5022121FE190025E74FFF0121EFEEF703B7F01121E35EF6407702C7B017A0379537D021219E6EFB40215E490025EF090472228
:4019C000E0540270107F01FE121E6480F0904722E0540260D4122051800690025E7404F090025EE0FF2290025F120873900262EDF0E4A3F0900262E0FFA3E0C39F50379065
:401A00004722E054016003D38001C340097F017E00121E6480E9904720E0FF90025F12086A900263E029F9E43AFAEF1205C8900263E004F080BE900263E0FF2290025EEC49
:401A4000F0A3EDF090025DEFF0541F25E0FFE433FEE42FFFEE3444FAA9077B0112201A900260EEF0A3EFF090025DE075F002A42400FFE5F03444FAA9077B01A3E0FEA3E0EC
:401A8000FFFDAC06122029900260E0FEA3E0FF22900267ECF0A3EDF0AC077D07904722E05402603B90472074B6F074D8F07405F0904722E054027023904720ECF09002670F
:401AC000E0904720F0900267E0A3E0904720F0EBF090026AE0904720F080067D0980027D04AF0522121FE1121EFEEF703B121F3A90025EEFF06407702A904722E0540270A1
:401B0000087F01FE121E6480F0904722E054026009E0FF1313543FFF80027FFFEF700490025EF0122051800690025E7404F090025EE0FF229044C87401F09002F9E0FE905D
:401B40000277E0B5060E900276E060047F40802CE4FF80289002F9E0FE900277E0C39E500BE0FE9002F9E0C39EFF8010900277E0FEC374409EFE9002F9E02EFF9044C07420
:401B800001F022420355251A420357251B430350000000440347016E360044034200005DC04103461844034C2EE000004102FB004102B8004102FA004102FD00410277003B
:401BC0004102F900410276004102FC0041035B00008B4C8A4D894E8C4F8D50E4F555F556121E07C3E5569550E555954F501DAB4CE54E2556F9E54D3555FA1205AFFF121874
:401C0000540556E5567002055580D8AB51AA52A953E54F8550F01206537F00229044C87401F0900277E0FE9002F9E0FD900276E07004EE6D602474782EF582E43402F583EF
:401C4000E0FF0EEEC394404002E4FE900277EEF0900276E06009E4F0800590644AE0FF9044C07401F0228B4C8A4D894EE4F54FF550D3ED9400EC94004025AB4CED24FFFFD4
:401C8000EC34FFFEE54E2FF9E54D3EFA1205AF2550F550E4354FF54FED1D70011C80D2E550F4FFE54FF4FEEF2401FFE43EFE227C167DA8E4FF121A3C7D07E4FF121F55E4B7
:401CC0009002FDF090648A7469F090648C7420F07C177DD87F01121A3C7D077F01121F5590642E7406F090643E7447F090648E7402F0228B938A838982E0759300FF22000A
:401D0000EC4D4E700D78FCEF24E950032840FD2200007BF178DA0000EF28FF78FFEE38FEED38FDEC38FC50E7EF2BFFEE38FEED38FDEC38FC40F22205020304121FCC9002FD
:401D40005DEFF090649AE04420F090649CE04410F09044C07401F090649EE04410F09044D87402F09044C0F012203690025DE0FF121F9F22758600EF4E6027EF60010E75B2
:401D80009300900005E0F595A3E0F585A3E0F5848B938A838982E0A30586F0A31586DFF6DEF4E4F593F59522121FCC9043A0E04408F09043B0E04408F090470174C8F090A8
:401DC00043ACE04410F09043BCE04410F0904700E0542060F8121F9F22ACEAADA08E838F82E493F9601CA3E493F5EAA3E493F5A0A3E49360F1FAA3E493F8A3E493F2DAF6BC
:401E0000D9E48DA08CEA22121FCC90649AE04401F0E054FEF0121F9F9044C87401F0E4900277F09002F9F0900276F09002FCF09044C004F0227E07904722E05402601F9052
:401E4000472074B6F074E1F0740EF0904722E054027007904720EFF080067E0980027E04AF062200EEFA900346E0F88FF0A4FFAEF0E88AF0A42EFEE5F03400FDEF24C9FF5A
:401E800078FFEE38FEED38FDE438FC5003021D0022121FCC90649DE04401F0E054FEF0121F9F9044C87402F0E49002B8F09002FAF09044C07402F022758600EF4E601BEFCA
:401EC00060010E8C838D828B958A858984E493A30586F0A31586DFF5DEF3E4F595229046FAE054C064807015F0FD7F02120A3DEF4E600AE4FD7F02120A3D122009229002CC
:401F0000667404F0121FCC90035BE0700704F0E4900266F0121F9F900266E0FF227B0C7A0179CF121CF3EF540790586EF0EFC4540FA3F09058767444F0227F07904722E0DD
:401F40005402600E90472074B6F074E0F0740DF080027F0422AC07ED540775F020A4FFEC541F2480F582E43444F583EFF022EC4D6011ED60010C8B938A838982E4F0A3DDB0
:401F8000FCDCFA75930022121AE490025DEFF0700812199090025DEFF090025DE0FF22EF54016004D2AF8002C2AFEF5402FF9044F4E054FD4FF02290FFFF1208AEEFF090D7
:401FC00046EA7401F09000011208AE229044F4E0F84402F0E85402FF10AF012274014FFF22121FCC9043A0E04408F09043B0E04408F0121F9F229002FBE07009121CAF9087
:4020000002FB7401F0121D3B2290034BE0FA8E838F827400758101738B938A838982E0FFA3E0FE759300228B938A838982EDF0A3ECF0759300229043A2E04401F09043B26F
:40204000E04401F0228B938A838982EDF075930022121FCCE490035BF0121F9F229046FA7480F012207122121FF6121E07121E91229046F6E04401F02212175980FE2280DC
:40208000FE22007F7B007B00000030D8C800D800000016005205082309121098118814200064047E3F8A698C3A8E0F010101E204010301E6020105028702E008010604B82E
:4020C00002BE01D804DF010107021B02A702010A088501890195019901B101BF01D904DF01010B4F00400106038808010A040B111028130219641A041B0A202021082230E9
:40210000274028282A022B022E033080310232103304340836203708382239803A083C283E084028410843824A024B0152045B4068286A016B027090712072108D408E104D
:402140008F809042910493109621980199029B0C9D649E049F80A004A102A202A490A520A702AB01B021B405B602B744C00FC20FC40ECA0FCC6FCE6FD00FD208D608E0083A
:40218000E801010C4C0001021608E70A180E3F101E120114C6163918481C88208824DD262228232ADC2CC8301F320834E03A22541A560458045B045F018008824284F88698
:4021C000018704880F89028AF08D068EC792849308943996C698109C20A020A101A43FA6C0A906AA08AC30B031B106B308B501B6FFB702B982BE40BF11C062C101C5E0C6DA
:40220000CBC80EC9FFCAFFCBFFCEF0CF44D00CD804D904DA04DF01E6C0EA40EB02010D46002901100210030B04010709080209260A310D220E11108012481388151016502C
:402240001780180219021C081D021E201F20200421012208230128402920320238C839A43A083B10414042084921502053405E205F026540674887409088912093089502C2
:40228000978098409B4A9C029D259E049F04A420A504A72AB001B301C0DFC2FFC4FFCA05CC01CE0ED00CD204D6A0D8B0010E4E040906D007230B080C0C0D210E710F0E1048
:4022C00014141016AC170C18DC1A221B201E0321102410264029212A202B062D0C2F2330E03310350F361F37203A023B203F444004464049FF4A074BFF4C404D204EF04F8A
:4023000005500854015604580459045A045B045F01604061A862406320871F89198B0691019304950997029A01A506A719A919AA01AB06AF0FB201B310B507B708B908BB65
:4023400020BE04D804D904DB04DF01010F3C004404040504084809200A010B800E0810081210160418C01A011F042130224425102604270A280829212A802F2A303031047A
:402380003402370438883A103D284101500C5210581059015A886380680169046A206B406F0171407304821083408550868089048B04C005C24FC446CA7DCCC6CE6ED00101
:4023C000D60FD801E40C014005322035808180CC30E2200141038620A620E6400144058301870188C0E004E40401450F0C0857025B046401660193029889A040A301B009C2
:40240000C204D607D801E801EC0401460D8702900893029888A040A301A702AB04B40CB601E808EC02EE08014705900893029888A040A301014C0E5004544057015808607D
:40244000806702900893029888A040A301D406D607D80201500300010C010E01015101000F005100001000513000400051C000100051F000100100000A00010A800580018E
:40248000140008000140000A00014C000200015000002000008080207D050000040800130C0400030204200A031410130C0C7300088000400800004043003C404F003000DE
:4024C0000000734000303F0FC0800008002028000040003402010005C0000E12FFFFFF62A0F0410C00000000000210040404040000000100000000000040020010301000CE
:4025000010101200000000000000000000000000000000010A002493008061000026006930091E031E010100000000000000000000000000000000000000000000000000BD
:40254000000000000000000000000000000000000000000000000000000000000000000000000000000000000000000000000000000000000000000000000000000000005B
:40258000000000000000000000000000000000000000000000000000000000000000000000000000000000000000000000000000000000000000000000000000000000001B
:4025C00000000000000000000000000000000000000000000000000000000000000000000000000000000000000000000000000000000000000000000000000000000000DB
:40260000029B00008F828E83E0540100000070F82278FFE4F6D8FD029B8E900021EEF0A3EFF078237C007D017BFF7A5379907E067FA51274349006C87406F0A374A5F07887
:40264000D27C067D017BFF7A5A79357E007F0F12743478E17C067D017BFF7A5A79447E007F1C12743478FD7C067D017BFF7A5A79607E007F1B12743478187C077D017BFF16
:402680007A5A797B7E007F1C12743478347C077D017BFF7A5A79977E007F1B127434784F7C077D017BFF7A5A79B27E007F2712743478767C077D017BFF7A5A79D97E007FF7
:4026C00017127434788D7C077D017BFF7A5A79F07E007F1912743478A67C077D017BFF7A5B79097E007F1112743478B77C077D017BFF7A5B791A7E007F1C12743478D37C18
:40270000077D017BFF7A5B79367E007F1D12743478F07C077D017BFF7A5B79537E007F1B127434780B7C087D017BFF7A5B796E7E007F14127434781F7C087D017BFF7A5B7E
:4027400079827E007F20127434783F7C087D017BFF7A5B79A27E007F2412743478637C087D017BFF7A5B79C67E007F18127434787B7C087D017BFF7A5B79DE7E007F251280
:40278000743478A07C087D017BFF7A5C79037E007F1612743478B67C087D017BFF7A5C79197E007F2712743478DD7C087D017BFF7A5C79407E007F2312743478007C097D1A
:4027C000017BFF7A5C79637E007F1F127434781F7C097D017BFF7A5C79827E007F0E127434782D7C097D017BFF7A5C79907E007F3412743478617C097D017BFF7A5C79C4D7
:402800007E007F8C12743478ED7C097D017BFF7A5D79507E007F3B12743478287C0A7D017BFF7A5D798B7E007F2A1274347B017A0679D212B7A68F697B017A0679E112B73A
:40284000A68F6A7B017A0679FD12B7A68F6B7B017A07798D12B7A68F6C7B017A0779A612B7A68F6D7B017A0779D312B7A68F6E7B017A08790B12B7A68F6F7B017A08791FB0
:4028800012B7A68F707B017A08793F12B7A68F717B017A08796312B7A68F727B017A0879A012B7A68F737B017A09792D12B7A68F747B017A0979ED12B7A68F757B017A09C5
:4028C000792D12B7A68F767B017A09796112B7A68F777B017A0879DD12B7A68F787B017A09790012B7A68F797B017A09791F12B7A68F7A900023740CF0A37416F0900021B7
:40290000E0FEA3E0FFEE6003023C80EFB417004003023C8090291BF82828730229600237100237190237E90238B90238CC0238D50238DE0239170239C2023A29023A320252
:402940003B57023BDD023BED023C02023C12023C22023C30023C40023C4E023C63023C789000257402F0A314F0900A83E0900027F0756700856968E5684567602CC3E56994
:402980009568FFE49567FE74D22FF58274063EF583E0FD74282FF58274003EF583EDF0E56815687002156780CE9000577407F0A37403F0900AB8E064036068900A84E0FC3E
:4029C000A3E0FDA3E0FEA3E0FFEC126D10E4FBFA79807847126BFA9000591272D5900A88E0FCA3E0FDA3E0FEA3E0FFEC126D10E4FBFA79807847126BFA90005D1272D590B5
:402A00000A8CE0FCA3E0FDA3E0FEA3E0FFEC126D10E4FBFA79807847126BFA9000611272D58066900A9CE0FCA3E0FDA3E0FEA3E0FFEC126D10E4FBFA79807847126BFA9046
:402A400000591272D5900AA0E0FCA3E0FDA3E0FEA3E0FFEC126D10E4FBFA79807847126BFA90005D1272D5900AA4E0FCA3E0FDA3E0FEA3E0FFEC126D10E4FBFA7980784799
:402A8000126BFA9000611272D5756700856A68E5684567602CC3E56A9568FFE49567FE74E12FF58274063EF583E0FD74652FF58274003EF583EDF0E56815687002156780EB
:402AC000CE9000897407F0A37403F0900AB8E064036068900A90E0FCA3E0FDA3E0FEA3E0FFEC126D10E4FBFA79807847126BFA90008B1272D5900A94E0FCA3E0FDA3E0FE8E
:402B0000A3E0FFEC126D10E4FBFA79807847126BFA90008F1272D5900A98E0FCA3E0FDA3E0FEA3E0FFEC126D10E4FBFA79807847126BFA9000931272D58066900AA8E0FC84
:402B4000A3E0FDA3E0FEA3E0FFEC126D10E4FBFA79807847126BFA90008B1272D5900AACE0FCA3E0FDA3E0FEA3E0FFEC126D10E4FBFA79807847126BFA90008F1272D590AB
:402B80000AB0E0FCA3E0FDA3E0FEA3E0FFEC126D10E4FBFA79807847126BFA9000931272D5756700856B68E5684567602CC3E56B9568FFE49567FE74FD2FF58274063EF593
:402BC00083E0FD74972FF58274003EF583EDF0E56815687002156780CEE49000BBF0A304F0900AB6E09000BDF0900AB6601F900A5574FFF0A3744EF0A374BBF07B017A075F
:402C0000791812AAE89006CA741CF0801D900A5574FFF0A3744EF0A374C1F07B017A07791812AAE89006CA741BF09006CAE0756700F568E5684567602E9006CAE0C3956862
:402C4000FFE49567FE74182FF58274073EF583E0FD74BE2FF58274003EF583EDF0E56815687002156780CC9006CAE024BEF582E43400F5837404F0E49000EDF0A304F0904B
:402C80000AB7E09000EFF0900AB714602204703C900A5574FFF0A3744EF0A374C6F07B017A07793412AAE89006CA7414F0801D900A5574FFF0A3744EF0A374CCF07B017AC6
:402CC00007793412AAE89006CA741AF09006CAE0756700F568E5684567602E9006CAE0C39568FFE49567FE74342FF58274073EF583E0FD74F02FF58274003EF583EDF0E56F
:402D00006815687002156780CC9006CAE024F0F582E43400F5837401F0E490011FF0A304F0900AB8E0900121F0900AB81460291460451460612403707A900A5574FFF0A342
:402D4000744EF0A374D8F07B017A07794F12AAE89006CA741BF0805B900A5574FFF0A3744EF0A374E3F07B017A07794F12AAE89006CA7416F0803C900A5574FFF0A3744E58
:402D8000F0A374E9F07B017A07794F12AAE89006CA741AF0801D900A5574FFF0A3744EF0A374F3F07B017A07794F12AAE89006CA7427F09006CAE0756700F568E5684567E8
:402DC000602E9006CAE0C39568FFE49567FE744F2FF58274073EF583E0FD74222FF58274013EF583EDF0E56815687002156780CC9006CAE02422F582E43401F5837402F0B5
:402E0000E4900151F0A37403F0E4A3F0A3F0A3F0F567F568C3E5689403E5679400504E900A5574FFF0A3744FF0A3740AF074B92568F582740A3567F583E0FF900A58E4F036
:402E4000A3EFF07B017A0679CF12760C900A557401F0A37406F0A374CFF07B017A07797612AAE80568E5687002056780A79006CA7417F0E0756700F568E5684567602E9067
:402E800006CAE0C39568FFE49567FE74762FF58274073EF583E0FD74562FF58274013EF583EDF0E56815687002156780CC9006CAE02456F582E43401F5837403F09001836E
:402EC000F0A3F0E4F567F568C3E5689403E56794005059E568AE677802C333CE33CED8F924BCF582740A3EF583E0FCA3E0FDA3E0FEA3E0FF74B92568F582740A3567F58363
:402F0000E0F9F8127274AD07AC06E56825E0FFE56733FE74852FF58274013EF583ECF0A3EDF00568E56870020567809C756700856C68E5684567602CC3E56C9568FFE49577
:402F400067FE748D2FF58274073EF583E0FD748B2FF58274013EF583EDF0E56815687002156780CE9001B57407F0A37403F0E4F567F568C3E5689403E56794005054E568B4
:402F8000AE677802C333CE33CED8F924C8F582740A3EF583E0FCA3E0FDA3E0FEA3E0FFC004C005C006C007E568AE677802C333CE33CED8F924B7F58274013EF583D007D04A
:402FC00006D005D0041272D50568E5687002056780A1E4F567F5687B017A0779A612B7A6C3E5689FE5679E502674A62568F58274073567F583E0FF74C32568F58274013568
:4030000067F583EFF00568E5687002056780C8E49001E7F0A304F0900AD4E09001E9F0900AD4601F900A5574FFF0A3744EF0A374BBF07B017A0779B712AAE89006CA741C40
:40304000F0801D900A5574FFF0A3744EF0A374C1F07B017A0779B712AAE89006CA741BF09006CAE0756700F568E5684567602E9006CAE0C39568FFE49567FE74B72FF582F6
:4030800074073EF583E0FD74EA2FF58274013EF583EDF0E56815687002156780CC9006CAE024EAF582E43401F5837404F090021904F0A314F0E4F567F568C3E5689402E5C6
:4030C000679400400302318BE568AE677802C333CE33CED8F924D5F582740A3EF583E0FCA3E0FDA3E0FEA3E0FF74B92568F582740A3567F583E0F9F8127274C004C005C08A
:4031000006C007E568AE677803C333CE33CED8F9241BF58274023EF583D007D006D005D0041272D5E568AE677802C333CE33CED8F924DDF582740A3EF583E0FCA3E0FDA3A1
:40314000E0FEA3E0FF74B92568F582740A3567F583E0F9F8127274C004C005C006C007E568AE677803C333CE33CED8F9241FF58274023EF583D007D006D005D0041272D545
:403180000568E568700205670230BA756700856E68E5684567602CC3E56E9568FFE49567FE74D32FF58274073EF583E0FD742B2FF58274023EF583EDF0E568156870021545
:4031C0006780CE90024B7405F0A37402F0900AE9E0FCA3E0FDA3E0FEA3E0FF90024D1272D5900AEDE0FCA3E0FDA3E0FEA3E0FF9002511272D5E4F567F5687B017A0779F08C
:4032000012B7A6C3E5689FE5679E502674F02568F58274073567F583E0FF74552568F58274023567F583EFF00568E5687002056780C890027D7403F0A37401F0900AB4E078
:40324000FFA3E090027FCFF0A3EFF0756700856F68E5684567602CC3E56F9568FFE49567FE740B2FF58274083EF583E0FD74812FF58274023EF583EDF0E5681568700215A3
:403280006780CE9002AF7407F0A37401F0900AF2E0FCA3E0FDA3E0FEA3E0FF9002B11272D5756700857068E5684567602CC3E5709568FFE49567FE741F2FF58274083EF586
:4032C00083E0FD74B52FF58274023EF583EDF0E56815687002156780CE9002E17403F0A37401F0900AF6E0FFA3E09002E3CFF0A3EFF0756700857168E5684567602CC3E59F
:40330000719568FFE49567FE743F2FF58274083EF583E0FD74E52FF58274023EF583EDF0E56815687002156780CE9003137403F0A37401F0900AF8E0FFA3E0900315CFF05C
:40334000A3EFF0756700857268E5684567602CC3E5729568FFE49567FE74632FF58274083EF583E0FD74172FF58274033EF583EDF0E56815687002156780CEE4900345F09E
:40338000A304F0900AF1E0900347F0900AF1601F900A5574FFF0A3744EF0A374BBF07B017A08797B12AAE89006CA7425F0801D900A5574FFF0A3744EF0A374C1F07B017A4D
:4033C00008797B12AAE89006CA7424F09006CAE0756700F568E5684567602E9006CAE0C39568FFE49567FE747B2FF58274083EF583E0FD74482FF58274033EF583EDF0E573
:403400006815687002156780CC9006CAE02448F582E43403F5837404F0900377F0A37401F0900B04E0FFA3E0900379CFF0A3EFF0756700857368E5684567602CC3E573958E
:4034400068FFE49567FE74A02FF58274083EF583E0FD747B2FF58274033EF583EDF0E56815687002156780CEE49003A9F0A304F0900AFAE09003ABF0900AFA601F900A554E
:4034800074FFF0A3744EF0A374BBF07B017A0879B612AAE89006CA7427F0801D900A5574FFF0A3744EF0A374C1F07B017A0879B612AAE89006CA7426F09006CAE0756700F3
:4034C000F568E5684567602E9006CAE0C39568FFE49567FE74B62FF58274083EF583E0FD74AC2FF58274033EF583EDF0E56815687002156780CC9006CAE024ACF582E434B9
:4035000003F5837404F09003DB04F0A37401F0900AFBE0FCA3E0FDA3E0FEA3E0FF9003DD1272D5756700857868E5684567602CC3E5789568FFE49567FE74DD2FF58274084E
:403540003EF583E0FD74E12FF58274033EF583EDF0E56815687002156780CE90040D7405F0A37401F0900AFFE0FCA3E0FDA3E0FEA3E0FF90040F1272D5756700857968E580
:40358000684567602CC3E5799568FFE49567FE74002FF58274093EF583E0FD74132FF58274043EF583EDF0E56815687002156780CE90043F7402F0A314F0900B03E0900416
:4035C00041F0756700857A68E5684567602CC3E57A9568FFE49567FE741F2FF58274093EF583E0FD74422FF58274043EF583EDF0E56815687002156780CE756700857468E3
:40360000E5684567602CC3E5749568FFE49567FE742D2FF58274093EF583E0FD74712FF58274043EF583EDF0E56815687002156780CE756700857568E5684567602CC3E5B1
:40364000759568FFE49567FE74ED2FF58274093EF583E0FD74072FF58274053EF583EDF0E56815687002156780CE756700857768E5684567602CC3E5779568FFE49567FEF3
:4036800074612FF58274093EF583E0FD749D2FF58274053EF583EDF0E56815687002156780CE756700857668E5684567602CC3E5769568FFE49567FE74282FF582740A3EFC
:4036C000F583E0FD74332FF58274063EF583EDF0E56815687002156780CE7B017A0079239006C8E0A3E014FD12B3419006C8E0FCA3E0FD2422F58274003CF583EFF07B01B1
:403700007A007923E4900A57F012A36B12B88D22900BC7E0900B10F022900AB8E064036064E4FFFE7D807C47900BC7E0F8A3E0F9A3E0FAA3E0FB126AF1126D4E900B11126F
:4037400072D5E4FFFE7D807C47900BCBE0F8A3E0F9A3E0FAA3E0FB126AF1126D4E900B151272D5E4FFFE7D807C47900BCFE0F8A3E0F9A3E0FAA3E0FB126AF1126D4E900B3A
:40378000191272D522E4FFFE7D807C47900BC7E0F8A3E0F9A3E0FAA3E0FB126AF1126D4E900B291272D5E4FFFE7D807C47900BCBE0F8A3E0F9A3E0FAA3E0FB126AF1126D8A
:4037C0004E900B2D1272D5E4FFFE7D807C47900BCFE0F8A3E0F9A3E0FAA3E0FB126AF1126D4E900B311272D522900AB8E064036064E4FFFE7D807C47900BC7E0F8A3E0F9CB
:40380000A3E0FAA3E0FB126AF1126D4E900B1D1272D5E4FFFE7D807C47900BCBE0F8A3E0F9A3E0FAA3E0FB126AF1126D4E900B211272D5E4FFFE7D807C47900BCFE0F8A317
:40384000E0F9A3E0FAA3E0FB126AF1126D4E900B251272D522E4FFFE7D807C47900BC7E0F8A3E0F9A3E0FAA3E0FB126AF1126D4E900B351272D5E4FFFE7D807C47900BCB43
:40388000E0F8A3E0F9A3E0FAA3E0FB126AF1126D4E900B391272D5E4FFFE7D807C47900BCFE0F8A3E0F9A3E0FAA3E0FB126AF1126D4E900B3D1272D522900BC7E060079032
:4038C0000B437403F022E4900B43F022900BC7E0900B44F022900BC7E0900B45F022E4F567F568C3E5689403E56794004003023C8074C72568F582740B3567F583E0FF746C
:40390000462568F582740B3567F583EFF00568E5687002056780CCE4F567F568C3E5689403E567940040030239BFE56825E0FFE56733FE74C72FF582740B3EF583E0FEA321
:40394000E0FFEE3395E0FDFCC004C005C006C007E568AE677802C333CE33CED8F9FBAA062449F582740B3AF583D007D006D005D0041272D574492BF582740B3AF583C0830F
:40398000C082E0FCA3E0FDA3E0FEA3E0FF74462568F582740B3567F583E0F9F8127288D082D0831272D5746E2568F582740C3567F583E4F00568E5687002056702391CD22B
:4039C0000D22E4F567F568C3E5689403E56794004003023C80E568AE677802C333CE33CED8F924C7F582740B3EF583E0FCA3E0FDA3E0FEA3E0FFC004C005C006C007E568A8
:403A0000AE677802C333CE33CED8F92455F582740B3EF583D007D006D005D0041272D50568E56870020567809E900BC7E0900B61F022E4F567F568C3E5689402E567940064
:403A40004003023C80E568AE677803C333CE33CED8F924C7F582740B3EF583E0FCA3E0FDA3E0FEA3E0FFC004C005C006C007E568AE677802C333CE33CED8F92462F58274E3
:403A80000B3EF583D007D006D005D0041272D5E568AE677803C333CE33CED8F924CBF582740B3EF583E0FCA3E0FDA3E0FEA3E0FFC004C005C006C007E568AE677802C33341
:403AC000CE33CED8F9FBAA06246AF582740B3AF583D007D006D005D0041272D574622BF582740B3AF583C083C082E0FCA3E0FDA3E0FEA3E0FF74462568F582740B3567F53B
:403B000083E0F9F8127288D082D0831272D5E568AE677802C333CE33CED8F9246AF582740B3EF583C083C082E0FCA3E0FDA3E0FEA3E0FF74462568F582740B3567F583E066
:403B4000F9F8127288D082D0831272D50568E56870020567023A37900BC7E0FCA3E0FDA3E0FEA3E0FF9006CB1272D5E4FFFEFDFC9006CBE0F8A3E0F9A3E0FAA3E0FBD31255
:403B8000723A50149006CBE0FCA3E0FDA3E0FEA3E0FF900B761272D5900BCBE0FCA3E0FDA3E0FEA3E0FF9006CB1272D5E4FFFEFDFC9006CBE0F8A3E0F9A3E0FAA3E0FBC3FF
:403BC00012723A5003023C809006CBE0FCA3E0FDA3E0FEA3E0FF900B7A1272D522900BC7E0FFA3E0900B41CFF0A3EFF022900BC7E0FCA3E0FDA3E0FEA3E0FF900B7F127244
:403C0000D522900BC7E0FFA3E0900B83CFF0A3EFF022900BC7E0FFA3E0900B85CFF0A3EFF022900BC7E0900B7EF0E4900B87F022900BC7E0FFA3E0900B91CFF0A3EFF0224B
:403C4000900BC7E0900B87F0E4900B7EF022900BC7E0FCA3E0FDA3E0FEA3E0FF900B881272D522900BC7E0FCA3E0FDA3E0FEA3E0FF900B8C1272D522900BC7E0900B90F0C2
:403C8000229005FDEBF0A3EAF0A3E9F09005FDE0FBA3E0FAA3E0F8AC02AD037BFF7A4F790E127512900A5574FFF0A3744FF0A3740FF09005FDE0FBA3E0FAA3E0F912AAE88E
:403CC000900A5574FFF0A3744FF0A37412F09005FDE0FBA3E0FAA3E0F912AAE8900A5574FFF0A3744FF0A37425F09005FDE0FBA3E0FAA3E0F912AAE8900A5574FFF0A374B2
:403D00004FF0A37435F09005FDE0FBA3E0FAA3E0F912AAE8900A5574FFF0A3744FF0A3743BF09005FDE0FBA3E0FAA3E0F912AAE8900A5574FFF0A3744FF0A37449F0900A78
:403D400083E0FF900A58E4F0A3EFF07B017A06790012760C900A557401F0A37406F0A37400F09005FDE0FBA3E0FAA3E0F912AAE8900A5574FFF0A3744FF0A37452F0A3E496
:403D8000F0A37403F07B017A06790012760C900A557401F0A37406F0A37400F09005FDE0FBA3E0FAA3E0F912AAE8900A5574FFF0A3744FF0A3746AF0900B04E0FFA3E090E4
:403DC0000A58CFF0A3EFF07B017A06790012760C900A557401F0A37406F0A37400F09005FDE0FBA3E0FAA3E0F912AAE8900A5574FFF0A3744FF0A3747FF0900C7DE0FF90EF
:403E00000A58E4F0A3EFF07B017A06790012760C900A557401F0A37406F0A37400F09005FDE0FBA3E0FAA3E0F912AAE8900A5574FFF0A3744FF0A3740FF09005FDE0FBA381
:403E4000E0FAA3E0F912AAE8900A5574FFF0A3744FF0A3748FF09005FDE0FBA3E0FAA3E0F912AAE8900A5574FFF0A3744FF0A3749CF09005FDE0FBA3E0FAA3E0F912AAE8AB
:403E8000E4F567F568C3E5689402E567648094805079900A5574FFF0A3744FF0A374AFF0E568AE677802C333CE33CED8F924BBF582740B3EF583E0FCA3E0FDA3E0FEA3E0F7
:403EC000FF74B92568F582740A3567F583E0F9F8127274900A58EEF0A3EFF07B017A06790012760C900A557401F0A37406F0A37400F09005FDE0FBA3E0FAA3E0F912AAE86A
:403F00000568E56870020567023E85900A5574FFF0A3744FF0A3740FF09005FDE0FBA3E0FAA3E0F912AAE8900A5574FFF0A3744FF0A374B3F07B017A06790012760C900B56
:403F4000C3E054036019900A5574FFF0A3744FF0A374C3F07B017A06790012AAE88017900A5574FFF0A3744FF0A374C9F07B017A06790012AAE8900A557401F0A37406F0BA
:403F8000A37400F09005FDE0FBA3E0FAA3E0F912AAE8900A5574FFF0A3744FF0A374CEF09005FDE0FBA3E0FAA3E0F912AAE8900A5574FFF0A3744FF0A374E4F09005FDE064
:403FC000FBA3E0FAA3E0F912AAE8E4F567F568C3E5689403E567648094804003024083900A5574FFF0A3744FF0A374F4F0E5682401900A59F0E43567900A58F0E568AE67DD
:404000007802C333CE33CED8F92494F582740B3EF583E0FCA3E0FDA3E0FEA3E0FF74B92568F582740A3567F583E0F9F8127274900A5AEEF0A3EFF07B017A06790012760CC4
:40404000900A557401F0A37406F0A37400F09005FDE0FBA3E0FAA3E0F912AAE8900A5574FFF0A3744FF0A3740FF09005FDE0FBA3E0FAA3E0F912AAE80568E568700205676E
:40408000023FCF900A5574FFF0A3744FF0A374FDF0900BB7E0FCA3E0FDA3E0FEA3E0FF900A581272D57B017A06790012760C900A557401F0A37406F0A37400F09005FDE065
:4040C000FBA3E0FAA3E0F912AAE8900A5574FFF0A3744FF0A3740FF09005FDE0FBA3E0FAA3E0F912AAE8900A5574FFF0A37450F0A3740FF0900BA0E0FEA3E0FFEE3395E070
:40410000FDFC900A581272D57B017A06790012760C900A557401F0A37406F0A37400F09005FDE0FBA3E0FAA3E0F912AAE8900A5574FFF0A3744FF0A3740FF09005FDE0FB95
:40414000A3E0FAA3E0F912AAE8900A5574FFF0A37450F0A37423F0900BA2E0FEA3E0FFEE3395E0FDFC900A581272D57B017A06790012760C900A557401F0A37406F0A374D7
:4041800000F09005FDE0FBA3E0FAA3E0F912AAE8900A5574FFF0A3744FF0A3740FF09005FDE0FBA3E0FAA3E0F912AAE8900A5574FFF0A37450F0A37437F09005FDE0FBA346
:4041C000E0FAA3E0F912AAE8900A5574FFF0A37450F0A3744DF09005FDE0FBA3E0FAA3E0F912AAE8900AB8E0640370030242F1900A5574FFF0A37450F0A3745FF0900A8450
:40420000E0FCA3E0FDA3E0FEA3E0FFEC126D10E4FBFA79807847126BFA900A581272D57B017A06790012760C900A557401F0A37406F0A37400F09005FDE0FBA3E0FAA3E073
:40424000F912AAE8900A5574FFF0A37450F0A37469F0900A88E0FCA3E0FDA3E0FEA3E0FFEC126D10E4FBFA79807847126BFA900A581272D57B017A06790012760C900A5541
:404280007401F0A37406F0A37400F09005FDE0FBA3E0FAA3E0F912AAE8900A5574FFF0A37450F0A37473F0900A8CE0FCA3E0FDA3E0FEA3E0FFEC126D10E4FBFA79807847C7
:4042C000126BFA900A581272D57B017A06790012760C900A557401F0A37406F0A37400F09005FDE0FBA3E0FAA3E0F912AAE80243F0900A5574FFF0A37450F0A3745FF090AD
:404300000A9CE0FCA3E0FDA3E0FEA3E0FFEC126D10E4FBFA79807847126BFA900A581272D57B017A06790012760C900A557401F0A37406F0A37400F09005FDE0FBA3E0FA4F
:40434000A3E0F912AAE8900A5574FFF0A37450F0A37469F0900AA0E0FCA3E0FDA3E0FEA3E0FFEC126D10E4FBFA79807847126BFA900A581272D57B017A06790012760C9004
:404380000A557401F0A37406F0A37400F09005FDE0FBA3E0FAA3E0F912AAE8900A5574FFF0A37450F0A37473F0900AA4E0FCA3E0FDA3E0FEA3E0FFEC126D10E4FBFA79800E
:4043C0007847126BFA900A581272D57B017A06790012760C900A557401F0A37406F0A37400F09005FDE0FBA3E0FAA3E0F912AAE8900A5574FFF0A37450F0A3747DF09005FF
:40440000FDE0FBA3E0FAA3E0F912AAE8900AB8E064037003024519900A5574FFF0A37450F0A3745FF0900A90E0FCA3E0FDA3E0FEA3E0FFEC126D10E4FBFA79807847126B7A
:40444000FA900A581272D57B017A06790012760C900A557401F0A37406F0A37400F09005FDE0FBA3E0FAA3E0F912AAE8900A5574FFF0A37450F0A37469F0900A94E0FCA3B6
:40448000E0FDA3E0FEA3E0FFEC126D10E4FBFA79807847126BFA900A581272D57B017A06790012760C900A557401F0A37406F0A37400F09005FDE0FBA3E0FAA3E0F912AABB
:4044C000E8900A5574FFF0A37450F0A37473F0900A98E0FCA3E0FDA3E0FEA3E0FFEC126D10E4FBFA79807847126BFA900A581272D57B017A06790012760C900A557401F0F5
:40450000A37406F0A37400F09005FDE0FBA3E0FAA3E0F912AAE8024618900A5574FFF0A37450F0A3745FF0900AA8E0FCA3E0FDA3E0FEA3E0FFEC126D10E4FBFA7980784741
:40454000126BFA900A581272D57B017A06790012760C900A557401F0A37406F0A37400F09005FDE0FBA3E0FAA3E0F912AAE8900A5574FFF0A37450F0A37469F0900AACE0BF
:40458000FCA3E0FDA3E0FEA3E0FFEC126D10E4FBFA79807847126BFA900A581272D57B017A06790012760C900A557401F0A37406F0A37400F09005FDE0FBA3E0FAA3E0F9D7
:4045C00012AAE8900A5574FFF0A37450F0A37473F0900AB0E0FCA3E0FDA3E0FEA3E0FFEC126D10E4FBFA79807847126BFA900A581272D57B017A06790012760C900A557411
:4046000001F0A37406F0A37400F09005FDE0FBA3E0FAA3E0F912AAE8900A5574FFF0A3744FF0A3740FF09005FDE0FBA3E0FAA3E0F912AAE8900AB6E0B4031E900A5574FF3C
:40464000F0A37450F0A37497F09005FDE0FBA3E0FAA3E0F912AAE8801C900A5574FFF0A37450F0A374B1F09005FDE0FBA3E0FAA3E0F912AAE8900AB7E014602104703A9040
:404680000A5574FFF0A37450F0A374CAF09005FDE0FBA3E0FAA3E0F912AAE8801C900A5574FFF0A37450F0A374DCF09005FDE0FBA3E0FAA3E0F912AAE8900A5574FFF0A3DF
:4046C0007450F0A374F3F09005FDE0FBA3E0FAA3E0F912AAE8900AB8E014602814604314605E24037076900A5574FFF0A37451F0A37402F09005FDE0FBA3E0FAA3E0F91273
:40470000AAE88058900A5574FFF0A37451F0A3740DF09005FDE0FBA3E0FAA3E0F912AAE8803A900A5574FFF0A37451F0A37413F09005FDE0FBA3E0FAA3E0F912AAE8801C23
:40474000900A5574FFF0A37451F0A3741DF09005FDE0FBA3E0FAA3E0F912AAE8900A5574FFF0A37451F0A37434F09005FDE0FBA3E0FAA3E0F912AAE8E4F567F568C3E568C5
:404780009403E56764809480507F900A5574FFF0A3744FF0A374F4F0E5682401900A59F0E43567900A58F074B92568F582740A3567F583E0FF900A5AE4F0A3EFF07B017A13
:4047C00006790012760C900A557401F0A37406F0A37400F09005FDE0FBA3E0FAA3E0F912AAE8900A5574FFF0A3744FF0A3740FF09005FDE0FBA3E0FAA3E0F912AAE80568FF
:40480000E5687002056702477D900A5574FFF0A37451F0A37449F09005FDE0FBA3E0FAA3E0F912AAE8E4F567F568C3E5689403E5676480948040030248DC900A5574FFF040
:40484000A37451F0A3745FF0E5682401900A59F0E43567900A58F0E568AE677802C333CE33CED8F924BCF582740A3EF583E0FCA3E0FDA3E0FEA3E0FF74B92568F582740AB8
:404880003567F583E0F9F8127274900A5A1272D57B017A06790012760C900A557401F0A37406F0A37400F09005FDE0FBA3E0FAA3E0F912AAE8900A5574FFF0A3744FF0A308
:4048C000740FF09005FDE0FBA3E0FAA3E0F912AAE80568E5687002056702482A900A5574FFF0A37451F0A37469F09005FDE0FBA3E0FAA3E0F912AAE8E4F567F568C3E5685E
:404900009403E56764809480400302499D900A5574FFF0A37451F0A37483F0E5682401900A59F0E43567900A58F0E568AE677802C333CE33CED8F924C8F582740A3EF5837D
:40494000E0FCA3E0FDA3E0FEA3E0FF900A5A1272D57B017A06790012760C900A557401F0A37406F0A37400F09005FDE0FBA3E0FAA3E0F912AAE8900A5574FFF0A3744FF068
:40498000A3740FF09005FDE0FBA3E0FAA3E0F912AAE80568E568700205670248FD900A5574FFF0A37451F0A3748CF09005FDE0FBA3E0FAA3E0F912AAE8900A5574FFF0A3BC
:4049C0007451F0A374C2F0900AF2E0FCA3E0FDA3E0FEA3E0FF900A581272D57B017A06790012760C900A557401F0A37406F0A37400F09005FDE0FBA3E0FAA3E0F912AAE888
:404A0000900A5574FFF0A3744FF0A3740FF09005FDE0FBA3E0FAA3E0F912AAE8900A5574FFF0A37451F0A374C5F09005FDE0FBA3E0FAA3E0F912AAE8900A5574FFF0A374C5
:404A400051F0A374D8F0900AF6E0FFA3E0900A58CFF0A3EFF07B017A06790012760C900A557401F0A37406F0A37400F09005FDE0FBA3E0FAA3E0F912AAE8900A5574FFF024
:404A8000A3744FF0A3740FF09005FDE0FBA3E0FAA3E0F912AAE8900A5574FFF0A37451F0A374DCF09005FDE0FBA3E0FAA3E0F912AAE8900A5574FFF0A37451F0A374D8F060
:404AC000900AF8E0FFA3E0900A58CFF0A3EFF07B017A06790012760C900A557401F0A37406F0A37400F09005FDE0FBA3E0FAA3E0F912AAE8900A5574FFF0A37451F0A37453
:404B0000E8F09005FDE0FBA3E0FAA3E0F912AAE8900A5574FFF0A37451F0A374ECF0900B61E0FF900A58E4F0A3EFF07B017A06790012760C900A557401F0A37406F0A37452
:404B400000F09005FDE0FBA3E0FAA3E0F912AAE8900A5574FFF0A3744FF0A3740FF09005FDE0FBA3E0FAA3E0F912AAE8E4F567F568C3E5689402E567648094804003024C5B
:404B800073900A5574FFF0A37452F0A37406F0E5682401900A59F0E43567900A58F0E568AE677802C333CE33CED8F92462F582740B3EF583E0FCA3E0FDA3E0FEA3E0FF749C
:404BC000462568F582740B3567F583E0F9F8127274900A5A1272D57B017A06790012760C900A557401F0A37406F0A37400F09005FDE0FBA3E0FAA3E0F912AAE8900A5574E4
:404C0000FFF0A37452F0A3742CF0E568AE677802C333CE33CED8F9246AF582740B3EF583E0FCA3E0FDA3E0FEA3E0FF74462568F582740B3567F583E0F9F8127274900A58E2
:404C40001272D57B017A06790012760C900A557401F0A37406F0A37400F09005FDE0FBA3E0FAA3E0F912AAE80568E56870020567024B71900A5574FFF0A37452F0A374390F
:404C8000F0900B72E0FEA3E0FF900B46E0FDEFA805088006CEA2E713CE13D8F8FF900A58EEF0A3EFF07B017A06790012760C900A557401F0A37406F0A37400F09005FDE060
:404CC000FBA3E0FAA3E0F912AAE8900A5574FFF0A3744FF0A3740FF09005FDE0FBA3E0FAA3E0F912AAE8900A5574FFF0A37452F0A3744BF0900B41E0FFA3E0900A58CFF068
:404D0000A3EFF07B017A06790012760C900A557401F0A37406F0A37400F09005FDE0FBA3E0FAA3E0F912AAE8900A5574FFF0A3744FF0A3740FF09005FDE0FBA3E0FAA3E04B
:404D4000F912AAE8900AF1E0601E900A5574FFF0A37452F0A3745DF09005FDE0FBA3E0FAA3E0F912AAE8801C900A5574FFF0A37452F0A37484F09005FDE0FBA3E0FAA3E055
:404D8000F912AAE8900AFAE0601E900A5574FFF0A37452F0A374AAF09005FDE0FBA3E0FAA3E0F912AAE8801C900A5574FFF0A37452F0A374DAF09005FDE0FBA3E0FAA3E069
:404DC000F912AAE8300C1E900A5574FFF0A37453F0A37409F09005FDE0FBA3E0FAA3E0F912AAE8801C900A5574FFF0A37453F0A37424F09005FDE0FBA3E0FAA3E0F912AA61
:404E0000E8300B1E900A5574FFF0A37453F0A3743EF09005FDE0FBA3E0FAA3E0F912AAE8801C900A5574FFF0A37453F0A37462F09005FDE0FBA3E0FAA3E0F912AAE8900AE1
:404E40005574FFF0A37453F0A37485F0900BB3E0F8A3E0F9A3E0FAA3E0FB900C52E0FCA3E0FDA3E0FEA3E0C39BFFEE9AFEED99FDEC98FC900A581272D57B017A06790012F1
:404E8000760C900A557401F0A37406F0A37400F09005FDE0FBA3E0FAA3E0F912AAE8900A5574FFF0A3744FF0A3740FF09005FDE0FBA3E0FAA3E0F912AAE822205945530003
:404EC00000204E4F000020557362000020456E636F6465722033000020506F736974696F6E00002050574D00002043757272656E74000020506F736974696F6E20616E6424
:404F00002063757272656E74000020256400000D0A004669726D776172652076657273696F6E3A200043554646204D4F442076362E312E31002E0D0A0D0A0044455649435C
:404F40004520494E464F0D0A0049443A2025640D0A004E756D626572206F662073656E736F72733A2025640D0A00537570706C792074656E73696F6E3A2025640D0A005086
:404F8000574D204C696D69743A2025640D0A004D4F544F5220494E464F0D0A004D6F746F72207265666572656E6365733A2000256420004D6F746F7220656E61626C6564EE
:404FC0003A20005945530D0A004E4F0D0A000D0A4D4541535552454D454E545320494E464F0D0A0053656E736F722076616C75653A0D0A002564202D3E20256400566F6C92
:405000007461676520286D56293A20256C640043757272656E74203120286D41293A20256C640043757272656E74203220286D41293A20256C64000D0A4445564943452020
:40504000504152414D45544552530D0A0050494420436F6E74726F6C6C65723A0D0A0050202D3E2025660D0A0049202D3E2025660D0A0044202D3E2025660D0A00437572C5
:4050800072656E742050494420436F6E74726F6C6C65723A0D0A00537461727475702061637469766174696F6E3A205945530D0A00537461727475702061637469766174FF
:4050C000696F6E3A204E4F0D0A00496E707574206D6F64653A205553420D0A00496E707574206D6F64653A2053656E736F7220330D0A00436F6E74726F6C204D6F64653A59
:405100002000506F736974696F6E0D0A0050574D0D0A0043757272656E740D0A00506F736974696F6E20616E642063757272656E740D0A0053656E736F72207265736F6C3D
:405140007574696F6E3A0D0A004D6561737572656D656E74204F66667365743A0D0A002564202D3E20256C64004D6561737572656D656E74204D756C7469706C6965723A21
:405180000D0A002564202D3E202566000A43757272656E7420636F6E74726F6C6C6572277320706172616D65746572733A0A50726F706F7274696F6E616C206761696E3A94
:4051C000200025660053617475726174696F6E2076616C75653A20002568640044656164207A6F6E653A20000D0A0A00506F736974696F6E206C696D6974206163746976C2
:40520000653A20256400506F736974696F6E206C696D6974206D6F746F722025643A20696E66202D3E20256C64202000737570202D3E20256C640D0A004D6178207374697C
:4052400066666E6573733A2025640043757272656E74206C696D69743A202564004375666620737461727475702061637469766174696F6E2028666F726365293A20594540
:40528000530D0A004375666620737461727475702061637469766174696F6E2028666F726365293A204E4F0D0A004375666620737461727475702061637469766174696F52
:4052C0006E202870726F7072696F63657074696F6E293A205945530D0A004375666620737461727475702061637469766174696F6E202870726F7072696F63657074696F90
:405300006E293A204E4F0D0A0043756666206163746976652028666F726365293A205945530D0A0043756666206163746976652028666F726365293A204E4F0D0A00437560
:40534000666620616374697665202870726F7072696F63657074696F6E293A205945530D0A004375666620616374697665202870726F7072696F63657074696F6E293A200D
:405380004E4F0D0A0064656275673A20256C6400000000000000000000000000000000000000000000000000000000000000000000000000000000000000000000000000E3
:4053C00000000000000000000000000000000000000000000000000000000000000000000000000000000000000000000000000000000000000000000000000000000000AD
:40540000000000000000000000000000000000000000000000000000000000000000000000000000000000000000000000000000000000000000000000000000000000006C
:40544000000000000000000000000000000000000000000000000000000000000000000000000000000000000000000000000000000000000000000000000000000000002C
:4054800000000000000000000000000000000000000000000000000000000000000000000000000000000000000000000000000000000000000000000000000000000000EC
:4054C00000000000000000000000000000000000000000000000000000000000000000000000000000000000000000000000000000000000000000000000000000000000AC
:40550000000000000000000000000000000000000000000000000000000000000000000000000000000000000000000000000000000000000000000000000000000000006B
:40554000000000000000000000000000000000000000000000000000000000000000000000000000000000000000000000000000000000000000000000000000000000002B
:4055800000000000000000000000000000000000000000000000000000000000000000000000000000000000000000000000000000000000000000000000000000000000EB
:4055C00000000000000000000000000000000000000000000000000000000000000000000000000000000000000000000000000000000000000000000000000000000000AB
:40560000000000000000000000000000000000000000000000000000000000000000000000000000000000000000000000000000000000000000000000000000000000006A
:40564000000000000000000000000000000000000000000000000000000000000000000000000000000000000000000000000000000000000000000000000000000000002A
:4056800000000000000000000000000000000000000000000000000000000000000000000000000000000000000000000000000000000000000000000000000000000000EA
:4056C00000000000000000000000000000000000000000000000000000000000000000000000000000000000000000000000000000000000000000000000000000000000AA
:405700000000000000000000000000000000000000000000000000000000000000000000000000000000000000000000000000000000000000000000000000000000000069
:405740000000000000000000000000000000000000000000000000000000000000000000000000000000000000000000000000000000000000000000000000000000000029
:4057800000000000000000000000000000000000000000000000000000000000000000000000000000000000000000000000000000000000000000000000000000000000E9
:4057C00000000000000000000000000000000000000000000000000000000000000000000000000000000000000000000000000000000000000000000000000000000000A9
:405800000000000000000000000000000000000000000000000000000000000000000000000000000000000000000000000000000000000000000000000000000000000068
:405840000000000000000000000000000000000000000000000000000000000000000000000000000000000000000000000000000000000000000000000000000000000028
:4058800000000000000000000000000000000000000000000000000000000000000000000000000000000000000000000000000000000000000000000000000000000000E8
:4058C00000000000000000000000000000000000000000000000000000000000000000000000000000000000000000000000000000000000000000000000000000000000A8
:405900000000000000000000000000000000000000000000000000000000000000000000000000000000000000000000000000000000000000000000000000000000000067
:405940000000000000000000000000000000000000000000000000000000000000000000000000000000000000000000000000000000000000000000000000000000000027
:4059800000000000000000000000000000000000000000000000000000000000000000000000000000000000000000000000000000000000000000000000000000000000E7
:4059C00000000000000000000000000000000000000000000000000000000000000000000000000000000000000000000000000000000000000000000000000000000000A7
:405A0000000000000000000000000000000000000000000000000000000000000000000000000000000000000000000000000000000000000031202D204465766963652058
:405A400049443A0032202D20506F736974696F6E20504944205B502C20492C20445D3A0033202D2043757272656E7420504944205B502C20492C20445D3A0034202D2053EC
:405A80007461727475702041637469766174696F6E3A000000000035202D20496E707574206D6F64653A00000000000000000000000036202D20436F6E74726F6C206D6FA9
:405AC00064653A0000000000000000000000000000000000000000000037202D205265736F6C7574696F6E733A0000000000000038202D204D6561737572656D656E7420D3
:405B00004F6666736574733A0039202D204D756C7469706C696572733A003130202D20506F732E206C696D6974206163746976653A00000000003131202D20506F732E2045
:405B40006C696D697473205B696E662C207375705D3A003132202D204D6178207374657073205B6E65672C20706F735D3A003133202D2043757272656E74206C696D69747E
:405B80003A003134202D2043757272656E742070726F706F7274696F6E616C206761696E3A003135202D2043757272656E7420646966666572656E63652073617475726123
:405BC00074696F6E3A003136202D2043757272656E742064656164207A6F6E653A003137202D20437566662061637469766174696F6E20666C616720666F7263653A000068
:405C00000000003138202D20506F7765722074656E73696F6E3A0000003139202D20437566662061637469766174696F6E20666C61672070726F7072696F3A00000000005B
:405C40003230202D204D617820736C696465206D6F76656D656E74202870726F7072696F293A003231202D204D617820534820636C6F73757265202870726F7072696F2973
:405C80003A003232202D2048616E642049443A0030202D3E205573620A31202D3E205368616674277320706F736974696F6E20636F6E74726F6C7320746865206D6F746F93
:405CC00072730A0030202D3E205B31207475726E5D0A31202D3E205B32207475726E735D0A32202D3E205B34207475726E735D0A33202D3E205B38207475726E735D0A343B
:405D0000202D3E205B3136207475726E735D0A35202D3E205B3332207475726E5D0A36202D3E205B3634207475726E5D0A37202D3E205B313238207475726E735D0A38205A
:405D40002D3E205B323536207475726E735D0A0030202D3E20506F736974696F6E0A31202D3E2050574D0A32202D3E2043757272656E740A33202D3E20506F736974696F3A
:405D80006E2D43757272656E740A0030202D3E2044656163746976617465205B4E4F5D0A31202D3E204163746976617465205B5945535D0A008F23E4F52BF52AF529F52817
:405DC000900A84E0FCA3E0FDA3E0FEA3E0F5378E368D358C34A3E0FCA3E0FDA3E0FEA3E0F53B8E3A8D398C38A3E0FCA3E0FDA3E0FEA3E0F53F8E3E8D3D8C3CA3E0FCA3E097
:405E0000FDA3E0FEA3E0F5438E428D418C40A3E0FCA3E0FDA3E0FEA3E0F5478E468D458C44A3E0FCA3E0FDA3E0FEA3E0F54B8E4A8D498C48A3E0FCA3E0FDA3E0FEA3E0F54D
:405E40004F8E4E8D4D8C4CA3E0FCA3E0FDA3E0FEA3E0F5538E528D518C50A3E0FCA3E0FDA3E0FEA3E0F5578E568D558C54A3E0FCA3E0FDA3E0FEA3E0F55B8E5A8D598C5866
:405E8000A3E0FCA3E0FDA3E0FEA3E0F55F8E5E8D5D8C5CA3E0FCA3E0FDA3E0FEA3E0F5638E628D618C60E523C394024003026AF0900AB8E0147003026937147003026667F7
:405EC000147003026177240360030269A1E52325E025E0245EF582E4340CF583E0F8A3E0F9A3E0FAA3E0FBE52325E025E02406F582E4340BF583E0FCA3E0FDA3E0FEA3E007
:405F0000C39BF52FEE9AF52EED99F52DEC98F52C300F05C20F129651E52325E025E0240CF582E4340DF583C083C082E0FCA3E0FDA3E0FEA3E0252FFFEE352EFEED352DFDB0
:405F4000EC352CFCD082D0831272D5E52325E025E0240CF582E4340DF583E0FCA3E0FDA3E0FEA3E0FF7BA07A8679017800C312723A501C7FA07E867D017C00E52325E025DC
:405F8000E0240CF582E4340DF5831272D58042E52325E025E0240CF582E4340DF583E0FCA3E0FDA3E0FEA3E0FF7B607A7979FE78FFD312723A401A7F607E797DFE7CFFE595
:405FC0002325E025E0240CF582E4340DF5831272D5300F05C20F129651E4F52BF52AF529F528FFFEFDFCAB37AA36A935A834C312723A606AE4FFFE7D02FCAB2FAA2EA92DCA
:40600000A82CD312723A500FE4FFFE7DFE7CFFA82CC312723A5027AF2FAE2EAD2DAC2C7808127274AB37AA36A935A83412710278081272748F2B8E2A8D298C288020AF2F42
:40604000AE2EAD2DAC2CAB37AA36A935A83412710278101272748F2B8E2A8D298C28300F05C20F129651E4FFFEFDFCAB3BAA3AA939A838C312723A6043AF3BAE3AAD39AC39
:40608000387806127274E52325E025E0240CF582E4340DF583E0F8A3E0F9A3E0FAA3E0FB127102780A127274E52B2FF52BE52A3EF52AE5293DF529E5283CF528E4FFFEFD16
:4060C000FCAB3FAA3EA93DA83CC312723A6063E52325E025E0245EF582E4340CF583E0F8A3E0F9A3E0FAA3E0FBE52325E025E02494F582E4340BF583E0FCA3E0FDA3E0FE15
:40610000A3E0C39BFFEE9AFEED99FDEC98FCAB3FAA3EA93DA83C1271027810127274E52B2FF52BE52A3EF52AE5293DF529E5283CF528300F05C20F129651E523701CFFFE1C
:40614000FDFCAB2BAA2AA929A828C312723A4005D2110269A1C2110269A1E4FFFEFDFCAB2BAA2AA929A828C312723A4005D2120269A1C2120269A1E52325E025E0245EF501
:4061800082E4340CF583E0F8A3E0F9A3E0FAA3E0FBE52325E025E02406F582E4340BF583E0FCA3E0FDA3E0FEA3E0C39BF52FEE9AF52EED99F52DEC98F52CE52325E025E038
:4061C000240CF582E4340DF583C083C082E0FCA3E0FDA3E0FEA3E0252FFFEE352EFEED352DFDEC352CFCD082D0831272D5300F05C20F129651E52325E025E0240CF582E496
:40620000340DF583E0FCA3E0FDA3E0FEA3E0FF7BA07A8679017800C312723A501C7FA07E867D017C00E52325E025E0240CF582E4340DF5831272D58042E52325E025E02488
:406240000CF582E4340DF583E0FCA3E0FDA3E0FEA3E0FF7B607A7979FE78FFD312723A401A7F607E797DFE7CFFE52325E025E0240CF582E4340DF5831272D5E4F527F52662
:40628000F525F524300F05C20F129651E4FFFEFDFCAB4FAA4EA94DA84CC312723A6026AF2FAE2EAD2DAC2CA84C1271027810127274E5272FF527E5263EF526E5253DF5255F
:4062C000E5243CF524E4FFFEFDFCAB53AA52A951A850C312723A6038E52325E025E0240CF582E4340DF583E0FCA3E0FDA3E0FEA3E0FFA8501271027810127274E5272FF57F
:4063000027E5263EF526E5253DF525E5243CF524E4FFFEFDFCAB57AA56A955A854C312723A6063E52325E025E0245EF582E4340CF583E0F8A3E0F9A3E0FAA3E0FBE52325D6
:40634000E025E02494F582E4340BF583E0FCA3E0FDA3E0FEA3E0C39BFFEE9AFEED99FDEC98FCAB57AA56A955A8541271027810127274E5272FF527E5263EF526E5253DF530
:4063800025E5243CF524300F05C20F129651900AB4E0FEA3E0FFEE3395E0FDFCAB27AA26A925A824D312723A4016900AB4E0FEA3E0FFEE3395E08F278E26F525F524803C4F
:4063C000900AB4E0FEA3E0FFC3E49FFFE49EFE3395E0FDFCAB27AA26A925A824C312723A501A900AB4E0FEA3E0FFC3E49FFFE49EFE3395E08F278E26F525F524300F05C2A4
:406400000F129651E52325E0246AF582E4340CF583E0FEA3E0FFFBAA06EA3395E0F9F8C3E5279BF533E5269AF532E52599F531E52498F530E52325E025E02414F582E43452
:406440000DF583C083C082E0FCA3E0FDA3E0FEA3E02533FFEE3532FEED3531FDEC3530FCD082D0831272D5E52325E025E02414F582E4340DF583E0FCA3E0FDA3E0FEA3E0AF
:40648000FF7BA07A8679017800C312723A501C7FA07E867D017C00E52325E025E02414F582E4340DF5831272D58042E52325E025E02414F582E4340DF583E0FCA3E0FDA3F0
:4064C000E0FEA3E0FF7B607A7979FE78FFD312723A401A7F607E797DFE7CFFE52325E025E02414F582E4340DF5831272D5300F05C20F129651E4F52BF52AF529F528FFFEA9
:40650000FDFCAB5BAA5AA959A858C312723A6026AF33AE32AD31AC30A8581271027810127274E52B2FF52BE52A3EF52AE5293DF529E5283CF528E4FFFEFDFCAB5FAA5EA99F
:406540005DA85CC312723A6038E52325E025E02414F582E4340DF583E0FCA3E0FDA3E0FEA3E0FFA85C1271027810127274E52B2FF52BE52A3EF52AE5293DF529E5283CF569
:4065800028E4FFFEFDFCAB63AA62A961A860C312723A6064E52325E0246AF582E4340CF583E0FEA3E0FFFBAA06EA3395E0F9F8E52325E025E02404F582E4340DF583E0FC02
:4065C000A3E0FDA3E0FEA3E0C39BFFEE9AFEED99FDEC98FCAB63AA62A961A8601271027810127274E52B2FF52BE52A3EF52AE5293DF529E5283CF528E52325E0246AF58254
:40660000E4340CF583E0FEA3E0FFEE3395E0FDFCE52325E025E02404F582E4340DF5831272D5300F05C20F129651E523701CFFFEFDFCAB2BAA2AA929A828C312723A40057E
:40664000D2110269A1C2110269A1E4FFFEFDFCAB2BAA2AA929A828C312723A4005D2120269A1C2120269A1E52325E025E02406F582E4340BF583E0FCA3E0FDA3E0FEA3E0E2
:40668000FF74462523F582E4340BF583E0F9F81272748F278E268D258C24900AB4E0FEA3E0FFEE3395E0FDFCAB27AA26A925A824D312723A4014900AB4E0FEA3E0FFEE3305
:4066C00095E08F278E26F525F524AE26AF2712B9E6E52325E0246AF582E4340CF583E0FCA3E0FDC3EF9DFFEE9CFE3395E08F338E32F531F530E52325E025E02414F582E433
:40670000340DF583C083C082E0FCA3E0FDA3E0FEA3E02533FFEE3532FEED3531FDEC3530FCD082D0831272D5E52325E025E02414F582E4340DF583E0FCA3E0FDA3E0FEA398
:40674000E0FF7BA07A8679017800C312723A501C7FA07E867D017C00E52325E025E02414F582E4340DF5831272D5803CE52325E025E02414F582E4340DF583E0FCA3E0FDF6
:40678000A3E0FEA3E0FFE4FBFAF9F8D312723A4017E4FFFEFDFCE52325E025E02414F582E4340DF5831272D5E4F52BF52AF529F528FFFEFDFCAB43AA42A941A840C312724C
:4067C0003A602CAF33AE32AD31AC30AB37AA36A935A8341271027810127274E52B2FF52BE52A3EF52AE5293DF529E5283CF528E4FFFEFDFCAB47AA46A945A844C312723A25
:40680000603DE52325E025E02414F582E4340DF583E0FCA3E0FDA3E0FEA3E0FF7806127274A844127102780A127274E52B2FF52BE52A3EF52AE5293DF529E5283CF528E41F
:40684000FFFEFDFCAB4BAA4AA949A848C312723A6064E52325E0246AF582E4340CF583E0FEA3E0FFFBAA06EA3395E0F9F8E52325E025E02404F582E4340DF583E0FCA3E028
:40688000FDA3E0FEA3E0C39BFFEE9AFEED99FDEC98FCAB4BAA4AA949A8481271027810127274E52B2FF52BE52A3EF52AE5293DF529E5283CF528E4FFFEFDFCAB2BAA2AA959
:4068C00029A828C312723A5009E4F52BF52AF529F528E52325E0246AF582E4340CF583E0FEA3E0FFEE3395E0FDFCE52325E025E02404F582E4340DF5831272D5E523701C8F
:40690000FFFEFDFCAB2BAA2AA929A828C312723A4005D2110269A1C2110269A1E4FFFEFDFCAB2BAA2AA929A828C312723A4004D212806EC212806AE52325E025E02406F5D5
:4069400082E4340BF583E0FCA3E0FDA3E0FEA3E0FF74462523F582E4340BF583E0F9F81272748F2B8E2A8D298C28E523701AFFFEFDFCAB2BAA2AA929A828C312723A400449
:40698000D211801DC2118019E4FFFEFDFCAB2BAA2AA929A828C312723A4004D2128002C212300F05C20F129651E47F64FEFDFCAB2BAA2AA929A828D312723A400AE4752B4F
:4069C00064F52AF529F52874FF7F9CFEFDFCAB2BAA2AA929A828C312723A500B74FF752B9CF52AF529F528300F05C20F129651900AB8E064016037AF2BAE2AAD29AC287813
:406A00000A127288E47B64FAF9F812AFDAA804A905AA06AB07900C7DE0FFE4FCFDFE127102780A1272748F2B8E2A8D298C283011113012077F0312BB7480167F0112BB74D8
:406A4000800F3012077F0212BB748005E4FF12BB74300F05C20F129651E5237046FFFEFDFCAB2BAA2AA929A828D312723A40067E007F01801DE4FFFEFDFCAB2BAA2AA929FD
:406A8000A828C312723A50067EFF7FFF80047E007F00900C5CEFF0AE2AAF2B12B9E612BB028045E4FFFEFDFCAB2BAA2AA929A828D312723A40067E007F01801DE4FFFEFD6F
:406AC000FCAB2BAA2AA929A828C312723A50067EFF7FFF80047E007F00900C5DEFF0AE2AAF2B12B9E612BB08300F05C20F12965122EC4D6011E8497017ED33EC3304600DA9
:406B0000E4FCFFFEFD22E933E8330470F8026DBA126D8558046009E4CC24815006285009026DC4284003026DC1C0E0EB4A7044B98006D0E0FB026DB0EF4E701CBD8008EB3F
:406B4000FFEAFEE9FD80EBE98DF0A4FEE5F0026BDAE9CDF9EAFEEBFFEF89F0A4FCE5F0CE89F0A42EFFE435F0CD89F0A42DFEE435F08067EF4E7005BD80D780C3EF8BF0A41E
:406B8000ACF0EE8BF0A42CFCE435F0F8EF8AF0A42CE5F038FCE433CB8DF0A42CFCE5F03BF8EE8AF0A42CFCE5F038F8E433CF89F0A42CFCE5F038CF3400CE89F0A42FFFE51C
:406BC000F03EFEE433C98DF0A42EFEE5F039CD8AF0A42FFFE5F03EFEE43DFD33D0E0FB50070BBB000F026DC4EC2CFCEF33FFEE33FEED33FD026D9C026DC4EC5D046005E860
:406C000059047003026DBA126D85580460F6EC4860F2EC7004FDFEFF22C860DB2481C85009C39860025006026DC19850CAF582E9294B4A7005AB82026DB075F0007C1A7893
:406C400080C3EF9BEE9AED99400DC3EF9BFFEE9AFEED99FDE842F0DC23ACF0D0E0FFD0E0FED0E0FDAB8220E7101BEB60BAEC2CFCEF33FFEE33FEED33FD026D9CE803F830E5
:406C8000E705C0F075F000EF2FFFEE33FEED33FD40B830E7C280AA74F8CC6480CCC86480C8F58204604FC3EB9FF5F0EA9E42F0E99D42F0E89C45F0603C501DE5825FFFE5E9
:406CC00082D313CB5BCBF42B5582FB50280ABA002409B9002008801DE5825BFBE582D313CF5FCFF4C3132F5582FF50090EBE00050DBD00010CC3EB9FF5F0EA9E42F0E99D1A
:406D000042F0E89C45F06007CC4820E701B3EC2275F020800E75F010800575F0087D007E007F003392D530D50312722CEC334010EF33FFEE33FEED33FDEC33FCD5F0ED2223
:406D4000E5F0247EA2D513CC92E7CDCEFF22EDD2E7CD33EC3392D524814006E4FFFEFDFC22FCE4CFCECDCC24E0501174FF80EDC3CC13CCCD13CDCE13CECF13CF0470F03094
:406D8000D5DE02722CE9D2E7C933E833F892D5EDD2E7CD33EC33FC5002B2D522EC30E7100FBF000C0EBE00080DBD00040BEB6014A2D5EB13FCED92E7FD2274FFFCFDFEFF54
:406DC00022E480F8A2D574FF13FC7D80E480EFF920E73624F950037907E4F42402FBE582158270021583DBF6E024FB501BE96014E4F0E582158270021583E004F0B40A0897
:406E0000E4F0D9EE7401F00A22C2D522ED33EC3392D5FA602AB4FF33EDC2E77BFF60067A6E7931E4227A6E793A20D5047A6E7935224E614E002B494E46002D494E4600E410
:406E40007A08F0A3DAFC7B00740722C083C082ECC0E0EDC0E0EEC0E0EFC0E0EA75F010A4CAABF075F04DA42BFBE435F0FCEA2410FAEB34C5FBEC34D9FCEDC2E7FF75F0562F
:406E8000A4F42411C5F0F434C58FF0A42AE5F03BE43CF020E714127039D0E0FFD0E0FED0E0FDD0E0FC126BFA8014F404127039D0E0FFD0E0FED0E0FDD0E0FC126AF1D08237
:406EC000D083E0FAEDD2E7CD33EC332482FBE4C3CF33CFCE33CECD33CD33DBF37B0775F00A846004F0A31B0AE5F0F0A38FF0740AA4FFACF08EF0740AA42CFEACF050010CF2
:406F00008DF0740AA42CFDE435F0F0A3DBDE740722026DBAE86480F8E933E83360110460F0ED33EC337009E8FCE9FDEAFEEBFF220460DED3EB9FEA9EE99DE8C2E78CF0C2BC
:406F4000F795F0400CE8CCF8E9CDF9EACEFAEBCFFB126D8585D0F05804700320D5B3E80470075002B2D5026DC492D5EC0460F7E4CCC0E0C398F8603B94186008400DD0E05B
:406F8000FB026D9CE4FBFAC9FC8028E830E406E4C9FBE4CAFCE830E305E4C9CACBFCE854076010F8C3E913F9EA13FAEB13FBEC13FCD8F130F52FC3E49CFCEF9BFFEE9AFE3A
:406FC000ED99FDD0E0FBEF4E4D4C701222DB03026DC1EC2CFCEF33FFEE33FEED33FDED30E7EB026D9CEF2BFFEE3AFEED39FDD0E0FB50130BBB0003026DC4ED13FDEE13FE08
:40700000EF13FFEC13FC026D9C3F8000004120000042C80000447A0000461C400047C35000497424004B1896804CBEBC205A0E1BCA6753C21C749DC5AEFB60065407601C84
:407040002323127067EB54386009127053127062126AF1ECF8EDF9EEFAEFCB22EB12706280F1543803241C907009FE93FC0EEE93FD0EEE930ECE93FF22BB010689828A8323
:40708000E0225002E722BBFE02E32289828A83E49322BB010CE58229F582E5833AF583E0225006E92582F8E622BBFE06E92582F8E222E58229F582E5833AF583E49322BB71
:4070C000010689828A83F0225002F722BBFE01F322EF8DF0A4A8F0CF8CF0A428CE8DF0A42EFE22BB010A89828A83F0E5F0A3F0225006F709A7F01922BBFE06F3E5F009F326
:407100001922E88FF0A4CC8BF0A42CFCE98EF0A42CFC8AF0EDA42CFCEA8EF0A4CDA8F08BF0A42DCC3825F0FDE98FF0A42CCD35F0FCEB8EF0A4FEA9F0EB8FF0A4CFC5F02E33
:40714000CD39FEE43CFCEAA42DCE35F0FDE43CFC2275F008758200EF2FFFEE33FECD33CDCC33CCC58233C5829BED9AEC99E58298400CF582EE9BFEED9AFDEC99FC0FD5F044
:40718000D6E4CEFBE4CDFAE4CCF9A88222B800C1B90059BA002DEC8BF084CFCECDFCE5F0CBF97818EF2FFFEE33FEED33FDEC33FCEB33FB10D703994004EB99FB0FD8E5E43D
:4071C000F9FA227818EF2FFFEE33FEED33FDEC33FCC933C910D7059BE99A4007EC9BFCE99AF90FD8E0E4C9FAE4CCFB2275F010EF2FFFEE33FEED33FDCC33CCC833C810D7E3
:40720000079BEC9AE899400AED9BFDEC9AFCE899F80FD5F0DAE4CDFBE4CCFAE4C8F922CFF4CFCEF4CECDF4CDCCF4CC22C3E49FFFE49EFEE49DFDE49CFC22EB9FF5F0EA9EDA
