:10260000029048008F828E83E0540100000070F831
:102610002278FFE4F6D8FD0290D690001FEEF0A3DA
:10262000EFF078217C007D017BFF7A5D79357E05B6
:102630007FDD126F589005FE7405F0A374DDF0780D
:10264000087C067D017BFF7A6379127E007F0F1282
:102650006F5878177C067D017BFF7A6379217E00B5
:102660007F1C126F5878337C067D017BFF7A63797B
:102670003D7E007F1B126F58784E7C067D017BFFEC
:102680007A6379587E007F1C126F58786A7C067DC9
:10269000017BFF7A6379747E007F1B126F58788507
:1026A0007C067D017BFF7A63798F7E007F27126F26
:1026B0005878AC7C067D017BFF7A6379B67E007F1B
:1026C00017126F5878C37C067D017BFF7A6379CD42
:1026D0007E007F19126F5878DC7C067D017BFF7AC3
:1026E0006379E67E007F11126F5878ED7C067D01DC
:1026F0007BFF7A6379F77E007F1C126F5878097C24
:10270000077D017BFF7A6479137E007F1D126F586D
:1027100078267C077D017BFF7A6479307E007F1B01
:10272000126F5878417C077D017BFF7A64794B7E7C
:10273000007F14126F5878557C077D017BFF7A6407
:10274000795F7E007F20126F5878757C077D017B52
:10275000FF7A64797F7E007F24126F5878997C0716
:102760007D017BFF7A6479A37E007F18126F587811
:10277000B17C077D017BFF7A6479BB7E007F1F12ED
:102780006F5878D07C077D017BFF7A6479DA7E0010
:102790007F16126F5878E67C077D017BFF7A64799B
:1027A000F07E007F34126F58781A7C087D017BFF21
:1027B0007A6579247E007F8C126F5878A67C087D1C
:1027C000017BFF7A6579B07E007F3B126F5878E11C
:1027D0007C087D017BFF7A6579EB7E007F2A126F92
:1027E000587B017A06790812ADDE8F697B017A0683
:1027F000791712ADDE8F6A7B017A06793312ADDE6E
:102800008F6B7B017A0679C312ADDE8F6C7B017A08
:102810000679DC12ADDE8F6D7B017A07790912AD86
:10282000DE8F6E7B017A07794112ADDE8F6F7B01FF
:102830007A07795512ADDE8F707B017A07797512B0
:10284000ADDE8F717B017A07799912ADDE8F727BD5
:10285000017A0779D012ADDE8F737B017A0779E6B2
:1028600012ADDE8F747B017A0879A612ADDE8F750A
:102870007B017A0779E612ADDE8F767B017A0879E3
:102880001A12ADDE8F77900021740CF0A37412F051
:1028900090001FE0FEA3E0FFEE6003023A2CEFB4CD
:1028A00013004003023A2C9028AEF828287302281F
:1028B000E702350502350E0235DE0236AE0236C1BC
:1028C0000236CA0236D302370C0237B702381E026C
:1028D000382702394C0239CF0239DF0239F4023A83
:1028E00004023A14023A1D9000237402F0A314F07B
:1028F00090093CE0900025F0756700856968E568FF
:102900004567602CC3E5699568FFE49567FE740828
:102910002FF58274063EF583E0FD74262FF5827450
:10292000003EF583EDF0E56815687002156780CE0E
:102930009000557407F0A37403F0900971E06403EC
:10294000606890093DE0FCA3E0FDA3E0FEA3E0FF8A
:10295000EC126834E4FBFA7980784712671E900025
:1029600057126DF9900941E0FCA3E0FDA3E0FEA33E
:10297000E0FFEC126834E4FBFA7980784712671EB6
:1029800090005B126DF9900945E0FCA3E0FDA3E027
:10299000FEA3E0FFEC126834E4FBFA79807847127A
:1029A000671E90005F126DF98066900955E0FCA3E8
:1029B000E0FDA3E0FEA3E0FFEC126834E4FBFA794B
:1029C00080784712671E900057126DF9900959E000
:1029D000FCA3E0FDA3E0FEA3E0FFEC126834E4FBFF
:1029E000FA7980784712671E90005B126DF99009A2
:1029F0005DE0FCA3E0FDA3E0FEA3E0FFEC12683481
:102A0000E4FBFA7980784712671E90005F126DF937
:102A1000756700856A68E5684567602CC3E56A9557
:102A200068FFE49567FE74172FF58274063EF58300
:102A3000E0FD74632FF58274003EF583EDF0E568E8
:102A400015687002156780CE9000877407F0A37434
:102A500003F0900971E064036068900949E0FCA309
:102A6000E0FDA3E0FEA3E0FFEC126834E4FBFA799A
:102A700080784712671E900089126DF990094DE029
:102A8000FCA3E0FDA3E0FEA3E0FFEC126834E4FB4E
:102A9000FA7980784712671E90008D126DF99009BF
:102AA00051E0FCA3E0FDA3E0FEA3E0FFEC126834DC
:102AB000E4FBFA7980784712671E900091126DF955
:102AC0008066900961E0FCA3E0FDA3E0FEA3E0FFC7
:102AD000EC126834E4FBFA7980784712671E9000A4
:102AE00089126DF9900965E0FCA3E0FDA3E0FEA367
:102AF000E0FFEC126834E4FBFA7980784712671E35
:102B000090008D126DF9900969E0FCA3E0FDA3E04F
:102B1000FEA3E0FFEC126834E4FBFA7980784712F8
:102B2000671E900091126DF9756700856B68E56806
:102B30004567602CC3E56B9568FFE49567FE7433C9
:102B40002FF58274063EF583E0FD74952FF58274AF
:102B5000003EF583EDF0E56815687002156780CEDC
:102B6000E49000B9F0A304F090096FE09000BBF08E
:102B700090096F601F90090E74FFF0A37459F0A3C1
:102B80007426F07B017A06794E12A11F900600741C
:102B90001CF0801D90090E74FFF0A37459F0A3740B
:102BA0002CF07B017A06794E12A11F900600741B4F
:102BB000F0900600E0756700F568E5684567602EEF
:102BC000900600E0C39568FFE49567FE744E2FF50C
:102BD0008274063EF583E0FD74BC2FF58274003EDE
:102BE000F583EDF0E56815687002156780CC9006F6
:102BF00000E024BCF582E43400F5837404F0E49032
:102C000000EBF0A304F0900970E09000EDF0900963
:102C10007014602204703C90090E74FFF0A3745984
:102C2000F0A37431F07B017A06796A12A11F900635
:102C3000007414F0801D90090E74FFF0A37459F015
:102C4000A37437F07B017A06796A12A11F900600FF
:102C5000741AF0900600E0756700F568E56845674E
:102C6000602E900600E0C39568FFE49567FE746AE5
:102C70002FF58274063EF583E0FD74EE2FF5827425
:102C8000003EF583EDF0E56815687002156780CCAD
:102C9000900600E024EEF582E43400F5837401F040
:102CA000E490011DF0A304F0900971E090011FF081
:102CB0009009711460291460451460612403707ACE
:102CC00090090E74FFF0A37459F0A37443F07B01D4
:102CD0007A06798512A11F900600741BF0805B9024
:102CE000090E74FFF0A37459F0A3744EF07B017ABF
:102CF00006798512A11F9006007416F0803C900999
:102D00000E74FFF0A37459F0A37454F07B017A069B
:102D1000798512A11F900600741AF0801D90090E8B
:102D200074FFF0A37459F0A3745EF07B017A067906
:102D30008512A11F9006007427F0900600E07567C9
:102D400000F568E5684567602E900600E0C3956869
:102D5000FFE49567FE74852FF58274063EF583E0E7
:102D6000FD74202FF58274013EF583EDF0E56815C2
:102D7000687002156780CC900600E02420F582E49C
:102D80003401F5837402F0E490014FF0A37403F072
:102D9000E4A3F0A3F0A3F0F567F568C3E568940336
:102DA000E5679400504E90090E74FFF0A37459F03B
:102DB000A37475F074722568F58274093567F5831C
:102DC000E0FF900911E4F0A3EFF07B017A067905AA
:102DD00012713090090E7401F0A37406F0A374050B
:102DE000F07B017A0679AC12A11F0568E5687002D4
:102DF000056780A79006007417F0E0756700F56816
:102E0000E5684567602E900600E0C39568FFE4958D
:102E100067FE74AC2FF58274063EF583E0FD7454B2
:102E20002FF58274013EF583EDF0E56815687002B8
:102E3000156780CC900600E02454F582E43401F557
:102E4000837403F0900181F0A3F0E4F567F568C3A3
:102E5000E5689403E56794005059E568AE67780229
:102E6000C333CE33CED8F92475F58274093EF58389
:102E7000E0FCA3E0FDA3E0FEA3E0FF74722568F58B
:102E80008274093567F583E0F9F8126D98AD07ACE7
:102E900006E56825E0FFE56733FE74832FF582744D
:102EA000013EF583ECF0A3EDF00568E568700205DE
:102EB00067809C756700856C68E5684567602CC312
:102EC000E56C9568FFE49567FE74C32FF582740680
:102ED0003EF583E0FD74892FF58274013EF583EDA4
:102EE000F0E56815687002156780CE9001B374072D
:102EF000F0A37403F0E4F567F568C3E5689403E5AF
:102F00006794005054E568AE677802C333CE33CE81
:102F1000D8F92481F58274093EF583E0FCA3E0FD35
:102F2000A3E0FEA3E0FFC004C005C006C007E5683B
:102F3000AE677802C333CE33CED8F924B5F58274A8
:102F4000013EF583D007D006D005D004126DF905F7
:102F500068E5687002056780A1E4F567F5687B01A4
:102F60007A0679DC12ADDEC3E5689FE5679E5026E0
:102F700074DC2568F58274063567F583E0FF74C15B
:102F80002568F58274013567F583EFF00568E5681B
:102F90007002056780C8E49001E5F0A304F0900991
:102FA0008DE09001E7F090098D601F90090E74FF8D
:102FB000F0A37459F0A37426F07B017A0679ED1220
:102FC000A11F900600741CF0801D90090E74FFF084
:102FD000A37459F0A3742CF07B017A0679ED12A149
:102FE0001F900600741BF0900600E0756700F568FE
:102FF000E5684567602E900600E0C39568FFE4959C
:1030000067FE74ED2FF58274063EF583E0FD74E8EB
:103010002FF58274013EF583EDF0E56815687002C6
:10302000156780CC900600E024E8F582E43401F5D1
:10303000837404F090021704F0A314F0E4F567F52C
:1030400068C3E5689402E56794004003023112E525
:1030500068AE677802C333CE33CED8F9248EF582BA
:1030600074093EF583E0FCA3E0FDA3E0FEA3E0FFCE
:1030700074722568F58274093567F583E0F9F812F2
:103080006D98C004C005C006C007E568AE67780348
:10309000C333CE33CED8F92419F58274023EF583BA
:1030A000D007D006D005D004126DF9E568AE677878
:1030B00002C333CE33CED8F92496F58274093EF597
:1030C00083E0FCA3E0FDA3E0FEA3E0FF74722568AB
:1030D000F58274093567F583E0F9F8126D98C0043C
:1030E000C005C006C007E568AE677803C333CE33BA
:1030F000CED8F9241DF58274023EF583D007D006A0
:10310000D005D004126DF90568E568700205670204
:103110003041756700856E68E5684567602CC3E5DA
:103120006E9568FFE49567FE74092FF58274073E7B
:10313000F583E0FD74292FF58274023EF583EDF0EE
:10314000E56815687002156780CE9002497405F035
:10315000A37402F09009A2E0FCA3E0FDA3E0FEA3AB
:10316000E0FF90024B126DF99009A6E0FCA3E0FD90
:10317000A3E0FEA3E0FF90024F126DF9E4F567F5BE
:10318000687B017A07792612ADDEC3E5689FE567A3
:103190009E502674262568F58274073567F583E00E
:1031A000FF74532568F58274023567F583EFF005E7
:1031B00068E5687002056780C890027B7403F0A31D
:1031C0007401F090096DE0FFA3E090027DCFF0A3C1
:1031D000EFF0756700856F68E5684567602CC3E5AB
:1031E0006F9568FFE49567FE74412FF58274073E82
:1031F000F583E0FD747F2FF58274023EF583EDF0D8
:10320000E56815687002156780CE9002AD7407F00E
:10321000A37401F09009ABE0FCA3E0FDA3E0FEA3E2
:10322000E0FF9002AF126DF9756700857068E56880
:103230004567602CC3E5709568FFE49567FE74559B
:103240002FF58274073EF583E0FD74B32FF5827489
:10325000023EF583EDF0E56815687002156780CED3
:103260009002DF7403F0A37401F09009AFE0FFA3B4
:10327000E09002E1CFF0A3EFF0756700857168E59B
:10328000684567602CC3E5719568FFE49567FE7437
:10329000752FF58274073EF583E0FD74E32FF58208
:1032A00074023EF583EDF0E56815687002156780DD
:1032B000CE9003117403F0A37401F09009B1E0FF04
:1032C000A3E0900313CFF0A3EFF075670085726859
:1032D000E5684567602CC3E5729568FFE49567FE75
:1032E00074992FF58274073EF583E0FD74152FF570
:1032F0008274033EF583EDF0E5681568700215678A
:1033000080CEE4900343F0A304F09009AAE0900378
:1033100045F09009AA601F90090E74FFF0A374593C
:10332000F0A37426F07B017A0779B112A11F9006F1
:1033300000741FF0801D90090E74FFF0A37459F003
:10334000A3742CF07B017A0779B112A11F900600BB
:10335000741EF0900600E0756700F568E568456743
:10336000602E900600E0C39568FFE49567FE74B197
:103370002FF58274073EF583E0FD74462FF58274C5
:10338000033EF583EDF0E56815687002156780CCA3
:10339000900600E02446F582E43403F5837404F0DB
:1033A000900375F0A37401F09009B3E0FFA3E090DF
:1033B0000377CFF0A3EFF0756700857368E5684584
:1033C00067602CC3E5739568FFE49567FE74D02FA2
:1033D000F58274073EF583E0FD74792FF58274035E
:1033E0003EF583EDF0E56815687002156780CE75CF
:1033F0006700857468E5684567602CC3E574956867
:10340000FFE49567FE74E62FF58274073EF583E0CE
:10341000FD74A72FF58274033EF583EDF0E5681582
:10342000687002156780CE756700857568E5684528
:1034300067602CC3E5759568FFE49567FE74A62F59
:10344000F58274083EF583E0FD743D2FF582740427
:103450003EF583EDF0E56815687002156780CE755E
:103460006700857768E5684567602CC3E5779568F0
:10347000FFE49567FE741A2FF58274083EF583E029
:10348000FD74D32FF58274043EF583EDF0E56815E5
:10349000687002156780CE756700857668E56845B7
:1034A00067602CC3E5769568FFE49567FE74E12FAD
:1034B000F58274083EF583E0FD74692FF58274058A
:1034C0003EF583EDF0E56815687002156780CE7BE8
:1034D000017A0079219005FEE0A3E014FD12A9799C
:1034E0009005FEE0FCA3E0FD2420F58274003CF58D
:1034F00083EFF07B017A007921E4900910F01299B2
:103500000312AEC522900A6CE09009BFF022900928
:1035100071E064036064E4FFFE7D807C47900A6C88
:10352000E0F8A3E0F9A3E0FAA3E0FB126615126845
:10353000729009C0126DF9E4FFFE7D807C47900A0D
:1035400070E0F8A3E0F9A3E0FAA3E0FB126615121D
:1035500068729009C4126DF9E4FFFE7D807C47908B
:103560000A74E0F8A3E0F9A3E0FAA3E0FB12661501
:103570001268729009C8126DF922E4FFFE7D807C0A
:1035800047900A6CE0F8A3E0F9A3E0FAA3E0FB128D
:1035900066151268729009D8126DF9E4FFFE7D80FD
:1035A0007C47900A70E0F8A3E0F9A3E0FAA3E0FBFF
:1035B0001266151268729009DC126DF9E4FFFE7D47
:1035C000807C47900A74E0F8A3E0F9A3E0FAA3E056
:1035D000FB1266151268729009E0126DF9229009CB
:1035E00071E064036064E4FFFE7D807C47900A6CB8
:1035F000E0F8A3E0F9A3E0FAA3E0FB126615126875
:10360000729009CC126DF9E4FFFE7D807C47900A30
:1036100070E0F8A3E0F9A3E0FAA3E0FB126615124C
:1036200068729009D0126DF9E4FFFE7D807C4790AE
:103630000A74E0F8A3E0F9A3E0FAA3E0FB12661530
:103640001268729009D4126DF922E4FFFE7D807C2D
:1036500047900A6CE0F8A3E0F9A3E0FAA3E0FB12BC
:1036600066151268729009E4126DF9E4FFFE7D8020
:103670007C47900A70E0F8A3E0F9A3E0FAA3E0FB2E
:103680001266151268729009E8126DF9E4FFFE7D6A
:10369000807C47900A74E0F8A3E0F9A3E0FAA3E085
:1036A000FB1266151268729009EC126DF922900AED
:1036B0006CE060079009F27403F022E49009F2F0E4
:1036C00022900A6CE09009F3F022900A6CE09009D5
:1036D000F4F022E4F567F568C3E5689403E56794C0
:1036E000004003023A2C746C2568F582740A356731
:1036F000F583E0FF74F52568F58274093567F58375
:10370000EFF00568E5687002056780CCE4F567F5C1
:1037100068C3E5689403E567940040030237B4E5A5
:103720006825E0FFE56733FE746C2FF582740A3E6E
:10373000F583E0FEA3E0FFEE3395E0FDFCC004C09E
:1037400005C006C007E568AE677802C333CE33CE46
:10375000D8F9FBAA0624F8F58274093AF583D00754
:10376000D006D005D004126DF974F82BF5827409D7
:103770003AF583C083C082E0FCA3E0FDA3E0FEA392
:10378000E0FF74F52568F58274093567F583E0F983
:10379000F8126DACD082D083126DF974132568F5E0
:1037A00082740B3567F583E4F00568E568700205FF
:1037B00067023711D20B22E4F567F568C3E5689418
:1037C00003E56794004003023A2CE568AE6778028F
:1037D000C333CE33CED8F9246CF582740A3EF58318
:1037E000E0FCA3E0FDA3E0FEA3E0FFC004C005C031
:1037F00006C007E568AE677802C333CE33CED8F98A
:103800002404F582740A3EF583D007D006D005D093
:1038100004126DF90568E56870020567809E900ADC
:103820006CE0900A10F022E4F567F568C3E568944F
:1038300002E56794004003023A2CE568AE6778031E
:10384000C333CE33CED8F9246CF582740A3EF583A7
:10385000E0FCA3E0FDA3E0FEA3E0FFC004C005C0C0
:1038600006C007E568AE677802C333CE33CED8F919
:103870002411F582740A3EF583D007D006D005D016
:1038800004126DF9E568AE677803C333CE33CED842
:10389000F92470F582740A3EF583E0FCA3E0FDA3F1
:1038A000E0FEA3E0FFC004C005C006C007E568AEA7
:1038B000677802C333CE33CED8F9FBAA062419F5B4
:1038C00082740A3AF583D007D006D005D004126D71
:1038D000F974112BF582740A3AF583C083C082E033
:1038E000FCA3E0FDA3E0FEA3E0FF74F52568F582EC
:1038F00074093567F583E0F9F8126DACD082D08396
:10390000126DF9E568AE677802C333CE33CED8F9CD
:103910002419F582740A3EF583C083C082E0FCA3BB
:10392000E0FDA3E0FEA3E0FF74F52568F5827409CD
:103930003567F583E0F9F8126DACD082D083126D53
:10394000F90568E5687002056702382C900A6CE09A
:10395000FCA3E0FDA3E0FEA3E0FF900601126DF9D9
:10396000E4FFFEFDFC900601E0F8A3E0F9A3E0FA15
:10397000A3E0FBD3126D5E5014900601E0FCA3E0BF
:10398000FDA3E0FEA3E0FF900A25126DF9900A70F6
:10399000E0FCA3E0FDA3E0FEA3E0FF900601126DB2
:1039A000F9E4FFFEFDFC900601E0F8A3E0F9A3E0D6
:1039B000FAA3E0FBC3126D5E4072900601E0FCA327
:1039C000E0FDA3E0FEA3E0FF900A29126DF922902A
:1039D0000A6CE0FFA3E09009F0CFF0A3EFF0229093
:1039E0000A6CE0FCA3E0FDA3E0FEA3E0FF900A2E3A
:1039F000126DF922900A6CE0FFA3E0900A32CFF03A
:103A0000A3EFF022900A6CE0FFA3E0900A34CFF01D
:103A1000A3EFF022900A6CE0900A2DF022900A6C3D
:103A2000E0FFA3E0900A36CFF0A3EFF02290046B02
:103A3000EBF0A3EAF0A3E9F090046BE0FBA3E0FA5B
:103A4000A3E0F8AC02AD037BFF7A597979127036A6
:103A500090090E74FFF0A37459F0A3747AF09004E7
:103A60006BE0FBA3E0FAA3E0F912A11F90090E742A
:103A7000FFF0A37459F0A3747DF090046BE0FBA3F6
:103A8000E0FAA3E0F912A11F90090E74FFF0A374ED
:103A900059F0A37490F090046BE0FBA3E0FAA3E06C
:103AA000F912A11F90090E74FFF0A37459F0A374CA
:103AB000A0F090046BE0FBA3E0FAA3E0F912A11FD1
:103AC00090090E74FFF0A37459F0A374A6F090044B
:103AD0006BE0FBA3E0FAA3E0F912A11F90090E74BA
:103AE000FFF0A37459F0A374B4F090093CE0FF9088
:103AF0000911E4F0A3EFF07B017A04796E127130C2
:103B000090090E7401F0A37404F0A3746EF0900495
:103B10006BE0FBA3E0FAA3E0F912A11F90090E7479
:103B2000FFF0A37459F0A374BDF0A3E4F0A37403F1
:103B3000F07B017A04796E12713090090E7401F0F5
:103B4000A37404F0A3746EF090046BE0FBA3E0FA9E
:103B5000A3E0F912A11F90090E74FFF0A37459F0AD
:103B6000A374D5F09009B3E0FFA3E0900911CFF062
:103B7000A3EFF07B017A04796E12713090090E7414
:103B800001F0A37404F0A3746EF090046BE0FBA347
:103B9000E0FAA3E0F912A11F90090E74FFF0A374DC
:103BA00059F0A374EAF0900B22E0FF900911E4F0C1
:103BB000A3EFF07B017A04796E12713090090E74D4
:103BC00001F0A37404F0A3746EF090046BE0FBA307
:103BD000E0FAA3E0F912A11F90090E74FFF0A3749C
:103BE00059F0A3747AF090046BE0FBA3E0FAA3E031
:103BF000F912A11F90090E74FFF0A37459F0A37479
:103C0000FAF090046BE0FBA3E0FAA3E0F912A11F25
:103C100090090E74FFF0A3745AF0A37407F0900497
:103C20006BE0FBA3E0FAA3E0F912A11FE4F567F54E
:103C300068C3E5689402E5676480948050799009D0
:103C40000E74FFF0A3745AF0A3741AF0E568AE671F
:103C50007802C333CE33CED8F92460F582740A3E9D
:103C6000F583E0FCA3E0FDA3E0FEA3E0FF74722572
:103C700068F58274093567F583E0F9F8126D98905C
:103C80000911EEF0A3EFF07B017A04796E12713026
:103C900090090E7401F0A37404F0A3746EF0900404
:103CA0006BE0FBA3E0FAA3E0F912A11F0568E56849
:103CB00070020567023C3190090E74FFF0A374593D
:103CC000F0A3747AF090046BE0FBA3E0FAA3E0F9B0
:103CD00012A11F90090E74FFF0A3745AF0A3741E72
:103CE000F07B017A04796E127130900A68E0540317
:103CF000601990090E74FFF0A3745AF0A3742EF0AB
:103D00007B017A04796E12A11F801790090E74FF4F
:103D1000F0A3745AF0A37434F07B017A04796E1224
:103D2000A11F90090E7401F0A37404F0A3746EF047
:103D300090046BE0FBA3E0FAA3E0F912A11F900945
:103D40000E74FFF0A3745AF0A37439F090046BE082
:103D5000FBA3E0FAA3E0F912A11F90090E74FFF093
:103D6000A3745AF0A3744FF090046BE0FBA3E0FA45
:103D7000A3E0F912A11FE4F567F568C3E5689403B1
:103D8000E567648094804003023E2F90090E74FF23
:103D9000F0A3745AF0A3745FF0E56824019009124F
:103DA000F0E43567900911F0E568AE677802C33337
:103DB000CE33CED8F92439F582740A3EF583E0FC7F
:103DC000A3E0FDA3E0FEA3E0FF74722568F5827412
:103DD000093567F583E0F9F8126D98900913EEF054
:103DE000A3EFF07B017A04796E12713090090E74A2
:103DF00001F0A37404F0A3746EF090046BE0FBA3D5
:103E0000E0FAA3E0F912A11F90090E74FFF0A37469
:103E100059F0A3747AF090046BE0FBA3E0FAA3E0FE
:103E2000F912A11F0568E56870020567023D7B90E5
:103E3000090E74FFF0A3745AF0A37468F0900A5C42
:103E4000E0FCA3E0FDA3E0FEA3E0FF900911126DEA
:103E5000F97B017A04796E12713090090E7401F0C9
:103E6000A37404F0A3746EF090046BE0FBA3E0FA7B
:103E7000A3E0F912A11F90090E74FFF0A37459F08A
:103E8000A3747AF090046BE0FBA3E0FAA3E0F912CC
:103E9000A11F90090E74FFF0A3745AF0A3747AF076
:103EA000900A45E0FEA3E0FFEE3395E0FDFC9009AB
:103EB00011126DF97B017A04796E12713090090E3E
:103EC0007401F0A37404F0A3746EF090046BE0FB33
:103ED000A3E0FAA3E0F912A11F90090E74FFF0A36A
:103EE0007459F0A3747AF090046BE0FBA3E0FAA39A
:103EF000E0F912A11F90090E74FFF0A3745AF0A309
:103F0000748EF0900A47E0FEA3E0FFEE3395E0FDEB
:103F1000FC900911126DF97B017A04796E127130EF
:103F200090090E7401F0A37404F0A3746EF0900471
:103F30006BE0FBA3E0FAA3E0F912A11F90090E7455
:103F4000FFF0A37459F0A3747AF090046BE0FBA324
:103F5000E0FAA3E0F912A11F90090E74FFF0A37418
:103F60005AF0A374A2F090046BE0FBA3E0FAA3E084
:103F7000F912A11F90090E74FFF0A3745AF0A374F4
:103F8000B8F090046BE0FBA3E0FAA3E0F912A11FE4
:103F9000900971E06403700302409D90090E74FF64
:103FA000F0A3745AF0A374CAF090093DE0FCA3E0BA
:103FB000FDA3E0FEA3E0FFEC126834E4FBFA798095
:103FC000784712671E900911126DF97B017A047906
:103FD0006E12713090090E7401F0A37404F0A37492
:103FE0006EF090046BE0FBA3E0FAA3E0F912A11FCE
:103FF00090090E74FFF0A3745AF0A374D4F09009E2
:1040000041E0FCA3E0FDA3E0FEA3E0FFEC12683476
:10401000E4FBFA7980784712671E900911126DF956
:104020007B017A04796E12713090090E7401F0A34D
:104030007404F0A3746EF090046BE0FBA3E0FAA3A9
:10404000E0F912A11F90090E74FFF0A3745AF0A3B7
:1040500074DEF0900945E0FCA3E0FDA3E0FEA3E0E0
:10406000FFEC126834E4FBFA7980784712671E90FF
:104070000911126DF97B017A04796E127130900981
:104080000E7401F0A37404F0A3746EF090046BE05E
:10409000FBA3E0FAA3E0F912A11F02419C90090ED4
:1040A00074FFF0A3745AF0A374CAF0900955E0FCB1
:1040B000A3E0FDA3E0FEA3E0FFEC126834E4FBFA0A
:1040C0007980784712671E900911126DF97B017A89
:1040D00004796E12713090090E7401F0A37404F02B
:1040E000A3746EF090046BE0FBA3E0FAA3E0F91276
:1040F000A11F90090E74FFF0A3745AF0A374D4F0BA
:10410000900959E0FCA3E0FDA3E0FEA3E0FFEC1260
:104110006834E4FBFA7980784712671E900911121F
:104120006DF97B017A04796E12713090090E740179
:10413000F0A37404F0A3746EF090046BE0FBA3E0B2
:10414000FAA3E0F912A11F90090E74FFF0A3745AAC
:10415000F0A374DEF090095DE0FCA3E0FDA3E0FEB7
:10416000A3E0FFEC126834E4FBFA79807847126729
:104170001E900911126DF97B017A04796E1271306B
:1041800090090E7401F0A37404F0A3746EF090040F
:104190006BE0FBA3E0FAA3E0F912A11F90090E74F3
:1041A000FFF0A3745AF0A374E8F090046BE0FBA353
:1041B000E0FAA3E0F912A11F900971E06403700313
:1041C0000242C590090E74FFF0A3745AF0A374CA9A
:1041D000F0900949E0FCA3E0FDA3E0FEA3E0FFECC2
:1041E000126834E4FBFA7980784712671E9009114F
:1041F000126DF97B017A04796E12713090090E7498
:1042000001F0A37404F0A3746EF090046BE0FBA3C0
:10421000E0FAA3E0F912A11F90090E74FFF0A37455
:104220005AF0A374D4F090094DE0FCA3E0FDA3E0A4
:10423000FEA3E0FFEC126834E4FBFA7980784712C1
:10424000671E900911126DF97B017A04796E127163
:104250003090090E7401F0A37404F0A3746EF09012
:10426000046BE0FBA3E0FAA3E0F912A11F90090E92
:1042700074FFF0A3745AF0A374DEF0900951E0FCCF
:10428000A3E0FDA3E0FEA3E0FFEC126834E4FBFA38
:104290007980784712671E900911126DF97B017AB7
:1042A00004796E12713090090E7401F0A37404F059
:1042B000A3746EF090046BE0FBA3E0FAA3E0F912A4
:1042C000A11F0243C490090E74FFF0A3745AF0A317
:1042D00074CAF0900961E0FCA3E0FDA3E0FEA3E056
:1042E000FFEC126834E4FBFA7980784712671E907D
:1042F0000911126DF97B017A04796E1271309009FF
:104300000E7401F0A37404F0A3746EF090046BE0DB
:10431000FBA3E0FAA3E0F912A11F90090E74FFF0CD
:10432000A3745AF0A374D4F0900965E0FCA3E0FDF7
:10433000A3E0FEA3E0FFEC126834E4FBFA79807896
:104340004712671E900911126DF97B017A04796E8C
:1043500012713090090E7401F0A37404F0A3746E0E
:10436000F090046BE0FBA3E0FAA3E0F912A11F9028
:10437000090E74FFF0A3745AF0A374DEF09009697B
:10438000E0FCA3E0FDA3E0FEA3E0FFEC126834E450
:10439000FBFA7980784712671E900911126DF97B3C
:1043A000017A04796E12713090090E7401F0A374D1
:1043B00004F0A3746EF090046BE0FBA3E0FAA3E0BA
:1043C000F912A11F90090E74FFF0A37459F0A374A1
:1043D0007AF090046BE0FBA3E0FAA3E0F912A11FCE
:1043E00090096FE0B4031E90090E74FFF0A3745B94
:1043F000F0A37402F090046BE0FBA3E0FAA3E0F9F1
:1044000012A11F801C90090E74FFF0A3745BF0A32F
:10441000741CF090046BE0FBA3E0FAA3E0F912A196
:104420001F900970E014602104703A90090E74FF27
:10443000F0A3745BF0A37435F090046BE0FBA3E091
:10444000FAA3E0F912A11F801C90090E74FFF0A3DB
:10445000745BF0A37447F090046BE0FBA3E0FAA355
:10446000E0F912A11F90090E74FFF0A3745BF0A392
:10447000745EF090046BE0FBA3E0FAA3E0F912A1F4
:104480001F900971E014602814604314605E2403D7
:10449000707690090E74FFF0A3745BF0A3746DF056
:1044A00090046BE0FBA3E0FAA3E0F912A11F80588F
:1044B00090090E74FFF0A3745BF0A37478F090047D
:1044C0006BE0FBA3E0FAA3E0F912A11F803A900988
:1044D0000E74FFF0A3745BF0A3747EF090046BE0A5
:1044E000FBA3E0FAA3E0F912A11F801C90090E744F
:1044F000FFF0A3745BF0A37488F090046BE0FBA35F
:10450000E0FAA3E0F912A11F90090E74FFF0A37462
:104510005BF0A3749FF090046BE0FBA3E0FAA3E0D0
:10452000F912A11FE4F567F568C3E5689403E56730
:1045300064809480507F90090E74FFF0A3745AF049
:10454000A3745FF0E5682401900912F0E4356790E8
:104550000911F074722568F58274093567F583E0F6
:10456000FF900913E4F0A3EFF07B017A04796E1257
:10457000713090090E7401F0A37404F0A3746EF00E
:1045800090046BE0FBA3E0FAA3E0F912A11F9009ED
:104590000E74FFF0A37459F0A3747AF090046BE0EA
:1045A000FBA3E0FAA3E0F912A11F0568E568700219
:1045B000056702452990090E74FFF0A3745BF0A310
:1045C00074B4F090046BE0FBA3E0FAA3E0F912A14D
:1045D0001FE4F567F568C3E5689403E567648094B4
:1045E00080400302468890090E74FFF0A3745BF0CC
:1045F000A374CAF0E5682401900912F0E4356790CD
:104600000911F0E568AE677802C333CE33CED8F92E
:104610002475F58274093EF583E0FCA3E0FDA3E078
:10462000FEA3E0FF74722568F58274093567F5838F
:10463000E0F9F8126D98900913126DF97B017A0474
:10464000796E12713090090E7401F0A37404F0A316
:10465000746EF090046BE0FBA3E0FAA3E0F912A102
:104660001F90090E74FFF0A37459F0A3747AF090B0
:10467000046BE0FBA3E0FAA3E0F912A11F0568E5D3
:1046800068700205670245D690090E74FFF0A374A6
:104690005BF0A374D4F090046BE0FBA3E0FAA3E01A
:1046A000F912A11FE4F567F568C3E5689403E567AF
:1046B00064809480400302474990090E74FFF0A380
:1046C000745BF0A374EEF0E5682401900912F0E445
:1046D0003567900911F0E568AE677802C333CE33D1
:1046E000CED8F92481F58274093EF583E0FCA3E07D
:1046F000FDA3E0FEA3E0FF900913126DF97B017AA0
:1047000004796E12713090090E7401F0A37404F0F4
:10471000A3746EF090046BE0FBA3E0FAA3E0F9123F
:10472000A11F90090E74FFF0A37459F0A3747AF0DE
:1047300090046BE0FBA3E0FAA3E0F912A11F056867
:10474000E568700205670246A990090E74FFF0A3A0
:10475000745BF0A374F7F090046BE0FBA3E0FAA3A2
:10476000E0F912A11F90090E74FFF0A3745CF0A38E
:10477000742DF09009ABE0FCA3E0FDA3E0FEA3E004
:10478000FF900911126DF97B017A04796E12713074
:1047900090090E7401F0A37404F0A3746EF09004F9
:1047A0006BE0FBA3E0FAA3E0F912A11F90090E74DD
:1047B000FFF0A37459F0A3747AF090046BE0FBA3AC
:1047C000E0FAA3E0F912A11F90090E74FFF0A374A0
:1047D0005CF0A37430F090046BE0FBA3E0FAA3E07C
:1047E000F912A11F90090E74FFF0A3745CF0A3747A
:1047F00043F09009AFE0FFA3E0900911CFF0A3EFE1
:10480000F07B017A04796E12713090090E7401F018
:10481000A37404F0A3746EF090046BE0FBA3E0FAC1
:10482000A3E0F912A11F90090E74FFF0A37459F0D0
:10483000A3747AF090046BE0FBA3E0FAA3E0F91212
:10484000A11F90090E74FFF0A3745CF0A37447F0ED
:1048500090046BE0FBA3E0FAA3E0F912A11F90091A
:104860000E74FFF0A3745CF0A37443F09009B1E000
:10487000FFA3E0900911CFF0A3EFF07B017A047958
:104880006E12713090090E7401F0A37404F0A374D9
:104890006EF090046BE0FBA3E0FAA3E0F912A11F15
:1048A00090090E74FFF0A3745CF0A37453F09004AD
:1048B0006BE0FBA3E0FAA3E0F912A11F90090E74CC
:1048C000FFF0A3745CF0A37457F0900A10E0FF901F
:1048D0000911E4F0A3EFF07B017A04796E127130D4
:1048E00090090E7401F0A37404F0A3746EF09004A8
:1048F0006BE0FBA3E0FAA3E0F912A11F90090E748C
:10490000FFF0A37459F0A3747AF090046BE0FBA35A
:10491000E0FAA3E0F912A11FE4F567F568C3E568C2
:104920009402E567648094804003024A1F90090E58
:1049300074FFF0A3745CF0A37471F0E56824019037
:104940000912F0E43567900911F0E568AE67780266
:10495000C333CE33CED8F92411F582740A3EF583E1
:10496000E0FCA3E0FDA3E0FEA3E0FF74F52568F5FD
:104970008274093567F583E0F9F8126D9890091390
:10498000126DF97B017A04796E12713090090E7400
:1049900001F0A37404F0A3746EF090046BE0FBA329
:1049A000E0FAA3E0F912A11F90090E74FFF0A374BE
:1049B0005CF0A37497F0E568AE677802C333CE333A
:1049C000CED8F92419F582740A3EF583E0FCA3E001
:1049D000FDA3E0FEA3E0FF74F52568F582740935B8
:1049E00067F583E0F9F8126D98900911126DF97B63
:1049F000017A04796E12713090090E7401F0A3747B
:104A000004F0A3746EF090046BE0FBA3E0FAA3E063
:104A1000F912A11F0568E5687002056702491D903B
:104A2000090E74FFF0A3745CF0A374A4F0900A2143
:104A3000E0FEA3E0FF9009F5E0FDEFA80508800681
:104A4000CEA2E713CE13D8F8FF900911EEF0A3EF32
:104A5000F07B017A04796E12713090090E7401F0C6
:104A6000A37404F0A3746EF090046BE0FBA3E0FA6F
:104A7000A3E0F912A11F90090E74FFF0A37459F07E
:104A8000A3747AF090046BE0FBA3E0FAA3E0F912C0
:104A9000A11F90090E74FFF0A3745CF0A374B6F02C
:104AA0009009F0E0FFA3E0900911CFF0A3EFF07BB5
:104AB000017A04796E12713090090E7401F0A374BA
:104AC00004F0A3746EF090046BE0FBA3E0FAA3E0A3
:104AD000F912A11F90090E74FFF0A37459F0A3748A
:104AE0007AF090046BE0FBA3E0FAA3E0F912A11FB7
:104AF0009009AAE0601E90090E74FFF0A3745CF0A8
:104B0000A374C8F090046BE0FBA3E0FAA3E0F912F1
:104B1000A11F801C90090E74FFF0A3745CF0A374B5
:104B2000E7F090046BE0FBA3E0FAA3E0F912A11F09
:104B3000300A1E90090E74FFF0A3745DF0A3740593
:104B4000F090046BE0FBA3E0FAA3E0F912A11F8050
:104B50001C90090E74FFF0A3745DF0A37418F0901C
:104B6000046BE0FBA3E0FAA3E0F912A11F90090E89
:104B700074FFF0A3745DF0A3742AF0900A58E0F873
:104B8000A3E0F9A3E0FAA3E0FB900AF7E0FCA3E0BE
:104B9000FDA3E0FEA3E0C39BFFEE9AFEED99FDECC2
:104BA00098FC900911126DF97B017A04796E1271EB
:104BB0003090090E7401F0A37404F0A3746EF090A9
:104BC000046BE0FBA3E0FAA3E0F912A11F90090E29
:104BD00074FFF0A37459F0A3747AF090046BE0FBB7
:104BE000A3E0FAA3E0F912A11F228F23E4F52BF52D
:104BF0002AF529F52890093DE0FCA3E0FDA3E0FE9D
:104C0000A3E0F5378E368D358C34A3E0FCA3E0FDB0
:104C1000A3E0FEA3E0F53B8E3A8D398C38A3E0FC8F
:104C2000A3E0FDA3E0FEA3E0F53F8E3E8D3D8C3C6E
:104C3000A3E0FCA3E0FDA3E0FEA3E0F5438E428DDC
:104C4000418C40A3E0FCA3E0FDA3E0FEA3E0F54718
:104C50008E468D458C44A3E0FCA3E0FDA3E0FEA3BB
:104C6000E0F54B8E4A8D498C48A3E0FCA3E0FDA300
:104C7000E0FEA3E0F54F8E4E8D4D8C4CA3E0FCA3DF
:104C8000E0FDA3E0FEA3E0F5538E528D518C50A3BE
:104C9000E0FCA3E0FDA3E0FEA3E0F5578E568D55A2
:104CA0008C54A3E0FCA3E0FDA3E0FEA3E0F55B8E43
:104CB0005A8D598C58A3E0FCA3E0FDA3E0FEA3E0CD
:104CC000F55F8E5E8D5D8C5CA3E0FCA3E0FDA3E050
:104CD000FEA3E0F5638E628D618C60E523C39402D0
:104CE0004003025925900971E014700302576C14B7
:104CF000700302549C147003024FAC24036003023F
:104D000057D6E52325E025E02403F582E4340BF5AE
:104D100083E0F8A3E0F9A3E0FAA3E0FBE52325E0B4
:104D200025E024B5F582E43409F583E0FCA3E0FD39
:104D3000A3E0FEA3E0C39BF52FEE9AF52EED99F5C7
:104D40002DEC98F52C300D05C20D128DFAE52325BA
:104D5000E025E024ADF582E4340BF583C083C08206
:104D6000E0FCA3E0FDA3E0FEA3E0252FFFEE352E3F
:104D7000FEED352DFDEC352CFCD082D083126DF983
:104D8000E52325E025E024ADF582E4340BF583E04E
:104D9000FCA3E0FDA3E0FEA3E0FF7BA07A867901FF
:104DA0007800C3126D5E501C7FA07E867D017C0062
:104DB000E52325E025E024ADF582E4340BF58312EC
:104DC0006DF98042E52325E025E024ADF582E43449
:104DD0000BF583E0FCA3E0FDA3E0FEA3E0FF7B6016
:104DE0007A7979FE78FFD3126D5E401A7F607E7902
:104DF0007DFE7CFFE52325E025E024ADF582E4344B
:104E00000BF583126DF9300D05C20D128DFAE4F524
:104E10002BF52AF529F528FFFEFDFCAB37AA36A9AC
:104E200035A834C3126D5E606AE4FFFE7D02FCAB00
:104E30002FAA2EA92DA82CD3126D5E500FE4FFFED1
:104E40007DFE7CFFA82CC3126D5E5027AF2FAE2EC7
:104E5000AD2DAC2C7808126D98AB37AA36A935A8C1
:104E600034126C267808126D988F2B8E2A8D298C1F
:104E7000288020AF2FAE2EAD2DAC2CAB37AA36A993
:104E800035A834126C267810126D988F2B8E2A8DCF
:104E9000298C28300D05C20D128DFAE4FFFEFDFCB1
:104EA000AB3BAA3AA939A838C3126D5E6043AF3B49
:104EB000AE3AAD39AC387806126D98E52325E02579
:104EC000E024ADF582E4340BF583E0F8A3E0F9A328
:104ED000E0FAA3E0FB126C26780A126D98E52B2FFE
:104EE000F52BE52A3EF52AE5293DF529E5283CF58F
:104EF00028E4FFFEFDFCAB3FAA3EA93DA83CC3123F
:104F00006D5E6063E52325E025E02403F582E4344B
:104F10000BF583E0F8A3E0F9A3E0FAA3E0FBE523B7
:104F200025E025E02439F582E4340AF583E0FCA38A
:104F3000E0FDA3E0FEA3E0C39BFFEE9AFEED99FD2A
:104F4000EC98FCAB3FAA3EA93DA83C126C26781019
:104F5000126D98E52B2FF52BE52A3EF52AE5293D24
:104F6000F529E5283CF528300D05C20D128DFAE52E
:104F700023701CFFFEFDFCAB2BAA2AA929A828C37D
:104F8000126D5E4005D20F0257D6C20F0257D6E40B
:104F9000FFFEFDFCAB2BAA2AA929A828C3126D5E2F
:104FA0004005D2100257D6C2100257D6E52325E09D
:104FB00025E02403F582E4340BF583E0F8A3E0F95F
:104FC000A3E0FAA3E0FBE52325E025E024B5F58284
:104FD000E43409F583E0FCA3E0FDA3E0FEA3E0C315
:104FE0009BF52FEE9AF52EED99F52DEC98F52CE525
:104FF0002325E025E024ADF582E4340BF583C0835E
:10500000C082E0FCA3E0FDA3E0FEA3E0252FFFEEBD
:10501000352EFEED352DFDEC352CFCD082D08312E3
:105020006DF9300D05C20D128DFAE52325E025E05E
:1050300024ADF582E4340BF583E0FCA3E0FDA3E0AE
:10504000FEA3E0FF7BA07A8679017800C3126D5E33
:10505000501C7FA07E867D017C00E52325E025E0B5
:1050600024ADF582E4340BF583126DF98042E5231B
:1050700025E025E024ADF582E4340BF583E0FCA3C4
:10508000E0FDA3E0FEA3E0FF7B607A7979FE78FF84
:10509000D3126D5E401A7F607E797DFE7CFFE52332
:1050A00025E025E024ADF582E4340BF583126DF99B
:1050B000E4F527F526F525F524300D05C20D128DF2
:1050C000FAE4FFFEFDFCAB4FAA4EA94DA84CC3125B
:1050D0006D5E6026AF2FAE2EAD2DAC2CA84C126CA1
:1050E000267810126D98E5272FF527E5263EF52640
:1050F000E5253DF525E5243CF524E4FFFEFDFCAB6C
:1051000053AA52A951A850C3126D5E6038E52325F9
:10511000E025E024ADF582E4340BF583E0FCA3E068
:10512000FDA3E0FEA3E0FFA850126C267810126DDC
:1051300098E5272FF527E5263EF526E5253DF525BB
:10514000E5243CF524E4FFFEFDFCAB57AA56A95527
:10515000A854C3126D5E6063E52325E025E02403B7
:10516000F582E4340BF583E0F8A3E0F9A3E0FAA3B9
:10517000E0FBE52325E025E02439F582E4340AF557
:1051800083E0FCA3E0FDA3E0FEA3E0C39BFFEE9A57
:10519000FEED99FDEC98FCAB57AA56A955A8541200
:1051A0006C267810126D98E5272FF527E5263EF539
:1051B00026E5253DF525E5243CF524300D05C20DF9
:1051C000128DFA90096DE0FEA3E0FFEE3395E0FD4D
:1051D000FCAB27AA26A925A824D3126D5E40169001
:1051E000096DE0FEA3E0FFEE3395E08F278E26F5F4
:1051F00025F524803C90096DE0FEA3E0FFC3E49F09
:10520000FFE49EFE3395E0FDFCAB27AA26A925A866
:1052100024C3126D5E501A90096DE0FEA3E0FFC337
:10522000E49FFFE49EFE3395E08F278E26F525F55B
:1052300024300D05C20D128DFAE52325E0240FF56B
:1052400082E4340BF583E0FEA3E0FFFBAA06EA3319
:1052500095E0F9F8C3E5279BF533E5269AF532E5A5
:105260002599F531E52498F530E52325E025E0245E
:10527000B5F582E4340BF583C083C082E0FCA3E083
:10528000FDA3E0FEA3E02533FFEE3532FEED353120
:10529000FDEC3530FCD082D083126DF9E52325E09A
:1052A00025E024B5F582E4340BF583E0FCA3E0FDB2
:1052B000A3E0FEA3E0FF7BA07A8679017800C31209
:1052C0006D5E501C7FA07E867D017C00E52325E07D
:1052D00025E024B5F582E4340BF583126DF98042A4
:1052E000E52325E025E024B5F582E4340BF583E0E1
:1052F000FCA3E0FDA3E0FEA3E0FF7B607A7979FEEA
:1053000078FFD3126D5E401A7F607E797DFE7CFF50
:10531000E52325E025E024B5F582E4340BF583127E
:105320006DF9300D05C20D128DFAE4F52BF52AF555
:1053300029F528FFFEFDFCAB5BAA5AA959A858C362
:10534000126D5E6026AF33AE32AD31AC30A858126C
:105350006C267810126D98E52B2FF52BE52A3EF57B
:105360002AE5293DF529E5283CF528E4FFFEFDFC6A
:10537000AB5FAA5EA95DA85CC3126D5E6038E523D1
:1053800025E025E024B5F582E4340BF583E0FCA3A9
:10539000E0FDA3E0FEA3E0FFA85C126C26781012EB
:1053A0006D98E52B2FF52BE52A3EF52AE5293DF5ED
:1053B00029E5283CF528E4FFFEFDFCAB63AA62A9C1
:1053C00061A860C3126D5E6064E52325E0240FF5DB
:1053D00082E4340BF583E0FEA3E0FFFBAA06EA3388
:1053E00095E0F9F8E52325E025E024A5F582E434ED
:1053F0000BF583E0FCA3E0FDA3E0FEA3E0C39BFF6D
:10540000EE9AFEED99FDEC98FCAB63AA62A961A847
:1054100060126C267810126D98E52B2FF52BE52A7B
:105420003EF52AE5293DF529E5283CF528E5232523
:10543000E0240FF582E4340BF583E0FEA3E0FFEEF9
:105440003395E0FDFCE52325E025E024A5F582E485
:10545000340BF583126DF9300D05C20D128DFAE58E
:1054600023701CFFFEFDFCAB2BAA2AA929A828C388
:10547000126D5E4005D20F0257D6C20F0257D6E416
:10548000FFFEFDFCAB2BAA2AA929A828C3126D5E3A
:105490004005D2100257D6C2100257D6E52325E0A8
:1054A00025E024B5F582E43409F583E0FCA3E0FDB2
:1054B000A3E0FEA3E0FF74F52523F582E43409F5AB
:1054C00083E0F9F8126D988F278E268D258C249015
:1054D000096DE0FEA3E0FFEE3395E0FDFCAB27AAEB
:1054E00026A925A824D3126D5E401490096DE0FE14
:1054F000A3E0FFEE3395E08F278E26F525F524AE49
:1055000026AF2712B01EE52325E0240FF582E434F0
:105510000BF583E0FCA3E0FDC3EF9DFFEE9CFE33A3
:1055200095E08F338E32F531F530E52325E025E027
:1055300024B5F582E4340BF583C083C082E0FCA37C
:10554000E0FDA3E0FEA3E02533FFEE3532FEED35AE
:1055500031FDEC3530FCD082D083126DF9E5232586
:10556000E025E024B5F582E4340BF583E0FCA3E00C
:10557000FDA3E0FEA3E0FF7BA07A8679017800C35B
:10558000126D5E501C7FA07E867D017C00E5232588
:10559000E025E024B5F582E4340BF583126DF98043
:1055A0003CE52325E025E024B5F582E4340BF583C2
:1055B000E0FCA3E0FDA3E0FEA3E0FFE4FBFAF9F8C2
:1055C000D3126D5E4017E4FFFEFDFCE52325E025C8
:1055D000E024B5F582E4340BF583126DF9E4F52B84
:1055E000F52AF529F528FFFEFDFCAB43AA42A941A7
:1055F000A840C3126D5E602CAF33AE32AD31AC301B
:10560000AB37AA36A935A834126C267810126D98DB
:10561000E52B2FF52BE52A3EF52AE5293DF529E571
:10562000283CF528E4FFFEFDFCAB47AA46A945A8A7
:1056300044C3126D5E603DE52325E025E024B5F509
:1056400082E4340BF583E0FCA3E0FDA3E0FEA3E0DD
:10565000FF7806126D98A844126C26780A126D988D
:10566000E52B2FF52BE52A3EF52AE5293DF529E521
:10567000283CF528E4FFFEFDFCAB4BAA4AA949A84B
:1056800048C3126D5E6064E52325E0240FF582E4D3
:10569000340BF583E0FEA3E0FFFBAA06EA3395E0B6
:1056A000F9F8E52325E025E024A5F582E4340BF59F
:1056B00083E0FCA3E0FDA3E0FEA3E0C39BFFEE9A22
:1056C000FEED99FDEC98FCAB4BAA4AA949A84812FB
:1056D0006C267810126D98E52B2FF52BE52A3EF5F8
:1056E0002AE5293DF529E5283CF528E4FFFEFDFCE7
:1056F000AB2BAA2AA929A828C3126D5E5009E4F58C
:105700002BF52AF529F528E52325E0240FF582E479
:10571000340BF583E0FEA3E0FFEE3395E0FDFCE5FE
:105720002325E025E024A5F582E4340BF583126DF2
:10573000F9E523701CFFFEFDFCAB2BAA2AA929A8C2
:1057400028C3126D5E4005D20F0257D6C20F025712
:10575000D6E4FFFEFDFCAB2BAA2AA929A828C31278
:105760006D5E4004D210806EC210806AE52325E091
:1057700025E024B5F582E43409F583E0FCA3E0FDDF
:10578000A3E0FEA3E0FF74F52523F582E43409F5D8
:1057900083E0F9F8126D988F2B8E2A8D298C28E5DD
:1057A00023701AFFFEFDFCAB2BAA2AA929A828C347
:1057B000126D5E4004D20F801DC20F8019E4FFFEFF
:1057C000FDFCAB2BAA2AA929A828C3126D5E4004B0
:1057D000D2108002C210300D05C20D128DFAE47F86
:1057E00064FEFDFCAB2BAA2AA929A828D3126D5E62
:1057F000400AE4752B64F52AF529F52874FF7F9C8F
:10580000FEFDFCAB2BAA2AA929A828C3126D5E5065
:105810000B74FF752B9CF52AF529F528300D05C270
:105820000D128DFA900971E064016037AF2BAE2A3A
:10583000AD29AC28780A126DACE47B64FAF9F81251
:10584000A611A804A905AA06AB07900B22E0FFE465
:10585000FCFDFE126C26780A126D988F2B8E2A8D15
:10586000298C28300F113010077F0312B1AC80163D
:105870007F0112B1AC800F3010077F0212B1AC80F3
:1058800005E4FF12B1AC300D05C20D128DFAE5230F
:105890007046FFFEFDFCAB2BAA2AA929A828D3122B
:1058A0006D5E40067E007F01801DE4FFFEFDFCABC7
:1058B0002BAA2AA929A828C3126D5E50067EFF7F55
:1058C000FF80047E007F00900B01EFF0AE2AAF2B2B
:1058D00012B01E12B13A8045E4FFFEFDFCAB2BAACC
:1058E0002AA929A828D3126D5E40067E007F018078
:1058F0001DE4FFFEFDFCAB2BAA2AA929A828C31290
:105900006D5E50067EFF7FFF80047E007F00900B5F
:1059100002EFF0AE2AAF2B12B01E12B140300D05CF
:10592000C20D128DFA22205945530000204E4F001F
:105930000020557362000020456E636F646572201D
:1059400033000020506F736974696F6E000020503F
:10595000574D00002043757272656E740000205030
:105960006F736974696F6E20616E64206375727203
:10597000656E74000020256400000D0A00466972FF
:105980006D776172652076657273696F6E3A20007B
:1059900043554646204D4F442076362E312E30005A
:1059A0002E0D0A0D0A0044455649434520494E46EE
:1059B0004F0D0A0049443A2025640D0A004E756DCA
:1059C000626572206F662073656E736F72733A2022
:1059D00025640D0A00537570706C792074656E73C0
:1059E000696F6E3A2025640D0A0050574D204C69AE
:1059F0006D69743A2025640D0A004D4F544F5220B2
:105A0000494E464F0D0A004D6F746F7220726566E5
:105A10006572656E6365733A2000256420004D6FE2
:105A2000746F7220656E61626C65643A200059453E
:105A3000530D0A004E4F0D0A000D0A4D45415355B6
:105A400052454D454E545320494E464F0D0A005382
:105A5000656E736F722076616C75653A0D0A00256C
:105A600064202D3E20256400566F6C7461676520AC
:105A7000286D56293A20256C640043757272656E54
:105A800074203120286D41293A20256C640043752B
:105A90007272656E74203220286D41293A20256C7F
:105AA00064000D0A44455649434520504152414D3A
:105AB00045544552530D0A0050494420436F6E74BB
:105AC000726F6C6C65723A0D0A0050202D3E2025D5
:105AD000660D0A0049202D3E2025660D0A0044204F
:105AE0002D3E2025660D0A0043757272656E742086
:105AF00050494420436F6E74726F6C6C65723A0D3E
:105B00000A00537461727475702061637469766100
:105B100074696F6E3A205945530D0A0053746172CF
:105B20007475702061637469766174696F6E3A2070
:105B30004E4F0D0A00496E707574206D6F64653AA2
:105B4000205553420D0A00496E707574206D6F64C4
:105B5000653A2053656E736F7220330D0A00436FF0
:105B60006E74726F6C204D6F64653A2000506F73D5
:105B70006974696F6E0D0A0050574D0D0A00437528
:105B80007272656E740D0A00506F736974696F6E7E
:105B900020616E642063757272656E740D0A005325
:105BA000656E736F72207265736F6C7574696F6E5A
:105BB0003A0D0A004D6561737572656D656E7420EE
:105BC0004F66667365743A0D0A002564202D3E20E9
:105BD000256C64004D6561737572656D656E74202A
:105BE0004D756C7469706C6965723A0D0A002564B4
:105BF000202D3E202566000A43757272656E742062
:105C0000636F6E74726F6C6C657227732070617253
:105C1000616D65746572733A0A50726F706F727459
:105C2000696F6E616C206761696E3A2000256600BD
:105C300053617475726174696F6E2076616C7565FD
:105C40003A20002568640044656164207A6F6E65BF
:105C50003A20000D0A0A00506F736974696F6E2054
:105C60006C696D6974206163746976653A20256496
:105C700000506F736974696F6E206C696D69742070
:105C80006D6F746F722025643A20696E66202D3E18
:105C900020256C64202000737570202D3E20256C1B
:105CA000640D0A004D61782073746966666E6573D1
:105CB000733A2025640043757272656E74206C69B6
:105CC0006D69743A202564004375666620737461BB
:105CD000727475702061637469766174696F6E3A6D
:105CE000205945530D0A004375666620737461722E
:105CF0007475702061637469766174696F6E3A209F
:105D00004E4F0D0A004375666620616374697665BF
:105D10003A205945530D0A00437566662061637445
:105D20006976653A204E4F0D0A0064656275673AE0
:105D300020256C640000000000000000000000004E
:105D40000000000000000000000000000000000053
:105D50000000000000000000000000000000000043
:105D60000000000000000000000000000000000033
:105D70000000000000000000000000000000000023
:10631000000031202D204465766963652049443AA8
:106320000032202D20506F736974696F6E205049C0
:1063300044205B502C20492C20445D3A0033202D12
:106340002043757272656E7420504944205B502C56
:1063500020492C20445D3A0034202D205374617272
:106360007475702041637469766174696F6E3A0068
:106370000000000035202D20496E707574206D6F6F
:1063800064653A00000000000000000000000036D4
:10639000202D20436F6E74726F6C206D6F64653AB0
:1063A00000000000000000000000000000000000ED
:1063B00000000000000037202D205265736F6C75BF
:1063C00074696F6E733A0000000000000038202DE1
:1063D000204D6561737572656D656E74204F6666DC
:1063E000736574733A0039202D204D756C74697093
:1063F0006C696572733A003130202D20506F732E16
:10640000206C696D6974206163746976653A000077
:106410000000003131202D20506F732E206C696DEB
:10642000697473205B696E662C207375705D3A0029
:106430003132202D204D6178207374657073205B9C
:106440006E65672C20706F735D3A003133202D200C
:1064500043757272656E74206C696D69743A0031AF
:1064600034202D2043757272656E742070726F70C7
:106470006F7274696F6E616C206761696E3A00318A
:1064800035202D2043757272656E742064696666CE
:106490006572656E63652073617475726174696F8E
:1064A0006E3A003136202D2043757272656E74206D
:1064B00064656164207A6F6E653A003137202D2063
:1064C000437566662061637469766174696F6E20D6
:1064D000666C61673A00000000003138202D2050C2
:1064E0006F7765722074656E73696F6E3A00000095
:1064F00030202D3E205573620A31202D3E205368F6
:10650000616674277320706F736974696F6E20639E
:106510006F6E74726F6C7320746865206D6F746F2A
:1065200072730A0030202D3E205B31207475726E2C
:106530005D0A31202D3E205B32207475726E735DD2
:106540000A32202D3E205B34207475726E735D0A12
:1065500033202D3E205B38207475726E735D0A34D3
:10656000202D3E205B3136207475726E735D0A35C6
:10657000202D3E205B3332207475726E5D0A36200A
:106580002D3E205B3634207475726E5D0A37202DE7
:106590003E205B313238207475726E735D0A38208C
:1065A0002D3E205B323536207475726E735D0A00A5
:1065B00030202D3E20506F736974696F6E0A312050
:1065C0002D3E2050574D0A32202D3E2043757272C9
:1065D000656E740A33202D3E20506F736974696FA5
:1065E0006E2D43757272656E740A0030202D3E2048
:1065F00044656163746976617465205B4E4F5D0A22
:1066000031202D3E204163746976617465205B59A9
:1066100045535D0A00EC4D6011E8497017ED33EC0D
:106620003304600DE4FCFFFEFD22E933E83304701F
:10663000F80268DE1268A958046009E4CC2481508D
:10664000062850090268E82840030268E5C0E0EB2C
:106650004A7044B98006D0E0FB0268D4EF4E701C4B
:10666000BD8008EBFFEAFEE9FD80EBE98DF0A4FEBA
:10667000E5F00266FEE9CDF9EAFEEBFFEF89F0A452
:10668000FCE5F0CE89F0A42EFFE435F0CD89F0A42E
:106690002DFEE435F08067EF4E7005BD80D780C3D6
:1066A000EF8BF0A4ACF0EE8BF0A42CFCE435F0F80A
:1066B000EF8AF0A42CE5F038FCE433CB8DF0A42C69
:1066C000FCE5F03BF8EE8AF0A42CFCE5F038F8E4A9
:1066D00033CF89F0A42CFCE5F038CF3400CE89F01C
:1066E000A42FFFE5F03EFEE433C98DF0A42EFEE5B5
:1066F000F039CD8AF0A42FFFE5F03EFEE43DFD33F6
:10670000D0E0FB50070BBB000F0268E8EC2CFCEF5D
:1067100033FFEE33FEED33FD0268C00268E8EC5D46
:10672000046005E8590470030268DE1268A9580481
:1067300060F6EC4860F2EC7004FDFEFF22C860DBFE
:106740002481C85009C398600250060268E5985039
:10675000CAF582E9294B4A7005AB820268D475F00C
:10676000007C1A7880C3EF9BEE9AED99400DC3EF41
:106770009BFFEE9AFEED99FDE842F0DC23ACF0D0F1
:10678000E0FFD0E0FED0E0FDAB8220E7101BEB6025
:10679000BAEC2CFCEF33FFEE33FEED33FD0268C0A4
:1067A000E803F830E705C0F075F000EF2FFFEE3397
:1067B000FEED33FD40B830E7C280AA74F8CC6480A7
:1067C000CCC86480C8F58204604FC3EB9FF5F0EA43
:1067D0009E42F0E99D42F0E89C45F0603C501DE58A
:1067E000825FFFE582D313CB5BCBF42B5582FB504A
:1067F000280ABA002409B9002008801DE5825BFB45
:10680000E582D313CF5FCFF4C3132F5582FF500916
:106810000EBE00050DBD00010CC3EB9FF5F0EA9E16
:1068200042F0E99D42F0E89C45F06007CC4820E743
:1068300001B3EC2275F020800E75F010800575F024
:10684000087D007E007F003392D530D503126D5055
:10685000EC334010EF33FFEE33FEED33FDEC33FC51
:10686000D5F0ED22E5F0247EA2D513CC92E7CDCE73
:10687000FF22EDD2E7CD33EC3392D524814006E4FC
:10688000FFFEFDFC22FCE4CFCECDCC24E050117401
:10689000FF80EDC3CC13CCCD13CDCE13CECF13CF11
:1068A0000470F030D5DE026D50E9D2E7C933E83329
:1068B000F892D5EDD2E7CD33EC33FC5002B2D522BD
:1068C000EC30E7100FBF000C0EBE00080DBD000439
:1068D0000BEB6014A2D5EB13FCED92E7FD2274FFE5
:1068E000FCFDFEFF22E480F8A2D574FF13FC7D803E
:1068F000E480EFF920E73624F950037907E4F42423
:1069000002FBE582158270021583DBF6E024FB5062
:106910001BE96014E4F0E582158270021583E0043F
:10692000F0B40A08E4F0D9EE7401F00A22C2D522CC
:10693000ED33EC3392D5FA602AB4FF33EDC2E77B36
:10694000FF60067A697955E4227A69795E20D50478
:106950007A697959224E614E002B494E46002D49E5
:106960004E4600E47A08F0A3DAFC7B00740722C0EC
:1069700083C082ECC0E0EDC0E0EEC0E0EFC0E0EA32
:1069800075F010A4CAABF075F04DA42BFBE435F004
:10699000FCEA2410FAEB34C5FBEC34D9FCEDC2E779
:1069A000FF75F056A4F42411C5F0F434C58FF0A49B
:1069B0002AE5F03BE43CF020E714126B5DD0E0FFE9
:1069C000D0E0FED0E0FDD0E0FC12671E8014F4049D
:1069D000126B5DD0E0FFD0E0FED0E0FDD0E0FC1215
:1069E0006615D082D083E0FAEDD2E7CD33EC3324C4
:1069F00082FBE4C3CF33CFCE33CECD33CD33DBF305
:106A00007B0775F00A846004F0A31B0AE5F0F0A38D
:106A10008FF0740AA4FFACF08EF0740AA42CFEACC4
:106A2000F050010C8DF0740AA42CFDE435F0F0A3B5
:106A3000DBDE7407220268DEE86480F8E933E833BD
:106A400060110460F0ED33EC337009E8FCE9FDEA15
:106A5000FEEBFF220460DED3EB9FEA9EE99DE8C2D5
:106A6000E78CF0C2F795F0400CE8CCF8E9CDF9EAF4
:106A7000CEFAEBCFFB1268A985D0F0580470032042
:106A8000D5B3E80470075002B2D50268E892D5EC9D
:106A90000460F7E4CCC0E0C398F8603B9418600849
:106AA000400DD0E0FB0268C0E4FBFAC9FC8028E896
:106AB00030E406E4C9FBE4CAFCE830E305E4C9CAF3
:106AC000CBFCE854076010F8C3E913F9EA13FAEBBA
:106AD00013FBEC13FCD8F130F52FC3E49CFCEF9BC7
:106AE000FFEE9AFEED99FDD0E0FBEF4E4D4C70129B
:106AF00022DB030268E5EC2CFCEF33FFEE33FEED06
:106B000033FDED30E7EB0268C0EF2BFFEE3AFEED10
:106B100039FDD0E0FB50130BBB00030268E8ED1316
:106B2000FDEE13FEEF13FFEC13FC0268C03F800084
:106B3000004120000042C80000447A0000461C408A
:106B40000047C35000497424004B1896804CBEBCCB
:106B5000205A0E1BCA6753C21C749DC5AEFB60064B
:106B60005407601C2323126B8BEB54386009126BA3
:106B700077126B86126615ECF8EDF9EEFAEFCB2280
:106B8000EB126B8680F1543803241C906B2DFE931E
:106B9000FC0EEE93FD0EEE930ECE93FF22BB01068C
:106BA00089828A83E0225002E722BBFE02E3228927
:106BB000828A83E49322BB010CE58229F582E58376
:106BC0003AF583E0225006E92582F8E622BBFE066C
:106BD000E92582F8E222E58229F582E5833AF58308
:106BE000E49322BB010689828A83F0225002F722B5
:106BF000BBFE01F322EF8DF0A4A8F0CF8CF0A42807
:106C0000CE8DF0A42EFE22BB010A89828A83F0E594
:106C1000F0A3F0225006F709A7F01922BBFE06F3F5
:106C2000E5F009F31922E88FF0A4CC8BF0A42CFC3A
:106C3000E98EF0A42CFC8AF0EDA42CFCEA8EF0A4E2
:106C4000CDA8F08BF0A42DCC3825F0FDE98FF0A471
:106C50002CCD35F0FCEB8EF0A4FEA9F0EB8FF0A468
:106C6000CFC5F02ECD39FEE43CFCEAA42DCE35F0A4
:106C7000FDE43CFC2275F008758200EF2FFFEE3337
:106C8000FECD33CDCC33CCC58233C5829BED9AEC9F
:106C900099E58298400CF582EE9BFEED9AFDEC9909
:106CA000FC0FD5F0D6E4CEFBE4CDFAE4CCF9A88213
:106CB00022B800C1B90059BA002DEC8BF084CFCEB8
:106CC000CDFCE5F0CBF97818EF2FFFEE33FEED3376
:106CD000FDEC33FCEB33FB10D703994004EB99FB3D
:106CE0000FD8E5E4F9FA227818EF2FFFEE33FEED26
:106CF00033FDEC33FCC933C910D7059BE99A400733
:106D0000EC9BFCE99AF90FD8E0E4C9FAE4CCFB2249
:106D100075F010EF2FFFEE33FEED33FDCC33CCC812
:106D200033C810D7079BEC9AE899400AED9BFDEC1D
:106D30009AFCE899F80FD5F0DAE4CDFBE4CCFAE45C
:106D4000C8F922CFF4CFCEF4CECDF4CDCCF4CC2202
:106D5000C3E49FFFE49EFEE49DFDE49CFC22EB9FC8
:106D6000F5F0EA9E42F0E99D42F0EC6480C8648050
:106D70009845F022EB9FF5F0EA9E42F0E99D42F043
:106D8000E89C45F022E8600FECC313FCED13FDEE28
:106D900013FEEF13FFD8F122E86010ECA2E713FC1A
:106DA000ED13FDEE13FEEF13FFD8F022E8600FEFB6
:106DB000C333FFEE33FEED33FDEC33FCD8F122BBE1
:106DC000010789828A8302708B5005E9F802707F7F
:106DD000BBFE05E9F802709789828A830270A3BB23
:106DE000010789828A83026DF95005E9F80270B3C0
:106DF000BBFE05E9F80270BF22ECF0A3EDF0A3EEB4
:106E0000F0A3EFF022F8E0FBA3A3E0F925F0F0E512
:106E100082158270021583E0FA38F022EBF0A3EAC3
:106E2000F0A3E9F022D083D082F8E49370127401C9
:106E300093700DA3A393F8740193F5828883E47390
:106E40007402936860EFA3A3A380DFE50F2582F5AA
:106E500082E50E3583F583B50E0485820F2210AFCF
:106E60000685820FF50E2285820FF50ED2AF22EC39
:106E70008EF0A4CCC5F0CCCDF8EFA4CEC5F02DFD9E
:106E8000E43CFCE8A42EC8C5F03DFDE43CFCEFA4C6
:106E9000FFE5F028FEE43DFDE43CFC22E709F608AE
:106EA000DFFA8046E709F208DFFA803E88828C83A9
:106EB000E709F0A3DFFA8032E309F608DFFA806E13
:106EC000E309F208DFFA806688828C83E309F0A385
:106ED000DFFA805A89828A83E0A3F608DFFA804EBF
:106EE00089828A83E0A3F208DFFA804280D280FAA6
:106EF00080C680D4805580F28029801080A680EAE8
:106F0000809A80A880DA80E280CA802988848C8573
:106F100089828A83E493A30586F0A30586DFF5DEE4
:106F2000F3800B89828A83E493A3F608DFF9ECFAF5
:106F3000A9F0EDFB2288848C8589828A83E0A305F1
:106F400086F0A30586DFF6DEF480E389828A83E497
:106F500093A3F208DFF980D688F0EF60010E4E604F
:106F6000CD88F0ED2402B4040050C3F582EB240276
:106F7000B4040050B92323458223906EEC73E709D3
:106F8000F60870FA8046E709F20870FA803E8882B7
:106F90008C83E709F0A370FA8074E309F60870FAAD
:106FA000806CE309F20870FA806488828C83E309BC
:106FB000F0A370FA805889828A83E0A3F60870FAF9
:106FC000804C89828A83E0A3F20870FA804080D2E4
:106FD00080FA80C680D4805180F28027801080A6FD
:106FE00080EA809A80A880DA80E280CA802788843C
:106FF0008C8589828A83E493A30586F0A305867035
:10700000F5800B89828A83E493A3F60870F9ECFA81
:10701000A9F0EDFB2288848C8589828A83E0A30510
:1070200086F0A3058670F680E589828A83E493A3BF
:10703000F20870F980D888F0ED2402B4040050CE34
:10704000F582EB2402B4040050C42323458223902C
:107050006FCE73C5F0F8A3E028F0C5F0F8E582150F
:107060008270021583E038F022A3F8E0C5F025F025
:10707000F0E582158270021583E0C838F0E822E658
:10708000FC08E6FD08E6FE08E6FF22E0FCA3E0FDC2
:10709000A3E0FEA3E0FF22E2FC08E2FD08E2FE0816
:1070A000E2FF22E493FC740193FD740293FE7403E7
:1070B00093FF22ECF608EDF608EEF608EFF622EC68
:1070C000F208EDF208EEF208EFF222E578240EF570
:1070D00082E43409F583E005782290090B30080337
:1070E00090090EE475F001126E05026B9D2001E916
:1070F0007F2ED2018018EF540F2490D43440D4FF57
:1071000030050BEF24BFB41A0050032461FFE5796A
:1071100060021579057CE57C7002057B30080E90D5
:10712000090BE475F001126E05EF026BE302AB1C74
:107130007403D2088003E4C208F57890090B126E3C
:107140001CE4F579F57BF57CE57960077F20127109
:107150000E80F5757AFFC202C201C203C204C206E4
:10716000C207C2091270DAFF700D3008057F0012E5
:10717000711FAF7CAE7B22B4255FC2D5C2051270F1
:10718000DAFF24D0B40A00501A75F00A787930D5A5
:107190000508B6FF0106C6A426F620D5047002D263
:1071A0000480D924CFB41A00EF5004C2E5D20502FE
:1071B0007411D20280C6D20180C0D20380BCD2D565
:1071C00080BAD20680B47F2012710E2003077401AA
:1071D000B5790040F11270CBFF12710E027148D2E6
:1071E00009D20780951270CBFB1270CBFA1270CBCC
:1071F000F94A4B7006790F7A757BFF20032EE579EB
:10720000602A7E008E82758300126BB660060EEED9
:10721000657A70F0C2D5EBC0E0EAC0E0E9C0E0EE0C
:10722000127472D0E0F9D0E0FAD0E0FB126B9DFF4F
:1072300060AAEBC0E0EAC0E0E9C0E012710ED0E065
:107240002401F9D0E03400FAD0E0FBE57A0460DCF8
:10725000D57AD98087D20380A212745460F7E57A78
:107260007001041268F3A97A600DE57A600914F5DB
:107270007A1274FCEF60F3EA30E702F404C3995029
:1072800079EAF4257A0430E701E404F57A800D12F6
:10729000745460C1EA057A257A1268F3EA90093AD3
:1072A000F030E701E4257A04D57A042006011412AF
:1072B0007472E4C0E01274FC90093AE0601320E7B5
:1072C0000714F01270F6802204F0D0E014C0E07FC2
:1072D000001270F6E57A60071270ED157A800B30B7
:1072E00006031270EDD0E0027148D0E00480C412B1
:1072F0007454609EE57A041268F390093AEAF0E566
:107300007A200602600104240412747274FF04C01F
:10731000E01274FC1270F6E57A2006026003127027
:10732000EDD0E0B57AE87F4512710090093AE07F30
:107330002B30E7047F2DF404C0E012710ED0E0750D
:10734000F00A84C0F01270F7D0E01270F7027148B2
:10735000791080027908C207C2098008D2D5790A5B
:107360008004790AC2D5E57A047002F57AE4FAFD60
:10737000FEFF1270CBFC7B082002131270CBFD7B4A
:107380001030010A1270CBFE1270CBFF7B20EC3361
:1073900082D592D55013C3E43001069FFFE49EFED0
:1073A000E42002039DFDE49CFCE4CBF8C202EC70F7
:1073B0000CCFCECDCCE824F8F870F38017C3EF33B0
:1073C000FFEE33FEED33FDEC33FCEB33FB99400273
:1073D000FB0FD8E9EB300205F8D0E0C448B202C098
:1073E000E00AEC4D4E4F78207B0070C2EAB57A007F
:1073F00040BCC0E0127474D0F0D0E0200204C4C0DD
:10740000E0C4B202C0F01270F7D0F0D5F0EB027118
:1074100048126E2571E55373505871B64C71B242E3
:1074200073544F735C44735C4971CB437362557200
:107430008F4672EF45725947752F5071BA2D71BE44
:107440002E71E12B71C22371DF2075182A717A48E1
:10745000000071D9E57AB4FF03757A061270CBFC8F
:107460001270CBFD1270CBFE1270CBFF900933026D
:107470006930790AA2D5200414300609B910020433
:1074800004B9080104A2D5200702500104200368B2
:107490009203B579005034C0E07F203004197F306A
:1074A000A20372077206500F1274CBC203C207C246
:1074B00006C2097F30800F300603E9C0E012710E6A
:1074C000300603D0E0F9D0E0B579CC3006177F3034
:1074D000B9100C12710E7F583005077F788003B900
:1074E000080312710E3003057F2D02710E7F2020DC
:1074F00009F87F2B2007F322920380CF7F00B40787
:1075000000500B2433F582E43409F583E0FF222890
:107510006E756C6C2900D2021270CB3002F8C20278
:10752000787930D50108F602717A2D504349581206
:1075300070CB2403B405004001E490752A931270C7
:10754000FF743A1270FFD2047579040273507567A4
:1075500002900970E0600302781D900A04E0FCA329
:10756000E0FDA3E0FEA3E0FF900981E0F8A3E0F9CD
:10757000A3E0FAA3E0FB1267BB6058900AEEE0FCC0
:10758000A3E0FDA3E0FEA3E0FFEC126834900981C4
:10759000E0F8A3E0F9A3E0FAA3E0FB12671E12688B
:1075A00072900AEE126DF9900AEEE0FCA3E0FDA3E2
:1075B000E0FEA3E0FFEC126834900A04E0F8A3E0D8
:1075C000F9A3E0FAA3E0FB126615126872900AEEC6
:1075D000126DF9900A08E0FCA3E0FDA3E0FEA3E031
:1075E000FF900985E0F8A3E0F9A3E0FAA3E0FB121D
:1075F00067BB6058900AF2E0FCA3E0FDA3E0FEA3A5
:10760000E0FFEC126834900985E0F8A3E0F9A3E00C
:10761000FAA3E0FB12671E126872900AF2126DF96B
:10762000900AF2E0FCA3E0FDA3E0FEA3E0FFEC1271
:107630006834900A08E0F8A3E0F9A3E0FAA3E0FBBD
:10764000126615126872900AF2126DF99009F8E04C
:10765000FCA3E0FDA3E0FEA3E0FF900975E0F8A322
:10766000E0F9A3E0FAA3E0FBC3126D5E6057900A55
:10767000EEE0F8A3E0F9A3E0FAA3E0FBC000C0014C
:10768000C002C003900975E0F8A3E0F9A3E0FAA3F3
:10769000E0FB9009F8E0FCA3E0FDA3E0FEA3E0C35B
:1076A0009BFFEE9AFEED99FDEC98FCD003D002D042
:1076B00001D000EB2FFFEA3EFEE93DFDE83CFC90E7
:1076C0000AEE126DF99009FCE0FCA3E0FDA3E0FED8
:1076D000A3E0FF900979E0F8A3E0F9A3E0FAA3E0C2
:1076E000FBC3126D5E6057900AF2E0F8A3E0F9A3C5
:1076F000E0FAA3E0FBC000C001C002C0039009791A
:10770000E0F8A3E0F9A3E0FAA3E0FB9009FCE0FCB9
:10771000A3E0FDA3E0FEA3E0C39BFFEE9AFEED997C
:10772000FDEC98FCD003D002D001D000EB2FFFEA93
:107730003EFEE93DFDE83CFC900AF2126DF990092D
:107740008DE0700302781DA3E0FCA3E0FDA3E0FE42
:10775000A3E0FF900AEEE0F8A3E0F9A3E0FAA3E0CB
:10776000FBC3126D5E501490098EE0FCA3E0FDA3F4
:10777000E0FEA3E0FF900AEE126DF9900992E0FCA2
:10778000A3E0FDA3E0FEA3E0FF900AF2E0F8A3E08F
:10779000F9A3E0FAA3E0FBC3126D5E5014900992C6
:1077A000E0FCA3E0FDA3E0FEA3E0FF900AF2126D6F
:1077B000F9900996E0FCA3E0FDA3E0FEA3E0FF90B2
:1077C0000AEEE0F8A3E0F9A3E0FAA3E0FBD3126D20
:1077D0005E4014900996E0FCA3E0FDA3E0FEA3E068
:1077E000FF900AEE126DF990099AE0FCA3E0FDA368
:1077F000E0FEA3E0FF900AF2E0F8A3E0F9A3E0FACC
:10780000A3E0FBD3126D5E401490099AE0FCA3E064
:10781000FDA3E0FEA3E0FF900AF2126DF99009BF0C
:10782000E0FF90093CE0FE6F603F8E6AE4FFFE12CD
:107830009641EF601B7568017569017B007A0079DC
:1078400068E567FD7C00900024E56AF0129AD62274
:10785000E4F568F569FB7A007968E567FD7C0090DE
:107860000024E56AF0129AD622E4FFFE129641EF58
:1078700060067F0112AD7222E4FF12AD7222900009
:1078800003EDF08F23E523C394034003027B7230A2
:107890000B227B03AF031BEF6018E4FFFEFDFCEB44
:1078A00025E025E024BDF582E4340BF583126DF963
:1078B00080E2C20BE523701312B05FEFEEED5403CC
:1078C000FDE4FC900004126DF98041E523B401133E
:1078D00012B069EFEEED5403FDE4FC900004126D6C
:1078E000F98029E523B4021312B073EFEEED5403CF
:1078F000FDE4FC900004126DF9801112B07DEFEEF2
:10790000ED5403FDE4FC900004126DF97B017A0054
:10791000790412A0B44003027B72900003E0602D52
:10792000A3E0FCA3E0FDA3E0FEA3E054C0FFEEED66
:107930005403FDE4FC7802126D85C3E49FFF74805C
:107940009EFE3395E0FDFCA3126DF9804B90000480
:10795000E0FCA3E0FDA3E0FEA3E054C0FFEEED5485
:1079600003FDE4FC7802126D85C3E49FFB74809EE6
:10797000FAE52325E025E024F8F582E43409F583CF
:10798000E0A3E0A3E0FEA3E02BFFEA3EFE3395E098
:10799000FDFC900008126DF9301127900008E0FC02
:1079A000A3E0FDA3E0FEA3E0FFE52325E025E0241E
:1079B000BDF582E4340BF583126DF9E523B40202C0
:1079C000C211E52325E025E024BDF582E4340BF562
:1079D00083E0F8A3E0F9A3E0FAA3E0FB900008E05D
:1079E000FCA3E0FDA3E0FEA3E0C39BFFEE9AFEED47
:1079F00099FDEC98FCA3126DF9E4FF7EC0FDFC90AC
:107A0000000CE0F8A3E0F9A3E0FAA3E0FBD3126DC9
:107A10005E401074132523F582E4340BF583E014E3
:107A2000F080687F007E407DFF7CFF90000CE0F8D6
:107A3000A3E0F9A3E0FAA3E0FBC3126D5E5010745B
:107A4000132523F582E4340BF583E004F0803C90A9
:107A5000000CE0A3E0A3E0FEA3E0FF12B01ED3EF12
:107A60009400EE648094C0402274C92523F582E41A
:107A7000340BF583E004F074C92523F582E4340B5C
:107A8000F583E0C3940A5003027B7274C92523F581
:107A900082E4340BF583E4F0900008E0FCA3E0FD01
:107AA000A3E0FEA3E0FFE52325E025E024BDF58269
:107AB000E4340BF583126DF9900008E0F8A3E0F9C7
:107AC000A3E0FAA3E0FBC00074132523F582E4349D
:107AD0000BF583E0FF3395E0FEFDFC7810126DACF2
:107AE000D000EB2FFFEA3EFEE93DFDE83CFC9000B4
:107AF00008126DF9E52325E025E02481F582E434C0
:107B000009F583E0FCA3E0FDA3E0FEA3E0FFE4FBB6
:107B1000FA7980783F1267BB6038900008E0FCA3D8
:107B2000E0FDA3E0FEA3E0FFEC126834E52325E0CE
:107B300025E02481F582E43409F583E0F8A3E0F937
:107B4000A3E0FAA3E0FB1266151268729000081217
:107B50006DF9900008E0FCA3E0FDA3E0FEA3E0FFC8
:107B6000E52325E025E02403F582E4340BF58312B8
:107B70006DF92212B1D012A4A2E47F64FEFDFC12C2
:107B80009BEB7F0112B19412ABB112AE0712A94662
:107B900012AA3D12AEC57EB17FDB12AC1412AE9FAD
:107BA0007EB17FD812AC3312AE1AE4FF12B13AE4C0
:107BB000FF12B140E4FF12B1ACE4FF12B18212AE89
:107BC0002D12AE4012AE5312AE6612ACDF7F011220
:107BD000B1B8E4900007F0A3F0FBFA7D017F021238
:107BE000A53A900001EFF012A719900002EFF0E023
:107BF000FBFF9000077486F07D067C00129C737B6F
:107C0000017A0A79FBE9EAE4AB01900002E0FF7D2A
:107C1000107C4E129E6E900001E0FFA3E0FD12ACBE
:107C200071900001E0FF7D0112A4EFE4FF12B17C2E
:107C300012AE7912AE8CD2AF9044F474FDF0E47FB2
:107C40000AFEFDFC129BEB9000007402F090000015
:107C5000E0FF14F0EF6018E4FFFEFDFCE025E025F6
:107C6000E024B5F582E43409F583126DF980DE90E5
:107C700000007403F0900000E0FF14F0EF6025E4D2
:107C8000FFFEFDFCE0FB25E025E02403F582E43463
:107C90000BF583126DF974132BF582E4340BF58325
:107CA000E4F080D190096FE09009BDF0E4900AE91A
:107CB000F0A3F0900AEDF0FFFEFDFC900A00126DBB
:107CC000F9E4FFFEFDFC9009FC126DF9E4FFFEFDF6
:107CD000FC9009F8126DF9E4FFFE129641EF60077F
:107CE0007F0112AD728005E4FF12AD72E4900000D6
:107CF000F0900000E0FFC39403503E7D0112787EB7
:107D0000900000E0FB25E025E02403F582E4340B3D
:107D1000F583E0FCA3E0FDA3E0FEA3E0FF126D50BD
:107D2000EB25E025E024F8F582E43409F583126DB3
:107D3000F9900000E004F080B8E4FFFE129641EFF5
:107D400060077F0112AD728005E4FF12AD7278EE1C
:107D50007C0A7D017B017A0979B57E007F09126F6B
:107D6000589009BDE0FF12B182E4900B22F0C20EE0
:107D70009009AAE024FF920AE4900A38F0C20B901E
:107D80000A24E070077F0112B1C48005E4FF12B13C
:107D9000C4E4FF12B1A612937E12B1A0EF7020309E
:107DA0000D0E7F0112B1CAC20DC20C128DFA80E90C
:107DB000300CE67F0112B1CAE4900AF6F080DA7F57
:107DC0000112B1A612B1A0EF640160F812ADF3EF99
:107DD00030E7BE12AA3D80B9227F02900003748C66
:107DE000F0A3F07B017A007903EFFD7C009009108D
:107DF00014F012990312AF1C900017126DF9900A3B
:107E000069E0648E6048300D05C20D128DFA12AF24
:107E10001C90001B126DF990001BE0F8A3E0F9A381
:107E2000E0FAA3E0FB900017E0FCA3E0FDA3E0FE76
:107E3000A3E0C39BFFEE9AFEED99FDEC98FC7B203E
:107E40007AAA79447800C3126D7450B2C20A200A2B
:107E500003027FEE900A6AE0FEA3E0FFC3900A33BC
:107E6000E09FEE6480F8900A32E06480985005E06C
:107E7000FEA3E0FFD3900A35E09FEE6480F8900AFD
:107E800034E06480984005E4FEFF800F900A34E0FF
:107E9000FCA3E0FDC3EF9DFFEE9CFEAD07AC06EC3E
:107EA000126839900A2EE0F8A3E0F9A3E0FAA3E003
:107EB000FB1266157B007AFF797F7847126615E41E
:107EC000FBFA79B4784412671E126872900013129C
:107ED0006DF9900013E0FCA3E0FDA3E0FEA3E0FF3A
:107EE0009009F5E0F9F8126DAC126D50900AEE129F
:107EF0006DF9900013E0FCA3E0FDA3E0FEA3E0FF1A
:107F00009009F6E0F9F8126DAC900AF2126DF99052
:107F1000098DE07003027FEEA3E0FCA3E0FDA3E087
:107F2000FEA3E0FF900AEEE0F8A3E0F9A3E0FAA3D5
:107F3000E0FBC3126D5E501490098EE0FCA3E0FDDF
:107F4000A3E0FEA3E0FF900AEE126DF9900992E023
:107F5000FCA3E0FDA3E0FEA3E0FF900AF2E0F8A39B
:107F6000E0F9A3E0FAA3E0FBC3126D5E50149009A0
:107F700092E0FCA3E0FDA3E0FEA3E0FF900AF21272
:107F80006DF9900996E0FCA3E0FDA3E0FEA3E0FFFD
:107F9000900AEEE0F8A3E0F9A3E0FAA3E0FBD31225
:107FA0006D5E4014900996E0FCA3E0FDA3E0FEA303
:107FB000E0FF900AEE126DF990099AE0FCA3E0FD53
:107FC000A3E0FEA3E0FF900AF2E0F8A3E0F9A3E04B
:107FD000FAA3E0FBD3126D5E401490099AE0FCA373
:107FE000E0FDA3E0FEA3E0FF900AF2126DF92290FB
:107FF0000A38E024FE70030280B3147003028198F3
:10800000146076147003028185240460030281B930
:1080100012B10C90093DE0FCA3E0FDA3E0FEA3E05B
:10802000FF900BCC126DF9900941E0FCA3E0FDA399
:10803000E0FEA3E0FF900BD0126DF9900945E0FC43
:10804000A3E0FDA3E0FEA3E0FF900BD4126DF9E4E2
:10805000FFFEFDFC900AEE126DF9E4FFFEFDFC90C0
:108060000AF2126DF9900AF6E0540370057F0312CC
:10807000B182900A387404F022900BD8E004F0E04A
:10808000640A60030281B9F07F997E19FDFC9009B2
:108090003D126DF9E4FFFEFDFC900941126DF9E41B
:1080A0007FCC7E4CFDFC900945126DF9900A387426
:1080B00002F022900AEEE0FCA3E0FDA3E0FEA3E0C4
:1080C000245BFFE43EFEE43DFDE43CFC900AEE123E
:1080D0006DF9900AF2E0FCA3E0FDA3E0FEA3E0C38B
:1080E000945BFFEE9400FEED9400FDEC9400FC9098
:1080F0000AF2126DF9D3900B10E094E8900B0FE0A8
:10810000648094835013900B12E094E8900B11E07C
:108110006480948350030281B99009B5E0A3E0A381
:10812000E0FFA3E0900A21CFF0A3EFF0900BCCE0AA
:10813000FCA3E0FDA3E0FEA3E0FF90093D126DF972
:10814000900BD0E0FCA3E0FDA3E0FEA3E0FF9009CC
:1081500041126DF9900BD4E0FCA3E0FDA3E0FEA377
:10816000E0FF900945126DF9E4FFFEFDFC900AEE78
:10817000126DF9E4FFFEFDFC900AF2126DF9900A0F
:10818000387405F022900BD8E004F0E0640A7029FE
:10819000F0900A387403F022900AF6E05403700459
:1081A000FF12B1827F087E00129641E4FFFE129614
:1081B00041E4900A38F012B105229009BF7401F031
:1081C000E47F997E19FDFCA3126DF9E4FFFEFDFC2E
:1081D0009009C4126DF9E47FCC7ECCFDFC9009C8F7
:1081E000126DF9E4FFFE7D06FC9009CC126DF9E4F6
:1081F000FFFEFDFC9009D0126DF9E4FFFEFDFC903E
:1082000009D4126DF97F677EE67DFF7CFF9009D867
:10821000126DF9E4FFFEFDFC9009DC126DF9E4FF3C
:10822000FEFDFC9009E0126DF9E4FFFE7D02FC907A
:1082300009E4126DF9E4FFFEFDFC9009E8126DF906
:10824000E4FFFEFDFC9009EC126DF9E49009F2F0F8
:10825000A3F0A37403F0E4900A24F0900A10F0F560
:1082600067E567C3940250377FD07E8A7DFF7CFF2D
:10827000E56725E025E02411F582E4340AF5831250
:108280006DF9E47F307E75FDFCE56725E025E0248F
:1082900019F582E4340AF583126DF9056780C2E4AA
:1082A000F567E567C39403502BE4FFFE7D807C3FB8
:1082B000E56725E025E02404F582E4340AF583121D
:1082C0006DF974F52567F582E43409F5837402F0DD
:1082D000056780CEE4FFFEFDFC900A2E126DF9E4E6
:1082E000900A32F0A3F0A3F0A3F0900A2DF0900AC8
:1082F00036741FF0A37440F0E4FFFEFDFC9009F516
:10830000E0F9F8126DAC9009F8126DF9E4FFFEFD8A
:10831000FC9009F6E0F9F8126DAC9009FC126DF9C9
:10832000E4FFFEFDFC9009F7E0F9F8126DAC900A4D
:1083300000126DF9E4900A21F0A3F09009F07405A1
:10834000F0A374DCF09009BE7401F0E4FFFE129615
:1083500041EF600E7F087E00129641EF60047F01BE
:1083600080027F0022900004ECF0A3EDF0A3EAF07D
:10837000A3EBF0900009E0FED394005003028505C2
:10838000EED394014003028505EF24FC601524FD23
:10839000603C14606224FE700302842024096003A0
:1083A000028449900008E0D3940F40117B0C7A01BD
:1083B000791812AFFA90000AEFF002844E7B0C7A23
:1083C00001791C12AFFA90000AEFF002844E90007F
:1083D00008E0D3940F40107B0C7A01791912AFFAA0
:1083E00090000AEFF080677B0C7A01791D12AFFADA
:1083F00090000AEFF08057900008E0D3940F4010EF
:108400007B0C7A01791A12AFFA90000AEFF0803EE5
:108410007B0C7A01791E12AFFA90000AEFF0802EE1
:10842000900008E0D3940F40107B0C7A01791B1266
:10843000AFFA90000AEFF080157B0C7A01791F12D9
:10844000AFFA90000AEFF08005E490000AF0900087
:108450000AE0FF3395E0FEFDFCE47B20FAF9F81218
:108460006C26A804A905AA06AB07900004E0FEA3A9
:10847000E0FFE4FCFDEB2FFFEA3EFEED39FDEC38BA
:10848000FCAB07AA06A905F8A3E0FEA3E0FFE4FC05
:10849000FD126C26E4FB7A80F9F8126CB1AD07ACE2
:1084A00006900008E0C3940E502FE0FBC3740E9BAF
:1084B000FFEDA807088005CEC313CE13D8F9FDAC95
:1084C00006EB04FF900009E075F003A42472F58226
:1084D000E4340CF583EFF08014900009E075F003AC
:1084E000A42472F582E4340CF583740FF0AF059088
:1084F0000009E075F003A42470F582E4340CF583E0
:10850000ECF0A3EFF0227B007A4079807D027C00C2
:1085100012AF3A9040827418F07B007A407984E47C
:10852000FDFC12AF3A9040867450F07B007A40799F
:10853000887DFF7C0F12AF3A90408A741BF07B005D
:108540007A40798C7D0B7C0012AF3A90408E741982
:10855000F07B007A4079907D2F7C0012AF3A9040FA
:10856000927418F07B007A4079947DEF7C0012AF12
:108570003A9040967418F07CBD7D0A7B007A417970
:10858000007F047E0012AB699043007406F09042B5
:10859000007452F07B0C7A01790F12AFFA9046A169
:1085A000EFF07B007A4279227D107C0712AF3A7B94
:1085B000007A4279207D517C1212AF3AE490000497
:1085C000F07F19FEFDFC900000126DF9900000E0B4
:1085D000A3E0A3E0FEA3E0D39400EE9400404AA3FE
:1085E000E0FF64036043904225E05401FEEF25E084
:1085F0004E5403900004F0E47FE07E01FDFC12A8DD
:1086000000900000E0FCA3E0FDA3E0FEA3E0FF7407
:10861000FFEF24FFFFEE34FFFEED34FFFDEC34FFEF
:10862000FC900000126DF980A3900000E0A3E0A38D
:10863000E0FEA3E04E70057F0312B1DE7B007A40BE
:1086400079047D007C0112AF3A9040047407F090E9
:108650004006E4F09040087448F0904004E4F09044
:108660004009F09040017402F090400B7404F090C7
