:1026000002A0C5008F828E83E0540100000070F8A4
:102610002278FFE4F6D8FD02A15390002BEEF0A340
:10262000EFF0782D7C007D017BFF7A55798B7E075A
:102630007F6D1276D790079A7407F0A3746DF078C7
:10264000A17C077D017BFF7A5C79F87E007F0F1209
:1026500076D778B07C077D017BFF7A5D79077E00B5
:102660007F1C1276D778CC7C077D017BFF7A5D7961
:10267000237E007F1B1276D778E77C077D017BFFE6
:102680007A5D793E7E007F1C1276D778037C087DC8
:10269000017BFF7A5D795A7E007F1B1276D7781E08
:1026A0007C087D017BFF7A5D79757E007F2712763D
:1026B000D778457C087D017BFF7A5D799C7E007F21
:1026C000151276D7785A7C087D017BFF7A5D79B147
:1026D0007E007F191276D778737C087D017BFF7AA4
:1026E0005D79CA7E007F111276D778847C087D01DF
:1026F0007BFF7A5D79DB7E007F1C1276D778A07C29
:10270000087D017BFF7A5D79F77E007F1D1276D709
:1027100078BD7C087D017BFF7A5E79147E007F1B8B
:102720001276D778D87C087D017BFF7A5E792F7E80
:10273000007F141276D778EC7C087D017BFF7A5EEF
:1027400079437E007F201276D7780C7C097D017B4F
:10275000FF7A5E79637E007F241276D778307C0919
:102760007D017BFF7A5E79877E007F181276D778AD
:10277000487C097D017BFF7A5E799F7E007F251270
:1027800076D7786D7C097D017BFF7A5E79C47E0007
:102790007F161276D778837C097D017BFF7A5E797C
:1027A000DA7E007F271276D778AA7C097D017BFF2D
:1027B0007A5F79017E007F231276D778CD7C097D00
:1027C000017BFF7A5F79247E007F1F1276D778EC39
:1027D0007C097D017BFF7A5F79437E007F0E127654
:1027E000D778FA7C097D017BFF7A5F79517E007F83
:1027F000221276D7781C7C0A7D017BFF7A5F797381
:102800007E007F211276D7783D7C0A7D017BFF7A9E
:102810005F79947E007F151276D778527C0A7D010D
:102820007BFF7A5F79A97E007F341276D778867C29
:102830000A7D017BFF7A5F79DD7E007F3B1276D7D0
:1028400078C17C0A7D017BFF7A6079187E007F2A3F
:102850001276D778EB7C0A7D017BFF7A6079427E25
:10286000007F161276D77B017A0779A112BDEE8F11
:10287000697B017A0779B012BDEE8F6A7B017A0716
:1028800079CC12BDEE8F6B7B017A08794512BDEED3
:102890008F6C7B017A08795A12BDEE8F6D7B017ABD
:1028A00008797312BDEE8F6E7B017A0879A012BD94
:1028B000EE8F6F7B017A0879D812BDEE8F707B01A5
:1028C0007A0879EC12BDEE8F717B017A09790C12CE
:1028D000BDEE8F727B017A09793012BDEE8F737B6A
:1028E000017A09796D12BDEE8F747B017A0A7952F3
:1028F00012BDEE8F757B017A0A798612BDEE8F7656
:102900007B017A0A79C112BDEE8F777B017A0A7951
:10291000EB12BDEE8F787B017A0979AA12BDEE8F9A
:10292000797B017A0979CD12BDEE8F7A7B017A0924
:1029300079EC12BDEE8F7B7B017A0A791C12BDEE19
:10294000900B01EFF090002D740CF0A37419F0902F
:10295000002BE0FEA3E0FFEE6003023E70EFB41A2E
:10296000004003023E7090296DF82828730229BBAD
:102970000238BF0238C8023998023A68023A7B022C
:102980003A84023A8D023AC6023B71023BD8023BBE
:10299000E1023D06023D8C023D9C023DB1023DC17B
:1029A000023DD1023DE8023DF8023E0C023E21020A
:1029B0003E36023E3F023E53023E6890002F7402B4
:1029C000F0A314F0900B0CE0900031F075670085D7
:1029D0006968E5684567602CC3E5699568FFE4951B
:1029E00067FE74A12FF58274073EF583E0FD743213
:1029F0002FF58274003EF583EDF0E56815687002EE
:102A0000156780CE9000617407F0A37403F0900BFB
:102A100041E064036068900B0DE0FCA3E0FDA3E0DF
:102A2000FEA3E0FFEC126FB3E4FBFA798078471263
:102A30006E9D900063127578900B11E0FCA3E0FD91
:102A4000A3E0FEA3E0FFEC126FB3E4FBFA79807819
:102A500047126E9D900067127578900B15E0FCA3ED
:102A6000E0FDA3E0FEA3E0FFEC126FB3E4FBFA7914
:102A7000807847126E9D90006B1275788066900B7F
:102A800025E0FCA3E0FDA3E0FEA3E0FFEC126FB3A2
:102A9000E4FBFA79807847126E9D90006312757896
:102AA000900B29E0FCA3E0FDA3E0FEA3E0FFEC1205
:102AB0006FB3E4FBFA79807847126E9D900067123D
:102AC0007578900B2DE0FCA3E0FDA3E0FEA3E0FFF2
:102AD000EC126FB3E4FBFA79807847126E9D900098
:102AE0006B127578756700856A68E5684567602CC4
:102AF000C3E56A9568FFE49567FE74B02FF58274AC
:102B0000073EF583E0FD746F2FF58274003EF58378
:102B1000EDF0E56815687002156780CE900093743B
:102B200007F0A37403F0900B41E064036068900B1E
:102B300019E0FCA3E0FDA3E0FEA3E0FFEC126FB3FD
:102B4000E4FBFA79807847126E9D900095127578B3
:102B5000900B1DE0FCA3E0FDA3E0FEA3E0FFEC1260
:102B60006FB3E4FBFA79807847126E9D900099125A
:102B70007578900B21E0FCA3E0FDA3E0FEA3E0FF4D
:102B8000EC126FB3E4FBFA79807847126E9D9000E7
:102B90009D1275788066900B31E0FCA3E0FDA3E008
:102BA000FEA3E0FFEC126FB3E4FBFA7980784712E2
:102BB0006E9D900095127578900B35E0FCA3E0FDBA
:102BC000A3E0FEA3E0FFEC126FB3E4FBFA79807898
:102BD00047126E9D900099127578900B39E0FCA316
:102BE000E0FDA3E0FEA3E0FFEC126FB3E4FBFA7993
:102BF000807847126E9D90009D12757875670085EC
:102C00006B68E5684567602CC3E56B9568FFE495E4
:102C100067FE74CC2FF58274073EF583E0FD74A146
:102C20002FF58274003EF583EDF0E56815687002BB
:102C3000156780CEE49000C5F0A304F0900B3FE050
:102C40009000C7F0900B3F601F900B0574FFF0A33E
:102C50007450F0A374ABF07B017A0779E712B100EE
:102C600090079C741CF0801D900B0574FFF0A374FA
:102C700050F0A374B1F07B017A0779E712B10090AC
:102C8000079C741BF090079CE0756700F568E56889
:102C90004567602E90079CE0C39568FFE49567FE4A
:102CA00074E72FF58274073EF583E0FD74C82FF5B5
:102CB0008274003EF583EDF0E568156870021567D3
:102CC00080CC90079CE024C8F582E43400F583743E
:102CD00003F0E49000F7F0A304F0900B40E09000C4
:102CE000F9F0900B4014602204703C900B0574FFC7
:102CF000F0A37450F0A374B6F07B017A0879031244
:102D0000B10090079C7414F0801D900B0574FFF0C7
:102D1000A37450F0A374BCF07B017A08790312B15C
:102D20000090079C741AF090079CE0756700F568A6
:102D3000E5684567602E90079CE0C39568FFE495C1
:102D400067FE74032FF58274083EF583E0FD74FA84
:102D50002FF58274003EF583EDF0E568156870028A
:102D6000156780CC90079CE024FAF582E43400F5E6
:102D7000837401F0E4900129F0A304F0900B41E08A
:102D800090012BF0900B4114602914604514606190
:102D90002403707A900B0574FFF0A37450F0A374B1
:102DA000C8F07B017A08791E12B10090079C741B51
:102DB000F0805B900B0574FFF0A37450F0A374D304
:102DC000F07B017A08791E12B10090079C7416F00E
:102DD000803C900B0574FFF0A37450F0A374D9F0FD
:102DE0007B017A08791E12B10090079C741AF0805A
:102DF0001D900B0574FFF0A37450F0A374E3F07BF7
:102E0000017A08791E12B10090079C7427F0900790
:102E10009CE0756700F568E5684567602E90079C43
:102E2000E0C39568FFE49567FE741E2FF582740871
:102E30003EF583E0FD742C2FF58274013EF583EDA1
:102E4000F0E56815687002156780CC90079CE02457
:102E50002CF582E43401F5837402F090015BF0A359
:102E6000F0E4F567F568C3E5689402E567940050FF
:102E70002674422568F582740B3567F583E0FF748C
:102E80005D2568F58274013567F583EFF00568E527
:102E9000687002056780CF756700856C68E56845D6
:102EA00067602CC3E56C9568FFE49567FE74452F59
:102EB000F58274083EF583E0FD745F2FF58274019E
:102EC0003EF583EDF0E56815687002156780CE90D9
:102ED000018D7403F0A314F0E4F567F568C3E568A9
:102EE0009402E56794005059E568AE677802C333F1
:102EF000CE33CED8F92444F582740B3EF583E0FC42
:102F0000A3E0FDA3E0FEA3E0FF74422568F5827410
:102F10000B3567F583E0F9F8127517AD07AC06E5D8
:102F20006825E0FFE56733FE748F2FF58274013E5C
:102F3000F583ECF0A3EDF00568E5687002056780A5
:102F40009C756700856D68E5684567602CC3E56D15
:102F50009568FFE49567FE745A2FF58274083EF574
:102F600083E0FD74932FF58274013EF583EDF0E567
:102F70006815687002156780CE9001BF7407F0A3D2
:102F80007402F0E4F567F568C3E5689402E56794B8
:102F9000005054E568AE677802C333CE33CED8F91B
:102FA000244CF582740B3EF583E0FCA3E0FDA3E026
:102FB000FEA3E0FFC004C005C006C007E568AE6719
:102FC0007802C333CE33CED8F924C1F58274013EE2
:102FD000F583D007D006D005D0041275780568E5D2
:102FE000687002056780A1E4F567F5687B017A08DF
:102FF000797312BDEEC3E5689FE5679E5026747332
:103000002568F58274083567F583E0FF74C9256883
:10301000F58274013567F583EFF00568E5687002A5
:10302000056780C8E49001F1F0A304F0900B54E030
:103030009001F3F0900B54601F900B0574FFF0A308
:103040007450F0A374ABF07B017A08798412B1005C
:1030500090079C741CF0801D900B0574FFF0A37406
:1030600050F0A374B1F07B017A08798412B100901A
:10307000079C741BF090079CE0756700F568E56895
:103080004567602E90079CE0C39568FFE49567FE56
:1030900074842FF58274083EF583E0FD74F42FF5F7
:1030A0008274013EF583EDF0E568156870021567DE
:1030B00080CC90079CE024F4F582E43401F583741D
:1030C00003F09002237405F0A314F0E4F567F568AB
:1030D000C3E5689402E567940040030231A1E56806
:1030E000AE677802C333CE33CED8F92455F5827457
:1030F0000B3EF583E0FCA3E0FDA3E0FEA3E0FF743C
:10310000422568F582740B3567F583E0F9F812758E
:1031100017C004C005C006C007E568AE677803C3E2
:1031200033CE33CED8F92425F58274023EF583D010
:1031300007D006D005D004127578E568AE6778022E
:10314000C333CE33CED8F9245DF582740B3EF583BC
:10315000E0FCA3E0FDA3E0FEA3E0FF74422568F5D8
:1031600082740B3567F583E0F9F8127517C004C057
:1031700005C006C007E568AE677803C333CE33CE1B
:10318000D8F92429F58274023EF583D007D006D001
:1031900005D0041275780568E5687002056702308D
:1031A000D0756700856F68E5684567602CC3E56F7B
:1031B0009568FFE49567FE74A02FF58274083EF5CC
:1031C00083E0FD74352FF58274023EF583EDF0E562
:1031D0006815687002156780CE9002557405F0A3DB
:1031E0007402F0900B69E0FCA3E0FDA3E0FEA3E015
:1031F000FF900257127578900B6DE0FCA3E0FDA3E1
:10320000E0FEA3E0FF90025B127578E4F567F568D5
:103210007B017A0879BD12BDEEC3E5689FE5679E24
:10322000502674BD2568F58274083567F583E0FF84
:10323000745F2568F58274023567F583EFF00568E1
:10324000E5687002056780C89002877403F0A37474
:1032500001F0900B3DE0FFA3E0900289CFF0A3EFD7
:10326000F0756700857068E5684567602CC3E57098
:103270009568FFE49567FE74D82FF58274083EF5D3
:1032800083E0FD748B2FF58274023EF583EDF0E54B
:103290006815687002156780CE9002B97407F0A3B4
:1032A0007401F0900B72E0FCA3E0FDA3E0FEA3E04C
:1032B000FF9002BB127578756700857168E56845F7
:1032C00067602CC3E5719568FFE49567FE74EC2F89
:1032D000F58274083EF583E0FD74BF2FF582740219
:1032E0003EF583EDF0E56815687002156780CE90B5
:1032F00002EB7403F0A37401F0900B76E0FFA3E0FF
:103300009002EDCFF0A3EFF0756700857268E56875
:103310004567602CC3E5729568FFE49567FE740C01
:103320002FF58274093EF583E0FD74EF2FF582746A
:10333000023EF583EDF0E56815687002156780CEF2
:1033400090031D7403F0A37401F0900B78E0FFA3C9
:10335000E090031FCFF0A3EFF0756700857368E579
:10336000684567602CC3E5739568FFE49567FE7454
:10337000302FF58274093EF583E0FD74212FF5822C
:1033800074033EF583EDF0E56815687002156780FB
:10339000CEE490034FF0A304F0900B71E090035142
:1033A000F0900B71601F900B0574FFF0A37450F048
:1033B000A374ABF07B017A09794812B10090079CA5
:1033C0007425F0801D900B0574FFF0A37450F0A3DA
:1033D00074B1F07B017A09794812B10090079C74AE
:1033E00024F090079CE0756700F568E56845676024
:1033F0002E90079CE0C39568FFE49567FE74482F04
:10340000F58274093EF583E0FD74522FF582740352
:103410003EF583EDF0E56815687002156780CC9085
:10342000079CE02452F582E43403F5837403F090A2
:10343000038104F0A37401F0900B85E0FFA3E090FA
:103440000383CFF0A3EFF0756700857468E56845E6
:1034500067602CC3E5749568FFE49567FE746D2F73
:10346000F58274093EF583E0FD74852FF5827403BF
:103470003EF583EDF0E56815687002156780CEE4CF
:103480009003B3F0A304F0900B7AE09003B5F090B2
:103490000B7A601F900B0574FFF0A37450F0A374B7
:1034A000ABF07B017A09798312B10090079C7427F5
:1034B000F0801D900B0574FFF0A37450F0A374B15D
:1034C000F07B017A09798312B10090079C7426F091
:1034D00090079CE0756700F568E5684567602E9089
:1034E000079CE0C39568FFE49567FE74832FF5821F
:1034F00074093EF583E0FD74B62FF58274033EF542
:1035000083EDF0E56815687002156780CC90079C24
:10351000E024B6F582E43403F5837403F09003E508
:103520007405F0A37401F0900B7BE0FCA3E0FDA315
:10353000E0FEA3E0FF9003E71275787567008579D8
:1035400068E5684567602CC3E5799568FFE4956791
:10355000FE74AA2FF58274093EF583E0FD74EB2F0B
:10356000F58274033EF583EDF0E568156870021589
:103570006780CE9004177405F0A37401F0900B7F60
:10358000E0FCA3E0FDA3E0FEA3E0FF9004191275A8
:1035900078756700857A68E5684567602CC3E57AC9
:1035A0009568FFE49567FE74CD2FF58274093EF5AA
:1035B00083E0FD741D2FF58274043EF583EDF0E584
:1035C0006815687002156780CE9004497402F0A3F4
:1035D00014F0900B83E090044BF0756700857B68D6
:1035E000E5684567602CC3E57B9568FFE49567FE59
:1035F00074EC2FF58274093EF583E0FD744C2FF5D1
:103600008274043EF583EDF0E56815687002156775
:1036100080CEE490047BF0A304F0900B84E090044F
:103620007DF0900B84601F900B0574FFF0A3745025
:10363000F0A374ABF07B017A0979FA12B10090071C
:103640009C7422F0801D900B0574FFF0A37450F061
:10365000A374B1F07B017A0979FA12B10090079C4A
:103660007421F090079CE0756700F568E568456790
:10367000602E90079CE0C39568FFE49567FE74FA9E
:103680002FF58274093EF583E0FD747E2FF5827478
:10369000043EF583EDF0E56815687002156780CC8F
:1036A00090079CE0247EF582E43404F5837403F0F3
:1036B0009004AD7405F0A37401F0900B87E0FCA3B7
:1036C000E0FDA3E0FEA3E0FF9004AF127578900B3D
:1036D00001E0756700F568E5684567602E900B01AD
:1036E000E0C39568FFE49567FE741C2FF582740AA9
:1036F0003EF583E0FD74B32FF58274043EF583ED4F
:10370000F0E56815687002156780CCE49004DFF07E
:10371000A304F0900B8BE09004E1F0900B8B601F02
:10372000900B0574FFF0A37450F0A374FAF07B01C2
:103730007A0A793D12B10090079C7414F0801D90B4
:103740000B0574FFF0A37451F0A37401F07B017AB0
:103750000A793D12B10090079C7415F090079CE027
:10376000756700F568E5684567602E90079CE0C3C3
:103770009568FFE49567FE743D2FF582740A3EF567
:1037800083E0FD74E22FF58274043EF583EDF0E5ED
:103790006815687002156780CC90079CE024E2F5FC
:1037A00082E43404F5837404F0756700857568E578
:1037B000684567602CC3E5759568FFE49567FE74FE
:1037C000522FF582740A3EF583E0FD74112FF582C5
:1037D00074053EF583EDF0E56815687002156780A5
:1037E000CE756700857668E5684567602CC3E57629
:1037F0009568FFE49567FE74862FF582740A3EF59E
:1038000083E0FD74A72FF58274053EF583EDF0E5A6
:103810006815687002156780CE756700857768E562
:10382000684567602CC3E5779568FFE49567FE748B
:10383000C12FF582740A3EF583E0FD743D2FF582B9
:1038400074063EF583EDF0E5681568700215678033
:10385000CE756700857868E5684567602CC3E578B4
:103860009568FFE49567FE74EB2FF582740A3EF5C8
:1038700083E0FD74D32FF58274063EF583EDF0E509
:103880006815687002156780CE7B017A00792D90EB
:10389000079AE0A3E014FD12B97990079AE0FCA31F
:1038A000E0FD242CF58274003CF583EFF07B017A77
:1038B00000792DE4900B07F012AA1512BEC22290D7
:1038C0000C41E0900B96F022900B41E064036064A1
:1038D000E4FFFE7D807C47900C41E0F8A3E0F9A373
:1038E000E0FAA3E0FB126D94126FF1900B97127542
:1038F00078E4FFFE7D807C47900C45E0F8A3E0F97A
:10390000A3E0FAA3E0FB126D94126FF1900B9B12EF
:103910007578E4FFFE7D807C47900C49E0F8A3E0D9
:10392000F9A3E0FAA3E0FB126D94126FF1900B9FE4
:1039300012757822E4FFFE7D807C47900C41E0F810
:10394000A3E0F9A3E0FAA3E0FB126D94126FF190EB
:103950000BAF127578E4FFFE7D807C47900C45E04C
:10396000F8A3E0F9A3E0FAA3E0FB126D94126FF163
:10397000900BB3127578E4FFFE7D807C47900C4974
:10398000E0F8A3E0F9A3E0FAA3E0FB126D94126F54
:10399000F1900BB712757822900B41E064036064DC
:1039A000E4FFFE7D807C47900C41E0F8A3E0F9A3A2
:1039B000E0FAA3E0FB126D94126FF1900BA3127565
:1039C00078E4FFFE7D807C47900C45E0F8A3E0F9A9
:1039D000A3E0FAA3E0FB126D94126FF1900BA71213
:1039E0007578E4FFFE7D807C47900C49E0F8A3E009
:1039F000F9A3E0FAA3E0FB126D94126FF1900BAB08
:103A000012757822E4FFFE7D807C47900C41E0F83F
:103A1000A3E0F9A3E0FAA3E0FB126D94126FF1901A
:103A20000BBB127578E4FFFE7D807C47900C45E06F
:103A3000F8A3E0F9A3E0FAA3E0FB126D94126FF192
:103A4000900BBF127578E4FFFE7D807C47900C4997
:103A5000E0F8A3E0F9A3E0FAA3E0FB126D94126F83
:103A6000F1900BC312757822900C41E06007900B27
:103A7000C97403F022E4900BC9F022900C41E0904D
:103A80000BCAF022900C41E0900BCBF022E4F567DA
:103A9000F568C3E5689402E56794004003023E7050
:103AA00074412568F582740C3567F583E0FF74CCAA
:103AB0002568F582740B3567F583EFF00568E568D6
:103AC0007002056780CCE4F567F568C3E568940289
:103AD000E56794004003023B6EE56825E0FFE5677B
:103AE00033FE74412FF582740C3EF583E0FEA3E0B3
:103AF000FFEE3395E0FDFCC004C005C006C007E53D
:103B000068AE677802C333CE33CED8F9FBAA062459
:103B1000CEF582740B3AF583D007D006D005D004D9
:103B200012757874CE2BF582740B3AF583C083C07E
:103B300082E0FCA3E0FDA3E0FEA3E0FF74CC2568D7
:103B4000F582740B3567F583E0F9F812752BD08296
:103B5000D08312757874EC2568F582740C3567F59E
:103B600083E4F00568E56870020567023ACBD20E7F
:103B700022E4F567F568C3E5689402E567940040C0
:103B800003023E70E568AE677802C333CE33CED809
:103B9000F92441F582740C3EF583E0FCA3E0FDA31B
:103BA000E0FEA3E0FFC004C005C006C007E568AEA4
:103BB000677802C333CE33CED8F924D6F582740B9E
:103BC0003EF583D007D006D005D00412757805687D
:103BD000E56870020567809E900C41E0900BDEF076
:103BE00022E4F567F568C3E5689402E56794004050
:103BF00003023E70E568AE677803C333CE33CED898
:103C0000F92441F582740C3EF583E0FCA3E0FDA3AA
:103C1000E0FEA3E0FFC004C005C006C007E568AE33
:103C2000677802C333CE33CED8F924DFF582740B24
:103C30003EF583D007D006D005D004127578E5682C
:103C4000AE677803C333CE33CED8F92445F58274FA
:103C50000C3EF583E0FCA3E0FDA3E0FEA3E0FFC083
:103C600004C005C006C007E568AE677802C333CE5E
:103C700033CED8F9FBAA0624E7F582740B3AF58314
:103C8000D007D006D005D00412757874DF2BF582EA
:103C9000740B3AF583C083C082E0FCA3E0FDA3E08F
:103CA000FEA3E0FF74CC2568F582740B3567F583BD
:103CB000E0F9F812752BD082D083127578E568AEE2
:103CC000677802C333CE33CED8F924E7F582740B7C
:103CD0003EF583C083C082E0FCA3E0FDA3E0FEA329
:103CE000E0FF74CC2568F582740B3567F583E0F945
:103CF000F812752BD082D0831275780568E568704C
:103D0000020567023BE6900C41E0FCA3E0FDA3E066
:103D1000FEA3E0FF90079D127578E4FFFEFDFC9086
:103D2000079DE0F8A3E0F9A3E0FAA3E0FBD3127447
:103D3000DD501490079DE0FCA3E0FDA3E0FEA3E0AE
:103D4000FF900BF3127578900C45E0FCA3E0FDA307
:103D5000E0FEA3E0FF90079D127578E4FFFEFDFCF6
:103D600090079DE0F8A3E0F9A3E0FAA3E0FBC312FB
:103D700074DD5003023E7090079DE0FCA3E0FDA3BC
:103D8000E0FEA3E0FF900BF712757822900C41E063
:103D9000FFA3E0900BC7CFF0A3EFF022900C41E01F
:103DA000FCA3E0FDA3E0FEA3E0FF900BFC127578FE
:103DB00022900C41E0FFA3E0900C00CFF0A3EFF0C5
:103DC00022900C41E0FFA3E0900C02CFF0A3EFF0B3
:103DD00022900C41E0900BFBF07003023E70E490E7
:103DE0000C04F0900C0EF022900C41E0FFA3E09048
:103DF0000C0FCFF0A3EFF022900C41E0900C04F0F8
:103E0000606EE4900BFBF0900C0EF022900C41E001
:103E1000FCA3E0FDA3E0FEA3E0FF900C0512757883
:103E200022900C41E0FCA3E0FDA3E0FEA3E0FF90A4
:103E30000C0912757822900C41E0900C0DF0229044
:103E40000C41E0900C0EF06027E4900BFBF0900C1E
:103E500004F022900C41E0FCA3E0FDA3E0FEA3E00F
:103E6000FF900C1112757822900C41E0900C15F027
:103E700022900607EBF0A3EAF0A3E9F0900607E032
:103E8000FBA3E0FAA3E0F8AC02AD037BFF7A517923
:103E9000091277B5900B0574FFF0A37451F0A37469
:103EA0000AF0900607E0FBA3E0FAA3E0F912B100E4
:103EB000900B0574FFF0A37451F0A3740DF09006FD
:103EC00007E0FBA3E0FAA3E0F912B100900B057440
:103ED000FFF0A37451F0A37420F0900607E0FBA359
:103EE000E0FAA3E0F912B100900B0574FFF0A3749F
:103EF00051F0A37430F0900607E0FBA3E0FAA3E0D2
:103F0000F912B100900B0574FFF0A37451F0A37483
:103F100036F0900607E0FBA3E0FAA3E0F912B10047
:103F200090063F74FFF0A37451F0A37444F0900B1B
:103F30000CE0FF900642E4F0A3EFF07B017A0679F3
:103F40000A127D57900B057401F0A37406F0A37458
:103F50000AF0900607E0FBA3E0FAA3E0F912B10033
:103F600090063F74FFF0A37451F0A3744DF0A3E4E6
:103F7000F0A37402F07B017A06790A127D57900B48
:103F8000057401F0A37406F0A3740AF0900607E02C
:103F9000FBA3E0FAA3E0F912B10090063F74FFF032
:103FA000A37451F0A37465F0900B85E0FFA3E0903B
:103FB0000642CFF0A3EFF07B017A06790A127D5713
:103FC000900B057401F0A37406F0A3740AF0900638
:103FD00007E0FBA3E0FAA3E0F912B10090063F74FA
:103FE000FFF0A37451F0A3747AF0900CF6E0FF9008
:103FF0000642E4F0A3EFF07B017A06790A127D57BE
:10400000900B057401F0A37406F0A3740AF09006F7
:1040100007E0FBA3E0FAA3E0F912B100900B0574EE
:10402000FFF0A37451F0A3740AF0900607E0FBA31D
:10403000E0FAA3E0F912B100900B0574FFF0A3744D
:1040400051F0A3748AF0900607E0FBA3E0FAA3E026
:10405000F912B100900B0574FFF0A37451F0A37432
:1040600097F0900607E0FBA3E0FAA3E0F912B10095
:10407000E4F567F568C3E5689402E56764809480B9
:10408000507990063F74FFF0A37451F0A374AAF026
:10409000E568AE677802C333CE33CED8F92435F560
:1040A00082740C3EF583E0FCA3E0FDA3E0FEA3E0F8
:1040B000FF74422568F582740B3567F583E0F9F8E3
:1040C000127517900642EEF0A3EFF07B017A0679A5
:1040D0000A127D57900B057401F0A37406F0A374C7
:1040E0000AF0900607E0FBA3E0FAA3E0F912B100A2
:1040F0000568E56870020567024075900B0574FF5E
:10410000F0A37451F0A3740AF0900607E0FBA3E05B
:10411000FAA3E0F912B10090063F74FFF0A37451C6
:10412000F0A374AEF07B017A06790A127D57900CE9
:104130003DE054036019900B0574FFF0A37451F037
:10414000A374BEF07B017A06790A12B10080179041
:104150000B0574FFF0A37451F0A374C4F07B017AD3
:1041600006790A12B100900B057401F0A37406F0F1
:10417000A3740AF0900607E0FBA3E0FAA3E0F912AB
:10418000B100900B0574FFF0A37451F0A374C9F053
:10419000900607E0FBA3E0FAA3E0F912B100900B50
:1041A0000574FFF0A37451F0A374DFF0900607E0EC
:1041B000FBA3E0FAA3E0F912B100E4F567F568C3E8
:1041C000E5689402E567648094804003024273903E
:1041D000063F74FFF0A37451F0A374EFF0E5682478
:1041E00001900643F0E43567900642F0E568AE675B
:1041F0007802C333CE33CED8F92417F582740C3E3F
:10420000F583E0FCA3E0FDA3E0FEA3E0FF744225FC
:1042100068F582740B3567F583E0F9F8127517902D
:104220000644EEF0A3EFF07B017A06790A127D577F
:10423000900B057401F0A37406F0A3740AF09006C5
:1042400007E0FBA3E0FAA3E0F912B100900B0574BC
:10425000FFF0A37451F0A3740AF0900607E0FBA3EB
:10426000E0FAA3E0F912B1000568E568700205679D
:104270000241BF90063F74FFF0A37451F0A374F89D
:10428000F0900C31E0FCA3E0FDA3E0FEA3E0FF9082
:1042900006421275787B017A06790A127D57900BD7
:1042A000057401F0A37406F0A3740AF0900607E009
:1042B000FBA3E0FAA3E0F912B100900B0574FFF044
:1042C000A37451F0A3740AF0900607E0FBA3E0FA90
:1042D000A3E0F912B10090063F74FFF0A37452F00E
:1042E000A3740AF0900C1FE0FEA3E0FFEE3395E00C
:1042F000FDFC9006421275787B017A06790A127DE0
:1043000057900B057401F0A37406F0A3740AF090A3
:104310000607E0FBA3E0FAA3E0F912B100900B0559
:1043200074FFF0A37451F0A3740AF0900607E0FB49
:10433000A3E0FAA3E0F912B10090063F74FFF0A3E6
:104340007452F0A3741EF0900C21E0FEA3E0FFEE87
:104350003395E0FDFC9006421275787B017A067970
:104360000A127D57900B057401F0A37406F0A37434
:104370000AF0900607E0FBA3E0FAA3E0F912B1000F
:10438000900B0574FFF0A37451F0A3740AF090062B
:1043900007E0FBA3E0FAA3E0F912B100900B05746B
:1043A000FFF0A37452F0A37432F0900607E0FBA371
:1043B000E0FAA3E0F912B100900B0574FFF0A374CA
:1043C00052F0A37448F0900607E0FBA3E0FAA3E0E4
:1043D000F912B100900B41E0640370030244E190D4
:1043E000063F74FFF0A37452F0A3745AF0900B0DC3
:1043F000E0FCA3E0FDA3E0FEA3E0FFEC126FB3E45A
:10440000FBFA79807847126E9D9006421275787B90
:10441000017A06790A127D57900B057401F0A37496
:1044200006F0A3740AF0900607E0FBA3E0FAA3E00D
:10443000F912B10090063F74FFF0A37452F0A37418
:1044400064F0900B11E0FCA3E0FDA3E0FEA3E0FF0D
:10445000EC126FB3E4FBFA79807847126E9D9006F8
:10446000421275787B017A06790A127D57900B0506
:104470007401F0A37406F0A3740AF0900607E0FB41
:10448000A3E0FAA3E0F912B10090063F74FFF0A395
:104490007452F0A3746EF0900B15E0FCA3E0FDA342
:1044A000E0FEA3E0FFEC126FB3E4FBFA79807847FB
:1044B000126E9D9006421275787B017A06790A1277
:1044C0007D57900B057401F0A37406F0A3740AF0F5
:1044D000900607E0FBA3E0FAA3E0F912B100024561
:1044E000E090063F74FFF0A37452F0A3745AF0906A
:1044F0000B25E0FCA3E0FDA3E0FEA3E0FFEC126FC0
:10450000B3E4FBFA79807847126E9D9006421275EB
:10451000787B017A06790A127D57900B057401F0B9
:10452000A37406F0A3740AF0900607E0FBA3E0FA78
:10453000A3E0F912B10090063F74FFF0A37452F0AB
:10454000A37464F0900B29E0FCA3E0FDA3E0FEA3BC
:10455000E0FFEC126FB3E4FBFA79807847126E9DAE
:104560009006421275787B017A06790A127D57907F
:104570000B057401F0A37406F0A3740AF09006070B
:10458000E0FBA3E0FAA3E0F912B10090063F74FF4C
:10459000F0A37452F0A3746EF0900B2DE0FCA3E036
:1045A000FDA3E0FEA3E0FFEC126FB3E4FBFA798019
:1045B0007847126E9D9006421275787B017A0679D3
:1045C0000A127D57900B057401F0A37406F0A374D2
:1045D0000AF0900607E0FBA3E0FAA3E0F912B100AD
:1045E000900B0574FFF0A37452F0A37478F090065A
:1045F00007E0FBA3E0FAA3E0F912B100900B41E061
:104600006403700302470990063F74FFF0A37452DD
:10461000F0A3745AF0900B19E0FCA3E0FDA3E0FEB8
:10462000A3E0FFEC126FB3E4FBFA79807847126ED7
:104630009D9006421275787B017A06790A127D57A1
:10464000900B057401F0A37406F0A3740AF09006B1
:1046500007E0FBA3E0FAA3E0F912B10090063F7473
:10466000FFF0A37452F0A37464F0900B1DE0FCA360
:10467000E0FDA3E0FEA3E0FFEC126FB3E4FBFA79E8
:10468000807847126E9D9006421275787B017A06FB
:10469000790A127D57900B057401F0A37406F0A3FC
:1046A000740AF0900607E0FBA3E0FAA3E0F912B168
:1046B0000090063F74FFF0A37452F0A3746EF09064
:1046C0000B21E0FCA3E0FDA3E0FEA3E0FFEC126FF2
:1046D000B3E4FBFA79807847126E9D90064212751A
:1046E000787B017A06790A127D57900B057401F0E8
:1046F000A37406F0A3740AF0900607E0FBA3E0FAA7
:10470000A3E0F912B10002480890063F74FFF0A33D
:104710007452F0A3745AF0900B31E0FCA3E0FDA3B7
:10472000E0FEA3E0FFEC126FB3E4FBFA7980784778
:10473000126E9D9006421275787B017A06790A12F4
:104740007D57900B057401F0A37406F0A3740AF072
:10475000900607E0FBA3E0FAA3E0F912B10090068F
:104760003F74FFF0A37452F0A37464F0900B35E033
:10477000FCA3E0FDA3E0FEA3E0FFEC126FB3E4FBBB
:10478000FA79807847126E9D9006421275787B0107
:104790007A06790A127D57900B057401F0A374060E
:1047A000F0A3740AF0900607E0FBA3E0FAA3E0F997
:1047B00012B10090063F74FFF0A37452F0A3746E20
:1047C000F0900B39E0FCA3E0FDA3E0FEA3E0FFECDA
:1047D000126FB3E4FBFA79807847126E9D9006421F
:1047E0001275787B017A06790A127D57900B057451
:1047F00001F0A37406F0A3740AF0900607E0FBA38F
:10480000E0FAA3E0F912B100900B0574FFF0A37475
:1048100051F0A3740AF0900607E0FBA3E0FAA3E0CE
:10482000F912B100900B3FE0B4031E900B0574FF2A
:10483000F0A37452F0A37492F0900607E0FBA3E09B
:10484000FAA3E0F912B100801C900B0574FFF0A3ED
:104850007452F0A374ACF0900607E0FBA3E0FAA357
:10486000E0F912B100900B40E014602104703A901E
:104870000B0574FFF0A37452F0A374C5F090060703
:10488000E0FBA3E0FAA3E0F912B100801C900B0555
:1048900074FFF0A37452F0A374D7F0900607E0FB06
:1048A000A3E0FAA3E0F912B100900B0574FFF0A3A6
:1048B0007452F0A374EEF0900607E0FBA3E0FAA3B5
:1048C000E0F912B100900B41E01460281460431429
:1048D000605E24037076900B0574FFF0A37452F0B1
:1048E000A374FDF0900607E0FBA3E0FAA3E0F91241
:1048F000B1008058900B0574FFF0A37453F0A374BB
:1049000008F0900607E0FBA3E0FAA3E0F912B1007B
:10491000803A900B0574FFF0A37453F0A3740EF06B
:10492000900607E0FBA3E0FAA3E0F912B100801CB7
:10493000900B0574FFF0A37453F0A37418F0900665
:1049400007E0FBA3E0FAA3E0F912B100900B0574B5
:10495000FFF0A37453F0A3742FF0900607E0FBA3BD
:10496000E0FAA3E0F912B100E4F567F568C3E56881
:104970009402E56764809480507F90063F74FFF056
:10498000A37451F0A374EFF0E5682401900643F09E
:10499000E43567900642F074422568F582740B3561
:1049A00067F583E0FF900644E4F0A3EFF07B017A23
:1049B00006790A127D57900B057401F0A37406F076
:1049C000A3740AF0900607E0FBA3E0FAA3E0F91253
:1049D000B100900B0574FFF0A37451F0A3740AF0BA
:1049E000900607E0FBA3E0FAA3E0F912B100056826
:1049F000E5687002056702496D900B0574FFF0A32E
:104A00007453F0A37444F0900607E0FBA3E0FAA30C
:104A1000E0F912B100E4F567F568C3E5689402E5D2
:104A200067648094804003024ACC90063F74FFF094
:104A3000A37453F0A3745AF0E5682401900643F080
:104A4000E43567900642F0E568AE677802C333CE7E
:104A500033CED8F92444F582740B3EF583E0FCA3F1
:104A6000E0FDA3E0FEA3E0FF74422568F582740B2D
:104A70003567F583E0F9F8127517900644127578DA
:104A80007B017A06790A127D57900B057401F0A319
:104A90007406F0A3740AF0900607E0FBA3E0FAA303
:104AA000E0F912B100900B0574FFF0A37451F0A36C
:104AB000740AF0900607E0FBA3E0FAA3E0F912B154
:104AC000000568E56870020567024A1A900B0574D4
:104AD000FFF0A37453F0A37464F0900607E0FBA307
:104AE000E0FAA3E0F912B100E4F567F568C3E56800
:104AF0009402E567648094804003024B8D90063FEA
:104B000074FFF0A37453F0A3747EF0E56824019061
:104B10000643F0E43567900642F0E568AE67780238
:104B2000C333CE33CED8F9244CF582740B3EF583D3
:104B3000E0FCA3E0FDA3E0FEA3E0FF9006441275B5
:104B4000787B017A06790A127D57900B057401F083
:104B5000A37406F0A3740AF0900607E0FBA3E0FA42
:104B6000A3E0F912B100900B0574FFF0A37451F0AB
:104B7000A3740AF0900607E0FBA3E0FAA3E0F912A1
:104B8000B1000568E56870020567024AED900B0503
:104B900074FFF0A37453F0A37487F0900607E0FB52
:104BA000A3E0FAA3E0F912B10090063F74FFF0A36E
:104BB0007453F0A374BDF0900B72E0FCA3E0FDA36E
:104BC000E0FEA3E0FF9006421275787B017A067939
:104BD0000A127D57900B057401F0A37406F0A374BC
:104BE0000AF0900607E0FBA3E0FAA3E0F912B10097
:104BF000900B0574FFF0A37451F0A3740AF09006B3
:104C000007E0FBA3E0FAA3E0F912B100900B0574F2
:104C1000FFF0A37453F0A374C0F0900607E0FBA369
:104C2000E0FAA3E0F912B10090063F74FFF0A3741C
:104C300053F0A374D3F0900B76E0FFA3E09006420C
:104C4000CFF0A3EFF07B017A06790A127D57900B23
:104C5000057401F0A37406F0A3740AF0900607E04F
:104C6000FBA3E0FAA3E0F912B100900B0574FFF08A
:104C7000A37451F0A3740AF0900607E0FBA3E0FAD6
:104C8000A3E0F912B100900B0574FFF0A37453F088
:104C9000A374D7F0900607E0FBA3E0FAA3E0F912B3
:104CA000B10090063F74FFF0A37453F0A374D3F0E7
:104CB000900B78E0FFA3E0900642CFF0A3EFF07BEB
:104CC000017A06790A127D57900B057401F0A374DE
:104CD00006F0A3740AF0900607E0FBA3E0FAA3E055
:104CE000F912B100900B0574FFF0A37453F0A37494
:104CF000E3F0900607E0FBA3E0FAA3E0F912B100AD
:104D000090063F74FFF0A37453F0A374E7F0900B88
:104D1000DEE0FF900642E4F0A3EFF07B017A067933
:104D20000A127D57900B057401F0A37406F0A3746A
:104D30000AF0900607E0FBA3E0FAA3E0F912B10045
:104D4000900B0574FFF0A37451F0A3740AF0900661
:104D500007E0FBA3E0FAA3E0F912B100E4F567F580
:104D600068C3E5689402E567648094804003024E5E
:104D70006390063F74FFF0A37454F0A37401F0E550
:104D8000682401900643F0E43567900642F0E56838
:104D9000AE677802C333CE33CED8F924DFF5827400
:104DA0000B3EF583E0FCA3E0FDA3E0FEA3E0FF746F
:104DB000CC2568F582740B3567F583E0F9F8127538
:104DC000179006441275787B017A06790A127D578E
:104DD000900B057401F0A37406F0A3740AF090061A
:104DE00007E0FBA3E0FAA3E0F912B10090063F74DC
:104DF000FFF0A37454F0A37427F0E568AE6778025F
:104E0000C333CE33CED8F924E7F582740B3EF58355
:104E1000E0FCA3E0FDA3E0FEA3E0FF74CC2568F571
:104E200082740B3567F583E0F9F812751790064226
:104E30001275787B017A06790A127D57900B0574FA
:104E400001F0A37406F0A3740AF0900607E0FBA338
:104E5000E0FAA3E0F912B1000568E56870020567A1
:104E6000024D6190063F74FFF0A37454F0A37434B4
:104E7000F0900BEFE0FEA3E0FF900BCCE0FDEFA87D
:104E800005088006CEA2E713CE13D8F8FF9006429D
:104E9000EEF0A3EFF07B017A06790A127D57900BB2
:104EA000057401F0A37406F0A3740AF0900607E0FD
:104EB000FBA3E0FAA3E0F912B100900B0574FFF038
:104EC000A37451F0A3740AF0900607E0FBA3E0FA84
:104ED000A3E0F912B10090063F74FFF0A37454F000
:104EE000A37446F0900BC7E0FFA3E0900642CFF01A
:104EF000A3EFF07B017A06790A127D57900B0574B7
:104F000001F0A37406F0A3740AF0900607E0FBA377
:104F1000E0FAA3E0F912B100900B0574FFF0A3745E
:104F200051F0A3740AF0900607E0FBA3E0FAA3E0B7
:104F3000F912B100900B71E0601E900B0574FFF048
:104F4000A37454F0A37458F0900607E0FBA3E0FAB2
:104F5000A3E0F912B100801C900B0574FFF0A3745C
:104F600054F0A3747FF0900607E0FBA3E0FAA3E0FF
:104F7000F912B100900B7AE0601E900B0574FFF0FF
:104F8000A37454F0A374A5F0900607E0FBA3E0FA25
:104F9000A3E0F912B100801C900B0574FFF0A3741C
:104FA00054F0A374D5F0900607E0FBA3E0FAA3E069
:104FB000F912B100300D1E900B0574FFF0A374556B
:104FC000F0A37404F0900607E0FBA3E0FAA3E0F975
:104FD00012B100801C900B0574FFF0A37455F0A370
:104FE000741FF0900607E0FBA3E0FAA3E0F912B10A
:104FF00000300C1E900B0574FFF0A37455F0A374E1
:1050000039F0900607E0FBA3E0FAA3E0F912B10043
:10501000801C900B0574FFF0A37455F0A3745DF031
:10502000900607E0FBA3E0FAA3E0F912B1009006B6
:105030003F74FFF0A37455F0A37480F0900C2DE042
:10504000F8A3E0F9A3E0FAA3E0FB900CCCE0FCA30A
:10505000E0FDA3E0FEA3E0C39BFFEE9AFEED99FD09
:10506000EC98FC9006421275787B017A06790A1258
:105070007D57900B057401F0A37406F0A3740AF039
:10508000900607E0FBA3E0FAA3E0F912B100900B51
:105090000574FFF0A37451F0A3740AF0900607E0C2
:1050A000FBA3E0FAA3E0F912B10022205945530016
:1050B00000204E4F000020557362000020456E63B3
:1050C0006F6465722033000020506F736974696FDC
:1050D0006E00002050574D00002043757272656EBF
:1050E00074000020506F736974696F6E20616E6484
:1050F0002063757272656E740000204C65667400E2
:10510000002052696768740000000D0A0046697249
:105110006D776172652076657273696F6E3A2000F3
:1051200043554646204D4F442076362E312E3300CF
:105130002E0D0A0D0A0044455649434520494E4666
:105140004F0D0A0049443A2025640D0A004E756D42
:10515000626572206F662073656E736F72733A209A
:1051600025640D0A00537570706C792074656E7338
:10517000696F6E3A2025640D0A0050574D204C6926
:105180006D69743A2025640D0A004D4F544F52202A
:10519000494E464F0D0A004D6F746F72207265665E
:1051A0006572656E6365733A2000256420004D6F5B
:1051B000746F7220656E61626C65643A20005945B7
:1051C000530D0A004E4F0D0A000D0A4D454153552F
:1051D00052454D454E545320494E464F0D0A0053FB
:1051E000656E736F722076616C75653A0D0A0025E5
:1051F00064202D3E20256400566F6C746167652025
:10520000286D56293A20256C640043757272656ECC
:1052100074203120286D41293A20256C64004375A3
:105220007272656E74203220286D41293A20256CF7
:1052300064000D0A44455649434520504152414DB2
:1052400045544552530D0A0050494420436F6E7433
:10525000726F6C6C65723A0D0A0050202D3E20254D
:10526000660D0A0049202D3E2025660D0A004420C7
:105270002D3E2025660D0A0043757272656E7420FE
:1052800050494420436F6E74726F6C6C65723A0DB6
:105290000A00537461727475702061637469766179
:1052A00074696F6E3A205945530D0A005374617248
:1052B0007475702061637469766174696F6E3A20E9
:1052C0004E4F0D0A00496E707574206D6F64653A1B
:1052D000205553420D0A00496E707574206D6F643D
:1052E000653A2053656E736F7220330D0A00436F69
:1052F0006E74726F6C204D6F64653A2000506F734E
:105300006974696F6E0D0A0050574D0D0A004375A0
:105310007272656E740D0A00506F736974696F6EF6
:1053200020616E642063757272656E740D0A00539D
:10533000656E736F72207265736F6C7574696F6ED2
:105340003A0D0A004D6561737572656D656E742066
:105350004F66667365743A0D0A002564202D3E2061
:10536000256C64004D6561737572656D656E7420A2
:105370004D756C7469706C6965723A0D0A0025642C
:10538000202D3E202566000A43757272656E7420DA
:10539000636F6E74726F6C6C6572277320706172CC
:1053A000616D65746572733A0A50726F706F7274D2
:1053B000696F6E616C206761696E3A200025660036
:1053C00053617475726174696F6E2076616C756576
:1053D0003A20002568640044656164207A6F6E6538
:1053E0003A20000D0A0A00506F736974696F6E20CD
:1053F0006C696D6974206163746976653A2025640F
:1054000000506F736974696F6E206C696D697420E8
:105410006D6F746F722025643A20696E66202D3E90
:1054200020256C64202000737570202D3E20256C93
:10543000640D0A004D61782073746966666E657349
:10544000733A2025640043757272656E74206C692E
:105450006D69743A20256400437566662073746133
:10546000727475702061637469766174696F6E20FF
:1054700028666F726365293A205945530D0A004327
:1054800075666620737461727475702061637469E7
:10549000766174696F6E2028666F726365293A20A1
:1054A0004E4F0D0A00437566662073746172747501
:1054B000702061637469766174696F6E2028707200
:1054C0006F7072696F63657074696F6E293A2059E5
:1054D00045530D0A004375666620737461727475D6
:1054E000702061637469766174696F6E20287072D0
:1054F0006F7072696F63657074696F6E293A204EC0
:105500004F0D0A00437566662061637469766520F5
:1055100028666F726365293A205945530D0A004386
:10552000756666206163746976652028666F7263AC
:1055300065293A204E4F0D0A004375666620616367
:1055400074697665202870726F7072696F63657018
:1055500074696F6E293A205945530D0A00437566E8
:105560006620616374697665202870726F70726955
:105570006F63657074696F6E293A204E4F0D0A0093
:1055800064656275673A20256C64000000000000C5
:10559000000000000000000000000000000000000B
:1055A00000000000000000000000000000000000FB
:1055B00000000000000000000000000000000000EB
:1055C00000000000000000000000000000000000DB
:105CF000000000000000000031202D20446576697E
:105D000063652049443A0032202D20506F73697436
:105D1000696F6E20504944205B502C20492C204450
:105D20005D3A0033202D2043757272656E742050E9
:105D30004944205B502C20492C20445D3A003420FB
:105D40002D2053746172747570204163746976619B
:105D500074696F6E3A000000000035202D20496EF6
:105D6000707574206D6F64653A00000000000000DB
:105D7000000000000036202D20436F6E74726F6C9F
:105D8000206D6F64653A0000000000000000000014
:105D900000000000000000000000000037202D205F
:105DA0005265736F6C7574696F6E733A0000000012
:105DB0000038202D204D6561737572656D656E74B8
:105DC000204F6666736574733A0039202D204D7537
:105DD0006C7469706C696572733A003130202D20E3
:105DE000506F732E206C696D6974206163746976DD
:105DF000653A00000000003131202D20506F732ED5
:105E0000206C696D697473205B696E662C207375F4
:105E1000705D3A003132202D204D61782073746519
:105E20007073205B6E65672C20706F735D3A003174
:105E300033202D2043757272656E74206C696D6914
:105E4000743A003134202D2043757272656E7420CF
:105E500070726F706F7274696F6E616C20676169C8
:105E60006E3A003135202D2043757272656E7420B4
:105E7000646966666572656E6365207361747572C8
:105E80006174696F6E3A003136202D20437572724D
:105E9000656E742064656164207A6F6E653A0031C6
:105EA00037202D20437566662061637469766174BE
:105EB000696F6E20666C616720666F7263653A0079
:105EC000000000003138202D20506F77657220745B
:105ED000656E73696F6E3A0000003139202D2043E2
:105EE0007566662061637469766174696F6E206699
:105EF0006C61672070726F7072696F3A0000000009
:105F0000003230202D204D617820736C696465204B
:105F10006D6F76656D656E74202870726F70726932
:105F20006F293A003231202D204D617820534820CE
:105F3000636C6F73757265202870726F7072696F11
:105F4000293A003232202D2048616E642049443ABB
:105F5000003233202D204375666620666C61672011
:105F6000666F7263652B70726F7072696F3A0000B2
:105F70000000003234202D205348207265737420B5
:105F8000706F732870726F7072696F293A00000029
:105F9000000000003235202D2041726D20736964AD
:105FA000653A0000000000000030202D3E205573AF
:105FB000620A31202D3E2053686166742773207079
:105FC0006F736974696F6E20636F6E74726F6C7338
:105FD00020746865206D6F746F72730A0030202D15
:105FE0003E20506F736974696F6E0A31202D3E2018
:105FF00050574D0A32202D3E2043757272656E74E3
:106000000A33202D3E20506F736974696F6E2D43E3
:10601000757272656E740A0030202D3E20446561F1
:1060200063746976617465205B4E4F5D0A31202D83
:106030003E204163746976617465205B5945535D08
:106040000A0030202D3E2052696768740A31202DE5
:106050003E204C6566740A008F23E4F52BF52AF583
:1060600029F528900B0DE0FCA3E0FDA3E0FEA3E0E2
:10607000F5378E368D358C34A3E0FCA3E0FDA3E02C
:10608000FEA3E0F53B8E3A8D398C38A3E0FCA3E00B
:10609000FDA3E0FEA3E0F53F8E3E8D3D8C3CA3E0EA
:1060A000FCA3E0FDA3E0FEA3E0F5438E428D418C0E
:1060B00040A3E0FCA3E0FDA3E0FEA3E0F5478E468D
:1060C0008D458C44A3E0FCA3E0FDA3E0FEA3E0F536
:1060D0004B8E4A8D498C48A3E0FCA3E0FDA3E0FE73
:1060E000A3E0F54F8E4E8D4D8C4CA3E0FCA3E0FD5C
:1060F000A3E0FEA3E0F5538E528D518C50A3E0FC3B
:10610000A3E0FDA3E0FEA3E0F5578E568D558C5419
:10611000A3E0FCA3E0FDA3E0FEA3E0F55B8E5A8DB7
:10612000598C58A3E0FCA3E0FDA3E0FEA3E0F55FDB
:106130008E5E8D5D8C5CA3E0FCA3E0FDA3E0FEA37E
:10614000E0F5638E628D618C60E523C394024003A9
:10615000026D93900B41E0147003026BDA1470032C
:1061600002690A14700302641A24036003026C4477
:10617000E52325E025E024E0F582E4340CF583E016
:10618000F8A3E0F9A3E0FAA3E0FBE52325E025E08E
:10619000248CF582E4340BF583E0FCA3E0FDA3E05E
:1061A000FEA3E0C39BF52FEE9AF52EED99F52DECAD
:1061B00098F52C301105C211129C14E52325E02519
:1061C000E02481F582E4340DF583C083C082E0FCD5
:1061D000A3E0FDA3E0FEA3E0252FFFEE352EFEEDAC
:1061E000352DFDEC352CFCD082D083127578E5235B
:1061F00025E025E02481F582E4340DF583E0FCA35D
:10620000E0FDA3E0FEA3E0FF7BA07A8679017800A1
:10621000C31274DD501C7FA07E867D017C00E523C7
:1062200025E025E02481F582E4340DF583127578AC
:106230008042E52325E025E02481F582E4340DF554
:1062400083E0FCA3E0FDA3E0FEA3E0FF7B607A799E
:1062500079FE78FFD31274DD401A7F607E797DFE6F
:106260007CFFE52325E025E02481F582E4340DF56B
:1062700083127578301105C211129C14E4F52BF5C8
:106280002AF529F528FFFEFDFCAB37AA36A935A86B
:1062900034C31274DD606AE4FFFE7D02FCAB2FAAFA
:1062A0002EA92DA82CD31274DD500FE4FFFE7DFE25
:1062B0007CFFA82CC31274DD5027AF2FAE2EAD2D5E
:1062C000AC2C7808127517AB37AA36A935A834124A
:1062D00073A578081275178F2B8E2A8D298C28802C
:1062E00020AF2FAE2EAD2DAC2CAB37AA36A935A8DA
:1062F000341273A578101275178F2B8E2A8D298C66
:1063000028301105C211129C14E4FFFEFDFCAB3BCA
:10631000AA3AA939A838C31274DD6043AF3BAE3A3C
:10632000AD39AC387806127517E52325E025E02451
:1063300081F582E4340DF583E0F8A3E0F9A3E0FAF7
:10634000A3E0FB1273A5780A127517E52B2FF52B26
:10635000E52A3EF52AE5293DF529E5283CF528E41E
:10636000FFFEFDFCAB3FAA3EA93DA83CC31274DD75
:106370006063E52325E025E024E0F582E4340CF5B4
:1063800083E0F8A3E0F9A3E0FAA3E0FBE52325E02E
:1063900025E02417F582E4340CF583E0FCA3E0FD4E
:1063A000A3E0FEA3E0C39BFFEE9AFEED99FDEC98FF
:1063B000FCAB3FAA3EA93DA83C1273A5781012750C
:1063C00017E52B2FF52BE52A3EF52AE5293DF52982
:1063D000E5283CF528301105C211129C14E5237004
:1063E0001CFFFEFDFCAB2BAA2AA929A828C3127406
:1063F000DD4005D213026C44C213026C44E4FFFE7C
:10640000FDFCAB2BAA2AA929A828C31274DD4005DC
:10641000D214026C44C214026C44E52325E025E04A
:1064200024E0F582E4340CF583E0F8A3E0F9A3E07E
:10643000FAA3E0FBE52325E025E0248CF582E43493
:106440000BF583E0FCA3E0FDA3E0FEA3E0C39BF516
:106450002FEE9AF52EED99F52DEC98F52CE52325E8
:10646000E025E02481F582E4340DF583C083C08209
:10647000E0FCA3E0FDA3E0FEA3E0252FFFEE352E18
:10648000FEED352DFDEC352CFCD082D083127578D5
:10649000301105C211129C14E52325E025E024816A
:1064A000F582E4340DF583E0FCA3E0FDA3E0FEA358
:1064B000E0FF7BA07A8679017800C31274DD501C5E
:1064C0007FA07E867D017C00E52325E025E02481F8
:1064D000F582E4340DF5831275788042E52325E0DA
:1064E00025E02481F582E4340DF583E0FCA3E0FD92
:1064F000A3E0FEA3E0FF7B607A7979FE78FFD312F8
:1065000074DD401A7F607E797DFE7CFFE52325E007
:1065100025E02481F582E4340DF583127578E4F5E5
:1065200027F526F525F524301105C211129C14E437
:10653000FFFEFDFCAB4FAA4EA94DA84CC31274DD63
:106540006026AF2FAE2EAD2DAC2CA84C1273A578C3
:1065500010127517E5272FF527E5263EF526E525C8
:106560003DF525E5243CF524E4FFFEFDFCAB53AAF4
:1065700052A951A850C31274DD6038E52325E025E7
:10658000E02481F582E4340DF583E0FCA3E0FDA373
:10659000E0FEA3E0FFA8501273A57810127517E56E
:1065A000272FF527E5263EF526E5253DF525E524AB
:1065B0003CF524E4FFFEFDFCAB57AA56A955A854B0
:1065C000C31274DD6063E52325E025E024E0F58255
:1065D000E4340CF583E0F8A3E0F9A3E0FAA3E0FBD0
:1065E000E52325E025E02417F582E4340CF583E06B
:1065F000FCA3E0FDA3E0FEA3E0C39BFFEE9AFEED4B
:1066000099FDEC98FCAB57AA56A955A8541273A54E
:106610007810127517E5272FF527E5263EF526E5B4
:10662000253DF525E5243CF524301105C211129CC9
:1066300014900B3DE0FEA3E0FFEE3395E0FDFCABD4
:1066400027AA26A925A824D31274DD4016900B3D55
:10665000E0FEA3E0FFEE3395E08F278E26F525F5CB
:1066600024803C900B3DE0FEA3E0FFC3E49FFFE4E9
:106670009EFE3395E0FDFCAB27AA26A925A824C3DE
:106680001274DD501A900B3DE0FEA3E0FFC3E49FBF
:10669000FFE49EFE3395E08F278E26F525F5243006
:1066A0001105C211129C14E52325E024E8F582E4CB
:1066B000340CF583E0FEA3E0FFFBAA06EA3395E085
:1066C000F9F8C3E5279BF533E5269AF532E52599D8
:1066D000F531E52498F530E52325E025E02489F51A
:1066E00082E4340DF583C083C082E0FCA3E0FDA307
:1066F000E0FEA3E02533FFEE3532FEED3531FDEC53
:106700003530FCD082D083127578E52325E025E072
:106710002489F582E4340DF583E0FCA3E0FDA3E0D9
:10672000FEA3E0FF7BA07A8679017800C31274DDB6
:10673000501C7FA07E867D017C00E52325E025E0BE
:106740002489F582E4340DF5831275788042E523BF
:1067500025E025E02489F582E4340DF583E0FCA3EF
:10676000E0FDA3E0FEA3E0FF7B607A7979FE78FF8D
:10677000D31274DD401A7F607E797DFE7CFFE523B5
:1067800025E025E02489F582E4340DF5831275783F
:10679000301105C211129C14E4F52BF52AF529F5E8
:1067A00028FFFEFDFCAB5BAA5AA959A858C3127476
:1067B000DD6026AF33AE32AD31AC30A8581273A5D0
:1067C0007810127517E52B2FF52BE52A3EF52AE5F3
:1067D000293DF529E5283CF528E4FFFEFDFCAB5FEB
:1067E000AA5EA95DA85CC31274DD6038E52325E0CC
:1067F00025E02489F582E4340DF583E0FCA3E0FD77
:10680000A3E0FEA3E0FFA85C1273A5781012751731
:10681000E52B2FF52BE52A3EF52AE5293DF529E55F
:10682000283CF528E4FFFEFDFCAB63AA62A961A841
:1068300060C31274DD6064E52325E024E8F582E49A
:10684000340CF583E0FEA3E0FFFBAA06EA3395E0F3
:10685000F9F8E52325E025E02479F582E4340DF507
:1068600083E0FCA3E0FDA3E0FEA3E0C39BFFEE9A60
:10687000FEED99FDEC98FCAB63AA62A961A86012D9
:1068800073A57810127517E52B2FF52BE52A3EF529
:106890002AE5293DF529E5283CF528E52325E024CE
:1068A000E8F582E4340CF583E0FEA3E0FFEE3395D7
:1068B000E0FDFCE52325E025E02479F582E4340DB4
:1068C000F583127578301105C211129C14E52370FE
:1068D0001CFFFEFDFCAB2BAA2AA929A828C3127411
:1068E000DD4005D213026C44C213026C44E4FFFE87
:1068F000FDFCAB2BAA2AA929A828C31274DD4005E8
:10690000D214026C44C214026C44E52325E025E055
:10691000248CF582E4340BF583E0FCA3E0FDA3E0D6
:10692000FEA3E0FF74CC2523F582E4340BF583E06D
:10693000F9F81275178F278E268D258C24900B3D24
:10694000E0FEA3E0FFEE3395E0FDFCAB27AA26A90D
:1069500025A824D31274DD4014900B3DE0FEA3E083
:10696000FFEE3395E08F278E26F525F524AE26AF72
:106970002712BFFCE52325E024E8F582E4340CF57A
:1069800083E0FCA3E0FDC3EF9DFFEE9CFE3395E0AA
:106990008F338E32F531F530E52325E025E024896B
:1069A000F582E4340DF583C083C082E0FCA3E0FDF2
:1069B000A3E0FEA3E02533FFEE3532FEED3531FDD9
:1069C000EC3530FCD082D083127578E52325E025A4
:1069D000E02489F582E4340DF583E0FCA3E0FDA317
:1069E000E0FEA3E0FF7BA07A8679017800C31274F1
:1069F000DD501C7FA07E867D017C00E52325E025FF
:106A0000E02489F582E4340DF583127578803CE545
:106A10002325E025E02489F582E4340DF583E0FCAC
:106A2000A3E0FDA3E0FEA3E0FFE4FBFAF9F8D31234
:106A300074DD4017E4FFFEFDFCE52325E025E0249E
:106A400089F582E4340DF583127578E4F52BF52A87
:106A5000F529F528FFFEFDFCAB43AA42A941A84059
:106A6000C31274DD602CAF33AE32AD31AC30AB3716
:106A7000AA36A935A8341273A57810127517E52B1C
:106A80002FF52BE52A3EF52AE5293DF529E5283C99
:106A9000F528E4FFFEFDFCAB47AA46A945A844C380
:106AA0001274DD603DE52325E025E02489F582E4CC
:106AB000340DF583E0FCA3E0FDA3E0FEA3E0FF7846
:106AC00006127517A8441273A5780A127517E52BDC
:106AD0002FF52BE52A3EF52AE5293DF529E5283C49
:106AE000F528E4FFFEFDFCAB4BAA4AA949A848C320
:106AF0001274DD6064E52325E024E8F582E4340CBB
:106B0000F583E0FEA3E0FFFBAA06EA3395E0F9F87F
:106B1000E52325E025E02479F582E4340DF583E0D2
:106B2000FCA3E0FDA3E0FEA3E0C39BFFEE9AFEED15
:106B300099FDEC98FCAB4BAA4AA949A8481273A549
:106B40007810127517E52B2FF52BE52A3EF52AE56F
:106B5000293DF529E5283CF528E4FFFEFDFCAB2B9B
:106B6000AA2AA929A828C31274DD5009E4F52BF537
:106B70002AF529F528E52325E024E8F582E4340CFC
:106B8000F583E0FEA3E0FFEE3395E0FDFCE5232571
:106B9000E025E02479F582E4340DF583127578E57B
:106BA00023701CFFFEFDFCAB2BAA2AA929A828C331
:106BB0001274DD4005D213026C44C213026C44E42B
:106BC000FFFEFDFCAB2BAA2AA929A828C31274DD5D
:106BD0004004D214806EC214806AE52325E025E0CB
:106BE000248CF582E4340BF583E0FCA3E0FDA3E004
:106BF000FEA3E0FF74CC2523F582E4340BF583E09B
:106C0000F9F81275178F2B8E2A8D298C28E52370A1
:106C10001AFFFEFDFCAB2BAA2AA929A828C31274CF
:106C2000DD4004D213801DC2138019E4FFFEFDFC79
:106C3000AB2BAA2AA929A828C31274DD4004D214B8
:106C40008002C214301105C211129C14E47F64FE4C
:106C5000FDFCAB2BAA2AA929A828D31274DD400A6F
:106C6000E4752B64F52AF529F52874FF7F9CFEFD59
:106C7000FCAB2BAA2AA929A828C31274DD500B74D7
:106C8000FF752B9CF52AF529F528301105C2111244
:106C90009C14900B41E064016037AF2BAE2AAD2904
:106CA000AC28780A12752BE47B64FAF9F812B5E87F
:106CB000A804A905AA06AB07900CF6E0FFE4FCFDCA
:106CC000FE1273A5780A1275178F2B8E2A8D298CC8
:106CD000283013113014077F0312C17980167F0109
:106CE00012C179800F3014077F0212C1798005E448
:106CF000FF12C179301105C211129C14E5237046B0
:106D0000FFFEFDFCAB2BAA2AA929A828D31274DD0B
:106D100040067E007F01801DE4FFFEFDFCAB2BAA38
:106D20002AA929A828C31274DD50067EFF7FFF80A0
:106D3000047E007F00900CDEEFF0AE2AAF2B12BF76
:106D4000FC12C10D8045E4FFFEFDFCAB2BAA2AA975
:106D500029A828D31274DD40067E007F01801DE43F
:106D6000FFFEFDFCAB2BAA2AA929A828C31274DDBB
:106D700050067EFF7FFF80047E007F00900CDFEFD7
:106D8000F0AE2AAF2B12BFFC12C113301105C21195
:106D9000129C1422EC4D6011E8497017ED33EC336E
:106DA00004600DE4FCFFFEFD22E933E8330470F8D3
:106DB00002705D12702858046009E4CC24815006EA
:106DC000285009027067284003027064C0E0EB4A53
:106DD0007044B98006D0E0FB027053EF4E701CBDCA
:106DE0008008EBFFEAFEE9FD80EBE98DF0A4FEE50B
:106DF000F0026E7DE9CDF9EAFEEBFFEF89F0A4FC2D
:106E0000E5F0CE89F0A42EFFE435F0CD89F0A42D75
:106E1000FEE435F08067EF4E7005BD80D780C3EF8C
:106E20008BF0A4ACF0EE8BF0A42CFCE435F0F8EF82
:106E30008AF0A42CE5F038FCE433CB8DF0A42CFCD4
:106E4000E5F03BF8EE8AF0A42CFCE5F038F8E433EA
:106E5000CF89F0A42CFCE5F038CF3400CE89F0A423
:106E60002FFFE5F03EFEE433C98DF0A42EFEE5F0E1
:106E700039CD8AF0A42FFFE5F03EFEE43DFD33D08E
:106E8000E0FB50070BBB000F027067EC2CFCEF33EC
:106E9000FFEE33FEED33FD02703F027067EC5D04E0
:106EA0006005E85904700302705D12702858046090
:106EB000F6EC4860F2EC7004FDFEFF22C860DB24B3
:106EC00081C85009C398600250060270649850CA85
:106ED000F582E9294B4A7005AB8202705375F000C8
:106EE0007C1A7880C3EF9BEE9AED99400DC3EF9B1F
:106EF000FFEE9AFEED99FDE842F0DC23ACF0D0E025
:106F0000FFD0E0FED0E0FDAB8220E7101BEB60BAC3
:106F1000EC2CFCEF33FFEE33FEED33FD02703FE867
:106F200003F830E705C0F075F000EF2FFFEE33FEF9
:106F3000ED33FD40B830E7C280AA74F8CC6480CC51
:106F4000C86480C8F58204604FC3EB9FF5F0EA9EE9
:106F500042F0E99D42F0E89C45F0603C501DE5821E
:106F60005FFFE582D313CB5BCBF42B5582FB50281C
:106F70000ABA002409B9002008801DE5825BFBE500
:106F800082D313CF5FCFF4C3132F5582FF50090E66
:106F9000BE00050DBD00010CC3EB9FF5F0EA9E425B
:106FA000F0E99D42F0E89C45F06007CC4820E701FD
:106FB000B3EC2275F020800E75F010800575F00896
:106FC0007D007E007F003392D530D5031274CFEC64
:106FD000334010EF33FFEE33FEED33FDEC33FCD5E1
:106FE000F0ED22E5F0247EA2D513CC92E7CDCEFFC2
:106FF00022EDD2E7CD33EC3392D524814006E4FF75
:10700000FEFDFC22FCE4CFCECDCC24E0501174FF79
:1070100080EDC3CC13CCCD13CDCE13CECF13CF0484
:1070200070F030D5DE0274CFE9D2E7C933E833F827
:1070300092D5EDD2E7CD33EC33FC5002B2D522EC41
:1070400030E7100FBF000C0EBE00080DBD00040B92
:10705000EB6014A2D5EB13FCED92E7FD2274FFFC6C
:10706000FDFEFF22E480F8A2D574FF13FC7D80E4CE
:1070700080EFF920E73624F950037907E4F424027D
:10708000FBE582158270021583DBF6E024FB501BC2
:10709000E96014E4F0E582158270021583E004F0E3
:1070A000B40A08E4F0D9EE7401F00A22C2D522ED48
:1070B00033EC3392D5FA602AB4FF33EDC2E77BFF9D
:1070C00060067A7079D4E4227A7079DD20D5047A6A
:1070D0007079D8224E614E002B494E46002D494E04
:1070E0004600E47A08F0A3DAFC7B00740722C08330
:1070F000C082ECC0E0EDC0E0EEC0E0EFC0E0EA75B9
:10710000F010A4CAABF075F04DA42BFBE435F0FCF5
:10711000EA2410FAEB34C5FBEC34D9FCEDC2E7FFEE
:1071200075F056A4F42411C5F0F434C58FF0A42AE8
:10713000E5F03BE43CF020E7141272DCD0E0FFD035
:10714000E0FED0E0FDD0E0FC126E9D8014F404124D
:1071500072DCD0E0FFD0E0FED0E0FDD0E0FC126DAC
:1071600094D082D083E0FAEDD2E7CD33EC332482A1
:10717000FBE4C3CF33CFCE33CECD33CD33DBF37B84
:107180000775F00A846004F0A31B0AE5F0F0A38FF2
:10719000F0740AA4FFACF08EF0740AA42CFEACF0DC
:1071A00050010C8DF0740AA42CFDE435F0F0A3DB43
:1071B000DE74072202705DE86480F8E933E833602A
:1071C000110460F0ED33EC337009E8FCE9FDEAFEF0
:1071D000EBFF220460DED3EB9FEA9EE99DE8C2E765
:1071E0008CF0C2F795F0400CE8CCF8E9CDF9EACE86
:1071F000FAEBCFFB12702885D0F05804700320D52D
:10720000B3E80470075002B2D502706792D5EC045F
:1072100060F7E4CCC0E0C398F8603B941860084085
:107220000DD0E0FB02703FE4FBFAC9FC8028E83097
:10723000E406E4C9FBE4CAFCE830E305E4C9CACBD0
:10724000FCE854076010F8C3E913F9EA13FAEB13EA
:10725000FBEC13FCD8F130F52FC3E49CFCEF9BFF53
:10726000EE9AFEED99FDD0E0FBEF4E4D4C701222F0
:10727000DB03027064EC2CFCEF33FFEE33FEED33E6
:10728000FDED30E7EB02703FEF2BFFEE3AFEED39FC
:10729000FDD0E0FB50130BBB0003027067ED13FD44
:1072A000EE13FEEF13FFEC13FC02703F3F80000073
:1072B0004120000042C80000447A0000461C400003
:1072C00047C35000497424004B1896804CBEBC2024
:1072D0005A0E1BCA6753C21C749DC5AEFB60065490
:1072E00007601C232312730AEB543860091272F6EC
:1072F000127305126D94ECF8EDF9EEFAEFCB22EB78
:1073000012730580F1543803241C9072ACFE93FC78
:107310000EEE93FD0EEE930ECE93FF22BB01068977
:10732000828A83E0225002E722BBFE02E3228982A6
:107330008A83E49322BB010CE58229F582E5833A36
:10734000F583E0225006E92582F8E622BBFE06E935
:107350002582F8E222E58229F582E5833AF583E485
:107360009322BB010689828A83F0225002F722BB56
:10737000FE01F322EF8DF0A4A8F0CF8CF0A428CE6C
:107380008DF0A42EFE22BB010A89828A83F0E5F0EB
:10739000A3F0225006F709A7F01922BBFE06F3E579
:1073A000F009F31922E88FF0A4CC8BF0A42CFCE9AF
:1073B0008EF0A42CFC8AF0EDA42CFCEA8EF0A4CD77
:1073C000A8F08BF0A42DCC3825F0FDE98FF0A42C8B
:1073D000CD35F0FCEB8EF0A4FEA9F0EB8FF0A4CF3E
:1073E000C5F02ECD39FEE43CFCEAA42DCE35F0FDEF
:1073F000E43CFC2275F008758200EF2FFFEE33FEAF
:10740000CD33CDCC33CCC58233C5829BED9AEC997C
:10741000E58298400CF582EE9BFEED9AFDEC99FC1E
:107420000FD5F0D6E4CEFBE4CDFAE4CCF9A8822265
:10743000B800C1B90059BA002DEC8BF084CFCECD85
:10744000FCE5F0CBF97818EF2FFFEE33FEED33FDBE
:10745000EC33FCEB33FB10D703994004EB99FB0FA3
:10746000D8E5E4F9FA227818EF2FFFEE33FEED337A
:10747000FDEC33FCC933C910D7059BE99A4007ECF2
:107480009BFCE99AF90FD8E0E4C9FAE4CCFB227539
:10749000F010EF2FFFEE33FEED33FDCC33CCC833CD
:1074A000C810D7079BEC9AE899400AED9BFDEC9A2F
:1074B000FCE899F80FD5F0DAE4CDFBE4CCFAE4C8A7
:1074C000F922CFF4CFCEF4CECDF4CDCCF4CC22C380
:1074D000E49FFFE49EFEE49DFDE49CFC22EB9FF50F
:1074E000F0EA9E42F0E99D42F0EC6480C864809826
:1074F00045F022EB9FF5F0EA9E42F0E99D42F0E86C
:107500009C45F022E8600FECC313FCED13FDEE1375
:10751000FEEF13FFD8F122E86010ECA2E713FCEDB8
:1075200013FDEE13FEEF13FFD8F022E8600FEFC358
:1075300033FFEE33FEED33FDEC33FCD8F122BB011B
:107540000789828A8302780A5005E9F80277FEBB30
:10755000FE05E9F802781689828A83027822BB0147
:107560000789828A830275785005E9F8027832BB70
:10757000FE05E9F802783E22ECF0A3EDF0A3EEF070
:10758000A3EFF022F8E0FBA3A3E0F925F0F0E582F9
:10759000158270021583E0FA38F022EBF0A3EAF0CE
:1075A000A3E9F022D083D082F8E49370127401939F
:1075B000700DA3A393F8740193F5828883E4737428
:1075C00002936860EFA3A3A380DFE50F2582F58215
:1075D000E50E3583F583B50E0485820F2210AF06C4
:1075E00085820FF50E2285820FF50ED2AF22EC8E2A
:1075F000F0A4CCC5F0CCCDF8EFA4CEC5F02DFDE4C1
:107600003CFCE8A42EC8C5F03DFDE43CFCEFA4FF23
:10761000E5F028FEE43DFDE43CFC22E709F608DF46
:10762000FA8046E709F208DFFA803E88828C83E719
:1076300009F0A3DFFA8032E309F608DFFA806EE38F
:1076400009F208DFFA806688828C83E309F0A3DF01
:10765000FA805A89828A83E0A3F608DFFA804E898D
:10766000828A83E0A3F208DFFA804280D280FA8027
:10767000C680D4805580F28029801080A680EA8060
:107680009A80A880DA80E280CA802988848C8589E3
:10769000828A83E493A30586F0A30586DFF5DEF3F3
:1076A000800B89828A83E493A3F608DFF9ECFAA9B8
:1076B000F0EDFB2288848C8589828A83E0A305868D
:1076C000F0A30586DFF6DEF480E389828A83E49303
:1076D000A3F208DFF980D688F0EF60010E4E60CD8E
:1076E00088F0ED2402B4040050C3F582EB2402B408
:1076F000040050B9232345822390766B73E709F683
:107700000870FA8046E709F20870FA803E88828C99
:1077100083E709F0A370FA8074E309F60870FA8031
:107720006CE309F20870FA806488828C83E309F0C4
:10773000A370FA805889828A83E0A3F60870FA80E1
:107740004C89828A83E0A3F20870FA804080D2805C
:10775000FA80C680D4805180F28027801080A68075
:10776000EA809A80A880DA80E280CA802788848CA8
:107770008589828A83E493A30586F0A3058670F544
:10778000800B89828A83E493A3F60870F9ECFAA946
:10779000F0EDFB2288848C8589828A83E0A30586AC
:1077A000F0A3058670F680E589828A83E493A3F2CC
:1077B0000870F980D888F0ED2402B4040050CEF5AA
:1077C00082EB2402B4040050C42323458223907723
:1077D0004D73C5F0F8A3E028F0C5F0F8E5821582F6
:1077E00070021583E038F022A3F8E0C5F025F0F030
:1077F000E582158270021583E0C838F0E822E6FCC5
:1078000008E6FD08E6FE08E6FF22E0FCA3E0FDA393
:10781000E0FEA3E0FF22E2FC08E2FD08E2FE08E24F
:10782000FF22E493FC740193FD740293FE740393AE
:10783000FF22ECF608EDF608EEF608EFF622ECF281
:1078400008EDF208EEF208EFF2227F0290000374D6
:1078500086F0A3F07B017A007903EFFD7C00900BAA
:107860000714F012AA1512BF0890001B1275789029
:107870000C3EE064866048301105C211129C14125F
:10788000BF0890001F12757890001FE0F8A3E0F980
:10789000A3E0FAA3E0FB90001BE0FCA3E0FDA3E063
:1078A000FEA3E0C39BFFEE9AFEED99FDEC98FC7BF6
:1078B000207AAA79447800C31274F350B2C20A2025
:1078C0000A03027CF1900C41E0FEA3E0FF9000135C
:1078D000EEF0A3EFF0900C43E0FDA3E0900015CD97
:1078E000F0A3EDF0900C00E0FCA3E0FDC39FEE647C
:1078F00080F8EC6480985008900013ECF0A3EDF051
:10790000900C02E0FEA3E0FF900013E0FCA3E0FD7A
:10791000C39FEE6480F8EC6480985009E4900013F3
:10792000F0A3F08015900C02E0FEA3E0FFC3ED9FF2
:10793000FFEC9E900013F0A3EFF0900015E0FEA383
:10794000E0FFEE3395E0FDFC900C11E0F8A3E0F9C8
:10795000A3E0FAA3E0FBC3EF9BFFEE9AFEED99FDD7
:10796000EC98FC900017127578900C05E0FCA3E0F1
:10797000FDA3E0FEA3E0FF900017E0F8A3E0F9A369
:10798000E0FAA3E0FB1273A5900C09E0F8A3E0F97C
:10799000A3E0FAA3E0FB12B5E89000171275789007
:1079A0000017E0FCA3E0FDA3E0FEA3E0FF900BCCFA
:1079B000E0F9F812752B900023127578900017E00B
:1079C000FCA3E0FDA3E0FEA3E0FF900BCDE0F9F8FF
:1079D00012752B900027127578900013E0FCA3E03D
:1079E000FDEC126FB8900BFCE0F8A3E0F9A3E0FA0D
:1079F000A3E0FB126D947B007AFF797F7847126DCC
:107A000094E4FBFA79B47844126E9D126FF1900001
:107A100017127578900B8BE07003027AE7900023C1
:107A2000E0FCA3E0FDA3E0FEA3E0FF900CD0E0F8B3
:107A3000A3E0F9A3E0FAA3E02FFFEA3EFEE93DFD53
:107A4000E83CFCC004C005C006C007900017E0FC7D
:107A5000A3E0FDA3E0FEA3E0FF900BCCE0F9F81259
:107A6000752BA804A905AA06AB07D007D006D00538
:107A7000D004C3EF9BFFEE9AFEED99FDEC98FC90CD
:107A80000CC3127578900027E0FCA3E0FDA3E0FE94
:107A9000A3E0FF900CD4E0F8A3E0F9A3E0FAA3E0A0
:107AA0002FFFEA3EFEE93DFDE83CFCC004C005C0F6
:107AB00006C007900017E0FCA3E0FDA3E0FEA3E0F2
:107AC000FF900BCDE0F9F812752BD003D002D00156
:107AD000D000EB2FFFEA3EFEE93DFDE83CFC900CB8
:107AE000C7127578027BB0900023E0F8A3E0F9A3F9
:107AF000E0FAA3E0FB900CD0E0FCA3E0FDA3E0FEE5
:107B0000A3E0C39BFFEE9AFEED99FDEC98FCC00448
:107B1000C005C006C007900017E0FCA3E0FDA3E08D
:107B2000FEA3E0FF900BCCE0F9F812752BA804A996
:107B300005AA06AB07D007D006D005D004C3EF9B3B
:107B4000FFEE9AFEED99FDEC98FC900CC31275784F
:107B5000900027E0F8A3E0F9A3E0FAA3E0FB900C83
:107B6000D4E0FCA3E0FDA3E0FEA3E0C39BFFEE9AFC
:107B7000FEED99FDEC98FCC004C005C006C007905E
:107B80000017E0FCA3E0FDA3E0FEA3E0FF900BCD17
:107B9000E0F9F812752BD003D002D001D000EB2F02
:107BA000FFEA3EFEE93DFDE83CFC900CC71275780B
:107BB000900B54E07003027C8FA3E0FCA3E0FDA3D4
:107BC000E0FEA3E0FF900CC3E0F8A3E0F9A3E0FA25
:107BD000A3E0FBC31274DD5014900B55E0FCA3E04E
:107BE000FDA3E0FEA3E0FF900CC3127578900B5943
:107BF000E0FCA3E0FDA3E0FEA3E0FF900CC7E0F8EB
:107C0000A3E0F9A3E0FAA3E0FBC31274DD501490E3
:107C10000B59E0FCA3E0FDA3E0FEA3E0FF900CC73E
:107C2000127578900B5DE0FCA3E0FDA3E0FEA3E0FD
:107C3000FF900CC3E0F8A3E0F9A3E0FAA3E0FBD3C4
:107C40001274DD4014900B5DE0FCA3E0FDA3E0FEA8
:107C5000A3E0FF900CC3127578900B61E0FCA3E0E9
:107C6000FDA3E0FEA3E0FF900CC7E0F8A3E0F9A3BA
:107C7000E0FAA3E0FBD31274DD4014900B61E0FC4A
:107C8000A3E0FDA3E0FEA3E0FF900CC7127578907F
:107C90000C11E0FCA3E0FDA3E0FEA3E024CEFBEE8C
:107CA00034FFFAED34FFF9EC34FFF8900015E0FEF4
:107CB000A3E0FFEE3395E0FDFCD31274DD5032906B
:107CC0000C11E0FCA3E0FDA3E0FEA3E02432FBE402
:107CD0003EFAE43DF9E43CF8900015E0FEA3E0FF35
:107CE000EE3395E0FDFCC31274DD4005200F02D297
:107CF0000B22E569243FF582E43406F583E005694B
:107D00002290063C30080390063FE475F00112759E
:107D10008402731C2001E97F2ED2018018EF540FDA
:107D20002490D43440D4FF30050BEF24BFB41A00A4
:107D300050032461FFE56A6002156A056DE56D7008
:107D400002056C30080E90063CE475F00112758453
:107D5000EF02736202BB4C7403D2088003E4C208D2
:107D6000F56990063C12759BE4F56AF56CF56DE5D6
:107D70006A60077F20127D3580F5756BFFC202C2F5
:107D800001C203C204C206C207C209127D01FF700C
:107D90000D3008057F00127D46AF6DAE6C22B42514
:107DA0005FC2D5C205127D01FF24D0B40A00501A6B
:107DB00075F00A786A30D50508B6FF0106C6A42614
:107DC000F620D5047002D20480D924CFB41A00EF73
:107DD0005004C2E5D205028038D20280C6D20180AA
:107DE000C0D20380BCD2D580BAD20680B47F201224
:107DF0007D352003077401B56A0040F1127CF2FF63
:107E0000127D35027D6FD209D2078095127CF2FB7C
:107E1000127CF2FA127CF2F94A4B700679367A81BA
:107E20007BFF20032EE56A602A7E008E8275830028
:107E300012733560060EEE656B70F0C2D5EBC0E0D4
:107E4000EAC0E0E9C0E0EE128099D0E0F9D0E0FAB3
:107E5000D0E0FB12731CFF60AAEBC0E0EAC0E0E9CF
:107E6000C0E0127D35D0E02401F9D0E03400FAD032
:107E7000E0FBE56B0460DCD56BD98087D20380A280
:107E800012807B60F7E56B700104127072A96B6061
:107E90000DE56B600914F56B128123EF60F3EA3096
:107EA000E702F404C3995079EAF4256B0430E70142
:107EB000E404F56B800D12807B60C1EA056B256BD5
:107EC000127072EA90066BF030E701E4256B04D57E
:107ED0006B0420060114128099E4C0E01281239003
:107EE000066BE0601320E70714F0127D1D8022046A
:107EF000F0D0E014C0E07F00127D1DE56B6007123A
:107F00007D14156B800B300603127D14D0E0027DCA
:107F10006FD0E00480C412807B609EE56B04127019
:107F20007290066BEAF0E56B2006026001042404FF
:107F300012809974FF04C0E0128123127D1DE56B4D
:107F40002006026003127D14D0E0B56BE87F451275
:107F50007D2790066BE07F2B30E7047F2DF404C073
:107F6000E0127D35D0E075F00A84C0F0127D1ED09D
:107F7000E0127D1E027D6F791080027908C207C26F
:107F8000098008D2D5790A8004790AC2D5E56B0444
:107F90007002F56BE4FAFDFEFF127CF2FC7B082018
:107FA0000213127CF2FD7B1030010A127CF2FE12E9
:107FB0007CF2FF7B20EC3382D592D55013C3E430A2
:107FC00001069FFFE49EFEE42002039DFDE49CFC6D
:107FD000E4CBF8C202EC700CCFCECDCCE824F8F89C
:107FE00070F38017C3EF33FFEE33FEED33FDEC3358
:107FF000FCEB33FB994002FB0FD8E9EB300205F8AC
:10800000D0E0C448B202C0E00AEC4D4E4F78207B6D
:108010000070C2EAB56B0040BCC0E012809BD0F09B
:10802000D0E0200204C4C0E0C4B202C0F0127D1E41
:10803000D0F0D5F0EB027D6F1275A47E0C537F77E4
:10804000587DDD4C7DD9427F7B4F7F83447F8349C0
:108050007DF2437F89557EB6467F16457E804781F7
:1080600056507DE12D7DE52E7E082B7DE9237E0691
:1080700020813F2A7DA14800007E00E56BB4FF030C
:10808000756B06127CF2FC127CF2FD127CF2FE1281
:108090007CF2FF9006640270AF790AA2D520041426
:1080A000300609B910020404B9080104A2D520075A
:1080B000025001042003689203B56A005034C0E006
:1080C0007F203004197F30A20372077206500F120E
:1080D00080F2C203C207C206C2097F30800F300699
:1080E00003E9C0E0127D35300603D0E0F9D0E0B5F9
:1080F0006ACC3006177F30B9100C127D357F5830AE
:1081000005077F788003B90803127D353003057FAA
:108110002D027D357F202009F87F2B2007F3229246
:108120000380CF7F00B40700500B2464F582E43451
:1081300006F583E0FF22286E756C6C2900D20212CE
:108140007CF23002F8C202786A30D50108F6027D6E
:10815000A12D50434958127CF22403B4050040017C
:10816000E490815193127D26743A127D26D20475D3
:108170006A04027F777F029000037484F0A3F07B8F
:10818000017A007903EFFD7C00900B0714F012AA2E
:108190001512BF08900019127578900C3EE06484A7
:1081A0006048301105C211129C1412BF0890001DC6
:1081B00012757890001DE0F8A3E0F9A3E0FAA3E0BF
:1081C000FB900019E0FCA3E0FDA3E0FEA3E0C39B4D
:1081D000FFEE9AFEED99FDEC98FC7B207AAA79449B
:1081E0007800C31274F350B2C20C200C030284B1A5
:1081F000900C3FE0FEA3E0FF900013EEF0A3EFF041
:10820000EE3395E0FDFC900C11E0F8A3E0F9A3E05B
:10821000FAA3E0FBC3EF9BFFEE9AFEED99FDEC980D
:10822000FC900015127578900C05E0FCA3E0FDA30E
:10823000E0FEA3E0FF900015E0F8A3E0F9A3E0FA68
:10824000A3E0FB1273A5C004C005C006900C11E0AA
:10825000F8A3E0F9A3E0FAA3E0FB900C09E0FCA38B
:10826000E0FDA3E0FEA3E0C39BFBEE9AFAED99F9D3
:10827000EC98F8D006D005D00412B5E8900015129D
:108280007578900B8BE0606C900015E0FCA3E0FD2E
:10829000A3E0FEA3E0FF900BCCE0F9F812752B9061
:1082A0000CD0E0F8A3E0F9A3E0FAA3E02FFFEA3E48
:1082B000FEE93DFDE83CFC900CC31275789000157A
:1082C000E0FCA3E0FDA3E0FEA3E0FF900BCDE0F90E
:1082D000F812752B900CD4E0F8A3E0F9A3E0FAA310
:1082E000E02FFFEA3EFEE93DFDE83CFC900CC712A2
:1082F0007578807C900015E0FCA3E0FDA3E0FEA370
:10830000E0FF900BCCE0F9F812752BA804A905AAA0
:1083100006AB07900CD0E0FCA3E0FDA3E0FEA3E0D9
:10832000C39BFFEE9AFEED99FDEC98FC900CC312F6
:108330007578900015E0FCA3E0FDA3E0FEA3E0FF4C
:10834000900BCDE0F9F812752BA804A905AA06AB8D
:1083500007900CD4E0FCA3E0FDA3E0FEA3E0C39BE8
:10836000FFEE9AFEED99FDEC98FC900CC712757823
:10837000900B54E0700302844FA3E0FCA3E0FDA344
:10838000E0FEA3E0FF900CC3E0F8A3E0F9A3E0FA5D
:10839000A3E0FBC31274DD5014900B55E0FCA3E086
:1083A000FDA3E0FEA3E0FF900CC3127578900B597B
:1083B000E0FCA3E0FDA3E0FEA3E0FF900CC7E0F823
:1083C000A3E0F9A3E0FAA3E0FBC31274DD5014901C
:1083D0000B59E0FCA3E0FDA3E0FEA3E0FF900CC777
:1083E000127578900B5DE0FCA3E0FDA3E0FEA3E036
:1083F000FF900CC3E0F8A3E0F9A3E0FAA3E0FBD3FD
:108400001274DD4014900B5DE0FCA3E0FDA3E0FEE0
:10841000A3E0FF900CC3127578900B61E0FCA3E021
:10842000FDA3E0FEA3E0FF900CC7E0F8A3E0F9A3F2
:10843000E0FAA3E0FBD31274DD4014900B61E0FC82
:10844000A3E0FDA3E0FEA3E0FF900CC712757890B7
:108450000C11E0FCA3E0FDA3E0FEA3E024CEFBEEC4
:1084600034FFFAED34FFF9EC34FFF8900013E0FE2E
:10847000A3E0FFEE3395E0FDFCD31274DD503290A3
:108480000C11E0FCA3E0FDA3E0FEA3E02432FBE43A
:108490003EFAE43DF9E43CF8900013E0FEA3E0FF6F
:1084A000EE3395E0FDFCC31274DD4005200F02D2CF
:1084B0000B22756702900B40E06003028781900BEE
:1084C000D6E0FCA3E0FDA3E0FEA3E0FF900B4CE0B0
:1084D000F8A3E0F9A3E0FAA3E0FB126F3A6058902A
:1084E0000CC3E0FCA3E0FDA3E0FEA3E0FFEC126FF1
:1084F000B3900B4CE0F8A3E0F9A3E0FAA3E0FB1281
:108500006E9D126FF1900CC3127578900CC3E0FC55
:10851000A3E0FDA3E0FEA3E0FFEC126FB3900BD647
:10852000E0F8A3E0F9A3E0FAA3E0FB126D94126F68
:10853000F1900CC3127578900BDAE0FCA3E0FDA378
:10854000E0FEA3E0FF900B50E0F8A3E0F9A3E0FA0F
:10855000A3E0FB126F3A6058900CC7E0FCA3E0FD6B
:10856000A3E0FEA3E0FFEC126FB3900B50E0F8A382
:10857000E0F9A3E0FAA3E0FB126E9D126FF1900CFC
:10858000C7127578900CC7E0FCA3E0FDA3E0FEA342
:10859000E0FFEC126FB3900BDAE0F8A3E0F9A3E090
:1085A000FAA3E0FB126D94126FF1900CC71275786C
:1085B000900BCEE0FCA3E0FDA3E0FEA3E0FF900B58
:1085C00044E0F8A3E0F9A3E0FAA3E0FBC31274DDF2
:1085D0006057900CC3E0F8A3E0F9A3E0FAA3E0FB36
:1085E000C000C001C002C003900B44E0F8A3E0F952
:1085F000A3E0FAA3E0FB900BCEE0FCA3E0FDA3E038
:10860000FEA3E0C39BFFEE9AFEED99FDEC98FCD033
:1086100003D002D001D000EB2FFFEA3EFEE93DFD82
:10862000E83CFC900CC3127578900BD2E0FCA3E000
:10863000FDA3E0FEA3E0FF900B48E0F8A3E0F9A360
:10864000E0FAA3E0FBC31274DD6057900CC7E0F8BA
:10865000A3E0F9A3E0FAA3E0FBC000C001C002C0A0
:1086600003900B48E0F8A3E0F9A3E0FAA3E0FB9045
:108670000BD2E0FCA3E0FDA3E0FEA3E0C39BFFEE72
:108680009AFEED99FDEC98FCD003D002D001D00009
:10869000EB2FFFEA3EFEE93DFDE83CFC900CC712E3
:1086A0007578900B54E07003028781A3E0FCA3E08F
:1086B000FDA3E0FEA3E0FF900CC3E0F8A3E0F9A364
:1086C000E0FAA3E0FBC31274DD5014900B55E0FCFC
:1086D000A3E0FDA3E0FEA3E0FF900CC31275789029
:1086E0000B59E0FCA3E0FDA3E0FEA3E0FF900CC764
:1086F000E0F8A3E0F9A3E0FAA3E0FBC31274DD50B5
:1087000014900B59E0FCA3E0FDA3E0FEA3E0FF9072
:108710000CC7127578900B5DE0FCA3E0FDA3E0FEB2
:10872000A3E0FF900CC3E0F8A3E0F9A3E0FAA3E014
:10873000FBD31274DD4014900B5DE0FCA3E0FDA3BD
:10874000E0FEA3E0FF900CC3127578900B61E0FC93
:10875000A3E0FDA3E0FEA3E0FF900CC7E0F8A3E0D8
:10876000F9A3E0FAA3E0FBD31274DD4014900B618F
:10877000E0FCA3E0FDA3E0FEA3E0FF900CC71275B0
:1087800078900B96E0FF900B0CE0FE6F603F8E6AD6
:10879000E4FFFE12A6ACEF601B7568017569017BF2
:1087A000007A007968E567FD7C00900030E56AF0AA
:1087B00012AAB822E4F568F569FB7A007968E567E2
:1087C000FD7C00900030E56AF012AAB822E4FFFEBA
:1087D00012A6ACEF60067F0112BD8222E4FF12BD3B
:1087E0008222900003EDF08F23E523C3940240031F
:1087F000028AD6300E227B02AF031BEF6018E4FF23
