:40000000021415008F828E83E0540100000070F82278FFE4F6D8FD02147A900000EFF0E4F53FF540F541F54275430AC200121F87EF60057F00121FB7122067D2AF9044F4FC
:4000400074FDF0E4F53B754900754A00754B37900000E0FF70067EFF7FFF80008F4C7B017A0079017D2C7C011212FA8F3E900000E060021543E5436004E53E70C9E53E6046
:400080000302059FC3E5389407E53794004008900001E064016005753B04807E900004E0FE900003E0FDEEF53FEDF54074062540F5827400353FF583E0FE74052540F58228
:4000C0007400353FF583E0FDEEF53CEDF53DE5402407FFE4353FFED3EF9538EE95374005753B03803574072540F5827400353FF583E064176005753B04801F7B017A0079B1
:4001000001E5402404FDE4353FFC121C66EF653D7003EE653C6003753B08E4F539F53AE53B600302058E900005E0F536753B04900002E012088801553101823202083403A0
:400140007A3503883703D438020839040F3A05783B0000058B20000302058EE540453F600302058EFF120D84EF70047F0180027F00900005EFF0753900753A01E4F53B0260
:40018000058E20000302058EE5406401453F600302058EE536C39401400302058E900357E0FEA3E0F5828E83120842E4FBFA7901F81207188F24E536B5241E900357E0FE6B
:4001C000A3E0F5828E83120842E4FB7A01F9F81207187522008F238014E536D395244007E4F522F5238006752201752300E523900005F0E522A3F0A374FFF0E4A3F0F539B6
:40020000753A04F53B02058E900002E06434703C20000302058EE5406403453F600302058EE536C39440400FE536D3947F50087541007542108006754101754220AE41AF47
:40024000427D007B017A01792D1208FF20000302058EC3E5409403E53F9400500302058EE54024FDFFE53F34FFFE742D2542F974013541A801FC7D017B017A0079081209F7
:40028000E7E54024FDFFE53F34FFFEEF2542F542EE3541F541E536C394404012E536D3947F500B121DA8753F007540108006753F01754020E54265407004E541653F600369
:4002C00002036F900007E0FE900006E0FDEEF541EDF542E536D3943F506FE5367F00FEEF2542FFE5413E900259F0A3EFF0900357E0FEA3E0F5828E83120842E4FB7A01F9AA
:40030000F812071890025BEEF0A3EFF0900357E0FEA3E0F5828E83120842EFE4EF600A90025BE475F0011205DA90025BE0FEA3E0FFC390025AE09F900259E09E500B753BD5
:400340000AE4F541F54202058E7B017A01792D900263E53FF0A3E540F0AD42AC41AF36120F0BEF60047F0A80027F008F3B8003753B03E4F541F54202058E20000302058EC7
:40038000E4F541F54202059F20000302058EE5422540FFE541353FFED3EF942CEE9401502DE4F53BAE3FAF40742D2542F974013541A801FC7D017B017A0079051209E7E58F
:4003C000402542F542E53F3541F54102058E753B0302058EE540453F600302058E78257C00FD7BFF7A25791FFE7F081209E7D200753900753A08AE39AF3A78057C007D0105
:400400007B007A0079251209E7E4F53B02058E20000302058EE5406403453F600302058E900007E0FE900006E0FDEEF52FEDF530E536C394404038E536D3947F5031AE2F29
:40044000AF307C007D101208D28F348E338D328C318F4B8E4A8D498C48E4754F10F54EF54DF54CFF7E80FDFC12192C8F358050AE2FAF307C017D001208D2C004C005C006FC
:40048000C007AF36E4FCFDFEFBFA7901F812068DD003D002D001D0001206728F348E338D328C318F4B8E4A8D498C48E4F54F754E01F54DF54CFFFE7D10FC12192C8F35E588
:4004C00036D3943F5072AF367E007C207D001208D2E42FFFE43EFEED3408FDE43CFCC004A905AA06AB07AE2FAF307C007D201208D2D0001206728F348E338D328C31E4F5BA
:400500002DF52EC3E52E9420E52D9400502AE4E52E2534FFE52D3533FEE43532FDE43531A907AA06AB05121CF3EF2535F535052EE52E7002052D80CBE536702AAE2FAF301E
:40054000FCFD7BFFFAF9F8C31207C57019FD7F05120A3DC3E5359FF535E4FD7F06120A3DC3E5359FF535E535F404900005F0E4F53BF539753A018016E4FF120D84EF700604
:400580009046FA7480F01220718003753B057B017A007901853948853A49AF3B1215ED900000E0700302004330000302004322BB010689828A83E0225002E722BBFE02E399
:4005C0002289828A83E49322BB010689828A83F0225002F722BBFE01F322C5F0F8A3E028F0C5F0F8E582158270021583E038F022BB010A89828A83E0F5F0A3E022500687B6
:40060000F009E71922BBFE07E3F5F009E3192289828A83E493F5F074019322BB010789828A830205DA500B09C5F027F7C5F01937F722BBFE0D09F8E325F0F3C5F019E338A6
:40064000F322F889828A8374019325F0C5F0F8E4933822BB010A89828A83F0E5F0A3F0225006F709A7F01922BBFE06F3E5F009F31922EF2BFFEE3AFEED39FDEC38FC22C315
:40068000EF9BFFEE9AFEED99FDEC98FC22E88FF0A4CC8BF0A42CFCE98EF0A42CFC8AF0EDA42CFCEA8EF0A4CDA8F08BF0A42DCC3825F0FDE98FF0A42CCD35F0FCEB8EF0A47C
:4006C000FEA9F0EB8FF0A4CFC5F02ECD39FEE43CFCEAA42DCE35F0FDE43CFC2275F008758200EF2FFFEE33FECD33CDCC33CCC58233C5829BED9AEC99E58298400CF582EE4A
:400700009BFEED9AFDEC99FC0FD5F0D6E4CEFBE4CDFAE4CCF9A88222B800C1B90059BA002DEC8BF084CFCECDFCE5F0CBF97818EF2FFFEE33FEED33FDEC33FCEB33FB10D7C4
:4007400003994004EB99FB0FD8E5E4F9FA227818EF2FFFEE33FEED33FDEC33FCC933C910D7059BE99A4007EC9BFCE99AF90FD8E0E4C9FAE4CCFB2275F010EF2FFFEE33FE50
:40078000ED33FDCC33CCC833C810D7079BEC9AE899400AED9BFDEC9AFCE899F80FD5F0DAE4CDFBE4CCFAE4C8F922EF4BFFEE4AFEED49FDEC48FC22C3E49FFFE49EFEE49D2F
:4007C000FDE49CFC22EB9FF5F0EA9E42F0E99D42F0E89C45F022E8600FECC313FCED13FDEE13FEEF13FFD8F122E8600FEFC333FFEE33FEED33FDEC33FCD8F122BB010789DC
:40080000828A830208365005E9F8020A0DBBFE05E9F8020A1989828A83020842BB010789828A8302085E5005E9F8020A25BBFE05E9F8020A3122E0FCA3E0FDA3E0FEA3E06A
:40084000FF22E493FC740193FD740293FE740393FF22E0F8A3E0F9A3E0FAA3E0FB22ECF0A3EDF0A3EEF0A3EFF022E0FBA3E0FAA3E0F922EBF0A3EAF0A3E9F022E493FB74E9
:400880000193FA740293F922D083D082F8E4937012740193700DA3A393F8740193F5828883E4737402936860EFA3A3A380DFE5092582F582E5083583F583B50804858209B7
:4008C0002210AF06858209F50822858209F508D2AF22EC8EF0A4CCC5F0CCCDF8EFA4CEC5F02DFDE43CFCE8A42EC8C5F03DFDE43CFCEFA4FFE5F028FEE43DFDE43CFC22EF51
:400900004E6012EF60010EEDBB010B89828A83F0A3DFFCDEFA2289F05007F709DFFCA9F022BBFEFCF309DFFCA9F022E709F608DFFA8046E709F208DFFA803E88828C83E7AA
:4009400009F0A3DFFA8032E309F608DFFA806EE309F208DFFA806688828C83E309F0A3DFFA805A89828A83E0A3F608DFFA804E89828A83E0A3F208DFFA804280D280FA80F3
:40098000C680D4805580F28029801080A680EA809A80A880DA80E280CA802988848C8589828A83E493A30586F0A30586DFF5DEF3800B89828A83E493A3F608DFF9ECFAA95D
:4009C000F0EDFB2288848C8589828A83E0A30586F0A30586DFF6DEF480E389828A83E493A3F208DFF980D688F0EF60010E4E60CD88F0ED2402B4040050C3F582EB2402B455
:400A0000040050B9232345822390097B73E6FC08E6FD08E6FE08E6FF22E2FC08E2FD08E2FE08E2FF22ECF608EDF608EEF608EFF622ECF208EDF208EEF208EFF22290025D03
:400A4000EDF0AB079002627402F0E4FFFEFDFCA312085EEB1208880A79010AA6020ACB030AF0040B15050B40060B8F070B6B080BB3090BD70A00000C0190025DE0FF7E005E
:400A80007C017D001208D21207B7EF24C0FFEE34FFFEED3410FDE43CFCA312085E9002627401F0020C0C90025DE0FF7E007C017D001208D2C374C39FFF74FF9EFE74109DBD
:400AC000FDE49CFCA312085E020C0C90025DE0FF7E007C017D001208D2C374C79FFF74FF9EFE74109DFDE49CFCA312085E020C0C90025DE0FF7E007C017D001208D2C37433
:400B0000CB9FFF74FF9EFE74109DFDE49CFCA312085E020C0C90025DE0FF7E007C017D001208D2C374D09FFF74FF9EFE74109DFDE49CFCA312085E9002627401F0020C0C60
:400B400090025DE0FF7E007C017D001208D2C374D19FFF74FF9EFE74109DFDE49CFCA312085E9002627401F0020C0C90025DE0FF7E007C017D001208D2C374D69FFF74FF16
:400B80009EFE74109DFDE49CFCA312085E807D90025DE0FF7E007C017D001208D2C374D29FFF74FF9EFE74109DFDE49CFCA312085E805990025DE0FF7E007C017D00120811
:400BC000D2C374D49FFF74FF9EFE74109DFDE49CFCA312085E803590025DE0FF7E007C017D001208D2C374D89FFF74FF9EFE74109DFDE49CFCA312085E9002627404F08082
:400C00000BE4FFFEFDFC90025E12085E900262E0B4011990025E120836A907AA06AB05121CF3E4FCFDFE90026312085E900262E06402705C90025E120836EF2401FFE43E91
:400C4000FEE43DFDE43CA907AA06AB05121CF3E4FCFDFE90026312085E900263120852C000C001C002C00390025E120836A907AA06AB05121CF3E4FCFDFE78081207E9D0BA
:400C800003D002D001D0001207AA90026312085E900262E064046003020D7D90025E120836EF2403FFE43EFEE43DFDE43CA907AA06AB05121CF3E4FCFDFE90026312085E37
:400CC000900263120852C000C001C002C00390025E120836EF2402FFE43EFEE43DFDE43CA907AA06AB05121CF3E4FCFDFE78081207E9D003D002D001D0001207AA9002634F
:400D000012085E900263120852C000C001C002C00390025E120836EF2401FFE43EFEE43DFDE43CA907AA06AB05121CF3E4FCFDFE78101207E9D003D002D001D0001207AA84
:400D400090026312085E900263120852C000C001C002C00390025E120836A907AA06AB05121CF3E4FCFDFE78181207E9D003D002D001D0001207AA90026312085E90026356
:400D8000120836228F44AD447F03120A3DEF2401FFE43EFEE43DFDE43CFCE4FB7A01F9F812068DC004C005C006C007AD447F04120A3DD003D002D001D0001206728F4C8EA9
:400DC0004B8D4A8C49C201E4F54DAD447F03120A3DEF2401FFE43EFEE43DFDE43CFCE4FB7A01F9F812068D8F488E478D468C45AF4CAE4BAD4AAC49AB48AA47A946A845C337
:400E00001207C55032854882854783E493F54E6005F46002D201E54E254DF54DAF48AE47AD46AC45E47B01FAF9F81206728F488E478D468C4580B8AD447F03120A3DEF2479
:400E400001FFE43EFEE43DFDE43CFCE4FB7A01F9F812068D78031207D68F488E478D468C45E47FC07EFFFDFCAB4CAA4BA94AA849C31207C57007FF7E20FDFC800DAF4CAE21
:400E80004BAD4AAC4978031207D68F4C8E4B8D4A8C49AF4CAE4BAD4AAC49AB48AA47A946A845C31207C55039E42548FFE43547FEE5463408FDE43545A907AA06AB05121CB9
:400EC000F3EF254DF54DAF48AE47AD46AC45E47B01FAF9F81206728F488E478D468C4580B1E54DF404F54DAD447F01120A3DA804A905AA06AB07AF4DE4FCFDFEC31207C5CC
:400F000070032001037F06227F002290025EECF0A3EDF0A312087390025DEFF0E4900265F0EFD3943F500E90025DE0940140069002657401F090025DE0FFD3947F4006903A
:400F400002657401F0EFC39440400CEFD3944140069002657401F0EFD3943F501E90025EE0FEA3E0FFE4FCFDFB7A01F9F8C31207C5502F9002657401F08027D390025FE03C
:400F8000948090025EE0940040069002657401F0900263E07004A3E0641060069002657401F090026012086AE94A4B700590026504F0900265E0600302108A121EFEEF606E
:400FC0000302108490025EE0FCA3E0FDA312086A900263E0FFA3E090026CCFF0A3EFF090025DE0FF1211DE900265EFF06407600302107F904722E0540270087F01FE121EF6
:401000006480F0904722E054026009E0FF1313543FFF80027FFFEF7006900265F0800690026574FFF0900265E0705490025DE0FFA3E0FCA3E0FD900353E0FBA3E090026AD9
:40104000F0121A90900265EFF064077032904722E0540270087F01FE121E6480F0904722E054026009E0FF1313543FFF80027FFFEF7006900265F0800690026574FFF0124B
:40108000205180069002657404F0900265E0FF227B007A4679E8121CF3EF4401FD7B007A4679E8122045E4F52CE52CC3940A502CE52C75F005A42461F582E43424AF82F571
:4010C000218F22F58312087C8F82852183740393FC740493FD121F6E052C80CDE4F52CE52CC394015046E52C75F007A42413F582E43425AF82F5238F24F58312087C8B25E1
:401100008A2689278F82852383740393FE7404938E28F529740593F52A740693F52BAD29AC28FFAE2A121EB8052C80B37E207F92121DD97B017A507903121CF3EF4402FD3B
:401140007B017A5079031220457B017A507913121CF3EF4402FD7B017A5079131220459043A0E04440F09043C2E04410F07C207D827B007A5179127F087E00121EB87C2053
:401180007D8A7B007A5179227F087E00121EB89044F47401F0904322E04408F09046ECE0C394055006904689743AF090480074F1F012150690480074B1F0121F1D7B007A41
:4011C0004379A0C00179B0900005120873D0017F0E7E00121D749043B0E054FDF022900266EFF0A3ECF0A3EDF0A312087390026E7407F0904722E0540270030212EE904756
:401200002074B6F074D5F07402F0904722E0540260030212E6900266E0904720F0E490026FF0A3F090026CE0FEA3E0FF90026FE0FCA3E0FDC39FEC9E501F90026912086A8D
:40124000E92DF9EA3CFA1205AF904720F090026FE475F0011205DA80CB90026CE064017002A3E060030212F4900266E0FFD3943F40030212F47E007C207D001208D2E42F0A
:40128000FFE43EFEED3408FDE43CFCC004A905AA06AB07A3E0FEA3E0FF7C007D201208D2D00012067290027112085EE490026FF0A3F090026FE0FEA3E0FFC39420EE94005A
:4012C0005032E4FCFDA3120852120672A907AA06AB05121CF3904720EFF090026FE475F0011205DA80CC90026E7409F0800690026E7404F090026EE0FF228B448A4589469E
:401300008C478D48755505E4F54DF54EE54C75F00AA4FFC3E54E9FE54D95F0503B121B34EF6022121B347553008F54E47F19FEFDFC1218C7121B34D3EF9554E4955350E366
:40134000E4F5558013E47F01FEFDFC1218C7054EE54E7002054D80B4AB49AA4AA94BE4F5F0120653E4F54FF550121B34EFD394005003021412121B347551008F52AB49AA8D
:401380004AA94BE5518552F012061BAB49AA4AA94B1205F0C39548E5F09547505FE4F54DF54EC3E54E9552E54D95515025121C1CAB44E5462550F9E545354FFAEF1205C8C1
:4013C0000550E5507002054F054EE54E7002054D80D0AB44E55024FFFFE54F34FFFEE5462FF9E5453EFA1205AF64177003021369E47F05FEFDFC1218C7021369AB49AA4ABB
:40140000A94B1205F0C39552FFE5F095518FF0120653AF552275930078007583467582E8E04401F0009046ECE0F99046FAE0FA90034BF0B903225420B40012B8001AEA9014
:401440001FFFF07401901FFEF09046F6F0901FFEE06005901FFFE0FA90480074C0F0758156121EDE90000078007920E4F0A3D8FCD9FAEA90034BF002001175081F7509FD1F
:401480001210900214C1022079E493A3F8E493A34003F68001F208DFF48029E493A3F85407240CC8C333C4540F4420C8834004F456800146F6DFE4800B0102040810204063
:4014C00080901B83E47E019360BCA3FF543F30E509541FFEE493A360010ECF54C025E060A840B8E493A3FAE493A3F8E493A3C8C582C8CAC583CAF0A3C8C582C8CAC583CABE
:40150000DFE9DEE780BE7B007A4079807D337C001220279040827418F09043007402F09040007408F09042007403F07B0C7A017908121CF39046A1EFF07B007A4279227D68
:40154000087C001220277B007A4279207D517C12122027E4900004F07F19FEFDFC90000012085E900000120836D3EF9400EE9400403B900004E0FF64036032904225E05440
:4015800001FEEF25E04E5403900004F0E47FE07E01FDFC121D0090000012083674FFFBFAF9F812067290000012085E80B6900000120836EF4E70057F0312207F7B007A402A
:4015C00079047D007C011220279040047407F0904006E4F09040087448F0904004E4F09040017402F09043A2E04401F0228B458A46894774011205C8AB452547F9E43546AB
:40160000FAEF1205C8E549AB45E5472402F9E43546FAE5491205C8E548FFAB45E5472403F9E43546FAEF1205C8AB45AA46A947E5492404FDE43548FC121C668E4A8F4BEFCF
:40164000AB45E5492404FDE43548FCE5472DF9E5463CFAEF1205C8E54AFFAB45E5492405FDE43548FCE5472DF9E5463CFAEF1205C8AB45E5492406FFE43548FEE5472FF9FF
:40168000E5463EFA74171205C8E5492407FDE43548FC755100755200755348755496AB45AA46A947121BD122C0E0C083C082C085C084C086758600C093759300C0D075D09F
:4016C00000C001C002C003C006C007E4FBA2AF33FAD2AF9044F474FDF090646CE0FFFE541EF960069002FDE049F0EF30E54590644AE0FE9002F9E02478F582E43402F583E5
:40170000EEF07B01EB602C900276E060069002FC7401F09002F9E004F0E0C394404002E4F0900277E0FE9002F9E0B506069002767401F0EF20E5A2AF02EA24FF92AFD007BF
:40174000D006D003D002D001D0D0D093D086D084D085D082D083D0E032752106E4FF120D84EF7002F521E4F54BF54AF549F548900357E0FEA3E0F5828E831208428F4F8E82
:401780004E8D4D8C4CE4FFFE7D10FC12192C900355E0FCA3E0F5828C83E493FEC3EF9EFFF404FFB50612900357E0FEA3E0F5828E83120842EF4E70057F00121FB79046FAFB
:4017C000E054C064406004E52160099046FAE4F0FF12001A12205D22C0E0C083C082C085C084C086758600C093759300C0D075D000C006C007A2AFE433FFD2AF9044F4742E
:40180000FDF09002FAE0FE9002B8E06E602C90646EE020E2259002B8E0C394404002E4F09002B8E024B9F582E43402F583E090644DF09002B8E004F080C8EF24FF92AFD043
:4018400007D006D0D0D093D086D084D085D082D083D0E032A9079002FAE0FF9002B8E0FEEFC39E501AEE24FFFDE434FFFCEF7A00B50508EAB504047D0180027D00800CC346
:40188000EF9EB43F047D0180027D00ED70C8EEB5070D90646EE020E20690644DE9F022EFC394404002E4FF74B92FF582E43402F583E9F00F9002FAEFF090646EE030E10609
:4018C0009044D07402F02290FFFC1208AE12085E850883850982120836D3EF9400EE9480402E90034C120836121D00850883850982C083C082120836E42FFFEE3480FEEDC9
:4019000034FFFDEC34FFFCD082D08312085E80C090034212083685088385098212085212068D121D009000041208AE228F478E468D458C44E4F550D3E54F9400E54E940025
:40194000404BAF4FAE4EAD4DAC4C74FFFBFAF9F81206728F4F8E4E8D4D8C4CE547254BFFE546354AFEE5453549FDE5443548FCEF254FFFEE354EFEED354DFDEC354CA907BD
:40198000AA06AB051205AF2550F55080AAAF5022121FE190025E74FFF0121EFEEF703B7F01121E35EF6407702C7B017A0379537D021219E6EFB40215E490025EF090472228
:4019C000E0540270107F01FE121E6480F0904722E0540260D4122051800690025E7404F090025EE0FF2290025F120873900262EDF0E4A3F0900262E0FFA3E0C39F50379065
:401A00004722E054016003D38001C340097F017E00121E6480E9904720E0FF90025F12086A900263E029F9E43AFAEF1205C8900263E004F080BE900263E0FF2290025EEC49
:401A4000F0A3EDF090025DEFF0541F25E0FFE433FEE42FFFEE3444FAA9077B0112201A900260EEF0A3EFF090025DE075F002A42400FFE5F03444FAA9077B01A3E0FEA3E0EC
:401A8000FFFDAC06122029900260E0FEA3E0FF22900267ECF0A3EDF0AC077D07904722E05402603B90472074B6F074D8F07405F0904722E054027023904720ECF09002670F
:401AC000E0904720F0900267E0A3E0904720F0EBF090026AE0904720F080067D0980027D04AF0522121FE1121EFEEF703B121F3A90025EEFF06407702A904722E0540270A1
:401B0000087F01FE121E6480F0904722E054026009E0FF1313543FFF80027FFFEF700490025EF0122051800690025E7404F090025EE0FF229044C87401F09002F9E0FE905D
:401B40000277E0B5060E900276E060047F40802CE4FF80289002F9E0FE900277E0C39E500BE0FE9002F9E0C39EFF8010900277E0FEC374409EFE9002F9E02EFF9044C07420
:401B800001F022420355251A420357251B430350000000440347016E360044034200005DC04103461844034C2EE000004102FB004102B8004102FA004102FD00410277003B
:401BC0004102F900410276004102FC0041035B00008B4C8A4D894E8C4F8D50E4F555F556121E07C3E5569550E555954F501DAB4CE54E2556F9E54D3555FA1205AFFF121874
:401C0000540556E5567002055580D8AB51AA52A953E54F8550F01206537F00229044C87401F0900277E0FE9002F9E0FD900276E07004EE6D602474782EF582E43402F583EF
:401C4000E0FF0EEEC394404002E4FE900277EEF0900276E06009E4F0800590644AE0FF9044C07401F0228B4C8A4D894EE4F54FF550D3ED9400EC94004025AB4CED24FFFFD4
:401C8000EC34FFFEE54E2FF9E54D3EFA1205AF2550F550E4354FF54FED1D70011C80D2E550F4FFE54FF4FEEF2401FFE43EFE227C167DA8E4FF121A3C7D07E4FF121F55E4B7
:401CC0009002FDF090648A7469F090648C7420F07C177DD87F01121A3C7D077F01121F5590642E7406F090643E7447F090648E7402F0228B938A838982E0759300FF22000A
:401D0000EC4D4E700D78FCEF24E950032840FD2200007BF178DA0000EF28FF78FFEE38FEED38FDEC38FC50E7EF2BFFEE38FEED38FDEC38FC40F22205020304121FCC9002FD
:401D40005DEFF090649AE04420F090649CE04410F09044C07401F090649EE04410F09044D87402F09044C0F012203690025DE0FF121F9F22758600EF4E6027EF60010E75B2
:401D80009300900005E0F595A3E0F585A3E0F5848B938A838982E0A30586F0A31586DFF6DEF4E4F593F59522121FCC9043A0E04408F09043B0E04408F090470174C8F090A8
:401DC00043ACE04410F09043BCE04410F0904700E0542060F8121F9F22ACEAADA08E838F82E493F9601CA3E493F5EAA3E493F5A0A3E49360F1FAA3E493F8A3E493F2DAF6BC
:401E0000D9E48DA08CEA22121FCC90649AE04401F0E054FEF0121F9F9044C87401F0E4900277F09002F9F0900276F09002FCF09044C004F0227E07904722E05402601F9052
:401E4000472074B6F074E1F0740EF0904722E054027007904720EFF080067E0980027E04AF062200EEFA900346E0F88FF0A4FFAEF0E88AF0A42EFEE5F03400FDEF24C9FF5A
:401E800078FFEE38FEED38FDE438FC5003021D0022121FCC90649DE04401F0E054FEF0121F9F9044C87402F0E49002B8F09002FAF09044C07402F022758600EF4E601BEFCA
:401EC00060010E8C838D828B958A858984E493A30586F0A31586DFF5DEF3E4F595229046FAE054C064807015F0FD7F02120A3DEF4E600AE4FD7F02120A3D122009229002CC
:401F0000667404F0121FCC90035BE0700704F0E4900266F0121F9F900266E0FF227B0C7A0179CF121CF3EF540790586EF0EFC4540FA3F09058767444F0227F07904722E0DD
:401F40005402600E90472074B6F074E0F0740DF080027F0422AC07ED540775F020A4FFEC541F2480F582E43444F583EFF022EC4D6011ED60010C8B938A838982E4F0A3DDB0
:401F8000FCDCFA75930022121AE490025DEFF0700812199090025DEFF090025DE0FF22EF54016004D2AF8002C2AFEF5402FF9044F4E054FD4FF02290FFFF1208AEEFF090D7
:401FC00046EA7401F09000011208AE229044F4E0F84402F0E85402FF10AF012274014FFF22121FCC9043A0E04408F09043B0E04408F0121F9F229002FBE07009121CAF9087
:4020000002FB7401F0121D3B2290034BE0FA8E838F827400758101738B938A838982E0FFA3E0FE759300228B938A838982EDF0A3ECF0759300229043A2E04401F09043B26F
:40204000E04401F0228B938A838982EDF075930022121FCCE490035BF0121F9F229046FA7480F012207122121FF6121E07121E91229046F6E04401F02212175980FE2280DC
:40208000FE22007F7B007B00000030D8C800D800000016005205082309121098118814200064047E3F8A698C3A8E0F010101E204010301E6020105028702E008010604B82E
:4020C00002BE01D804DF010107021B02A702010A088501890195019901B101BF01D904DF01010B4F00400106038808010A040B111028130219641A041B0A202021082230E9
:40210000274028282A022B022E033080310232103304340836203708382239803A083C283E084028410843824A024B0152045B4068286A016B027090712072108D408E104D
:402140008F809042910493109621980199029B0C9D649E049F80A004A102A202A490A520A702AB01B021B405B602B744C00FC20FC40ECA0FCC6FCE6FD00FD208D608E0083A
:40218000E801010C4C0001021608E70A180E3F101E120114C6163918481C88208824DD262228232ADC2CC8301F320834E03A22541A560458045B045F018008824284F88698
:4021C000018704880F89028AF08D068EC792849308943996C698109C20A020A101A43FA6C0A906AA08AC30B031B106B308B501B6FFB702B982BE40BF11C062C101C5E0C6DA
:40220000CBC80EC9FFCAFFCBFFCEF0CF44D00CD804D904DA04DF01E6C0EA40EB02010D46002901100210030B04010709080209260A310D220E11108012481388151016502C
:402240001780180219021C081D021E201F20200421012208230128402920320238C839A43A083B10414042084921502053405E205F026540674887409088912093089502C2
:40228000978098409B4A9C029D259E049F04A420A504A72AB001B301C0DFC2FFC4FFCA05CC01CE0ED00CD204D6A0D8B0010E4E040906D007230B080C0C0D210E710F0E1048
:4022C00014141016AC170C18DC1A221B201E0321102410264029212A202B062D0C2F2330E03310350F361F37203A023B203F444004464049FF4A074BFF4C404D204EF04F8A
:4023000005500854015604580459045A045B045F01604061A862406320871F89198B0691019304950997029A01A506A719A919AA01AB06AF0FB201B310B507B708B908BB65
:4023400020BE04D804D904DB04DF01010F3C004404040504084809200A010B800E0810081210160418C01A011F042130224425102604270A280829212A802F2A303031047A
:402380003402370438883A103D284101500C5210581059015A886380680169046A206B406F0171407304821083408550868089048B04C005C24FC446CA7DCCC6CE6ED00101
:4023C000D60FD801E40C014005322035808180CC30E2200141038620A620E6400144058301870188C0E004E40401450F0C0857025B046401660193029889A040A301B009C2
:40240000C204D607D801E801EC0401460D8702900893029888A040A301A702AB04B40CB601E808EC02EE08014705900893029888A040A301014C0E5004544057015808607D
:40244000806702900893029888A040A301D406D607D80201500300010C010E01015101000F005100001000513000400051C000100051F000100100000A00010A800580018E
:40248000140008000140000A00014C000200015000002000008080207D050000040800130C0400030204200A031410130C0C7300088000400800004043003C404F003000DE
:4024C0000000734000303F0FC0800008002028000040003402010005C0000E12FFFFFF62A0F0410C00000000000210040404040000000100000000000040020010301000CE
:4025000010101200000000000000000000000000000000010A002493008061000026006930091E031E010100000000000000000000000000000000000000000000000000BD
:40254000000000000000000000000000000000000000000000000000000000000000000000000000000000000000000000000000000000000000000000000000000000005B
:40258000000000000000000000000000000000000000000000000000000000000000000000000000000000000000000000000000000000000000000000000000000000001B
:4025C00000000000000000000000000000000000000000000000000000000000000000000000000000000000000000000000000000000000000000000000000000000000DB
:40260000029048008F828E83E0540100000070F82278FFE4F6D8FD0290D690001FEEF0A3EFF078217C007D017BFF7A5D79357E057FDD126F589005FE7405F0A374DDF078A0
:40264000087C067D017BFF7A6379127E007F0F126F5878177C067D017BFF7A6379217E007F1C126F5878337C067D017BFF7A63793D7E007F1B126F58784E7C067D017BFF30
:402680007A6379587E007F1C126F58786A7C067D017BFF7A6379747E007F1B126F5878857C067D017BFF7A63798F7E007F27126F5878AC7C067D017BFF7A6379B67E007F63
:4026C00017126F5878C37C067D017BFF7A6379CD7E007F19126F5878DC7C067D017BFF7A6379E67E007F11126F5878ED7C067D017BFF7A6379F77E007F1C126F5878097C17
:40270000077D017BFF7A6479137E007F1D126F5878267C077D017BFF7A6479307E007F1B126F5878417C077D017BFF7A64794B7E007F14126F5878557C077D017BFF7A64C6
:40274000795F7E007F20126F5878757C077D017BFF7A64797F7E007F24126F5878997C077D017BFF7A6479A37E007F18126F5878B17C077D017BFF7A6479BB7E007F1F12FB
:402780006F5878D07C077D017BFF7A6479DA7E007F16126F5878E67C077D017BFF7A6479F07E007F34126F58781A7C087D017BFF7A6579247E007F8C126F5878A67C087D3D
:4027C000017BFF7A6579B07E007F3B126F5878E17C087D017BFF7A6579EB7E007F2A126F587B017A06790812ADDE8F697B017A06791712ADDE8F6A7B017A06793312ADDEB4
:402800008F6B7B017A0679C312ADDE8F6C7B017A0679DC12ADDE8F6D7B017A07790912ADDE8F6E7B017A07794112ADDE8F6F7B017A07795512ADDE8F707B017A0779751215
:40284000ADDE8F717B017A07799912ADDE8F727B017A0779D012ADDE8F737B017A0779E612ADDE8F747B017A0879A612ADDE8F757B017A0779E612ADDE8F767B017A08790C
:402880001A12ADDE8F77900021740CF0A37412F090001FE0FEA3E0FFEE6003023A2CEFB413004003023A2C9028AEF82828730228E702350502350E0235DE0236AE0236C151
:4028C0000236CA0236D302370C0237B702381E02382702394C0239CF0239DF0239F4023A04023A14023A1D9000237402F0A314F090093CE0900025F0756700856968E56881
:402900004567602CC3E5699568FFE49567FE74082FF58274063EF583E0FD74262FF58274003EF583EDF0E56815687002156780CE9000557407F0A37403F0900971E064034D
:40294000606890093DE0FCA3E0FDA3E0FEA3E0FFEC126834E4FBFA7980784712671E900057126DF9900941E0FCA3E0FDA3E0FEA3E0FFEC126834E4FBFA7980784712671E3E
:4029800090005B126DF9900945E0FCA3E0FDA3E0FEA3E0FFEC126834E4FBFA7980784712671E90005F126DF98066900955E0FCA3E0FDA3E0FEA3E0FFEC126834E4FBFA792F
:4029C00080784712671E900057126DF9900959E0FCA3E0FDA3E0FEA3E0FFEC126834E4FBFA7980784712671E90005B126DF990095DE0FCA3E0FDA3E0FEA3E0FFEC1268343D
:402A0000E4FBFA7980784712671E90005F126DF9756700856A68E5684567602CC3E56A9568FFE49567FE74172FF58274063EF583E0FD74632FF58274003EF583EDF0E56854
:402A400015687002156780CE9000877407F0A37403F0900971E064036068900949E0FCA3E0FDA3E0FEA3E0FFEC126834E4FBFA7980784712671E900089126DF990094DE09E
:402A8000FCA3E0FDA3E0FEA3E0FFEC126834E4FBFA7980784712671E90008D126DF9900951E0FCA3E0FDA3E0FEA3E0FFEC126834E4FBFA7980784712671E900091126DF99C
:402AC0008066900961E0FCA3E0FDA3E0FEA3E0FFEC126834E4FBFA7980784712671E900089126DF9900965E0FCA3E0FDA3E0FEA3E0FFEC126834E4FBFA7980784712671E25
:402B000090008D126DF9900969E0FCA3E0FDA3E0FEA3E0FFEC126834E4FBFA7980784712671E900091126DF9756700856B68E5684567602CC3E56B9568FFE49567FE7433F7
:402B40002FF58274063EF583E0FD74952FF58274003EF583EDF0E56815687002156780CEE49000B9F0A304F090096FE09000BBF090096F601F90090E74FFF0A37459F0A37B
:402B80007426F07B017A06794E12A11F900600741CF0801D90090E74FFF0A37459F0A3742CF07B017A06794E12A11F900600741BF0900600E0756700F568E5684567602EC6
:402BC000900600E0C39568FFE49567FE744E2FF58274063EF583E0FD74BC2FF58274003EF583EDF0E56815687002156780CC900600E024BCF582E43400F5837404F0E49033
:402C000000EBF0A304F0900970E09000EDF090097014602204703C90090E74FFF0A37459F0A37431F07B017A06796A12A11F9006007414F0801D90090E74FFF0A37459F015
:402C4000A37437F07B017A06796A12A11F900600741AF0900600E0756700F568E5684567602E900600E0C39568FFE49567FE746A2FF58274063EF583E0FD74EE2FF58274FB
:402C8000003EF583EDF0E56815687002156780CC900600E024EEF582E43400F5837401F0E490011DF0A304F0900971E090011FF09009711460291460451460612403707AA0
:402CC00090090E74FFF0A37459F0A37443F07B017A06798512A11F900600741BF0805B90090E74FFF0A37459F0A3744EF07B017A06798512A11F9006007416F0803C900974
:402D00000E74FFF0A37459F0A37454F07B017A06798512A11F900600741AF0801D90090E74FFF0A37459F0A3745EF07B017A06798512A11F9006007427F0900600E07567DC
:402D400000F568E5684567602E900600E0C39568FFE49567FE74852FF58274063EF583E0FD74202FF58274013EF583EDF0E56815687002156780CC900600E02420F582E455
:402D80003401F5837402F0E490014FF0A37403F0E4A3F0A3F0A3F0F567F568C3E5689403E5679400504E90090E74FFF0A37459F0A37475F074722568F58274093567F58366
:402DC000E0FF900911E4F0A3EFF07B017A06790512713090090E7401F0A37406F0A37405F07B017A0679AC12A11F0568E5687002056780A79006007417F0E0756700F568C6
:402E0000E5684567602E900600E0C39568FFE49567FE74AC2FF58274063EF583E0FD74542FF58274013EF583EDF0E56815687002156780CC900600E02454F582E43401F538
:402E4000837403F0900181F0A3F0E4F567F568C3E5689403E56794005059E568AE677802C333CE33CED8F92475F58274093EF583E0FCA3E0FDA3E0FEA3E0FF74722568F58A
:402E80008274093567F583E0F9F8126D98AD07AC06E56825E0FFE56733FE74832FF58274013EF583ECF0A3EDF00568E56870020567809C756700856C68E5684567602CC38E
:402EC000E56C9568FFE49567FE74C32FF58274063EF583E0FD74892FF58274013EF583EDF0E56815687002156780CE9001B37407F0A37403F0E4F567F568C3E5689403E52A
:402F00006794005054E568AE677802C333CE33CED8F92481F58274093EF583E0FCA3E0FDA3E0FEA3E0FFC004C005C006C007E568AE677802C333CE33CED8F924B5F5827486
:402F4000013EF583D007D006D005D004126DF90568E5687002056780A1E4F567F5687B017A0679DC12ADDEC3E5689FE5679E502674DC2568F58274063567F583E0FF74C183
:402F80002568F58274013567F583EFF00568E5687002056780C8E49001E5F0A304F090098DE09001E7F090098D601F90090E74FFF0A37459F0A37426F07B017A0679ED12C6
:402FC000A11F900600741CF0801D90090E74FFF0A37459F0A3742CF07B017A0679ED12A11F900600741BF0900600E0756700F568E5684567602E900600E0C39568FFE49594
:4030000067FE74ED2FF58274063EF583E0FD74E82FF58274013EF583EDF0E56815687002156780CC900600E024E8F582E43401F5837404F090021704F0A314F0E4F567F59E
:4030400068C3E5689402E56794004003023112E568AE677802C333CE33CED8F9248EF58274093EF583E0FCA3E0FDA3E0FEA3E0FF74722568F58274093567F583E0F9F8124F
:403080006D98C004C005C006C007E568AE677803C333CE33CED8F92419F58274023EF583D007D006D005D004126DF9E568AE677802C333CE33CED8F92496F58274093EF581
:4030C00083E0FCA3E0FDA3E0FEA3E0FF74722568F58274093567F583E0F9F8126D98C004C005C006C007E568AE677803C333CE33CED8F9241DF58274023EF583D007D00671
:40310000D005D004126DF90568E56870020567023041756700856E68E5684567602CC3E56E9568FFE49567FE74092FF58274073EF583E0FD74292FF58274023EF583EDF03A
:40314000E56815687002156780CE9002497405F0A37402F09009A2E0FCA3E0FDA3E0FEA3E0FF90024B126DF99009A6E0FCA3E0FDA3E0FEA3E0FF90024F126DF9E4F567F5E1
:40318000687B017A07792612ADDEC3E5689FE5679E502674262568F58274073567F583E0FF74532568F58274023567F583EFF00568E5687002056780C890027B7403F0A328
:4031C0007401F090096DE0FFA3E090027DCFF0A3EFF0756700856F68E5684567602CC3E56F9568FFE49567FE74412FF58274073EF583E0FD747F2FF58274023EF583EDF0F9
:40320000E56815687002156780CE9002AD7407F0A37401F09009ABE0FCA3E0FDA3E0FEA3E0FF9002AF126DF9756700857068E5684567602CC3E5709568FFE49567FE745501
:403240002FF58274073EF583E0FD74B32FF58274023EF583EDF0E56815687002156780CE9002DF7403F0A37401F09009AFE0FFA3E09002E1CFF0A3EFF0756700857168E561
:40328000684567602CC3E5719568FFE49567FE74752FF58274073EF583E0FD74E32FF58274023EF583EDF0E56815687002156780CE9003117403F0A37401F09009B1E0FF96
:4032C000A3E0900313CFF0A3EFF0756700857268E5684567602CC3E5729568FFE49567FE74992FF58274073EF583E0FD74152FF58274033EF583EDF0E568156870021567FE
:4033000080CEE4900343F0A304F09009AAE0900345F09009AA601F90090E74FFF0A37459F0A37426F07B017A0779B112A11F900600741FF0801D90090E74FFF0A37459F0A1
:40334000A3742CF07B017A0779B112A11F900600741EF0900600E0756700F568E5684567602E900600E0C39568FFE49567FE74B12FF58274073EF583E0FD74462FF5827413
:40338000033EF583EDF0E56815687002156780CC900600E02446F582E43403F5837404F0900375F0A37401F09009B3E0FFA3E0900377CFF0A3EFF0756700857368E568455A
:4033C00067602CC3E5739568FFE49567FE74D02FF58274073EF583E0FD74792FF58274033EF583EDF0E56815687002156780CE756700857468E5684567602CC3E57495686F
:40340000FFE49567FE74E62FF58274073EF583E0FD74A72FF58274033EF583EDF0E56815687002156780CE756700857568E5684567602CC3E5759568FFE49567FE74A62FCD
:40344000F58274083EF583E0FD743D2FF58274043EF583EDF0E56815687002156780CE756700857768E5684567602CC3E5779568FFE49567FE741A2FF58274083EF583E05A
:40348000FD74D32FF58274043EF583EDF0E56815687002156780CE756700857668E5684567602CC3E5769568FFE49567FE74E12FF58274083EF583E0FD74692FF58274054F
:4034C0003EF583EDF0E56815687002156780CE7B017A0079219005FEE0A3E014FD12A9799005FEE0FCA3E0FD2420F58274003CF583EFF07B017A007921E4900910F01299FF
:403500000312AEC522900A6CE09009BFF022900971E064036064E4FFFE7D807C47900A6CE0F8A3E0F9A3E0FAA3E0FB1266151268729009C0126DF9E4FFFE7D807C47900A01
:4035400070E0F8A3E0F9A3E0FAA3E0FB1266151268729009C4126DF9E4FFFE7D807C47900A74E0F8A3E0F9A3E0FAA3E0FB1266151268729009C8126DF922E4FFFE7D807C72
:4035800047900A6CE0F8A3E0F9A3E0FAA3E0FB1266151268729009D8126DF9E4FFFE7D807C47900A70E0F8A3E0F9A3E0FAA3E0FB1266151268729009DC126DF9E4FFFE7D4F
:4035C000807C47900A74E0F8A3E0F9A3E0FAA3E0FB1266151268729009E0126DF922900971E064036064E4FFFE7D807C47900A6CE0F8A3E0F9A3E0FAA3E0FB12661512688D
:40360000729009CC126DF9E4FFFE7D807C47900A70E0F8A3E0F9A3E0FAA3E0FB1266151268729009D0126DF9E4FFFE7D807C47900A74E0F8A3E0F9A3E0FAA3E0FB1266155C
:403640001268729009D4126DF922E4FFFE7D807C47900A6CE0F8A3E0F9A3E0FAA3E0FB1266151268729009E4126DF9E4FFFE7D807C47900A70E0F8A3E0F9A3E0FAA3E0FBF9
:403680001266151268729009E8126DF9E4FFFE7D807C47900A74E0F8A3E0F9A3E0FAA3E0FB1266151268729009EC126DF922900A6CE060079009F27403F022E49009F2F042
:4036C00022900A6CE09009F3F022900A6CE09009F4F022E4F567F568C3E5689403E56794004003023A2C746C2568F582740A3567F583E0FF74F52568F58274093567F5837D
:40370000EFF00568E5687002056780CCE4F567F568C3E5689403E567940040030237B4E56825E0FFE56733FE746C2FF582740A3EF583E0FEA3E0FFEE3395E0FDFCC004C077
:4037400005C006C007E568AE677802C333CE33CED8F9FBAA0624F8F58274093AF583D007D006D005D004126DF974F82BF58274093AF583C083C082E0FCA3E0FDA3E0FEA3C8
:40378000E0FF74F52568F58274093567F583E0F9F8126DACD082D083126DF974132568F582740B3567F583E4F00568E56870020567023711D20B22E4F567F568C3E56894FF
:4037C00003E56794004003023A2CE568AE677802C333CE33CED8F9246CF582740A3EF583E0FCA3E0FDA3E0FEA3E0FFC004C005C006C007E568AE677802C333CE33CED8F9A7
:403800002404F582740A3EF583D007D006D005D004126DF90568E56870020567809E900A6CE0900A10F022E4F567F568C3E5689402E56794004003023A2CE568AE677803E4
:40384000C333CE33CED8F9246CF582740A3EF583E0FCA3E0FDA3E0FEA3E0FFC004C005C006C007E568AE677802C333CE33CED8F92411F582740A3EF583D007D006D005D05E
:4038800004126DF9E568AE677803C333CE33CED8F92470F582740A3EF583E0FCA3E0FDA3E0FEA3E0FFC004C005C006C007E568AE677802C333CE33CED8F9FBAA062419F516
:4038C00082740A3AF583D007D006D005D004126DF974112BF582740A3AF583C083C082E0FCA3E0FDA3E0FEA3E0FF74F52568F58274093567F583E0F9F8126DACD082D0836E
:40390000126DF9E568AE677802C333CE33CED8F92419F582740A3EF583C083C082E0FCA3E0FDA3E0FEA3E0FF74F52568F58274093567F583E0F9F8126DACD082D083126DB3
:40394000F90568E5687002056702382C900A6CE0FCA3E0FDA3E0FEA3E0FF900601126DF9E4FFFEFDFC900601E0F8A3E0F9A3E0FAA3E0FBD3126D5E5014900601E0FCA3E012
:40398000FDA3E0FEA3E0FF900A25126DF9900A70E0FCA3E0FDA3E0FEA3E0FF900601126DF9E4FFFEFDFC900601E0F8A3E0F9A3E0FAA3E0FBC3126D5E4072900601E0FCA330
:4039C000E0FDA3E0FEA3E0FF900A29126DF922900A6CE0FFA3E09009F0CFF0A3EFF022900A6CE0FCA3E0FDA3E0FEA3E0FF900A2E126DF922900A6CE0FFA3E0900A32CFF07C
:403A0000A3EFF022900A6CE0FFA3E0900A34CFF0A3EFF022900A6CE0900A2DF022900A6CE0FFA3E0900A36CFF0A3EFF02290046BEBF0A3EAF0A3E9F090046BE0FBA3E0FAC5
:403A4000A3E0F8AC02AD037BFF7A59797912703690090E74FFF0A37459F0A3747AF090046BE0FBA3E0FAA3E0F912A11F90090E74FFF0A37459F0A3747DF090046BE0FBA37B
:403A8000E0FAA3E0F912A11F90090E74FFF0A37459F0A37490F090046BE0FBA3E0FAA3E0F912A11F90090E74FFF0A37459F0A374A0F090046BE0FBA3E0FAA3E0F912A11F82
:403AC00090090E74FFF0A37459F0A374A6F090046BE0FBA3E0FAA3E0F912A11F90090E74FFF0A37459F0A374B4F090093CE0FF900911E4F0A3EFF07B017A04796E1271309D
:403B000090090E7401F0A37404F0A3746EF090046BE0FBA3E0FAA3E0F912A11F90090E74FFF0A37459F0A374BDF0A3E4F0A37403F07B017A04796E12713090090E7401F005
:403B4000A37404F0A3746EF090046BE0FBA3E0FAA3E0F912A11F90090E74FFF0A37459F0A374D5F09009B3E0FFA3E0900911CFF0A3EFF07B017A04796E12713090090E7492
:403B800001F0A37404F0A3746EF090046BE0FBA3E0FAA3E0F912A11F90090E74FFF0A37459F0A374EAF0900B22E0FF900911E4F0A3EFF07B017A04796E12713090090E7449
:403BC00001F0A37404F0A3746EF090046BE0FBA3E0FAA3E0F912A11F90090E74FFF0A37459F0A3747AF090046BE0FBA3E0FAA3E0F912A11F90090E74FFF0A37459F0A3749E
:403C0000FAF090046BE0FBA3E0FAA3E0F912A11F90090E74FFF0A3745AF0A37407F090046BE0FBA3E0FAA3E0F912A11FE4F567F568C3E5689402E5676480948050799009EE
:403C40000E74FFF0A3745AF0A3741AF0E568AE677802C333CE33CED8F92460F582740A3EF583E0FCA3E0FDA3E0FEA3E0FF74722568F58274093567F583E0F9F8126D98905E
:403C80000911EEF0A3EFF07B017A04796E12713090090E7401F0A37404F0A3746EF090046BE0FBA3E0FAA3E0F912A11F0568E56870020567023C3190090E74FFF0A3745944
:403CC000F0A3747AF090046BE0FBA3E0FAA3E0F912A11F90090E74FFF0A3745AF0A3741EF07B017A04796E127130900A68E05403601990090E74FFF0A3745AF0A3742EF038
:403D00007B017A04796E12A11F801790090E74FFF0A3745AF0A37434F07B017A04796E12A11F90090E7401F0A37404F0A3746EF090046BE0FBA3E0FAA3E0F912A11F900916
:403D40000E74FFF0A3745AF0A37439F090046BE0FBA3E0FAA3E0F912A11F90090E74FFF0A3745AF0A3744FF090046BE0FBA3E0FAA3E0F912A11FE4F567F568C3E5689403E2
:403D8000E567648094804003023E2F90090E74FFF0A3745AF0A3745FF0E5682401900912F0E43567900911F0E568AE677802C333CE33CED8F92439F582740A3EF583E0FCBF
:403DC000A3E0FDA3E0FEA3E0FF74722568F58274093567F583E0F9F8126D98900913EEF0A3EFF07B017A04796E12713090090E7401F0A37404F0A3746EF090046BE0FBA334
:403E0000E0FAA3E0F912A11F90090E74FFF0A37459F0A3747AF090046BE0FBA3E0FAA3E0F912A11F0568E56870020567023D7B90090E74FFF0A3745AF0A37468F0900A5CA8
:403E4000E0FCA3E0FDA3E0FEA3E0FF900911126DF97B017A04796E12713090090E7401F0A37404F0A3746EF090046BE0FBA3E0FAA3E0F912A11F90090E74FFF0A37459F092
:403E8000A3747AF090046BE0FBA3E0FAA3E0F912A11F90090E74FFF0A3745AF0A3747AF0900A45E0FEA3E0FFEE3395E0FDFC900911126DF97B017A04796E12713090090EC5
:403EC0007401F0A37404F0A3746EF090046BE0FBA3E0FAA3E0F912A11F90090E74FFF0A37459F0A3747AF090046BE0FBA3E0FAA3E0F912A11F90090E74FFF0A3745AF0A39A
:403F0000748EF0900A47E0FEA3E0FFEE3395E0FDFC900911126DF97B017A04796E12713090090E7401F0A37404F0A3746EF090046BE0FBA3E0FAA3E0F912A11F90090E74BD
:403F4000FFF0A37459F0A3747AF090046BE0FBA3E0FAA3E0F912A11F90090E74FFF0A3745AF0A374A2F090046BE0FBA3E0FAA3E0F912A11F90090E74FFF0A3745AF0A37491
:403F8000B8F090046BE0FBA3E0FAA3E0F912A11F900971E06403700302409D90090E74FFF0A3745AF0A374CAF090093DE0FCA3E0FDA3E0FEA3E0FFEC126834E4FBFA798034
:403FC000784712671E900911126DF97B017A04796E12713090090E7401F0A37404F0A3746EF090046BE0FBA3E0FAA3E0F912A11F90090E74FFF0A3745AF0A374D4F09009A5
:4040000041E0FCA3E0FDA3E0FEA3E0FFEC126834E4FBFA7980784712671E900911126DF97B017A04796E12713090090E7401F0A37404F0A3746EF090046BE0FBA3E0FAA3E2
:40404000E0F912A11F90090E74FFF0A3745AF0A374DEF0900945E0FCA3E0FDA3E0FEA3E0FFEC126834E4FBFA7980784712671E900911126DF97B017A04796E1271309009F7
:404080000E7401F0A37404F0A3746EF090046BE0FBA3E0FAA3E0F912A11F02419C90090E74FFF0A3745AF0A374CAF0900955E0FCA3E0FDA3E0FEA3E0FFEC126834E4FBFA8D
:4040C0007980784712671E900911126DF97B017A04796E12713090090E7401F0A37404F0A3746EF090046BE0FBA3E0FAA3E0F912A11F90090E74FFF0A3745AF0A374D4F044
:40410000900959E0FCA3E0FDA3E0FEA3E0FFEC126834E4FBFA7980784712671E900911126DF97B017A04796E12713090090E7401F0A37404F0A3746EF090046BE0FBA3E0CD
:40414000FAA3E0F912A11F90090E74FFF0A3745AF0A374DEF090095DE0FCA3E0FDA3E0FEA3E0FFEC126834E4FBFA7980784712671E900911126DF97B017A04796E127130DA
:4041800090090E7401F0A37404F0A3746EF090046BE0FBA3E0FAA3E0F912A11F90090E74FFF0A3745AF0A374E8F090046BE0FBA3E0FAA3E0F912A11F900971E0640370030B
:4041C0000242C590090E74FFF0A3745AF0A374CAF0900949E0FCA3E0FDA3E0FEA3E0FFEC126834E4FBFA7980784712671E900911126DF97B017A04796E12713090090E74A6
:4042000001F0A37404F0A3746EF090046BE0FBA3E0FAA3E0F912A11F90090E74FFF0A3745AF0A374D4F090094DE0FCA3E0FDA3E0FEA3E0FFEC126834E4FBFA7980784712A0
:40424000671E900911126DF97B017A04796E12713090090E7401F0A37404F0A3746EF090046BE0FBA3E0FAA3E0F912A11F90090E74FFF0A3745AF0A374DEF0900951E0FCBC
:40428000A3E0FDA3E0FEA3E0FFEC126834E4FBFA7980784712671E900911126DF97B017A04796E12713090090E7401F0A37404F0A3746EF090046BE0FBA3E0FAA3E0F91292
:4042C000A11F0243C490090E74FFF0A3745AF0A374CAF0900961E0FCA3E0FDA3E0FEA3E0FFEC126834E4FBFA7980784712671E900911126DF97B017A04796E12713090094F
:404300000E7401F0A37404F0A3746EF090046BE0FBA3E0FAA3E0F912A11F90090E74FFF0A3745AF0A374D4F0900965E0FCA3E0FDA3E0FEA3E0FFEC126834E4FBFA7980785E
:404340004712671E900911126DF97B017A04796E12713090090E7401F0A37404F0A3746EF090046BE0FBA3E0FAA3E0F912A11F90090E74FFF0A3745AF0A374DEF090096926
:40438000E0FCA3E0FDA3E0FEA3E0FFEC126834E4FBFA7980784712671E900911126DF97B017A04796E12713090090E7401F0A37404F0A3746EF090046BE0FBA3E0FAA3E0C0
:4043C000F912A11F90090E74FFF0A37459F0A3747AF090046BE0FBA3E0FAA3E0F912A11F90096FE0B4031E90090E74FFF0A3745BF0A37402F090046BE0FBA3E0FAA3E0F95D
:4044000012A11F801C90090E74FFF0A3745BF0A3741CF090046BE0FBA3E0FAA3E0F912A11F900970E014602104703A90090E74FFF0A3745BF0A37435F090046BE0FBA3E0A9
:40444000FAA3E0F912A11F801C90090E74FFF0A3745BF0A37447F090046BE0FBA3E0FAA3E0F912A11F90090E74FFF0A3745BF0A3745EF090046BE0FBA3E0FAA3E0F912A1A2
:404480001F900971E014602814604314605E2403707690090E74FFF0A3745BF0A3746DF090046BE0FBA3E0FAA3E0F912A11F805890090E74FFF0A3745BF0A37478F09004E5
:4044C0006BE0FBA3E0FAA3E0F912A11F803A90090E74FFF0A3745BF0A3747EF090046BE0FBA3E0FAA3E0F912A11F801C90090E74FFF0A3745BF0A37488F090046BE0FBA347
:40450000E0FAA3E0F912A11F90090E74FFF0A3745BF0A3749FF090046BE0FBA3E0FAA3E0F912A11FE4F567F568C3E5689403E56764809480507F90090E74FFF0A3745AF0DA
:40454000A3745FF0E5682401900912F0E43567900911F074722568F58274093567F583E0FF900913E4F0A3EFF07B017A04796E12713090090E7401F0A37404F0A3746EF032
:4045800090046BE0FBA3E0FAA3E0F912A11F90090E74FFF0A37459F0A3747AF090046BE0FBA3E0FAA3E0F912A11F0568E5687002056702452990090E74FFF0A3745BF0A3AF
:4045C00074B4F090046BE0FBA3E0FAA3E0F912A11FE4F567F568C3E5689403E56764809480400302468890090E74FFF0A3745BF0A374CAF0E5682401900912F0E435679009
:404600000911F0E568AE677802C333CE33CED8F92475F58274093EF583E0FCA3E0FDA3E0FEA3E0FF74722568F58274093567F583E0F9F8126D98900913126DF97B017A04DB
:40464000796E12713090090E7401F0A37404F0A3746EF090046BE0FBA3E0FAA3E0F912A11F90090E74FFF0A37459F0A3747AF090046BE0FBA3E0FAA3E0F912A11F0568E58D
:4046800068700205670245D690090E74FFF0A3745BF0A374D4F090046BE0FBA3E0FAA3E0F912A11FE4F567F568C3E5689403E56764809480400302474990090E74FFF0A3A1
:4046C000745BF0A374EEF0E5682401900912F0E43567900911F0E568AE677802C333CE33CED8F92481F58274093EF583E0FCA3E0FDA3E0FEA3E0FF900913126DF97B017AA5
:4047000004796E12713090090E7401F0A37404F0A3746EF090046BE0FBA3E0FAA3E0F912A11F90090E74FFF0A37459F0A3747AF090046BE0FBA3E0FAA3E0F912A11F0568AD
:40474000E568700205670246A990090E74FFF0A3745BF0A374F7F090046BE0FBA3E0FAA3E0F912A11F90090E74FFF0A3745CF0A3742DF09009ABE0FCA3E0FDA3E0FEA3E0C9
:40478000FF900911126DF97B017A04796E12713090090E7401F0A37404F0A3746EF090046BE0FBA3E0FAA3E0F912A11F90090E74FFF0A37459F0A3747AF090046BE0FBA3AB
:4047C000E0FAA3E0F912A11F90090E74FFF0A3745CF0A37430F090046BE0FBA3E0FAA3E0F912A11F90090E74FFF0A3745CF0A37443F09009AFE0FFA3E0900911CFF0A3EFEC
:40480000F07B017A04796E12713090090E7401F0A37404F0A3746EF090046BE0FBA3E0FAA3E0F912A11F90090E74FFF0A37459F0A3747AF090046BE0FBA3E0FAA3E0F912F3
:40484000A11F90090E74FFF0A3745CF0A37447F090046BE0FBA3E0FAA3E0F912A11F90090E74FFF0A3745CF0A37443F09009B1E0FFA3E0900911CFF0A3EFF07B017A047957
:404880006E12713090090E7401F0A37404F0A3746EF090046BE0FBA3E0FAA3E0F912A11F90090E74FFF0A3745CF0A37453F090046BE0FBA3E0FAA3E0F912A11F90090E741F
:4048C000FFF0A3745CF0A37457F0900A10E0FF900911E4F0A3EFF07B017A04796E12713090090E7401F0A37404F0A3746EF090046BE0FBA3E0FAA3E0F912A11F90090E749F
:40490000FFF0A37459F0A3747AF090046BE0FBA3E0FAA3E0F912A11FE4F567F568C3E5689402E567648094804003024A1F90090E74FFF0A3745CF0A37471F0E568240190E6
:404940000912F0E43567900911F0E568AE677802C333CE33CED8F92411F582740A3EF583E0FCA3E0FDA3E0FEA3E0FF74F52568F58274093567F583E0F9F8126D98900913CF
:40498000126DF97B017A04796E12713090090E7401F0A37404F0A3746EF090046BE0FBA3E0FAA3E0F912A11F90090E74FFF0A3745CF0A37497F0E568AE677802C333CE33DC
:4049C000CED8F92419F582740A3EF583E0FCA3E0FDA3E0FEA3E0FF74F52568F58274093567F583E0F9F8126D98900911126DF97B017A04796E12713090090E7401F0A37412
:404A000004F0A3746EF090046BE0FBA3E0FAA3E0F912A11F0568E5687002056702491D90090E74FFF0A3745CF0A374A4F0900A21E0FEA3E0FF9009F5E0FDEFA805088006A0
:404A4000CEA2E713CE13D8F8FF900911EEF0A3EFF07B017A04796E12713090090E7401F0A37404F0A3746EF090046BE0FBA3E0FAA3E0F912A11F90090E74FFF0A37459F0E3
:404A8000A3747AF090046BE0FBA3E0FAA3E0F912A11F90090E74FFF0A3745CF0A374B6F09009F0E0FFA3E0900911CFF0A3EFF07B017A04796E12713090090E7401F0A37419
:404AC00004F0A3746EF090046BE0FBA3E0FAA3E0F912A11F90090E74FFF0A37459F0A3747AF090046BE0FBA3E0FAA3E0F912A11F9009AAE0601E90090E74FFF0A3745CF00A
:404B0000A374C8F090046BE0FBA3E0FAA3E0F912A11F801C90090E74FFF0A3745CF0A374E7F090046BE0FBA3E0FAA3E0F912A11F300A1E90090E74FFF0A3745DF0A3740583
:404B4000F090046BE0FBA3E0FAA3E0F912A11F801C90090E74FFF0A3745DF0A37418F090046BE0FBA3E0FAA3E0F912A11F90090E74FFF0A3745DF0A3742AF0900A58E0F869
:404B8000A3E0F9A3E0FAA3E0FB900AF7E0FCA3E0FDA3E0FEA3E0C39BFFEE9AFEED99FDEC98FC900911126DF97B017A04796E12713090090E7401F0A37404F0A3746EF090D5
:404BC000046BE0FBA3E0FAA3E0F912A11F90090E74FFF0A37459F0A3747AF090046BE0FBA3E0FAA3E0F912A11F228F23E4F52BF52AF529F52890093DE0FCA3E0FDA3E0FE2B
:404C0000A3E0F5378E368D358C34A3E0FCA3E0FDA3E0FEA3E0F53B8E3A8D398C38A3E0FCA3E0FDA3E0FEA3E0F53F8E3E8D3D8C3CA3E0FCA3E0FDA3E0FEA3E0F5438E428DCD
:404C4000418C40A3E0FCA3E0FDA3E0FEA3E0F5478E468D458C44A3E0FCA3E0FDA3E0FEA3E0F54B8E4A8D498C48A3E0FCA3E0FDA3E0FEA3E0F54F8E4E8D4D8C4CA3E0FCA3B6
:404C8000E0FDA3E0FEA3E0F5538E528D518C50A3E0FCA3E0FDA3E0FEA3E0F5578E568D558C54A3E0FCA3E0FDA3E0FEA3E0F55B8E5A8D598C58A3E0FCA3E0FDA3E0FEA3E034
:404CC000F55F8E5E8D5D8C5CA3E0FCA3E0FDA3E0FEA3E0F5638E628D618C60E523C394024003025925900971E014700302576C14700302549C147003024FAC24036003029A
:404D000057D6E52325E025E02403F582E4340BF583E0F8A3E0F9A3E0FAA3E0FBE52325E025E024B5F582E43409F583E0FCA3E0FDA3E0FEA3E0C39BF52FEE9AF52EED99F5A9
:404D40002DEC98F52C300D05C20D128DFAE52325E025E024ADF582E4340BF583C083C082E0FCA3E0FDA3E0FEA3E0252FFFEE352EFEED352DFDEC352CFCD082D083126DF989
:404D8000E52325E025E024ADF582E4340BF583E0FCA3E0FDA3E0FEA3E0FF7BA07A8679017800C3126D5E501C7FA07E867D017C00E52325E025E024ADF582E4340BF5831262
:404DC0006DF98042E52325E025E024ADF582E4340BF583E0FCA3E0FDA3E0FEA3E0FF7B607A7979FE78FFD3126D5E401A7F607E797DFE7CFFE52325E025E024ADF582E43433
:404E00000BF583126DF9300D05C20D128DFAE4F52BF52AF529F528FFFEFDFCAB37AA36A935A834C3126D5E606AE4FFFE7D02FCAB2FAA2EA92DA82CD3126D5E500FE4FFFEEB
:404E40007DFE7CFFA82CC3126D5E5027AF2FAE2EAD2DAC2C7808126D98AB37AA36A935A834126C267808126D988F2B8E2A8D298C288020AF2FAE2EAD2DAC2CAB37AA36A944
:404E800035A834126C267810126D988F2B8E2A8D298C28300D05C20D128DFAE4FFFEFDFCAB3BAA3AA939A838C3126D5E6043AF3BAE3AAD39AC387806126D98E52325E0250C
:404EC000E024ADF582E4340BF583E0F8A3E0F9A3E0FAA3E0FB126C26780A126D98E52B2FF52BE52A3EF52AE5293DF529E5283CF528E4FFFEFDFCAB3FAA3EA93DA83CC3127E
:404F00006D5E6063E52325E025E02403F582E4340BF583E0F8A3E0F9A3E0FAA3E0FBE52325E025E02439F582E4340AF583E0FCA3E0FDA3E0FEA3E0C39BFFEE9AFEED99FD03
:404F4000EC98FCAB3FAA3EA93DA83C126C267810126D98E52B2FF52BE52A3EF52AE5293DF529E5283CF528300D05C20D128DFAE523701CFFFEFDFCAB2BAA2AA929A828C3F5
:404F8000126D5E4005D20F0257D6C20F0257D6E4FFFEFDFCAB2BAA2AA929A828C3126D5E4005D2100257D6C2100257D6E52325E025E02403F582E4340BF583E0F8A3E0F903
:404FC000A3E0FAA3E0FBE52325E025E024B5F582E43409F583E0FCA3E0FDA3E0FEA3E0C39BF52FEE9AF52EED99F52DEC98F52CE52325E025E024ADF582E4340BF583C083A9
:40500000C082E0FCA3E0FDA3E0FEA3E0252FFFEE352EFEED352DFDEC352CFCD082D083126DF9300D05C20D128DFAE52325E025E024ADF582E4340BF583E0FCA3E0FDA3E0FC
:40504000FEA3E0FF7BA07A8679017800C3126D5E501C7FA07E867D017C00E52325E025E024ADF582E4340BF583126DF98042E52325E025E024ADF582E4340BF583E0FCA3D7
:40508000E0FDA3E0FEA3E0FF7B607A7979FE78FFD3126D5E401A7F607E797DFE7CFFE52325E025E024ADF582E4340BF583126DF9E4F527F526F525F524300D05C20D128D13
:4050C000FAE4FFFEFDFCAB4FAA4EA94DA84CC3126D5E6026AF2FAE2EAD2DAC2CA84C126C267810126D98E5272FF527E5263EF526E5253DF525E5243CF524E4FFFEFDFCAB38
:4051000053AA52A951A850C3126D5E6038E52325E025E024ADF582E4340BF583E0FCA3E0FDA3E0FEA3E0FFA850126C267810126D98E5272FF527E5263EF526E5253DF5254B
:40514000E5243CF524E4FFFEFDFCAB57AA56A955A854C3126D5E6063E52325E025E02403F582E4340BF583E0F8A3E0F9A3E0FAA3E0FBE52325E025E02439F582E4340AF501
:4051800083E0FCA3E0FDA3E0FEA3E0C39BFFEE9AFEED99FDEC98FCAB57AA56A955A854126C267810126D98E5272FF527E5263EF526E5253DF525E5243CF524300D05C20D5C
:4051C000128DFA90096DE0FEA3E0FFEE3395E0FDFCAB27AA26A925A824D3126D5E401690096DE0FEA3E0FFEE3395E08F278E26F525F524803C90096DE0FEA3E0FFC3E49FDE
:40520000FFE49EFE3395E0FDFCAB27AA26A925A824C3126D5E501A90096DE0FEA3E0FFC3E49FFFE49EFE3395E08F278E26F525F524300D05C20D128DFAE52325E0240FF5B9
:4052400082E4340BF583E0FEA3E0FFFBAA06EA3395E0F9F8C3E5279BF533E5269AF532E52599F531E52498F530E52325E025E024B5F582E4340BF583C083C082E0FCA3E0B5
:40528000FDA3E0FEA3E02533FFEE3532FEED3531FDEC3530FCD082D083126DF9E52325E025E024B5F582E4340BF583E0FCA3E0FDA3E0FEA3E0FF7BA07A8679017800C3124B
:4052C0006D5E501C7FA07E867D017C00E52325E025E024B5F582E4340BF583126DF98042E52325E025E024B5F582E4340BF583E0FCA3E0FDA3E0FEA3E0FF7B607A7979FE82
:4053000078FFD3126D5E401A7F607E797DFE7CFFE52325E025E024B5F582E4340BF583126DF9300D05C20D128DFAE4F52BF52AF529F528FFFEFDFCAB5BAA5AA959A858C3DE
:40534000126D5E6026AF33AE32AD31AC30A858126C267810126D98E52B2FF52BE52A3EF52AE5293DF529E5283CF528E4FFFEFDFCAB5FAA5EA95DA85CC3126D5E6038E5233B
:4053800025E025E024B5F582E4340BF583E0FCA3E0FDA3E0FEA3E0FFA85C126C267810126D98E52B2FF52BE52A3EF52AE5293DF529E5283CF528E4FFFEFDFCAB63AA62A91B
:4053C00061A860C3126D5E6064E52325E0240FF582E4340BF583E0FEA3E0FFFBAA06EA3395E0F9F8E52325E025E024A5F582E4340BF583E0FCA3E0FDA3E0FEA3E0C39BFF56
:40540000EE9AFEED99FDEC98FCAB63AA62A961A860126C267810126D98E52B2FF52BE52A3EF52AE5293DF529E5283CF528E52325E0240FF582E4340BF583E0FEA3E0FFEE3A
:405440003395E0FDFCE52325E025E024A5F582E4340BF583126DF9300D05C20D128DFAE523701CFFFEFDFCAB2BAA2AA929A828C3126D5E4005D20F0257D6C20F0257D6E4CD
:40548000FFFEFDFCAB2BAA2AA929A828C3126D5E4005D2100257D6C2100257D6E52325E025E024B5F582E43409F583E0FCA3E0FDA3E0FEA3E0FF74F52523F582E43409F51B
:4054C00083E0F9F8126D988F278E268D258C2490096DE0FEA3E0FFEE3395E0FDFCAB27AA26A925A824D3126D5E401490096DE0FEA3E0FFEE3395E08F278E26F525F524AEF9
:4055000026AF2712B01EE52325E0240FF582E4340BF583E0FCA3E0FDC3EF9DFFEE9CFE3395E08F338E32F531F530E52325E025E024B5F582E4340BF583C083C082E0FCA395
:40554000E0FDA3E0FEA3E02533FFEE3532FEED3531FDEC3530FCD082D083126DF9E52325E025E024B5F582E4340BF583E0FCA3E0FDA3E0FEA3E0FF7BA07A8679017800C3BA
:40558000126D5E501C7FA07E867D017C00E52325E025E024B5F582E4340BF583126DF9803CE52325E025E024B5F582E4340BF583E0FCA3E0FDA3E0FEA3E0FFE4FBFAF9F82E
:4055C000D3126D5E4017E4FFFEFDFCE52325E025E024B5F582E4340BF583126DF9E4F52BF52AF529F528FFFEFDFCAB43AA42A941A840C3126D5E602CAF33AE32AD31AC30AD
:40560000AB37AA36A935A834126C267810126D98E52B2FF52BE52A3EF52AE5293DF529E5283CF528E4FFFEFDFCAB47AA46A945A844C3126D5E603DE52325E025E024B5F55E
:4056400082E4340BF583E0FCA3E0FDA3E0FEA3E0FF7806126D98A844126C26780A126D98E52B2FF52BE52A3EF52AE5293DF529E5283CF528E4FFFEFDFCAB4BAA4AA949A8F8
:4056800048C3126D5E6064E52325E0240FF582E4340BF583E0FEA3E0FFFBAA06EA3395E0F9F8E52325E025E024A5F582E4340BF583E0FCA3E0FDA3E0FEA3E0C39BFFEE9A2C
:4056C000FEED99FDEC98FCAB4BAA4AA949A848126C267810126D98E52B2FF52BE52A3EF52AE5293DF529E5283CF528E4FFFEFDFCAB2BAA2AA929A828C3126D5E5009E4F508
:405700002BF52AF529F528E52325E0240FF582E4340BF583E0FEA3E0FFEE3395E0FDFCE52325E025E024A5F582E4340BF583126DF9E523701CFFFEFDFCAB2BAA2AA929A890
:4057400028C3126D5E4005D20F0257D6C20F0257D6E4FFFEFDFCAB2BAA2AA929A828C3126D5E4004D210806EC210806AE52325E025E024B5F582E43409F583E0FCA3E0FD1F
:40578000A3E0FEA3E0FF74F52523F582E43409F583E0F9F8126D988F2B8E2A8D298C28E523701AFFFEFDFCAB2BAA2AA929A828C3126D5E4004D20F801DC20F8019E4FFFEE0
:4057C000FDFCAB2BAA2AA929A828C3126D5E4004D2108002C210300D05C20D128DFAE47F64FEFDFCAB2BAA2AA929A828D3126D5E400AE4752B64F52AF529F52874FF7F9CCC
:40580000FEFDFCAB2BAA2AA929A828C3126D5E500B74FF752B9CF52AF529F528300D05C20D128DFA900971E064016037AF2BAE2AAD29AC28780A126DACE47B64FAF9F812C8
:40584000A611A804A905AA06AB07900B22E0FFE4FCFDFE126C26780A126D988F2B8E2A8D298C28300F113010077F0312B1AC80167F0112B1AC800F3010077F0212B1AC80D2
:4058800005E4FF12B1AC300D05C20D128DFAE5237046FFFEFDFCAB2BAA2AA929A828D3126D5E40067E007F01801DE4FFFEFDFCAB2BAA2AA929A828C3126D5E50067EFF7F3E
:4058C000FF80047E007F00900B01EFF0AE2AAF2B12B01E12B13A8045E4FFFEFDFCAB2BAA2AA929A828D3126D5E40067E007F01801DE4FFFEFDFCAB2BAA2AA929A828C312A7
:405900006D5E50067EFF7FFF80047E007F00900B02EFF0AE2AAF2B12B01E12B140300D05C20D128DFA22205945530000204E4F000020557362000020456E636F64657220D5
:4059400033000020506F736974696F6E00002050574D00002043757272656E74000020506F736974696F6E20616E642063757272656E74000020256400000D0A004669729C
:405980006D776172652076657273696F6E3A200043554646204D4F442076362E312E30002E0D0A0D0A0044455649434520494E464F0D0A0049443A2025640D0A004E756D78
:4059C000626572206F662073656E736F72733A2025640D0A00537570706C792074656E73696F6E3A2025640D0A0050574D204C696D69743A2025640D0A004D4F544F5220ED
:405A0000494E464F0D0A004D6F746F72207265666572656E6365733A2000256420004D6F746F7220656E61626C65643A20005945530D0A004E4F0D0A000D0A4D4541535529
:405A400052454D454E545320494E464F0D0A0053656E736F722076616C75653A0D0A002564202D3E20256400566F6C7461676520286D56293A20256C640043757272656E1C
:405A800074203120286D41293A20256C640043757272656E74203220286D41293A20256C64000D0A44455649434520504152414D45544552530D0A0050494420436F6E748D
:405AC000726F6C6C65723A0D0A0050202D3E2025660D0A0049202D3E2025660D0A0044202D3E2025660D0A0043757272656E742050494420436F6E74726F6C6C65723A0D96
:405B00000A00537461727475702061637469766174696F6E3A205945530D0A00537461727475702061637469766174696F6E3A204E4F0D0A00496E707574206D6F64653A52
:405B4000205553420D0A00496E707574206D6F64653A2053656E736F7220330D0A00436F6E74726F6C204D6F64653A2000506F736974696F6E0D0A0050574D0D0A004375E2
:405B80007272656E740D0A00506F736974696F6E20616E642063757272656E740D0A0053656E736F72207265736F6C7574696F6E3A0D0A004D6561737572656D656E7420DC
:405BC0004F66667365743A0D0A002564202D3E20256C64004D6561737572656D656E74204D756C7469706C6965723A0D0A002564202D3E202566000A43757272656E7420DA
:405C0000636F6E74726F6C6C6572277320706172616D65746572733A0A50726F706F7274696F6E616C206761696E3A200025660053617475726174696F6E2076616C7565DA
:405C40003A20002568640044656164207A6F6E653A20000D0A0A00506F736974696F6E206C696D6974206163746976653A20256400506F736974696F6E206C696D6974204D
:405C80006D6F746F722025643A20696E66202D3E20256C64202000737570202D3E20256C640D0A004D61782073746966666E6573733A2025640043757272656E74206C69AE
:405CC0006D69743A202564004375666620737461727475702061637469766174696F6E3A205945530D0A004375666620737461727475702061637469766174696F6E3A20A9
:405D00004E4F0D0A0043756666206163746976653A205945530D0A0043756666206163746976653A204E4F0D0A0064656275673A20256C64000000000000000000000000A9
:405D40000000000000000000000000000000000000000000000000000000000000000000000000000000000000000000000000000000000000000000000000000000000023
:405D800000000000000000000000000000000000000000000000000000000000000000000000000000000000000000000000000000000000000000000000000000000000E3
:405DC00000000000000000000000000000000000000000000000000000000000000000000000000000000000000000000000000000000000000000000000000000000000A3
:405E00000000000000000000000000000000000000000000000000000000000000000000000000000000000000000000000000000000000000000000000000000000000062
:405E40000000000000000000000000000000000000000000000000000000000000000000000000000000000000000000000000000000000000000000000000000000000022
:405E800000000000000000000000000000000000000000000000000000000000000000000000000000000000000000000000000000000000000000000000000000000000E2
:405EC00000000000000000000000000000000000000000000000000000000000000000000000000000000000000000000000000000000000000000000000000000000000A2
:405F00000000000000000000000000000000000000000000000000000000000000000000000000000000000000000000000000000000000000000000000000000000000061
:405F40000000000000000000000000000000000000000000000000000000000000000000000000000000000000000000000000000000000000000000000000000000000021
:405F800000000000000000000000000000000000000000000000000000000000000000000000000000000000000000000000000000000000000000000000000000000000E1
:405FC00000000000000000000000000000000000000000000000000000000000000000000000000000000000000000000000000000000000000000000000000000000000A1
:406000000000000000000000000000000000000000000000000000000000000000000000000000000000000000000000000000000000000000000000000000000000000060
:406040000000000000000000000000000000000000000000000000000000000000000000000000000000000000000000000000000000000000000000000000000000000020
:4060800000000000000000000000000000000000000000000000000000000000000000000000000000000000000000000000000000000000000000000000000000000000E0
:4060C00000000000000000000000000000000000000000000000000000000000000000000000000000000000000000000000000000000000000000000000000000000000A0
:40610000000000000000000000000000000000000000000000000000000000000000000000000000000000000000000000000000000000000000000000000000000000005F
:40614000000000000000000000000000000000000000000000000000000000000000000000000000000000000000000000000000000000000000000000000000000000001F
:4061800000000000000000000000000000000000000000000000000000000000000000000000000000000000000000000000000000000000000000000000000000000000DF
:4061C000000000000000000000000000000000000000000000000000000000000000000000000000000000000000000000000000000000000000000000000000000000009F
:40620000000000000000000000000000000000000000000000000000000000000000000000000000000000000000000000000000000000000000000000000000000000005E
:40624000000000000000000000000000000000000000000000000000000000000000000000000000000000000000000000000000000000000000000000000000000000001E
:4062800000000000000000000000000000000000000000000000000000000000000000000000000000000000000000000000000000000000000000000000000000000000DE
:4062C000000000000000000000000000000000000000000000000000000000000000000000000000000000000000000000000000000000000000000000000000000000009E
:4063000000000000000000000000000000000000000031202D204465766963652049443A0032202D20506F736974696F6E20504944205B502C20492C20445D3A0033202D90
:406340002043757272656E7420504944205B502C20492C20445D3A0034202D20537461727475702041637469766174696F6E3A000000000035202D20496E707574206D6FE8
:4063800064653A00000000000000000000000036202D20436F6E74726F6C206D6F64653A0000000000000000000000000000000000000000000037202D205265736F6C7539
:4063C00074696F6E733A0000000000000038202D204D6561737572656D656E74204F6666736574733A0039202D204D756C7469706C696572733A003130202D20506F732E2F
:40640000206C696D6974206163746976653A00000000003131202D20506F732E206C696D697473205B696E662C207375705D3A003132202D204D6178207374657073205BB3
:406440006E65672C20706F735D3A003133202D2043757272656E74206C696D69743A003134202D2043757272656E742070726F706F7274696F6E616C206761696E3A003158
:4064800035202D2043757272656E7420646966666572656E63652073617475726174696F6E3A003136202D2043757272656E742064656164207A6F6E653A003137202D2038
:4064C000437566662061637469766174696F6E20666C61673A00000000003138202D20506F7765722074656E73696F6E3A00000030202D3E205573620A31202D3E205368EF
:40650000616674277320706F736974696F6E20636F6E74726F6C7320746865206D6F746F72730A0030202D3E205B31207475726E5D0A31202D3E205B32207475726E735D55
:406540000A32202D3E205B34207475726E735D0A33202D3E205B38207475726E735D0A34202D3E205B3136207475726E735D0A35202D3E205B3332207475726E5D0A362004
:406580002D3E205B3634207475726E5D0A37202D3E205B313238207475726E735D0A38202D3E205B323536207475726E735D0A0030202D3E20506F736974696F6E0A312077
:4065C0002D3E2050574D0A32202D3E2043757272656E740A33202D3E20506F736974696F6E2D43757272656E740A0030202D3E2044656163746976617465205B4E4F5D0AA7
:4066000031202D3E204163746976617465205B5945535D0A00EC4D6011E8497017ED33EC3304600DE4FCFFFEFD22E933E8330470F80268DE1268A958046009E4CC248150F4
:40664000062850090268E82840030268E5C0E0EB4A7044B98006D0E0FB0268D4EF4E701CBD8008EBFFEAFEE9FD80EBE98DF0A4FEE5F00266FEE9CDF9EAFEEBFFEF89F0A4D5
:40668000FCE5F0CE89F0A42EFFE435F0CD89F0A42DFEE435F08067EF4E7005BD80D780C3EF8BF0A4ACF0EE8BF0A42CFCE435F0F8EF8AF0A42CE5F038FCE433CB8DF0A42C89
:4066C000FCE5F03BF8EE8AF0A42CFCE5F038F8E433CF89F0A42CFCE5F038CF3400CE89F0A42FFFE5F03EFEE433C98DF0A42EFEE5F039CD8AF0A42FFFE5F03EFEE43DFD3342
:40670000D0E0FB50070BBB000F0268E8EC2CFCEF33FFEE33FEED33FD0268C00268E8EC5D046005E8590470030268DE1268A9580460F6EC4860F2EC7004FDFEFF22C860DBB7
:406740002481C85009C398600250060268E59850CAF582E9294B4A7005AB820268D475F0007C1A7880C3EF9BEE9AED99400DC3EF9BFFEE9AFEED99FDE842F0DC23ACF0D0CC
:40678000E0FFD0E0FED0E0FDAB8220E7101BEB60BAEC2CFCEF33FFEE33FEED33FD0268C0E803F830E705C0F075F000EF2FFFEE33FEED33FD40B830E7C280AA74F8CC64801C
:4067C000CCC86480C8F58204604FC3EB9FF5F0EA9E42F0E99D42F0E89C45F0603C501DE5825FFFE582D313CB5BCBF42B5582FB50280ABA002409B9002008801DE5825BFB31
:40680000E582D313CF5FCFF4C3132F5582FF50090EBE00050DBD00010CC3EB9FF5F0EA9E42F0E99D42F0E89C45F06007CC4820E701B3EC2275F020800E75F010800575F02B
:40684000087D007E007F003392D530D503126D50EC334010EF33FFEE33FEED33FDEC33FCD5F0ED22E5F0247EA2D513CC92E7CDCEFF22EDD2E7CD33EC3392D524814006E46D
:40688000FFFEFDFC22FCE4CFCECDCC24E0501174FF80EDC3CC13CCCD13CDCE13CECF13CF0470F030D5DE026D50E9D2E7C933E833F892D5EDD2E7CD33EC33FC5002B2D52210
:4068C000EC30E7100FBF000C0EBE00080DBD00040BEB6014A2D5EB13FCED92E7FD2274FFFCFDFEFF22E480F8A2D574FF13FC7D80E480EFF920E73624F950037907E4F42457
:4069000002FBE582158270021583DBF6E024FB501BE96014E4F0E582158270021583E004F0B40A08E4F0D9EE7401F00A22C2D522ED33EC3392D5FA602AB4FF33EDC2E77B3E
:40694000FF60067A697955E4227A69795E20D5047A697959224E614E002B494E46002D494E4600E47A08F0A3DAFC7B00740722C083C082ECC0E0EDC0E0EEC0E0EFC0E0EAD6
:4069800075F010A4CAABF075F04DA42BFBE435F0FCEA2410FAEB34C5FBEC34D9FCEDC2E7FF75F056A4F42411C5F0F434C58FF0A42AE5F03BE43CF020E714126B5DD0E0FF1C
:4069C000D0E0FED0E0FDD0E0FC12671E8014F404126B5DD0E0FFD0E0FED0E0FDD0E0FC126615D082D083E0FAEDD2E7CD33EC332482FBE4C3CF33CFCE33CECD33CD33DBF356
:406A00007B0775F00A846004F0A31B0AE5F0F0A38FF0740AA4FFACF08EF0740AA42CFEACF050010C8DF0740AA42CFDE435F0F0A3DBDE7407220268DEE86480F8E933E83361
:406A400060110460F0ED33EC337009E8FCE9FDEAFEEBFF220460DED3EB9FEA9EE99DE8C2E78CF0C2F795F0400CE8CCF8E9CDF9EACEFAEBCFFB1268A985D0F058047003207E
:406A8000D5B3E80470075002B2D50268E892D5EC0460F7E4CCC0E0C398F8603B94186008400DD0E0FB0268C0E4FBFAC9FC8028E830E406E4C9FBE4CAFCE830E305E4C9CA8D
:406AC000CBFCE854076010F8C3E913F9EA13FAEB13FBEC13FCD8F130F52FC3E49CFCEF9BFFEE9AFEED99FDD0E0FBEF4E4D4C701222DB030268E5EC2CFCEF33FFEE33FEED00
:406B000033FDED30E7EB0268C0EF2BFFEE3AFEED39FDD0E0FB50130BBB00030268E8ED13FDEE13FEEF13FFEC13FC0268C03F8000004120000042C80000447A0000461C40D5
:406B40000047C35000497424004B1896804CBEBC205A0E1BCA6753C21C749DC5AEFB60065407601C2323126B8BEB54386009126B77126B86126615ECF8EDF9EEFAEFCB229A
:406B8000EB126B8680F1543803241C906B2DFE93FC0EEE93FD0EEE930ECE93FF22BB010689828A83E0225002E722BBFE02E32289828A83E49322BB010CE58229F582E58368
:406BC0003AF583E0225006E92582F8E622BBFE06E92582F8E222E58229F582E5833AF583E49322BB010689828A83F0225002F722BBFE01F322EF8DF0A4A8F0CF8CF0A42811
:406C0000CE8DF0A42EFE22BB010A89828A83F0E5F0A3F0225006F709A7F01922BBFE06F3E5F009F31922E88FF0A4CC8BF0A42CFCE98EF0A42CFC8AF0EDA42CFCEA8EF0A449
:406C4000CDA8F08BF0A42DCC3825F0FDE98FF0A42CCD35F0FCEB8EF0A4FEA9F0EB8FF0A4CFC5F02ECD39FEE43CFCEAA42DCE35F0FDE43CFC2275F008758200EF2FFFEE3318
:406C8000FECD33CDCC33CCC58233C5829BED9AEC99E58298400CF582EE9BFEED9AFDEC99FC0FD5F0D6E4CEFBE4CDFAE4CCF9A88222B800C1B90059BA002DEC8BF084CFCE97
:406CC000CDFCE5F0CBF97818EF2FFFEE33FEED33FDEC33FCEB33FB10D703994004EB99FB0FD8E5E4F9FA227818EF2FFFEE33FEED33FDEC33FCC933C910D7059BE99A4007F0
:406D0000EC9BFCE99AF90FD8E0E4C9FAE4CCFB2275F010EF2FFFEE33FEED33FDCC33CCC833C810D7079BEC9AE899400AED9BFDEC9AFCE899F80FD5F0DAE4CDFBE4CCFAE47B
:406D4000C8F922CFF4CFCEF4CECDF4CDCCF4CC22C3E49FFFE49EFEE49DFDE49CFC22EB9FF5F0EA9E42F0E99D42F0EC6480C864809845F022EB9FF5F0EA9E42F0E99D42F0C4
:406D8000E89C45F022E8600FECC313FCED13FDEE13FEEF13FFD8F122E86010ECA2E713FCED13FDEE13FEEF13FFD8F022E8600FEFC333FFEE33FEED33FDEC33FCD8F122BB00
:406DC000010789828A8302708B5005E9F802707FBBFE05E9F802709789828A830270A3BB010789828A83026DF95005E9F80270B3BBFE05E9F80270BF22ECF0A3EDF0A3EEFD
:406E0000F0A3EFF022F8E0FBA3A3E0F925F0F0E582158270021583E0FA38F022EBF0A3EAF0A3E9F022D083D082F8E4937012740193700DA3A393F8740193F5828883E473D8
:406E40007402936860EFA3A3A380DFE50F2582F582E50E3583F583B50E0485820F2210AF0685820FF50E2285820FF50ED2AF22EC8EF0A4CCC5F0CCCDF8EFA4CEC5F02DFDBA
:406E8000E43CFCE8A42EC8C5F03DFDE43CFCEFA4FFE5F028FEE43DFDE43CFC22E709F608DFFA8046E709F208DFFA803E88828C83E709F0A3DFFA8032E309F608DFFA806E5A
:406EC000E309F208DFFA806688828C83E309F0A3DFFA805A89828A83E0A3F608DFFA804E89828A83E0A3F208DFFA804280D280FA80C680D4805580F28029801080A680EABC
:406F0000809A80A880DA80E280CA802988848C8589828A83E493A30586F0A30586DFF5DEF3800B89828A83E493A3F608DFF9ECFAA9F0EDFB2288848C8589828A83E0A305EA
:406F400086F0A30586DFF6DEF480E389828A83E493A3F208DFF980D688F0EF60010E4E60CD88F0ED2402B4040050C3F582EB2402B4040050B92323458223906EEC73E7099C
:406F8000F60870FA8046E709F20870FA803E88828C83E709F0A370FA8074E309F60870FA806CE309F20870FA806488828C83E309F0A370FA805889828A83E0A3F60870FA46
:406FC000804C89828A83E0A3F20870FA804080D280FA80C680D4805180F28027801080A680EA809A80A880DA80E280CA802788848C8589828A83E493A30586F0A30586703F
:40700000F5800B89828A83E493A3F60870F9ECFAA9F0EDFB2288848C8589828A83E0A30586F0A3058670F680E589828A83E493A3F20870F980D888F0ED2402B4040050CE34
:40704000F582EB2402B4040050C42323458223906FCE73C5F0F8A3E028F0C5F0F8E582158270021583E038F022A3F8E0C5F025F0F0E582158270021583E0C838F0E822E628
:40708000FC08E6FD08E6FE08E6FF22E0FCA3E0FDA3E0FEA3E0FF22E2FC08E2FD08E2FE08E2FF22E493FC740193FD740293FE740393FF22ECF608EDF608EEF608EFF622EC57
:4070C000F208EDF208EEF208EFF222E578240EF582E43409F583E005782290090B30080390090EE475F001126E05026B9D2001E97F2ED2018018EF540F2490D43440D4FF04
:4071000030050BEF24BFB41A0050032461FFE57960021579057CE57C7002057B30080E90090BE475F001126E05EF026BE302AB1C7403D2088003E4C208F57890090B126EA2
:407140001CE4F579F57BF57CE57960077F2012710E80F5757AFFC202C201C203C204C206C207C2091270DAFF700D3008057F0012711FAF7CAE7B22B4255FC2D5C205127036
:40718000DAFF24D0B40A00501A75F00A787930D50508B6FF0106C6A426F620D5047002D20480D924CFB41A00EF5004C2E5D205027411D20280C6D20180C0D20380BCD2D59E
:4071C00080BAD20680B47F2012710E2003077401B5790040F11270CBFF12710E027148D209D20780951270CBFB1270CBFA1270CBF94A4B7006790F7A757BFF20032EE5793A
:40720000602A7E008E82758300126BB660060EEE657A70F0C2D5EBC0E0EAC0E0E9C0E0EE127472D0E0F9D0E0FAD0E0FB126B9DFF60AAEBC0E0EAC0E0E9C0E012710ED0E04F
