:10260000029B00008F828E83E0540100000070F86E
:102610002278FFE4F6D8FD029B8E900021EEF0A315
:10262000EFF078237C007D017BFF7A5379907E0662
:102630007FA51274349006C87406F0A374A5F078D0
:10264000D27C067D017BFF7A5A79357E007F0F129E
:10265000743478E17C067D017BFF7A5A79447E00F0
:102660007F1C12743478FD7C067D017BFF7A5A79D9
:10267000607E007F1B12743478187C077D017BFF1D
:102680007A5A797B7E007F1C12743478347C077D03
:10269000017BFF7A5A79977E007F1B127434784F42
:1026A0007C077D017BFF7A5A79B27E007F27127406
:1026B0003478767C077D017BFF7A5A79D97E007F5A
:1026C00017127434788D7C077D017BFF7A5A79F07C
:1026D0007E007F1912743478A67C077D017BFF7A17
:1026E0005B79097E007F1112743478B77C077D0115
:1026F0007BFF7A5B791A7E007F1C12743478D37C5E
:10270000077D017BFF7A5B79367E007F1D12743472
:1027100078F07C077D017BFF7A5B79537E007F1B1D
:10272000127434780B7C087D017BFF7A5B796E7EB6
:10273000007F14127434781F7C087D017BFF7A5B64
:1027400079827E007F20127434783F7C087D017B83
:10275000FF7A5B79A27E007F2412743478637C0850
:102760007D017BFF7A5B79C67E007F181274347816
:102770007B7C087D017BFF7A5B79DE7E007F251202
:10278000743478A07C087D017BFF7A5C79037E003D
:102790007F1612743478B67C087D017BFF7A5C79F1
:1027A000197E007F2712743478DD7C087D017BFF61
:1027B0007A5C79407E007F2312743478007C097D36
:1027C000017BFF7A5C79637E007F1F127434781F6F
:1027D0007C097D017BFF7A5C79827E007F0E12741A
:1027E00034782D7C097D017BFF7A5C79907E007FB7
:1027F0003412743478617C097D017BFF7A5C79C482
:102800007E007F8C12743478ED7C097D017BFF7A29
:102810005D79507E007F3B12743478287C0A7D01FC
:102820007BFF7A5D798B7E007F2A1274347B017A7C
:102830000679D212B7A68F697B017A0679E112B7C1
:10284000A68F6A7B017A0679FD12B7A68F6B7B0192
:102850007A07798D12B7A68F6C7B017A0779A61259
:10286000B7A68F6D7B017A0779D312B7A68F6E7BDF
:10287000017A08790B12B7A68F6F7B017A08791F4E
:1028800012B7A68F707B017A08793F12B7A68F71B5
:102890007B017A08796312B7A68F727B017A087977
:1028A000A012B7A68F737B017A09792D12B7A68F74
:1028B000747B017A0979ED12B7A68F757B017A09CD
:1028C000792D12B7A68F767B017A09796112B7A6A6
:1028D0008F777B017A0879DD12B7A68F787B017A32
:1028E00009790012B7A68F797B017A09791F12B78F
:1028F000A68F7A900023740CF0A37416F090002138
:10290000E0FEA3E0FFEE6003023C80EFB41700405E
:1029100003023C8090291BF82828730229600237A3
:10292000100237190237E90238B90238CC0238D51B
:102930000238DE0239170239C2023A29023A32025B
:102940003B57023BDD023BED023C02023C12023CE3
:1029500022023C30023C40023C4E023C63023C7886
:102960009000257402F0A314F0900A83E0900027F1
:10297000F0756700856968E5684567602CC3E5699F
:102980009568FFE49567FE74D22FF58274063EF5D4
:1029900083E0FD74282FF58274003EF583EDF0E5A9
:1029A0006815687002156780CE9000577407F0A311
:1029B0007403F0900AB8E064036068900A84E0FC55
:1029C000A3E0FDA3E0FEA3E0FFEC126D10E4FBFA30
:1029D00079807847126BFA9000591272D5900A8864
:1029E000E0FCA3E0FDA3E0FEA3E0FFEC126D10E429
:1029F000FBFA79807847126BFA90005D1272D590DD
:102A00000A8CE0FCA3E0FDA3E0FEA3E0FFEC126D66
:102A100010E4FBFA79807847126BFA900061127229
:102A2000D58066900A9CE0FCA3E0FDA3E0FEA3E055
:102A3000FFEC126D10E4FBFA79807847126BFA9084
:102A400000591272D5900AA0E0FCA3E0FDA3E0FEBD
:102A5000A3E0FFEC126D10E4FBFA79807847126B6B
:102A6000FA90005D1272D5900AA4E0FCA3E0FDA3E9
:102A7000E0FEA3E0FFEC126D10E4FBFA79807847EA
:102A8000126BFA9000611272D5756700856A68E56D
:102A9000684567602CC3E56A9568FFE49567FE7436
:102AA000E12FF58274063EF583E0FD74652FF58213
:102AB00074003EF583EDF0E56815687002156780D7
:102AC000CE9000897407F0A37403F0900AB8E06414
:102AD000036068900A90E0FCA3E0FDA3E0FEA3E0A1
:102AE000FFEC126D10E4FBFA79807847126BFA90D4
:102AF000008B1272D5900A94E0FCA3E0FDA3E0FEE7
:102B0000A3E0FFEC126D10E4FBFA79807847126BBA
:102B1000FA90008F1272D5900A98E0FCA3E0FDA312
:102B2000E0FEA3E0FFEC126D10E4FBFA7980784739
:102B3000126BFA9000931272D58066900AA8E0FC9E
:102B4000A3E0FDA3E0FEA3E0FFEC126D10E4FBFAAE
:102B500079807847126BFA90008B1272D5900AAC8C
:102B6000E0FCA3E0FDA3E0FEA3E0FFEC126D10E4A7
:102B7000FBFA79807847126BFA90008F1272D59029
:102B80000AB0E0FCA3E0FDA3E0FEA3E0FFEC126DC1
:102B900010E4FBFA79807847126BFA900093127276
:102BA000D5756700856B68E5684567602CC3E56B84
:102BB0009568FFE49567FE74FD2FF58274063EF577
:102BC00083E0FD74972FF58274003EF583EDF0E508
:102BD0006815687002156780CEE49000BBF0A3040E
:102BE000F0900AB6E09000BDF0900AB6601F900A1F
:102BF0005574FFF0A3744EF0A374BBF07B017A0709
:102C0000791812AAE89006CA741CF0801D900A5523
:102C100074FFF0A3744EF0A374C1F07B017A0779BE
:102C20001812AAE89006CA741BF09006CAE07567ED
:102C300000F568E5684567602E9006CAE0C39568B0
:102C4000FFE49567FE74182FF58274073EF583E064
:102C5000FD74BE2FF58274003EF583EDF0E5681536
:102C6000687002156780CC9006CAE024BEF582E445
:102C70003400F5837404F0E49000EDF0A304F090C8
:102C80000AB7E09000EFF0900AB714602204703C9D
:102C9000900A5574FFF0A3744EF0A374C6F07B0144
:102CA0007A07793412AAE89006CA7414F0801D904D
:102CB0000A5574FFF0A3744EF0A374CCF07B017A34
:102CC00007793412AAE89006CA741AF09006CAE08E
:102CD000756700F568E5684567602E9006CAE0C331
:102CE0009568FFE49567FE74342FF58274073EF50E
:102CF00083E0FD74F02FF58274003EF583EDF0E57E
:102D00006815687002156780CC9006CAE024F0F55B
:102D100082E43400F5837401F0E490011FF0A30411
:102D2000F0900AB8E0900121F0900AB814602914DC
:102D300060451460612403707A900A5574FFF0A313
:102D4000744EF0A374D8F07B017A07794F12AAE889
:102D50009006CA741BF0805B900A5574FFF0A37450
:102D60004EF0A374E3F07B017A07794F12AAE89042
:102D700006CA7416F0803C900A5574FFF0A3744E96
:102D8000F0A374E9F07B017A07794F12AAE8900664
:102D9000CA741AF0801D900A5574FFF0A3744EF0A7
:102DA000A374F3F07B017A07794F12AAE89006CA60
:102DB0007427F09006CAE0756700F568E568456716
:102DC000602E9006CAE0C39568FFE49567FE744FD5
:102DD0002FF58274073EF583E0FD74222FF582748F
:102DE000013EF583EDF0E56815687002156780CC4B
:102DF0009006CAE02422F582E43401F5837402F0DF
:102E0000E4900151F0A37403F0E4A3F0A3F0A3F065
:102E1000F567F568C3E5689403E5679400504E9044
:102E20000A5574FFF0A3744FF0A3740AF074B92527
:102E300068F582740A3567F583E0FF900A58E4F07C
:102E4000A3EFF07B017A0679CF12760C900A5574C5
:102E500001F0A37406F0A374CFF07B017A077976B2
:102E600012AAE80568E5687002056780A79006CA9F
:102E70007417F0E0756700F568E5684567602E90A7
:102E800006CAE0C39568FFE49567FE74762FF58265
:102E900074073EF583E0FD74562FF58274013EF50C
:102EA00083EDF0E56815687002156780CC9006CA5E
:102EB000E02456F582E43401F5837403F090018335
:102EC000F0A3F0E4F567F568C3E5689403E567945B
:102ED000005059E568AE677802C333CE33CED8F9D7
:102EE00024BCF582740A3EF583E0FCA3E0FDA3E078
:102EF000FEA3E0FF74B92568F582740A3567F5838F
:102F0000E0F9F8127274AD07AC06E56825E0FFE55C
:102F10006733FE74852FF58274013EF583ECF0A3D0
:102F2000EDF00568E56870020567809C75670085AF
:102F30006C68E5684567602CC3E56C9568FFE495AF
:102F400067FE748D2FF58274073EF583E0FD748B68
:102F50002FF58274013EF583EDF0E5681568700287
:102F6000156780CE9001B57407F0A37403F0E4F503
:102F700067F568C3E5689403E56794005054E56815
:102F8000AE677802C333CE33CED8F924C8F5827445
:102F90000A3EF583E0FCA3E0FDA3E0FEA3E0FFC052
:102FA00004C005C006C007E568AE677802C333CE2B
:102FB00033CED8F924B7F58274013EF583D007D01B
:102FC00006D005D0041272D50568E5687002056761
:102FD00080A1E4F567F5687B017A0779A612B7A6A8
:102FE000C3E5689FE5679E502674A62568F5827440
:102FF000073567F583E0FF74C32568F582740135F2
:1030000067F583EFF00568E5687002056780C8E43E
:103010009001E7F0A304F0900AD4E09001E9F09069
:103020000AD4601F900A5574FFF0A3744EF0A37485
:10303000BBF07B017A0779B712AAE89006CA741C24
:10304000F0801D900A5574FFF0A3744EF0A374C174
:10305000F07B017A0779B712AAE89006CA741BF0D0
:103060009006CAE0756700F568E5684567602E90D0
:1030700006CAE0C39568FFE49567FE74B72FF58232
:1030800074073EF583E0FD74EA2FF58274013EF586
:1030900083EDF0E56815687002156780CC9006CA6C
:1030A000E024EAF582E43401F5837404F090021917
:1030B00004F0A314F0E4F567F568C3E5689402E54D
:1030C000679400400302318BE568AE677802C33332
:1030D000CE33CED8F924D5F582740A3EF583E0FCD0
:1030E000A3E0FDA3E0FEA3E0FF74B92568F58274B8
:1030F0000A3567F583E0F9F8127274C004C005C0A0
:1031000006C007E568AE677803C333CE33CED8F97F
:10311000241BF58274023EF583D007D006D005D07B
:10312000041272D5E568AE677802C333CE33CED8C9
:10313000F924DDF582740A3EF583E0FCA3E0FDA3EB
:10314000E0FEA3E0FF74B92568F582740A3567F5DF
:1031500083E0F9F8127274C004C005C006C007E528
:1031600068AE677803C333CE33CED8F9241FF58217
:1031700074023EF583D007D006D005D0041272D574
:103180000568E568700205670230BA756700856EEC
:1031900068E5684567602CC3E56E9568FFE4956750
:1031A000FE74D32FF58274073EF583E0FD742B2F58
:1031B000F58274023EF583EDF0E56815687002153E
:1031C0006780CE90024B7405F0A37402F0900AE978
:1031D000E0FCA3E0FDA3E0FEA3E0FF90024D12722D
:1031E000D5900AEDE0FCA3E0FDA3E0FEA3E0FF9094
:1031F00002511272D5E4F567F5687B017A0779F020
:1032000012B7A6C3E5689FE5679E502674F025684F
:10321000F58274073567F583E0FF74552568F582FC
:1032200074023567F583EFF00568E568700205679D
:1032300080C890027D7403F0A37401F0900AB4E09A
:10324000FFA3E090027FCFF0A3EFF0756700856FDA
:1032500068E5684567602CC3E56F9568FFE495678E
:10326000FE740B2FF58274083EF583E0FD74812F08
:10327000F58274023EF583EDF0E56815687002157D
:103280006780CE9002AF7407F0A37401F0900AF249
:10329000E0FCA3E0FDA3E0FEA3E0FF9002B1127208
:1032A000D5756700857068E5684567602CC3E57073
:1032B0009568FFE49567FE741F2FF58274083EF54C
:1032C00083E0FD74B52FF58274023EF583EDF0E5E1
:1032D0006815687002156780CE9002E17403F0A350
:1032E0007401F0900AF6E0FFA3E09002E3CFF0A3B0
:1032F000EFF0756700857168E5684567602CC3E588
:10330000719568FFE49567FE743F2FF58274083E5F
:10331000F583E0FD74E52FF58274023EF583EDF050
:10332000E56815687002156780CE9003137403F08A
:10333000A37401F0900AF8E0FFA3E0900315CFF02A
:10334000A3EFF0756700857268E5684567602CC378
:10335000E5729568FFE49567FE74632FF582740843
:103360003EF583E0FD74172FF58274033EF583ED7F
:10337000F0E56815687002156780CEE4900345F0AB
:10338000A304F0900AF1E0900347F0900AF1601F67
:10339000900A5574FFF0A3744EF0A374BBF07B0148
:1033A0007A08797B12AAE89006CA7425F0801D90ED
:1033B0000A5574FFF0A3744EF0A374C1F07B017A38
:1033C00008797B12AAE89006CA7424F09006CAE035
:1033D000756700F568E5684567602E9006CAE0C32A
:1033E0009568FFE49567FE747B2FF58274083EF5BF
:1033F00083E0FD74482FF58274033EF583EDF0E51C
:103400006815687002156780CC9006CAE02448F5FC
:1034100082E43403F5837404F0900377F0A374011D
:10342000F0900B04E0FFA3E0900379CFF0A3EFF05E
:10343000756700857368E5684567602CC3E573951B
:1034400068FFE49567FE74A02FF58274083EF5834B
:10345000E0FD747B2FF58274033EF583EDF0E568A3
:1034600015687002156780CEE49003A9F0A304F0FC
:10347000900AFAE09003ABF0900AFA601F900A55A8
:1034800074FFF0A3744EF0A374BBF07B017A08794B
:10349000B612AAE89006CA7427F0801D900A5574E7
:1034A000FFF0A3744EF0A374C1F07B017A0879B6E3
:1034B00012AAE89006CA7426F09006CAE075670062
:1034C000F568E5684567602E9006CAE0C39568FF19
:1034D000E49567FE74B62FF58274083EF583E0FD2F
:1034E00074AC2FF58274033EF583EDF0E568156842
:1034F0007002156780CC9006CAE024ACF582E434F3
:1035000003F5837404F09003DB04F0A37401F090DE
:103510000AFBE0FCA3E0FDA3E0FEA3E0FF9003DDD7
:103520001272D5756700857868E5684567602CC3B9
:10353000E5789568FFE49567FE74DD2FF5827408E1
:103540003EF583E0FD74E12FF58274033EF583EDD3
:10355000F0E56815687002156780CE90040D74055B
:10356000F0A37401F0900AFFE0FCA3E0FDA3E0FEED
:10357000A3E0FF90040F1272D5756700857968E5A6
:10358000684567602CC3E5799568FFE49567FE742C
:10359000002FF58274093EF583E0FD74132FF58248
:1035A00074043EF583EDF0E56815687002156780D8
:1035B000CE90043F7402F0A314F0900B03E090044B
:1035C00041F0756700857A68E5684567602CC3E55A
:1035D0007A9568FFE49567FE741F2FF58274093EA3
:1035E000F583E0FD74422FF58274043EF583EDF01F
:1035F000E56815687002156780CE75670085746888
:10360000E5684567602CC3E5749568FFE49567FE3F
:10361000742D2FF58274093EF583E0FD74712FF54A
:103620008274043EF583EDF0E56815687002156755
:1036300080CE756700857568E5684567602CC3E5D1
:10364000759568FFE49567FE74ED2FF58274093E69
:10365000F583E0FD74072FF58274053EF583EDF0E8
:10366000E56815687002156780CE75670085776814
:10367000E5684567602CC3E5779568FFE49567FECC
:1036800074612FF58274093EF583E0FD749D2FF57A
:103690008274053EF583EDF0E568156870021567E4
:1036A00080CE756700857668E5684567602CC3E560
:1036B000769568FFE49567FE74282FF582740A3EBC
:1036C000F583E0FD74332FF58274063EF583EDF04B
:1036D000E56815687002156780CE7B017A00792352
:1036E0009006C8E0A3E014FD12B3419006C8E0FCC8
:1036F000A3E0FD2422F58274003CF583EFF07B010A
:103700007A007923E4900A57F012A36B12B88D2245
:10371000900BC7E0900B10F022900AB8E0640360B1
:1037200064E4FFFE7D807C47900BC7E0F8A3E0F9DE
:10373000A3E0FAA3E0FB126AF1126D4E900B111296
:1037400072D5E4FFFE7D807C47900BCBE0F8A3E0D0
:10375000F9A3E0FAA3E0FB126AF1126D4E900B158B
:103760001272D5E4FFFE7D807C47900BCFE0F8A37A
:10377000E0F9A3E0FAA3E0FB126AF1126D4E900BA0
:10378000191272D522E4FFFE7D807C47900BC7E0C2
:10379000F8A3E0F9A3E0FAA3E0FB126AF1126D4E80
:1037A000900B291272D5E4FFFE7D807C47900BCBF5
:1037B000E0F8A3E0F9A3E0FAA3E0FB126AF1126DCE
:1037C0004E900B2D1272D5E4FFFE7D807C47900B4E
:1037D000CFE0F8A3E0F9A3E0FAA3E0FB126AF1124C
:1037E0006D4E900B311272D522900AB8E0640360DE
:1037F00064E4FFFE7D807C47900BC7E0F8A3E0F90E
:10380000A3E0FAA3E0FB126AF1126D4E900B1D12B9
:1038100072D5E4FFFE7D807C47900BCBE0F8A3E0FF
:10382000F9A3E0FAA3E0FB126AF1126D4E900B21AE
:103830001272D5E4FFFE7D807C47900BCFE0F8A3A9
:10384000E0F9A3E0FAA3E0FB126AF1126D4E900BCF
:10385000251272D522E4FFFE7D807C47900BC7E0E5
:10386000F8A3E0F9A3E0FAA3E0FB126AF1126D4EAF
:10387000900B351272D5E4FFFE7D807C47900BCB18
:10388000E0F8A3E0F9A3E0FAA3E0FB126AF1126DFD
:103890004E900B391272D5E4FFFE7D807C47900B71
:1038A000CFE0F8A3E0F9A3E0FAA3E0FB126AF1127B
:1038B0006D4E900B3D1272D522900BC7E0600790C1
:1038C0000B437403F022E4900B43F022900BC7E00B
:1038D000900B44F022900BC7E0900B45F022E4F5EA
:1038E00067F568C3E5689403E56794004003023C0C
:1038F0008074C72568F582740B3567F583E0FF7423
:10390000462568F582740B3567F583EFF00568E5A9
:10391000687002056780CCE4F567F568C3E56894D4
:1039200003E567940040030239BFE56825E0FFE541
:103930006733FE74C72FF582740B3EF583E0FEA358
:10394000E0FFEE3395E0FDFCC004C005C006C007F3
:10395000E568AE677802C333CE33CED8F9FBAA064A
:103960002449F582740B3AF583D007D006D005D0F0
:10397000041272D574492BF582740B3AF583C08317
:10398000C082E0FCA3E0FDA3E0FEA3E0FF744625B7
:1039900068F582740B3567F583E0F9F8127288D008
:1039A00082D0831272D5746E2568F582740C3567E7
:1039B000F583E4F00568E5687002056702391CD2FA
:1039C0000D22E4F567F568C3E5689403E5679400A4
:1039D0004003023C80E568AE677802C333CE33CE45
:1039E000D8F924C7F582740B3EF583E0FCA3E0FD13
:1039F000A3E0FEA3E0FFC004C005C006C007E56861
:103A0000AE677802C333CE33CED8F92455F582742D
:103A10000B3EF583D007D006D005D0041272D50531
:103A200068E56870020567809E900BC7E0900B61A7
:103A3000F022E4F567F568C3E5689402E567940051
:103A40004003023C80E568AE677803C333CE33CED3
:103A5000D8F924C7F582740B3EF583E0FCA3E0FDA2
:103A6000A3E0FEA3E0FFC004C005C006C007E568F0
:103A7000AE677802C333CE33CED8F92462F58274B0
:103A80000B3EF583D007D006D005D0041272D5E5E1
:103A900068AE677803C333CE33CED8F924CBF58232
:103AA000740B3EF583E0FCA3E0FDA3E0FEA3E0FF82
:103AB000C004C005C006C007E568AE677802C3331E
:103AC000CE33CED8F9FBAA06246AF582740B3AF5F8
:103AD00083D007D006D005D0041272D574622BF5BE
:103AE00082740B3AF583C083C082E0FCA3E0FDA39F
:103AF000E0FEA3E0FF74462568F582740B3567F598
:103B000083E0F9F8127288D082D0831272D5E5680A
:103B1000AE677802C333CE33CED8F9246AF5827407
:103B20000B3EF583C083C082E0FCA3E0FDA3E0FE72
:103B3000A3E0FF74462568F582740B3567F583E0D2
:103B4000F9F8127288D082D0831272D50568E568C0
:103B500070020567023A37900BC7E0FCA3E0FDA3B3
:103B6000E0FEA3E0FF9006CB1272D5E4FFFEFDFC61
:103B70009006CBE0F8A3E0F9A3E0FAA3E0FBD312B0
:103B8000723A50149006CBE0FCA3E0FDA3E0FEA344
:103B9000E0FF900B761272D5900BCBE0FCA3E0FD1A
:103BA000A3E0FEA3E0FF9006CB1272D5E4FFFEFD7A
:103BB000FC9006CBE0F8A3E0F9A3E0FAA3E0FBC396
:103BC00012723A5003023C809006CBE0FCA3E0FD69
:103BD000A3E0FEA3E0FF900B7A1272D522900BC7F0
:103BE000E0FFA3E0900B41CFF0A3EFF022900BC7D2
:103BF000E0FCA3E0FDA3E0FEA3E0FF900B7F1272C8
:103C0000D522900BC7E0FFA3E0900B83CFF0A3EF8A
:103C1000F022900BC7E0FFA3E0900B85CFF0A3EF5D
:103C2000F022900BC7E0900B7EF0E4900B87F0221F
:103C3000900BC7E0FFA3E0900B91CFF0A3EFF02231
:103C4000900BC7E0900B87F0E4900B7EF022900B76
:103C5000C7E0FCA3E0FDA3E0FEA3E0FF900B881209
:103C600072D522900BC7E0FCA3E0FDA3E0FEA3E029
:103C7000FF900B8C1272D522900BC7E0900B90F046
:103C8000229005FDEBF0A3EAF0A3E9F09005FDE03A
:103C9000FBA3E0FAA3E0F8AC02AD037BFF7A4F7917
:103CA0000E127512900A5574FFF0A3744FF0A374AE
:103CB0000FF09005FDE0FBA3E0FAA3E0F912AAE8FB
:103CC000900A5574FFF0A3744FF0A37412F090059E
:103CD000FDE0FBA3E0FAA3E0F912AAE8900A55740C
:103CE000FFF0A3744FF0A37425F09005FDE0FBA353
:103CF000E0FAA3E0F912AAE8900A5574FFF0A37461
:103D00004FF0A37435F09005FDE0FBA3E0FAA3E0CB
:103D1000F912AAE8900A5574FFF0A3744FF0A37447
:103D20003BF09005FDE0FBA3E0FAA3E0F912AAE85E
:103D3000900A5574FFF0A3744FF0A37449F0900AF1
:103D400083E0FF900A58E4F0A3EFF07B017A067954
:103D50000012760C900A557401F0A37406F0A37457
:103D600000F09005FDE0FBA3E0FAA3E0F912AAE859
:103D7000900A5574FFF0A3744FF0A37452F0A3E4BB
:103D8000F0A37403F07B017A06790012760C900A96
:103D9000557401F0A37406F0A37400F09005FDE0E3
:103DA000FBA3E0FAA3E0F912AAE8900A5574FFF029
:103DB000A3744FF0A3746AF0900B04E0FFA3E090AB
:103DC0000A58CFF0A3EFF07B017A06790012760C47
:103DD000900A557401F0A37406F0A37400F09005E6
:103DE000FDE0FBA3E0FAA3E0F912AAE8900A5574FB
:103DF000FFF0A3744FF0A3747FF0900C7DE0FF9070
:103E00000A58E4F0A3EFF07B017A06790012760CF1
:103E1000900A557401F0A37406F0A37400F09005A5
:103E2000FDE0FBA3E0FAA3E0F912AAE8900A5574BA
:103E3000FFF0A3744FF0A3740FF09005FDE0FBA317
:103E4000E0FAA3E0F912AAE8900A5574FFF0A3740F
:103E50004FF0A3748FF09005FDE0FBA3E0FAA3E020
:103E6000F912AAE8900A5574FFF0A3744FF0A374F6
:103E70009CF09005FDE0FBA3E0FAA3E0F912AAE8AC
:103E8000E4F567F568C3E5689402E56764809480AB
:103E90005079900A5574FFF0A3744FF0A374AFF0FB
:103EA000E568AE677802C333CE33CED8F924BBF5CC
:103EB00082740B3EF583E0FCA3E0FDA3E0FEA3E0EB
:103EC000FF74B92568F582740A3567F583E0F9F85F
:103ED000127274900A58EEF0A3EFF07B017A067923
:103EE0000012760C900A557401F0A37406F0A374C6
:103EF00000F09005FDE0FBA3E0FAA3E0F912AAE8C8
:103F00000568E56870020567023E85900A5574FFF2
:103F1000F0A3744FF0A3740FF09005FDE0FBA3E055
:103F2000FAA3E0F912AAE8900A5574FFF0A3744FBF
:103F3000F0A374B3F07B017A06790012760C900B33
:103F4000C3E054036019900A5574FFF0A3744FF056
:103F5000A374C3F07B017A06790012AAE880179057
:103F60000A5574FFF0A3744FF0A374C9F07B017A73
:103F700006790012AAE8900A557401F0A37406F0BD
:103F8000A37400F09005FDE0FBA3E0FAA3E0F912B2
:103F9000AAE8900A5574FFF0A3744FF0A374CEF012
:103FA0009005FDE0FBA3E0FAA3E0F912AAE8900A6D
:103FB0005574FFF0A3744FF0A374E4F09005FDE096
:103FC000FBA3E0FAA3E0F912AAE8E4F567F568C3F9
:103FD000E5689403E5676480948040030240839021
:103FE0000A5574FFF0A3744FF0A374F4F0E568244D
:103FF00001900A59F0E43567900A58F0E568AE6719
:104000007802C333CE33CED8F92494F582740B3EB4
:10401000F583E0FCA3E0FDA3E0FEA3E0FF74B92577
:1040200068F582740A3567F583E0F9F812727490C6
:104030000A5AEEF0A3EFF07B017A06790012760CB3
:10404000900A557401F0A37406F0A37400F0900573
:10405000FDE0FBA3E0FAA3E0F912AAE8900A557488
:10406000FFF0A3744FF0A3740FF09005FDE0FBA3E5
:10407000E0FAA3E0F912AAE80568E56870020567AE
:10408000023FCF900A5574FFF0A3744FF0A374FD64
:10409000F0900BB7E0FCA3E0FDA3E0FEA3E0FF90EF
:1040A0000A581272D57B017A06790012760C900AB2
:1040B000557401F0A37406F0A37400F09005FDE0C0
:1040C000FBA3E0FAA3E0F912AAE8900A5574FFF006
:1040D000A3744FF0A3740FF09005FDE0FBA3E0FA8A
:1040E000A3E0F912AAE8900A5574FFF0A37450F007
:1040F000A3740FF0900BA0E0FEA3E0FFEE3395E079
:10410000FDFC900A581272D57B017A06790012766E
:104110000C900A557401F0A37406F0A37400F0909B
:1041200005FDE0FBA3E0FAA3E0F912AAE8900A5526
:1041300074FFF0A3744FF0A3740FF09005FDE0FB43
:10414000A3E0FAA3E0F912AAE8900A5574FFF0A3DD
:104150007450F0A37423F0900BA2E0FEA3E0FFEEF6
:104160003395E0FDFC900A581272D57B017A0679EE
:104170000012760C900A557401F0A37406F0A37433
:1041800000F09005FDE0FBA3E0FAA3E0F912AAE835
:10419000900A5574FFF0A3744FF0A3740FF09005CC
:1041A000FDE0FBA3E0FAA3E0F912AAE8900A557437
:1041B000FFF0A37450F0A37437F09005FDE0FBA36B
:1041C000E0FAA3E0F912AAE8900A5574FFF0A3748C
:1041D00050F0A3744DF09005FDE0FBA3E0FAA3E0DE
:1041E000F912AAE8900AB8E0640370030242F19061
:1041F0000A5574FFF0A37450F0A3745FF0900A8422
:10420000E0FCA3E0FDA3E0FEA3E0FFEC126D10E4F0
:10421000FBFA79807847126BFA900A581272D57BB4
:10422000017A06790012760C900A557401F0A37495
:1042300006F0A37400F09005FDE0FBA3E0FAA3E014
:10424000F912AAE8900A5574FFF0A37450F0A37411
:1042500069F0900A88E0FCA3E0FDA3E0FEA3E0FF84
:10426000EC126D10E4FBFA79807847126BFA900A31
:10427000581272D57B017A06790012760C900A5595
:104280007401F0A37406F0A37400F09005FDE0FB48
:10429000A3E0FAA3E0F912AAE8900A5574FFF0A38C
:1042A0007450F0A37473F0900A8CE0FCA3E0FDA3BB
:1042B000E0FEA3E0FFEC126D10E4FBFA7980784792
:1042C000126BFA900A581272D57B017A06790012A5
:1042D000760C900A557401F0A37406F0A37400F0F4
:1042E0009005FDE0FBA3E0FAA3E0F912AAE802437F
:1042F000F0900A5574FFF0A37450F0A3745FF0902F
:104300000A9CE0FCA3E0FDA3E0FEA3E0FFEC126D3D
:1043100010E4FBFA79807847126BFA900A5812720F
:10432000D57B017A06790012760C900A557401F05B
:10433000A37406F0A37400F09005FDE0FBA3E0FA7F
:10434000A3E0F912AAE8900A5574FFF0A37450F0A4
:10435000A37469F0900AA0E0FCA3E0FDA3E0FEA333
:10436000E0FFEC126D10E4FBFA79807847126BFAEB
:10437000900A581272D57B017A06790012760C9059
:104380000A557401F0A37406F0A37400F09005FDC3
:10439000E0FBA3E0FAA3E0F912AAE8900A5574FF43
:1043A000F0A37450F0A37473F0900AA4E0FCA3E0AF
:1043B000FDA3E0FEA3E0FFEC126D10E4FBFA7980B0
:1043C0007847126BFA900A581272D57B017A0679F7
:1043D0000012760C900A557401F0A37406F0A374D1
:1043E00000F09005FDE0FBA3E0FAA3E0F912AAE8D3
:1043F000900A5574FFF0A37450F0A3747DF09005FB
:10440000FDE0FBA3E0FAA3E0F912AAE8900AB8E005
:1044100064037003024519900A5574FFF0A37450A9
:10442000F0A3745FF0900A90E0FCA3E0FDA3E0FE2F
:10443000A3E0FFEC126D10E4FBFA79807847126B71
:10444000FA900A581272D57B017A06790012760C1E
:10445000900A557401F0A37406F0A37400F090055F
:10446000FDE0FBA3E0FAA3E0F912AAE8900A557474
:10447000FFF0A37450F0A37469F0900A94E0FCA3D9
:10448000E0FDA3E0FEA3E0FFEC126D10E4FBFA797F
:10449000807847126BFA900A581272D57B017A061F
:1044A000790012760C900A557401F0A37406F0A3FB
:1044B0007400F09005FDE0FBA3E0FAA3E0F912AA76
:1044C000E8900A5574FFF0A37450F0A37473F09051
:1044D0000A98E0FCA3E0FDA3E0FEA3E0FFEC126D70
:1044E00010E4FBFA79807847126BFA900A5812723E
:1044F000D57B017A06790012760C900A557401F08A
:10450000A37406F0A37400F09005FDE0FBA3E0FAAD
:10451000A3E0F912AAE8024618900A5574FFF0A326
:104520007450F0A3745FF0900AA8E0FCA3E0FDA330
:10453000E0FEA3E0FFEC126D10E4FBFA798078470F
:10454000126BFA900A581272D57B017A0679001222
:10455000760C900A557401F0A37406F0A37400F071
:104560009005FDE0FBA3E0FAA3E0F912AAE8900AA7
:104570005574FFF0A37450F0A37469F0900AACE096
:10458000FCA3E0FDA3E0FEA3E0FFEC126D10E4FB52
:10459000FA79807847126BFA900A581272D57B012B
:1045A0007A06790012760C900A557401F0A374060D
:1045B000F0A37400F09005FDE0FBA3E0FAA3E0F99E
:1045C00012AAE8900A5574FFF0A37450F0A3747314
:1045D000F0900AB0E0FCA3E0FDA3E0FEA3E0FFEC56
:1045E000126D10E4FBFA79807847126BFA900A5842
:1045F0001272D57B017A06790012760C900A5574F6
:1046000001F0A37406F0A37400F09005FDE0FBA395
:10461000E0FAA3E0F912AAE8900A5574FFF0A37437
:104620004FF0A3740FF09005FDE0FBA3E0FAA3E0C8
:10463000F912AAE8900AB6E0B4031E900A5574FF76
:10464000F0A37450F0A37497F09005FDE0FBA3E095
:10465000FAA3E0F912AAE8801C900A5574FFF0A3AF
:104660007450F0A374B1F09005FDE0FBA3E0FAA351
:10467000E0F912AAE8900AB7E014602104703A90B9
:104680000A5574FFF0A37450F0A374CAF09005FDAE
:10469000E0FBA3E0FAA3E0F912AAE8801C900A5517
:1046A00074FFF0A37450F0A374DCF09005FDE0FB00
:1046B000A3E0FAA3E0F912AAE8900A5574FFF0A368
:1046C0007450F0A374F3F09005FDE0FBA3E0FAA3AF
:1046D000E0F912AAE8900AB8E014602814604314C4
:1046E000605E24037076900A5574FFF0A37451F055
:1046F000A37402F09005FDE0FBA3E0FAA3E0F91239
:10470000AAE88058900A5574FFF0A37451F0A3747E
:104710000DF09005FDE0FBA3E0FAA3E0F912AAE892
:10472000803A900A5574FFF0A37451F0A37413F00B
:104730009005FDE0FBA3E0FAA3E0F912AAE8801CD3
:10474000900A5574FFF0A37451F0A3741DF0900506
:10475000FDE0FBA3E0FAA3E0F912AAE8900A557481
:10476000FFF0A37451F0A37434F09005FDE0FBA3B7
:10477000E0FAA3E0F912AAE8E4F567F568C3E56892
:104780009403E56764809480507F900A5574FFF02D
:10479000A3744FF0A374F4F0E5682401900A59F073
:1047A000E43567900A58F074B92568F582740A35C3
:1047B00067F583E0FF900A5AE4F0A3EFF07B017AFB
:1047C00006790012760C900A557401F0A37406F075
:1047D000A37400F09005FDE0FBA3E0FAA3E0F9125A
:1047E000AAE8900A5574FFF0A3744FF0A3740FF079
:1047F0009005FDE0FBA3E0FAA3E0F912AAE8056842
:10480000E5687002056702477D900A5574FFF0A3C2
:104810007451F0A37449F09005FDE0FBA3E0FAA306
:10482000E0F912AAE8E4F567F568C3E5689403E5E2
:10483000676480948040030248DC900A5574FFF05E
:10484000A37451F0A3745FF0E5682401900A59F055
:10485000E43567900A58F0E568AE677802C333CE56
:1048600033CED8F924BCF582740A3EF583E0FCA36C
:10487000E0FDA3E0FEA3E0FF74B92568F582740AA9
:104880003567F583E0F9F8127274900A5A1272D5FE
:104890007B017A06790012760C900A557401F0A318
:1048A0007406F0A37400F09005FDE0FBA3E0FAA30A
:1048B000E0F912AAE8900A5574FFF0A3744FF0A330
:1048C000740FF09005FDE0FBA3E0FAA3E0F912AA53
:1048D000E80568E5687002056702482A900A557481
:1048E000FFF0A37451F0A37469F09005FDE0FBA301
:1048F000E0FAA3E0F912AAE8E4F567F568C3E56811
:104900009403E56764809480400302499D900A55B2
:1049100074FFF0A37451F0A37483F0E56824019050
:104920000A59F0E43567900A58F0E568AE677802F6
:10493000C333CE33CED8F924C8F582740A3EF5834A
:10494000E0FCA3E0FDA3E0FEA3E0FF900A5A127290
:10495000D57B017A06790012760C900A557401F025
:10496000A37406F0A37400F09005FDE0FBA3E0FA49
:10497000A3E0F912AAE8900A5574FFF0A3744FF06F
:10498000A3740FF09005FDE0FBA3E0FAA3E0F91299
:10499000AAE80568E568700205670248FD900A55B7
:1049A00074FFF0A37451F0A3748CF09005FDE0FB4C
:1049B000A3E0FAA3E0F912AAE8900A5574FFF0A365
:1049C0007451F0A374C2F0900AF2E0FCA3E0FDA3DE
:1049D000E0FEA3E0FF900A581272D57B017A0679B7
:1049E0000012760C900A557401F0A37406F0A374BB
:1049F00000F09005FDE0FBA3E0FAA3E0F912AAE8BD
:104A0000900A5574FFF0A3744FF0A3740FF0900553
:104A1000FDE0FBA3E0FAA3E0F912AAE8900A5574BE
:104A2000FFF0A37451F0A374C5F09005FDE0FBA363
:104A3000E0FAA3E0F912AAE8900A5574FFF0A37413
:104A400051F0A374D8F0900AF6E0FFA3E0900A5862
:104A5000CFF0A3EFF07B017A06790012760C900A72
:104A6000557401F0A37406F0A37400F09005FDE006
:104A7000FBA3E0FAA3E0F912AAE8900A5574FFF04C
:104A8000A3744FF0A3740FF09005FDE0FBA3E0FAD0
:104A9000A3E0F912AAE8900A5574FFF0A37451F04C
:104AA000A374DCF09005FDE0FBA3E0FAA3E0F912AB
:104AB000AAE8900A5574FFF0A37451F0A374D8F0DB
:104AC000900AF8E0FFA3E0900A58CFF0A3EFF07B44
:104AD000017A06790012760C900A557401F0A374DD
:104AE00006F0A37400F09005FDE0FBA3E0FAA3E05C
:104AF000F912AAE8900A5574FFF0A37451F0A37458
:104B0000E8F09005FDE0FBA3E0FAA3E0F912AAE8C3
:104B1000900A5574FFF0A37451F0A374ECF0900B5D
:104B200061E0FF900A58E4F0A3EFF07B017A067988
:104B30000012760C900A557401F0A37406F0A37469
:104B400000F09005FDE0FBA3E0FAA3E0F912AAE86B
:104B5000900A5574FFF0A3744FF0A3740FF0900502
:104B6000FDE0FBA3E0FAA3E0F912AAE8E4F567F59B
:104B700068C3E5689402E567648094804003024C52
:104B800073900A5574FFF0A37452F0A37406F0E515
:104B9000682401900A59F0E43567900A58F0E568F6
:104BA000AE677802C333CE33CED8F92462F582746F
:104BB0000B3EF583E0FCA3E0FDA3E0FEA3E0FF7461
:104BC000462568F582740B3567F583E0F9F81272B3
:104BD00074900A5A1272D57B017A06790012760C0B
:104BE000900A557401F0A37406F0A37400F09005C8
:104BF000FDE0FBA3E0FAA3E0F912AAE8900A5574DD
:104C0000FFF0A37452F0A3742CF0E568AE6778024D
:104C1000C333CE33CED8F9246AF582740B3EF583C4
:104C2000E0FCA3E0FDA3E0FEA3E0FF74462568F5E9
:104C300082740B3567F583E0F9F8127274900A58A4
:104C40001272D57B017A06790012760C900A55749F
:104C500001F0A37406F0A37400F09005FDE0FBA33F
:104C6000E0FAA3E0F912AAE80568E56870020567B2
:104C7000024B71900A5574FFF0A37452F0A374397B
:104C8000F0900B72E0FEA3E0FF900B46E0FDEFA872
:104C900005088006CEA2E713CE13D8F8FF900A5875
:104CA000EEF0A3EFF07B017A06790012760C900A01
:104CB000557401F0A37406F0A37400F09005FDE0B4
:104CC000FBA3E0FAA3E0F912AAE8900A5574FFF0FA
:104CD000A3744FF0A3740FF09005FDE0FBA3E0FA7E
:104CE000A3E0F912AAE8900A5574FFF0A37452F0F9
:104CF000A3744BF0900B41E0FFA3E0900A58CFF073
:104D0000A3EFF07B017A06790012760C900A5574B5
:104D100001F0A37406F0A37400F09005FDE0FBA37E
:104D2000E0FAA3E0F912AAE8900A5574FFF0A37420
:104D30004FF0A3740FF09005FDE0FBA3E0FAA3E0B1
:104D4000F912AAE8900AF1E0601E900A5574FFF08B
:104D5000A37452F0A3745DF09005FDE0FBA3E0FAAC
:104D6000A3E0F912AAE8801C900A5574FFF0A3741E
:104D700052F0A37484F09005FDE0FBA3E0FAA3E0F9
:104D8000F912AAE8900AFAE0601E900A5574FFF042
:104D9000A37452F0A374AAF09005FDE0FBA3E0FA1F
:104DA000A3E0F912AAE8801C900A5574FFF0A374DE
:104DB00052F0A374DAF09005FDE0FBA3E0FAA3E063
:104DC000F912AAE8300C1E900A5574FFF0A3745330
:104DD000F0A37409F09005FDE0FBA3E0FAA3E0F96D
:104DE00012AAE8801C900A5574FFF0A37453F0A334
:104DF0007424F09005FDE0FBA3E0FAA3E0F912AA09
:104E0000E8300B1E900A5574FFF0A37453F0A3749E
:104E10003EF09005FDE0FBA3E0FAA3E0F912AAE85A
:104E2000801C900A5574FFF0A37453F0A37462F0D1
:104E30009005FDE0FBA3E0FAA3E0F912AAE8900ACE
:104E40005574FFF0A37453F0A37485F0900BB3E096
:104E5000F8A3E0F9A3E0FAA3E0FB900C52E0FCA376
:104E6000E0FDA3E0FEA3E0C39BFFEE9AFEED99FDFB
:104E7000EC98FC900A581272D57B017A06790012E0
:104E8000760C900A557401F0A37406F0A37400F038
:104E90009005FDE0FBA3E0FAA3E0F912AAE8900A6E
:104EA0005574FFF0A3744FF0A3740FF09005FDE06C
:104EB000FBA3E0FAA3E0F912AAE822205945530027
:104EC00000204E4F000020557362000020456E63A5
:104ED0006F6465722033000020506F736974696FCE
:104EE0006E00002050574D00002043757272656EB1
:104EF00074000020506F736974696F6E20616E6476
:104F00002063757272656E74000020256400000DC8
:104F10000A004669726D7761726520766572736901
:104F20006F6E3A200043554646204D4F442076365A
:104F30002E312E31002E0D0A0D0A004445564943EC
:104F40004520494E464F0D0A0049443A2025640D3C
:104F50000A004E756D626572206F662073656E7310
:104F60006F72733A2025640D0A00537570706C7966
:104F70002074656E73696F6E3A2025640D0A0050C7
:104F8000574D204C696D69743A2025640D0A004D17
:104F90004F544F5220494E464F0D0A004D6F746FCB
:104FA00072207265666572656E6365733A200025CE
:104FB0006420004D6F746F7220656E61626C656471
:104FC0003A20005945530D0A004E4F0D0A000D0AB4
:104FD0004D4541535552454D454E545320494E463B
:104FE0004F0D0A0053656E736F722076616C7565A4
:104FF0003A0D0A002564202D3E20256400566F6C72
:105000007461676520286D56293A20256C64004339
:10501000757272656E74203120286D41293A202501
:105020006C640043757272656E74203220286D4185
:10503000293A20256C64000D0A4445564943452011
:10504000504152414D45544552530D0A0050494478
:1050500020436F6E74726F6C6C65723A0D0A00506B
:10506000202D3E2025660D0A0049202D3E20256674
:105070000D0A0044202D3E2025660D0A004375725E
:1050800072656E742050494420436F6E74726F6C69
:105090006C65723A0D0A0053746172747570206108
:1050A000637469766174696F6E3A205945530D0ACD
:1050B00000537461727475702061637469766174F1
:1050C000696F6E3A204E4F0D0A00496E707574205C
:1050D0006D6F64653A205553420D0A00496E707534
:1050E00074206D6F64653A2053656E736F72203360
:1050F0000D0A00436F6E74726F6C204D6F64653AD9
:105100002000506F736974696F6E0D0A0050574D1F
:105110000D0A0043757272656E740D0A00506F734C
:105120006974696F6E20616E642063757272656E5A
:10513000740D0A0053656E736F72207265736F6C25
:105140007574696F6E3A0D0A004D6561737572650D
:105150006D656E74204F66667365743A0D0A00259E
:1051600064202D3E20256C64004D65617375726569
:105170006D656E74204D756C7469706C6965723AFA
:105180000D0A002564202D3E202566000A43757215
:1051900072656E7420636F6E74726F6C6C657227CB
:1051A0007320706172616D65746572733A0A507232
:1051B0006F706F7274696F6E616C206761696E3AAF
:1051C000200025660053617475726174696F6E20EA
:1051D00076616C75653A20002568640044656164F9
:1051E000207A6F6E653A20000D0A0A00506F7369CD
:1051F00074696F6E206C696D69742061637469767F
:10520000653A20256400506F736974696F6E206C75
:10521000696D6974206D6F746F722025643A20691E
:105220006E66202D3E20256C642020007375702052
:105230002D3E20256C640D0A004D61782073746941
:1052400066666E6573733A202564004375727265F5
:105250006E74206C696D69743A202564004375662C
:10526000662073746172747570206163746976610D
:1052700074696F6E2028666F726365293A205945FC
:10528000530D0A00437566662073746172747570FD
:105290002061637469766174696F6E2028666F722D
:1052A0006365293A204E4F0D0A00437566662073E8
:1052B0007461727475702061637469766174696F6A
:1052C0006E202870726F7072696F63657074696F99
:1052D0006E293A205945530D0A00437566662073BE
:1052E0007461727475702061637469766174696F3A
:1052F0006E202870726F7072696F63657074696F69
:105300006E293A204E4F0D0A004375666620616390
:10531000746976652028666F726365293A2059455D
:10532000530D0A00437566662061637469766520D3
:1053300028666F726365293A204E4F0D0A00437547
:10534000666620616374697665202870726F70727A
:10535000696F63657074696F6E293A205945530D02
:105360000A0043756666206163746976652028705B
:10537000726F7072696F63657074696F6E293A201D
:105380004E4F0D0A0064656275673A20256C640013
:10539000000000000000000000000000000000000D
:1053A00000000000000000000000000000000000FD
:1053B00000000000000000000000000000000000ED
:1053C00000000000000000000000000000000000DD
:105A3000000000000031202D204465766963652058
:105A400049443A0032202D20506F736974696F6E9B
:105A500020504944205B502C20492C20445D3A00C2
:105A600033202D2043757272656E74205049442096
:105A70005B502C20492C20445D3A0034202D2053CB
:105A80007461727475702041637469766174696FB2
:105A90006E3A000000000035202D20496E707574AC
:105AA000206D6F64653A00000000000000000000F7
:105AB000000036202D20436F6E74726F6C206D6F66
:105AC00064653A00000000000000000000000000D3
:105AD00000000000000000000037202D20526573F8
:105AE0006F6C7574696F6E733A00000000000000FF
:105AF00038202D204D6561737572656D656E74205B
:105B00004F6666736574733A0039202D204D756CAD
:105B10007469706C696572733A003130202D2050C1
:105B20006F732E206C696D6974206163746976658A
:105B30003A00000000003131202D20506F732E20DC
:105B40006C696D697473205B696E662C2073757067
:105B50005D3A003132202D204D61782073746570DC
:105B600073205B6E65672C20706F735D3A00313374
:105B7000202D2043757272656E74206C696D697496
:105B80003A003134202D2043757272656E74207096
:105B9000726F706F7274696F6E616C206761696E8D
:105BA0003A003135202D2043757272656E74206481
:105BB0006966666572656E6365207361747572618E
:105BC00074696F6E3A003136202D2043757272650C
:105BD0006E742064656164207A6F6E653A003137B7
:105BE000202D20437566662061637469766174694F
:105BF0006F6E20666C616720666F7263653A0000A5
:105C00000000003138202D20506F776572207465B8
:105C10006E73696F6E3A0000003139202D20437594
:105C200066662061637469766174696F6E20666C64
:105C300061672070726F7072696F3A000000000037
:105C40003230202D204D617820736C696465206DA1
:105C50006F76656D656E74202870726F7072696FF3
:105C6000293A003231202D204D617820534820639D
:105C70006C6F73757265202870726F7072696F290E
:105C80003A003232202D2048616E642049443A00A7
:105C900030202D3E205573620A31202D3E2053685E
:105CA000616674277320706F736974696F6E206307
:105CB0006F6E74726F6C7320746865206D6F746F93
:105CC00072730A0030202D3E205B31207475726E95
:105CD0005D0A31202D3E205B32207475726E735D3B
:105CE0000A32202D3E205B34207475726E735D0A7B
:105CF00033202D3E205B38207475726E735D0A343C
:105D0000202D3E205B3136207475726E735D0A352E
:105D1000202D3E205B3332207475726E5D0A362072
:105D20002D3E205B3634207475726E5D0A37202D4F
:105D30003E205B313238207475726E735D0A3820F4
:105D40002D3E205B323536207475726E735D0A000D
:105D500030202D3E20506F736974696F6E0A3120B8
:105D60002D3E2050574D0A32202D3E204375727231
:105D7000656E740A33202D3E20506F736974696F0D
:105D80006E2D43757272656E740A0030202D3E20B0
:105D900044656163746976617465205B4E4F5D0A8A
:105DA00031202D3E204163746976617465205B5912
:105DB00045535D0A008F23E4F52BF52AF529F528D4
:105DC000900A84E0FCA3E0FDA3E0FEA3E0F5378E9B
:105DD000368D358C34A3E0FCA3E0FDA3E0FEA3E008
:105DE000F53B8E3A8D398C38A3E0FCA3E0FDA3E0AF
:105DF000FEA3E0F53F8E3E8D3D8C3CA3E0FCA3E08E
:105E0000FDA3E0FEA3E0F5438E428D418C40A3E06C
:105E1000FCA3E0FDA3E0FEA3E0F5478E468D458C94
:105E200044A3E0FCA3E0FDA3E0FEA3E0F54B8E4A13
:105E30008D498C48A3E0FCA3E0FDA3E0FEA3E0F5C0
:105E40004F8E4E8D4D8C4CA3E0FCA3E0FDA3E0FEF5
:105E5000A3E0F5538E528D518C50A3E0FCA3E0FDDE
:105E6000A3E0FEA3E0F5578E568D558C54A3E0FCBD
:105E7000A3E0FDA3E0FEA3E0F55B8E5A8D598C589C
:105E8000A3E0FCA3E0FDA3E0FEA3E0F55F8E5E8D42
:105E90005D8C5CA3E0FCA3E0FDA3E0FEA3E0F56362
:105EA0008E628D618C60E523C394024003026AF028
:105EB000900AB8E014700302693714700302666731
:105EC000147003026177240360030269A1E52325AE
:105ED000E025E0245EF582E4340CF583E0F8A3E0ED
:105EE000F9A3E0FAA3E0FBE52325E025E02406F58D
:105EF00082E4340BF583E0FCA3E0FDA3E0FEA3E025
:105F0000C39BF52FEE9AF52EED99F52DEC98F52C17
:105F1000300F05C20F129651E52325E025E0240C31
:105F2000F582E4340DF583C083C082E0FCA3E0FD7C
:105F3000A3E0FEA3E0252FFFEE352EFEED352DFD6F
:105F4000EC352CFCD082D0831272D5E52325E025D8
:105F5000E0240CF582E4340DF583E0FCA3E0FDA31E
:105F6000E0FEA3E0FF7BA07A8679017800C312727D
:105F70003A501C7FA07E867D017C00E52325E0252C
:105F8000E0240CF582E4340DF5831272D58042E5ED
:105F90002325E025E0240CF582E4340DF583E0FCB4
:105FA000A3E0FDA3E0FEA3E0FF7B607A7979FE78B1
:105FB000FFD312723A401A7F607E797DFE7CFFE546
:105FC0002325E025E0240CF582E4340DF5831272DC
:105FD000D5300F05C20F129651E4F52BF52AF5299D
:105FE000F528FFFEFDFCAB37AA36A935A834C3124D
:105FF000723A606AE4FFFE7D02FCAB2FAA2EA92D47
:10600000A82CD312723A500FE4FFFE7DFE7CFFA84D
:106010002CC312723A5027AF2FAE2EAD2DAC2C7878
:1060200008127274AB37AA36A935A83412710278F7
:10603000081272748F2B8E2A8D298C288020AF2F06
:10604000AE2EAD2DAC2CAB37AA36A935A8341271C3
:106050000278101272748F2B8E2A8D298C28300FA3
:1060600005C20F129651E4FFFEFDFCAB3BAA3AA914
:1060700039A838C312723A6043AF3BAE3AAD39AC7F
:10608000387806127274E52325E025E0240CF582A9
:10609000E4340DF583E0F8A3E0F9A3E0FAA3E0FB14
:1060A000127102780A127274E52B2FF52BE52A3E45
:1060B000F52AE5293DF529E5283CF528E4FFFEFD14
:1060C000FCAB3FAA3EA93DA83CC312723A6063E50F
:1060D0002325E025E0245EF582E4340CF583E0F826
:1060E000A3E0F9A3E0FAA3E0FBE52325E025E02403
:1060F00094F582E4340BF583E0FCA3E0FDA3E0FE1D
:10610000A3E0C39BFFEE9AFEED99FDEC98FCAB3F3C
:10611000AA3EA93DA83C1271027810127274E52BB8
:106120002FF52BE52A3EF52AE5293DF529E5283C02
:10613000F528300F05C20F129651E523701CFFFEA3
:10614000FDFCAB2BAA2AA929A828C312723A400544
:10615000D2110269A1C2110269A1E4FFFEFDFCABEC
:106160002BAA2AA929A828C312723A4005D21202E2
:1061700069A1C2120269A1E52325E025E0245EF5AC
:1061800082E4340CF583E0F8A3E0F9A3E0FAA3E09D
:10619000FBE52325E025E02406F582E4340BF583B6
:1061A000E0FCA3E0FDA3E0FEA3E0C39BF52FEE9A85
:1061B000F52EED99F52DEC98F52CE52325E025E05D
:1061C000240CF582E4340DF583C083C082E0FCA387
:1061D000E0FDA3E0FEA3E0252FFFEE352EFEED351A
:1061E0002DFDEC352CFCD082D0831272D5300F05FA
:1061F000C20F129651E52325E025E0240CF582E438
:10620000340DF583E0FCA3E0FDA3E0FEA3E0FF7BFB
:10621000A07A8679017800C312723A501C7FA07E62
:10622000867D017C00E52325E025E0240CF582E451
:10623000340DF5831272D58042E52325E025E02454
:106240000CF582E4340DF583E0FCA3E0FDA3E0FE51
:10625000A3E0FF7B607A7979FE78FFD312723A402F
:106260001A7F607E797DFE7CFFE52325E025E02412
:106270000CF582E4340DF5831272D5E4F527F5268A
:10628000F525F524300F05C20F129651E4FFFEFDEF
:10629000FCAB4FAA4EA94DA84CC312723A6026AF70
:1062A0002FAE2EAD2DAC2CA84C12710278101272AC
:1062B00074E5272FF527E5263EF526E5253DF5254E
:1062C000E5243CF524E4FFFEFDFCAB53AA52A951A2
:1062D000A850C312723A6038E52325E025E0240C6B
:1062E000F582E4340DF583E0FCA3E0FDA3E0FEA31A
:1062F000E0FFA8501271027810127274E5272FF592
:1063000027E5263EF526E5253DF525E5243CF52443
:10631000E4FFFEFDFCAB57AA56A955A854C3127260
:106320003A6063E52325E025E0245EF582E4340C41
:10633000F583E0F8A3E0F9A3E0FAA3E0FBE5232569
:10634000E025E02494F582E4340BF583E0FCA3E03F
:10635000FDA3E0FEA3E0C39BFFEE9AFEED99FDECEA
:1063600098FCAB57AA56A955A8541271027810127E
:106370007274E5272FF527E5263EF526E5253DF540
:1063800025E5243CF524300F05C20F129651900AE2
:10639000B4E0FEA3E0FFEE3395E0FDFCAB27AA26B8
:1063A000A925A824D312723A4016900AB4E0FEA39D
:1063B000E0FFEE3395E08F278E26F525F524803C0F
:1063C000900AB4E0FEA3E0FFC3E49FFFE49EFE3327
:1063D00095E0FDFCAB27AA26A925A824C312723A92
:1063E000501A900AB4E0FEA3E0FFC3E49FFFE49ECE
:1063F000FE3395E08F278E26F525F524300F05C254
:106400000F129651E52325E0246AF582E4340CF559
:1064100083E0FEA3E0FFFBAA06EA3395E0F9F8C3A8
:10642000E5279BF533E5269AF532E52599F531E523
:106430002498F530E52325E025E02414F582E434A2
:106440000DF583C083C082E0FCA3E0FDA3E0FEA3C2
:10645000E02533FFEE3532FEED3531FDEC3530FC15
:10646000D082D0831272D5E52325E025E02414F5EF
:1064700082E4340DF583E0FCA3E0FDA3E0FEA3E09D
:10648000FF7BA07A8679017800C312723A501C7F94
:10649000A07E867D017C00E52325E025E02414F51F
:1064A00082E4340DF5831272D58042E52325E02580
:1064B000E02414F582E4340DF583E0FCA3E0FDA3B1
:1064C000E0FEA3E0FF7B607A7979FE78FFD3127259
:1064D0003A401A7F607E797DFE7CFFE52325E0252A
:1064E000E02414F582E4340DF5831272D5300F05E3
:1064F000C20F129651E4F52BF52AF529F528FFFE77
:10650000FDFCAB5BAA5AA959A858C312723A60267F
:10651000AF33AE32AD31AC30A858127102781012E0
:106520007274E52B2FF52BE52A3EF52AE5293DF57A
:1065300029E5283CF528E4FFFEFDFCAB5FAA5EA937
:106540005DA85CC312723A6038E52325E025E0249B
:1065500014F582E4340DF583E0FCA3E0FDA3E0FE36
:10656000A3E0FFA85C1271027810127274E52B2F61
:10657000F52BE52A3EF52AE5293DF529E5283CF5E8
:1065800028E4FFFEFDFCAB63AA62A961A860C31208
:10659000723A6064E52325E0246AF582E4340CF560
:1065A00083E0FEA3E0FFFBAA06EA3395E0F9F8E5F5
:1065B0002325E025E02404F582E4340DF583E0FC96
:1065C000A3E0FDA3E0FEA3E0C39BFFEE9AFEED99DE
:1065D000FDEC98FCAB63AA62A961A8601271027815
:1065E00010127274E52B2FF52BE52A3EF52AE529CA
:1065F0003DF529E5283CF528E52325E0246AF582C8
:10660000E4340CF583E0FEA3E0FFEE3395E0FDFCFF
:10661000E52325E025E02404F582E4340DF583121A
:1066200072D5300F05C20F129651E523701CFFFE84
:10663000FDFCAB2BAA2AA929A828C312723A40054F
:10664000D2110269A1C2110269A1E4FFFEFDFCABF7
:106650002BAA2AA929A828C312723A4005D21202ED
:1066600069A1C2120269A1E52325E025E02406F50F
:1066700082E4340BF583E0FCA3E0FDA3E0FEA3E09D
:10668000FF74462523F582E4340BF583E0F9F81214
:1066900072748F278E268D258C24900AB4E0FEA379
:1066A000E0FFEE3395E0FDFCAB27AA26A925A82440
:1066B000D312723A4014900AB4E0FEA3E0FFEE3326
:1066C00095E08F278E26F525F524AE26AF2712B943
:1066D000E6E52325E0246AF582E4340CF583E0FC4A
:1066E000A3E0FDC3EF9DFFEE9CFE3395E08F338E5C
:1066F00032F531F530E52325E025E02414F582E478
:10670000340DF583C083C082E0FCA3E0FDA3E0FE6E
:10671000A3E02533FFEE3532FEED3531FDEC3530AB
:10672000FCD082D0831272D5E52325E025E0241425
:10673000F582E4340DF583E0FCA3E0FDA3E0FEA3C5
:10674000E0FF7BA07A8679017800C312723A501C70
:106750007FA07E867D017C00E52325E025E02414D2
:10676000F582E4340DF5831272D5803CE52325E0F3
:1067700025E02414F582E4340DF583E0FCA3E0FD6C
:10678000A3E0FEA3E0FFE4FBFAF9F8D312723A406B
:1067900017E4FFFEFDFCE52325E025E02414F58247
:1067A000E4340DF5831272D5E4F52BF52AF529F5BD
:1067B00028FFFEFDFCAB43AA42A941A840C31272C8
:1067C0003A602CAF33AE32AD31AC30AB37AA36A91C
:1067D00035A8341271027810127274E52B2FF52B44
:1067E000E52A3EF52AE5293DF529E5283CF528E48A
:1067F000FFFEFDFCAB47AA46A945A844C312723A66
:10680000603DE52325E025E02414F582E4340DF510
:1068100083E0FCA3E0FDA3E0FEA3E0FF7806127294
:1068200074A844127102780A127274E52B2FF52BAA
:10683000E52A3EF52AE5293DF529E5283CF528E439
:10684000FFFEFDFCAB4BAA4AA949A848C312723A05
:106850006064E52325E0246AF582E4340CF583E0E6
:10686000FEA3E0FFFBAA06EA3395E0F9F8E523254D
:10687000E025E02404F582E4340DF583E0FCA3E098
:10688000FDA3E0FEA3E0C39BFFEE9AFEED99FDECB5
:1068900098FCAB4BAA4AA949A84812710278101279
:1068A0007274E52B2FF52BE52A3EF52AE5293DF5F7
:1068B00029E5283CF528E4FFFEFDFCAB2BAA2AA91C
:1068C00029A828C312723A5009E4F52BF52AF529B4
:1068D000F528E52325E0246AF582E4340CF583E00D
:1068E000FEA3E0FFEE3395E0FDFCE52325E025E087
:1068F0002404F582E4340DF5831272D5E523701C6F
:10690000FFFEFDFCAB2BAA2AA929A828C312723AC4
:106910004005D2110269A1C2110269A1E4FFFEFD86
:10692000FCAB2BAA2AA929A828C312723A4004D288
:1069300012806EC212806AE52325E025E02406F568
:1069400082E4340BF583E0FCA3E0FDA3E0FEA3E0CA
:10695000FF74462523F582E4340BF583E0F9F81241
:1069600072748F2B8E2A8D298C28E523701AFFFED6
:10697000FDFCAB2BAA2AA929A828C312723A40040D
:10698000D211801DC2118019E4FFFEFDFCAB2BAAC1
:106990002AA929A828C312723A4004D2128002C23E
:1069A00012300F05C20F129651E47F64FEFDFCAB5E
:1069B0002BAA2AA929A828D312723A400AE4752BD7
:1069C00064F52AF529F52874FF7F9CFEFDFCAB2BAE
:1069D000AA2AA929A828C312723A500B74FF752B52
:1069E0009CF52AF529F528300F05C20F1296519013
:1069F0000AB8E064016037AF2BAE2AAD29AC287825
:106A00000A127288E47B64FAF9F812AFDAA804A9D2
:106A100005AA06AB07900C7DE0FFE4FCFDFE1271B9
:106A200002780A1272748F2B8E2A8D298C283011CD
:106A3000113012077F0312BB7480167F0112BB74E2
:106A4000800F3012077F0212BB748005E4FF12BB77
:106A500074300F05C20F129651E5237046FFFEFDFC
:106A6000FCAB2BAA2AA929A828D312723A40067E89
:106A7000007F01801DE4FFFEFDFCAB2BAA2AA929A3
:106A8000A828C312723A50067EFF7FFF80047E0062
:106A90007F00900C5CEFF0AE2AAF2B12B9E612BB70
:106AA000028045E4FFFEFDFCAB2BAA2AA929A828F9
:106AB000D312723A40067E007F01801DE4FFFEFD86
:106AC000FCAB2BAA2AA929A828C312723A50067E29
:106AD000FF7FFF80047E007F00900C5DEFF0AE2A08
:106AE000AF2B12B9E612BB08300F05C20F12965138
:106AF00022EC4D6011E8497017ED33EC3304600D62
:106B0000E4FCFFFEFD22E933E8330470F8026DBABD
:106B1000126D8558046009E4CC2481500628500980
:106B2000026DC4284003026DC1C0E0EB4A7044B955
:106B30008006D0E0FB026DB0EF4E701CBD8008EB0C
:106B4000FFEAFEE9FD80EBE98DF0A4FEE5F0026BC3
:106B5000DAE9CDF9EAFEEBFFEF89F0A4FCE5F0CE2F
:106B600089F0A42EFFE435F0CD89F0A42DFEE435A4
:106B7000F08067EF4E7005BD80D780C3EF8BF0A427
:106B8000ACF0EE8BF0A42CFCE435F0F8EF8AF0A426
:106B90002CE5F038FCE433CB8DF0A42CFCE5F03B85
:106BA000F8EE8AF0A42CFCE5F038F8E433CF89F055
:106BB000A42CFCE5F038CF3400CE89F0A42FFFE5FB
:106BC000F03EFEE433C98DF0A42EFEE5F039CD8A07
:106BD000F0A42FFFE5F03EFEE43DFD33D0E0FB5096
:106BE000070BBB000F026DC4EC2CFCEF33FFEE3340
:106BF000FEED33FD026D9C026DC4EC5D046005E8A2
:106C000059047003026DBA126D85580460F6EC48A1
:106C100060F2EC7004FDFEFF22C860DB2481C850E6
:106C200009C39860025006026DC19850CAF582E906
:106C3000294B4A7005AB82026DB075F0007C1A7862
:106C400080C3EF9BEE9AED99400DC3EF9BFFEE9A48
:106C5000FEED99FDE842F0DC23ACF0D0E0FFD0E09F
:106C6000FED0E0FDAB8220E7101BEB60BAEC2CFC01
:106C7000EF33FFEE33FEED33FD026D9CE803F83099
:106C8000E705C0F075F000EF2FFFEE33FEED33FDAA
:106C900040B830E7C280AA74F8CC6480CCC8648065
:106CA000C8F58204604FC3EB9FF5F0EA9E42F0E91D
:106CB0009D42F0E89C45F0603C501DE5825FFFE599
:106CC00082D313CB5BCBF42B5582FB50280ABA003E
:106CD0002409B9002008801DE5825BFBE582D313FF
:106CE000CF5FCFF4C3132F5582FF50090EBE0005AE
:106CF0000DBD00010CC3EB9FF5F0EA9E42F0E99D4B
:106D000042F0E89C45F06007CC4820E701B3EC2254
:106D100075F020800E75F010800575F0087D007EFE
:106D2000007F003392D530D50312722CEC33401023
:106D3000EF33FFEE33FEED33FDEC33FCD5F0ED2207
:106D4000E5F0247EA2D513CC92E7CDCEFF22EDD282
:106D5000E7CD33EC3392D524814006E4FFFEFDFC01
:106D600022FCE4CFCECDCC24E0501174FF80EDC3E3
:106D7000CC13CCCD13CDCE13CECF13CF0470F030C7
:106D8000D5DE02722CE9D2E7C933E833F892D5EDAB
:106D9000D2E7CD33EC33FC5002B2D522EC30E71011
:106DA0000FBF000C0EBE00080DBD00040BEB6014FD
:106DB000A2D5EB13FCED92E7FD2274FFFCFDFEFF74
:106DC00022E480F8A2D574FF13FC7D80E480EFF903
:106DD00020E73624F950037907E4F42402FBE58226
:106DE000158270021583DBF6E024FB501BE960146A
:106DF000E4F0E582158270021583E004F0B40A081D
:106E0000E4F0D9EE7401F00A22C2D522ED33EC335E
:106E100092D5FA602AB4FF33EDC2E77BFF60067AB1
:106E20006E7931E4227A6E793A20D5047A6E79351A
:106E3000224E614E002B494E46002D494E4600E43D
:106E40007A08F0A3DAFC7B00740722C083C082ECCE
:106E5000C0E0EDC0E0EEC0E0EFC0E0EA75F010A4E5
:106E6000CAABF075F04DA42BFBE435F0FCEA24101E
:106E7000FAEB34C5FBEC34D9FCEDC2E7FF75F056F4
:106E8000A4F42411C5F0F434C58FF0A42AE5F03B36
:106E9000E43CF020E714127039D0E0FFD0E0FED0DF
:106EA000E0FDD0E0FC126BFA8014F404127039D0CB
:106EB000E0FFD0E0FED0E0FDD0E0FC126AF1D0822D
:106EC000D083E0FAEDD2E7CD33EC332482FBE4C388
:106ED000CF33CFCE33CECD33CD33DBF37B0775F05D
:106EE0000A846004F0A31B0AE5F0F0A38FF0740A93
:106EF000A4FFACF08EF0740AA42CFEACF050010C90
:106F00008DF0740AA42CFDE435F0F0A3DBDE7407E9
:106F100022026DBAE86480F8E933E8336011046056
:106F2000F0ED33EC337009E8FCE9FDEAFEEBFF22FB
:106F30000460DED3EB9FEA9EE99DE8C2E78CF0C2D5
:106F4000F795F0400CE8CCF8E9CDF9EACEFAEBCFB2
:106F5000FB126D8585D0F05804700320D5B3E8048A
:106F600070075002B2D5026DC492D5EC0460F7E40C
:106F7000CCC0E0C398F8603B94186008400DD0E0A6
:106F8000FB026D9CE4FBFAC9FC8028E830E406E4CF
:106F9000C9FBE4CAFCE830E305E4C9CACBFCE85409
:106FA000076010F8C3E913F9EA13FAEB13FBEC13CB
:106FB000FCD8F130F52FC3E49CFCEF9BFFEE9AFE6A
:106FC000ED99FDD0E0FBEF4E4D4C701222DB030239
:106FD0006DC1EC2CFCEF33FFEE33FEED33FDED30F5
:106FE000E7EB026D9CEF2BFFEE3AFEED39FDD0E0B2
:106FF000FB50130BBB0003026DC4ED13FDEE13FE3B
:10700000EF13FFEC13FC026D9C3F80000041200059
:107010000042C80000447A0000461C400047C350AC
:1070200000497424004B1896804CBEBC205A0E1B9D
:10703000CA6753C21C749DC5AEFB60065407601C32
:107040002323127067EB5438600912705312706278
:10705000126AF1ECF8EDF9EEFAEFCB22EB12706266
:1070600080F1543803241C907009FE93FC0EEE93BB
:10707000FD0EEE930ECE93FF22BB010689828A831A
:10708000E0225002E722BBFE02E32289828A83E4E7
:107090009322BB010CE58229F582E5833AF583E072
:1070A000225006E92582F8E622BBFE06E92582F891
:1070B000E222E58229F582E5833AF583E49322BB57
:1070C000010689828A83F0225002F722BBFE01F377
:1070D00022EF8DF0A4A8F0CF8CF0A428CE8DF0A4E0
:1070E0002EFE22BB010A89828A83F0E5F0A3F022FA
:1070F0005006F709A7F01922BBFE06F3E5F009F3E5
:107100001922E88FF0A4CC8BF0A42CFCE98EF0A41B
:107110002CFC8AF0EDA42CFCEA8EF0A4CDA8F08B18
:10712000F0A42DCC3825F0FDE98FF0A42CCD35F05E
:10713000FCEB8EF0A4FEA9F0EB8FF0A4CFC5F02EEF
:10714000CD39FEE43CFCEAA42DCE35F0FDE43CFC58
:107150002275F008758200EF2FFFEE33FECD33CDA0
:10716000CC33CCC58233C5829BED9AEC99E58298ED
:10717000400CF582EE9BFEED9AFDEC99FC0FD5F0EC
:10718000D6E4CEFBE4CDFAE4CCF9A88222B800C163
:10719000B90059BA002DEC8BF084CFCECDFCE5F0D0
:1071A000CBF97818EF2FFFEE33FEED33FDEC33FC17
:1071B000EB33FB10D703994004EB99FB0FD8E5E4C0
:1071C000F9FA227818EF2FFFEE33FEED33FDEC33A2
:1071D000FCC933C910D7059BE99A4007EC9BFCE931
:1071E0009AF90FD8E0E4C9FAE4CCFB2275F010EF6D
:1071F0002FFFEE33FEED33FDCC33CCC833C810D7B0
:10720000079BEC9AE899400AED9BFDEC9AFCE89903
:10721000F80FD5F0DAE4CDFBE4CCFAE4C8F922CFDC
:10722000F4CFCEF4CECDF4CDCCF4CC22C3E49FFF8A
:10723000E49EFEE49DFDE49CFC22EB9FF5F0EA9EBB
:1072400042F0E99D42F0EC6480C864809845F022E9
:10725000EB9FF5F0EA9E42F0E99D42F0E89C45F094
:1072600022E8600FECC313FCED13FDEE13FEEF13E9
:10727000FFD8F122E86010ECA2E713FCED13FDEE5D
:1072800013FEEF13FFD8F022E8600FEFC333FFEED9
:1072900033FEED33FDEC33FCD8F122BB01078982CC
:1072A0008A830275675005E9F802755BBBFE05E944
:1072B000F802757389828A8302757FBB0107898210
:1072C0008A830272D55005E9F802758FBBFE05E985
:1072D000F802759B22ECF0A3EDF0A3EEF0A3EFF023
:1072E00022F8E0FBA3A3E0F925F0F0E58215827017
:1072F000021583E0FA38F022EBF0A3EAF0A3E9F0FC
:1073000022D083D082F8E4937012740193700DA39D
:10731000A393F8740193F5828883E47374029368ED
:1073200060EFA3A3A380DFE50F2582F582E50E358C
:1073300083F583B50E0485820F2210AF0685820F78
:10734000F50E2285820FF50ED2AF22EC8EF0A4CC82
:10735000C5F0CCCDF8EFA4CEC5F02DFDE43CFCE8A3
:10736000A42EC8C5F03DFDE43CFCEFA4FFE5F028E9
:10737000FEE43DFDE43CFC22E709F608DFFA804626
:10738000E709F208DFFA803E88828C83E709F0A3E0
:10739000DFFA8032E309F608DFFA806EE309F208CB
:1073A000DFFA806688828C83E309F0A3DFFA805AD3
:1073B00089828A83E0A3F608DFFA804E89828A8375
:1073C000E0A3F208DFFA804280D280FA80C680D43F
:1073D000805580F28029801080A680EA809A80A85B
:1073E00080DA80E280CA802988848C8589828A83B9
:1073F000E493A30586F0A30586DFF5DEF3800B8911
:10740000828A83E493A3F608DFF9ECFAA9F0EDFB96
:107410002288848C8589828A83E0A30586F0A3056F
:1074200086DFF6DEF480E389828A83E493A3F208A0
:10743000DFF980D688F0EF60010E4E60CD88F0ED68
:107440002402B4040050C3F582EB2402B4040050BB
:10745000B923234582239073C873E709F60870FAAD
:107460008046E709F20870FA803E88828C83E7093B
:10747000F0A370FA8074E309F60870FA806CE309EF
:10748000F20870FA806488828C83E309F0A370FAB2
:10749000805889828A83E0A3F60870FA804C89823A
:1074A0008A83E0A3F20870FA804080D280FA80C616
:1074B00080D4805180F28027801080A680EA809A54
:1074C00080A880DA80E280CA802788848C858982BF
:1074D0008A83E493A30586F0A3058670F5800B8963
:1074E000828A83E493A3F60870F9ECFAA9F0EDFB25
:1074F0002288848C8589828A83E0A30586F0A3058F
:107500008670F680E589828A83E493A3F20870F995
:1075100080D888F0ED2402B4040050CEF582EB242C
:1075200002B4040050C423234582239074AA73C577
:10753000F0F8A3E028F0C5F0F8E582158270021596
:1075400083E038F022A3F8E0C5F025F0F0E58215DD
:107550008270021583E0C838F0E822E6FC08E6FDF8
:1075600008E6FE08E6FF22E0FCA3E0FDA3E0FEA3A0
:10757000E0FF22E2FC08E2FD08E2FE08E2FF22E46E
:1075800093FC740193FD740293FE740393FF22EC49
:10759000F608EDF608EEF608EFF622ECF208EDF24A
:1075A00008EEF208EFF222E57B2455F582E4340A76
:1075B000F583E0057B22900A52300803900A55E4D7
:1075C00075F0011272E10270792001E97F2ED2017B
:1075D0008018EF540F2490D43440D4FF30050BEFC3
:1075E00024BFB41A0050032461FFE57C6002157CBF
:1075F000057FE57F7002057E30080E900A52E47523
:10760000F0011272E1EF0270BF02B4E47403D20819
:107610008003E4C208F57B900A521272F8E4F57C0C
:10762000F57EF57FE57C60077F201275EA80F575B1
:107630007DFFC202C201C203C204C206C207C20960
:107640001275B6FF700D3008057F001275FBAF7F15
:10765000AE7E22B4255FC2D5C2051275B6FF24D016
:10766000B40A00501A75F00A787C30D50508B6FFC8
:107670000106C6A426F620D5047002D20480D924BF
:10768000CFB41A00EF5004C2E5D2050278EDD20261
:1076900080C6D20180C0D20380BCD2D580BAD206C7
:1076A00080B47F201275EA2003077401B57C004086
:1076B000F11275A7FF1275EA027624D209D207806B
:1076C000951275A7FB1275A7FA1275A7F94A4B70A8
:1076D0000679EB7A797BFF20032EE57C602A7E0019
:1076E0008E8275830012709260060EEE657D70F0DA
:1076F000C2D5EBC0E0EAC0E0E9C0E0EE12794ED0BE
:10770000E0F9D0E0FAD0E0FB127079FF60AAEBC09C
:10771000E0EAC0E0E9C0E01275EAD0E02401F9D067
:10772000E03400FAD0E0FBE57D0460DCD57DD98053
:1077300087D20380A212793060F7E57D70010412D0
:107740006DCFA97D600DE57D600914F57D1279D8B6
:10775000EF60F3EA30E702F404C3995079EAF425C4
:107760007D0430E701E404F57D800D12793060C1BD
:10777000EA057D257D126DCFEA900A81F030E701A0
:10778000E4257D04D57D042006011412794EE4C061
:10779000E01279D8900A81E0601320E70714F01214
:1077A00075D2802204F0D0E014C0E07F001275D2C0
:1077B000E57D60071275C9157D800B3006031275D3
:1077C000C9D0E0027624D0E00480C4127930609EF3
:1077D000E57D04126DCF900A81EAF0E57D20060276
:1077E000600104240412794E74FF04C0E01279D8B9
:1077F0001275D2E57D20060260031275C9D0E0B58E
:107800007DE87F451275DC900A81E07F2B30E7042C
:107810007F2DF404C0E01275EAD0E075F00A84C050
:10782000F01275D3D0E01275D3027624791080025D
:107830007908C207C2098008D2D5790A8004790A7A
:10784000C2D5E57D047002F57DE4FAFDFEFF1275F8
:10785000A7FC7B082002131275A7FD7B1030010ADC
:107860001275A7FE1275A7FF7B20EC3382D592D547
:107870005013C3E43001069FFFE49EFEE4200203A0
:107880009DFDE49CFCE4CBF8C202EC700CCFCECDA5
:10789000CCE824F8F870F38017C3EF33FFEE33FE23
:1078A000ED33FDEC33FCEB33FB994002FB0FD8E9E1
:1078B000EB300205F8D0E0C448B202C0E00AEC4D5B
:1078C0004E4F78207B0070C2EAB57D0040BCC0E01E
:1078D000127950D0F0D0E0200204C4C0E0C4B2025B
:1078E000C0F01275D3D0F0D5F0EB027624127301FC
:1078F00076C153782C5876924C768E4278304F78F9
:10790000384478384976A743783E55776B4677CB2D
:10791000457735477A0B5076962D769A2E76BD2B85
:10792000769E2376BB2079F42A765648000076B5F9
:10793000E57DB4FF03757D061275A7FC1275A7FDE2
:107940001275A7FE1275A7FF900A7A026E0C790ACB
:10795000A2D5200414300609B910020404B90801A4
:1079600004A2D52007025001042003689203B57CCD
:10797000005034C0E07F203004197F30A20372072A
:107980007206500F1279A7C203C207C206C2097F4E
:1079900030800F300603E9C0E01275EA300603D0EC
:1079A000E0F9D0E0B57CCC3006177F30B9100C126E
:1079B00075EA7F583005077F788003B90803127590
:1079C000EA3003057F2D0275EA7F202009F87F2B1E
:1079D0002007F322920380CF7F00B40700500B24CE
:1079E0007AF582E4340AF583E0FF22286E756C6C28
:1079F0002900D2021275A73002F8C202787C30D575
:107A00000108F60276562D504349581275A72403F3
:107A1000B405004001E4907A06931275DB743A12C3
:107A200075DBD204757C0402782C756702900AB766
:107A3000E06003027CF9900B55E0FCA3E0FDA3E0BD
:107A4000FEA3E0FF900AC8E0F8A3E0F9A3E0FAA3E0
:107A5000E0FB126C976058900C49E0FCA3E0FDA39A
:107A6000E0FEA3E0FFEC126D10900AC8E0F8A3E07E
:107A7000F9A3E0FAA3E0FB126BFA126D4E900C49E9
:107A80001272D5900C49E0FCA3E0FDA3E0FEA3E058
:107A9000FFEC126D10900B55E0F8A3E0F9A3E0FAAB
:107AA000A3E0FB126AF1126D4E900C491272D59050
:107AB0000B59E0FCA3E0FDA3E0FEA3E0FF900ACC9D
:107AC000E0F8A3E0F9A3E0FAA3E0FB126C9760589A
:107AD000900C4DE0FCA3E0FDA3E0FEA3E0FFEC1260
:107AE0006D10900ACCE0F8A3E0F9A3E0FAA3E0FB64
:107AF000126BFA126D4E900C4D1272D5900C4DE037
:107B0000FCA3E0FDA3E0FEA3E0FFEC126D10900BE0
:107B100059E0F8A3E0F9A3E0FAA3E0FB126AF1123E
:107B20006D4E900C4D1272D5900B49E0FCA3E0FD18
:107B3000A3E0FEA3E0FF900ABCE0F8A3E0F9A3E015
:107B4000FAA3E0FBC312723A6057900C49E0F8A325
:107B5000E0F9A3E0FAA3E0FBC000C001C002C0034B
:107B6000900ABCE0F8A3E0F9A3E0FAA3E0FB900BD5
:107B700049E0FCA3E0FDA3E0FEA3E0C39BFFEE9A77
:107B8000FEED99FDEC98FCD003D002D001D000EBC3
:107B90002FFFEA3EFEE93DFDE83CFC900C491272E5
:107BA000D5900B4DE0FCA3E0FDA3E0FEA3E0FF9029
:107BB0000AC0E0F8A3E0F9A3E0FAA3E0FBC3127265
:107BC0003A6057900C4DE0F8A3E0F9A3E0FAA3E087
:107BD000FBC000C001C002C003900AC0E0F8A3E0EF
:107BE000F9A3E0FAA3E0FB900B4DE0FCA3E0FDA3BA
:107BF000E0FEA3E0C39BFFEE9AFEED99FDEC98FC3E
:107C0000D003D002D001D000EB2FFFEA3EFEE93DC9
:107C1000FDE83CFC900C4D1272D5900AD4E0700344
:107C2000027CF9A3E0FCA3E0FDA3E0FEA3E0FF904B
:107C30000C49E0F8A3E0F9A3E0FAA3E0FBC3127259
:107C40003A5014900AD5E0FCA3E0FDA3E0FEA3E0C7
:107C5000FF900C491272D5900AD9E0FCA3E0FDA375
:107C6000E0FEA3E0FF900C4DE0F8A3E0F9A3E0FAFA
:107C7000A3E0FBC312723A5014900AD9E0FCA3E0CF
:107C8000FDA3E0FEA3E0FF900C4D1272D5900ADD3B
:107C9000E0FCA3E0FDA3E0FEA3E0FF900C49E0F8C8
:107CA000A3E0F9A3E0FAA3E0FBD312723A401490E8
:107CB0000ADDE0FCA3E0FDA3E0FEA3E0FF900C4999
:107CC0001272D5900AE1E0FCA3E0FDA3E0FEA3E080
:107CD000FF900C4DE0F8A3E0F9A3E0FAA3E0FBD39A
:107CE00012723A4014900AE1E0FCA3E0FDA3E0FE2A
:107CF000A3E0FF900C4D1272D5900B10E0FF900A9C
:107D000083E0FE6F603F8E6AE4FFFE129FFEEF602D
:107D10001B7568017569017B007A007968E567FD6C
:107D20007C00900026E56AF012A49F22E4F568F535
:107D300069FB7A007968E567FD7C00900026E56ABA
:107D4000F012A49F22E4FFFE129FFEEF60067F0167
:107D500012B73A22E4FF12B73A22900008EDF08FF2
:107D600023E523C394034003028056300D227B0396
:107D7000AF031BEF6018E4FFFEFDFCEB25E025E000
:107D8000241CF582E4340DF5831272D580E2C20D15
:107D9000E523701312BA27EFEEED5403FDE4FC90D7
:107DA00000091272D58041E523B4011312BA31EFF4
:107DB000EEED5403FDE4FC9000091272D58029E534
:107DC00023B4021312BA3BEFEEED5403FDE4FC9032
:107DD00000091272D5801112BA45EFEEED5403FD81
:107DE000E4FC9000091272D57B017A00790912AA8D
:107DF0007D4003028056900008E0602DA3E0FCA3C4
:107E0000E0FDA3E0FEA3E054C0FFEEED5403FDE46B
:107E1000FC7802127261C3E49FFF74809EFE33956A
:107E2000E0FDFCA31272D58053900009E0FCA3E0B2
:107E3000FDA3E0FEA3E054C0FFEEED5403FDE4FC1F
:107E40007802127261C3E49FFF74809EFE3395E056
:107E5000FDFCE52325E025E02449F582E4340BF51B
:107E600083E0F8A3E0F9A3E0FAA3E02FFFEA3EFEE7
:107E7000E93DFDE83CFC90000D1272D530132790CF
:107E8000000DE0FCA3E0FDA3E0FEA3E0FFE5232559
:107E9000E025E0241CF582E4340DF5831272D5E56B
:107EA00023B40202C213E52325E025E0241CF58259
:107EB000E4340DF583E0F8A3E0F9A3E0FAA3E0FBD6
:107EC00090000DE0FCA3E0FDA3E0FEA3E0C39BFF58
:107ED000EE9AFEED99FDEC98FCA31272D5E4FF7EBC
:107EE000C0FDFC900011E0F8A3E0F9A3E0FAA3E0E4
:107EF000FBD312723A4010746E2523F582E4340CE1
:107F0000F583E014F080687F007E407DFF7CFF9069
:107F10000011E0F8A3E0F9A3E0FAA3E0FBC31272BA
:107F20003A5010746E2523F582E4340CF583E00496
:107F3000F0803C900011E0A3E0A3E0FEA3E0FF127C
:107F4000B9E6D3EF9400EE648094C04022742825F3
:107F500023F582E4340DF583E004F074282523F53D
:107F600082E4340DF583E0C3940A50030280567412
:107F7000282523F582E4340DF583E4F090000DE02C
:107F8000FCA3E0FDA3E0FEA3E0FFE52325E025E060
:107F9000241CF582E4340DF5831272D590000DE0B7
:107FA000F8A3E0F9A3E0FAA3E0FBC000746E252378
:107FB000F582E4340CF583E0FF3395E0FEFDFC78B8
:107FC00010127288D000EB2FFFEA3EFEE93DFDE87B
:107FD0003CFC90000D1272D5E52325E025E024C875
:107FE000F582E4340AF583E0FCA3E0FDA3E0FEA300
:107FF000E0FFE4FBFA7980783F126C9760389000DC
:108000000DE0FCA3E0FDA3E0FEA3E0FFEC126D1089
:10801000E52325E025E024C8F582E4340AF583E071
:10802000F8A3E0F9A3E0FAA3E0FB126AF1126D4EA7
:1080300090000D1272D590000DE0FCA3E0FDA3E0CE
:10804000FEA3E0FFE52325E025E0245EF582E4348D
:108050000CF5831272D52212BB9812AE6BE47F64CA
:10806000FEFDFC12A5B47F0112BB5C12B57912B7FC
:10807000CF12B30E12B1D112B88D7EBB7FA312B551
:10808000DC12B8677EBB7FA012B5FB12B7E2E4FF3B
:1080900012BB02E4FF12BB08E4FF12BB74E4FF1240
:1080A000BB4A12B7F512B80812B81B12B82E12B696
:1080B000A77F0112BB80E4900007F0A3F0FBFA7DDC
:1080C000017F0212AF03900001EFF012B0E29000C6
:1080D00002EFF0E0FBFF9000077486F07D067C0065
:1080E00012A63C7B017A0C7956E9EAE4AB019000D8
:1080F00002E0FF7D107C4E12A837900001E0FFA344
:10810000E0FD12B639900001E0FF7D0112AEB8E447
:10811000FF12BB4412B84112B854D2AF9044F47469
:10812000FDF0E47F0AFEFDFC12A5B490000074028D
:10813000F0900000E0FF14F0EF6018E4FFFEFDFC9B
:10814000E025E025E02406F582E4340BF583127285
:10815000D580DE9000007403F0900000E0FF14F082
:10816000EF6025E4FFFEFDFCE0FB25E025E0245E5A
:10817000F582E4340CF5831272D5746E2BF582E42B
:10818000340CF583E4F080D1900AB6E0900B0EF049
:10819000E4900C44F0A3F0900C48F0FFFEFDFC903E
:1081A0000B511272D5E4FFFEFDFC900B4D1272D5FF
:1081B000E4FFFEFDFC900B491272D5E4FFFE129F16
:1081C000FEEF60077F0112B73A8005E4FF12B73A6D
:1081D000E4900000F0900000E0FFC39403504D7D58
:1081E00001127D5A900000E0FB25E025E0245EF5B9
:1081F00082E4340CF583E0FCA3E0FDA3E0FEA3E001
:10820000FF12722CEB25E025E02449F582E4340BC3
:10821000F5831272D5900000E0246EF582E4340CF0
:10822000F583E4F0900000E004F080A9E4FFFE1282
:108230009FFEEF60077F0112B73A8005E4FF12B797
:108240003A78497C0C7D017B017A0B79067E007FB0
:1082500009127434900B0EE0FF12BB4AE4900C7DBF
:10826000F0C210900AF1E024FF920C900AFAE02488
:10827000FF920BE4900B93F0C20DC20A900B75E0D5
:1082800070077F0112BB8C8005E4FF12BB8CE4FFFA
:1082900012BB6E1298AF12BB68EF7020300F0E7FCA
:1082A0000112BB92C20FC20E12965180E9300EE647
:1082B0007F0112BB92E4900C51F080DA7F0112BB77
:1082C0006E12BB68EF640160F812B7BBEF30E7BE17
:1082D00012B1D180B922E4900007F0900D02E014B1
:1082E000700302843B04600302854B900C6AE0FE3D
:1082F000A3E0FFC374C89FFFE49EFE7C007D0512CF
:1083000070D1900B46E0FDEFA805088005C333CE81
:1083100033CED8F9FFEE3395E0FDFC9000031272E6
:10832000D5900003E0F8A3E0F9A3E0FAA3E0FB9006
:108330000BBBE0FCA3E0FDA3E0FEA3E0C39BFFEECC
:108340009AFEED99FDEC98FC900C491272D5900CB8
:108350006DE024C8FF900C6CE03400FE7C007D05CD
:108360001270D1900B47E0FDEFA805088005C333DC
:10837000CE33CED8F9FFEE3395E0FDFC900003122A
:1083800072D5900003E0FCA3E0FDA3E0FEA3E0FFB4
:10839000900BBFE0F8A3E0F9A3E0FAA3E02FFFEA17
:1083A0003EFEE93DFDE83CFC900C4D1272D5900D6F
:1083B00003E004F0900D00E0FEA3E0FFC374C89F4B
:1083C000FDE49EFC900C6AE0FAA3E0FBD39DEC6414
:1083D00080F8EA648098500302854BEF24C8FFE4DC
:1083E0003EFEC3EB9FEE6480F8EA6480984003028F
:1083F000854B900D00E0FEA3E0FF2438FDEE34FF36
:10840000FC900C6CE0FAA3E0FBC39DEC6480F8EAFE
:10841000648098400302854BC374389FFF74FF9EAD
:10842000FED3EB9FEE6480F8EA64809850030285E7
:108430004B900D027401F0E4A3F022900B46E0FF94
:1084400074127E00A807088005C333CE33CED8F956
:10845000FFEE3395E0FDFC9000031272D59000030F
:10846000E0FCA3E0FDA3E0FEA3E0FF900BBBE0F87F
:10847000A3E0F9A3E0FAA3E02FFFEA3EFEE93DFD09
:10848000E83CFC900C491272D5900B47E0FF741247
:108490007E00A807088005C333CE33CED8F9FFEE9F
:1084A0003395E0FDFC9000031272D5900003E0F8D4
:1084B000A3E0F9A3E0FAA3E0FB900BBFE0FCA3E08C
:1084C000FDA3E0FEA3E0C39BFFEE9AFEED99FDEC59
:1084D00098FC900C4D1272D5900D03E0D39464403B
:1084E00064C20AE4900D02F0900007F0900007E0EB
:1084F000FFC39403504D7D01127D5A900007E0FBAD
:1085000025E025E0245EF582E4340CF583E0FCA34D
:10851000E0FDA3E0FEA3E0FF12722CEB25E025E0D6
:108520002449F582E4340BF5831272D5900007E0FC
:10853000246EF582E4340CF583E4F0900007E00447
:10854000F080A9D20D900D03E004F0227F0290008C
:1085500003748CF0A3F07B017A007903EFFD7C00BB
:10856000900A5714F012A36B12B8E490001712721D
:10857000D5900BC4E0648E6048300F05C20F129690
:108580005112B8E490001B1272D590001BE0F8A3C2
:10859000E0F9A3E0FAA3E0FB900017E0FCA3E0FD04
:1085A000A3E0FEA3E0C39BFFEE9AFEED99FDEC98DD
:1085B000FC7B207AAA79447800C312725050B2C270
:1085C0000C200C03028761900BC5E0FEA3E0FFC303
:1085D000900B84E09FEE6480F8900B83E0648098B9
:1085E0005005E0FEA3E0FFD3900B86E09FEE648091
:1085F000F8900B85E06480984005E4FEFF800F90C2
:108600000B85E0FCA3E0FDC3EF9DFFEE9CFEAD07F4
:10861000AC06EC126D15900B7FE0F8A3E0F9A3E037
:10862000FAA3E0FB126AF17B007AFF797F784712A8
:108630006AF1E4FBFA79B47844126BFA126D4E9049
:1086400000131272D5900013E0FCA3E0FDA3E0FE3E
:10865000A3E0FF900B46E0F9F812728812722C909A
:108660000C491272D5900013E0FCA3E0FDA3E0FEDC
:10867000A3E0FF900B47E0F9F8127288900C4D12BE
:1086800072D5900AD4E07003028761A3E0FCA3E0F6
:10869000FDA3E0FEA3E0FF900C49E0F8A3E0F9A3FE
:1086A000E0FAA3E0FBC312723A5014900AD5E0FC42
:1086B000A3E0FDA3E0FEA3E0FF900C491272D59069
:1086C0000AD9E0FCA3E0FDA3E0FEA3E0FF900C4D7F
:1086D000E0F8A3E0F9A3E0FAA3E0FBC312723A507A
:1086E00014900AD9E0FCA3E0FDA3E0FEA3E0FF9014
:1086F0000C4D1272D5900ADDE0FCA3E0FDA3E0FE74
:10870000A3E0FF900C49E0F8A3E0F9A3E0FAA3E0AE
:10871000FBD312723A4014900ADDE0FCA3E0FDA303
:10872000E0FEA3E0FF900C491272D5900AE1E0FC54
:10873000A3E0FDA3E0FEA3E0FF900C4DE0F8A3E072
