:40000000021415008F828E83E0540100000070F82278FFE4F6D8FD02147A900000EFF0E4F53FF540F541F54275430AC200121F87EF60057F00121FB7122067D2AF9044F4FC
:4000400074FDF0E4F53B754900754A00754B37900000E0FF70067EFF7FFF80008F4C7B017A0079017D2C7C011212FA8F3E900000E060021543E5436004E53E70C9E53E6046
:400080000302059FC3E5389407E53794004008900001E064016005753B04807E900004E0FE900003E0FDEEF53FEDF54074062540F5827400353FF583E0FE74052540F58228
:4000C0007400353FF583E0FDEEF53CEDF53DE5402407FFE4353FFED3EF9538EE95374005753B03803574072540F5827400353FF583E064176005753B04801F7B017A0079B1
:4001000001E5402404FDE4353FFC121C66EF653D7003EE653C6003753B08E4F539F53AE53B600302058E900005E0F536753B04900002E012088801553101823202083403A0
:400140007A3503883703D438020839040F3A05783B0000058B20000302058EE540453F600302058EFF120D84EF70047F0180027F00900005EFF0753900753A01E4F53B0260
:40018000058E20000302058EE5406401453F600302058EE536C39401400302058E900357E0FEA3E0F5828E83120842E4FBFA7901F81207188F24E536B5241E900357E0FE6B
:4001C000A3E0F5828E83120842E4FB7A01F9F81207187522008F238014E536D395244007E4F522F5238006752201752300E523900005F0E522A3F0A374FFF0E4A3F0F539B6
:40020000753A04F53B02058E900002E06434703C20000302058EE5406403453F600302058EE536C39440400FE536D3947F50087541007542108006754101754220AE41AF47
:40024000427D007B017A01792D1208FF20000302058EC3E5409403E53F9400500302058EE54024FDFFE53F34FFFE742D2542F974013541A801FC7D017B017A0079081209F7
:40028000E7E54024FDFFE53F34FFFEEF2542F542EE3541F541E536C394404012E536D3947F500B121DA8753F007540108006753F01754020E54265407004E541653F600369
:4002C00002036F900007E0FE900006E0FDEEF541EDF542E536D3943F506FE5367F00FEEF2542FFE5413E900259F0A3EFF0900357E0FEA3E0F5828E83120842E4FB7A01F9AA
:40030000F812071890025BEEF0A3EFF0900357E0FEA3E0F5828E83120842EFE4EF600A90025BE475F0011205DA90025BE0FEA3E0FFC390025AE09F900259E09E500B753BD5
:400340000AE4F541F54202058E7B017A01792D900263E53FF0A3E540F0AD42AC41AF36120F0BEF60047F0A80027F008F3B8003753B03E4F541F54202058E20000302058EC7
:40038000E4F541F54202059F20000302058EE5422540FFE541353FFED3EF942CEE9401502DE4F53BAE3FAF40742D2542F974013541A801FC7D017B017A0079051209E7E58F
:4003C000402542F542E53F3541F54102058E753B0302058EE540453F600302058E78257C00FD7BFF7A25791FFE7F081209E7D200753900753A08AE39AF3A78057C007D0105
:400400007B007A0079251209E7E4F53B02058E20000302058EE5406403453F600302058E900007E0FE900006E0FDEEF52FEDF530E536C394404038E536D3947F5031AE2F29
:40044000AF307C007D101208D28F348E338D328C318F4B8E4A8D498C48E4754F10F54EF54DF54CFF7E80FDFC12192C8F358050AE2FAF307C017D001208D2C004C005C006FC
:40048000C007AF36E4FCFDFEFBFA7901F812068DD003D002D001D0001206728F348E338D328C318F4B8E4A8D498C48E4F54F754E01F54DF54CFFFE7D10FC12192C8F35E588
:4004C00036D3943F5072AF367E007C207D001208D2E42FFFE43EFEED3408FDE43CFCC004A905AA06AB07AE2FAF307C007D201208D2D0001206728F348E338D328C31E4F5BA
:400500002DF52EC3E52E9420E52D9400502AE4E52E2534FFE52D3533FEE43532FDE43531A907AA06AB05121CF3EF2535F535052EE52E7002052D80CBE536702AAE2FAF301E
:40054000FCFD7BFFFAF9F8C31207C57019FD7F05120A3DC3E5359FF535E4FD7F06120A3DC3E5359FF535E535F404900005F0E4F53BF539753A018016E4FF120D84EF700604
:400580009046FA7480F01220718003753B057B017A007901853948853A49AF3B1215ED900000E0700302004330000302004322BB010689828A83E0225002E722BBFE02E399
:4005C0002289828A83E49322BB010689828A83F0225002F722BBFE01F322C5F0F8A3E028F0C5F0F8E582158270021583E038F022BB010A89828A83E0F5F0A3E022500687B6
:40060000F009E71922BBFE07E3F5F009E3192289828A83E493F5F074019322BB010789828A830205DA500B09C5F027F7C5F01937F722BBFE0D09F8E325F0F3C5F019E338A6
:40064000F322F889828A8374019325F0C5F0F8E4933822BB010A89828A83F0E5F0A3F0225006F709A7F01922BBFE06F3E5F009F31922EF2BFFEE3AFEED39FDEC38FC22C315
:40068000EF9BFFEE9AFEED99FDEC98FC22E88FF0A4CC8BF0A42CFCE98EF0A42CFC8AF0EDA42CFCEA8EF0A4CDA8F08BF0A42DCC3825F0FDE98FF0A42CCD35F0FCEB8EF0A47C
:4006C000FEA9F0EB8FF0A4CFC5F02ECD39FEE43CFCEAA42DCE35F0FDE43CFC2275F008758200EF2FFFEE33FECD33CDCC33CCC58233C5829BED9AEC99E58298400CF582EE4A
:400700009BFEED9AFDEC99FC0FD5F0D6E4CEFBE4CDFAE4CCF9A88222B800C1B90059BA002DEC8BF084CFCECDFCE5F0CBF97818EF2FFFEE33FEED33FDEC33FCEB33FB10D7C4
:4007400003994004EB99FB0FD8E5E4F9FA227818EF2FFFEE33FEED33FDEC33FCC933C910D7059BE99A4007EC9BFCE99AF90FD8E0E4C9FAE4CCFB2275F010EF2FFFEE33FE50
:40078000ED33FDCC33CCC833C810D7079BEC9AE899400AED9BFDEC9AFCE899F80FD5F0DAE4CDFBE4CCFAE4C8F922EF4BFFEE4AFEED49FDEC48FC22C3E49FFFE49EFEE49D2F
:4007C000FDE49CFC22EB9FF5F0EA9E42F0E99D42F0E89C45F022E8600FECC313FCED13FDEE13FEEF13FFD8F122E8600FEFC333FFEE33FEED33FDEC33FCD8F122BB010789DC
:40080000828A830208365005E9F8020A0DBBFE05E9F8020A1989828A83020842BB010789828A8302085E5005E9F8020A25BBFE05E9F8020A3122E0FCA3E0FDA3E0FEA3E06A
:40084000FF22E493FC740193FD740293FE740393FF22E0F8A3E0F9A3E0FAA3E0FB22ECF0A3EDF0A3EEF0A3EFF022E0FBA3E0FAA3E0F922EBF0A3EAF0A3E9F022E493FB74E9
:400880000193FA740293F922D083D082F8E4937012740193700DA3A393F8740193F5828883E4737402936860EFA3A3A380DFE5092582F582E5083583F583B50804858209B7
:4008C0002210AF06858209F50822858209F508D2AF22EC8EF0A4CCC5F0CCCDF8EFA4CEC5F02DFDE43CFCE8A42EC8C5F03DFDE43CFCEFA4FFE5F028FEE43DFDE43CFC22EF51
:400900004E6012EF60010EEDBB010B89828A83F0A3DFFCDEFA2289F05007F709DFFCA9F022BBFEFCF309DFFCA9F022E709F608DFFA8046E709F208DFFA803E88828C83E7AA
:4009400009F0A3DFFA8032E309F608DFFA806EE309F208DFFA806688828C83E309F0A3DFFA805A89828A83E0A3F608DFFA804E89828A83E0A3F208DFFA804280D280FA80F3
:40098000C680D4805580F28029801080A680EA809A80A880DA80E280CA802988848C8589828A83E493A30586F0A30586DFF5DEF3800B89828A83E493A3F608DFF9ECFAA95D
:4009C000F0EDFB2288848C8589828A83E0A30586F0A30586DFF6DEF480E389828A83E493A3F208DFF980D688F0EF60010E4E60CD88F0ED2402B4040050C3F582EB2402B455
:400A0000040050B9232345822390097B73E6FC08E6FD08E6FE08E6FF22E2FC08E2FD08E2FE08E2FF22ECF608EDF608EEF608EFF622ECF208EDF208EEF208EFF22290025D03
:400A4000EDF0AB079002627402F0E4FFFEFDFCA312085EEB1208880A79010AA6020ACB030AF0040B15050B40060B8F070B6B080BB3090BD70A00000C0190025DE0FF7E005E
:400A80007C017D001208D21207B7EF24C0FFEE34FFFEED3410FDE43CFCA312085E9002627401F0020C0C90025DE0FF7E007C017D001208D2C374C39FFF74FF9EFE74109DBD
:400AC000FDE49CFCA312085E020C0C90025DE0FF7E007C017D001208D2C374C79FFF74FF9EFE74109DFDE49CFCA312085E020C0C90025DE0FF7E007C017D001208D2C37433
:400B0000CB9FFF74FF9EFE74109DFDE49CFCA312085E020C0C90025DE0FF7E007C017D001208D2C374D09FFF74FF9EFE74109DFDE49CFCA312085E9002627401F0020C0C60
:400B400090025DE0FF7E007C017D001208D2C374D19FFF74FF9EFE74109DFDE49CFCA312085E9002627401F0020C0C90025DE0FF7E007C017D001208D2C374D69FFF74FF16
:400B80009EFE74109DFDE49CFCA312085E807D90025DE0FF7E007C017D001208D2C374D29FFF74FF9EFE74109DFDE49CFCA312085E805990025DE0FF7E007C017D00120811
:400BC000D2C374D49FFF74FF9EFE74109DFDE49CFCA312085E803590025DE0FF7E007C017D001208D2C374D89FFF74FF9EFE74109DFDE49CFCA312085E9002627404F08082
:400C00000BE4FFFEFDFC90025E12085E900262E0B4011990025E120836A907AA06AB05121CF3E4FCFDFE90026312085E900262E06402705C90025E120836EF2401FFE43E91
:400C4000FEE43DFDE43CA907AA06AB05121CF3E4FCFDFE90026312085E900263120852C000C001C002C00390025E120836A907AA06AB05121CF3E4FCFDFE78081207E9D0BA
:400C800003D002D001D0001207AA90026312085E900262E064046003020D7D90025E120836EF2403FFE43EFEE43DFDE43CA907AA06AB05121CF3E4FCFDFE90026312085E37
:400CC000900263120852C000C001C002C00390025E120836EF2402FFE43EFEE43DFDE43CA907AA06AB05121CF3E4FCFDFE78081207E9D003D002D001D0001207AA9002634F
:400D000012085E900263120852C000C001C002C00390025E120836EF2401FFE43EFEE43DFDE43CA907AA06AB05121CF3E4FCFDFE78101207E9D003D002D001D0001207AA84
:400D400090026312085E900263120852C000C001C002C00390025E120836A907AA06AB05121CF3E4FCFDFE78181207E9D003D002D001D0001207AA90026312085E90026356
:400D8000120836228F44AD447F03120A3DEF2401FFE43EFEE43DFDE43CFCE4FB7A01F9F812068DC004C005C006C007AD447F04120A3DD003D002D001D0001206728F4C8EA9
:400DC0004B8D4A8C49C201E4F54DAD447F03120A3DEF2401FFE43EFEE43DFDE43CFCE4FB7A01F9F812068D8F488E478D468C45AF4CAE4BAD4AAC49AB48AA47A946A845C337
:400E00001207C55032854882854783E493F54E6005F46002D201E54E254DF54DAF48AE47AD46AC45E47B01FAF9F81206728F488E478D468C4580B8AD447F03120A3DEF2479
:400E400001FFE43EFEE43DFDE43CFCE4FB7A01F9F812068D78031207D68F488E478D468C45E47FC07EFFFDFCAB4CAA4BA94AA849C31207C57007FF7E20FDFC800DAF4CAE21
:400E80004BAD4AAC4978031207D68F4C8E4B8D4A8C49AF4CAE4BAD4AAC49AB48AA47A946A845C31207C55039E42548FFE43547FEE5463408FDE43545A907AA06AB05121CB9
:400EC000F3EF254DF54DAF48AE47AD46AC45E47B01FAF9F81206728F488E478D468C4580B1E54DF404F54DAD447F01120A3DA804A905AA06AB07AF4DE4FCFDFEC31207C5CC
:400F000070032001037F06227F002290025EECF0A3EDF0A312087390025DEFF0E4900265F0EFD3943F500E90025DE0940140069002657401F090025DE0FFD3947F4006903A
:400F400002657401F0EFC39440400CEFD3944140069002657401F0EFD3943F501E90025EE0FEA3E0FFE4FCFDFB7A01F9F8C31207C5502F9002657401F08027D390025FE03C
:400F8000948090025EE0940040069002657401F0900263E07004A3E0641060069002657401F090026012086AE94A4B700590026504F0900265E0600302108A121EFEEF606E
:400FC0000302108490025EE0FCA3E0FDA312086A900263E0FFA3E090026CCFF0A3EFF090025DE0FF1211DE900265EFF06407600302107F904722E0540270087F01FE121EF6
:401000006480F0904722E054026009E0FF1313543FFF80027FFFEF7006900265F0800690026574FFF0900265E0705490025DE0FFA3E0FCA3E0FD900353E0FBA3E090026AD9
:40104000F0121A90900265EFF064077032904722E0540270087F01FE121E6480F0904722E054026009E0FF1313543FFF80027FFFEF7006900265F0800690026574FFF0124B
:40108000205180069002657404F0900265E0FF227B007A4679E8121CF3EF4401FD7B007A4679E8122045E4F52CE52CC3940A502CE52C75F005A42461F582E43424AF82F571
:4010C000218F22F58312087C8F82852183740393FC740493FD121F6E052C80CDE4F52CE52CC394015046E52C75F007A42413F582E43425AF82F5238F24F58312087C8B25E1
:401100008A2689278F82852383740393FE7404938E28F529740593F52A740693F52BAD29AC28FFAE2A121EB8052C80B37E207F92121DD97B017A507903121CF3EF4402FD3B
:401140007B017A5079031220457B017A507913121CF3EF4402FD7B017A5079131220459043A0E04440F09043C2E04410F07C207D827B007A5179127F087E00121EB87C2053
:401180007D8A7B007A5179227F087E00121EB89044F47401F0904322E04408F09046ECE0C394055006904689743AF090480074F1F012150690480074B1F0121F1D7B007A41
:4011C0004379A0C00179B0900005120873D0017F0E7E00121D749043B0E054FDF022900266EFF0A3ECF0A3EDF0A312087390026E7407F0904722E0540270030212EE904756
:401200002074B6F074D5F07402F0904722E0540260030212E6900266E0904720F0E490026FF0A3F090026CE0FEA3E0FF90026FE0FCA3E0FDC39FEC9E501F90026912086A8D
:40124000E92DF9EA3CFA1205AF904720F090026FE475F0011205DA80CB90026CE064017002A3E060030212F4900266E0FFD3943F40030212F47E007C207D001208D2E42F0A
:40128000FFE43EFEED3408FDE43CFCC004A905AA06AB07A3E0FEA3E0FF7C007D201208D2D00012067290027112085EE490026FF0A3F090026FE0FEA3E0FFC39420EE94005A
:4012C0005032E4FCFDA3120852120672A907AA06AB05121CF3904720EFF090026FE475F0011205DA80CC90026E7409F0800690026E7404F090026EE0FF228B448A4589469E
:401300008C478D48755505E4F54DF54EE54C75F00AA4FFC3E54E9FE54D95F0503B121B34EF6022121B347553008F54E47F19FEFDFC1218C7121B34D3EF9554E4955350E366
:40134000E4F5558013E47F01FEFDFC1218C7054EE54E7002054D80B4AB49AA4AA94BE4F5F0120653E4F54FF550121B34EFD394005003021412121B347551008F52AB49AA8D
:401380004AA94BE5518552F012061BAB49AA4AA94B1205F0C39548E5F09547505FE4F54DF54EC3E54E9552E54D95515025121C1CAB44E5462550F9E545354FFAEF1205C8C1
:4013C0000550E5507002054F054EE54E7002054D80D0AB44E55024FFFFE54F34FFFEE5462FF9E5453EFA1205AF64177003021369E47F05FEFDFC1218C7021369AB49AA4ABB
:40140000A94B1205F0C39552FFE5F095518FF0120653AF552275930078007583467582E8E04401F0009046ECE0F99046FAE0FA90034BF0B903225420B40012B8001AEA9014
:401440001FFFF07401901FFEF09046F6F0901FFEE06005901FFFE0FA90480074C0F0758156121EDE90000078007920E4F0A3D8FCD9FAEA90034BF002001175081F7509FD1F
:401480001210900214C1022079E493A3F8E493A34003F68001F208DFF48029E493A3F85407240CC8C333C4540F4420C8834004F456800146F6DFE4800B0102040810204063
:4014C00080901B83E47E019360BCA3FF543F30E509541FFEE493A360010ECF54C025E060A840B8E493A3FAE493A3F8E493A3C8C582C8CAC583CAF0A3C8C582C8CAC583CABE
:40150000DFE9DEE780BE7B007A4079807D337C001220279040827418F09043007402F09040007408F09042007403F07B0C7A017908121CF39046A1EFF07B007A4279227D68
:40154000087C001220277B007A4279207D517C12122027E4900004F07F19FEFDFC90000012085E900000120836D3EF9400EE9400403B900004E0FF64036032904225E05440
:4015800001FEEF25E04E5403900004F0E47FE07E01FDFC121D0090000012083674FFFBFAF9F812067290000012085E80B6900000120836EF4E70057F0312207F7B007A402A
:4015C00079047D007C011220279040047407F0904006E4F09040087448F0904004E4F09040017402F09043A2E04401F0228B458A46894774011205C8AB452547F9E43546AB
:40160000FAEF1205C8E549AB45E5472402F9E43546FAE5491205C8E548FFAB45E5472403F9E43546FAEF1205C8AB45AA46A947E5492404FDE43548FC121C668E4A8F4BEFCF
:40164000AB45E5492404FDE43548FCE5472DF9E5463CFAEF1205C8E54AFFAB45E5492405FDE43548FCE5472DF9E5463CFAEF1205C8AB45E5492406FFE43548FEE5472FF9FF
:40168000E5463EFA74171205C8E5492407FDE43548FC755100755200755348755496AB45AA46A947121BD122C0E0C083C082C085C084C086758600C093759300C0D075D09F
:4016C00000C001C002C003C006C007E4FBA2AF33FAD2AF9044F474FDF090646CE0FFFE541EF960069002FDE049F0EF30E54590644AE0FE9002F9E02478F582E43402F583E5
:40170000EEF07B01EB602C900276E060069002FC7401F09002F9E004F0E0C394404002E4F0900277E0FE9002F9E0B506069002767401F0EF20E5A2AF02EA24FF92AFD007BF
:40174000D006D003D002D001D0D0D093D086D084D085D082D083D0E032752106E4FF120D84EF7002F521E4F54BF54AF549F548900357E0FEA3E0F5828E831208428F4F8E82
:401780004E8D4D8C4CE4FFFE7D10FC12192C900355E0FCA3E0F5828C83E493FEC3EF9EFFF404FFB50612900357E0FEA3E0F5828E83120842EF4E70057F00121FB79046FAFB
:4017C000E054C064406004E52160099046FAE4F0FF12001A12205D22C0E0C083C082C085C084C086758600C093759300C0D075D000C006C007A2AFE433FFD2AF9044F4742E
:40180000FDF09002FAE0FE9002B8E06E602C90646EE020E2259002B8E0C394404002E4F09002B8E024B9F582E43402F583E090644DF09002B8E004F080C8EF24FF92AFD043
:4018400007D006D0D0D093D086D084D085D082D083D0E032A9079002FAE0FF9002B8E0FEEFC39E501AEE24FFFDE434FFFCEF7A00B50508EAB504047D0180027D00800CC346
:40188000EF9EB43F047D0180027D00ED70C8EEB5070D90646EE020E20690644DE9F022EFC394404002E4FF74B92FF582E43402F583E9F00F9002FAEFF090646EE030E10609
:4018C0009044D07402F02290FFFC1208AE12085E850883850982120836D3EF9400EE9480402E90034C120836121D00850883850982C083C082120836E42FFFEE3480FEEDC9
:4019000034FFFDEC34FFFCD082D08312085E80C090034212083685088385098212085212068D121D009000041208AE228F478E468D458C44E4F550D3E54F9400E54E940025
:40194000404BAF4FAE4EAD4DAC4C74FFFBFAF9F81206728F4F8E4E8D4D8C4CE547254BFFE546354AFEE5453549FDE5443548FCEF254FFFEE354EFEED354DFDEC354CA907BD
:40198000AA06AB051205AF2550F55080AAAF5022121FE190025E74FFF0121EFEEF703B7F01121E35EF6407702C7B017A0379537D021219E6EFB40215E490025EF090472228
:4019C000E0540270107F01FE121E6480F0904722E0540260D4122051800690025E7404F090025EE0FF2290025F120873900262EDF0E4A3F0900262E0FFA3E0C39F50379065
:401A00004722E054016003D38001C340097F017E00121E6480E9904720E0FF90025F12086A900263E029F9E43AFAEF1205C8900263E004F080BE900263E0FF2290025EEC49
:401A4000F0A3EDF090025DEFF0541F25E0FFE433FEE42FFFEE3444FAA9077B0112201A900260EEF0A3EFF090025DE075F002A42400FFE5F03444FAA9077B01A3E0FEA3E0EC
:401A8000FFFDAC06122029900260E0FEA3E0FF22900267ECF0A3EDF0AC077D07904722E05402603B90472074B6F074D8F07405F0904722E054027023904720ECF09002670F
:401AC000E0904720F0900267E0A3E0904720F0EBF090026AE0904720F080067D0980027D04AF0522121FE1121EFEEF703B121F3A90025EEFF06407702A904722E0540270A1
:401B0000087F01FE121E6480F0904722E054026009E0FF1313543FFF80027FFFEF700490025EF0122051800690025E7404F090025EE0FF229044C87401F09002F9E0FE905D
:401B40000277E0B5060E900276E060047F40802CE4FF80289002F9E0FE900277E0C39E500BE0FE9002F9E0C39EFF8010900277E0FEC374409EFE9002F9E02EFF9044C07420
:401B800001F022420355251A420357251B430350000000440347016E360044034200005DC04103461844034C2EE000004102FB004102B8004102FA004102FD00410277003B
:401BC0004102F900410276004102FC0041035B00008B4C8A4D894E8C4F8D50E4F555F556121E07C3E5569550E555954F501DAB4CE54E2556F9E54D3555FA1205AFFF121874
:401C0000540556E5567002055580D8AB51AA52A953E54F8550F01206537F00229044C87401F0900277E0FE9002F9E0FD900276E07004EE6D602474782EF582E43402F583EF
:401C4000E0FF0EEEC394404002E4FE900277EEF0900276E06009E4F0800590644AE0FF9044C07401F0228B4C8A4D894EE4F54FF550D3ED9400EC94004025AB4CED24FFFFD4
:401C8000EC34FFFEE54E2FF9E54D3EFA1205AF2550F550E4354FF54FED1D70011C80D2E550F4FFE54FF4FEEF2401FFE43EFE227C167DA8E4FF121A3C7D07E4FF121F55E4B7
:401CC0009002FDF090648A7469F090648C7420F07C177DD87F01121A3C7D077F01121F5590642E7406F090643E7447F090648E7402F0228B938A838982E0759300FF22000A
:401D0000EC4D4E700D78FCEF24E950032840FD2200007BF178DA0000EF28FF78FFEE38FEED38FDEC38FC50E7EF2BFFEE38FEED38FDEC38FC40F22205020304121FCC9002FD
:401D40005DEFF090649AE04420F090649CE04410F09044C07401F090649EE04410F09044D87402F09044C0F012203690025DE0FF121F9F22758600EF4E6027EF60010E75B2
:401D80009300900005E0F595A3E0F585A3E0F5848B938A838982E0A30586F0A31586DFF6DEF4E4F593F59522121FCC9043A0E04408F09043B0E04408F090470174C8F090A8
:401DC00043ACE04410F09043BCE04410F0904700E0542060F8121F9F22ACEAADA08E838F82E493F9601CA3E493F5EAA3E493F5A0A3E49360F1FAA3E493F8A3E493F2DAF6BC
:401E0000D9E48DA08CEA22121FCC90649AE04401F0E054FEF0121F9F9044C87401F0E4900277F09002F9F0900276F09002FCF09044C004F0227E07904722E05402601F9052
:401E4000472074B6F074E1F0740EF0904722E054027007904720EFF080067E0980027E04AF062200EEFA900346E0F88FF0A4FFAEF0E88AF0A42EFEE5F03400FDEF24C9FF5A
:401E800078FFEE38FEED38FDE438FC5003021D0022121FCC90649DE04401F0E054FEF0121F9F9044C87402F0E49002B8F09002FAF09044C07402F022758600EF4E601BEFCA
:401EC00060010E8C838D828B958A858984E493A30586F0A31586DFF5DEF3E4F595229046FAE054C064807015F0FD7F02120A3DEF4E600AE4FD7F02120A3D122009229002CC
:401F0000667404F0121FCC90035BE0700704F0E4900266F0121F9F900266E0FF227B0C7A0179CF121CF3EF540790586EF0EFC4540FA3F09058767444F0227F07904722E0DD
:401F40005402600E90472074B6F074E0F0740DF080027F0422AC07ED540775F020A4FFEC541F2480F582E43444F583EFF022EC4D6011ED60010C8B938A838982E4F0A3DDB0
:401F8000FCDCFA75930022121AE490025DEFF0700812199090025DEFF090025DE0FF22EF54016004D2AF8002C2AFEF5402FF9044F4E054FD4FF02290FFFF1208AEEFF090D7
:401FC00046EA7401F09000011208AE229044F4E0F84402F0E85402FF10AF012274014FFF22121FCC9043A0E04408F09043B0E04408F0121F9F229002FBE07009121CAF9087
:4020000002FB7401F0121D3B2290034BE0FA8E838F827400758101738B938A838982E0FFA3E0FE759300228B938A838982EDF0A3ECF0759300229043A2E04401F09043B26F
:40204000E04401F0228B938A838982EDF075930022121FCCE490035BF0121F9F229046FA7480F012207122121FF6121E07121E91229046F6E04401F02212175980FE2280DC
:40208000FE22007F7B007B00000030D8C800D800000016005205082309121098118814200064047E3F8A698C3A8E0F010101E204010301E6020105028702E008010604B82E
:4020C00002BE01D804DF010107021B02A702010A088501890195019901B101BF01D904DF01010B4F00400106038808010A040B111028130219641A041B0A202021082230E9
:40210000274028282A022B022E033080310232103304340836203708382239803A083C283E084028410843824A024B0152045B4068286A016B027090712072108D408E104D
:402140008F809042910493109621980199029B0C9D649E049F80A004A102A202A490A520A702AB01B021B405B602B744C00FC20FC40ECA0FCC6FCE6FD00FD208D608E0083A
:40218000E801010C4C0001021608E70A180E3F101E120114C6163918481C88208824DD262228232ADC2CC8301F320834E03A22541A560458045B045F018008824284F88698
:4021C000018704880F89028AF08D068EC792849308943996C698109C20A020A101A43FA6C0A906AA08AC30B031B106B308B501B6FFB702B982BE40BF11C062C101C5E0C6DA
:40220000CBC80EC9FFCAFFCBFFCEF0CF44D00CD804D904DA04DF01E6C0EA40EB02010D46002901100210030B04010709080209260A310D220E11108012481388151016502C
:402240001780180219021C081D021E201F20200421012208230128402920320238C839A43A083B10414042084921502053405E205F026540674887409088912093089502C2
:40228000978098409B4A9C029D259E049F04A420A504A72AB001B301C0DFC2FFC4FFCA05CC01CE0ED00CD204D6A0D8B0010E4E040906D007230B080C0C0D210E710F0E1048
:4022C00014141016AC170C18DC1A221B201E0321102410264029212A202B062D0C2F2330E03310350F361F37203A023B203F444004464049FF4A074BFF4C404D204EF04F8A
:4023000005500854015604580459045A045B045F01604061A862406320871F89198B0691019304950997029A01A506A719A919AA01AB06AF0FB201B310B507B708B908BB65
:4023400020BE04D804D904DB04DF01010F3C004404040504084809200A010B800E0810081210160418C01A011F042130224425102604270A280829212A802F2A303031047A
:402380003402370438883A103D284101500C5210581059015A886380680169046A206B406F0171407304821083408550868089048B04C005C24FC446CA7DCCC6CE6ED00101
:4023C000D60FD801E40C014005322035808180CC30E2200141038620A620E6400144058301870188C0E004E40401450F0C0857025B046401660193029889A040A301B009C2
:40240000C204D607D801E801EC0401460D8702900893029888A040A301A702AB04B40CB601E808EC02EE08014705900893029888A040A301014C0E5004544057015808607D
:40244000806702900893029888A040A301D406D607D80201500300010C010E01015101000F005100001000513000400051C000100051F000100100000A00010A800580018E
:40248000140008000140000A00014C000200015000002000008080207D050000040800130C0400030204200A031410130C0C7300088000400800004043003C404F003000DE
:4024C0000000734000303F0FC0800008002028000040003402010005C0000E12FFFFFF62A0F0410C00000000000210040404040000000100000000000040020010301000CE
:4025000010101200000000000000000000000000000000010A002493008061000026006930091E031E010100000000000000000000000000000000000000000000000000BD
:40254000000000000000000000000000000000000000000000000000000000000000000000000000000000000000000000000000000000000000000000000000000000005B
:40258000000000000000000000000000000000000000000000000000000000000000000000000000000000000000000000000000000000000000000000000000000000001B
:4025C00000000000000000000000000000000000000000000000000000000000000000000000000000000000000000000000000000000000000000000000000000000000DB
:4026000002A197008F828E83E0540100000070F82278FFE4F6D8FD02A225900029EEF0A3EFF0782B7C007D017BFF7A5779177E077F6D1278639007987407F0A3746DF0781B
:402640009F7C077D017BFF7A5E79847E007F0F12786378AE7C077D017BFF7A5E79937E007F1C12786378CA7C077D017BFF7A5E79AF7E007F1B12786378E57C077D017BFF4D
:402680007A5E79CA7E007F1C12786378017C087D017BFF7A5E79E67E007F1B127863781C7C087D017BFF7A5F79017E007F2712786378437C087D017BFF7A5F79287E007FA6
:4026C0001512786378587C087D017BFF7A5F793D7E007F1912786378717C087D017BFF7A5F79567E007F1112786378827C087D017BFF7A5F79677E007F1C127863789E7C2B
:40270000087D017BFF7A5F79837E007F1D12786378BB7C087D017BFF7A5F79A07E007F1B12786378D67C087D017BFF7A5F79BB7E007F1412786378EA7C087D017BFF7A5F8B
:4027400079CF7E007F20127863780A7C097D017BFF7A5F79EF7E007F24127863782E7C097D017BFF7A6079137E007F1812786378467C097D017BFF7A60792B7E007F251241
:402780007863786B7C097D017BFF7A6079507E007F1612786378817C097D017BFF7A6079667E007F2712786378A87C097D017BFF7A60798D7E007F2312786378CB7C097D2C
:4027C000017BFF7A6079B07E007F1F12786378EA7C097D017BFF7A6079CF7E007F0E12786378F87C097D017BFF7A6079DD7E007F22127863781A7C0A7D017BFF7A6079FFCE
:402800007E007F21127863783B7C0A7D017BFF7A6179207E007F1512786378507C0A7D017BFF7A6179357E007F3412786378847C0A7D017BFF7A6179697E007F3B127863A0
:4028400078BF7C0A7D017BFF7A6179A47E007F2A12786378E97C0A7D017BFF7A6179CE7E007F161278637B017A07799F12BF368F697B017A0779AE12BF368F6A7B017A0761
:4028800079CA12BF368F6B7B017A08794312BF368F6C7B017A08795812BF368F6D7B017A08797112BF368F6E7B017A08799E12BF368F6F7B017A0879D612BF368F707B0171
:4028C0007A0879EA12BF368F717B017A09790A12BF368F727B017A09792E12BF368F737B017A09796B12BF368F747B017A0A795012BF368F757B017A0A798412BF368F76E9
:402900007B017A0A79BF12BF368F777B017A0A79E912BF368F787B017A0979A812BF368F797B017A0979CB12BF368F7A7B017A0979EA12BF368F7B7B017A0A791A12BF3653
:40294000900AFFEFF090002B740CF0A37419F0900029E0FEA3E0FFEE6003023E70EFB41A004003023E7090296DF82828730229BB0238BF0238C8023998023A68023A7B02D8
:402980003A84023A8D023AC6023B71023BD8023BE1023D06023D8C023D9C023DB1023DC1023DD1023DE8023DF8023E0C023E21023E36023E3F023E53023E6890002D740254
:4029C000F0A314F0900B0AE090002FF0756700856968E5684567602CC3E5699568FFE49567FE749F2FF58274073EF583E0FD74302FF58274003EF583EDF0E5681568700216
:402A0000156780CE90005F7407F0A37403F0900B3FE064036068900B0BE0FCA3E0FDA3E0FEA3E0FFEC12713FE4FBFA79807847127029900061127704900B0FE0FCA3E0FD0C
:402A4000A3E0FEA3E0FFEC12713FE4FBFA79807847127029900065127704900B13E0FCA3E0FDA3E0FEA3E0FFEC12713FE4FBFA798078471270299000691277048066900BE9
:402A800023E0FCA3E0FDA3E0FEA3E0FFEC12713FE4FBFA79807847127029900061127704900B27E0FCA3E0FDA3E0FEA3E0FFEC12713FE4FBFA79807847127029900065121A
:402AC0007704900B2BE0FCA3E0FDA3E0FEA3E0FFEC12713FE4FBFA79807847127029900069127704756700856A68E5684567602CC3E56A9568FFE49567FE74AE2FF58274E6
:402B0000073EF583E0FD746D2FF58274003EF583EDF0E56815687002156780CE9000917407F0A37403F0900B3FE064036068900B17E0FCA3E0FDA3E0FEA3E0FFEC12713F29
:402B4000E4FBFA79807847127029900093127704900B1BE0FCA3E0FDA3E0FEA3E0FFEC12713FE4FBFA79807847127029900097127704900B1FE0FCA3E0FDA3E0FEA3E0FF9D
:402B8000EC12713FE4FBFA7980784712702990009B1277048066900B2FE0FCA3E0FDA3E0FEA3E0FFEC12713FE4FBFA79807847127029900093127704900B33E0FCA3E0FDA0
:402BC000A3E0FEA3E0FFEC12713FE4FBFA79807847127029900097127704900B37E0FCA3E0FDA3E0FEA3E0FFEC12713FE4FBFA7980784712702990009B1277047567008500
:402C00006B68E5684567602CC3E56B9568FFE49567FE74CA2FF58274073EF583E0FD749F2FF58274003EF583EDF0E56815687002156780CEE49000C3F0A304F0900B3DE021
:402C40009000C5F0900B3D601F900B0374FFF0A37451F0A37468F07B017A0779E512B26490079A741CF0801D900B0374FFF0A37451F0A3746EF07B017A0779E512B264903E
:402C8000079A741BF090079AE0756700F568E5684567602E90079AE0C39568FFE49567FE74E52FF58274073EF583E0FD74C62FF58274003EF583EDF0E568156870021567C9
:402CC00080CC90079AE024C6F582E43400F5837403F0E49000F5F0A304F0900B3EE09000F7F0900B3E14602204703C900B0374FFF0A37451F0A37473F07B017A0879011283
:402D0000B26490079A7414F0801D900B0374FFF0A37451F0A37479F07B017A08790112B26490079A741AF090079AE0756700F568E5684567602E90079AE0C39568FFE495F5
:402D400067FE74012FF58274083EF583E0FD74F82FF58274003EF583EDF0E56815687002156780CC90079AE024F8F582E43400F5837401F0E4900127F0A304F0900B3FE031
:402D8000900129F0900B3F1460291460451460612403707A900B0374FFF0A37451F0A37485F07B017A08791C12B26490079A741BF0805B900B0374FFF0A37451F0A3749028
:402DC000F07B017A08791C12B26490079A7416F0803C900B0374FFF0A37451F0A37496F07B017A08791C12B26490079A741AF0801D900B0374FFF0A37451F0A374A0F07B49
:402E0000017A08791C12B26490079A7427F090079AE0756700F568E5684567602E90079AE0C39568FFE49567FE741C2FF58274083EF583E0FD742A2FF58274013EF583ED76
:402E4000F0E56815687002156780CC90079AE0242AF582E43401F5837402F0900159F0A304F0E4F567F568C3E5689403E5679400502674402568F582740B3567F583E0FF5C
:402E8000745B2568F58274013567F583EFF00568E5687002056780CF756700856C68E5684567602CC3E56C9568FFE49567FE74432FF58274083EF583E0FD745E2FF58274F0
:402EC000013EF583EDF0E56815687002156780CE90018B7403F0A3F0E4F567F568C3E5689403E56794005059E568AE677802C333CE33CED8F92443F582740B3EF583E0FCF4
:402F0000A3E0FDA3E0FEA3E0FF74402568F582740B3567F583E0F9F81276A3AD07AC06E56825E0FFE56733FE748D2FF58274013EF583ECF0A3EDF00568E56870020567804D
:402F40009C756700856D68E5684567602CC3E56D9568FFE49567FE74582FF58274083EF583E0FD74932FF58274013EF583EDF0E56815687002156780CE9001BD7407F0A373
:402F80007403F0E4F567F568C3E5689403E56794005054E568AE677802C333CE33CED8F9244FF582740B3EF583E0FCA3E0FDA3E0FEA3E0FFC004C005C006C007E568AE677A
:402FC0007802C333CE33CED8F924BFF58274013EF583D007D006D005D0041277040568E5687002056780A1E4F567F5687B017A08797112BF36C3E5689FE5679E5026747120
:403000002568F58274083567F583E0FF74CB2568F58274013567F583EFF00568E5687002056780C8E49001EFF0A304F0900B5BE09001F1F0900B5B601F900B0374FFF0A346
:403040007451F0A37468F07B017A08798212B26490079A741CF0801D900B0374FFF0A37451F0A3746EF07B017A08798212B26490079A741BF090079AE0756700F568E56887
:403080004567602E90079AE0C39568FFE49567FE74822FF58274083EF583E0FD74F22FF58274013EF583EDF0E56815687002156780CC90079AE024F2F582E43401F58374C2
:4030C00003F09002217405F0A314F0E4F567F568C3E5689402E567940040030231A1E568AE677802C333CE33CED8F9245CF582740B3EF583E0FCA3E0FDA3E0FEA3E0FF746F
:40310000402568F582740B3567F583E0F9F81276A3C004C005C006C007E568AE677803C333CE33CED8F92423F58274023EF583D007D006D005D004127704E568AE6778028A
:40314000C333CE33CED8F92464F582740B3EF583E0FCA3E0FDA3E0FEA3E0FF74402568F582740B3567F583E0F9F81276A3C004C005C006C007E568AE677803C333CE33CE27
:40318000D8F92427F58274023EF583D007D006D005D0041277040568E568700205670230D0756700856F68E5684567602CC3E56F9568FFE49567FE749E2FF58274083EF5BE
:4031C00083E0FD74332FF58274023EF583EDF0E56815687002156780CE9002537405F0A37402F0900B70E0FCA3E0FDA3E0FEA3E0FF900255127704900B74E0FCA3E0FDA3D0
:40320000E0FEA3E0FF900259127704E4F567F5687B017A0879BB12BF36C3E5689FE5679E502674BB2568F58274083567F583E0FF745D2568F58274023567F583EFF0056884
:40324000E5687002056780C89002857403F0A37401F0900B3BE0FFA3E0900287CFF0A3EFF0756700857068E5684567602CC3E5709568FFE49567FE74D62FF58274083EF574
:4032800083E0FD74892FF58274023EF583EDF0E56815687002156780CE9002B77407F0A37401F0900B79E0FCA3E0FDA3E0FEA3E0FF9002B9127704756700857168E5684529
:4032C00067602CC3E5719568FFE49567FE74EA2FF58274083EF583E0FD74BD2FF58274023EF583EDF0E56815687002156780CE9002E97403F0A37401F0900B7DE0FFA3E08B
:403300009002EBCFF0A3EFF0756700857268E5684567602CC3E5729568FFE49567FE740A2FF58274093EF583E0FD74ED2FF58274023EF583EDF0E56815687002156780CED1
:4033400090031B7403F0A37401F0900B7FE0FFA3E090031DCFF0A3EFF0756700857368E5684567602CC3E5739568FFE49567FE742E2FF58274093EF583E0FD741F2FF5827C
:4033800074033EF583EDF0E56815687002156780CEE490034DF0A304F0900B78E090034FF0900B78601F900B0374FFF0A37451F0A37468F07B017A09794612B26490079A7C
:4033C0007425F0801D900B0374FFF0A37451F0A3746EF07B017A09794612B26490079A7424F090079AE0756700F568E5684567602E90079AE0C39568FFE49567FE74462FD2
:40340000F58274093EF583E0FD74502FF58274033EF583EDF0E56815687002156780CC90079AE02450F582E43403F5837403F090037F04F0A37401F0900B8CE0FFA3E09070
:403440000381CFF0A3EFF0756700857468E5684567602CC3E5749568FFE49567FE746B2FF58274093EF583E0FD74832FF58274033EF583EDF0E56815687002156780CEE4A9
:403480009003B1F0A304F0900B81E09003B3F0900B81601F900B0374FFF0A37451F0A37468F07B017A09798112B26490079A7427F0801D900B0374FFF0A37451F0A3746E54
:4034C000F07B017A09798112B26490079A7426F090079AE0756700F568E5684567602E90079AE0C39568FFE49567FE74812FF58274093EF583E0FD74B42FF58274033EF55E
:4035000083EDF0E56815687002156780CC90079AE024B4F582E43403F5837403F09003E37405F0A37401F0900B82E0FCA3E0FDA3E0FEA3E0FF9003E512770475670085798B
:4035400068E5684567602CC3E5799568FFE49567FE74A82FF58274093EF583E0FD74E92FF58274033EF583EDF0E56815687002156780CE9004157405F0A37401F0900B8643
:40358000E0FCA3E0FDA3E0FEA3E0FF900417127704756700857A68E5684567602CC3E57A9568FFE49567FE74CB2FF58274093EF583E0FD741B2FF58274043EF583EDF0E596
:4035C0006815687002156780CE9004477402F0A314F0900B8AE0900449F0756700857B68E5684567602CC3E57B9568FFE49567FE74EA2FF58274093EF583E0FD744A2FF534
:403600008274043EF583EDF0E56815687002156780CEE4900479F0A304F0900B8BE090047BF0900B8B601F900B0374FFF0A37451F0A37468F07B017A0979F812B2649007DE
:403640009A7422F0801D900B0374FFF0A37451F0A3746EF07B017A0979F812B26490079A7421F090079AE0756700F568E5684567602E90079AE0C39568FFE49567FE74F886
:403680002FF58274093EF583E0FD747C2FF58274043EF583EDF0E56815687002156780CC90079AE0247CF582E43404F5837403F09004AB7405F0A37401F0900B8EE0FCA334
:4036C000E0FDA3E0FEA3E0FF9004AD127704900AFFE0756700F568E5684567602E900AFFE0C39568FFE49567FE741A2FF582740A3EF583E0FD74B12FF58274043EF583EDA2
:40370000F0E56815687002156780CCE49004DDF0A304F0900B92E09004DFF0900B92601F900B0374FFF0A37451F0A374B7F07B017A0A793B12B26490079A7414F0801D90D4
:403740000B0374FFF0A37451F0A374BEF07B017A0A793B12B26490079A7415F090079AE0756700F568E5684567602E90079AE0C39568FFE49567FE743B2FF582740A3EF5B0
:4037800083E0FD74E02FF58274043EF583EDF0E56815687002156780CC90079AE024E0F582E43404F5837404F0756700857568E5684567602CC3E5759568FFE49567FE74EA
:4037C000502FF582740A3EF583E0FD740F2FF58274053EF583EDF0E56815687002156780CE756700857668E5684567602CC3E5769568FFE49567FE74842FF582740A3EF57C
:4038000083E0FD74A52FF58274053EF583EDF0E56815687002156780CE756700857768E5684567602CC3E5779568FFE49567FE74BF2FF582740A3EF583E0FD743B2FF5825A
:4038400074063EF583EDF0E56815687002156780CE756700857868E5684567602CC3E5789568FFE49567FE74E92FF582740A3EF583E0FD74D12FF58274063EF583EDF0E584
:403880006815687002156780CE7B017A00792B900798E0A3E014FD12BAA2900798E0FCA3E0FD242AF58274003CF583EFF07B017A00792BE4900B05F012AAE712BFF62290BB
:4038C0000C5AE0900B9DF022900B3FE064036064E4FFFE7D807C47900C5AE0F8A3E0F9A3E0FAA3E0FB126F2012717D900B9E127704E4FFFE7D807C47900C5EE0F8A3E0F917
:40390000A3E0FAA3E0FB126F2012717D900BA2127704E4FFFE7D807C47900C62E0F8A3E0F9A3E0FAA3E0FB126F2012717D900BA612770422E4FFFE7D807C47900C5AE0F833
:40394000A3E0F9A3E0FAA3E0FB126F2012717D900BB6127704E4FFFE7D807C47900C5EE0F8A3E0F9A3E0FAA3E0FB126F2012717D900BBA127704E4FFFE7D807C47900C6245
:40398000E0F8A3E0F9A3E0FAA3E0FB126F2012717D900BBE12770422900B3FE064036064E4FFFE7D807C47900C5AE0F8A3E0F9A3E0FAA3E0FB126F2012717D900BAA1277D5
:4039C00004E4FFFE7D807C47900C5EE0F8A3E0F9A3E0FAA3E0FB126F2012717D900BAE127704E4FFFE7D807C47900C62E0F8A3E0F9A3E0FAA3E0FB126F2012717D900BB286
:403A000012770422E4FFFE7D807C47900C5AE0F8A3E0F9A3E0FAA3E0FB126F2012717D900BC2127704E4FFFE7D807C47900C5EE0F8A3E0F9A3E0FAA3E0FB126F2012717DDB
:403A4000900BC6127704E4FFFE7D807C47900C62E0F8A3E0F9A3E0FAA3E0FB126F2012717D900BCA12770422900C5AE06007900BD07403F022E4900BD0F022900C5AE090BD
:403A80000BD1F022900C5AE0900BD2F022E4F567F568C3E5689403E56794004003023E70745A2568F582740C3567F583E0FF74D32568F582740B3567F583EFF00568E568F0
:403AC0007002056780CCE4F567F568C3E5689403E56794004003023B6EE56825E0FFE56733FE745A2FF582740C3EF583E0FEA3E0FFEE3395E0FDFCC004C005C006C007E528
:403B000068AE677802C333CE33CED8F9FBAA0624D6F582740B3AF583D007D006D005D00412770474D62BF582740B3AF583C083C082E0FCA3E0FDA3E0FEA3E0FF74D32568F3
:403B4000F582740B3567F583E0F9F81276B7D082D08312770474092568F582740D3567F583E4F00568E56870020567023ACBD20E22E4F567F568C3E5689403E5679400400A
:403B800003023E70E568AE677802C333CE33CED8F9245AF582740C3EF583E0FCA3E0FDA3E0FEA3E0FFC004C005C006C007E568AE677802C333CE33CED8F924E2F582740BD2
:403BC0003EF583D007D006D005D0041277040568E56870020567809E900C5AE0900BEEF022E4F567F568C3E5689402E56794004003023E70E568AE677803C333CE33CED875
:403C0000F9245AF582740C3EF583E0FCA3E0FDA3E0FEA3E0FFC004C005C006C007E568AE677802C333CE33CED8F924EFF582740B3EF583D007D006D005D004127704E5688A
:403C4000AE677803C333CE33CED8F9245EF582740C3EF583E0FCA3E0FDA3E0FEA3E0FFC004C005C006C007E568AE677802C333CE33CED8F9FBAA0624F7F582740B3AF5839A
:403C8000D007D006D005D00412770474EF2BF582740B3AF583C083C082E0FCA3E0FDA3E0FEA3E0FF74D32568F582740B3567F583E0F9F81276B7D082D083127704E568AEEC
:403CC000677802C333CE33CED8F924F7F582740B3EF583C083C082E0FCA3E0FDA3E0FEA3E0FF74D32568F582740B3567F583E0F9F81276B7D082D0831277040568E5687058
:403D0000020567023BE6900C5AE0FCA3E0FDA3E0FEA3E0FF90079B127704E4FFFEFDFC90079BE0F8A3E0F9A3E0FAA3E0FBD3127669501490079BE0FCA3E0FDA3E0FEA3E0C9
:403D4000FF900C03127704900C5EE0FCA3E0FDA3E0FEA3E0FF90079B127704E4FFFEFDFC90079BE0F8A3E0F9A3E0FAA3E0FBC31276695003023E7090079BE0FCA3E0FDA3BD
:403D8000E0FEA3E0FF900C0712770422900C5AE0FFA3E0900BCECFF0A3EFF022900C5AE0FCA3E0FDA3E0FEA3E0FF900C0C12770422900C5AE0FFA3E0900C10CFF0A3EFF03C
:403DC00022900C5AE0FFA3E0900C12CFF0A3EFF022900C5AE0900C0BF07003023E70E4900C14F0900C1EF022900C5AE0FFA3E0900C1FCFF0A3EFF022900C5AE0900C14F06C
:403E0000606EE4900C0BF0900C1EF022900C5AE0FCA3E0FDA3E0FEA3E0FF900C1512770422900C5AE0FCA3E0FDA3E0FEA3E0FF900C1912770422900C5AE0900C1DF02290CE
:403E40000C5AE0900C1EF06027E4900C0BF0900C14F022900C5AE0FCA3E0FDA3E0FEA3E0FF900C2112770422900C5AE0900C25F022900605EBF0A3EAF0A3E9F0900605E03A
:403E8000FBA3E0FAA3E0F8AC02AD037BFF7A5179C6127941900B0374FFF0A37451F0A374C7F0900605E0FBA3E0FAA3E0F912B264900B0374FFF0A37451F0A374CAF09006E3
:403EC00005E0FBA3E0FAA3E0F912B264900B0374FFF0A37451F0A374DDF0900605E0FBA3E0FAA3E0F912B264900B0374FFF0A37451F0A374EDF0900605E0FBA3E0FAA3E02A
:403F0000F912B264900B0374FFF0A37451F0A374F3F0900605E0FBA3E0FAA3E0F912B26490063D74FFF0A37452F0A37401F0900B0AE0FF900640E4F0A3EFF07B017A0679BA
:403F400008127A3B900B037401F0A37406F0A37408F0900605E0FBA3E0FAA3E0F912B26490063D74FFF0A37452F0A3740AF0A3E4F0A37403F07B017A067908127A3B900BBC
:403F8000037401F0A37406F0A37408F0900605E0FBA3E0FAA3E0F912B26490063D74FFF0A37452F0A37422F0900B8CE0FFA3E0900640CFF0A3EFF07B017A067908127A3B4A
:403FC000900B037401F0A37406F0A37408F0900605E0FBA3E0FAA3E0F912B26490063D74FFF0A37452F0A37437F0900D18E0FF900640E4F0A3EFF07B017A067908127A3B3A
:40400000900B037401F0A37406F0A37408F0900605E0FBA3E0FAA3E0F912B264900B0374FFF0A37451F0A374C7F0900605E0FBA3E0FAA3E0F912B264900B0374FFF0A374F4
:4040400052F0A37447F0900605E0FBA3E0FAA3E0F912B264900B0374FFF0A37452F0A37454F0900605E0FBA3E0FAA3E0F912B264E4F567F568C3E5689402E5676480948046
:40408000507990063D74FFF0A37452F0A37467F0E568AE677802C333CE33CED8F9244EF582740C3EF583E0FCA3E0FDA3E0FEA3E0FF74402568F582740B3567F583E0F9F82E
:4040C0001276A3900640EEF0A3EFF07B017A067908127A3B900B037401F0A37406F0A37408F0900605E0FBA3E0FAA3E0F912B2640568E56870020567024075900B0374FF05
:40410000F0A37451F0A374C7F0900605E0FBA3E0FAA3E0F912B26490063D74FFF0A37452F0A3746BF07B017A067908127A3B900C56E054036019900B0374FFF0A37452F091
:40414000A3747BF07B017A06790812B2648017900B0374FFF0A37452F0A37481F07B017A06790812B264900B037401F0A37406F0A37408F0900605E0FBA3E0FAA3E0F9125A
:40418000B264900B0374FFF0A37452F0A37486F0900605E0FBA3E0FAA3E0F912B264900B0374FFF0A37452F0A3749CF0900605E0FBA3E0FAA3E0F912B264E4F567F568C377
:4041C000E5689403E56764809480400302427390063D74FFF0A37452F0A374ACF0E5682401900641F0E43567900640F0E568AE677802C333CE33CED8F92427F582740C3EEA
:40420000F583E0FCA3E0FDA3E0FEA3E0FF74402568F582740B3567F583E0F9F81276A3900642EEF0A3EFF07B017A067908127A3B900B037401F0A37406F0A37408F090062F
:4042400005E0FBA3E0FAA3E0F912B264900B0374FFF0A37451F0A374C7F0900605E0FBA3E0FAA3E0F912B2640568E568700205670241BF90063D74FFF0A37452F0A374B58A
:40428000F0900C4AE0FCA3E0FDA3E0FEA3E0FF9006401277047B017A067908127A3B900B037401F0A37406F0A37408F0900605E0FBA3E0FAA3E0F912B264900B0374FFF06B
:4042C000A37451F0A374C7F0900605E0FBA3E0FAA3E0F912B26490063D74FFF0A37452F0A374C7F0900C33E0FEA3E0FFEE3395E0FDFC9006401277047B017A067908127A7A
:404300003B900B037401F0A37406F0A37408F0900605E0FBA3E0FAA3E0F912B264900B0374FFF0A37451F0A374C7F0900605E0FBA3E0FAA3E0F912B26490063D74FFF0A3F5
:404340007452F0A374DBF0900C35E0FEA3E0FFEE3395E0FDFC9006401277047B017A067908127A3B900B037401F0A37406F0A37408F0900605E0FBA3E0FAA3E0F912B26488
:40438000900B0374FFF0A37451F0A374C7F0900605E0FBA3E0FAA3E0F912B264900B0374FFF0A37452F0A374EFF0900605E0FBA3E0FAA3E0F912B264900B0374FFF0A37440
:4043C00053F0A37405F0900605E0FBA3E0FAA3E0F912B264900B3FE0640370030244E190063D74FFF0A37453F0A37417F0900B0BE0FCA3E0FDA3E0FEA3E0FFEC12713FE4D7
:40440000FBFA798078471270299006401277047B017A067908127A3B900B037401F0A37406F0A37408F0900605E0FBA3E0FAA3E0F912B26490063D74FFF0A37453F0A37420
:4044400021F0900B0FE0FCA3E0FDA3E0FEA3E0FFEC12713FE4FBFA798078471270299006401277047B017A067908127A3B900B037401F0A37406F0A37408F0900605E0FBFC
:40448000A3E0FAA3E0F912B26490063D74FFF0A37453F0A3742BF0900B13E0FCA3E0FDA3E0FEA3E0FFEC12713FE4FBFA798078471270299006401277047B017A0679081230
:4044C0007A3B900B037401F0A37406F0A37408F0900605E0FBA3E0FAA3E0F912B2640245E090063D74FFF0A37453F0A37417F0900B23E0FCA3E0FDA3E0FEA3E0FFEC1271F0
:404500003FE4FBFA798078471270299006401277047B017A067908127A3B900B037401F0A37406F0A37408F0900605E0FBA3E0FAA3E0F912B26490063D74FFF0A37453F013
:40454000A37421F0900B27E0FCA3E0FDA3E0FEA3E0FFEC12713FE4FBFA798078471270299006401277047B017A067908127A3B900B037401F0A37406F0A37408F0900605A7
:40458000E0FBA3E0FAA3E0F912B26490063D74FFF0A37453F0A3742BF0900B2BE0FCA3E0FDA3E0FEA3E0FFEC12713FE4FBFA798078471270299006401277047B017A067956
:4045C00008127A3B900B037401F0A37406F0A37408F0900605E0FBA3E0FAA3E0F912B264900B0374FFF0A37453F0A37435F0900605E0FBA3E0FAA3E0F912B264900B3FE04E
:404600006403700302470990063D74FFF0A37453F0A37417F0900B17E0FCA3E0FDA3E0FEA3E0FFEC12713FE4FBFA798078471270299006401277047B017A067908127A3BFE
:40464000900B037401F0A37406F0A37408F0900605E0FBA3E0FAA3E0F912B26490063D74FFF0A37453F0A37421F0900B1BE0FCA3E0FDA3E0FEA3E0FFEC12713FE4FBFA79B7
:404680008078471270299006401277047B017A067908127A3B900B037401F0A37406F0A37408F0900605E0FBA3E0FAA3E0F912B26490063D74FFF0A37453F0A3742BF09061
:4046C0000B1FE0FCA3E0FDA3E0FEA3E0FFEC12713FE4FBFA798078471270299006401277047B017A067908127A3B900B037401F0A37406F0A37408F0900605E0FBA3E0FA8E
:40470000A3E0F912B26402480890063D74FFF0A37453F0A37417F0900B2FE0FCA3E0FDA3E0FEA3E0FFEC12713FE4FBFA798078471270299006401277047B017A06790812D0
:404740007A3B900B037401F0A37406F0A37408F0900605E0FBA3E0FAA3E0F912B26490063D74FFF0A37453F0A37421F0900B33E0FCA3E0FDA3E0FEA3E0FFEC12713FE4FB5C
:40478000FA798078471270299006401277047B017A067908127A3B900B037401F0A37406F0A37408F0900605E0FBA3E0FAA3E0F912B26490063D74FFF0A37453F0A3742B6D
:4047C000F0900B37E0FCA3E0FDA3E0FEA3E0FFEC12713FE4FBFA798078471270299006401277047B017A067908127A3B900B037401F0A37406F0A37408F0900605E0FBA3CF
:40480000E0FAA3E0F912B264900B0374FFF0A37451F0A374C7F0900605E0FBA3E0FAA3E0F912B264900B3DE0B4031E900B0374FFF0A37453F0A3744FF0900605E0FBA3E005
:40484000FAA3E0F912B264801C900B0374FFF0A37453F0A37469F0900605E0FBA3E0FAA3E0F912B264900B3EE014602104703A900B0374FFF0A37453F0A37482F090060521
:40488000E0FBA3E0FAA3E0F912B264801C900B0374FFF0A37453F0A37494F0900605E0FBA3E0FAA3E0F912B264900B0374FFF0A37453F0A374ABF0900605E0FBA3E0FAA330
:4048C000E0F912B264900B3FE014602814604314605E24037076900B0374FFF0A37453F0A374BAF0900605E0FBA3E0FAA3E0F912B2648058900B0374FFF0A37453F0A374CE
:40490000C5F0900605E0FBA3E0FAA3E0F912B264803A900B0374FFF0A37453F0A374CBF0900605E0FBA3E0FAA3E0F912B264801C900B0374FFF0A37453F0A374D5F0900644
:4049400005E0FBA3E0FAA3E0F912B264900B0374FFF0A37453F0A374ECF0900605E0FBA3E0FAA3E0F912B264E4F567F568C3E5689403E56764809480507F90063D74FFF0C4
:40498000A37452F0A374ACF0E5682401900641F0E43567900640F074402568F582740B3567F583E0FF900642E4F0A3EFF07B017A067908127A3B900B037401F0A37406F0C0
:4049C000A37408F0900605E0FBA3E0FAA3E0F912B264900B0374FFF0A37451F0A374C7F0900605E0FBA3E0FAA3E0F912B2640568E5687002056702496D900B0374FFF0A35F
:404A00007454F0A37401F0900605E0FBA3E0FAA3E0F912B264E4F567F568C3E5689403E567648094804003024ACC90063D74FFF0A37454F0A37417F0E5682401900641F054
:404A4000E43567900640F0E568AE677802C333CE33CED8F92443F582740B3EF583E0FCA3E0FDA3E0FEA3E0FF74402568F582740B3567F583E0F9F81276A390064212770460
:404A80007B017A067908127A3B900B037401F0A37406F0A37408F0900605E0FBA3E0FAA3E0F912B264900B0374FFF0A37451F0A374C7F0900605E0FBA3E0FAA3E0F912B2A2
:404AC000640568E56870020567024A1A900B0374FFF0A37454F0A37421F0900605E0FBA3E0FAA3E0F912B264E4F567F568C3E5689403E567648094804003024B8D90063DC1
:404B000074FFF0A37454F0A3743BF0E5682401900641F0E43567900640F0E568AE677802C333CE33CED8F9244FF582740B3EF583E0FCA3E0FDA3E0FEA3E0FF9006421277A5
:404B4000047B017A067908127A3B900B037401F0A37406F0A37408F0900605E0FBA3E0FAA3E0F912B264900B0374FFF0A37451F0A374C7F0900605E0FBA3E0FAA3E0F9128F
:404B8000B2640568E56870020567024AED900B0374FFF0A37454F0A37444F0900605E0FBA3E0FAA3E0F912B26490063D74FFF0A37454F0A3747AF0900B79E0FCA3E0FDA3AB
:404BC000E0FEA3E0FF9006401277047B017A067908127A3B900B037401F0A37406F0A37408F0900605E0FBA3E0FAA3E0F912B264900B0374FFF0A37451F0A374C7F090063B
:404C000005E0FBA3E0FAA3E0F912B264900B0374FFF0A37454F0A3747DF0900605E0FBA3E0FAA3E0F912B26490063D74FFF0A37454F0A37490F0900B7DE0FFA3E090064084
:404C4000CFF0A3EFF07B017A067908127A3B900B037401F0A37406F0A37408F0900605E0FBA3E0FAA3E0F912B264900B0374FFF0A37451F0A374C7F0900605E0FBA3E0FADF
:404C8000A3E0F912B264900B0374FFF0A37454F0A37494F0900605E0FBA3E0FAA3E0F912B26490063D74FFF0A37454F0A37490F0900B7FE0FFA3E0900640CFF0A3EFF07B8C
:404CC000017A067908127A3B900B037401F0A37406F0A37408F0900605E0FBA3E0FAA3E0F912B264900B0374FFF0A37454F0A374A0F0900605E0FBA3E0FAA3E0F912B2649B
:404D000090063D74FFF0A37454F0A374A4F0900BEEE0FF900640E4F0A3EFF07B017A067908127A3B900B037401F0A37406F0A37408F0900605E0FBA3E0FAA3E0F912B264A9
:404D4000900B0374FFF0A37451F0A374C7F0900605E0FBA3E0FAA3E0F912B264E4F567F568C3E5689402E567648094804003024E6390063D74FFF0A37454F0A374BEF0E5BD
:404D8000682401900641F0E43567900640F0E568AE677802C333CE33CED8F924EFF582740B3EF583E0FCA3E0FDA3E0FEA3E0FF74D32568F582740B3567F583E0F9F8127692
:404DC000A39006421277047B017A067908127A3B900B037401F0A37406F0A37408F0900605E0FBA3E0FAA3E0F912B26490063D74FFF0A37454F0A374E4F0E568AE67780259
:404E0000C333CE33CED8F924F7F582740B3EF583E0FCA3E0FDA3E0FEA3E0FF74D32568F582740B3567F583E0F9F81276A39006401277047B017A067908127A3B900B037423
:404E400001F0A37406F0A37408F0900605E0FBA3E0FAA3E0F912B2640568E56870020567024D6190063D74FFF0A37454F0A374F1F0900BFFE0FEA3E0FF900BD3E0FDEFA8E1
:404E800005088006CEA2E713CE13D8F8FF900640EEF0A3EFF07B017A067908127A3B900B037401F0A37406F0A37408F0900605E0FBA3E0FAA3E0F912B264900B0374FFF014
:404EC000A37451F0A374C7F0900605E0FBA3E0FAA3E0F912B26490063D74FFF0A37455F0A37403F0900BCEE0FFA3E0900640CFF0A3EFF07B017A067908127A3B900B037421
:404F000001F0A37406F0A37408F0900605E0FBA3E0FAA3E0F912B264900B0374FFF0A37451F0A374C7F0900605E0FBA3E0FAA3E0F912B264900B78E0601E900B0374FFF09D
:404F4000A37455F0A37415F0900605E0FBA3E0FAA3E0F912B264801C900B0374FFF0A37455F0A3743CF0900605E0FBA3E0FAA3E0F912B264900B81E0601E900B0374FFF0D4
:404F8000A37455F0A37462F0900605E0FBA3E0FAA3E0F912B264801C900B0374FFF0A37455F0A37492F0900605E0FBA3E0FAA3E0F912B264900B8BE0601E900B0374FFF0E7
:404FC000A37455F0A374C1F0900605E0FBA3E0FAA3E0F912B264801C900B0374FFF0A37455F0A374F2F0900605E0FBA3E0FAA3E0F912B264300D1E900B0374FFF0A37456A4
:40500000F0A37422F0900605E0FBA3E0FAA3E0F912B264801C900B0374FFF0A37456F0A3743DF0900605E0FBA3E0FAA3E0F912B264300C1E900B0374FFF0A37456F0A3741C
:4050400057F0900605E0FBA3E0FAA3E0F912B264801C900B0374FFF0A37456F0A3747BF0900605E0FBA3E0FAA3E0F912B264300A1E900B0374FFF0A37456F0A3749EF09054
:405080000605E0FBA3E0FAA3E0F912B264801C900B0374FFF0A37456F0A374C3F0900605E0FBA3E0FAA3E0F912B264900B92E0601E900B0374FFF0A37456F0A374E7F09027
:4050C0000605E0FBA3E0FAA3E0F912B264801C900B0374FFF0A37456F0A374F9F0900605E0FBA3E0FAA3E0F912B26490063D74FFF0A37457F0A3740CF0900C46E0F8A3E034
:40510000F9A3E0FAA3E0FB900CE5E0FCA3E0FDA3E0FEA3E0C39BFFEE9AFEED99FDEC98FC9006401277047B017A067908127A3B900B037401F0A37406F0A37408F090060553
:40514000E0FBA3E0FAA3E0F912B264900B0374FFF0A37451F0A374C7F0900605E0FBA3E0FAA3E0F912B26422205945530000204E4F000020557362000020456E636F6465CD
:40518000722033000020506F736974696F6E00002050574D00002043757272656E74000020506F736974696F6E20616E642063757272656E740000204C6566740000205296
:4051C000696768740000000D0A004669726D776172652076657273696F6E3A200043554646204D4F442076362E312E34002E0D0A0D0A0044455649434520494E464F0D0A0F
:405200000049443A2025640D0A004E756D626572206F662073656E736F72733A2025640D0A00537570706C792074656E73696F6E3A2025640D0A0050574D204C696D6974A8
:405240003A2025640D0A004D4F544F5220494E464F0D0A004D6F746F72207265666572656E6365733A2000256420004D6F746F7220656E61626C65643A20005945530D0A8C
:40528000004E4F0D0A000D0A4D4541535552454D454E545320494E464F0D0A0053656E736F722076616C75653A0D0A002564202D3E20256400566F6C7461676520286D5685
:4052C000293A20256C640043757272656E74203120286D41293A20256C640043757272656E74203220286D41293A20256C64000D0A44455649434520504152414D455445BB
:4053000052530D0A0050494420436F6E74726F6C6C65723A0D0A0050202D3E2025660D0A0049202D3E2025660D0A0044202D3E2025660D0A0043757272656E74205049449B
:4053400020436F6E74726F6C6C65723A0D0A00537461727475702061637469766174696F6E3A205945530D0A00537461727475702061637469766174696F6E3A204E4F0DA8
:405380000A00496E707574206D6F64653A205553420D0A00496E707574206D6F64653A2053656E736F7220330D0A00436F6E74726F6C204D6F64653A2000506F7369746948
:4053C0006F6E0D0A0050574D0D0A0043757272656E740D0A00506F736974696F6E20616E642063757272656E740D0A0053656E736F72207265736F6C7574696F6E3A0D0A93
:40540000004D6561737572656D656E74204F66667365743A0D0A002564202D3E20256C64004D6561737572656D656E74204D756C7469706C6965723A0D0A002564202D3EB3
:40544000202566000A43757272656E7420636F6E74726F6C6C6572277320706172616D65746572733A0A50726F706F7274696F6E616C206761696E3A200025660053617429
:4054800075726174696F6E2076616C75653A20002568640044656164207A6F6E653A20000D0A0A00506F736974696F6E206C696D6974206163746976653A20256400506FCB
:4054C000736974696F6E206C696D6974206D6F746F722025643A20696E66202D3E20256C64202000737570202D3E20256C640D0A004D61782073746966666E6573733A20E2
:4055000025640043757272656E74206C696D69743A202564004375666620737461727475702061637469766174696F6E2028666F726365293A205945530D0A00437566666E
:4055400020737461727475702061637469766174696F6E2028666F726365293A204E4F0D0A004375666620737461727475702061637469766174696F6E202870726F707294
:40558000696F63657074696F6E293A205945530D0A004375666620737461727475702061637469766174696F6E202870726F7072696F63657074696F6E293A204E4F0D0A11
:4055C000004375666620737461727475702061637469766174696F6E2028666F726365202B2070726F7072696F293A205945530D0A00437566662073746172747570206112
:40560000637469766174696F6E2028666F726365202B2070726F7072696F293A204E4F0D0A0043756666206163746976652028666F726365293A205945530D0A0043756675
:4056400066206163746976652028666F726365293A204E4F0D0A004375666620616374697665202870726F7072696F63657074696F6E293A205945530D0A00437566662006
:40568000616374697665202870726F7072696F63657074696F6E293A204E4F0D0A0043756666206163746976652028666F726365202B2070726F7072696F293A2059455391
:4056C0000D0A0043756666206163746976652028666F726365202B2070726F7072696F293A204E4F0D0A004375666620736964653A204C4546540D0A00437566662073690A
:4057000064653A2052494748540D0A0064656275673A20256C640000000000000000000000000000000000000000000000000000000000000000000000000000000000005B
:405740000000000000000000000000000000000000000000000000000000000000000000000000000000000000000000000000000000000000000000000000000000000029
:4057800000000000000000000000000000000000000000000000000000000000000000000000000000000000000000000000000000000000000000000000000000000000E9
:4057C00000000000000000000000000000000000000000000000000000000000000000000000000000000000000000000000000000000000000000000000000000000000A9
:405800000000000000000000000000000000000000000000000000000000000000000000000000000000000000000000000000000000000000000000000000000000000068
:405840000000000000000000000000000000000000000000000000000000000000000000000000000000000000000000000000000000000000000000000000000000000028
:4058800000000000000000000000000000000000000000000000000000000000000000000000000000000000000000000000000000000000000000000000000000000000E8
:4058C00000000000000000000000000000000000000000000000000000000000000000000000000000000000000000000000000000000000000000000000000000000000A8
:405900000000000000000000000000000000000000000000000000000000000000000000000000000000000000000000000000000000000000000000000000000000000067
:405940000000000000000000000000000000000000000000000000000000000000000000000000000000000000000000000000000000000000000000000000000000000027
:4059800000000000000000000000000000000000000000000000000000000000000000000000000000000000000000000000000000000000000000000000000000000000E7
:4059C00000000000000000000000000000000000000000000000000000000000000000000000000000000000000000000000000000000000000000000000000000000000A7
:405A00000000000000000000000000000000000000000000000000000000000000000000000000000000000000000000000000000000000000000000000000000000000066
:405A40000000000000000000000000000000000000000000000000000000000000000000000000000000000000000000000000000000000000000000000000000000000026
:405A800000000000000000000000000000000000000000000000000000000000000000000000000000000000000000000000000000000000000000000000000000000000E6
:405AC00000000000000000000000000000000000000000000000000000000000000000000000000000000000000000000000000000000000000000000000000000000000A6
:405B00000000000000000000000000000000000000000000000000000000000000000000000000000000000000000000000000000000000000000000000000000000000065
:405B40000000000000000000000000000000000000000000000000000000000000000000000000000000000000000000000000000000000000000000000000000000000025
:405B800000000000000000000000000000000000000000000000000000000000000000000000000000000000000000000000000000000000000000000000000000000000E5
:405BC00000000000000000000000000000000000000000000000000000000000000000000000000000000000000000000000000000000000000000000000000000000000A5
:405C00000000000000000000000000000000000000000000000000000000000000000000000000000000000000000000000000000000000000000000000000000000000064
:405C40000000000000000000000000000000000000000000000000000000000000000000000000000000000000000000000000000000000000000000000000000000000024
:405C800000000000000000000000000000000000000000000000000000000000000000000000000000000000000000000000000000000000000000000000000000000000E4
:405CC00000000000000000000000000000000000000000000000000000000000000000000000000000000000000000000000000000000000000000000000000000000000A4
:405D00000000000000000000000000000000000000000000000000000000000000000000000000000000000000000000000000000000000000000000000000000000000063
:405D40000000000000000000000000000000000000000000000000000000000000000000000000000000000000000000000000000000000000000000000000000000000023
:405D800000000000000000000000000000000000000000000000000000000000000000000000000000000000000000000000000000000000000000000000000000000000E3
:405DC00000000000000000000000000000000000000000000000000000000000000000000000000000000000000000000000000000000000000000000000000000000000A3
:405E00000000000000000000000000000000000000000000000000000000000000000000000000000000000000000000000000000000000000000000000000000000000062
:405E40000000000000000000000000000000000000000000000000000000000000000000000000000000000000000000000000000000000000000000000000000000000022
:405E80000000000031202D204465766963652049443A0032202D20506F736974696F6E20504944205B502C20492C20445D3A0033202D2043757272656E7420504944205B9A
:405EC000502C20492C20445D3A0034202D20537461727475702041637469766174696F6E3A000000000035202D20496E707574206D6F64653A0000000000000000000000E5
:405F00000036202D20436F6E74726F6C206D6F64653A0000000000000000000000000000000000000000000037202D205265736F6C7574696F6E733A000000000038202DD4
:405F4000204D6561737572656D656E74204F6666736574733A0039202D204D756C7469706C696572733A003130202D20506F732E206C696D6974206163746976653A00008A
:405F80000000003131202D20506F732E206C696D697473205B696E662C207375705D3A003132202D204D6178207374657073205B6E65672C20706F735D3A003133202D200D
:405FC00043757272656E74206C696D69743A003134202D2043757272656E742070726F706F7274696F6E616C206761696E3A003135202D2043757272656E742064696666DF
:406000006572656E63652073617475726174696F6E3A003136202D2043757272656E742064656164207A6F6E653A003137202D20437566662061637469766174696F6E2004
:40604000666C616720666F7263653A00000000003138202D20506F7765722074656E73696F6E3A0000003139202D20437566662061637469766174696F6E20666C61672059
:4060800070726F7072696F3A00000000003230202D204D617820736C696465206D6F76656D656E74202870726F7072696F293A003231202D204D617820534820636C6F73B2
:4060C000757265202870726F7072696F293A003232202D2048616E642049443A003233202D204375666620666C616720666F7263652B70726F7072696F3A0000000000328A
:4061000034202D205348207265737420706F732870726F7072696F293A000000000000003235202D2041726D20736964653A0000000000000030202D3E205573620A3120EA
:406140002D3E205368616674277320706F736974696F6E20636F6E74726F6C7320746865206D6F746F72730A0030202D3E20506F736974696F6E0A31202D3E2050574D0A98
:4061800032202D3E2043757272656E740A33202D3E20506F736974696F6E2D43757272656E740A0030202D3E2044656163746976617465205B4E4F5D0A31202D3E204163F4
:4061C000746976617465205B5945535D0A0030202D3E2052696768740A31202D3E204C6566740A008F23E4F52BF52AF529F528900B0BE0FCA3E0FDA3E0FEA3E0F5378E36E5
:406200008D358C34A3E0FCA3E0FDA3E0FEA3E0F53B8E3A8D398C38A3E0FCA3E0FDA3E0FEA3E0F53F8E3E8D3D8C3CA3E0FCA3E0FDA3E0FEA3E0F5438E428D418C40A3E0FC9E
:40624000A3E0FDA3E0FEA3E0F5478E468D458C44A3E0FCA3E0FDA3E0FEA3E0F54B8E4A8D498C48A3E0FCA3E0FDA3E0FEA3E0F54F8E4E8D4D8C4CA3E0FCA3E0FDA3E0FEA32B
:40628000E0F5538E528D518C50A3E0FCA3E0FDA3E0FEA3E0F5578E568D558C54A3E0FCA3E0FDA3E0FEA3E0F55B8E5A8D598C58A3E0FCA3E0FDA3E0FEA3E0F55F8E5E8D5DF5
:4062C0008C5CA3E0FCA3E0FDA3E0FEA3E0F5638E628D618C60E523C394024003026F1F900B3FE0147003026D66147003026A961470030265A624036003026DD0E52325E054
:4063000025E024F9F582E4340CF583E0F8A3E0F9A3E0FAA3E0FBE52325E025E02493F582E4340BF583E0FCA3E0FDA3E0FEA3E0C39BF52FEE9AF52EED99F52DEC98F52C30F4
:406340001105C21112992CE52325E025E024A3F582E4340DF583C083C082E0FCA3E0FDA3E0FEA3E0252FFFEE352EFEED352DFDEC352CFCD082D083127704E52325E025E010
:4063800024A3F582E4340DF583E0FCA3E0FDA3E0FEA3E0FF7BA07A8679017800C3127669501C7FA07E867D017C00E52325E025E024A3F582E4340DF5831277048042E52315
:4063C00025E025E024A3F582E4340DF583E0FCA3E0FDA3E0FEA3E0FF7B607A7979FE78FFD3127669401A7F607E797DFE7CFFE52325E025E024A3F582E4340DF58312770439
:40640000301105C21112992CE4F52BF52AF529F528FFFEFDFCAB37AA36A935A834C3127669606AE4FFFE7D02FCAB2FAA2EA92DA82CD3127669500FE4FFFE7DFE7CFFA82C98
:40644000C31276695027AF2FAE2EAD2DAC2C78081276A3AB37AA36A935A83412753178081276A38F2B8E2A8D298C288020AF2FAE2EAD2DAC2CAB37AA36A935A834127531DF
:4064800078101276A38F2B8E2A8D298C28301105C21112992CE4FFFEFDFCAB3BAA3AA939A838C31276696043AF3BAE3AAD39AC3878061276A3E52325E025E024A3F582E427
:4064C000340DF583E0F8A3E0F9A3E0FAA3E0FB127531780A1276A3E52B2FF52BE52A3EF52AE5293DF529E5283CF528E4FFFEFDFCAB3FAA3EA93DA83CC31276696063E523A0
:4065000025E025E024F9F582E4340CF583E0F8A3E0F9A3E0FAA3E0FBE52325E025E02427F582E4340CF583E0FCA3E0FDA3E0FEA3E0C39BFFEE9AFEED99FDEC98FCAB3FAA88
:406540003EA93DA83C12753178101276A3E52B2FF52BE52A3EF52AE5293DF529E5283CF528301105C21112992CE523701CFFFEFDFCAB2BAA2AA929A828C31276694005D27D
:4065800013026DD0C213026DD0E4FFFEFDFCAB2BAA2AA929A828C31276694005D214026DD0C214026DD0E52325E025E024F9F582E4340CF583E0F8A3E0F9A3E0FAA3E0FB8B
:4065C000E52325E025E02493F582E4340BF583E0FCA3E0FDA3E0FEA3E0C39BF52FEE9AF52EED99F52DEC98F52CE52325E025E024A3F582E4340DF583C083C082E0FCA3E015
:40660000FDA3E0FEA3E0252FFFEE352EFEED352DFDEC352CFCD082D083127704301105C21112992CE52325E025E024A3F582E4340DF583E0FCA3E0FDA3E0FEA3E0FF7BA099
:406640007A8679017800C3127669501C7FA07E867D017C00E52325E025E024A3F582E4340DF5831277048042E52325E025E024A3F582E4340DF583E0FCA3E0FDA3E0FEA342
:40668000E0FF7B607A7979FE78FFD3127669401A7F607E797DFE7CFFE52325E025E024A3F582E4340DF583127704E4F527F526F525F524301105C21112992CE4FFFEFDFCC3
:4066C000AB4FAA4EA94DA84CC31276696026AF2FAE2EAD2DAC2CA84C12753178101276A3E5272FF527E5263EF526E5253DF525E5243CF524E4FFFEFDFCAB53AA52A951A8C9
:4067000050C31276696038E52325E025E024A3F582E4340DF583E0FCA3E0FDA3E0FEA3E0FFA85012753178101276A3E5272FF527E5263EF526E5253DF525E5243CF524E4B0
:40674000FFFEFDFCAB57AA56A955A854C31276696063E52325E025E024F9F582E4340CF583E0F8A3E0F9A3E0FAA3E0FBE52325E025E02427F582E4340CF583E0FCA3E0FD53
:40678000A3E0FEA3E0C39BFFEE9AFEED99FDEC98FCAB57AA56A955A85412753178101276A3E5272FF527E5263EF526E5253DF525E5243CF524301105C21112992C900B3B48
:4067C000E0FEA3E0FFEE3395E0FDFCAB27AA26A925A824D31276694016900B3BE0FEA3E0FFEE3395E08F278E26F525F524803C900B3BE0FEA3E0FFC3E49FFFE49EFE33956C
:40680000E0FDFCAB27AA26A925A824C3127669501A900B3BE0FEA3E0FFC3E49FFFE49EFE3395E08F278E26F525F524301105C21112992CE52325E02405F582E4340DF583AB
:40684000E0FEA3E0FFFBAA06EA3395E0F9F8C3E5279BF533E5269AF532E52599F531E52498F530E52325E025E024ABF582E4340DF583C083C082E0FCA3E0FDA3E0FEA3E0C3
:406880002533FFEE3532FEED3531FDEC3530FCD082D083127704E52325E025E024ABF582E4340DF583E0FCA3E0FDA3E0FEA3E0FF7BA07A8679017800C3127669501C7FA0BF
:4068C0007E867D017C00E52325E025E024ABF582E4340DF5831277048042E52325E025E024ABF582E4340DF583E0FCA3E0FDA3E0FEA3E0FF7B607A7979FE78FFD312766982
:40690000401A7F607E797DFE7CFFE52325E025E024ABF582E4340DF583127704301105C21112992CE4F52BF52AF529F528FFFEFDFCAB5BAA5AA959A858C31276696026AF76
:4069400033AE32AD31AC30A85812753178101276A3E52B2FF52BE52A3EF52AE5293DF529E5283CF528E4FFFEFDFCAB5FAA5EA95DA85CC31276696038E52325E025E024AB22
:40698000F582E4340DF583E0FCA3E0FDA3E0FEA3E0FFA85C12753178101276A3E52B2FF52BE52A3EF52AE5293DF529E5283CF528E4FFFEFDFCAB63AA62A961A860C312760A
:4069C000696064E52325E02405F582E4340DF583E0FEA3E0FFFBAA06EA3395E0F9F8E52325E025E0249BF582E4340DF583E0FCA3E0FDA3E0FEA3E0C39BFFEE9AFEED99FDE7
:406A0000EC98FCAB63AA62A961A86012753178101276A3E52B2FF52BE52A3EF52AE5293DF529E5283CF528E52325E02405F582E4340DF583E0FEA3E0FFEE3395E0FDFCE587
:406A40002325E025E0249BF582E4340DF583127704301105C21112992CE523701CFFFEFDFCAB2BAA2AA929A828C31276694005D213026DD0C213026DD0E4FFFEFDFCAB2BE2
:406A8000AA2AA929A828C31276694005D214026DD0C214026DD0E52325E025E02493F582E4340BF583E0FCA3E0FDA3E0FEA3E0FF74D32523F582E4340BF583E0F9F81276F9
:406AC000A38F278E268D258C24900B3BE0FEA3E0FFEE3395E0FDFCAB27AA26A925A824D31276694014900B3BE0FEA3E0FFEE3395E08F278E26F525F524AE26AF2712C130F8
:406B0000E52325E02405F582E4340DF583E0FCA3E0FDC3EF9DFFEE9CFE3395E08F338E32F531F530E52325E025E024ABF582E4340DF583C083C082E0FCA3E0FDA3E0FEA36A
:406B4000E02533FFEE3532FEED3531FDEC3530FCD082D083127704E52325E025E024ABF582E4340DF583E0FCA3E0FDA3E0FEA3E0FF7BA07A8679017800C3127669501C7FBC
:406B8000A07E867D017C00E52325E025E024ABF582E4340DF583127704803CE52325E025E024ABF582E4340DF583E0FCA3E0FDA3E0FEA3E0FFE4FBFAF9F8D31276694017C0
:406BC000E4FFFEFDFCE52325E025E024ABF582E4340DF583127704E4F52BF52AF529F528FFFEFDFCAB43AA42A941A840C3127669602CAF33AE32AD31AC30AB37AA36A935DD
:406C0000A83412753178101276A3E52B2FF52BE52A3EF52AE5293DF529E5283CF528E4FFFEFDFCAB47AA46A945A844C3127669603DE52325E025E024ABF582E4340DF58397
:406C4000E0FCA3E0FDA3E0FEA3E0FF78061276A3A844127531780A1276A3E52B2FF52BE52A3EF52AE5293DF529E5283CF528E4FFFEFDFCAB4BAA4AA949A848C31276696067
:406C800064E52325E02405F582E4340DF583E0FEA3E0FFFBAA06EA3395E0F9F8E52325E025E0249BF582E4340DF583E0FCA3E0FDA3E0FEA3E0C39BFFEE9AFEED99FDEC9869
:406CC000FCAB4BAA4AA949A84812753178101276A3E52B2FF52BE52A3EF52AE5293DF529E5283CF528E4FFFEFDFCAB2BAA2AA929A828C31276695009E4F52BF52AF529F55E
:406D000028E52325E02405F582E4340DF583E0FEA3E0FFEE3395E0FDFCE52325E025E0249BF582E4340DF583127704E523701CFFFEFDFCAB2BAA2AA929A828C312766940B6
:406D400005D213026DD0C213026DD0E4FFFEFDFCAB2BAA2AA929A828C31276694004D214806EC214806AE52325E025E02493F582E4340BF583E0FCA3E0FDA3E0FEA3E0FFEA
:406D800074D32523F582E4340BF583E0F9F81276A38F2B8E2A8D298C28E523701AFFFEFDFCAB2BAA2AA929A828C31276694004D213801DC2138019E4FFFEFDFCAB2BAA2A1A
:406DC000A929A828C31276694004D2148002C214301105C21112992CE47F64FEFDFCAB2BAA2AA929A828D3127669400AE4752B64F52AF529F52874FF7F9CFEFDFCAB2BAA6C
:406E00002AA929A828C3127669500B74FF752B9CF52AF529F528301105C21112992C900B3FE064016037AF2BAE2AAD29AC28780A1276B7E47B64FAF9F812B756A804A90584
:406E4000AA06AB07900D18E0FFE4FCFDFE127531780A1276A38F2B8E2A8D298C283013113014077F0312C2AD80167F0112C2AD800F3014077F0212C2AD8005E4FF12C2AD02
:406E8000301105C21112992CE5237046FFFEFDFCAB2BAA2AA929A828D312766940067E007F01801DE4FFFEFDFCAB2BAA2AA929A828C312766950067EFF7FFF80047E007F91
:406EC00000900CF7EFF0AE2AAF2B12C13012C2418045E4FFFEFDFCAB2BAA2AA929A828D312766940067E007F01801DE4FFFEFDFCAB2BAA2AA929A828C312766950067EFF19
:406F00007FFF80047E007F00900CF8EFF0AE2AAF2B12C13012C247301105C21112992C22EC4D6011E8497017ED33EC3304600DE4FCFFFEFD22E933E8330470F80271E912DE
:406F400071B458046009E4CC248150062850090271F32840030271F0C0E0EB4A7044B98006D0E0FB0271DFEF4E701CBD8008EBFFEAFEE9FD80EBE98DF0A4FEE5F002700979
:406F8000E9CDF9EAFEEBFFEF89F0A4FCE5F0CE89F0A42EFFE435F0CD89F0A42DFEE435F08067EF4E7005BD80D780C3EF8BF0A4ACF0EE8BF0A42CFCE435F0F8EF8AF0A42C2B
:406FC000E5F038FCE433CB8DF0A42CFCE5F03BF8EE8AF0A42CFCE5F038F8E433CF89F0A42CFCE5F038CF3400CE89F0A42FFFE5F03EFEE433C98DF0A42EFEE5F039CD8AF035
:40700000A42FFFE5F03EFEE43DFD33D0E0FB50070BBB000F0271F3EC2CFCEF33FFEE33FEED33FD0271CB0271F3EC5D046005E8590470030271E91271B4580460F6EC486087
:40704000F2EC7004FDFEFF22C860DB2481C85009C398600250060271F09850CAF582E9294B4A7005AB820271DF75F0007C1A7880C3EF9BEE9AED99400DC3EF9BFFEE9AFE32
:40708000ED99FDE842F0DC23ACF0D0E0FFD0E0FED0E0FDAB8220E7101BEB60BAEC2CFCEF33FFEE33FEED33FD0271CBE803F830E705C0F075F000EF2FFFEE33FEED33FD40CE
:4070C000B830E7C280AA74F8CC6480CCC86480C8F58204604FC3EB9FF5F0EA9E42F0E99D42F0E89C45F0603C501DE5825FFFE582D313CB5BCBF42B5582FB50280ABA002495
:4071000009B9002008801DE5825BFBE582D313CF5FCFF4C3132F5582FF50090EBE00050DBD00010CC3EB9FF5F0EA9E42F0E99D42F0E89C45F06007CC4820E701B3EC2275DB
:40714000F020800E75F010800575F0087D007E007F003392D530D50312765BEC334010EF33FFEE33FEED33FDEC33FCD5F0ED22E5F0247EA2D513CC92E7CDCEFF22EDD2E7A8
:40718000CD33EC3392D524814006E4FFFEFDFC22FCE4CFCECDCC24E0501174FF80EDC3CC13CCCD13CDCE13CECF13CF0470F030D5DE02765BE9D2E7C933E833F892D5EDD29B
:4071C000E7CD33EC33FC5002B2D522EC30E7100FBF000C0EBE00080DBD00040BEB6014A2D5EB13FCED92E7FD2274FFFCFDFEFF22E480F8A2D574FF13FC7D80E480EFF9205A
:40720000E73624F950037907E4F42402FBE582158270021583DBF6E024FB501BE96014E4F0E582158270021583E004F0B40A08E4F0D9EE7401F00A22C2D522ED33EC33927C
