:1026000002AA88008F828E83E0540100000070F8D7
:102610002278FFE4F6D8FD02AB1690002CEEF0A372
:10262000EFF07BFF7A5E79EDC003C002C0017B0151
:102630007A00792EA801AC02AD03D001D002D003FC
:102640007E077F6D1280F290079B7407F0A3746D74
:10265000F07BFF7A66795AC003C002C0017B017A21
:102660000779A2A801AC02AD03D001D002D0037E4D
:10267000007F0F1280F27BFF7A667969C003C00287
:10268000C0017B017A0779B1A801AC02AD03D0018A
:10269000D002D0037E007F1C1280F27BFF7A667925
:1026A00085C003C002C0017B017A0779CDA801ACC7
:1026B00002AD03D001D002D0037E007F1B1280F256
:1026C0007BFF7A6679A0C003C002C0017B017A0754
:1026D00079E8A801AC02AD03D001D002D0037E009E
:1026E0007F1C1280F27BFF7A6679BCC003C002C0F7
:1026F000017B017A087904A801AC02AD03D001D0B6
:1027000002D0037E007F1B1280F27BFF7A6679D7AE
:10271000C003C002C0017B017A08791FA801AC0286
:10272000AD03D001D002D0037E007F271280F27B60
:10273000FF7A6679FEC003C002C0017B017A087986
:1027400046A801AC02AD03D001D002D0037E007FC9
:10275000151280F27BFF7A677913C003C002C001B3
:102760007B017A08795BA801AC02AD03D001D002ED
:10277000D0037E007F191280F27BFF7A67792CC02C
:1027800003C002C0017B017A087974A801AC02ADD4
:1027900003D001D002D0037E007F111280F27BFFB4
:1027A0007A67793DC003C002C0017B017A08798550
:1027B000A801AC02AD03D001D002D0037E007F1C83
:1027C0001280F27BFF7A677959C003C002C0017B97
:1027D000017A0879A1A801AC02AD03D001D002D0E2
:1027E000037E007F1D1280F27BFF7A677976C0033B
:1027F000C002C0017B017A0879BEA801AC02AD031A
:10280000D001D002D0037E007F1B1280F27BFF7AC2
:10281000677991C003C002C0017B017A0879D9A809
:1028200001AC02AD03D001D002D0037E007F1412B0
:1028300080F27BFF7A6779A5C003C002C0017B01EB
:102840007A0879EDA801AC02AD03D001D002D00323
:102850007E007F201280F27BFF7A6779C5C003C0BB
:1028600002C0017B017A09790DA801AC02AD03D049
:1028700001D002D0037E007F241280F27BFF7A67B2
:1028800079E9C003C002C0017B017A097931A8014E
:10289000AC02AD03D001D002D0037E007F181280BD
:1028A000F27BFF7A687901C003C002C0017B017A24
:1028B000097949A801AC02AD03D001D002D0037E52
:1028C000007F251280F27BFF7A687926C003C00260
:1028D000C0017B017A09796EA801AC02AD03D00179
:1028E000D002D0037E007F161280F27BFF7A6879D7
:1028F0003CC003C002C0017B017A097984A801AC05
:1029000002AD03D001D002D0037E007F271280F2F7
:102910007BFF7A687963C003C002C0017B017A093A
:1029200079ABA801AC02AD03D001D002D0037E0088
:102930007F231280F27BFF7A687986C003C002C0D1
:10294000017B017A0979CEA801AC02AD03D001D098
:1029500002D0037E007F1F1280F27BFF7A6879A588
:10296000C003C002C0017B017A0979EDA801AC0265
:10297000AD03D001D002D0037E007F0E1280F27B27
:10298000FF7A6879B3C003C002C0017B017A09797C
:10299000FBA801AC02AD03D001D002D0037E007FC2
:1029A000221280F27BFF7A6879D5C003C002C00191
:1029B0007B017A0A791DA801AC02AD03D001D002D7
:1029C000D0037E007F211280F27BFF7A6879F6C007
:1029D00003C002C0017B017A0A793EA801AC02ADB6
:1029E00003D001D002D0037E007F151280F27BFF5E
:1029F0007A69790BC003C002C0017B017A0A79535E
:102A0000A801AC02AD03D001D002D0037E007F3418
:102A10001280F27BFF7A69793FC003C002C0017B5C
:102A2000017A0A7987A801AC02AD03D001D002D0A7
:102A3000037E007F3B1280F27BFF7A69797AC003C4
:102A4000C002C0017B017A0A79C2A801AC02AD03C1
:102A5000D001D002D0037E007F2A1280F27BFF7A61
:102A60006979A4C003C002C0017B017A0A79ECA88D
:102A700001AC02AD03D001D002D0037E007F16125C
:102A800080F27B017A0779A212D0CD8F697B017A1F
:102A90000779B112D0CD8F6A7B017A0779CD12D038
:102AA000CD8F6B7B017A08794612D0CD8F6C7B017C
:102AB0007A08795B12D0CD8F6D7B017A0879741218
:102AC000D0CD8F6E7B017A0879A112D0CD8F6F7B2C
:102AD000017A0879D912D0CD8F707B017A0879ED0F
:102AE00012D0CD8F717B017A09790D12D0CD8F7202
:102AF0007B017A09793112D0CD8F737B017A097904
:102B00006E12D0CD8F747B017A0A795312D0CD8F9B
:102B1000757B017A0A798712D0CD8F767B017A0A8C
:102B200079C212D0CD8F777B017A0A79EC12D0CDA1
:102B30008F787B017A0979AB12D0CD8F797B017ABE
:102B40000979CE12D0CD8F7A7B017A0979ED12D036
:102B5000CD8F7B7B017A0A791D12D0CD900B02EFCD
:102B6000F090002E740CF090002F7419F090002C4F
:102B7000E0FEA3E0FFEF8EF0127FB82BE700003EEF
:102B80000400013E0F00023EB700033F5F00043F18
:102B90007400053F7F00063F8A00073FC8000840D9
:102BA0007E000940E2000A40ED000B420E000C429C
:102BB0006A000D427B000E4288000F4299001042CD
:102BC000AA001142CA001242DB001342F80014436B
:102BD00005001543120016431D0017433A00184321
:102BE000470019000043519000307402F09000310A
:102BF0007401F0900B11E0FF900032EFF0AF697EAE
:102C0000008E678F68E5684567603EAF697E00C3E8
:102C1000EF9568FFEE9567FE74A22FF58274073E6C
:102C2000F583E0FFAE69EEFD7C00C3ED9568FDEC39
:102C30009567FC74332DF58274003CF583EFF0E565
:102C40006815687002156780BC9000627407F09088
:102C500000637403F0900B46E0FFEF640360539051
:102C60000B12127F17EC1279077B007A00798078BB
:102C7000471277F1900064127F2F900B16127F1786
:102C8000EC1279077B007A00798078471277F1900F
:102C90000068127F2F900B1A127F17EC1279077BB6
:102CA000007A00798078471277F190006C127F2FBC
:102CB0008051900B2A127F17EC1279077B007A0063
:102CC000798078471277F1900064127F2F900B2E55
:102CD000127F17EC1279077B007A0079807847120F
:102CE00077F1900068127F2F900B32127F17EC1251
:102CF00079077B007A00798078471277F190006C31
:102D0000127F2FAF6A7E008E678F68E56845676027
:102D10003EAF6A7E00C3EF9568FFEE9567FE74B123
:102D20002FF58274073EF583E0FFAE6AEEFD7C006E
:102D3000C3ED9568FDEC9567FC74702DF582740009
:102D40003CF583EFF0E56815687002156780BC906C
:102D500000947407F09000957403F0900B46E0FF28
:102D6000EF64036053900B1E127F17EC1279077B00
:102D7000007A00798078471277F1900096127F2FC1
:102D8000900B22127F17EC1279077B007A00798072
:102D900078471277F190009A127F2F900B26127FBE
:102DA00017EC1279077B007A00798078471277F167
:102DB00090009E127F2F8051900B36127F17EC12DD
:102DC00079077B007A00798078471277F190009636
:102DD000127F2F900B3A127F17EC1279077B007A43
:102DE00000798078471277F190009A127F2F900B2C
:102DF0003E127F17EC1279077B007A0079807847C2
:102E00001277F190009E127F2FAF6B7E008E678F3E
:102E100068E5684567603EAF6B7E00C3EF9568FF6D
:102E2000EE9567FE74CD2FF58274073EF583E0FFC3
:102E3000AE6BEEFD7C00C3ED9568FDEC9567FC7410
:102E4000A22DF58274003CF583EFF0E568156870FB
:102E500002156780BC9000C6E4F09000C77401F0D2
:102E6000900B44E0FF9000C8EFF0900B44E0FFEFC0
:102E700060297B017A0779E8C003C002C0017BFFAB
:102E80007A59793E900B06127F89D001D002D00387
:102E900012BF8F90079D741CF080277B017A077901
:102EA000E8C003C002C0017BFF7A597944900B0649
:102EB000127F89D001D002D00312BF8F90079D747A
:102EC0001BF090079DE0FF7E008E678F68E56845E8
:102ED00067604490079DE0FF7E00C3EF9568FFEEBA
:102EE0009567FE74E82FF58274073EF583E0FF9046
:102EF000079DE0FEEEFD7C00C3ED9568FDEC956757
:102F0000FC74C92DF58274003CF583EFF0E568157B
:102F1000687002156780B690079DE0FF74C92FF5B1
:102F200082E43400F5837403F09000F8E4F090003C
:102F3000F97401F0900B45E0FF9000FAEFF0900B70
:102F400045E0FFEF127F922F51002F7A0100002FF2
:102F5000A17B017A087904C003C002C0017BFF7A1B
:102F6000597949900B06127F89D001D002D0031203
:102F7000BF8F90079D7414F080277B017A08790435
:102F8000C003C002C0017BFF7A59794F900B061233
:102F90007F89D001D002D00312BF8F90079D741A91
:102FA000F090079DE0FF7E008E678F68E5684567BB
:102FB000604490079DE0FF7E00C3EF9568FFEE95AB
:102FC00067FE74042FF58274083EF583E0FF9007D6
:102FD0009DE0FEEEFD7C00C3ED9568FDEC9567FC81
:102FE00074FB2DF58274003CF583EFF0E5681568FD
:102FF0007002156780B690079DE0FF74FB2FF58285
:10300000E43400F5837401F090012AE4F090012B80
:103010007401F0900B46E0FF90012CEFF0900B460E
:10302000E0FFEF127F92303600305F0130880230CF
:10303000B103000030D87B017A08791FC003C002B9
:10304000C0017BFF7A59795B900B06127F89D00112
:10305000D002D00312BF8F90079D741BF080797B44
:10306000017A08791FC003C002C0017BFF7A597939
:1030700066900B06127F89D001D002D00312BF8F59
:1030800090079D7416F080507B017A08791FC00369
:10309000C002C0017BFF7A59796C900B06127F89C0
:1030A000D001D002D00312BF8F90079D741AF08018
:1030B000277B017A08791FC003C002C0017BFF7A19
:1030C000597976900B06127F89D001D002D0031275
:1030D000BF8F90079D7427F090079DE0FF7E008EC4
:1030E000678F68E5684567604490079DE0FF7E0054
:1030F000C3EF9568FFEE9567FE741F2FF582740885
:103100003EF583E0FF90079DE0FEEEFD7C00C3ED01
:103110009568FDEC9567FC742D2DF58274013CF5E6
:1031200083EFF0E56815687002156780B690079D1B
:10313000E0FF742D2FF582E43401F5837402F090E2
:10314000015C7402F090015D7402F07567007568AF
:1031500000C3E5689402E5679400502AAE67AF6843
:1031600074472FF582740B3EF583E0FFAC67AD68C2
:10317000745E2DF58274013CF583EFF00568E56817
:103180007002056780CBAF6C7E008E678F68E56844
:103190004567603EAF6C7E00C3EF9568FFEE9567B4
:1031A000FE74462FF58274083EF583E0FFAE6CEEA8
:1031B000FD7C00C3ED9568FDEC9567FC74602DF512
:1031C0008274013CF583EFF0E568156870021567BD
:1031D00080BC90018E7403F090018F7402F07567CB
:1031E00000756800C3E5689402E56794005056E5F1
:1031F00068AE677802C333CE33CED8F9FF74492F57
:10320000F582740B3EF583127F17AA67AB6874478B
:103210002BF582740B3AF583E0F9A801127EB6AD66
:1032200007AC06E56825E0FFE56733FE74902FF5EF
:103230008274013EF583ECF0A3EDF00568E568705B
:10324000020567809FAF6D7E008E678F68E56845D9
:1032500067603EAF6D7E00C3EF9568FFEE9567FE39
:10326000745B2FF58274083EF583E0FFAE6DEEFDD2
:103270007C00C3ED9568FDEC9567FC74942DF58298
:1032800074013CF583EFF0E56815687002156780FE
:10329000BC9001C07407F09001C17402F075670022
:1032A000756800C3E5689402E56794005050E568CE
:1032B000AE677802C333CE33CED8F9FF74512FF501
:1032C00082740B3EF583127F17C004C005C006C090
:1032D00007E568AE677802C333CE33CED8F9FF7402
:1032E000C22FF58274013EF583D007D006D005D0F9
:1032F00004127F2F0568E5687002056780A5756771
:10330000007568007B017A08797412D0CDC3E56836
:103310009FE5679E502AAE67AF6874742FF582747C
:10332000083EF583E0FFAC67AD6874CA2DF5827482
:10333000013CF583EFF00568E5687002056780C41D
:103340009001F2E4F09001F37401F0900B59E0FF6A
:103350009001F4EFF0900B59E0FFEF60297B017AC8
:10336000087985C003C002C0017BFF7A59793E907D
:103370000B06127F89D001D002D00312BF8F9007B5
:103380009D741CF080277B017A087985C003C002F8
:10339000C0017BFF7A597944900B06127F89D001D6
:1033A000D002D00312BF8F90079D741BF090079D31
:1033B000E0FF7E008E678F68E56845676044900790
:1033C0009DE0FF7E00C3EF9568FFEE9567FE748574
:1033D0002FF58274083EF583E0FF90079DE0FEEE36
:1033E000FD7C00C3ED9568FDEC9567FC74F52DF54B
:1033F0008274013CF583EFF0E5681568700215678B
:1034000080B690079DE0FF74F52FF582E43401F556
:10341000837403F09002247405F09002257404F084
:10342000756700756800C3E5689402E5679400401D
:10343000030234F5E568AE677802C333CE33CED8E5
:10344000F9FF745A2FF582740B3EF583127F17AA89
:1034500067AB6874472BF582740B3AF583E0F9A8E3
:1034600001127EB6C004C005C006C007E568AE679D
:103470007803C333CE33CED8F9FF74262FF5827488
:10348000023EF583D007D006D005D004127F2FE589
:1034900068AE677802C333CE33CED8F9FF74622F9B
:1034A000F582740B3EF583127F17AA67AB687447E9
:1034B0002BF582740B3AF583E0F9A801127EB6C0B1
:1034C00004C005C006C007E568AE677803C333CE05
:1034D00033CED8F9FF742A2FF58274023EF583D0DB
:1034E00007D006D005D004127F2F0568E56870026A
:1034F0000567023426AF6F7E008E678F68E56845EA
:1035000067603EAF6F7E00C3EF9568FFEE9567FE84
:1035100074A12FF58274083EF583E0FFAE6FEEFDD7
:103520007C00C3ED9568FDEC9567FC74362DF58243
:1035300074023CF583EFF0E568156870021567804A
:10354000BC9002567405F09002577402F0900B6E16
:10355000127F17900258127F2F900B72127F1790D4
:10356000025C127F2F7567007568007B017A08790D
:10357000BE12D0CDC3E5689FE5679E502AAE67AF07
:103580006874BE2FF58274083EF583E0FFAC67AD2A
:103590006874602DF58274023CF583EFF00568E5F0
:1035A000687002056780C49002887403F0900289F5
:1035B0007401F0900B42E0FEA3E0FF90028AEEF06F
:1035C000A3EFF0AF707E008E678F68E56845676097
:1035D0003EAF707E00C3EF9568FFEE9567FE74D92D
:1035E0002FF58274083EF583E0FFAE70EEFD7C009F
:1035F000C3ED9568FDEC9567FC748C2DF582740223
:103600003CF583EFF0E56815687002156780BC90A3
:1036100002BA7407F09002BB7401F0900B77127F2E
:10362000179002BC127F2FAF717E008E678F68E506
:10363000684567603EAF717E00C3EF9568FFEE9509
:1036400067FE74ED2FF58274083EF583E0FFAE71DE
:10365000EEFD7C00C3ED9568FDEC9567FC74C02D14
:10366000F58274023CF583EFF0E568156870021589
:103670006780BC9002EC7403F09002ED7401F0904E
:103680000B7BE0FEA3E0FF9002EEEEF0A3EFF0AFC5
:10369000727E008E678F68E5684567603EAF727E18
:1036A00000C3EF9568FFEE9567FE740D2FF58274E9
:1036B000093EF583E0FFAE72EEFD7C00C3ED956838
:1036C000FDEC9567FC74F02DF58274023CF583EFF8
:1036D000F0E56815687002156780BC90031E7403DE
:1036E000F090031F7401F0900B7DE0FEA3E0FF90CB
:1036F0000320EEF0A3EFF0AF737E008E678F68E5D6
:10370000684567603EAF737E00C3EF9568FFEE9536
:1037100067FE74312FF58274093EF583E0FFAE73C6
:10372000EEFD7C00C3ED9568FDEC9567FC74222DE1
:10373000F58274033CF583EFF0E5681568700215B7
:103740006780BC900350E4F09003517401F0900B3B
:1037500076E0FF900352EFF0900B76E0FFEF6029E8
:103760007B017A097949C003C002C0017BFF7A5905
:10377000793E900B06127F89D001D002D00312BF90
:103780008F90079D7425F080277B017A097949C0C5
:1037900003C002C0017BFF7A597944900B06127F67
:1037A00089D001D002D00312BF8F90079D7424F0FE
:1037B00090079DE0FF7E008E678F68E56845676033
:1037C0004490079DE0FF7E00C3EF9568FFEE95678C
:1037D000FE74492FF58274093EF583E0FF90079D42
:1037E000E0FEEEFD7C00C3ED9568FDEC9567FC7492
:1037F000532DF58274033CF583EFF0E5681568708E
:1038000002156780B690079DE0FF74532FF582E4A0
:103810003403F5837403F09003827404F0900383FF
:103820007401F0900B8AE0FEA3E0FF900384EEF0B9
:10383000A3EFF0AF747E008E678F68E56845676020
:103840003EAF747E00C3EF9568FFEE9567FE746E21
:103850002FF58274093EF583E0FFAE74EEFD7C0027
:10386000C3ED9568FDEC9567FC74862DF5827403B5
:103870003CF583EFF0E56815687002156780BC9031
:1038800003B4E4F09003B57401F0900B7FE0FF9077
:1038900003B6EFF0900B7FE0FFEF60297B017A0920
:1038A0007984C003C002C0017BFF7A59793E900B36
:1038B00006127F89D001D002D00312BF8F90079DDE
:1038C0007427F080277B017A097984C003C002C085
:1038D000017BFF7A597944900B06127F89D001D081
:1038E00002D00312BF8F90079D7426F090079DE0D1
:1038F000FF7E008E678F68E5684567604490079D8E
:10390000E0FF7E00C3EF9568FFEE9567FE74842F9D
:10391000F58274093EF583E0FF90079DE0FEEEFD21
:103920007C00C3ED9568FDEC9567FC74B72DF582BE
:1039300074033CF583EFF0E5681568700215678045
:10394000B690079DE0FF74B72FF582E43403F5834A
:103950007403F09003E67405F09003E77401F090AF
:103960000B80127F179003E8127F2FAF797E008EB5
:10397000678F68E5684567603EAF797E00C3EF9565
:1039800068FFEE9567FE74AB2FF58274093EF583F0
:10399000E0FFAE79EEFD7C00C3ED9568FDEC956728
:1039A000FC74EC2DF58274033CF583EFF0E56815AB
:1039B000687002156780BC9004187405F0900419B3
:1039C0007401F0900B84127F1790041A127F2FAFAE
:1039D0007A7E008E678F68E5684567603EAF7A7EC5
:1039E00000C3EF9568FFEE9567FE74CE2FF58274E5
:1039F000093EF583E0FFAE7AEEFD7C00C3ED9568ED
:103A0000FDEC9567FC741E2DF58274043CF583EF84
:103A1000F0E56815687002156780BC90044A74026E
:103A2000F090044B7401F0900B88E0FF90044CEF91
:103A3000F0AF7B7E008E678F68E5684567603EAFBC
:103A40007B7E00C3EF9568FFEE9567FE74ED2FF562
:103A50008274093EF583E0FFAE7BEEFD7C00C3ED92
:103A60009568FDEC9567FC744D2DF58274043CF56A
:103A700083EFF0E56815687002156780BC90047CE0
:103A8000E4F090047D7401F0900B89E0FF90047ED7
:103A9000EFF0900B89E0FFEF60297B017A0979FB59
:103AA000C003C002C0017BFF7A59793E900B061219
:103AB0007F89D001D002D00312BF8F90079D74225E
:103AC000F080277B017A0979FBC003C002C0017B2B
:103AD000FF7A597944900B06127F89D001D002D029
:103AE0000312BF8F90079D7421F090079DE0FF7E29
:103AF000008E678F68E5684567604490079DE0FF2A
:103B00007E00C3EF9568FFEE9567FE74FB2FF5828C
:103B100074093EF583E0FF90079DE0FEEEFD7C001A
:103B2000C3ED9568FDEC9567FC747F2DF5827404F8
:103B30003CF583EFF0E56815687002156780B69074
:103B4000079DE0FF747F2FF582E43404F58374034E
:103B5000F09004AE7405F09004AF7401F0900B8CFB
:103B6000127F179004B0127F2F900B02E0FF7E00AF
:103B70008E678F68E56845676044900B02E0FF7EC2
:103B800000C3EF9568FFEE9567FE741D2FF58274F4
:103B90000A3EF583E0FF900B02E0FEEEFD7C00C3E1
:103BA000ED9568FDEC9567FC74B42DF58274043CCA
:103BB000F583EFF0E56815687002156780B690042C
:103BC000E0E4F09004E17401F0900B90E0FF9004C9
:103BD000E2EFF0900B90E0FFEF60297B017A0A7929
:103BE0003EC003C002C0017BFF7A59798D900B065D
:103BF000127F89D001D002D00312BF8F90079D742D
:103C000014F080277B017A0A793EC003C002C0010C
:103C10007BFF7A597994900B06127F89D001D002EC
:103C2000D00312BF8F90079D7415F090079DE0FFA1
:103C30007E008E678F68E5684567604490079DE069
:103C4000FF7E00C3EF9568FFEE9567FE743E2FF58B
:103C500082740A3EF583E0FF90079DE0FEEEFD7C56
:103C600000C3ED9568FDEC9567FC74E32DF5827457
:103C7000043CF583EFF0E56815687002156780B6BF
:103C800090079DE0FF74E32FF582E43404F583741C
:103C900004F0AF757E008E678F68E5684567603E0B
:103CA000AF757E00C3EF9568FFEE9567FE74532FE6
:103CB000F582740A3EF583E0FFAE75EEFD7C00C32D
:103CC000ED9568FDEC9567FC74122DF58274053C4A
:103CD000F583EFF0E56815687002156780BCAF7674
:103CE0007E008E678F68E5684567603EAF767E0030
:103CF000C3EF9568FFEE9567FE74872FF582740A0F
:103D00003EF583E0FFAE76EEFD7C00C3ED9568FDE9
:103D1000EC9567FC74A82DF58274053CF583EFF0F3
:103D2000E56815687002156780BCAF777E008E6706
:103D30008F68E5684567603EAF777E00C3EF9568A2
:103D4000FFEE9567FE74C22FF582740A3EF583E09C
:103D5000FFAE77EEFD7C00C3ED9568FDEC9567FC4A
:103D6000743E2DF58274063CF583EFF0E568156826
:103D70007002156780BCAF787E008E678F68E5683B
:103D80004567603EAF787E00C3EF9568FFEE9567AC
:103D9000FE74EC2FF582740A3EF583E0FFAE78EEF8
:103DA000FD7C00C3ED9568FDEC9567FC74D42DF5A2
:103DB0008274063CF583EFF0E568156870021567BC
:103DC00080BC7B017A00792E90079BE0FEA3E0FF88
:103DD000EF14FD12C97890079BE0FCA3E0FD742D61
:103DE0002DF58274003CF583EFF07B017A00792E8B
:103DF00090079BE0FCA3E0FD900B08E4F012B57D7A
:103E000012CCAF22900C46E0FF900B9BEFF022907B
:103E10000B46E0FFEF6403604F7F007E007D807CF7
:103E200047900C46127F231276E8127945900B9C3E
:103E3000127F2F7F007E007D807C47900C4A127F8E
:103E4000231276E8127945900BA0127F2F7F007E17
:103E5000007D807C47900C4E127F231276E8127909
:103E600045900BA4127F2F227F007E007D807C472F
:103E7000900C46127F231276E8127945900BB4120B
:103E80007F2F7F007E007D807C47900C4A127F232D
:103E90001276E8127945900BB8127F2F7F007E00D2
:103EA0007D807C47900C4E127F231276E812794574
:103EB000900BBC127F2F22900B46E0FFEF64036053
:103EC0004F7F007E007D807C47900C46127F23123E
:103ED00076E8127945900BA8127F2F7F007E007D37
:103EE000807C47900C4A127F231276E81279459025
:103EF0000BAC127F2F7F007E007D807C47900C4EA4
:103F0000127F231276E8127945900BB0127F2F2290
:103F10007F007E007D807C47900C46127F231276C6
:103F2000E8127945900BC0127F2F7F007E007D80C4
:103F30007C47900C4A127F231276E8127945900B49
:103F4000C4127F2F7F007E007D807C47900C4E1234
:103F50007F231276E8127945900BC8127F2F2290AA
:103F60000C46E0FFEF6007900BCE7403F022900B3D
:103F7000CEE4F022900C46E0FF900BCFEFF02290C1
:103F80000C46E0FF900BD0EFF022756700756800DB
:103F9000C3E5689402E56794004003024351AE67AD
:103FA000AF6874462FF582740C3EF583E0FFAC6772
:103FB000AD6874D12DF582740B3CF583EFF0056884
:103FC000E5687002056780C8756700756800C3E51D
:103FD000689402E5679400400302407BE56825E0B1
:103FE000FFE56733FE74462FF582740C3EF583E0DF
:103FF000FEA3E0FFEE3395E0FDFCC004C005C00663
:10400000C007E568AE677802C333CE33CED8F9FF78
:1040100074D32FF582740B3EF583D007D006D005FC
:10402000D004127F2FE568AE677802C333CE33CE5B
:10403000D8F9FF74D32FF582740B3EF583C083C08B
:1040400082127F17AA67AB6874D12BF582740B3A82
:10405000F583E0F9A801127ECAD082D083127F2FA7
:10406000AE67AF6874F12FF582740C3EF583E4F00F
:104070000568E56870020567023FCED20E227567BB
:1040800000756800C3E5689402E567940040030288
:104090004351E568AE677802C333CE33CED8F9FF1B
:1040A00074462FF582740C3EF583127F17C004C04E
:1040B00005C006C007E568AE677802C333CE33CECD
:1040C000D8F9FF74DB2FF582740B3EF583D007D04F
:1040D00006D005D004127F2F0568E56870020567D9
:1040E00080A2900C46E0FF900BE3EFF02275670092
:1040F000756800C3E5689402E567940040030243D5
:1041000051E568AE677803C333CE33CED8F9FF7478
:10411000462FF582740C3EF583127F17C004C0054C
:10412000C006C007E568AE677802C333CE33CED889
:10413000F9FF74E42FF582740B3EF583D007D006A7
:10414000D005D004127F2FE568AE677803C333CE65
:1041500033CED8F9FF744A2FF582740C3EF58312E2
:104160007F17C004C005C006C007E568AE677802C7
:10417000C333CE33CED8F9FF74EC2FF582740B3EE7
:10418000F583D007D006D005D004127F2FE568AEA6
:10419000677802C333CE33CED8F9FF74E42FF582AB
:1041A000740B3EF583C083C082127F17AA67AB6889
:1041B00074D12BF582740B3AF583E0F9A801127ED5
:1041C000CAD082D083127F2FE568AE677802C333EE
:1041D000CE33CED8F9FF74EC2FF582740B3EF58305
:1041E000C083C082127F17AA67AB6874D12BF58297
:1041F000740B3AF583E0F9A801127ECAD082D0830D
:10420000127F2F0568E568700205670240F3900C85
:1042100046127F1790079E127F2F7F007E007D0041
:104220007C0090079E127F23D3127E7C500C900757
:104230009E127F17900BF8127F2F900C4A127F1757
:1042400090079E127F2F7F007E007D007C009007EC
:104250009E127F23C3127E7C500302435190079E1F
:10426000127F17900BFC127F2F22900C46E0FEA3CA
:10427000E0FF900BCCEEF0A3EFF022900C46127F03
:1042800017900C01127F2F22900C46E0FEA3E0FF56
:10429000900C05EEF0A3EFF022900C46E0FEA3E0B8
:1042A000FF900C07EEF0A3EFF022900C46E0FF9099
:1042B0000C00EFF0900C00E0FFEF70030243519010
:1042C0000C09E4F0900C13E4F022900C46E0FEA3FD
:1042D000E0FF900C14EEF0A3EFF022900C46E0FF0C
:1042E000900C09EFF0900C09E0FFEF6064900C0077
:1042F000E4F0900C13E4F022900C46127F17900C1F
:104300000A127F2F22900C46127F17900C0E127FFC
:104310002F22900C46E0FF900C12EFF022900C46FA
:10432000E0FF900C13EFF0900C13E0FFEF60229091
:104330000C00E4F0900C09E4F022900C46127F1778
:10434000900C16127F2F22900C46E0FF900C1AEF73
:10435000F02290060A127F897BFF7A59799CC0036C
:10436000C002C00190060A127F69A801AC02AD0329
:10437000D001D002D0031281D090060A127F69C00A
:1043800003C002C0017BFF7A59799D900B06127F12
:1043900089D001D002D00312BF8F90060A127F6924
:1043A000C003C002C0017BFF7A5979A0900B0612AE
:1043B0007F89D001D002D00312BF8F90060A127FEE
:1043C00069C003C002C0017BFF7A5979B3900B0624
:1043D000127F89D001D002D00312BF8F90060A123B
:1043E0007F69C003C002C0017BFF7A5979C3900B7B
:1043F00006127F89D001D002D00312BF8F90060A27
:10440000127F69C003C002C0017BFF7A5979C9904D
:104410000B06127F89D001D002D00312BF8F7B011F
:104420007A06790DC003C002C0017BFF7A5979D7A3
:10443000900642127F89900B11E0FF7E00900645A6
:10444000EEF0A3EFF0D001D002D0031282A89006C4
:104450000A127F69C003C002C0017B017A06790D90
:10446000900B06127F89D001D002D00312BF8F7B40
:10447000017A06790DC003C002C0017BFF7A597929
:10448000E0900642127F89900645E4F0A37402F0A2
:10449000D001D002D0031282A890060A127F69C010
:1044A00003C002C0017B017A06790D900B06127FD2
:1044B00089D001D002D00312BF8F7B017A06790D1B
:1044C000C003C002C0017BFF7A5979F890064212FE
:1044D0007F89900B8AE0FEA3E0FF900645EEF0A3F3
:1044E000EFF0D001D002D0031282A890060A127F0A
:1044F00069C003C002C0017B017A06790D900B06EA
:10450000127F89D001D002D00312BF8F7B017A06BF
:10451000790DC003C002C0017BFF7A5A790D900665
:1045200042127F89900CFBE0FF7E00900645EEF082
:10453000A3EFF0D001D002D0031282A890060A1295
:104540007F69C003C002C0017B017A06790D900B20
:1045500006127F89D001D002D00312BF8F90060AC5
:10456000127F69C003C002C0017BFF7A59799D9018
:104570000B06127F89D001D002D00312BF8F9006A4
:104580000A127F69C003C002C0017BFF7A5A791DFD
:10459000900B06127F89D001D002D00312BF8F90FA
:1045A000060A127F69C003C002C0017BFF7A5A79F4
:1045B0002A900B06127F89D001D002D00312BF8F40
:1045C000756700756800C3E5689402E567648094C8
:1045D00080400302465B7B017A06790DC003C0026E
:1045E000C0017BFF7A5A793D900642127F89E568C7
:1045F000AE677802C333CE33CED8F9FF743A2FF5C5
:1046000082740C3EF583127F17AA67AB6874472B40
:10461000F582740B3AF583E0F9A801127EB6900694
:1046200045EEF0A3EFF0D001D002D0031282A890A3
:10463000060A127F69C003C002C0017B017A0679B5
:104640000D900B06127F89D001D002D00312BF8FCC
:104650000568E568700205670245C690060A127F84
:1046600069C003C002C0017BFF7A59799D900B0697
:10467000127F89D001D002D00312BF8F7B017A064E
:10468000790DC003C002C0017BFF7A5A79419006C0
:1046900042127F89D001D002D0031282A8900C422E
:1046A000E0FFEF5403FFEF60237B017A06790DC032
:1046B00003C002C0017BFF7A5A7951900B06127F2A
:1046C00089D001D002D00312BF8F80217B017A06EE
:1046D000790DC003C002C0017BFF7A5A7957900B55
:1046E00006127F89D001D002D00312BF8F90060A34
:1046F000127F69C003C002C0017B017A06790D9068
:104700000B06127F89D001D002D00312BF8F900612
:104710000A127F69C003C002C0017BFF7A5A795C2C
:10472000900B06127F89D001D002D00312BF8F9068
:10473000060A127F69C003C002C0017BFF7A5A7962
:1047400072900B06127F89D001D002D00312BF8F66
:10475000756700756800C3E5689402E56764809436
:1047600080400302481E7B017A06790DC003C00217
:10477000C0017BFF7A5A7982900642127F89E568F0
:104780002401FFE5673400FE900645EEF0A3EFF04C
:10479000E568AE677802C333CE33CED8F9FF741C18
:1047A0002FF582740C3EF583127F17AA67AB6874ED
:1047B000472BF582740B3AF583E0F9A801127EB617
:1047C000900647EEF0A3EFF0D001D002D0031282A2
:1047D000A890060A127F69C003C002C0017B017A5B
:1047E00006790D900B06127F89D001D002D00312FA
:1047F000BF8F90060A127F69C003C002C0017BFF11
:104800007A59799D900B06127F89D001D002D0038E
:1048100012BF8F0568E568700205670247567B0185
:104820007A06790DC003C002C0017BFF7A5A798BEA
:10483000900642127F89900C36127F17900645121F
:104840007F2FD001D002D0031282A890060A127FD7
:1048500069C003C002C0017B017A06790D900B0686
:10486000127F89D001D002D00312BF8F90060A12A6
:104870007F69C003C002C0017BFF7A59799D900B0C
:1048800006127F89D001D002D00312BF8F7B017A3C
:1048900006790DC003C002C0017BFF7A5A799D9052
:1048A0000642127F89900C24E0FEA3E0FFEE3395D0
:1048B000E0FDFC900645127F2FD001D002D00312FC
:1048C00082A890060A127F69C003C002C0017B0162
:1048D0007A06790D900B06127F89D001D002D003A1
:1048E00012BF8F90060A127F69C003C002C0017B0D
:1048F000FF7A59799D900B06127F89D001D002D0A2
:104900000312BF8F7B017A06790DC003C002C0017C
:104910007BFF7A5A79B1900642127F89900C26E08B
:10492000FEA3E0FFEE3395E0FDFC900645127F2FDD
:10493000D001D002D0031282A890060A127F69C06B
:1049400003C002C0017B017A06790D900B06127F2D
:1049500089D001D002D00312BF8F90060A127F695E
:10496000C003C002C0017BFF7A59799D900B0612EB
:104970007F89D001D002D00312BF8F90060A127F28
:1049800069C003C002C0017BFF7A5A79C5900B064B
:10499000127F89D001D002D00312BF8F90060A1275
:1049A0007F69C003C002C0017BFF7A5A79DB900B9C
:1049B00006127F89D001D002D00312BF8F900B4620
:1049C000E0FFEF64037003024AE47B017A06790D8D
:1049D000C003C002C0017BFF7A5A79ED90064212F3
:1049E0007F89900B12127F17EC1279077B007A00F7
:1049F000798078471277F1900645127F2FD001D049
:104A000002D0031282A890060A127F69C003C00276
:104A1000C0017B017A06790D900B06127F89D001C7
:104A2000D002D00312BF8F7B017A06790DC003C07C
:104A300002C0017BFF7A5A79F7900642127F899073
:104A40000B16127F17EC1279077B007A00798078B9
:104A5000471277F1900645127F2FD001D002D00384
:104A60001282A890060A127F69C003C002C0017BAF
:104A7000017A06790D900B06127F89D001D002D001
:104A80000312BF8F7B017A06790DC003C002C001FB
:104A90007BFF7A5B7901900642127F89900B1A1294
:104AA0007F17EC1279077B007A00798078471277BC
:104AB000F1900645127F2FD001D002D0031282A8B8
:104AC00090060A127F69C003C002C0017B017A060A
:104AD000790D900B06127F89D001D002D00312BF4E
:104AE0008F024BFB7B017A06790DC003C002C00127
:104AF0007BFF7A5A79ED900642127F89900B2A1239
:104B00007F17EC1279077B007A007980784712775B
:104B1000F1900645127F2FD001D002D0031282A857
:104B200090060A127F69C003C002C0017B017A06A9
:104B3000790D900B06127F89D001D002D00312BFED
:104B40008F7B017A06790DC003C002C0017BFF7A1A
:104B50005A79F7900642127F89900B2E127F17EC3C
:104B60001279077B007A00798078471277F19006F6
:104B700045127F2FD001D002D0031282A890060ADE
:104B8000127F69C003C002C0017B017A06790D90D3
:104B90000B06127F89D001D002D00312BF8F7B0198
:104BA0007A06790DC003C002C0017BFF7A5B7901F0
:104BB000900642127F89900B32127F17EC12790710
:104BC0007B007A00798078471277F1900645127F52
:104BD0002FD001D002D0031282A890060A127F695A
:104BE000C003C002C0017B017A06790D900B06124A
:104BF0007F89D001D002D00312BF8F90060A127FA6
:104C000069C003C002C0017BFF7A5B790B900B0681
:104C1000127F89D001D002D00312BF8F900B46E0E3
:104C2000FFEF64037003024D437B017A06790DC0E8
:104C300003C002C0017BFF7A5A79ED900642127FD1
:104C400089900B1E127F17EC1279077B007A00798E
:104C50008078471277F1900645127F2FD001D0025D
:104C6000D0031282A890060A127F69C003C002C056
:104C7000017B017A06790D900B06127F89D001D055
:104C800002D00312BF8F7B017A06790DC003C002E8
:104C9000C0017BFF7A5A79F7900642127F89900B08
:104CA00022127F17EC1279077B007A00798078470F
:104CB0001277F1900645127F2FD001D002D0031257
:104CC00082A890060A127F69C003C002C0017B015E
:104CD0007A06790D900B06127F89D001D002D0039D
:104CE00012BF8F7B017A06790DC003C002C0017B21
:104CF000FF7A5B7901900642127F89900B26127F22
:104D000017EC1279077B007A00798078471277F1E7
:104D1000900645127F2FD001D002D0031282A890B6
:104D2000060A127F69C003C002C0017B017A0679BE
:104D30000D900B06127F89D001D002D00312BF8FD5
:104D4000024E5A7B017A06790DC003C002C0017B76
:104D5000FF7A5A79ED900642127F89900B36127FC6
:104D600017EC1279077B007A00798078471277F187
:104D7000900645127F2FD001D002D0031282A89056
:104D8000060A127F69C003C002C0017B017A06795E
:104D90000D900B06127F89D001D002D00312BF8F75
:104DA0007B017A06790DC003C002C0017BFF7A5AED
:104DB00079F7900642127F89900B3A127F17EC1216
:104DC00079077B007A00798078471277F190064561
:104DD000127F2FD001D002D0031282A890060A12AF
:104DE0007F69C003C002C0017B017A06790D900B78
:104DF00006127F89D001D002D00312BF8F7B017AC7
:104E000006790DC003C002C0017BFF7A5B79019077
:104E10000642127F89900B3E127F17EC1279077BB6
:104E2000007A00798078471277F1900645127F2F3B
:104E3000D001D002D0031282A890060A127F69C066
:104E400003C002C0017B017A06790D900B06127F28
:104E500089D001D002D00312BF8F90060A127F6959
:104E6000C003C002C0017BFF7A59799D900B0612E6
:104E70007F89D001D002D00312BF8F900B44E0FF96
:104E8000EFB4032390060A127F69C003C002C00179
:104E90007BFF7A5B7925900B06127F89D001D002C7
:104EA000D00312BF8F802190060A127F69C003C011
:104EB00002C0017BFF7A5B793F900B06127F89D09D
:104EC00001D002D00312BF8F900B45E0FFEF127F9D
:104ED000924EDB004EFE0100004F1F90060A127F2B
:104EE00069C003C002C0017BFF7A5B7958900B0652
:104EF000127F89D001D002D00312BF8F802190068B
:104F00000A127F69C003C002C0017BFF7A5B796A25
:104F1000900B06127F89D001D002D00312BF8F9070
:104F2000060A127F69C003C002C0017BFF7A5B7969
:104F300081900B06127F89D001D002D00312BF8F5F
:104F4000900B46E0FFEF127F924F59004F7C014FCC
:104F50009F024FC20300004FE390060A127F69C010
:104F600003C002C0017BFF7A5B7990900B06127F31
:104F700089D001D002D00312BF8F806790060A1239
:104F80007F69C003C002C0017BFF7A5B799B900BF5
:104F900006127F89D001D002D00312BF8F804490C7
:104FA000060A127F69C003C002C0017BFF7A5B79E9
:104FB000A1900B06127F89D001D002D00312BF8FBF
:104FC000802190060A127F69C003C002C0017BFFE6
:104FD0007A5B79AB900B06127F89D001D002D003A7
:104FE00012BF8F90060A127F69C003C002C0017B06
:104FF000FF7A5B79C2900B06127F89D001D002D074
:105000000312BF8F756700756800C3E5689402E5F9
:10501000676480948040030250B47B017A06790D66
:10502000C003C002C0017BFF7A5A79829006421207
:105030007F89E5682401FFE5673400FE900645EEB0
:10504000F0A3EFF0AE67AF6874472FF582740B3EA4
:10505000F583E0FF7E00900647EEF0A3EFF0D0016D
:10506000D002D0031282A890060A127F69C003C042
:1050700002C0017B017A06790D900B06127F89D060
:1050800001D002D00312BF8F90060A127F69C003BD
:10509000C002C0017BFF7A59799D900B06127F896F
:1050A000D001D002D00312BF8F0568E568700205F9
:1050B0006702500A90060A127F69C003C002C0014D
:1050C0007BFF7A5B79D7900B06127F89D001D002E3
:1050D000D00312BF8F756700756800C3E56894023E
:1050E000E5676480948040030251A17B017A0679D0
:1050F0000DC003C002C0017BFF7A5B79ED900642D0
:10510000127F89E5682401FFE5673400FE900645BB
:10511000EEF0A3EFF0E568AE677802C333CE33CE8E
:10512000D8F9FF74492FF582740B3EF583127F176F
:10513000AA67AB6874472BF582740B3AF583E0F9E4
:10514000A801127EB6900647127F2FD001D002D060
:10515000031282A890060A127F69C003C002C00130
:105160007B017A06790D900B06127F89D001D0025F
:10517000D00312BF8F90060A127F69C003C002C01D
:10518000017BFF7A59799D900B06127F89D001D05F
:1051900002D00312BF8F0568E568700205670250F0
:1051A000DB90060A127F69C003C002C0017BFF7A50
:1051B0005B79F7900B06127F89D001D002D00312E1
:1051C000BF8F756700756800C3E5689402E5676482
:1051D00080948040030252797B017A06790DC003E6
:1051E000C002C0017BFF7A5C7911900642127F8970
:1051F000E5682401FFE5673400FE900645EEF0A364
:10520000EFF0E568AE677802C333CE33CED8F9FF4E
:1052100074512FF582740B3EF583127F1790064769
:10522000127F2FD001D002D0031282A890060A125A
:105230007F69C003C002C0017B017A06790D900B23
:1052400006127F89D001D002D00312BF8F90060AC8
:10525000127F69C003C002C0017BFF7A59799D901B
:105260000B06127F89D001D002D00312BF8F0568D0
:10527000E568700205670251C890060A127F69C08E
:1052800003C002C0017BFF7A5C791A900B06127F83
:1052900089D001D002D00312BF8F7B017A06790D2D
:1052A000C003C002C0017BFF7A5C795090064212B5
:1052B0007F89900B77127F17900645127F2FD001C0
:1052C000D002D0031282A890060A127F69C003C0E0
:1052D00002C0017B017A06790D900B06127F89D0FE
:1052E00001D002D00312BF8F90060A127F69C0035B
:1052F000C002C0017BFF7A59799D900B06127F890D
:10530000D001D002D00312BF8F90060A127F69C06D
:1053100003C002C0017BFF7A5C7953900B06127FB9
:1053200089D001D002D00312BF8F7B017A06790D9C
:10533000C003C002C0017BFF7A5C7966900642120E
:105340007F89900B7BE0FEA3E0FF900645EEF0A383
:10535000EFF0D001D002D0031282A890060A127F8B
:1053600069C003C002C0017B017A06790D900B066B
:10537000127F89D001D002D00312BF8F90060A128B
:105380007F69C003C002C0017BFF7A59799D900BF1
:1053900006127F89D001D002D00312BF8F90060A77
:1053A000127F69C003C002C0017BFF7A5C796A90FA
:1053B0000B06127F89D001D002D00312BF8F7B0170
:1053C0007A06790DC003C002C0017BFF7A5C796662
:1053D000900642127F89900B7DE0FEA3E0FF9006CD
:1053E00045EEF0A3EFF0D001D002D0031282A890D6
:1053F000060A127F69C003C002C0017B017A0679E8
:105400000D900B06127F89D001D002D00312BF8FFE
:1054100090060A127F69C003C002C0017BFF7A5C5C
:105420007976900B06127F89D001D002D00312BF8B
:105430008F7B017A06790DC003C002C0017BFF7A21
:105440005C797A900642127F89900BE3E0FF7E0040
:10545000900645EEF0A3EFF0D001D002D003128207
:10546000A890060A127F69C003C002C0017B017ABE
:1054700006790D900B06127F89D001D002D003125D
:10548000BF8F90060A127F69C003C002C0017BFF74
:105490007A59799D900B06127F89D001D002D003F2
:1054A00012BF8F756700756800C3E5689402E567F1
:1054B0006480948040030255C67B017A06790DC052
:1054C00003C002C0017BFF7A5C7994900642127F90
:1054D00089E5682401FFE5673400FE900645EEF09B
:1054E000A3EFF0E568AE677802C333CE33CED8F9C8
:1054F000FF74E42FF582740B3EF583127F17AA67C1
:10550000AB6874D12BF582740B3AF583E0F9A801EE
:10551000127EB6900647127F2FD001D002D0031220
:1055200082A890060A127F69C003C002C0017B01F5
:105530007A06790D900B06127F89D001D002D00334
:1055400012BF8F7B017A06790DC003C002C0017BB8
:10555000FF7A5C79BA900642127F89E568AE677877
:1055600002C333CE33CED8F9FF74EC2FF582740B1F
:105570003EF583127F17AA67AB6874D12BF582744E
:105580000B3AF583E0F9A801127EB6900645127F2A
:105590002FD001D002D0031282A890060A127F6990
:1055A000C003C002C0017B017A06790D900B061280
:1055B0007F89D001D002D00312BF8F0568E56870E3
:1055C0000205670254A97B017A06790DC003C00267
:1055D000C0017BFF7A5C79C7900642127F89900BED
:1055E000F4E0FEA3E0FF900BD1E0FDEFA8050880FA
:1055F00006CEA2E713CE13D8F8FF900645EEF0A32F
:10560000EFF0D001D002D0031282A890060A127FD8
:1056100069C003C002C0017B017A06790D900B06B8
:10562000127F89D001D002D00312BF8F90060A12D8
:105630007F69C003C002C0017BFF7A59799D900B3E
:1056400006127F89D001D002D00312BF8F7B017A6E
:1056500006790DC003C002C0017BFF7A5C79D99046
:105660000642127F89900BCCE0FEA3E0FF90064536
:10567000EEF0A3EFF0D001D002D0031282A8900682
:105680000A127F69C003C002C0017B017A06790D4E
:10569000900B06127F89D001D002D00312BF8F90E9
:1056A000060A127F69C003C002C0017BFF7A5979E4
:1056B0009D900B06127F89D001D002D00312BF8FBC
:1056C000900B76E0FFEF602390060A127F69C0031B
:1056D000C002C0017BFF7A5C79EB900B06127F89D8
:1056E000D001D002D00312BF8F802190060A127F12
:1056F00069C003C002C0017BFF7A5D7912900B067E
:10570000127F89D001D002D00312BF8F900B7FE0AF
:10571000FFEF602390060A127F69C003C002C00138
:105720007BFF7A5D7938900B06127F89D001D00219
:10573000D00312BF8F802190060A127F69C003C078
:1057400002C0017BFF7A5D7968900B06127F89D0D9
:1057500001D002D00312BF8F900B89E0FFEF6023CE
:1057600090060A127F69C003C002C0017BFF7A5D08
:105770007997900B06127F89D001D002D00312BF17
:105780008F802190060A127F69C003C002C0017B8E
:10579000FF7A5D79C8900B06127F89D001D002D0C4
:1057A0000312BF8F300D2390060A127F69C003C019
:1057B00002C0017BFF7A5D79F8900B06127F89D0D9
:1057C00001D002D00312BF8F802190060A127F6998
:1057D000C003C002C0017BFF7A5E7913900B0612F2
:1057E0007F89D001D002D00312BF8F300C239006E6
:1057F0000A127F69C003C002C0017BFF7A5E792D67
:10580000900B06127F89D001D002D00312BF8F8087
:105810002190060A127F69C003C002C0017BFF7A93
:105820005E7951900B06127F89D001D002D003120D
:10583000BF8F300A2390060A127F69C003C002C0DE
:10584000017BFF7A5E7974900B06127F89D001D0BC
:1058500002D00312BF8F802190060A127F69C00315
:10586000C002C0017BFF7A5E7999900B06127F8996
:10587000D001D002D00312BF8F900B90E0FFEF60F9
:105880002390060A127F69C003C002C0017BFF7A21
:105890005E79BD900B06127F89D001D002D0031231
:1058A000BF8F802190060A127F69C003C002C00129
:1058B0007BFF7A5E79D0900B06127F89D001D002EF
:1058C000D00312BF8F7B017A06790DC003C002C0DE
:1058D000017BFF7A5E79E2900642127F89900C325A
:1058E000127F23900CD1127F17127D1C9006451257
:1058F0007F2FD001D002D0031282A890060A127F17
:1059000069C003C002C0017B017A06790D900B06C5
:10591000127F89D001D002D00312BF8F90060A12E5
:105920007F69C003C002C0017BFF7A59799D900B4B
:1059300006127F89D001D002D00312BF8F222059D6
:1059400045530000204E4F00002055736200002098
:10595000456E636F6465722033000020506F736979
:1059600074696F6E00002050574D0000204375721F
:1059700072656E74000020506F736974696F6E20D9
:10598000616E642063757272656E740000204C65F0
:10599000667400002052696768740000000D0A00F8
:1059A0004669726D776172652076657273696F6E94
:1059B0003A200043554646204D4F442076362E313E
:1059C0002E33002E0D0A0D0A00444556494345204A
:1059D000494E464F0D0A0049443A2025640D0A00FD
:1059E0004E756D626572206F662073656E736F729F
:1059F000733A2025640D0A00537570706C79207419
:105A0000656E73696F6E3A2025640D0A0050574D1C
:105A1000204C696D69743A2025640D0A004D4F547D
:105A20004F5220494E464F0D0A004D6F746F722041
:105A30007265666572656E6365733A200025642041
:105A4000004D6F746F7220656E61626C65643A2000
:105A5000005945530D0A004E4F0D0A000D0A4D45E1
:105A600041535552454D454E545320494E464F0DD6
:105A70000A0053656E736F722076616C75653A0D1E
:105A80000A002564202D3E20256400566F6C746149
:105A9000676520286D56293A20256C64004375728D
:105AA00072656E74203120286D41293A20256C647E
:105AB0000043757272656E74203220286D41293A58
:105AC00020256C64000D0A44455649434520504149
:105AD00052414D45544552530D0A0050494420430C
:105AE0006F6E74726F6C6C65723A0D0A0050202DE7
:105AF0003E2025660D0A0049202D3E2025660D0A10
:105B00000044202D3E2025660D0A00437572726503
:105B10006E742050494420436F6E74726F6C6C65D4
:105B2000723A0D0A00537461727475702061637467
:105B300069766174696F6E3A205945530D0A0053B6
:105B40007461727475702061637469766174696FD1
:105B50006E3A204E4F0D0A00496E707574206D6FBD
:105B600064653A205553420D0A00496E70757420E1
:105B70006D6F64653A2053656E736F7220330D0A42
:105B800000436F6E74726F6C204D6F64653A200035
:105B9000506F736974696F6E0D0A0050574D0D0A8E
:105BA0000043757272656E740D0A00506F736974EC
:105BB000696F6E20616E642063757272656E740D1C
:105BC0000A0053656E736F72207265736F6C757423
:105BD000696F6E3A0D0A004D6561737572656D658A
:105BE0006E74204F66667365743A0D0A0025642052
:105BF0002D3E20256C64004D6561737572656D6581
:105C00006E74204D756C7469706C6965723A0D0A1A
:105C1000002564202D3E202566000A4375727265BA
:105C20006E7420636F6E74726F6C6C657227732074
:105C3000706172616D65746572733A0A50726F704B
:105C40006F7274696F6E616C206761696E3A2000D3
:105C500025660053617475726174696F6E20766198
:105C60006C75653A20002568640044656164207A9B
:105C70006F6E653A20000D0A0A00506F73697469EF
:105C80006F6E206C696D6974206163746976653A22
:105C900020256400506F736974696F6E206C696DA4
:105CA0006974206D6F746F722025643A20696E6686
:105CB000202D3E20256C64202000737570202D3E21
:105CC00020256C640D0A004D617820737469666646
:105CD0006E6573733A2025640043757272656E7445
:105CE000206C696D69743A202564004375666620EE
:105CF000737461727475702061637469766174691C
:105D00006F6E2028666F726365293A205945530DDE
:105D10000A00437566662073746172747570206141
:105D2000637469766174696F6E2028666F7263654B
:105D3000293A204E4F0D0A00437566662073746140
:105D4000727475702061637469766174696F6E2016
:105D50002870726F7072696F63657074696F6E29F5
:105D60003A205945530D0A004375666620737461E5
:105D7000727475702061637469766174696F6E20E6
:105D80002870726F7072696F63657074696F6E29C5
:105D90003A204E4F0D0A0043756666207374617297
:105DA0007475702061637469766174696F6E202800
:105DB000666F726365202B2070726F7072696F2935
:105DC0003A205945530D0A00437566662073746185
:105DD000727475702061637469766174696F6E2086
:105DE00028666F726365202B2070726F7072696F06
:105DF000293A204E4F0D0A00437566662061637490
:105E00006976652028666F726365293A2059455383
:105E10000D0A004375666620616374697665202803
:105E2000666F726365293A204E4F0D0A004375660E
:105E30006620616374697665202870726F7072697C
:105E40006F63657074696F6E293A205945530D0A66
:105E500000437566662061637469766520287072F8
:105E60006F7072696F63657074696F6E293A204E46
:105E70004F0D0A004375666620616374697665207C
:105E800028666F726365202B2070726F7072696F65
:105E9000293A205945530D0A00437566662061630F
:105EA000746976652028666F726365202B20707296
:105EB0006F7072696F293A204E4F0D0A0043756664
:105EC0006620736964653A2052494748540D0A00B8
:105ED0004375666620736964653A204C4546540DE7
:105EE0000A0064656275673A20256C640000000052
:105EF00000000000000000000000000000000000A2
:105F00000000000000000000000000000000000091
:105F10000000000000000000000000000000000081
:105F20000000000000000000000000000000000071
:106650000000000000000000000031202D204465F3
:10666000766963652049443A0032202D20506F73CB
:106670006974696F6E20504944205B502C20492C6E
:1066800020445D3A0033202D2043757272656E748C
:1066900020504944205B502C20492C20445D3A0076
:1066A00034202D20537461727475702041637469B5
:1066B000766174696F6E3A000000000035202D206D
:1066C000496E707574206D6F64653A0000000000BB
:1066D0000000000000000036202D20436F6E747211
:1066E0006F6C206D6F64653A0000000000000000D0
:1066F0000000000000000000000000000000372043
:106700002D205265736F6C7574696F6E733A00005B
:1067100000000038202D204D6561737572656D6530
:106720006E74204F6666736574733A0039202D20AD
:106730004D756C7469706C696572733A0031302004
:106740002D20506F732E206C696D69742061637405
:106750006976653A00000000003131202D20506F2D
:10676000732E206C696D697473205B696E662C20D2
:106770007375705D3A003132202D204D61782073A1
:1067800074657073205B6E65672C20706F735D3A63
:10679000003133202D2043757272656E74206C6950
:1067A0006D69743A003134202D2043757272656E24
:1067B000742070726F706F7274696F6E616C206795
:1067C00061696E3A003135202D2043757272656E15
:1067D0007420646966666572656E636520736174B2
:1067E00075726174696F6E3A003136202D204375E1
:1067F0007272656E742064656164207A6F6E653AAA
:10680000003137202D2043756666206163746976F8
:106810006174696F6E20666C616720666F72636574
:106820003A00000000003138202D20506F7765724B
:106830002074656E73696F6E3A0000003139202D47
:1068400020437566662061637469766174696F6E52
:1068500020666C61672070726F7072696F3A000019
:106860000000003230202D204D617820736C696467
:1068700065206D6F76656D656E74202870726F701F
:1068800072696F293A003231202D204D61782053F2
:106890004820636C6F73757265202870726F707218
:1068A000696F293A003232202D2048616E642049F8
:1068B000443A003233202D204375666620666C61B1
:1068C0006720666F7263652B70726F7072696F3AC2
:1068D00000000000003234202D20534820726573E0
:1068E0007420706F732870726F7072696F293A002C
:1068F0000000000000003235202D2041726D207311
:106900006964653A0000000000000030202D3E2040
:106910005573620A31202D3E2053686166742773D7
:1069200020706F736974696F6E20636F6E74726F1D
:106930006C7320746865206D6F746F72730A003019
:10694000202D3E20506F736974696F6E0A31202DBF
:106950003E2050574D0A32202D3E204375727265FD
:106960006E740A33202D3E20506F736974696F6E08
:106970002D43757272656E740A0030202D3E2044DE
:10698000656163746976617465205B4E4F5D0A31A1
:10699000202D3E204163746976617465205B594502
:1069A000535D0A0030202D3E2052696768740A3119
:1069B000202D3E204C6566740A00900003EFF09095
:1069C0000003E0FF8F237F007E007D007C008F2B83
:1069D0008E2A8D298C28900B12127F178F378E36B6
:1069E0008D358C34900B16127F178F3B8E3A8D3974
:1069F0008C38900B1A127F178F3F8E3E8D3D8C3C4A
:106A0000900B1E127F178F438E428D418C40900B4E
:106A100022127F178F478E468D458C44900B26128D
:106A20007F178F4B8E4A8D498C48900B2A127F1707
:106A30008F4F8E4E8D4D8C4C900B2E127F178F5397
:106A40008E528D518C50900B32127F178F578E566D
:106A50008D558C54900B36127F178F5B8E5A8D5943
:106A60008C58900B3A127F178F5F8E5E8D5D8C5C19
:106A7000900B3E127F178F638E628D618C60E523D1
:106A8000C3940240030276E7900B46E0FFEF127FCB
:106A9000926AA100750D017225026D340300007524
:106AA00079AF23EF25E025E024E5F582E4340CF509
:106AB00083127F23AF23EF25E025E02491F582E4C4
:106AC000340BF583127F17127D1C8F2F8E2E8D2D88
:106AD0008C2C301105C21112A319AF23EF25E0252C
:106AE000E02486F582E4340DF583C083C082127FF2
:106AF00017EF252FFFEE352EFEED352DFDEC352C55
:106B0000FCD082D083127F2FAF23EF25E025E02435
:106B100086F582E4340DF583127F177BA07A86799F
:106B2000017800C3127E7C501D7FA07E867D017C93
:106B300000AB23EB25E025E02486F582E4340DF557
:106B400083127F2F803CAF23EF25E025E02486F5DC
:106B500082E4340DF583127F177B607A7979FE78B1
:106B6000FFD3127E7C401B7F607E797DFE7CFFAB75
:106B700023EB25E025E02486F582E4340DF583122D
:106B80007F2F301105C21112A3197F007E007D00F6
:106B90007C008F2B8E2A8D298C287F007E007D0023
:106BA0007C00AB37AA36A935A834C3127E7C60734B
:106BB0007F007E007D027C00AB2FAA2EA92DA82C81
:106BC000D3127E7C50167F007E007DFE7CFFAB2FB3
:106BD000AA2EA92DA82CC3127E7C5027AF2FAE2E33
:106BE000AD2DAC2C7808127EB6AB37AA36A935A8E5
:106BF00034127D2A7808127EB68F2B8E2A8D298C2E
:106C0000288020AF2FAE2EAD2DAC2CAB37AA36A9E5
:106C100035A834127D2A7810127EB68F2B8E2A8DDD
:106C2000298C28301105C21112A3197F007E007D26
:106C3000007C00AB3BAA3AA939A838C3127E7C601D
:106C400040AF3BAE3AAD39AC387806127EB6AB23D6
:106C5000EB25E025E02486F582E4340DF583127FF0
:106C600023127D2A780A127EB6E52B2FFFE52A3EF5
:106C7000FEE5293DFDE5283CFC8F2B8E2A8D298CD5
:106C8000287F007E007D007C00AB3FAA3EA93DA886
:106C90003CC3127E7C6051AF23EF25E025E024E564
:106CA000F582E4340CF583127F23AF23EF25E02532
:106CB000E0241CF582E4340CF583127F17127D1C4E
:106CC000AB3FAA3EA93DA83C127D2A7810127EB6A1
:106CD000E52B2FFFE52A3EFEE5293DFDE5283CFC9E
:106CE0008F2B8E2A8D298C28301105C21112A319E1
:106CF000E52370207F007E007D007C00AB2BAA2A5C
:106D0000A929A828C3127E7C4005D213027579C236
:106D1000130275797F007E007D007C00AB2BAA2AD0
:106D2000A929A828C3127E7C4005D214027579C215
:106D300014027579AF23EF25E025E024E5F582E420
:106D4000340CF583127F23AF23EF25E025E0249157
:106D5000F582E4340BF583127F17127D1C8F2F8E82
:106D60002E8D2D8C2CAF23EF25E025E02486F58297
:106D7000E4340DF583C083C082127F17EF252FFF07
:106D8000EE352EFEED352DFDEC352CFCD082D0837A
:106D9000127F2F301105C21112A319AF23EF25E086
:106DA00025E02486F582E4340DF583127F177BA05D
:106DB0007A8679017800C3127E7C501D7FA07E8682
:106DC0007D017C00AB23EB25E025E02486F582E401
:106DD000340DF583127F2F803CAF23EF25E025E0B3
:106DE0002486F582E4340DF583127F177B607A796F
:106DF00079FE78FFD3127E7C401B7F607E797DFE1A
:106E00007CFFAB23EB25E025E02486F582E4340DFE
:106E1000F583127F2F7F007E007D007C008F278E00
:106E2000268D258C24301105C21112A3197F007EF6
:106E3000007D007C00AB4FAA4EA94DA84CC3127E2A
:106E40007C6030AF2FAE2EAD2DAC2CAB4FAA4EA92F
:106E50004DA84C127D2A7810127EB6E5272FFFE54B
:106E6000263EFEE5253DFDE5243CFC8F278E268D44
:106E7000258C247F007E007D007C00AB53AA52A9A4
:106E800051A850C3127E7C603BAF23EF25E025E084
:106E90002486F582E4340DF583127F17AB53AA5292
:106EA000A951A850127D2A7810127EB6E5272FFF2F
:106EB000E5263EFEE5253DFDE5243CFC8F278E269C
:106EC0008D258C247F007E007D007C00AB57AA5668
:106ED000A955A854C3127E7C6051AF23EF25E0254D
:106EE000E024E5F582E4340CF583127F23AF23EF31
:106EF00025E025E0241CF582E4340CF583127F178D
:106F0000127D1CAB57AA56A955A854127D2A781099
:106F1000127EB6E5272FFFE5263EFEE5253DFDE581
:106F2000243CFC8F278E268D258C24301105C21120
:106F300012A319900B42E0FEA3E0FFEE3395E0FDB3
:106F4000FCAB27AA26A925A824D3127E7C40189042
:106F50000B42E0FEA3E0FFEE3395E0FDFC8F278EB1
:106F6000268D258C248040900B42E0FEA3E0FFC3D9
:106F7000E49FFFE49EFEEE3395E0FDFCAB27AA26DE
:106F8000A925A824C3127E7C501D900B42E0FEA3CD
:106F9000E0FFC3E49FFFE49EFEEE3395E0FDFC8F2F
:106FA000278E268D258C24301105C21112A319AF0E
:106FB00023EF25E024EDF582E4340CF583E0FEA315
:106FC000E0FFAB07AA06EA3395E0F9F8C3E5279B93
:106FD000FFE5269AFEE52599FDE52498FC8F338E82
:106FE000328D318C30AF23EF25E025E0248EF58201
:106FF000E4340DF583C083C082127F17EF2533FF81
:10700000EE3532FEED3531FDEC3530FCD082D083EB
:10701000127F2FAF23EF25E025E0248EF582E434A4
:107020000DF583127F177BA07A8679017800C31251
:107030007E7C501D7FA07E867D017C00AB23EB25EE
:10704000E025E0248EF582E4340DF583127F2F8055
:107050003CAF23EF25E025E0248EF582E4340DF5E6
:1070600083127F177B607A7979FE78FFD3127E7C5A
:10707000401B7F607E797DFE7CFFAB23EB25E02506
:10708000E0248EF582E4340DF583127F2F30110554
:10709000C21112A3197F007E007D007C008F2B8E11
:1070A0002A8D298C287F007E007D007C00AB5BAAA6
:1070B0005AA959A858C3127E7C6030AF33AE32ADA6
:1070C00031AC30AB5BAA5AA959A858127D2A781066
:1070D000127EB6E52B2FFFE52A3EFEE5293DFDE5B4
:1070E000283CFC8F2B8E2A8D298C287F007E007DEA
:1070F000007C00AB5FAA5EA95DA85CC3127E7C60C9
:107100003BAF23EF25E025E0248EF582E4340DF536
:1071100083127F17AB5FAA5EA95DA85C127D2A78F7
:1071200010127EB6E52B2FFFE52A3EFEE5293DFD38
:10713000E5283CFC8F2B8E2A8D298C287F007E0031
:107140007D007C00AB63AA62A961A860C3127E7C4B
:10715000605BAF23EF25E024EDF582E4340CF5838A
:10716000E0FEA3E0FFAB07AA06EA3395E0F9F8AF2B
:1071700023EF25E025E0247EF582E4340DF583122B
:107180007F17127D1CAB63AA62A961A860127D2AD9
:107190007810127EB6E52B2FFFE52A3EFEE5293D4D
:1071A000FDE5283CFC8F2B8E2A8D298C28AF23EF00
:1071B00025E024EDF582E4340CF583E0FEA3E0FF46
:1071C000EE3395E0FDFCAB23EB25E025E0247EF5D6
:1071D00082E4340DF583127F2F301105C21112A302
:1071E00019E52370207F007E007D007C00AB2BAA78
:1071F0002AA929A828C3127E7C4005D213027579DA
:10720000C2130275797F007E007D007C00AB2BAA43
:107210002AA929A828C3127E7C4005D214027579B8
:10722000C214027579AF23EF25E025E02491F582A1
:10723000E4340BF583127F17AB2374D12BF582E472
:10724000340BF583E0F9A801127EB68F278E268DC8
:10725000258C24900B42E0FEA3E0FFEE3395E0FD89
:10726000FCAB27AA26A925A824D3127E7C40169021
:107270000B42E0FEA3E0FFEE3395E0FDFC8F278E8E
:10728000268D258C24AE26AF2712D2F6AD23ED2510
:10729000E024EDF582E4340CF583E0FCA3E0FDC3CB
:1072A000EF9DFFEE9CFEEE3395E0FDFC8F338E32BA
:1072B0008D318C30AF23EF25E025E0248EF582E47C
:1072C000340DF583C083C082127F17EF2533FFEEA4
:1072D0003532FEED3531FDEC3530FCD082D08312F5
:1072E0007F2FAF23EF25E025E0248EF582E4340DD7
:1072F000F583127F177BA07A8679017800C3127E0E
:107300007C501D7FA07E867D017C00AB23EB25E0B9
:1073100025E0248EF582E4340DF583127F2F803C26
:10732000AF23EF25E025E0248EF582E4340DF583CC
:10733000127F177B007A0079007800D3127E7C40A0
:107340001B7F007E007D007C00AB23EB25E025E069
:10735000248EF582E4340DF583127F2F7F007E00AA
:107360007D007C008F2B8E2A8D298C287F007E004B
:107370007D007C00AB43AA42A941A840C3127E7C99
:107380006030AF33AE32AD31AC30AB37AA36A93551
:10739000A834127D2A7810127EB6E52B2FFFE52A3D
:1073A0003EFEE5293DFDE5283CFC8F2B8E2A8D29EC
:1073B0008C287F007E007D007C00AB47AA46A94553
:1073C000A844C3127E7C6040AF23EF25E025E02473
:1073D0008EF582E4340DF583127F177806127EB69F
:1073E000AB47AA46A945A844127D2A780A127EB660
:1073F000E52B2FFFE52A3EFEE5293DFDE5283CFC77
:107400008F2B8E2A8D298C287F007E007D007C00AA
:10741000AB4BAA4AA949A848C3127E7C605BAF2344
:10742000EF25E024EDF582E4340CF583E0FEA3E0E3
:10743000FFAB07AA06EA3395E0F9F8AF23EF25E0A2
:1074400025E0247EF582E4340DF583127F17127D4A
:107450001CAB4BAA4AA949A848127D2A7810127E73
:10746000B6E52B2FFFE52A3EFEE5293DFDE5283C4C
:10747000FC8F2B8E2A8D298C287F007E007D007C3E
:1074800000AB2BAA2AA929A828C3127E7C50107F02
:10749000007E007D007C008F2B8E2A8D298C28AFEA
:1074A00023EF25E024EDF582E4340CF583E0FEA320
:1074B000E0FFEE3395E0FDFCAB23EB25E025E02477
:1074C0007EF582E4340DF583127F2FE52370207F53
:1074D000007E007D007C00AB2BAA2AA929A828C326
:1074E000127E7C4005D213027579C2130275797F32
:1074F000007E007D007C00AB2BAA2AA929A828C306
:10750000127E7C4004D2148070C214806CAF23EFD2
:1075100025E025E02491F582E4340BF583127F17F2
:10752000AB2374D12BF582E4340BF583E0F9A80189
:10753000127EB68F2B8E2A8D298C28E523701E7F14
:10754000007E007D007C00AB2BAA2AA929A828C3B5
:10755000127E7C4004D2138020C213801C7F007EE8
:10756000007D007C00AB2BAA2AA929A828C3127E83
:107570007C4004D2148002C214301105C21112A33F
:10758000197F647E007D007C00AB2BAA2AA929A864
:1075900028D3127E7C40107F647E007D007C008FAB
:1075A0002B8E2A8D298C287F9C7EFF7DFF7CFFAB54
:1075B0002BAA2AA929A828C3127E7C50107F9C7E62
:1075C000FF7DFF7CFF8F2B8E2A8D298C28301105A3
:1075D000C21112A319900B46E0FFEF64016039AFAE
:1075E0002BAE2AAD29AC28780A127ECA7B647A00B9
:1075F0007900780012C7C8A804A905AA06AB0790AD
:107600000CFBE0FFE4FCFDFE127D2A780A127EB638
:107610008F2B8E2A8D298C283013113014077F036D
:1076200012D1F980167F0112D1F9800F3014077F33
:107630000212D1F980057F0012D1F9301105C21173
:1076400012A319E523704D7F007E007D007C00AB06
:107650002BAA2AA929A828D3127E7C40067E007F67
:107660000180207F007E007D007C00AB2BAA2AA930
:1076700029A828C3127E7C50067EFF7FFF80047EEF
:10768000007F00900CE3EFF0AE2AAF2B12D2F6127F
:10769000D139804B7F007E007D007C00AB2BAA2A75
:1076A000A929A828D3127E7C40067E007F01802075
:1076B0007F007E007D007C00AB2BAA2AA929A82888
:1076C000C3127E7C50067EFF7FFF80047E007F0019
:1076D000900CE4EFF0AE2AAF2B12D2F612D1493063
:1076E0001105C21112A31922EC4D6011E84970175F
:1076F000ED33EC3304600DE4FCFFFEFD22E933E8DA
:10770000330470F80279B112797C58046009E4CC32
:10771000248150062850090279BB2840030279B819
:10772000C0E0EB4A7044B98006D0E0FB0279A7EFD5
:107730004E701CBD8008EBFFEAFEE9FD80EBE98D91
:10774000F0A4FEE5F00277D1E9CDF9EAFEEBFFEF18
:1077500089F0A4FCE5F0CE89F0A42EFFE435F0CD4D
:1077600089F0A42DFEE435F08067EF4E7005BD80F2
:10777000D780C3EF8BF0A4ACF0EE8BF0A42CFCE42C
:1077800035F0F8EF8AF0A42CE5F038FCE433CB8D2B
:10779000F0A42CFCE5F03BF8EE8AF0A42CFCE5F01C
:1077A00038F8E433CF89F0A42CFCE5F038CF34006E
:1077B000CE89F0A42FFFE5F03EFEE433C98DF0A49E
:1077C0002EFEE5F039CD8AF0A42FFFE5F03EFEE471
:1077D0003DFD33D0E0FB50070BBB000F0279BBEC43
:1077E0002CFCEF33FFEE33FEED33FD02799302798B
:1077F000BBEC5D046005E8590470030279B11279AD
:107800007C580460F6EC4860F2EC7004FDFEFF2248
:10781000C860DB2481C85009C39860025006027911
:10782000B89850CAF582E9294B4A7005AB820279B3
:10783000A775F0007C1A7880C3EF9BEE9AED994013
:107840000DC3EF9BFFEE9AFEED99FDE842F0DC23BD
:10785000ACF0D0E0FFD0E0FED0E0FDAB8220E7103E
:107860001BEB60BAEC2CFCEF33FFEE33FEED33FD87
:10787000027993E803F830E705C0F075F000EF2FC8
:10788000FFEE33FEED33FD40B830E7C280AA74F856
:10789000CC6480CCC86480C8F58204604FC3EB9F81
:1078A000F5F0EA9E42F0E99D42F0E89C45F0603C2C
:1078B000501DE5825FFFE582D313CB5BCBF42B55E4
:1078C00082FB50280ABA002409B9002008801DE56F
:1078D000825BFBE582D313CF5FCFF4C3132F5582B6
:1078E000FF50090EBE00050DBD00010CC3EB9FF556
:1078F000F0EA9E42F0E99D42F0E89C45F06007CC3A
:107900004820E701B3EC2275F020800E75F010805E
:107910000575F0087D007E007F003392D530D503D9
:10792000127E6EEC334010EF33FFEE33FEED33FD8D
:10793000EC33FCD5F0ED22E5F0247EA2D513CC92F9
:10794000E7CDCEFF22EDD2E7CD33EC3392D52481C3
:107950004006E4FFFEFDFC22FCE4CFCECDCC24E0CB
:10796000501174FF80EDC3CC13CCCD13CDCE13CE0C
:10797000CF13CF0470F030D5DE027E6EE9D2E7C9B6
:1079800033E833F892D5EDD2E7CD33EC33FC500237
:10799000B2D522EC30E7100FBF000C0EBE00080D70
:1079A000BD00040BEB6014A2D5EB13FCED92E7FDD8
:1079B0002274FFFCFDFEFF22E480F8A2D574FF13C1
:1079C000FC7D80E480EFF920E73624F95003790745
:1079D000E4F42402FBE582158270021583DBF6E0F5
:1079E00024FB501BE96014E4F0E582158270021557
:1079F00083E004F0B40A08E4F0D9EE7401F00A223E
:107A0000C2D522ED33EC3392D5FA602AB4FF33EDC0
:107A1000C2E77BFF60067A7A7928E4227A7A7931A4
:107A200020D5047A7A792C224E614E002B494E469D
:107A3000002D494E4600E47A08F0A3DAFC7B00747E
:107A40000722C083C082ECC0E0EDC0E0EEC0E0EFF2
:107A5000C0E0EA75F010A4CAABF075F04DA42BFBA2
:107A6000E435F0FCEA2410FAEB34C5FBEC34D9FC25
:107A7000EDC2E7FF75F056A4F42411C5F0F434C547
:107A80008FF0A42AE5F03BE43CF020E714127C30B0
:107A9000D0E0FFD0E0FED0E0FDD0E0FC1277F18036
:107AA00014F404127C30D0E0FFD0E0FED0E0FDD032
:107AB000E0FC1276E8D082D083E0FAEDD2E7CD3355
:107AC000EC332482FBE4C3CF33CFCE33CECD33CDE2
:107AD00033DBF37B0775F00A846004F0A31B0AE52F
:107AE000F0F0A38FF0740AA4FFACF08EF0740AA437
:107AF0002CFEACF050010C8DF0740AA42CFDE43582
:107B0000F0F0A3DBDE7407220279B1E86480F8E9C3
:107B100033E83360110460F0ED33EC337009E8FCB6
:107B2000E9FDEAFEEBFF220460DED3EB9FEA9EE96B
:107B30009DE8C2E78CF0C2F795F0400CE8CCF8E97C
:107B4000CDF9EACEFAEBCFFB12797C85D0F0580460
:107B5000700320D5B3E80470075002B2D50279BB98
:107B600092D5EC0460F7E4CCC0E0C398F8603B9495
:107B7000186008400DD0E0FB027993E4FBFAC9FCE1
:107B80008028E830E406E4C9FBE4CAFCE830E305F9
:107B9000E4C9CACBFCE854076010F8C3E913F9EA5A
:107BA00013FAEB13FBEC13FCD8F130F52FC3E49C74
:107BB000FCEF9BFFEE9AFEED99FDD0E0FBEF4E4D02
:107BC0004C701222DB030279B8EC2CFCEF33FFEE91
:107BD00033FEED33FDED30E7EB027993EF2BFFEE53
:107BE0003AFEED39FDD0E0FB50130BBB00030279E8
:107BF000BBED13FDEE13FEEF13FFEC13FC027993C4
:107C00003F8000004120000042C80000447A00008C
:107C1000461C400047C35000497424004B1896800E
:107C20004CBEBC205A0E1BCA6753C21C749DC5AE05
:107C3000FB60065407601C2323127C5EEB54386003
:107C400009127C4A127C591276E8ECF8EDF9EEFA4A
:107C5000EFCB22EB127C5980F1543803241C907C2A
:107C600000FE93FC0EEE93FD0EEE930ECE93FF22DC
:107C7000BB010689828A83E0225002E722BBFE0212
:107C8000E32289828A83E49322BB010CE58229F5F1
:107C900082E5833AF583E0225006E92582F8E62260
:107CA000BBFE06E92582F8E222E58229F582E5831A
:107CB0003AF583E49322BB010689828A83F022503D
:107CC00002F722BBFE01F322EF8DF0A4A8F0CF8CC7
:107CD000F0A428CE8DF0A42EFE22C5F0F8A3E02853
:107CE000F0C5F0F8E582158270021583E038F022C5
:107CF000BB010A89828A83F0E5F0A3F0225006F7DF
:107D000009A7F01922BBFE06F3E5F009F31922EFEB
:107D10002BFFEE3AFEED39FDEC38FC22C3EF9BFF62
:107D2000EE9AFEED99FDEC98FC22E88FF0A4CC8B46
:107D3000F0A42CFCE98EF0A42CFC8AF0EDA42CFC21
:107D4000EA8EF0A4CDA8F08BF0A42DCC3825F0FD60
:107D5000E98FF0A42CCD35F0FCEB8EF0A4FEA9F059
:107D6000EB8FF0A4CFC5F02ECD39FEE43CFCEAA4A5
:107D70002DCE35F0FDE43CFC2275F008758200EF55
:107D80002FFFEE33FECD33CDCC33CCC58233C5824D
:107D90009BED9AEC99E58298400CF582EE9BFEED06
:107DA0009AFDEC99FC0FD5F0D6E4CEFBE4CDFAE4D5
:107DB000CCF9A88222B800C1B90059BA002DEC8BC9
:107DC000F084CFCECDFCE5F0CBF97818EF2FFFEEA5
:107DD00033FEED33FDEC33FCEB33FB10D70399405E
:107DE00004EB99FB0FD8E5E4F9FA227818EF2FFF9E
:107DF000EE33FEED33FDEC33FCC933C910D7059BE0
:107E0000E99A4007EC9BFCE99AF90FD8E0E4C9FA3B
:107E1000E4CCFB2275F010EF2FFFEE33FEED33FDC7
:107E2000CC33CCC833C810D7079BEC9AE899400AEA
:107E3000ED9BFDEC9AFCE899F80FD5F0DAE4CDFB68
:107E4000E4CCFAE4C8F922EF5BFFEE5AFEED59FDEF
:107E5000EC58FC22EF4BFFEE4AFEED49FDEC48FCEE
:107E600022CFF4CFCEF4CECDF4CDCCF4CC22C3E4EB
:107E70009FFFE49EFEE49DFDE49CFC22EB9FF5F059
:107E8000EA9E42F0E99D42F0EC6480C86480984527
:107E9000F022EB9FF5F0EA9E42F0E99D42F0E89C6B
:107EA00045F022E8600FECC313FCED13FDEE13FE6A
:107EB000EF13FFD8F122E86010ECA2E713FCED13FA
:107EC000FDEE13FEEF13FFD8F022E8600FEFC3338F
:107ED000FFEE33FEED33FDEC33FCD8F122BB01079E
:107EE00089828A83027F175005E9F8028203BBFE6C
:107EF00005E9F802820F89828A8302821BBB01078F
:107F000089828A83027F2F5005E9F802822BBBFE0B
:107F100005E9F802823722E0FCA3E0FDA3E0FEA31E
:107F2000E0FF22E0F8A3E0F9A3E0FAA3E0FB22ECF3
:107F3000F0A3EDF0A3EEF0A3EFF022A42582F582EA
:107F4000E5F03583F58322E6FB08E6FA08E6F92238
:107F5000FAE6FB0808E625F0F9F618E63AFAF62202
:107F6000EBF608EAF608E9F622E0FBA3E0FAA3E064
:107F7000F922F8E0FBA3A3E0F925F0F0E5821582F1
:107F800070021583E0FA38F022EBF0A3EAF0A3E9DF
:107F9000F022D083D082F8E4937012740193700DB4
:107FA000A3A393F8740193F5828883E47374029316
:107FB0006860EFA3A3A380DFD083D082F8E493703E
:107FC00012740193700DA3A393F8740193F5828842
:107FD00083E473740293B5F0067403936860E9A3B5
:107FE000A3A3A380D8E50F2582F582E50E3583F59E
:107FF00083B50E0485820F2210AF0685820FF50E21
:108000002285820FF50ED2AF22EC8EF0A4CCC5F003
:10801000CCCDF8EFA4CEC5F02DFDE43CFCE8A42EB9
:10802000C8C5F03DFDE43CFCEFA4FFE5F028FEE40C
:108030003DFDE43CFC22E709F608DFFA8046E7094B
:10804000F208DFFA803E88828C83E709F0A3DFFA2A
:108050008032E309F608DFFA806EE309F208DFFAFE
:10806000806688828C83E309F0A3DFFA805A8982D4
:108070008A83E0A3F608DFFA804E89828A83E0A330
:10808000F208DFFA804280D280FA80C680D4805520
:1080900080F28029801080A680EA809A80A880DA09
:1080A00080E280CA802988848C8589828A83E493CF
:1080B000A30586F0A30586DFF5DEF3800B89828AAF
:1080C00083E493A3F608DFF9ECFAA9F0EDFB22882C
:1080D000848C8589828A83E0A30586F0A30586DFE8
:1080E000F6DEF480E389828A83E493A3F208DFF961
:1080F00080D688F0EF60010E4E60CD88F0ED24024E
:10810000B4040050C3F582EB2402B4040050B92338
:108110002345822390808673E709F60870FA80462B
:10812000E709F20870FA803E88828C83E709F0A3A1
:1081300070FA8074E309F60870FA806CE309F208BB
:1081400070FA806488828C83E309F0A370FA805807
:1081500089828A83E0A3F60870FA804C89828A8338
:10816000E0A3F20870FA804080D280FA80C680D402
:10817000805180F28027801080A680EA809A80A8B3
:1081800080DA80E280CA802788848C8589828A830D
:10819000E493A30586F0A3058670F5800B89828A97
:1081A00083E493A3F60870F9ECFAA9F0EDFB2288BA
:1081B000848C8589828A83E0A30586F0A305867076
:1081C000F680E589828A83E493A3F20870F980D867
:1081D00088F0ED2402B4040050CEF582EB2402B402
:1081E000040050C4232345822390816873A3F8E0E0
:1081F000C5F025F0F0E582158270021583E0C838DD
:10820000F0E822E6FC08E6FD08E6FE08E6FF22E2CA
:10821000FC08E2FD08E2FE08E2FF22E493FC7401A0
:1082200093FD740293FE740393FF22ECF608EDF6BF
:1082300008EEF608EFF622ECF208EDF208EEF2088E
:10824000EFF222E5692442F582E43406F583E00585
:10825000692290063F300803900642E475F001124F
:108260007F72027C702001E97F2ED2018018EF54CA
:108270000F2490D43440D4FF30050BEF24BFB41A40
:108280000050032461FFE56A6002156A056DE56D23
:108290007002056C30080E90063FE475F001127F05
:1082A00072EF027CB602CD247403D2088003E4C2CC
:1082B00008F56990063F127F89E4F56AF56CF56D63
:1082C000E56A60077F2012828680F5756BFFC20227
:1082D000C201C203C204C206C207C209128252FF0F
:1082E000700D3008057F00128297AF6DAE6C22B41E
:1082F000255FC2D5C205128252FF24D0B40A0050B5
:108300001A75F00A786A30D50508B6FF0106C6A4CA
:1083100026F620D5047002D20480D924CFB41A00E6
:10832000EF5004C2E5D205028589D20280C6D2018F
:1083300080C0D20380BCD2D580BAD20680B47F2060
:108340001282862003077401B56A0040F11282434D
:10835000FF1282860282C0D209D207809512824320
:10836000FB128243FA128243F94A4B700679877AEC
:10837000867BFF20032EE56A602A7E008E8275834D
:1083800000127C8960060EEE656B70F0C2D5EBC002
:10839000E0EAC0E0E9C0E0EE1285EAD0E0F9D0E022
:1083A000FAD0E0FB127C70FF60AAEBC0E0EAC0E00C
:1083B000E9C0E0128286D0E02401F9D0E03400FA6E
:1083C000D0E0FBE56B0460DCD56BD98087D20380FD
:1083D000A21285CC60F7E56B7001041279C6A96B17
:1083E000600DE56B600914F56B128674EF60F3EABB
:1083F00030E702F404C3995079EAF4256B0430E7BE
:1084000001E404F56B800D1285CC60C1EA056B2593
:108410006B1279C6EA90066EF030E701E4256B0432
:10842000D56B04200601141285EAE4C0E0128674BC
:1084300090066EE0601320E70714F012826E80222F
:1084400004F0D0E014C0E07F0012826EE56B60079C
:10845000128265156B800B300603128265D0E00234
:1084600082C0D0E00480C41285CC609EE56B04120B
:1084700079C690066EEAF0E56B20060260010424DE
:10848000041285EA74FF04C0E012867412826EE55D
:108490006B2006026003128265D0E0B56BE87F4571
:1084A00012827890066EE07F2B30E7047F2DF40473
:1084B000C0E0128286D0E075F00A84C0F012826FAC
:1084C000D0E012826F0282C0791080027908C20760
:1084D000C2098008D2D5790A8004790AC2D5E56B31
:1084E000047002F56BE4FAFDFEFF128243FC7B0888
:1084F000200213128243FD7B1030010A128243FED8
:10850000128243FF7B20EC3382D592D55013C3E413
:108510003001069FFFE49EFEE42002039DFDE49CE3
:10852000FCE4CBF8C202EC700CCFCECDCCE824F842
:10853000F870F38017C3EF33FFEE33FEED33FDEC3D
:1085400033FCEB33FB994002FB0FD8E9EB3002051B
:10855000F8D0E0C448B202C0E00AEC4D4E4F78209B
:108560007B0070C2EAB56B0040BCC0E01285ECD065
:10857000F0D0E0200204C4C0E0C4B202C0F0128215
:108580006FD0F0D5F0EB0282C0127F92835D5384EE
:10859000C858832E4C832A4284CC4F84D44484D43C
:1085A0004983434384DA5584074684674583D1472A
:1085B00086A75083322D83362E83592B833A23830B
:1085C000572086902A82F24800008351E56BB4FF61
:1085D00003756B06128243FC128243FD128243FE36
:1085E000128243FF900667027A03790AA2D520041B
:1085F00014300609B910020404B9080104A2D520F8
:1086000007025001042003689203B56A005034C089
:10861000E07F203004197F30A20372077206500FEA
:10862000128643C203C207C206C2097F30800F30E0
:108630000603E9C0E0128286300603D0E0F9D0E0FC
:10864000B56ACC3006177F30B9100C1282867F587D
:108650003005077F788003B908031282863003054E
:108660007F2D0282867F202009F87F2B2007F322AE
:10867000920380CF7F00B40700500B2467F582E49B
:108680003406F583E0FF22286E756C6C2900D20257
:108690001282433002F8C202786A30D50108F6022D
:1086A00082F22D504349581282432403B4050040FE
:1086B00001E49086A293128277743A128277D204F0
:1086C000756A040284C89000137402F09000037469
:1086D00086F09000047486F07B017A0079039000A4
:1086E00013E0FFEFFD7C00900B087401F012B57DE4
:1086F00012D26790001C127F2F900C43E0FFEF64B2
:10870000866030301105C21112A31912D267900091
:1087100020127F2F900020127F2390001C127F17C1
:10872000127D1C7B207AAA79447800C3127E925075
:10873000C8C20A200A03028A4E900C46E0FEA3E05B
:10874000FF900014EEF0A3EFF0900C48E0FEA3E0E1
:10875000FF900016EEF0A3EFF0900C05E0FEA3E012
:10876000FF900014E0FCA3E0FDD3ED9FEE6480F8E1
:10877000EC6480984010900C05E0FEA3E0FF9000B0
:1087800014EEF0A3EFF0900C07E0FEA3E0FF9000E2
:1087900014E0FCA3E0FDC3ED9FEE6480F8EC648080
:1087A00098500A900014E4F0A3E4F0801F900014A5
:1087B000E0FEA3E0FF900C07E0FCA3E0FDC3EF9D0B
:1087C000FFEE9CFE900014EEF0A3EFF0900016E098
:1087D000FEA3E0FFEE3395E0FDFC900C16127F2324
:1087E000127D1C900018127F2F900C0A127F179098
:1087F0000018127F23127D2A900C0E127F2312C7BD
