:40000000021415008F828E83E0540100000070F82278FFE4F6D8FD02147A900000EFF0E4F53FF540F541F54275430AC200121F87EF60057F00121FB7122067D2AF9044F4FC
:4000400074FDF0E4F53B754900754A00754B37900000E0FF70067EFF7FFF80008F4C7B017A0079017D2C7C011212FA8F3E900000E060021543E5436004E53E70C9E53E6046
:400080000302059FC3E5389407E53794004008900001E064016005753B04807E900004E0FE900003E0FDEEF53FEDF54074062540F5827400353FF583E0FE74052540F58228
:4000C0007400353FF583E0FDEEF53CEDF53DE5402407FFE4353FFED3EF9538EE95374005753B03803574072540F5827400353FF583E064176005753B04801F7B017A0079B1
:4001000001E5402404FDE4353FFC121C66EF653D7003EE653C6003753B08E4F539F53AE53B600302058E900005E0F536753B04900002E012088801553101823202083403A0
:400140007A3503883703D438020839040F3A05783B0000058B20000302058EE540453F600302058EFF120D84EF70047F0180027F00900005EFF0753900753A01E4F53B0260
:40018000058E20000302058EE5406401453F600302058EE536C39401400302058E900357E0FEA3E0F5828E83120842E4FBFA7901F81207188F24E536B5241E900357E0FE6B
:4001C000A3E0F5828E83120842E4FB7A01F9F81207187522008F238014E536D395244007E4F522F5238006752201752300E523900005F0E522A3F0A374FFF0E4A3F0F539B6
:40020000753A04F53B02058E900002E06434703C20000302058EE5406403453F600302058EE536C39440400FE536D3947F50087541007542108006754101754220AE41AF47
:40024000427D007B017A01792D1208FF20000302058EC3E5409403E53F9400500302058EE54024FDFFE53F34FFFE742D2542F974013541A801FC7D017B017A0079081209F7
:40028000E7E54024FDFFE53F34FFFEEF2542F542EE3541F541E536C394404012E536D3947F500B121DA8753F007540108006753F01754020E54265407004E541653F600369
:4002C00002036F900007E0FE900006E0FDEEF541EDF542E536D3943F506FE5367F00FEEF2542FFE5413E900259F0A3EFF0900357E0FEA3E0F5828E83120842E4FB7A01F9AA
:40030000F812071890025BEEF0A3EFF0900357E0FEA3E0F5828E83120842EFE4EF600A90025BE475F0011205DA90025BE0FEA3E0FFC390025AE09F900259E09E500B753BD5
:400340000AE4F541F54202058E7B017A01792D900263E53FF0A3E540F0AD42AC41AF36120F0BEF60047F0A80027F008F3B8003753B03E4F541F54202058E20000302058EC7
:40038000E4F541F54202059F20000302058EE5422540FFE541353FFED3EF942CEE9401502DE4F53BAE3FAF40742D2542F974013541A801FC7D017B017A0079051209E7E58F
:4003C000402542F542E53F3541F54102058E753B0302058EE540453F600302058E78257C00FD7BFF7A25791FFE7F081209E7D200753900753A08AE39AF3A78057C007D0105
:400400007B007A0079251209E7E4F53B02058E20000302058EE5406403453F600302058E900007E0FE900006E0FDEEF52FEDF530E536C394404038E536D3947F5031AE2F29
:40044000AF307C007D101208D28F348E338D328C318F4B8E4A8D498C48E4754F10F54EF54DF54CFF7E80FDFC12192C8F358050AE2FAF307C017D001208D2C004C005C006FC
:40048000C007AF36E4FCFDFEFBFA7901F812068DD003D002D001D0001206728F348E338D328C318F4B8E4A8D498C48E4F54F754E01F54DF54CFFFE7D10FC12192C8F35E588
:4004C00036D3943F5072AF367E007C207D001208D2E42FFFE43EFEED3408FDE43CFCC004A905AA06AB07AE2FAF307C007D201208D2D0001206728F348E338D328C31E4F5BA
:400500002DF52EC3E52E9420E52D9400502AE4E52E2534FFE52D3533FEE43532FDE43531A907AA06AB05121CF3EF2535F535052EE52E7002052D80CBE536702AAE2FAF301E
:40054000FCFD7BFFFAF9F8C31207C57019FD7F05120A3DC3E5359FF535E4FD7F06120A3DC3E5359FF535E535F404900005F0E4F53BF539753A018016E4FF120D84EF700604
:400580009046FA7480F01220718003753B057B017A007901853948853A49AF3B1215ED900000E0700302004330000302004322BB010689828A83E0225002E722BBFE02E399
:4005C0002289828A83E49322BB010689828A83F0225002F722BBFE01F322C5F0F8A3E028F0C5F0F8E582158270021583E038F022BB010A89828A83E0F5F0A3E022500687B6
:40060000F009E71922BBFE07E3F5F009E3192289828A83E493F5F074019322BB010789828A830205DA500B09C5F027F7C5F01937F722BBFE0D09F8E325F0F3C5F019E338A6
:40064000F322F889828A8374019325F0C5F0F8E4933822BB010A89828A83F0E5F0A3F0225006F709A7F01922BBFE06F3E5F009F31922EF2BFFEE3AFEED39FDEC38FC22C315
:40068000EF9BFFEE9AFEED99FDEC98FC22E88FF0A4CC8BF0A42CFCE98EF0A42CFC8AF0EDA42CFCEA8EF0A4CDA8F08BF0A42DCC3825F0FDE98FF0A42CCD35F0FCEB8EF0A47C
:4006C000FEA9F0EB8FF0A4CFC5F02ECD39FEE43CFCEAA42DCE35F0FDE43CFC2275F008758200EF2FFFEE33FECD33CDCC33CCC58233C5829BED9AEC99E58298400CF582EE4A
:400700009BFEED9AFDEC99FC0FD5F0D6E4CEFBE4CDFAE4CCF9A88222B800C1B90059BA002DEC8BF084CFCECDFCE5F0CBF97818EF2FFFEE33FEED33FDEC33FCEB33FB10D7C4
:4007400003994004EB99FB0FD8E5E4F9FA227818EF2FFFEE33FEED33FDEC33FCC933C910D7059BE99A4007EC9BFCE99AF90FD8E0E4C9FAE4CCFB2275F010EF2FFFEE33FE50
:40078000ED33FDCC33CCC833C810D7079BEC9AE899400AED9BFDEC9AFCE899F80FD5F0DAE4CDFBE4CCFAE4C8F922EF4BFFEE4AFEED49FDEC48FC22C3E49FFFE49EFEE49D2F
:4007C000FDE49CFC22EB9FF5F0EA9E42F0E99D42F0E89C45F022E8600FECC313FCED13FDEE13FEEF13FFD8F122E8600FEFC333FFEE33FEED33FDEC33FCD8F122BB010789DC
:40080000828A830208365005E9F8020A0DBBFE05E9F8020A1989828A83020842BB010789828A8302085E5005E9F8020A25BBFE05E9F8020A3122E0FCA3E0FDA3E0FEA3E06A
:40084000FF22E493FC740193FD740293FE740393FF22E0F8A3E0F9A3E0FAA3E0FB22ECF0A3EDF0A3EEF0A3EFF022E0FBA3E0FAA3E0F922EBF0A3EAF0A3E9F022E493FB74E9
:400880000193FA740293F922D083D082F8E4937012740193700DA3A393F8740193F5828883E4737402936860EFA3A3A380DFE5092582F582E5083583F583B50804858209B7
:4008C0002210AF06858209F50822858209F508D2AF22EC8EF0A4CCC5F0CCCDF8EFA4CEC5F02DFDE43CFCE8A42EC8C5F03DFDE43CFCEFA4FFE5F028FEE43DFDE43CFC22EF51
:400900004E6012EF60010EEDBB010B89828A83F0A3DFFCDEFA2289F05007F709DFFCA9F022BBFEFCF309DFFCA9F022E709F608DFFA8046E709F208DFFA803E88828C83E7AA
:4009400009F0A3DFFA8032E309F608DFFA806EE309F208DFFA806688828C83E309F0A3DFFA805A89828A83E0A3F608DFFA804E89828A83E0A3F208DFFA804280D280FA80F3
:40098000C680D4805580F28029801080A680EA809A80A880DA80E280CA802988848C8589828A83E493A30586F0A30586DFF5DEF3800B89828A83E493A3F608DFF9ECFAA95D
:4009C000F0EDFB2288848C8589828A83E0A30586F0A30586DFF6DEF480E389828A83E493A3F208DFF980D688F0EF60010E4E60CD88F0ED2402B4040050C3F582EB2402B455
:400A0000040050B9232345822390097B73E6FC08E6FD08E6FE08E6FF22E2FC08E2FD08E2FE08E2FF22ECF608EDF608EEF608EFF622ECF208EDF208EEF208EFF22290025D03
:400A4000EDF0AB079002627402F0E4FFFEFDFCA312085EEB1208880A79010AA6020ACB030AF0040B15050B40060B8F070B6B080BB3090BD70A00000C0190025DE0FF7E005E
:400A80007C017D001208D21207B7EF24C0FFEE34FFFEED3410FDE43CFCA312085E9002627401F0020C0C90025DE0FF7E007C017D001208D2C374C39FFF74FF9EFE74109DBD
:400AC000FDE49CFCA312085E020C0C90025DE0FF7E007C017D001208D2C374C79FFF74FF9EFE74109DFDE49CFCA312085E020C0C90025DE0FF7E007C017D001208D2C37433
:400B0000CB9FFF74FF9EFE74109DFDE49CFCA312085E020C0C90025DE0FF7E007C017D001208D2C374D09FFF74FF9EFE74109DFDE49CFCA312085E9002627401F0020C0C60
:400B400090025DE0FF7E007C017D001208D2C374D19FFF74FF9EFE74109DFDE49CFCA312085E9002627401F0020C0C90025DE0FF7E007C017D001208D2C374D69FFF74FF16
:400B80009EFE74109DFDE49CFCA312085E807D90025DE0FF7E007C017D001208D2C374D29FFF74FF9EFE74109DFDE49CFCA312085E805990025DE0FF7E007C017D00120811
:400BC000D2C374D49FFF74FF9EFE74109DFDE49CFCA312085E803590025DE0FF7E007C017D001208D2C374D89FFF74FF9EFE74109DFDE49CFCA312085E9002627404F08082
:400C00000BE4FFFEFDFC90025E12085E900262E0B4011990025E120836A907AA06AB05121CF3E4FCFDFE90026312085E900262E06402705C90025E120836EF2401FFE43E91
:400C4000FEE43DFDE43CA907AA06AB05121CF3E4FCFDFE90026312085E900263120852C000C001C002C00390025E120836A907AA06AB05121CF3E4FCFDFE78081207E9D0BA
:400C800003D002D001D0001207AA90026312085E900262E064046003020D7D90025E120836EF2403FFE43EFEE43DFDE43CA907AA06AB05121CF3E4FCFDFE90026312085E37
:400CC000900263120852C000C001C002C00390025E120836EF2402FFE43EFEE43DFDE43CA907AA06AB05121CF3E4FCFDFE78081207E9D003D002D001D0001207AA9002634F
:400D000012085E900263120852C000C001C002C00390025E120836EF2401FFE43EFEE43DFDE43CA907AA06AB05121CF3E4FCFDFE78101207E9D003D002D001D0001207AA84
:400D400090026312085E900263120852C000C001C002C00390025E120836A907AA06AB05121CF3E4FCFDFE78181207E9D003D002D001D0001207AA90026312085E90026356
:400D8000120836228F44AD447F03120A3DEF2401FFE43EFEE43DFDE43CFCE4FB7A01F9F812068DC004C005C006C007AD447F04120A3DD003D002D001D0001206728F4C8EA9
:400DC0004B8D4A8C49C201E4F54DAD447F03120A3DEF2401FFE43EFEE43DFDE43CFCE4FB7A01F9F812068D8F488E478D468C45AF4CAE4BAD4AAC49AB48AA47A946A845C337
:400E00001207C55032854882854783E493F54E6005F46002D201E54E254DF54DAF48AE47AD46AC45E47B01FAF9F81206728F488E478D468C4580B8AD447F03120A3DEF2479
:400E400001FFE43EFEE43DFDE43CFCE4FB7A01F9F812068D78031207D68F488E478D468C45E47FC07EFFFDFCAB4CAA4BA94AA849C31207C57007FF7E20FDFC800DAF4CAE21
:400E80004BAD4AAC4978031207D68F4C8E4B8D4A8C49AF4CAE4BAD4AAC49AB48AA47A946A845C31207C55039E42548FFE43547FEE5463408FDE43545A907AA06AB05121CB9
:400EC000F3EF254DF54DAF48AE47AD46AC45E47B01FAF9F81206728F488E478D468C4580B1E54DF404F54DAD447F01120A3DA804A905AA06AB07AF4DE4FCFDFEC31207C5CC
:400F000070032001037F06227F002290025EECF0A3EDF0A312087390025DEFF0E4900265F0EFD3943F500E90025DE0940140069002657401F090025DE0FFD3947F4006903A
:400F400002657401F0EFC39440400CEFD3944140069002657401F0EFD3943F501E90025EE0FEA3E0FFE4FCFDFB7A01F9F8C31207C5502F9002657401F08027D390025FE03C
:400F8000948090025EE0940040069002657401F0900263E07004A3E0641060069002657401F090026012086AE94A4B700590026504F0900265E0600302108A121EFEEF606E
:400FC0000302108490025EE0FCA3E0FDA312086A900263E0FFA3E090026CCFF0A3EFF090025DE0FF1211DE900265EFF06407600302107F904722E0540270087F01FE121EF6
:401000006480F0904722E054026009E0FF1313543FFF80027FFFEF7006900265F0800690026574FFF0900265E0705490025DE0FFA3E0FCA3E0FD900353E0FBA3E090026AD9
:40104000F0121A90900265EFF064077032904722E0540270087F01FE121E6480F0904722E054026009E0FF1313543FFF80027FFFEF7006900265F0800690026574FFF0124B
:40108000205180069002657404F0900265E0FF227B007A4679E8121CF3EF4401FD7B007A4679E8122045E4F52CE52CC3940A502CE52C75F005A42461F582E43424AF82F571
:4010C000218F22F58312087C8F82852183740393FC740493FD121F6E052C80CDE4F52CE52CC394015046E52C75F007A42413F582E43425AF82F5238F24F58312087C8B25E1
:401100008A2689278F82852383740393FE7404938E28F529740593F52A740693F52BAD29AC28FFAE2A121EB8052C80B37E207F92121DD97B017A507903121CF3EF4402FD3B
:401140007B017A5079031220457B017A507913121CF3EF4402FD7B017A5079131220459043A0E04440F09043C2E04410F07C207D827B007A5179127F087E00121EB87C2053
:401180007D8A7B007A5179227F087E00121EB89044F47401F0904322E04408F09046ECE0C394055006904689743AF090480074F1F012150690480074B1F0121F1D7B007A41
:4011C0004379A0C00179B0900005120873D0017F0E7E00121D749043B0E054FDF022900266EFF0A3ECF0A3EDF0A312087390026E7407F0904722E0540270030212EE904756
:401200002074B6F074D5F07402F0904722E0540260030212E6900266E0904720F0E490026FF0A3F090026CE0FEA3E0FF90026FE0FCA3E0FDC39FEC9E501F90026912086A8D
:40124000E92DF9EA3CFA1205AF904720F090026FE475F0011205DA80CB90026CE064017002A3E060030212F4900266E0FFD3943F40030212F47E007C207D001208D2E42F0A
:40128000FFE43EFEED3408FDE43CFCC004A905AA06AB07A3E0FEA3E0FF7C007D201208D2D00012067290027112085EE490026FF0A3F090026FE0FEA3E0FFC39420EE94005A
:4012C0005032E4FCFDA3120852120672A907AA06AB05121CF3904720EFF090026FE475F0011205DA80CC90026E7409F0800690026E7404F090026EE0FF228B448A4589469E
:401300008C478D48755505E4F54DF54EE54C75F00AA4FFC3E54E9FE54D95F0503B121B34EF6022121B347553008F54E47F19FEFDFC1218C7121B34D3EF9554E4955350E366
:40134000E4F5558013E47F01FEFDFC1218C7054EE54E7002054D80B4AB49AA4AA94BE4F5F0120653E4F54FF550121B34EFD394005003021412121B347551008F52AB49AA8D
:401380004AA94BE5518552F012061BAB49AA4AA94B1205F0C39548E5F09547505FE4F54DF54EC3E54E9552E54D95515025121C1CAB44E5462550F9E545354FFAEF1205C8C1
:4013C0000550E5507002054F054EE54E7002054D80D0AB44E55024FFFFE54F34FFFEE5462FF9E5453EFA1205AF64177003021369E47F05FEFDFC1218C7021369AB49AA4ABB
:40140000A94B1205F0C39552FFE5F095518FF0120653AF552275930078007583467582E8E04401F0009046ECE0F99046FAE0FA90034BF0B903225420B40012B8001AEA9014
:401440001FFFF07401901FFEF09046F6F0901FFEE06005901FFFE0FA90480074C0F0758156121EDE90000078007920E4F0A3D8FCD9FAEA90034BF002001175081F7509FD1F
:401480001210900214C1022079E493A3F8E493A34003F68001F208DFF48029E493A3F85407240CC8C333C4540F4420C8834004F456800146F6DFE4800B0102040810204063
:4014C00080901B83E47E019360BCA3FF543F30E509541FFEE493A360010ECF54C025E060A840B8E493A3FAE493A3F8E493A3C8C582C8CAC583CAF0A3C8C582C8CAC583CABE
:40150000DFE9DEE780BE7B007A4079807D337C001220279040827418F09043007402F09040007408F09042007403F07B0C7A017908121CF39046A1EFF07B007A4279227D68
:40154000087C001220277B007A4279207D517C12122027E4900004F07F19FEFDFC90000012085E900000120836D3EF9400EE9400403B900004E0FF64036032904225E05440
:4015800001FEEF25E04E5403900004F0E47FE07E01FDFC121D0090000012083674FFFBFAF9F812067290000012085E80B6900000120836EF4E70057F0312207F7B007A402A
:4015C00079047D007C011220279040047407F0904006E4F09040087448F0904004E4F09040017402F09043A2E04401F0228B458A46894774011205C8AB452547F9E43546AB
:40160000FAEF1205C8E549AB45E5472402F9E43546FAE5491205C8E548FFAB45E5472403F9E43546FAEF1205C8AB45AA46A947E5492404FDE43548FC121C668E4A8F4BEFCF
:40164000AB45E5492404FDE43548FCE5472DF9E5463CFAEF1205C8E54AFFAB45E5492405FDE43548FCE5472DF9E5463CFAEF1205C8AB45E5492406FFE43548FEE5472FF9FF
:40168000E5463EFA74171205C8E5492407FDE43548FC755100755200755348755496AB45AA46A947121BD122C0E0C083C082C085C084C086758600C093759300C0D075D09F
:4016C00000C001C002C003C006C007E4FBA2AF33FAD2AF9044F474FDF090646CE0FFFE541EF960069002FDE049F0EF30E54590644AE0FE9002F9E02478F582E43402F583E5
:40170000EEF07B01EB602C900276E060069002FC7401F09002F9E004F0E0C394404002E4F0900277E0FE9002F9E0B506069002767401F0EF20E5A2AF02EA24FF92AFD007BF
:40174000D006D003D002D001D0D0D093D086D084D085D082D083D0E032752106E4FF120D84EF7002F521E4F54BF54AF549F548900357E0FEA3E0F5828E831208428F4F8E82
:401780004E8D4D8C4CE4FFFE7D10FC12192C900355E0FCA3E0F5828C83E493FEC3EF9EFFF404FFB50612900357E0FEA3E0F5828E83120842EF4E70057F00121FB79046FAFB
:4017C000E054C064406004E52160099046FAE4F0FF12001A12205D22C0E0C083C082C085C084C086758600C093759300C0D075D000C006C007A2AFE433FFD2AF9044F4742E
:40180000FDF09002FAE0FE9002B8E06E602C90646EE020E2259002B8E0C394404002E4F09002B8E024B9F582E43402F583E090644DF09002B8E004F080C8EF24FF92AFD043
:4018400007D006D0D0D093D086D084D085D082D083D0E032A9079002FAE0FF9002B8E0FEEFC39E501AEE24FFFDE434FFFCEF7A00B50508EAB504047D0180027D00800CC346
:40188000EF9EB43F047D0180027D00ED70C8EEB5070D90646EE020E20690644DE9F022EFC394404002E4FF74B92FF582E43402F583E9F00F9002FAEFF090646EE030E10609
:4018C0009044D07402F02290FFFC1208AE12085E850883850982120836D3EF9400EE9480402E90034C120836121D00850883850982C083C082120836E42FFFEE3480FEEDC9
:4019000034FFFDEC34FFFCD082D08312085E80C090034212083685088385098212085212068D121D009000041208AE228F478E468D458C44E4F550D3E54F9400E54E940025
:40194000404BAF4FAE4EAD4DAC4C74FFFBFAF9F81206728F4F8E4E8D4D8C4CE547254BFFE546354AFEE5453549FDE5443548FCEF254FFFEE354EFEED354DFDEC354CA907BD
:40198000AA06AB051205AF2550F55080AAAF5022121FE190025E74FFF0121EFEEF703B7F01121E35EF6407702C7B017A0379537D021219E6EFB40215E490025EF090472228
:4019C000E0540270107F01FE121E6480F0904722E0540260D4122051800690025E7404F090025EE0FF2290025F120873900262EDF0E4A3F0900262E0FFA3E0C39F50379065
:401A00004722E054016003D38001C340097F017E00121E6480E9904720E0FF90025F12086A900263E029F9E43AFAEF1205C8900263E004F080BE900263E0FF2290025EEC49
:401A4000F0A3EDF090025DEFF0541F25E0FFE433FEE42FFFEE3444FAA9077B0112201A900260EEF0A3EFF090025DE075F002A42400FFE5F03444FAA9077B01A3E0FEA3E0EC
:401A8000FFFDAC06122029900260E0FEA3E0FF22900267ECF0A3EDF0AC077D07904722E05402603B90472074B6F074D8F07405F0904722E054027023904720ECF09002670F
:401AC000E0904720F0900267E0A3E0904720F0EBF090026AE0904720F080067D0980027D04AF0522121FE1121EFEEF703B121F3A90025EEFF06407702A904722E0540270A1
:401B0000087F01FE121E6480F0904722E054026009E0FF1313543FFF80027FFFEF700490025EF0122051800690025E7404F090025EE0FF229044C87401F09002F9E0FE905D
:401B40000277E0B5060E900276E060047F40802CE4FF80289002F9E0FE900277E0C39E500BE0FE9002F9E0C39EFF8010900277E0FEC374409EFE9002F9E02EFF9044C07420
:401B800001F022420355251A420357251B430350000000440347016E360044034200005DC04103461844034C2EE000004102FB004102B8004102FA004102FD00410277003B
:401BC0004102F900410276004102FC0041035B00008B4C8A4D894E8C4F8D50E4F555F556121E07C3E5569550E555954F501DAB4CE54E2556F9E54D3555FA1205AFFF121874
:401C0000540556E5567002055580D8AB51AA52A953E54F8550F01206537F00229044C87401F0900277E0FE9002F9E0FD900276E07004EE6D602474782EF582E43402F583EF
:401C4000E0FF0EEEC394404002E4FE900277EEF0900276E06009E4F0800590644AE0FF9044C07401F0228B4C8A4D894EE4F54FF550D3ED9400EC94004025AB4CED24FFFFD4
:401C8000EC34FFFEE54E2FF9E54D3EFA1205AF2550F550E4354FF54FED1D70011C80D2E550F4FFE54FF4FEEF2401FFE43EFE227C167DA8E4FF121A3C7D07E4FF121F55E4B7
:401CC0009002FDF090648A7469F090648C7420F07C177DD87F01121A3C7D077F01121F5590642E7406F090643E7447F090648E7402F0228B938A838982E0759300FF22000A
:401D0000EC4D4E700D78FCEF24E950032840FD2200007BF178DA0000EF28FF78FFEE38FEED38FDEC38FC50E7EF2BFFEE38FEED38FDEC38FC40F22205020304121FCC9002FD
:401D40005DEFF090649AE04420F090649CE04410F09044C07401F090649EE04410F09044D87402F09044C0F012203690025DE0FF121F9F22758600EF4E6027EF60010E75B2
:401D80009300900005E0F595A3E0F585A3E0F5848B938A838982E0A30586F0A31586DFF6DEF4E4F593F59522121FCC9043A0E04408F09043B0E04408F090470174C8F090A8
:401DC00043ACE04410F09043BCE04410F0904700E0542060F8121F9F22ACEAADA08E838F82E493F9601CA3E493F5EAA3E493F5A0A3E49360F1FAA3E493F8A3E493F2DAF6BC
:401E0000D9E48DA08CEA22121FCC90649AE04401F0E054FEF0121F9F9044C87401F0E4900277F09002F9F0900276F09002FCF09044C004F0227E07904722E05402601F9052
:401E4000472074B6F074E1F0740EF0904722E054027007904720EFF080067E0980027E04AF062200EEFA900346E0F88FF0A4FFAEF0E88AF0A42EFEE5F03400FDEF24C9FF5A
:401E800078FFEE38FEED38FDE438FC5003021D0022121FCC90649DE04401F0E054FEF0121F9F9044C87402F0E49002B8F09002FAF09044C07402F022758600EF4E601BEFCA
:401EC00060010E8C838D828B958A858984E493A30586F0A31586DFF5DEF3E4F595229046FAE054C064807015F0FD7F02120A3DEF4E600AE4FD7F02120A3D122009229002CC
:401F0000667404F0121FCC90035BE0700704F0E4900266F0121F9F900266E0FF227B0C7A0179CF121CF3EF540790586EF0EFC4540FA3F09058767444F0227F07904722E0DD
:401F40005402600E90472074B6F074E0F0740DF080027F0422AC07ED540775F020A4FFEC541F2480F582E43444F583EFF022EC4D6011ED60010C8B938A838982E4F0A3DDB0
:401F8000FCDCFA75930022121AE490025DEFF0700812199090025DEFF090025DE0FF22EF54016004D2AF8002C2AFEF5402FF9044F4E054FD4FF02290FFFF1208AEEFF090D7
:401FC00046EA7401F09000011208AE229044F4E0F84402F0E85402FF10AF012274014FFF22121FCC9043A0E04408F09043B0E04408F0121F9F229002FBE07009121CAF9087
:4020000002FB7401F0121D3B2290034BE0FA8E838F827400758101738B938A838982E0FFA3E0FE759300228B938A838982EDF0A3ECF0759300229043A2E04401F09043B26F
:40204000E04401F0228B938A838982EDF075930022121FCCE490035BF0121F9F229046FA7480F012207122121FF6121E07121E91229046F6E04401F02212175980FE2280DC
:40208000FE22007F7B007B00000030D8C800D800000016005205082309121098118814200064047E3F8A698C3A8E0F010101E204010301E6020105028702E008010604B82E
:4020C00002BE01D804DF010107021B02A702010A088501890195019901B101BF01D904DF01010B4F00400106038808010A040B111028130219641A041B0A202021082230E9
:40210000274028282A022B022E033080310232103304340836203708382239803A083C283E084028410843824A024B0152045B4068286A016B027090712072108D408E104D
:402140008F809042910493109621980199029B0C9D649E049F80A004A102A202A490A520A702AB01B021B405B602B744C00FC20FC40ECA0FCC6FCE6FD00FD208D608E0083A
:40218000E801010C4C0001021608E70A180E3F101E120114C6163918481C88208824DD262228232ADC2CC8301F320834E03A22541A560458045B045F018008824284F88698
:4021C000018704880F89028AF08D068EC792849308943996C698109C20A020A101A43FA6C0A906AA08AC30B031B106B308B501B6FFB702B982BE40BF11C062C101C5E0C6DA
:40220000CBC80EC9FFCAFFCBFFCEF0CF44D00CD804D904DA04DF01E6C0EA40EB02010D46002901100210030B04010709080209260A310D220E11108012481388151016502C
:402240001780180219021C081D021E201F20200421012208230128402920320238C839A43A083B10414042084921502053405E205F026540674887409088912093089502C2
:40228000978098409B4A9C029D259E049F04A420A504A72AB001B301C0DFC2FFC4FFCA05CC01CE0ED00CD204D6A0D8B0010E4E040906D007230B080C0C0D210E710F0E1048
:4022C00014141016AC170C18DC1A221B201E0321102410264029212A202B062D0C2F2330E03310350F361F37203A023B203F444004464049FF4A074BFF4C404D204EF04F8A
:4023000005500854015604580459045A045B045F01604061A862406320871F89198B0691019304950997029A01A506A719A919AA01AB06AF0FB201B310B507B708B908BB65
:4023400020BE04D804D904DB04DF01010F3C004404040504084809200A010B800E0810081210160418C01A011F042130224425102604270A280829212A802F2A303031047A
:402380003402370438883A103D284101500C5210581059015A886380680169046A206B406F0171407304821083408550868089048B04C005C24FC446CA7DCCC6CE6ED00101
:4023C000D60FD801E40C014005322035808180CC30E2200141038620A620E6400144058301870188C0E004E40401450F0C0857025B046401660193029889A040A301B009C2
:40240000C204D607D801E801EC0401460D8702900893029888A040A301A702AB04B40CB601E808EC02EE08014705900893029888A040A301014C0E5004544057015808607D
:40244000806702900893029888A040A301D406D607D80201500300010C010E01015101000F005100001000513000400051C000100051F000100100000A00010A800580018E
:40248000140008000140000A00014C000200015000002000008080207D050000040800130C0400030204200A031410130C0C7300088000400800004043003C404F003000DE
:4024C0000000734000303F0FC0800008002028000040003402010005C0000E12FFFFFF62A0F0410C00000000000210040404040000000100000000000040020010301000CE
:4025000010101200000000000000000000000000000000010A002493008061000026006930091E031E010100000000000000000000000000000000000000000000000000BD
:40254000000000000000000000000000000000000000000000000000000000000000000000000000000000000000000000000000000000000000000000000000000000005B
:40258000000000000000000000000000000000000000000000000000000000000000000000000000000000000000000000000000000000000000000000000000000000001B
:4025C00000000000000000000000000000000000000000000000000000000000000000000000000000000000000000000000000000000000000000000000000000000000DB
:4026000002AA88008F828E83E0540100000070F82278FFE4F6D8FD02AB1690002CEEF0A3EFF07BFF7A5E79EDC003C002C0017B017A00792EA801AC02AD03D001D002D00368
:402640007E077F6D1280F290079B7407F0A3746DF07BFF7A66795AC003C002C0017B017A0779A2A801AC02AD03D001D002D0037E007F0F1280F27BFF7A667969C003C002FB
:40268000C0017B017A0779B1A801AC02AD03D001D002D0037E007F1C1280F27BFF7A667985C003C002C0017B017A0779CDA801AC02AD03D001D002D0037E007F1B1280F21E
:4026C0007BFF7A6679A0C003C002C0017B017A0779E8A801AC02AD03D001D002D0037E007F1C1280F27BFF7A6679BCC003C002C0017B017A087904A801AC02AD03D001D0B1
:4027000002D0037E007F1B1280F27BFF7A6679D7C003C002C0017B017A08791FA801AC02AD03D001D002D0037E007F271280F27BFF7A6679FEC003C002C0017B017A0879EF
:4027400046A801AC02AD03D001D002D0037E007F151280F27BFF7A677913C003C002C0017B017A08795BA801AC02AD03D001D002D0037E007F191280F27BFF7A67792CC02A
:4027800003C002C0017B017A087974A801AC02AD03D001D002D0037E007F111280F27BFF7A67793DC003C002C0017B017A087985A801AC02AD03D001D002D0037E007F1CB0
:4027C0001280F27BFF7A677959C003C002C0017B017A0879A1A801AC02AD03D001D002D0037E007F1D1280F27BFF7A677976C003C002C0017B017A0879BEA801AC02AD03E3
:40280000D001D002D0037E007F1B1280F27BFF7A677991C003C002C0017B017A0879D9A801AC02AD03D001D002D0037E007F141280F27BFF7A6779A5C003C002C0017B013E
:402840007A0879EDA801AC02AD03D001D002D0037E007F201280F27BFF7A6779C5C003C002C0017B017A09790DA801AC02AD03D001D002D0037E007F241280F27BFF7A6771
:4028800079E9C003C002C0017B017A097931A801AC02AD03D001D002D0037E007F181280F27BFF7A687901C003C002C0017B017A097949A801AC02AD03D001D002D0037ED9
:4028C000007F251280F27BFF7A687926C003C002C0017B017A09796EA801AC02AD03D001D002D0037E007F161280F27BFF7A68793CC003C002C0017B017A097984A801ACCD
:4029000002AD03D001D002D0037E007F271280F27BFF7A687963C003C002C0017B017A0979ABA801AC02AD03D001D002D0037E007F231280F27BFF7A687986C003C002C065
:40294000017B017A0979CEA801AC02AD03D001D002D0037E007F1F1280F27BFF7A6879A5C003C002C0017B017A0979EDA801AC02AD03D001D002D0037E007F0E1280F27B47
:40298000FF7A6879B3C003C002C0017B017A0979FBA801AC02AD03D001D002D0037E007F221280F27BFF7A6879D5C003C002C0017B017A0A791DA801AC02AD03D001D00201
:4029C000D0037E007F211280F27BFF7A6879F6C003C002C0017B017A0A793EA801AC02AD03D001D002D0037E007F151280F27BFF7A69790BC003C002C0017B017A0A795394
:402A0000A801AC02AD03D001D002D0037E007F341280F27BFF7A69793FC003C002C0017B017A0A7987A801AC02AD03D001D002D0037E007F3B1280F27BFF7A69797AC003BD
:402A4000C002C0017B017A0A79C2A801AC02AD03D001D002D0037E007F2A1280F27BFF7A6979A4C003C002C0017B017A0A79ECA801AC02AD03D001D002D0037E007F1612A9
:402A800080F27B017A0779A212D0CD8F697B017A0779B112D0CD8F6A7B017A0779CD12D0CD8F6B7B017A08794612D0CD8F6C7B017A08795B12D0CD8F6D7B017A0879741249
:402AC000D0CD8F6E7B017A0879A112D0CD8F6F7B017A0879D912D0CD8F707B017A0879ED12D0CD8F717B017A09790D12D0CD8F727B017A09793112D0CD8F737B017A09795F
:402B00006E12D0CD8F747B017A0A795312D0CD8F757B017A0A798712D0CD8F767B017A0A79C212D0CD8F777B017A0A79EC12D0CD8F787B017A0979AB12D0CD8F797B017A67
:402B40000979CE12D0CD8F7A7B017A0979ED12D0CD8F7B7B017A0A791D12D0CD900B02EFF090002E740CF090002F7419F090002CE0FEA3E0FFEF8EF0127FB82BE700003EE2
:402B80000400013E0F00023EB700033F5F00043F7400053F7F00063F8A00073FC80008407E000940E2000A40ED000B420E000C426A000D427B000E4288000F4299001042BB
:402BC000AA001142CA001242DB001342F800144305001543120016431D0017433A001843470019000043519000307402F09000317401F0900B11E0FF900032EFF0AF697E65
:402C0000008E678F68E5684567603EAF697E00C3EF9568FFEE9567FE74A22FF58274073EF583E0FFAE69EEFD7C00C3ED9568FDEC9567FC74332DF58274003CF583EFF0E5D6
:402C40006815687002156780BC9000627407F09000637403F0900B46E0FFEF64036053900B12127F17EC1279077B007A00798078471277F1900064127F2F900B16127F17BE
:402C8000EC1279077B007A00798078471277F1900068127F2F900B1A127F17EC1279077B007A00798078471277F190006C127F2F8051900B2A127F17EC1279077B007A0048
:402CC000798078471277F1900064127F2F900B2E127F17EC1279077B007A00798078471277F1900068127F2F900B32127F17EC1279077B007A00798078471277F190006C0A
:402D0000127F2FAF6A7E008E678F68E5684567603EAF6A7E00C3EF9568FFEE9567FE74B12FF58274073EF583E0FFAE6AEEFD7C00C3ED9568FDEC9567FC74702DF5827400A8
:402D40003CF583EFF0E56815687002156780BC9000947407F09000957403F0900B46E0FFEF64036053900B1E127F17EC1279077B007A00798078471277F1900096127F2FFC
:402D8000900B22127F17EC1279077B007A00798078471277F190009A127F2F900B26127F17EC1279077B007A00798078471277F190009E127F2F8051900B36127F17EC12DB
:402DC00079077B007A00798078471277F1900096127F2F900B3A127F17EC1279077B007A00798078471277F190009A127F2F900B3E127F17EC1279077B007A00798078478E
:402E00001277F190009E127F2FAF6B7E008E678F68E5684567603EAF6B7E00C3EF9568FFEE9567FE74CD2FF58274073EF583E0FFAE6BEEFD7C00C3ED9568FDEC9567FC7468
:402E4000A22DF58274003CF583EFF0E56815687002156780BC9000C6E4F09000C77401F0900B44E0FF9000C8EFF0900B44E0FFEF60297B017A0779E8C003C002C0017BFFE2
:402E80007A59793E900B06127F89D001D002D00312BF8F90079D741CF080277B017A0779E8C003C002C0017BFF7A597944900B06127F89D001D002D00312BF8F90079D74B5
:402EC0001BF090079DE0FF7E008E678F68E5684567604490079DE0FF7E00C3EF9568FFEE9567FE74E82FF58274073EF583E0FF90079DE0FEEEFD7C00C3ED9568FDEC956769
:402F0000FC74C92DF58274003CF583EFF0E56815687002156780B690079DE0FF74C92FF582E43400F5837403F09000F8E4F09000F97401F0900B45E0FF9000FAEFF0900BC5
:402F400045E0FFEF127F922F51002F7A0100002FA17B017A087904C003C002C0017BFF7A597949900B06127F89D001D002D00312BF8F90079D7414F080277B017A087904F2
:402F8000C003C002C0017BFF7A59794F900B06127F89D001D002D00312BF8F90079D741AF090079DE0FF7E008E678F68E5684567604490079DE0FF7E00C3EF9568FFEE9597
:402FC00067FE74042FF58274083EF583E0FF90079DE0FEEEFD7C00C3ED9568FDEC9567FC74FB2DF58274003CF583EFF0E56815687002156780B690079DE0FF74FB2FF58206
:40300000E43400F5837401F090012AE4F090012B7401F0900B46E0FF90012CEFF0900B46E0FFEF127F92303600305F0130880230B103000030D87B017A08791FC003C00206
:40304000C0017BFF7A59795B900B06127F89D001D002D00312BF8F90079D741BF080797B017A08791FC003C002C0017BFF7A597966900B06127F89D001D002D00312BF8F98
:4030800090079D7416F080507B017A08791FC003C002C0017BFF7A59796C900B06127F89D001D002D00312BF8F90079D741AF080277B017A08791FC003C002C0017BFF7ACA
:4030C000597976900B06127F89D001D002D00312BF8F90079D7427F090079DE0FF7E008E678F68E5684567604490079DE0FF7E00C3EF9568FFEE9567FE741F2FF582740842
:403100003EF583E0FF90079DE0FEEEFD7C00C3ED9568FDEC9567FC742D2DF58274013CF583EFF0E56815687002156780B690079DE0FF742D2FF582E43401F5837402F090D7
:40314000015C7402F090015D7402F0756700756800C3E5689402E5679400502AAE67AF6874472FF582740B3EF583E0FFAC67AD68745E2DF58274013CF583EFF00568E5687E
:403180007002056780CBAF6C7E008E678F68E5684567603EAF6C7E00C3EF9568FFEE9567FE74462FF58274083EF583E0FFAE6CEEFD7C00C3ED9568FDEC9567FC74602DF525
:4031C0008274013CF583EFF0E56815687002156780BC90018E7403F090018F7402F0756700756800C3E5689402E56794005056E568AE677802C333CE33CED8F9FF74492F03
:40320000F582740B3EF583127F17AA67AB6874472BF582740B3AF583E0F9A801127EB6AD07AC06E56825E0FFE56733FE74902FF58274013EF583ECF0A3EDF00568E5687031
:40324000020567809FAF6D7E008E678F68E5684567603EAF6D7E00C3EF9568FFEE9567FE745B2FF58274083EF583E0FFAE6DEEFD7C00C3ED9568FDEC9567FC74942DF58232
:4032800074013CF583EFF0E56815687002156780BC9001C07407F09001C17402F0756700756800C3E5689402E56794005050E568AE677802C333CE33CED8F9FF74512FF565
:4032C00082740B3EF583127F17C004C005C006C007E568AE677802C333CE33CED8F9FF74C22FF58274013EF583D007D006D005D004127F2F0568E5687002056780A5756732
:40330000007568007B017A08797412D0CDC3E5689FE5679E502AAE67AF6874742FF58274083EF583E0FFAC67AD6874CA2DF58274013CF583EFF00568E5687002056780C44A
:403340009001F2E4F09001F37401F0900B59E0FF9001F4EFF0900B59E0FFEF60297B017A087985C003C002C0017BFF7A59793E900B06127F89D001D002D00312BF8F90071D
:403380009D741CF080277B017A087985C003C002C0017BFF7A597944900B06127F89D001D002D00312BF8F90079D741BF090079DE0FF7E008E678F68E56845676044900708
:4033C0009DE0FF7E00C3EF9568FFEE9567FE74852FF58274083EF583E0FF90079DE0FEEEFD7C00C3ED9568FDEC9567FC74F52DF58274013CF583EFF0E568156870021567B9
:4034000080B690079DE0FF74F52FF582E43401F5837403F09002247405F09002257404F0756700756800C3E5689402E567940040030234F5E568AE677802C333CE33CED8D8
:40344000F9FF745A2FF582740B3EF583127F17AA67AB6874472BF582740B3AF583E0F9A801127EB6C004C005C006C007E568AE677803C333CE33CED8F9FF74262FF582744D
:40348000023EF583D007D006D005D004127F2FE568AE677802C333CE33CED8F9FF74622FF582740B3EF583127F17AA67AB6874472BF582740B3AF583E0F9A801127EB6C03A
:4034C00004C005C006C007E568AE677803C333CE33CED8F9FF742A2FF58274023EF583D007D006D005D004127F2F0568E56870020567023426AF6F7E008E678F68E5684570
:4035000067603EAF6F7E00C3EF9568FFEE9567FE74A12FF58274083EF583E0FFAE6FEEFD7C00C3ED9568FDEC9567FC74362DF58274023CF583EFF0E56815687002156780E7
:40354000BC9002567405F09002577402F0900B6E127F17900258127F2F900B72127F1790025C127F2F7567007568007B017A0879BE12D0CDC3E5689FE5679E502AAE67AFBD
:403580006874BE2FF58274083EF583E0FFAC67AD6874602DF58274023CF583EFF00568E5687002056780C49002887403F09002897401F0900B42E0FEA3E0FF90028AEEF0FD
:4035C000A3EFF0AF707E008E678F68E5684567603EAF707E00C3EF9568FFEE9567FE74D92FF58274083EF583E0FFAE70EEFD7C00C3ED9568FDEC9567FC748C2DF5827402C5
:403600003CF583EFF0E56815687002156780BC9002BA7407F09002BB7401F0900B77127F179002BC127F2FAF717E008E678F68E5684567603EAF717E00C3EF9568FFEE95E2
:4036400067FE74ED2FF58274083EF583E0FFAE71EEFD7C00C3ED9568FDEC9567FC74C02DF58274023CF583EFF0E56815687002156780BC9002EC7403F09002ED7401F0908B
:403680000B7BE0FEA3E0FF9002EEEEF0A3EFF0AF727E008E678F68E5684567603EAF727E00C3EF9568FFEE9567FE740D2FF58274093EF583E0FFAE72EEFD7C00C3ED956880
:4036C000FDEC9567FC74F02DF58274023CF583EFF0E56815687002156780BC90031E7403F090031F7401F0900B7DE0FEA3E0FF900320EEF0A3EFF0AF737E008E678F68E5B9
:40370000684567603EAF737E00C3EF9568FFEE9567FE74312FF58274093EF583E0FFAE73EEFD7C00C3ED9568FDEC9567FC74222DF58274033CF583EFF0E568156870021599
:403740006780BC900350E4F09003517401F0900B76E0FF900352EFF0900B76E0FFEF60297B017A097949C003C002C0017BFF7A59793E900B06127F89D001D002D00312BF7D
:403780008F90079D7425F080277B017A097949C003C002C0017BFF7A597944900B06127F89D001D002D00312BF8F90079D7424F090079DE0FF7E008E678F68E568456760E2
:4037C0004490079DE0FF7E00C3EF9568FFEE9567FE74492FF58274093EF583E0FF90079DE0FEEEFD7C00C3ED9568FDEC9567FC74532DF58274033CF583EFF0E56815687033
:4038000002156780B690079DE0FF74532FF582E43403F5837403F09003827404F09003837401F0900B8AE0FEA3E0FF900384EEF0A3EFF0AF747E008E678F68E56845676080
:403840003EAF747E00C3EF9568FFEE9567FE746E2FF58274093EF583E0FFAE74EEFD7C00C3ED9568FDEC9567FC74862DF58274033CF583EFF0E56815687002156780BC90F6
:4038800003B4E4F09003B57401F0900B7FE0FF9003B6EFF0900B7FE0FFEF60297B017A097984C003C002C0017BFF7A59793E900B06127F89D001D002D00312BF8F90079D33
:4038C0007427F080277B017A097984C003C002C0017BFF7A597944900B06127F89D001D002D00312BF8F90079D7426F090079DE0FF7E008E678F68E5684567604490079DAD
:40390000E0FF7E00C3EF9568FFEE9567FE74842FF58274093EF583E0FF90079DE0FEEEFD7C00C3ED9568FDEC9567FC74B72DF58274033CF583EFF0E56815687002156780CC
:40394000B690079DE0FF74B72FF582E43403F5837403F09003E67405F09003E77401F0900B80127F179003E8127F2FAF797E008E678F68E5684567603EAF797E00C3EF95DE
:4039800068FFEE9567FE74AB2FF58274093EF583E0FFAE79EEFD7C00C3ED9568FDEC9567FC74EC2DF58274033CF583EFF0E56815687002156780BC9004187405F090041901
:4039C0007401F0900B84127F1790041A127F2FAF7A7E008E678F68E5684567603EAF7A7E00C3EF9568FFEE9567FE74CE2FF58274093EF583E0FFAE7AEEFD7C00C3ED956890
:403A0000FDEC9567FC741E2DF58274043CF583EFF0E56815687002156780BC90044A7402F090044B7401F0900B88E0FF90044CEFF0AF7B7E008E678F68E5684567603EAF4D
:403A40007B7E00C3EF9568FFEE9567FE74ED2FF58274093EF583E0FFAE7BEEFD7C00C3ED9568FDEC9567FC744D2DF58274043CF583EFF0E56815687002156780BC90047C0C
:403A8000E4F090047D7401F0900B89E0FF90047EEFF0900B89E0FFEF60297B017A0979FBC003C002C0017BFF7A59793E900B06127F89D001D002D00312BF8F90079D742235
:403AC000F080277B017A0979FBC003C002C0017BFF7A597944900B06127F89D001D002D00312BF8F90079D7421F090079DE0FF7E008E678F68E5684567604490079DE0FFF5
:403B00007E00C3EF9568FFEE9567FE74FB2FF58274093EF583E0FF90079DE0FEEEFD7C00C3ED9568FDEC9567FC747F2DF58274043CF583EFF0E56815687002156780B69023
:403B4000079DE0FF747F2FF582E43404F5837403F09004AE7405F09004AF7401F0900B8C127F179004B0127F2F900B02E0FF7E008E678F68E56845676044900B02E0FF7E8B
:403B800000C3EF9568FFEE9567FE741D2FF582740A3EF583E0FF900B02E0FEEEFD7C00C3ED9568FDEC9567FC74B42DF58274043CF583EFF0E56815687002156780B690045C
:403BC000E0E4F09004E17401F0900B90E0FF9004E2EFF0900B90E0FFEF60297B017A0A793EC003C002C0017BFF7A59798D900B06127F89D001D002D00312BF8F90079D74CD
:403C000014F080277B017A0A793EC003C002C0017BFF7A597994900B06127F89D001D002D00312BF8F90079D7415F090079DE0FF7E008E678F68E5684567604490079DE016
:403C4000FF7E00C3EF9568FFEE9567FE743E2FF582740A3EF583E0FF90079DE0FEEEFD7C00C3ED9568FDEC9567FC74E32DF58274043CF583EFF0E56815687002156780B6CB
:403C800090079DE0FF74E32FF582E43404F5837404F0AF757E008E678F68E5684567603EAF757E00C3EF9568FFEE9567FE74532FF582740A3EF583E0FFAE75EEFD7C00C3CE
:403CC000ED9568FDEC9567FC74122DF58274053CF583EFF0E56815687002156780BCAF767E008E678F68E5684567603EAF767E00C3EF9568FFEE9567FE74872FF582740A51
:403D00003EF583E0FFAE76EEFD7C00C3ED9568FDEC9567FC74A82DF58274053CF583EFF0E56815687002156780BCAF777E008E678F68E5684567603EAF777E00C3EF95689B
:403D4000FFEE9567FE74C22FF582740A3EF583E0FFAE77EEFD7C00C3ED9568FDEC9567FC743E2DF58274063CF583EFF0E56815687002156780BCAF787E008E678F68E5681E
:403D80004567603EAF787E00C3EF9568FFEE9567FE74EC2FF582740A3EF583E0FFAE78EEFD7C00C3ED9568FDEC9567FC74D42DF58274063CF583EFF0E56815687002156799
:403DC00080BC7B017A00792E90079BE0FEA3E0FFEF14FD12C97890079BE0FCA3E0FD742D2DF58274003CF583EFF07B017A00792E90079BE0FCA3E0FD900B08E4F012B57D45
:403E000012CCAF22900C46E0FF900B9BEFF022900B46E0FFEF6403604F7F007E007D807C47900C46127F231276E8127945900B9C127F2F7F007E007D807C47900C4A127F58
:403E4000231276E8127945900BA0127F2F7F007E007D807C47900C4E127F231276E8127945900BA4127F2F227F007E007D807C47900C46127F231276E8127945900BB41234
:403E80007F2F7F007E007D807C47900C4A127F231276E8127945900BB8127F2F7F007E007D807C47900C4E127F231276E8127945900BBC127F2F22900B46E0FFEF64036060
:403EC0004F7F007E007D807C47900C46127F231276E8127945900BA8127F2F7F007E007D807C47900C4A127F231276E8127945900BAC127F2F7F007E007D807C47900C4E98
:403F0000127F231276E8127945900BB0127F2F227F007E007D807C47900C46127F231276E8127945900BC0127F2F7F007E007D807C47900C4A127F231276E8127945900B80
:403F4000C4127F2F7F007E007D807C47900C4E127F231276E8127945900BC8127F2F22900C46E0FFEF6007900BCE7403F022900BCEE4F022900C46E0FF900BCFEFF02290B9
:403F80000C46E0FF900BD0EFF022756700756800C3E5689402E56794004003024351AE67AF6874462FF582740C3EF583E0FFAC67AD6874D12DF582740B3CF583EFF005681B
:403FC000E5687002056780C8756700756800C3E5689402E5679400400302407BE56825E0FFE56733FE74462FF582740C3EF583E0FEA3E0FFEE3395E0FDFCC004C005C0066D
:40400000C007E568AE677802C333CE33CED8F9FF74D32FF582740B3EF583D007D006D005D004127F2FE568AE677802C333CE33CED8F9FF74D32FF582740B3EF583C083C07A
:4040400082127F17AA67AB6874D12BF582740B3AF583E0F9A801127ECAD082D083127F2FAE67AF6874F12FF582740C3EF583E4F00568E56870020567023FCED20E227567D3
:4040800000756800C3E5689402E56794004003024351E568AE677802C333CE33CED8F9FF74462FF582740C3EF583127F17C004C005C006C007E568AE677802C333CE33CE5E
:4040C000D8F9FF74DB2FF582740B3EF583D007D006D005D004127F2F0568E5687002056780A2900C46E0FF900BE3EFF022756700756800C3E5689402E567940040030243EF
:4041000051E568AE677803C333CE33CED8F9FF74462FF582740C3EF583127F17C004C005C006C007E568AE677802C333CE33CED8F9FF74E42FF582740B3EF583D007D00617
:40414000D005D004127F2FE568AE677803C333CE33CED8F9FF744A2FF582740C3EF583127F17C004C005C006C007E568AE677802C333CE33CED8F9FF74EC2FF582740B3ED8
:40418000F583D007D006D005D004127F2FE568AE677802C333CE33CED8F9FF74E42FF582740B3EF583C083C082127F17AA67AB6874D12BF582740B3AF583E0F9A801127E52
:4041C000CAD082D083127F2FE568AE677802C333CE33CED8F9FF74EC2FF582740B3EF583C083C082127F17AA67AB6874D12BF582740B3AF583E0F9A801127ECAD082D083FA
:40420000127F2F0568E568700205670240F3900C46127F1790079E127F2F7F007E007D007C0090079E127F23D3127E7C500C90079E127F17900BF8127F2F900C4A127F179A
:4042400090079E127F2F7F007E007D007C0090079E127F23C3127E7C500302435190079E127F17900BFC127F2F22900C46E0FEA3E0FF900BCCEEF0A3EFF022900C46127FBE
:4042800017900C01127F2F22900C46E0FEA3E0FF900C05EEF0A3EFF022900C46E0FEA3E0FF900C07EEF0A3EFF022900C46E0FF900C00EFF0900C00E0FFEF7003024351905D
:4042C0000C09E4F0900C13E4F022900C46E0FEA3E0FF900C14EEF0A3EFF022900C46E0FF900C09EFF0900C09E0FFEF6064900C00E4F0900C13E4F022900C46127F17900C05
:404300000A127F2F22900C46127F17900C0E127F2F22900C46E0FF900C12EFF022900C46E0FF900C13EFF0900C13E0FFEF6022900C00E4F0900C09E4F022900C46127F1728
:40434000900C16127F2F22900C46E0FF900C1AEFF02290060A127F897BFF7A59799CC003C002C00190060A127F69A801AC02AD03D001D002D0031281D090060A127F69C0FB
:4043800003C002C0017BFF7A59799D900B06127F89D001D002D00312BF8F90060A127F69C003C002C0017BFF7A5979A0900B06127F89D001D002D00312BF8F90060A127F7B
:4043C00069C003C002C0017BFF7A5979B3900B06127F89D001D002D00312BF8F90060A127F69C003C002C0017BFF7A5979C3900B06127F89D001D002D00312BF8F90060A6A
:40440000127F69C003C002C0017BFF7A5979C9900B06127F89D001D002D00312BF8F7B017A06790DC003C002C0017BFF7A5979D7900642127F89900B11E0FF7E00900645E1
:40444000EEF0A3EFF0D001D002D0031282A890060A127F69C003C002C0017B017A06790D900B06127F89D001D002D00312BF8F7B017A06790DC003C002C0017BFF7A5979A9
:40448000E0900642127F89900645E4F0A37402F0D001D002D0031282A890060A127F69C003C002C0017B017A06790D900B06127F89D001D002D00312BF8F7B017A06790D4B
:4044C000C003C002C0017BFF7A5979F8900642127F89900B8AE0FEA3E0FF900645EEF0A3EFF0D001D002D0031282A890060A127F69C003C002C0017B017A06790D900B0651
:40450000127F89D001D002D00312BF8F7B017A06790DC003C002C0017BFF7A5A790D900642127F89900CFBE0FF7E00900645EEF0A3EFF0D001D002D0031282A890060A126A
:404540007F69C003C002C0017B017A06790D900B06127F89D001D002D00312BF8F90060A127F69C003C002C0017BFF7A59799D900B06127F89D001D002D00312BF8F900690
:404580000A127F69C003C002C0017BFF7A5A791D900B06127F89D001D002D00312BF8F90060A127F69C003C002C0017BFF7A5A792A900B06127F89D001D002D00312BF8FDA
:4045C000756700756800C3E5689402E56764809480400302465B7B017A06790DC003C002C0017BFF7A5A793D900642127F89E568AE677802C333CE33CED8F9FF743A2FF531
:4046000082740C3EF583127F17AA67AB6874472BF582740B3AF583E0F9A801127EB6900645EEF0A3EFF0D001D002D0031282A890060A127F69C003C002C0017B017A06795E
:404640000D900B06127F89D001D002D00312BF8F0568E568700205670245C690060A127F69C003C002C0017BFF7A59799D900B06127F89D001D002D00312BF8F7B017A0627
:40468000790DC003C002C0017BFF7A5A7941900642127F89D001D002D0031282A8900C42E0FFEF5403FFEF60237B017A06790DC003C002C0017BFF7A5A7951900B06127FFC
:4046C00089D001D002D00312BF8F80217B017A06790DC003C002C0017BFF7A5A7957900B06127F89D001D002D00312BF8F90060A127F69C003C002C0017B017A06790D9051
:404700000B06127F89D001D002D00312BF8F90060A127F69C003C002C0017BFF7A5A795C900B06127F89D001D002D00312BF8F90060A127F69C003C002C0017BFF7A5A793D
:4047400072900B06127F89D001D002D00312BF8F756700756800C3E5689402E56764809480400302481E7B017A06790DC003C002C0017BFF7A5A7982900642127F89E56898
:404780002401FFE5673400FE900645EEF0A3EFF0E568AE677802C333CE33CED8F9FF741C2FF582740C3EF583127F17AA67AB6874472BF582740B3AF583E0F9A801127EB61D
:4047C000900647EEF0A3EFF0D001D002D0031282A890060A127F69C003C002C0017B017A06790D900B06127F89D001D002D00312BF8F90060A127F69C003C002C0017BFF7D
:404800007A59799D900B06127F89D001D002D00312BF8F0568E568700205670247567B017A06790DC003C002C0017BFF7A5A798B900642127F89900C36127F179006451254
:404840007F2FD001D002D0031282A890060A127F69C003C002C0017B017A06790D900B06127F89D001D002D00312BF8F90060A127F69C003C002C0017BFF7A59799D900B07
:4048800006127F89D001D002D00312BF8F7B017A06790DC003C002C0017BFF7A5A799D900642127F89900C24E0FEA3E0FFEE3395E0FDFC900645127F2FD001D002D0031212
:4048C00082A890060A127F69C003C002C0017B017A06790D900B06127F89D001D002D00312BF8F90060A127F69C003C002C0017BFF7A59799D900B06127F89D001D002D02A
:404900000312BF8F7B017A06790DC003C002C0017BFF7A5A79B1900642127F89900C26E0FEA3E0FFEE3395E0FDFC900645127F2FD001D002D0031282A890060A127F69C08A
:4049400003C002C0017B017A06790D900B06127F89D001D002D00312BF8F90060A127F69C003C002C0017BFF7A59799D900B06127F89D001D002D00312BF8F90060A127F99
:4049800069C003C002C0017BFF7A5A79C5900B06127F89D001D002D00312BF8F90060A127F69C003C002C0017BFF7A5A79DB900B06127F89D001D002D00312BF8F900B4637
:4049C000E0FFEF64037003024AE47B017A06790DC003C002C0017BFF7A5A79ED900642127F89900B12127F17EC1279077B007A00798078471277F1900645127F2FD001D03B
:404A000002D0031282A890060A127F69C003C002C0017B017A06790D900B06127F89D001D002D00312BF8F7B017A06790DC003C002C0017BFF7A5A79F7900642127F89906A
:404A40000B16127F17EC1279077B007A00798078471277F1900645127F2FD001D002D0031282A890060A127F69C003C002C0017B017A06790D900B06127F89D001D002D0EB
:404A80000312BF8F7B017A06790DC003C002C0017BFF7A5B7901900642127F89900B1A127F17EC1279077B007A00798078471277F1900645127F2FD001D002D0031282A8C1
:404AC00090060A127F69C003C002C0017B017A06790D900B06127F89D001D002D00312BF8F024BFB7B017A06790DC003C002C0017BFF7A5A79ED900642127F89900B2A1236
:404B00007F17EC1279077B007A00798078471277F1900645127F2FD001D002D0031282A890060A127F69C003C002C0017B017A06790D900B06127F89D001D002D00312BF89
:404B40008F7B017A06790DC003C002C0017BFF7A5A79F7900642127F89900B2E127F17EC1279077B007A00798078471277F1900645127F2FD001D002D0031282A890060A2B
:404B8000127F69C003C002C0017B017A06790D900B06127F89D001D002D00312BF8F7B017A06790DC003C002C0017BFF7A5B7901900642127F89900B32127F17EC1279072C
:404BC0007B007A00798078471277F1900645127F2FD001D002D0031282A890060A127F69C003C002C0017B017A06790D900B06127F89D001D002D00312BF8F90060A127F1D
:404C000069C003C002C0017BFF7A5B790B900B06127F89D001D002D00312BF8F900B46E0FFEF64037003024D437B017A06790DC003C002C0017BFF7A5A79ED900642127F61
:404C400089900B1E127F17EC1279077B007A00798078471277F1900645127F2FD001D002D0031282A890060A127F69C003C002C0017B017A06790D900B06127F89D001D09A
:404C800002D00312BF8F7B017A06790DC003C002C0017BFF7A5A79F7900642127F89900B22127F17EC1279077B007A00798078471277F1900645127F2FD001D002D003121A
:404CC00082A890060A127F69C003C002C0017B017A06790D900B06127F89D001D002D00312BF8F7B017A06790DC003C002C0017BFF7A5B7901900642127F89900B26127FC2
:404D000017EC1279077B007A00798078471277F1900645127F2FD001D002D0031282A890060A127F69C003C002C0017B017A06790D900B06127F89D001D002D00312BF8F77
:404D4000024E5A7B017A06790DC003C002C0017BFF7A5A79ED900642127F89900B36127F17EC1279077B007A00798078471277F1900645127F2FD001D002D0031282A89020
:404D8000060A127F69C003C002C0017B017A06790D900B06127F89D001D002D00312BF8F7B017A06790DC003C002C0017BFF7A5A79F7900642127F89900B3A127F17EC129D
:404DC00079077B007A00798078471277F1900645127F2FD001D002D0031282A890060A127F69C003C002C0017B017A06790D900B06127F89D001D002D00312BF8F7B017AD6
:404E000006790DC003C002C0017BFF7A5B7901900642127F89900B3E127F17EC1279077B007A00798078471277F1900645127F2FD001D002D0031282A890060A127F69C018
:404E400003C002C0017B017A06790D900B06127F89D001D002D00312BF8F90060A127F69C003C002C0017BFF7A59799D900B06127F89D001D002D00312BF8F900B44E0FF07
:404E8000EFB4032390060A127F69C003C002C0017BFF7A5B7925900B06127F89D001D002D00312BF8F802190060A127F69C003C002C0017BFF7A5B793F900B06127F89D0B8
:404EC00001D002D00312BF8F900B45E0FFEF127F924EDB004EFE0100004F1F90060A127F69C003C002C0017BFF7A5B7958900B06127F89D001D002D00312BF8F802190062F
:404F00000A127F69C003C002C0017BFF7A5B796A900B06127F89D001D002D00312BF8F90060A127F69C003C002C0017BFF7A5B7981900B06127F89D001D002D00312BF8FAA
:404F4000900B46E0FFEF127F924F59004F7C014F9F024FC20300004FE390060A127F69C003C002C0017BFF7A5B7990900B06127F89D001D002D00312BF8F806790060A1253
:404F80007F69C003C002C0017BFF7A5B799B900B06127F89D001D002D00312BF8F804490060A127F69C003C002C0017BFF7A5B79A1900B06127F89D001D002D00312BF8F31
:404FC000802190060A127F69C003C002C0017BFF7A5B79AB900B06127F89D001D002D00312BF8F90060A127F69C003C002C0017BFF7A5B79C2900B06127F89D001D002D094
:405000000312BF8F756700756800C3E5689402E5676480948040030250B47B017A06790DC003C002C0017BFF7A5A7982900642127F89E5682401FFE5673400FE900645EE66
:40504000F0A3EFF0AE67AF6874472FF582740B3EF583E0FF7E00900647EEF0A3EFF0D001D002D0031282A890060A127F69C003C002C0017B017A06790D900B06127F89D0C3
:4050800001D002D00312BF8F90060A127F69C003C002C0017BFF7A59799D900B06127F89D001D002D00312BF8F0568E5687002056702500A90060A127F69C003C002C00142
:4050C0007BFF7A5B79D7900B06127F89D001D002D00312BF8F756700756800C3E5689402E5676480948040030251A17B017A06790DC003C002C0017BFF7A5B79ED90064251
:40510000127F89E5682401FFE5673400FE900645EEF0A3EFF0E568AE677802C333CE33CED8F9FF74492FF582740B3EF583127F17AA67AB6874472BF582740B3AF583E0F9EF
:40514000A801127EB6900647127F2FD001D002D0031282A890060A127F69C003C002C0017B017A06790D900B06127F89D001D002D00312BF8F90060A127F69C003C002C01F
:40518000017BFF7A59799D900B06127F89D001D002D00312BF8F0568E568700205670250DB90060A127F69C003C002C0017BFF7A5B79F7900B06127F89D001D002D0031253
:4051C000BF8F756700756800C3E5689402E5676480948040030252797B017A06790DC003C002C0017BFF7A5C7911900642127F89E5682401FFE5673400FE900645EEF0A3CF
:40520000EFF0E568AE677802C333CE33CED8F9FF74512FF582740B3EF583127F17900647127F2FD001D002D0031282A890060A127F69C003C002C0017B017A06790D900B8A
:4052400006127F89D001D002D00312BF8F90060A127F69C003C002C0017BFF7A59799D900B06127F89D001D002D00312BF8F0568E568700205670251C890060A127F69C057
:4052800003C002C0017BFF7A5C791A900B06127F89D001D002D00312BF8F7B017A06790DC003C002C0017BFF7A5C7950900642127F89900B77127F17900645127F2FD001FB
:4052C000D002D0031282A890060A127F69C003C002C0017B017A06790D900B06127F89D001D002D00312BF8F90060A127F69C003C002C0017BFF7A59799D900B06127F89DC
:40530000D001D002D00312BF8F90060A127F69C003C002C0017BFF7A5C7953900B06127F89D001D002D00312BF8F7B017A06790DC003C002C0017BFF7A5C79669006421229
:405340007F89900B7BE0FEA3E0FF900645EEF0A3EFF0D001D002D0031282A890060A127F69C003C002C0017B017A06790D900B06127F89D001D002D00312BF8F90060A121D
:405380007F69C003C002C0017BFF7A59799D900B06127F89D001D002D00312BF8F90060A127F69C003C002C0017BFF7A5C796A900B06127F89D001D002D00312BF8F7B01AB
:4053C0007A06790DC003C002C0017BFF7A5C7966900642127F89900B7DE0FEA3E0FF900645EEF0A3EFF0D001D002D0031282A890060A127F69C003C002C0017B017A067986
:405400000D900B06127F89D001D002D00312BF8F90060A127F69C003C002C0017BFF7A5C7976900B06127F89D001D002D00312BF8F7B017A06790DC003C002C0017BFF7A62
:405440005C797A900642127F89900BE3E0FF7E00900645EEF0A3EFF0D001D002D0031282A890060A127F69C003C002C0017B017A06790D900B06127F89D001D002D003127E
:40548000BF8F90060A127F69C003C002C0017BFF7A59799D900B06127F89D001D002D00312BF8F756700756800C3E5689402E5676480948040030255C67B017A06790DC085
:4054C00003C002C0017BFF7A5C7994900642127F89E5682401FFE5673400FE900645EEF0A3EFF0E568AE677802C333CE33CED8F9FF74E42FF582740B3EF583127F17AA6750
:40550000AB6874D12BF582740B3AF583E0F9A801127EB6900647127F2FD001D002D0031282A890060A127F69C003C002C0017B017A06790D900B06127F89D001D002D00396
:4055400012BF8F7B017A06790DC003C002C0017BFF7A5C79BA900642127F89E568AE677802C333CE33CED8F9FF74EC2FF582740B3EF583127F17AA67AB6874D12BF58274BB
:405580000B3AF583E0F9A801127EB6900645127F2FD001D002D0031282A890060A127F69C003C002C0017B017A06790D900B06127F89D001D002D00312BF8F0568E56870FC
:4055C0000205670254A97B017A06790DC003C002C0017BFF7A5C79C7900642127F89900BF4E0FEA3E0FF900BD1E0FDEFA805088006CEA2E713CE13D8F8FF900645EEF0A31C
:40560000EFF0D001D002D0031282A890060A127F69C003C002C0017B017A06790D900B06127F89D001D002D00312BF8F90060A127F69C003C002C0017BFF7A59799D900B08
:4056400006127F89D001D002D00312BF8F7B017A06790DC003C002C0017BFF7A5C79D9900642127F89900BCCE0FEA3E0FF900645EEF0A3EFF0D001D002D0031282A890068E
:405680000A127F69C003C002C0017B017A06790D900B06127F89D001D002D00312BF8F90060A127F69C003C002C0017BFF7A59799D900B06127F89D001D002D00312BF8FB9
:4056C000900B76E0FFEF602390060A127F69C003C002C0017BFF7A5C79EB900B06127F89D001D002D00312BF8F802190060A127F69C003C002C0017BFF7A5D7912900B0625
:40570000127F89D001D002D00312BF8F900B7FE0FFEF602390060A127F69C003C002C0017BFF7A5D7938900B06127F89D001D002D00312BF8F802190060A127F69C003C0DD
:4057400002C0017BFF7A5D7968900B06127F89D001D002D00312BF8F900B89E0FFEF602390060A127F69C003C002C0017BFF7A5D7997900B06127F89D001D002D00312BFEB
:405780008F802190060A127F69C003C002C0017BFF7A5D79C8900B06127F89D001D002D00312BF8F300D2390060A127F69C003C002C0017BFF7A5D79F8900B06127F89D029
:4057C00001D002D00312BF8F802190060A127F69C003C002C0017BFF7A5E7913900B06127F89D001D002D00312BF8F300C2390060A127F69C003C002C0017BFF7A5E792D7C
:40580000900B06127F89D001D002D00312BF8F802190060A127F69C003C002C0017BFF7A5E7951900B06127F89D001D002D00312BF8F300A2390060A127F69C003C002C06D
:40584000017BFF7A5E7974900B06127F89D001D002D00312BF8F802190060A127F69C003C002C0017BFF7A5E7999900B06127F89D001D002D00312BF8F900B90E0FFEF6088
:405880002390060A127F69C003C002C0017BFF7A5E79BD900B06127F89D001D002D00312BF8F802190060A127F69C003C002C0017BFF7A5E79D0900B06127F89D001D00252
:4058C000D00312BF8F7B017A06790DC003C002C0017BFF7A5E79E2900642127F89900C32127F23900CD1127F17127D1C900645127F2FD001D002D0031282A890060A127F4E
:4059000069C003C002C0017B017A06790D900B06127F89D001D002D00312BF8F90060A127F69C003C002C0017BFF7A59799D900B06127F89D001D002D00312BF8F22205936
:4059400045530000204E4F000020557362000020456E636F6465722033000020506F736974696F6E00002050574D00002043757272656E74000020506F736974696F6E2034
:40598000616E642063757272656E740000204C65667400002052696768740000000D0A004669726D776172652076657273696F6E3A200043554646204D4F442076362E31A5
:4059C0002E33002E0D0A0D0A0044455649434520494E464F0D0A0049443A2025640D0A004E756D626572206F662073656E736F72733A2025640D0A00537570706C792074AA
:405A0000656E73696F6E3A2025640D0A0050574D204C696D69743A2025640D0A004D4F544F5220494E464F0D0A004D6F746F72207265666572656E6365733A200025642089
:405A4000004D6F746F7220656E61626C65643A20005945530D0A004E4F0D0A000D0A4D4541535552454D454E545320494E464F0D0A0053656E736F722076616C75653A0D03
:405A80000A002564202D3E20256400566F6C7461676520286D56293A20256C640043757272656E74203120286D41293A20256C640043757272656E74203220286D41293A9A
:405AC00020256C64000D0A44455649434520504152414D45544552530D0A0050494420436F6E74726F6C6C65723A0D0A0050202D3E2025660D0A0049202D3E2025660D0AFA
:405B00000044202D3E2025660D0A0043757272656E742050494420436F6E74726F6C6C65723A0D0A00537461727475702061637469766174696F6E3A205945530D0A005365
:405B40007461727475702061637469766174696F6E3A204E4F0D0A00496E707574206D6F64653A205553420D0A00496E707574206D6F64653A2053656E736F7220330D0AE2
:405B800000436F6E74726F6C204D6F64653A2000506F736974696F6E0D0A0050574D0D0A0043757272656E740D0A00506F736974696F6E20616E642063757272656E740DBC
:405BC0000A0053656E736F72207265736F6C7574696F6E3A0D0A004D6561737572656D656E74204F66667365743A0D0A002564202D3E20256C64004D6561737572656D6531
:405C00006E74204D756C7469706C6965723A0D0A002564202D3E202566000A43757272656E7420636F6E74726F6C6C6572277320706172616D65746572733A0A50726F7007
:405C40006F7274696F6E616C206761696E3A200025660053617475726174696F6E2076616C75653A20002568640044656164207A6F6E653A20000D0A0A00506F7369746929
:405C80006F6E206C696D6974206163746976653A20256400506F736974696F6E206C696D6974206D6F746F722025643A20696E66202D3E20256C64202000737570202D3E61
:405CC00020256C640D0A004D61782073746966666E6573733A2025640043757272656E74206C696D69743A2025640043756666207374617274757020616374697661746949
:405D00006F6E2028666F726365293A205945530D0A004375666620737461727475702061637469766174696F6E2028666F726365293A204E4F0D0A00437566662073746121
:405D4000727475702061637469766174696F6E202870726F7072696F63657074696F6E293A205945530D0A004375666620737461727475702061637469766174696F6E200D
:405D80002870726F7072696F63657074696F6E293A204E4F0D0A004375666620737461727475702061637469766174696F6E2028666F726365202B2070726F7072696F2988
:405DC0003A205945530D0A004375666620737461727475702061637469766174696F6E2028666F726365202B2070726F7072696F293A204E4F0D0A00437566662061637458
:405E00006976652028666F726365293A205945530D0A0043756666206163746976652028666F726365293A204E4F0D0A004375666620616374697665202870726F7072698A
:405E40006F63657074696F6E293A205945530D0A004375666620616374697665202870726F7072696F63657074696F6E293A204E4F0D0A004375666620616374697665205A
:405E800028666F726365202B2070726F7072696F293A205945530D0A0043756666206163746976652028666F726365202B2070726F7072696F293A204E4F0D0A0043756668
:405EC0006620736964653A2052494748540D0A004375666620736964653A204C4546540D0A0064656275673A20256C6400000000000000000000000000000000000000004D
:405F00000000000000000000000000000000000000000000000000000000000000000000000000000000000000000000000000000000000000000000000000000000000061
:405F40000000000000000000000000000000000000000000000000000000000000000000000000000000000000000000000000000000000000000000000000000000000021
:405F800000000000000000000000000000000000000000000000000000000000000000000000000000000000000000000000000000000000000000000000000000000000E1
:405FC00000000000000000000000000000000000000000000000000000000000000000000000000000000000000000000000000000000000000000000000000000000000A1
:406000000000000000000000000000000000000000000000000000000000000000000000000000000000000000000000000000000000000000000000000000000000000060
:406040000000000000000000000000000000000000000000000000000000000000000000000000000000000000000000000000000000000000000000000000000000000020
:4060800000000000000000000000000000000000000000000000000000000000000000000000000000000000000000000000000000000000000000000000000000000000E0
:4060C00000000000000000000000000000000000000000000000000000000000000000000000000000000000000000000000000000000000000000000000000000000000A0
:40610000000000000000000000000000000000000000000000000000000000000000000000000000000000000000000000000000000000000000000000000000000000005F
:40614000000000000000000000000000000000000000000000000000000000000000000000000000000000000000000000000000000000000000000000000000000000001F
:4061800000000000000000000000000000000000000000000000000000000000000000000000000000000000000000000000000000000000000000000000000000000000DF
:4061C000000000000000000000000000000000000000000000000000000000000000000000000000000000000000000000000000000000000000000000000000000000009F
:40620000000000000000000000000000000000000000000000000000000000000000000000000000000000000000000000000000000000000000000000000000000000005E
:40624000000000000000000000000000000000000000000000000000000000000000000000000000000000000000000000000000000000000000000000000000000000001E
:4062800000000000000000000000000000000000000000000000000000000000000000000000000000000000000000000000000000000000000000000000000000000000DE
:4062C000000000000000000000000000000000000000000000000000000000000000000000000000000000000000000000000000000000000000000000000000000000009E
:40630000000000000000000000000000000000000000000000000000000000000000000000000000000000000000000000000000000000000000000000000000000000005D
:40634000000000000000000000000000000000000000000000000000000000000000000000000000000000000000000000000000000000000000000000000000000000001D
:4063800000000000000000000000000000000000000000000000000000000000000000000000000000000000000000000000000000000000000000000000000000000000DD
:4063C000000000000000000000000000000000000000000000000000000000000000000000000000000000000000000000000000000000000000000000000000000000009D
:40640000000000000000000000000000000000000000000000000000000000000000000000000000000000000000000000000000000000000000000000000000000000005C
:40644000000000000000000000000000000000000000000000000000000000000000000000000000000000000000000000000000000000000000000000000000000000001C
:4064800000000000000000000000000000000000000000000000000000000000000000000000000000000000000000000000000000000000000000000000000000000000DC
:4064C000000000000000000000000000000000000000000000000000000000000000000000000000000000000000000000000000000000000000000000000000000000009C
:40650000000000000000000000000000000000000000000000000000000000000000000000000000000000000000000000000000000000000000000000000000000000005B
:40654000000000000000000000000000000000000000000000000000000000000000000000000000000000000000000000000000000000000000000000000000000000001B
:4065800000000000000000000000000000000000000000000000000000000000000000000000000000000000000000000000000000000000000000000000000000000000DB
:4065C000000000000000000000000000000000000000000000000000000000000000000000000000000000000000000000000000000000000000000000000000000000009B
:40660000000000000000000000000000000000000000000000000000000000000000000000000000000000000000000000000000000000000000000000000000000000005A
:40664000000000000000000000000000000000000000000000000000000031202D204465766963652049443A0032202D20506F736974696F6E20504944205B502C20492CC8
:4066800020445D3A0033202D2043757272656E7420504944205B502C20492C20445D3A0034202D20537461727475702041637469766174696F6E3A000000000035202D2036
:4066C000496E707574206D6F64653A00000000000000000000000036202D20436F6E74726F6C206D6F64653A000000000000000000000000000000000000000000003720B1
:406700002D205265736F6C7574696F6E733A000000000038202D204D6561737572656D656E74204F6666736574733A0039202D204D756C7469706C696572733A00313020D1
:406740002D20506F732E206C696D6974206163746976653A00000000003131202D20506F732E206C696D697473205B696E662C207375705D3A003132202D204D61782073FA
:4067800074657073205B6E65672C20706F735D3A003133202D2043757272656E74206C696D69743A003134202D2043757272656E742070726F706F7274696F6E616C206781
:4067C00061696E3A003135202D2043757272656E7420646966666572656E63652073617475726174696F6E3A003136202D2043757272656E742064656164207A6F6E653A27
:40680000003137202D20437566662061637469766174696F6E20666C616720666F7263653A00000000003138202D20506F7765722074656E73696F6E3A0000003139202D96
:4068400020437566662061637469766174696F6E20666C61672070726F7072696F3A00000000003230202D204D617820736C696465206D6F76656D656E74202870726F7049
:4068800072696F293A003231202D204D617820534820636C6F73757265202870726F7072696F293A003232202D2048616E642049443A003233202D204375666620666C61CB
:4068C0006720666F7263652B70726F7072696F3A00000000003234202D205348207265737420706F732870726F7072696F293A000000000000003235202D2041726D2073B7
:406900006964653A0000000000000030202D3E205573620A31202D3E205368616674277320706F736974696F6E20636F6E74726F6C7320746865206D6F746F72730A0030E8
:40694000202D3E20506F736974696F6E0A31202D3E2050574D0A32202D3E2043757272656E740A33202D3E20506F736974696F6E2D43757272656E740A0030202D3E2044FD
:40698000656163746976617465205B4E4F5D0A31202D3E204163746976617465205B5945535D0A0030202D3E2052696768740A31202D3E204C6566740A00900003EFF0906C
:4069C0000003E0FF8F237F007E007D007C008F2B8E2A8D298C28900B12127F178F378E368D358C34900B16127F178F3B8E3A8D398C38900B1A127F178F3F8E3E8D3D8C3CD2
:406A0000900B1E127F178F438E428D418C40900B22127F178F478E468D458C44900B26127F178F4B8E4A8D498C48900B2A127F178F4F8E4E8D4D8C4C900B2E127F178F5317
:406A40008E528D518C50900B32127F178F578E568D558C54900B36127F178F5B8E5A8D598C58900B3A127F178F5F8E5E8D5D8C5C900B3E127F178F638E628D618C60E523F8
:406A8000C3940240030276E7900B46E0FFEF127F926AA100750D017225026D340300007579AF23EF25E025E024E5F582E4340CF583127F23AF23EF25E025E02491F582E4DA
:406AC000340BF583127F17127D1C8F2F8E2E8D2D8C2C301105C21112A319AF23EF25E025E02486F582E4340DF583C083C082127F17EF252FFFEE352EFEED352DFDEC352CD9
:406B0000FCD082D083127F2FAF23EF25E025E02486F582E4340DF583127F177BA07A8679017800C3127E7C501D7FA07E867D017C00AB23EB25E025E02486F582E4340DF55F
:406B400083127F2F803CAF23EF25E025E02486F582E4340DF583127F177B607A7979FE78FFD3127E7C401B7F607E797DFE7CFFAB23EB25E025E02486F582E4340DF5831290
:406B80007F2F301105C21112A3197F007E007D007C008F2B8E2A8D298C287F007E007D007C00AB37AA36A935A834C3127E7C60737F007E007D027C00AB2FAA2EA92DA82C06
:406BC000D3127E7C50167F007E007DFE7CFFAB2FAA2EA92DA82CC3127E7C5027AF2FAE2EAD2DAC2C7808127EB6AB37AA36A935A834127D2A7808127EB68F2B8E2A8D298CDA
:406C0000288020AF2FAE2EAD2DAC2CAB37AA36A935A834127D2A7810127EB68F2B8E2A8D298C28301105C21112A3197F007E007D007C00AB3BAA3AA939A838C3127E7C60A9
:406C400040AF3BAE3AAD39AC387806127EB6AB23EB25E025E02486F582E4340DF583127F23127D2A780A127EB6E52B2FFFE52A3EFEE5293DFDE5283CFC8F2B8E2A8D298CF4
:406C8000287F007E007D007C00AB3FAA3EA93DA83CC3127E7C6051AF23EF25E025E024E5F582E4340CF583127F23AF23EF25E025E0241CF582E4340CF583127F17127D1C8E
:406CC000AB3FAA3EA93DA83C127D2A7810127EB6E52B2FFFE52A3EFEE5293DFDE5283CFC8F2B8E2A8D298C28301105C21112A319E52370207F007E007D007C00AB2BAA2A60
:406D0000A929A828C3127E7C4005D213027579C2130275797F007E007D007C00AB2BAA2AA929A828C3127E7C4005D214027579C214027579AF23EF25E025E024E5F582E4E2
:406D4000340CF583127F23AF23EF25E025E02491F582E4340BF583127F17127D1C8F2F8E2E8D2D8C2CAF23EF25E025E02486F582E4340DF583C083C082127F17EF252FFFDE
:406D8000EE352EFEED352DFDEC352CFCD082D083127F2F301105C21112A319AF23EF25E025E02486F582E4340DF583127F177BA07A8679017800C3127E7C501D7FA07E8606
:406DC0007D017C00AB23EB25E025E02486F582E4340DF583127F2F803CAF23EF25E025E02486F582E4340DF583127F177B607A7979FE78FFD3127E7C401B7F607E797DFE24
:406E00007CFFAB23EB25E025E02486F582E4340DF583127F2F7F007E007D007C008F278E268D258C24301105C21112A3197F007E007D007C00AB4FAA4EA94DA84CC3127EC8
:406E40007C6030AF2FAE2EAD2DAC2CAB4FAA4EA94DA84C127D2A7810127EB6E5272FFFE5263EFEE5253DFDE5243CFC8F278E268D258C247F007E007D007C00AB53AA52A9CC
:406E800051A850C3127E7C603BAF23EF25E025E02486F582E4340DF583127F17AB53AA52A951A850127D2A7810127EB6E5272FFFE5263EFEE5253DFDE5243CFC8F278E260B
:406EC0008D258C247F007E007D007C00AB57AA56A955A854C3127E7C6051AF23EF25E025E024E5F582E4340CF583127F23AF23EF25E025E0241CF582E4340CF583127F175D
:406F0000127D1CAB57AA56A955A854127D2A7810127EB6E5272FFFE5263EFEE5253DFDE5243CFC8F278E268D258C24301105C21112A319900B42E0FEA3E0FFEE3395E0FD9A
:406F4000FCAB27AA26A925A824D3127E7C4018900B42E0FEA3E0FFEE3395E0FDFC8F278E268D258C248040900B42E0FEA3E0FFC3E49FFFE49EFEEE3395E0FDFCAB27AA2617
:406F8000A925A824C3127E7C501D900B42E0FEA3E0FFC3E49FFFE49EFEEE3395E0FDFC8F278E268D258C24301105C21112A319AF23EF25E024EDF582E4340CF583E0FEA34C
:406FC000E0FFAB07AA06EA3395E0F9F8C3E5279BFFE5269AFEE52599FDE52498FC8F338E328D318C30AF23EF25E025E0248EF582E4340DF583C083C082127F17EF2533FF84
:40700000EE3532FEED3531FDEC3530FCD082D083127F2FAF23EF25E025E0248EF582E4340DF583127F177BA07A8679017800C3127E7C501D7FA07E867D017C00AB23EB257E
:40704000E025E0248EF582E4340DF583127F2F803CAF23EF25E025E0248EF582E4340DF583127F177B607A7979FE78FFD3127E7C401B7F607E797DFE7CFFAB23EB25E0250B
:40708000E0248EF582E4340DF583127F2F301105C21112A3197F007E007D007C008F2B8E2A8D298C287F007E007D007C00AB5BAA5AA959A858C3127E7C6030AF33AE32ADE1
:4070C00031AC30AB5BAA5AA959A858127D2A7810127EB6E52B2FFFE52A3EFEE5293DFDE5283CFC8F2B8E2A8D298C287F007E007D007C00AB5FAA5EA95DA85CC3127E7C60BD
:407100003BAF23EF25E025E0248EF582E4340DF583127F17AB5FAA5EA95DA85C127D2A7810127EB6E52B2FFFE52A3EFEE5293DFDE5283CFC8F2B8E2A8D298C287F007E0049
:407140007D007C00AB63AA62A961A860C3127E7C605BAF23EF25E024EDF582E4340CF583E0FEA3E0FFAB07AA06EA3395E0F9F8AF23EF25E025E0247EF582E4340DF583129E
:407180007F17127D1CAB63AA62A961A860127D2A7810127EB6E52B2FFFE52A3EFEE5293DFDE5283CFC8F2B8E2A8D298C28AF23EF25E024EDF582E4340CF583E0FEA3E0FF9F
:4071C000EE3395E0FDFCAB23EB25E025E0247EF582E4340DF583127F2F301105C21112A319E52370207F007E007D007C00AB2BAA2AA929A828C3127E7C4005D2130275791D
:40720000C2130275797F007E007D007C00AB2BAA2AA929A828C3127E7C4005D214027579C214027579AF23EF25E025E02491F582E4340BF583127F17AB2374D12BF582E4C4
